{
	"data": {
		"bytecode": {
			"linkReferences": {},
			"object": "608060405234801561001057600080fd5b50613118806100206000396000f3fe60806040523480156200001157600080fd5b5060043610620002985760003560e01c806375d5024b1162000165578063a50cd8e711620000d5578063cf0237791162000093578063cf0237791462000573578063d60b347f146200057d578063dd62ed3e1462000594578063f1b7cf4914620005a5578063fc7b9c1814620005bc578063ffbe3b7314620005c65762000298565b8063a50cd8e71462000524578063a6c409f1146200053b578063a9059cbb14620002bf578063bc7513e21462000545578063c9aff70c146200055c5762000298565b8063900cf0cf1162000123578063900cf0cf14620004d857806395d89b4114620004e257806397a5d5b514620004ec5780639a649edc14620005035780639f6e1b26146200050d5762000298565b806375d5024b146200047f5780637dc0d1d014620004965780638129fc1c14620004a0578063825ad60714620004aa57806386cf9f1414620004c15762000298565b80633a3e6c81116200020d5780635053e46111620001cb5780635053e461146200040d57806351adeb5714620004175780635c60da1b146200043057806364668022146200043a5780636a39e328146200045157806370a0823114620004685762000298565b80633a3e6c8114620003965780633fbba9a614620003ad57806344d96e9514620003d35780634a96026114620003dd5780634c73609914620003f65762000298565b806318160ddd116200025b57806318160ddd146200033b5780631edbcf6c146200034557806323b872dd146200034f578063313ce5671462000366578063353a420c146200037f5762000298565b806306fdde03146200029d578063095ea7b314620002bf57806310e95b6c14620002e557806315e14bf6146200030b57806316f0115b1462000322575b600080fd5b620002a7620005dd565b604051620002b6919062001389565b60405180910390f35b620002d6620002d036600462001092565b62000614565b604051620002b6919062001359565b620002fc620002f6366004620010c7565b6200061d565b604051620002b69190620013d2565b620002fc6200031c36600462000fd6565b62000635565b6200032c62000653565b604051620002b6919062001349565b620002fc62000662565b620002fc62000668565b620002d6620003603660046200103e565b6200066e565b6200037062000677565b604051620002b69190620013e2565b620002fc6200039036600462000fd6565b6200067c565b620002d6620003a736600462000fd6565b6200069a565b620003c4620003be36600462000fff565b620006b7565b604051620002b6919062001379565b620002fc620006ea565b620003f4620003ee36600462000fd6565b620006f0565b005b620002fc6200040736600462001109565b620006fe565b620002fc6200072f565b6200042162000758565b604051620002b6919062001369565b6200032c62000767565b620002fc6200044b36600462000fd6565b6200078c565b620002fc62000462366004620010c7565b620007aa565b620002fc6200047936600462000fd6565b620007bf565b620002d662000490366004620010c7565b620007dd565b62000421620007f2565b620003f462000801565b620002fc620004bb36600462000fd6565b620008a1565b620002fc620004d236600462000fd6565b62000900565b620002fc6200091b565b620002a762000921565b620003c4620004fd36600462000fd6565b62000940565b620002fc620009ad565b620002fc6200051e36600462000fff565b620009b3565b620002fc6200053536600462000fd6565b620009e2565b620002fc62000a0b565b620002fc6200055636600462001092565b62000aab565b620002fc6200056d366004620010c7565b62000af3565b620002fc62000b08565b620002d66200058e36600462000fd6565b62000b0e565b620002fc620002d036600462000fff565b620002fc620005b636600462000fd6565b62000b2f565b620002fc62000b4a565b620002fc620005d7366004620010c7565b62000b50565b60408051808201909152601e81527f42696e616e6365204167696c652053657420446f6c6c6172205374616b650000602082015290565b60005b92915050565b6000818152600d60205260409020600201545b919050565b6001600160a01b03166000908152600e602052604090206001015490565b600b546001600160a01b031690565b60035490565b60065490565b60009392505050565b601290565b6001600160a01b03166000908152600e602052604090206003015490565b6001600160a01b03166000908152600e6020526040902054151590565b6001600160a01b038082166000908152600e60209081526040808320938616835260049093019052205460ff1692915050565b60045490565b620006fb8162000b62565b50565b6000828152600d602052604081206003018054839081106200071c57fe5b9060005260206000200154905092915050565b60006200073b62000f80565b6200074562000c60565b9050620007528162000c91565b91505090565b6009546001600160a01b031690565b7f360894a13ba1a3210667c828492db98dca3e2076cc3735a920a3ca505d382bbc5490565b6001600160a01b03166000908152600e602052604090206002015490565b6000908152600d602052604090206003015490565b6001600160a01b03166000908152600c602052604090206001015490565b6000620007e962000cb8565b90911115919050565b600a546001600160a01b031690565b6200083f620008136200058e62000767565b15692832b936b4b9b9b4b7b760b11b72105b1c9958591e481a5b9a5d1a585b1a5e9959606a1b62000cbd565b620008536200084d62000767565b62000d20565b604051620008619062000fa1565b604051809103906000f0801580156200087e573d6000803e3d6000fd5b50600980546001600160a01b0319166001600160a01b0392909216919091179055565b600080620008ae62000662565b905080620008c157600091505062000630565b620008f981620008ec620008d586620007bf565b620008df620006ea565b9063ffffffff62000d4716565b9063ffffffff62000d8716565b9392505050565b6001600160a01b03166000908152600c602052604090205490565b60025490565b604080518082019091526005815264424153445360d81b602082015290565b60006200094c6200091b565b6001600160a01b0383166000908152600c60205260409020600501541115620009785750600262000630565b6001600160a01b0382166000908152600c60205260409020600401546200099e6200091b565b10156200061457600162000617565b60085490565b6001600160a01b039182166000908152600c602090815260408083209390941682526003909201909152205490565b600062000617620009f3836200067c565b620009fe846200078c565b9063ffffffff62000dcb16565b600062000aa662000a1b62000b4a565b62000a2562000758565b6001600160a01b03166318160ddd6040518163ffffffff1660e01b815260040160206040518083038186803b15801562000a5e57600080fd5b505afa15801562000a73573d6000803e3d6000fd5b505050506040513d601f19601f8201168201806040525062000a999190810190620010e8565b9063ffffffff62000df316565b905090565b600062000ab88262000af3565b62000ac65750600062000617565b506001600160a01b03919091166000908152600c6020908152604080832093835260029093019052205490565b6000908152600d602052604090206001015490565b60055490565b6001600160a01b03166000908152600e602052604090206005015460ff1690565b6001600160a01b03166000908152600e602052604090205490565b60075490565b6000908152600d602052604090205490565b62000b6d8162000e37565b60408051600481526024810182526020810180516001600160e01b031663204a7f0760e21b17905290516000916060916001600160a01b0385169162000bb39162001304565b600060405180830381855af49150503d806000811462000bf0576040519150601f19603f3d011682016040523d82523d6000602084013e62000bf5565b606091505b509150915081819062000c265760405162461bcd60e51b815260040162000c1d919062001389565b60405180910390fd5b506040516001600160a01b038416907fbc7cd75a20ee27fd9adebab32041f755214dbc6bffa90cc0225b39da2e5c2d3b90600090a2505050565b62000c6a62000f80565b604051806060016040528060008152602001635fbef0008152602001611c20815250905090565b6000620006178260000151620009fe8460400151620008ec866020015162000a9962000e85565b609690565b8262000d1b5762000cce8262000e89565b6101d160f51b62000cdf8362000e89565b60405160200162000cf39392919062001312565b60408051601f198184030181529082905262461bcd60e51b825262000c1d9160040162001389565b505050565b6001600160a01b03166000908152600e60205260409020600501805460ff19166001179055565b60008262000d585750600062000617565b8282028284828162000d6657fe5b0414620008f95760405162461bcd60e51b815260040162000c1d90620013ae565b6000620008f983836040518060400160405280601a81526020017f536166654d6174683a206469766973696f6e206279207a65726f00000000000081525062000f10565b600082820183811015620008f95760405162461bcd60e51b815260040162000c1d906200139c565b6000620008f983836040518060400160405280601e81526020017f536166654d6174683a207375627472616374696f6e206f766572666c6f77000081525062000f4b565b62000e428162000f7a565b62000e615760405162461bcd60e51b815260040162000c1d90620013c0565b7f360894a13ba1a3210667c828492db98dca3e2076cc3735a920a3ca505d382bbc55565b4290565b6060808260405160200162000e9f9190620012ed565b60408051601f19818403018152919052905060205b801562000ef95781516000199091019082908290811062000ed157fe5b01602001516001600160f81b0319161562000ef3576001018152905062000630565b62000eb4565b505060408051600081526020810190915292915050565b6000818362000f345760405162461bcd60e51b815260040162000c1d919062001389565b50600083858162000f4157fe5b0495945050505050565b6000818484111562000f725760405162461bcd60e51b815260040162000c1d919062001389565b505050900390565b3b151590565b60405180606001604052806000815260200160008152602001600081525090565b611c1280620014c483390190565b80356200061781620014a1565b80356200061781620014b8565b80516200061781620014b8565b60006020828403121562000fe957600080fd5b600062000ff7848462000faf565b949350505050565b600080604083850312156200101357600080fd5b600062001021858562000faf565b9250506020620010348582860162000faf565b9150509250929050565b6000806000606084860312156200105457600080fd5b600062001062868662000faf565b9350506020620010758682870162000faf565b9250506040620010888682870162000fbc565b9150509250925092565b60008060408385031215620010a657600080fd5b6000620010b4858562000faf565b9250506020620010348582860162000fbc565b600060208284031215620010da57600080fd5b600062000ff7848462000fbc565b600060208284031215620010fb57600080fd5b600062000ff7848462000fc9565b600080604083850312156200111d57600080fd5b6000620010b4858562000fbc565b6200113681620013ff565b82525050565b62001136816200140c565b62001136620011568262001411565b6200141e565b6200113662001156826200141e565b60006200117882620013f2565b62001184818562000630565b93506200119681856020860162001459565b9290920192915050565b62001136816200143f565b62001136816200144c565b6000620011c382620013f2565b620011cf8185620013f6565b9350620011e181856020860162001459565b620011ec816200148c565b9093019392505050565b600062001205601b83620013f6565b7f536166654d6174683a206164646974696f6e206f766572666c6f770000000000815260200192915050565b600062001240602183620013f6565b7f536166654d6174683a206d756c7469706c69636174696f6e206f766572666c6f8152607760f81b602082015260400192915050565b600062001285603b83620013f6565b7f43616e6e6f742073657420612070726f787920696d706c656d656e746174696f81527f6e20746f2061206e6f6e2d636f6e747261637420616464726573730000000000602082015260400192915050565b62001136816200141e565b620011368162001439565b6000620012fb82846200115c565b50602001919050565b6000620008f982846200116b565b60006200132082866200116b565b91506200132e828562001147565b6002820191506200134082846200116b565b95945050505050565b602081016200061782846200112b565b602081016200061782846200113c565b60208101620006178284620011a0565b60208101620006178284620011ab565b60208082528101620008f98184620011b6565b602080825281016200061781620011f6565b60208082528101620006178162001231565b60208082528101620006178162001276565b60208101620006178284620012d7565b60208101620006178284620012e2565b5190565b90815260200190565b600062000617826200142d565b151590565b6001600160f01b03191690565b90565b80620006308162001496565b6001600160a01b031690565b60ff1690565b60006200061782620013ff565b6000620006178262001421565b60005b83811015620014765781810151838201526020016200145c565b8381111562001486576000848401525b50505050565b601f01601f191690565b60038110620006fb57fe5b620014ac81620013ff565b8114620006fb57600080fd5b620014ac816200141e56fe60806040523480156200001157600080fd5b506040518060400160405280601881526020017f42696e616e6365204167696c652053657420446f6c6c6172000000000000000081525060405180604001604052806004815260200163109054d160e21b81525060126200008a6200007b6200012560201b60201c565b6001600160e01b036200012a16565b82516200009f9060019060208601906200031f565b508151620000b59060029060208501906200031f565b506003805460ff191660ff92909216919091179055506200011c9050620000db6200017c565b604051806040016040528060018152602001603160f81b8152506200010a6200021560201b620016341760201c565b306200021a60201b620016391760201c565b60075562000475565b335b90565b620001458160006200027160201b62000d7e1790919060201c565b6040516001600160a01b038216907f6ae172837ea30b801fbfcdd4108aa1d5bf8ff775444fd70256b44e6bf3dfc3f690600090a250565b60018054604080516020601f600260001961010087891615020190951694909404938401819004810282018101909252828152606093909290918301828280156200020b5780601f10620001df576101008083540402835291602001916200020b565b820191906000526020600020905b815481529060010190602001808311620001ed57829003601f168201915b5050505050905090565b603890565b8351602094850120835193850193909320604080517f8b73c3c69bb8fe3d512ecc4cf759cc79239f7b179b0ffacaa9a75d522b39400f815295860194909452928401929092526060830152608082015260a0902090565b6200028682826001600160e01b03620002d416565b15620002af5760405162461bcd60e51b8152600401620002a69062000442565b60405180910390fd5b6001600160a01b0316600090815260209190915260409020805460ff19166001179055565b60006001600160a01b038216620002ff5760405162461bcd60e51b8152600401620002a6906200045a565b506001600160a01b03166000908152602091909152604090205460ff1690565b828054600181600116156101000203166002900490600052602060002090601f016020900481019282601f106200036257805160ff191683800117855562000392565b8280016001018555821562000392579182015b828111156200039257825182559160200191906001019062000375565b50620003a0929150620003a4565b5090565b6200012791905b80821115620003a05760008155600101620003ab565b6000620003d0601f836200046c565b7f526f6c65733a206163636f756e7420616c72656164792068617320726f6c6500815260200192915050565b60006200040b6022836200046c565b7f526f6c65733a206163636f756e7420697320746865207a65726f206164647265815261737360f01b602082015260400192915050565b602080825281016200045481620003c1565b92915050565b602080825281016200045481620003fc565b90815260200190565b61178d80620004856000396000f3fe608060405234801561001057600080fd5b506004361061012c5760003560e01c806395d89b41116100ad578063aa271e1a11610071578063aa271e1a14610256578063d505accf14610269578063dab400f31461027c578063dd62ed3e14610284578063e879c19f146102975761012c565b806395d89b411461020d578063983b2d56146102155780639865027514610228578063a457c2d714610230578063a9059cbb146102435761012c565b806339509351116100f457806339509351146101ac57806340c10f19146101bf57806342966c68146101d257806370a08231146101e757806379cc6790146101fa5761012c565b806306fdde0314610131578063095ea7b31461014f57806318160ddd1461016f57806323b872dd14610184578063313ce56714610197575b600080fd5b61013961029f565b60405161014691906114c6565b60405180910390f35b61016261015d366004610ffc565b610334565b604051610146919061141b565b610177610352565b6040516101469190611429565b610162610192366004610f13565b610358565b61019f6103ca565b6040516101469190611587565b6101626101ba366004610ffc565b6103d3565b6101626101cd366004610ffc565b610427565b6101e56101e036600461102c565b610463565b005b6101776101f5366004610eb3565b610477565b6101e5610208366004610ffc565b610496565b6101396104a4565b6101e5610223366004610eb3565b610502565b6101e5610532565b61016261023e366004610ffc565b610544565b610162610251366004610ffc565b6105b2565b610162610264366004610eb3565b6105c6565b6101e5610277366004610f60565b6105d8565b61017761075f565b610177610292366004610ed9565b610765565b610177610790565b60018054604080516020601f6002600019610100878916150201909516949094049384018190048102820181019092528281526060939092909183018282801561032a5780601f106102ff5761010080835404028352916020019161032a565b820191906000526020600020905b81548152906001019060200180831161030d57829003601f168201915b5050505050905090565b60006103486103416107b4565b84846107b8565b5060015b92915050565b60065490565b600061036584848461086c565b600019610374856102926107b4565b146103c0576103c0846103856107b4565b6103bb856040518060600160405280602981526020016116dc602991396103ae8a6102926107b4565b919063ffffffff61098216565b6107b8565b5060019392505050565b60035460ff1690565b60006103486103e06107b4565b846103bb85600560006103f16107b4565b6001600160a01b03908116825260208083019390935260409182016000908120918c16815292529020549063ffffffff6109ae16565b60006104346102646107b4565b6104595760405162461bcd60e51b815260040161045090611517565b60405180910390fd5b61034883836109da565b61047461046e6107b4565b82610a9a565b50565b6001600160a01b0381166000908152600460205260409020545b919050565b6104a08282610b70565b5050565b60028054604080516020601f600019610100600187161502019094168590049384018190048102820181019092528281526060939092909183018282801561032a5780601f106102ff5761010080835404028352916020019161032a565b61050d6102646107b4565b6105295760405162461bcd60e51b815260040161045090611517565b61047481610beb565b61054261053d6107b4565b610c33565b565b60006103486105516107b4565b846103bb856040518060600160405280602581526020016116b7602591396005600061057b6107b4565b6001600160a01b03908116825260208083019390935260409182016000908120918d1681529252902054919063ffffffff61098216565b60006103486105bf6107b4565b848461086c565b600061034c818363ffffffff610c7b16565b6007546001600160a01b03881660009081526008602090815260408083208054600181019091559051929361065a93909261063f927f6e71edae12b1b97f4d1f60370fef10105fa2faae0126114a169c64845d6126c9928e928e928e9290918e9101611437565b60405160208183030381529060405280519060200120610cc3565b90506000600182868686604051600081526020016040526040516106819493929190611491565b6020604051602081039080840390855afa1580156106a3573d6000803e3d6000fd5b5050506020604051035190506106f0896001600160a01b0316826001600160a01b0316146a5065726d69747461626c6560a81b70496e76616c6964207369676e617475726560781b610ce2565b6107236001600160a01b03821615156a5065726d69747461626c6560a81b6b5a65726f206164647265737360a01b610ce2565b610749864211156a5065726d69747461626c6560a81b66115e1c1a5c995960ca1b610ce2565b6107548989896107b8565b505050505050505050565b60075481565b6001600160a01b03918216600090815260056020908152604080832093909416825291909152205490565b7f6e71edae12b1b97f4d1f60370fef10105fa2faae0126114a169c64845d6126c981565b3390565b6001600160a01b0383166107de5760405162461bcd60e51b8152600401610450906114f7565b6001600160a01b0382166108045760405162461bcd60e51b815260040161045090611577565b6001600160a01b0380841660008181526005602090815260408083209487168084529490915290819020849055517f8c5be1e5ebec7d5bd14f71427d1e84f3dd0314c0f7b2291e5b200ac8c7c3b9259061085f908590611429565b60405180910390a3505050565b6001600160a01b0383166108925760405162461bcd60e51b8152600401610450906114d7565b6001600160a01b0382166108b85760405162461bcd60e51b815260040161045090611557565b6108fb81604051806060016040528060268152602001611691602691396001600160a01b038616600090815260046020526040902054919063ffffffff61098216565b6001600160a01b038085166000908152600460205260408082209390935590841681522054610930908263ffffffff6109ae16565b6001600160a01b0380841660008181526004602052604090819020939093559151908516907fddf252ad1be2c89b69c2b068fc378daa952ba7f163c4a11628f55a4df523b3ef9061085f908590611429565b600081848411156109a65760405162461bcd60e51b815260040161045091906114c6565b505050900390565b6000828201838110156109d35760405162461bcd60e51b815260040161045090611507565b9392505050565b6001600160a01b038216610a005760405162461bcd60e51b815260040161045090611537565b600654610a13908263ffffffff6109ae16565b6006556001600160a01b038216600090815260046020526040902054610a3f908263ffffffff6109ae16565b6001600160a01b0383166000818152600460205260408082209390935591519091907fddf252ad1be2c89b69c2b068fc378daa952ba7f163c4a11628f55a4df523b3ef90610a8e908590611429565b60405180910390a35050565b6001600160a01b038216610ac05760405162461bcd60e51b815260040161045090611567565b610b0381604051806060016040528060228152602001611705602291396001600160a01b038516600090815260046020526040902054919063ffffffff61098216565b6001600160a01b038316600090815260046020526040902055600654610b2f908263ffffffff610d3c16565b6006556040516000906001600160a01b038416907fddf252ad1be2c89b69c2b068fc378daa952ba7f163c4a11628f55a4df523b3ef90610a8e908590611429565b610b7a8282610a9a565b6104a082610b866107b4565b6103bb84604051806060016040528060248152602001611727602491396001600160a01b038816600090815260056020526040812090610bc46107b4565b6001600160a01b03168152602081019190915260400160002054919063ffffffff61098216565b610bfc60008263ffffffff610d7e16565b6040516001600160a01b038216907f6ae172837ea30b801fbfcdd4108aa1d5bf8ff775444fd70256b44e6bf3dfc3f690600090a250565b610c4460008263ffffffff610dca16565b6040516001600160a01b038216907fe94479a9f7e1952cc78f2d6baab678adc1b772d936c6583def489e524cb6669290600090a250565b60006001600160a01b038216610ca35760405162461bcd60e51b815260040161045090611547565b506001600160a01b03166000908152602091909152604090205460ff1690565b60405161190160f01b8152600281019290925260228201526042902090565b82610d3757610cf082610e12565b6101d160f51b610cff83610e12565b604051602001610d11939291906113ea565b60408051601f198184030181529082905262461bcd60e51b8252610450916004016114c6565b505050565b60006109d383836040518060400160405280601e81526020017f536166654d6174683a207375627472616374696f6e206f766572666c6f770000815250610982565b610d888282610c7b565b15610da55760405162461bcd60e51b8152600401610450906114e7565b6001600160a01b0316600090815260209190915260409020805460ff19166001179055565b610dd48282610c7b565b610df05760405162461bcd60e51b815260040161045090611527565b6001600160a01b0316600090815260209190915260409020805460ff19169055565b60608082604051602001610e2691906113d5565b60408051601f19818403018152919052905060205b8015610e7b57815160001990910190829082908110610e5657fe5b01602001516001600160f81b03191615610e765760010181529050610491565b610e3b565b505060408051600081526020810190915292915050565b803561034c8161160e565b803561034c81611622565b803561034c8161162b565b600060208284031215610ec557600080fd5b6000610ed18484610e92565b949350505050565b60008060408385031215610eec57600080fd5b6000610ef88585610e92565b9250506020610f0985828601610e92565b9150509250929050565b600080600060608486031215610f2857600080fd5b6000610f348686610e92565b9350506020610f4586828701610e92565b9250506040610f5686828701610e9d565b9150509250925092565b600080600080600080600060e0888a031215610f7b57600080fd5b6000610f878a8a610e92565b9750506020610f988a828b01610e92565b9650506040610fa98a828b01610e9d565b9550506060610fba8a828b01610e9d565b9450506080610fcb8a828b01610ea8565b93505060a0610fdc8a828b01610e9d565b92505060c0610fed8a828b01610e9d565b91505092959891949750929550565b6000806040838503121561100f57600080fd5b600061101b8585610e92565b9250506020610f0985828601610e9d565b60006020828403121561103e57600080fd5b6000610ed18484610e9d565b611053816115a2565b82525050565b611053816115ad565b61105361106e826115b2565b6115bf565b611053816115bf565b61105361106e826115bf565b600061109382611595565b61109d8185610491565b93506110ad8185602086016115d4565b9290920192915050565b60006110c282611595565b6110cc8185611599565b93506110dc8185602086016115d4565b6110e581611604565b9093019392505050565b60006110fc602583611599565b7f42455032303a207472616e736665722066726f6d20746865207a65726f206164815264647265737360d81b602082015260400192915050565b6000611143601f83611599565b7f526f6c65733a206163636f756e7420616c72656164792068617320726f6c6500815260200192915050565b600061117c602483611599565b7f42455032303a20617070726f76652066726f6d20746865207a65726f206164648152637265737360e01b602082015260400192915050565b60006111c2601b83611599565b7f536166654d6174683a206164646974696f6e206f766572666c6f770000000000815260200192915050565b60006111fb603083611599565b7f4d696e746572526f6c653a2063616c6c657220646f6573206e6f74206861766581526f20746865204d696e74657220726f6c6560801b602082015260400192915050565b600061124d602183611599565b7f526f6c65733a206163636f756e7420646f6573206e6f74206861766520726f6c8152606560f81b602082015260400192915050565b6000611290601f83611599565b7f42455032303a206d696e7420746f20746865207a65726f206164647265737300815260200192915050565b60006112c9602283611599565b7f526f6c65733a206163636f756e7420697320746865207a65726f206164647265815261737360f01b602082015260400192915050565b600061130d602383611599565b7f42455032303a207472616e7366657220746f20746865207a65726f206164647281526265737360e81b602082015260400192915050565b6000611352602183611599565b7f42455032303a206275726e2066726f6d20746865207a65726f206164647265738152607360f81b602082015260400192915050565b6000611395602283611599565b7f42455032303a20617070726f766520746f20746865207a65726f206164647265815261737360f01b602082015260400192915050565b611053816115ce565b60006113e1828461107c565b50602001919050565b60006113f68286611088565b91506114028285611062565b6002820191506114128284611088565b95945050505050565b6020810161034c8284611059565b6020810161034c8284611073565b60c081016114458289611073565b611452602083018861104a565b61145f604083018761104a565b61146c6060830186611073565b6114796080830185611073565b61148660a0830184611073565b979650505050505050565b6080810161149f8287611073565b6114ac60208301866113cc565b6114b96040830185611073565b6114126060830184611073565b602080825281016109d381846110b7565b6020808252810161034c816110ef565b6020808252810161034c81611136565b6020808252810161034c8161116f565b6020808252810161034c816111b5565b6020808252810161034c816111ee565b6020808252810161034c81611240565b6020808252810161034c81611283565b6020808252810161034c816112bc565b6020808252810161034c81611300565b6020808252810161034c81611345565b6020808252810161034c81611388565b6020810161034c82846113cc565b5190565b90815260200190565b600061034c826115c2565b151590565b6001600160f01b03191690565b90565b6001600160a01b031690565b60ff1690565b60005b838110156115ef5781810151838201526020016115d7565b838111156115fe576000848401525b50505050565b601f01601f191690565b611617816115a2565b811461047457600080fd5b611617816115bf565b611617816115ce565b603890565b8351602094850120835193850193909320604080517f8b73c3c69bb8fe3d512ecc4cf759cc79239f7b179b0ffacaa9a75d522b39400f815295860194909452928401929092526060830152608082015260a090209056fe42455032303a207472616e7366657220616d6f756e7420657863656564732062616c616e636542455032303a2064656372656173656420616c6c6f77616e63652062656c6f77207a65726f446f6c6c61723a207472616e7366657220616d6f756e74206578636565647320616c6c6f77616e636542455032303a206275726e20616d6f756e7420657863656564732062616c616e636542455032303a206275726e20616d6f756e74206578636565647320616c6c6f77616e6365a365627a7a72315820e9c547026b6126cd1610441c447410706b563d56c37baea9df2169bc73ed95146c6578706572696d656e74616cf564736f6c63430005110040a365627a7a723158202a420bd58fdd8269748a51c5496a4c247207325f0c46ce0da3b96ff1ae3fc6a96c6578706572696d656e74616cf564736f6c63430005110040",
			"opcodes": "PUSH1 0x80 PUSH1 0x40 MSTORE CALLVALUE DUP1 ISZERO PUSH2 0x10 JUMPI PUSH1 0x0 DUP1 REVERT JUMPDEST POP PUSH2 0x3118 DUP1 PUSH2 0x20 PUSH1 0x0 CODECOPY PUSH1 0x0 RETURN INVALID PUSH1 0x80 PUSH1 0x40 MSTORE CALLVALUE DUP1 ISZERO PUSH3 0x11 JUMPI PUSH1 0x0 DUP1 REVERT JUMPDEST POP PUSH1 0x4 CALLDATASIZE LT PUSH3 0x298 JUMPI PUSH1 0x0 CALLDATALOAD PUSH1 0xE0 SHR DUP1 PUSH4 0x75D5024B GT PUSH3 0x165 JUMPI DUP1 PUSH4 0xA50CD8E7 GT PUSH3 0xD5 JUMPI DUP1 PUSH4 0xCF023779 GT PUSH3 0x93 JUMPI DUP1 PUSH4 0xCF023779 EQ PUSH3 0x573 JUMPI DUP1 PUSH4 0xD60B347F EQ PUSH3 0x57D JUMPI DUP1 PUSH4 0xDD62ED3E EQ PUSH3 0x594 JUMPI DUP1 PUSH4 0xF1B7CF49 EQ PUSH3 0x5A5 JUMPI DUP1 PUSH4 0xFC7B9C18 EQ PUSH3 0x5BC JUMPI DUP1 PUSH4 0xFFBE3B73 EQ PUSH3 0x5C6 JUMPI PUSH3 0x298 JUMP JUMPDEST DUP1 PUSH4 0xA50CD8E7 EQ PUSH3 0x524 JUMPI DUP1 PUSH4 0xA6C409F1 EQ PUSH3 0x53B JUMPI DUP1 PUSH4 0xA9059CBB EQ PUSH3 0x2BF JUMPI DUP1 PUSH4 0xBC7513E2 EQ PUSH3 0x545 JUMPI DUP1 PUSH4 0xC9AFF70C EQ PUSH3 0x55C JUMPI PUSH3 0x298 JUMP JUMPDEST DUP1 PUSH4 0x900CF0CF GT PUSH3 0x123 JUMPI DUP1 PUSH4 0x900CF0CF EQ PUSH3 0x4D8 JUMPI DUP1 PUSH4 0x95D89B41 EQ PUSH3 0x4E2 JUMPI DUP1 PUSH4 0x97A5D5B5 EQ PUSH3 0x4EC JUMPI DUP1 PUSH4 0x9A649EDC EQ PUSH3 0x503 JUMPI DUP1 PUSH4 0x9F6E1B26 EQ PUSH3 0x50D JUMPI PUSH3 0x298 JUMP JUMPDEST DUP1 PUSH4 0x75D5024B EQ PUSH3 0x47F JUMPI DUP1 PUSH4 0x7DC0D1D0 EQ PUSH3 0x496 JUMPI DUP1 PUSH4 0x8129FC1C EQ PUSH3 0x4A0 JUMPI DUP1 PUSH4 0x825AD607 EQ PUSH3 0x4AA JUMPI DUP1 PUSH4 0x86CF9F14 EQ PUSH3 0x4C1 JUMPI PUSH3 0x298 JUMP JUMPDEST DUP1 PUSH4 0x3A3E6C81 GT PUSH3 0x20D JUMPI DUP1 PUSH4 0x5053E461 GT PUSH3 0x1CB JUMPI DUP1 PUSH4 0x5053E461 EQ PUSH3 0x40D JUMPI DUP1 PUSH4 0x51ADEB57 EQ PUSH3 0x417 JUMPI DUP1 PUSH4 0x5C60DA1B EQ PUSH3 0x430 JUMPI DUP1 PUSH4 0x64668022 EQ PUSH3 0x43A JUMPI DUP1 PUSH4 0x6A39E328 EQ PUSH3 0x451 JUMPI DUP1 PUSH4 0x70A08231 EQ PUSH3 0x468 JUMPI PUSH3 0x298 JUMP JUMPDEST DUP1 PUSH4 0x3A3E6C81 EQ PUSH3 0x396 JUMPI DUP1 PUSH4 0x3FBBA9A6 EQ PUSH3 0x3AD JUMPI DUP1 PUSH4 0x44D96E95 EQ PUSH3 0x3D3 JUMPI DUP1 PUSH4 0x4A960261 EQ PUSH3 0x3DD JUMPI DUP1 PUSH4 0x4C736099 EQ PUSH3 0x3F6 JUMPI PUSH3 0x298 JUMP JUMPDEST DUP1 PUSH4 0x18160DDD GT PUSH3 0x25B JUMPI DUP1 PUSH4 0x18160DDD EQ PUSH3 0x33B JUMPI DUP1 PUSH4 0x1EDBCF6C EQ PUSH3 0x345 JUMPI DUP1 PUSH4 0x23B872DD EQ PUSH3 0x34F JUMPI DUP1 PUSH4 0x313CE567 EQ PUSH3 0x366 JUMPI DUP1 PUSH4 0x353A420C EQ PUSH3 0x37F JUMPI PUSH3 0x298 JUMP JUMPDEST DUP1 PUSH4 0x6FDDE03 EQ PUSH3 0x29D JUMPI DUP1 PUSH4 0x95EA7B3 EQ PUSH3 0x2BF JUMPI DUP1 PUSH4 0x10E95B6C EQ PUSH3 0x2E5 JUMPI DUP1 PUSH4 0x15E14BF6 EQ PUSH3 0x30B JUMPI DUP1 PUSH4 0x16F0115B EQ PUSH3 0x322 JUMPI JUMPDEST PUSH1 0x0 DUP1 REVERT JUMPDEST PUSH3 0x2A7 PUSH3 0x5DD JUMP JUMPDEST PUSH1 0x40 MLOAD PUSH3 0x2B6 SWAP2 SWAP1 PUSH3 0x1389 JUMP JUMPDEST PUSH1 0x40 MLOAD DUP1 SWAP2 SUB SWAP1 RETURN JUMPDEST PUSH3 0x2D6 PUSH3 0x2D0 CALLDATASIZE PUSH1 0x4 PUSH3 0x1092 JUMP JUMPDEST PUSH3 0x614 JUMP JUMPDEST PUSH1 0x40 MLOAD PUSH3 0x2B6 SWAP2 SWAP1 PUSH3 0x1359 JUMP JUMPDEST PUSH3 0x2FC PUSH3 0x2F6 CALLDATASIZE PUSH1 0x4 PUSH3 0x10C7 JUMP JUMPDEST PUSH3 0x61D JUMP JUMPDEST PUSH1 0x40 MLOAD PUSH3 0x2B6 SWAP2 SWAP1 PUSH3 0x13D2 JUMP JUMPDEST PUSH3 0x2FC PUSH3 0x31C CALLDATASIZE PUSH1 0x4 PUSH3 0xFD6 JUMP JUMPDEST PUSH3 0x635 JUMP JUMPDEST PUSH3 0x32C PUSH3 0x653 JUMP JUMPDEST PUSH1 0x40 MLOAD PUSH3 0x2B6 SWAP2 SWAP1 PUSH3 0x1349 JUMP JUMPDEST PUSH3 0x2FC PUSH3 0x662 JUMP JUMPDEST PUSH3 0x2FC PUSH3 0x668 JUMP JUMPDEST PUSH3 0x2D6 PUSH3 0x360 CALLDATASIZE PUSH1 0x4 PUSH3 0x103E JUMP JUMPDEST PUSH3 0x66E JUMP JUMPDEST PUSH3 0x370 PUSH3 0x677 JUMP JUMPDEST PUSH1 0x40 MLOAD PUSH3 0x2B6 SWAP2 SWAP1 PUSH3 0x13E2 JUMP JUMPDEST PUSH3 0x2FC PUSH3 0x390 CALLDATASIZE PUSH1 0x4 PUSH3 0xFD6 JUMP JUMPDEST PUSH3 0x67C JUMP JUMPDEST PUSH3 0x2D6 PUSH3 0x3A7 CALLDATASIZE PUSH1 0x4 PUSH3 0xFD6 JUMP JUMPDEST PUSH3 0x69A JUMP JUMPDEST PUSH3 0x3C4 PUSH3 0x3BE CALLDATASIZE PUSH1 0x4 PUSH3 0xFFF JUMP JUMPDEST PUSH3 0x6B7 JUMP JUMPDEST PUSH1 0x40 MLOAD PUSH3 0x2B6 SWAP2 SWAP1 PUSH3 0x1379 JUMP JUMPDEST PUSH3 0x2FC PUSH3 0x6EA JUMP JUMPDEST PUSH3 0x3F4 PUSH3 0x3EE CALLDATASIZE PUSH1 0x4 PUSH3 0xFD6 JUMP JUMPDEST PUSH3 0x6F0 JUMP JUMPDEST STOP JUMPDEST PUSH3 0x2FC PUSH3 0x407 CALLDATASIZE PUSH1 0x4 PUSH3 0x1109 JUMP JUMPDEST PUSH3 0x6FE JUMP JUMPDEST PUSH3 0x2FC PUSH3 0x72F JUMP JUMPDEST PUSH3 0x421 PUSH3 0x758 JUMP JUMPDEST PUSH1 0x40 MLOAD PUSH3 0x2B6 SWAP2 SWAP1 PUSH3 0x1369 JUMP JUMPDEST PUSH3 0x32C PUSH3 0x767 JUMP JUMPDEST PUSH3 0x2FC PUSH3 0x44B CALLDATASIZE PUSH1 0x4 PUSH3 0xFD6 JUMP JUMPDEST PUSH3 0x78C JUMP JUMPDEST PUSH3 0x2FC PUSH3 0x462 CALLDATASIZE PUSH1 0x4 PUSH3 0x10C7 JUMP JUMPDEST PUSH3 0x7AA JUMP JUMPDEST PUSH3 0x2FC PUSH3 0x479 CALLDATASIZE PUSH1 0x4 PUSH3 0xFD6 JUMP JUMPDEST PUSH3 0x7BF JUMP JUMPDEST PUSH3 0x2D6 PUSH3 0x490 CALLDATASIZE PUSH1 0x4 PUSH3 0x10C7 JUMP JUMPDEST PUSH3 0x7DD JUMP JUMPDEST PUSH3 0x421 PUSH3 0x7F2 JUMP JUMPDEST PUSH3 0x3F4 PUSH3 0x801 JUMP JUMPDEST PUSH3 0x2FC PUSH3 0x4BB CALLDATASIZE PUSH1 0x4 PUSH3 0xFD6 JUMP JUMPDEST PUSH3 0x8A1 JUMP JUMPDEST PUSH3 0x2FC PUSH3 0x4D2 CALLDATASIZE PUSH1 0x4 PUSH3 0xFD6 JUMP JUMPDEST PUSH3 0x900 JUMP JUMPDEST PUSH3 0x2FC PUSH3 0x91B JUMP JUMPDEST PUSH3 0x2A7 PUSH3 0x921 JUMP JUMPDEST PUSH3 0x3C4 PUSH3 0x4FD CALLDATASIZE PUSH1 0x4 PUSH3 0xFD6 JUMP JUMPDEST PUSH3 0x940 JUMP JUMPDEST PUSH3 0x2FC PUSH3 0x9AD JUMP JUMPDEST PUSH3 0x2FC PUSH3 0x51E CALLDATASIZE PUSH1 0x4 PUSH3 0xFFF JUMP JUMPDEST PUSH3 0x9B3 JUMP JUMPDEST PUSH3 0x2FC PUSH3 0x535 CALLDATASIZE PUSH1 0x4 PUSH3 0xFD6 JUMP JUMPDEST PUSH3 0x9E2 JUMP JUMPDEST PUSH3 0x2FC PUSH3 0xA0B JUMP JUMPDEST PUSH3 0x2FC PUSH3 0x556 CALLDATASIZE PUSH1 0x4 PUSH3 0x1092 JUMP JUMPDEST PUSH3 0xAAB JUMP JUMPDEST PUSH3 0x2FC PUSH3 0x56D CALLDATASIZE PUSH1 0x4 PUSH3 0x10C7 JUMP JUMPDEST PUSH3 0xAF3 JUMP JUMPDEST PUSH3 0x2FC PUSH3 0xB08 JUMP JUMPDEST PUSH3 0x2D6 PUSH3 0x58E CALLDATASIZE PUSH1 0x4 PUSH3 0xFD6 JUMP JUMPDEST PUSH3 0xB0E JUMP JUMPDEST PUSH3 0x2FC PUSH3 0x2D0 CALLDATASIZE PUSH1 0x4 PUSH3 0xFFF JUMP JUMPDEST PUSH3 0x2FC PUSH3 0x5B6 CALLDATASIZE PUSH1 0x4 PUSH3 0xFD6 JUMP JUMPDEST PUSH3 0xB2F JUMP JUMPDEST PUSH3 0x2FC PUSH3 0xB4A JUMP JUMPDEST PUSH3 0x2FC PUSH3 0x5D7 CALLDATASIZE PUSH1 0x4 PUSH3 0x10C7 JUMP JUMPDEST PUSH3 0xB50 JUMP JUMPDEST PUSH1 0x40 DUP1 MLOAD DUP1 DUP3 ADD SWAP1 SWAP2 MSTORE PUSH1 0x1E DUP2 MSTORE PUSH32 0x42696E616E6365204167696C652053657420446F6C6C6172205374616B650000 PUSH1 0x20 DUP3 ADD MSTORE SWAP1 JUMP JUMPDEST PUSH1 0x0 JUMPDEST SWAP3 SWAP2 POP POP JUMP JUMPDEST PUSH1 0x0 DUP2 DUP2 MSTORE PUSH1 0xD PUSH1 0x20 MSTORE PUSH1 0x40 SWAP1 KECCAK256 PUSH1 0x2 ADD SLOAD JUMPDEST SWAP2 SWAP1 POP JUMP JUMPDEST PUSH1 0x1 PUSH1 0x1 PUSH1 0xA0 SHL SUB AND PUSH1 0x0 SWAP1 DUP2 MSTORE PUSH1 0xE PUSH1 0x20 MSTORE PUSH1 0x40 SWAP1 KECCAK256 PUSH1 0x1 ADD SLOAD SWAP1 JUMP JUMPDEST PUSH1 0xB SLOAD PUSH1 0x1 PUSH1 0x1 PUSH1 0xA0 SHL SUB AND SWAP1 JUMP JUMPDEST PUSH1 0x3 SLOAD SWAP1 JUMP JUMPDEST PUSH1 0x6 SLOAD SWAP1 JUMP JUMPDEST PUSH1 0x0 SWAP4 SWAP3 POP POP POP JUMP JUMPDEST PUSH1 0x12 SWAP1 JUMP JUMPDEST PUSH1 0x1 PUSH1 0x1 PUSH1 0xA0 SHL SUB AND PUSH1 0x0 SWAP1 DUP2 MSTORE PUSH1 0xE PUSH1 0x20 MSTORE PUSH1 0x40 SWAP1 KECCAK256 PUSH1 0x3 ADD SLOAD SWAP1 JUMP JUMPDEST PUSH1 0x1 PUSH1 0x1 PUSH1 0xA0 SHL SUB AND PUSH1 0x0 SWAP1 DUP2 MSTORE PUSH1 0xE PUSH1 0x20 MSTORE PUSH1 0x40 SWAP1 KECCAK256 SLOAD ISZERO ISZERO SWAP1 JUMP JUMPDEST PUSH1 0x1 PUSH1 0x1 PUSH1 0xA0 SHL SUB DUP1 DUP3 AND PUSH1 0x0 SWAP1 DUP2 MSTORE PUSH1 0xE PUSH1 0x20 SWAP1 DUP2 MSTORE PUSH1 0x40 DUP1 DUP4 KECCAK256 SWAP4 DUP7 AND DUP4 MSTORE PUSH1 0x4 SWAP1 SWAP4 ADD SWAP1 MSTORE KECCAK256 SLOAD PUSH1 0xFF AND SWAP3 SWAP2 POP POP JUMP JUMPDEST PUSH1 0x4 SLOAD SWAP1 JUMP JUMPDEST PUSH3 0x6FB DUP2 PUSH3 0xB62 JUMP JUMPDEST POP JUMP JUMPDEST PUSH1 0x0 DUP3 DUP2 MSTORE PUSH1 0xD PUSH1 0x20 MSTORE PUSH1 0x40 DUP2 KECCAK256 PUSH1 0x3 ADD DUP1 SLOAD DUP4 SWAP1 DUP2 LT PUSH3 0x71C JUMPI INVALID JUMPDEST SWAP1 PUSH1 0x0 MSTORE PUSH1 0x20 PUSH1 0x0 KECCAK256 ADD SLOAD SWAP1 POP SWAP3 SWAP2 POP POP JUMP JUMPDEST PUSH1 0x0 PUSH3 0x73B PUSH3 0xF80 JUMP JUMPDEST PUSH3 0x745 PUSH3 0xC60 JUMP JUMPDEST SWAP1 POP PUSH3 0x752 DUP2 PUSH3 0xC91 JUMP JUMPDEST SWAP2 POP POP SWAP1 JUMP JUMPDEST PUSH1 0x9 SLOAD PUSH1 0x1 PUSH1 0x1 PUSH1 0xA0 SHL SUB AND SWAP1 JUMP JUMPDEST PUSH32 0x360894A13BA1A3210667C828492DB98DCA3E2076CC3735A920A3CA505D382BBC SLOAD SWAP1 JUMP JUMPDEST PUSH1 0x1 PUSH1 0x1 PUSH1 0xA0 SHL SUB AND PUSH1 0x0 SWAP1 DUP2 MSTORE PUSH1 0xE PUSH1 0x20 MSTORE PUSH1 0x40 SWAP1 KECCAK256 PUSH1 0x2 ADD SLOAD SWAP1 JUMP JUMPDEST PUSH1 0x0 SWAP1 DUP2 MSTORE PUSH1 0xD PUSH1 0x20 MSTORE PUSH1 0x40 SWAP1 KECCAK256 PUSH1 0x3 ADD SLOAD SWAP1 JUMP JUMPDEST PUSH1 0x1 PUSH1 0x1 PUSH1 0xA0 SHL SUB AND PUSH1 0x0 SWAP1 DUP2 MSTORE PUSH1 0xC PUSH1 0x20 MSTORE PUSH1 0x40 SWAP1 KECCAK256 PUSH1 0x1 ADD SLOAD SWAP1 JUMP JUMPDEST PUSH1 0x0 PUSH3 0x7E9 PUSH3 0xCB8 JUMP JUMPDEST SWAP1 SWAP2 GT ISZERO SWAP2 SWAP1 POP JUMP JUMPDEST PUSH1 0xA SLOAD PUSH1 0x1 PUSH1 0x1 PUSH1 0xA0 SHL SUB AND SWAP1 JUMP JUMPDEST PUSH3 0x83F PUSH3 0x813 PUSH3 0x58E PUSH3 0x767 JUMP JUMPDEST ISZERO PUSH10 0x2832B936B4B9B9B4B7B7 PUSH1 0xB1 SHL PUSH19 0x105B1C9958591E481A5B9A5D1A585B1A5E9959 PUSH1 0x6A SHL PUSH3 0xCBD JUMP JUMPDEST PUSH3 0x853 PUSH3 0x84D PUSH3 0x767 JUMP JUMPDEST PUSH3 0xD20 JUMP JUMPDEST PUSH1 0x40 MLOAD PUSH3 0x861 SWAP1 PUSH3 0xFA1 JUMP JUMPDEST PUSH1 0x40 MLOAD DUP1 SWAP2 SUB SWAP1 PUSH1 0x0 CREATE DUP1 ISZERO DUP1 ISZERO PUSH3 0x87E JUMPI RETURNDATASIZE PUSH1 0x0 DUP1 RETURNDATACOPY RETURNDATASIZE PUSH1 0x0 REVERT JUMPDEST POP PUSH1 0x9 DUP1 SLOAD PUSH1 0x1 PUSH1 0x1 PUSH1 0xA0 SHL SUB NOT AND PUSH1 0x1 PUSH1 0x1 PUSH1 0xA0 SHL SUB SWAP3 SWAP1 SWAP3 AND SWAP2 SWAP1 SWAP2 OR SWAP1 SSTORE JUMP JUMPDEST PUSH1 0x0 DUP1 PUSH3 0x8AE PUSH3 0x662 JUMP JUMPDEST SWAP1 POP DUP1 PUSH3 0x8C1 JUMPI PUSH1 0x0 SWAP2 POP POP PUSH3 0x630 JUMP JUMPDEST PUSH3 0x8F9 DUP2 PUSH3 0x8EC PUSH3 0x8D5 DUP7 PUSH3 0x7BF JUMP JUMPDEST PUSH3 0x8DF PUSH3 0x6EA JUMP JUMPDEST SWAP1 PUSH4 0xFFFFFFFF PUSH3 0xD47 AND JUMP JUMPDEST SWAP1 PUSH4 0xFFFFFFFF PUSH3 0xD87 AND JUMP JUMPDEST SWAP4 SWAP3 POP POP POP JUMP JUMPDEST PUSH1 0x1 PUSH1 0x1 PUSH1 0xA0 SHL SUB AND PUSH1 0x0 SWAP1 DUP2 MSTORE PUSH1 0xC PUSH1 0x20 MSTORE PUSH1 0x40 SWAP1 KECCAK256 SLOAD SWAP1 JUMP JUMPDEST PUSH1 0x2 SLOAD SWAP1 JUMP JUMPDEST PUSH1 0x40 DUP1 MLOAD DUP1 DUP3 ADD SWAP1 SWAP2 MSTORE PUSH1 0x5 DUP2 MSTORE PUSH5 0x4241534453 PUSH1 0xD8 SHL PUSH1 0x20 DUP3 ADD MSTORE SWAP1 JUMP JUMPDEST PUSH1 0x0 PUSH3 0x94C PUSH3 0x91B JUMP JUMPDEST PUSH1 0x1 PUSH1 0x1 PUSH1 0xA0 SHL SUB DUP4 AND PUSH1 0x0 SWAP1 DUP2 MSTORE PUSH1 0xC PUSH1 0x20 MSTORE PUSH1 0x40 SWAP1 KECCAK256 PUSH1 0x5 ADD SLOAD GT ISZERO PUSH3 0x978 JUMPI POP PUSH1 0x2 PUSH3 0x630 JUMP JUMPDEST PUSH1 0x1 PUSH1 0x1 PUSH1 0xA0 SHL SUB DUP3 AND PUSH1 0x0 SWAP1 DUP2 MSTORE PUSH1 0xC PUSH1 0x20 MSTORE PUSH1 0x40 SWAP1 KECCAK256 PUSH1 0x4 ADD SLOAD PUSH3 0x99E PUSH3 0x91B JUMP JUMPDEST LT ISZERO PUSH3 0x614 JUMPI PUSH1 0x1 PUSH3 0x617 JUMP JUMPDEST PUSH1 0x8 SLOAD SWAP1 JUMP JUMPDEST PUSH1 0x1 PUSH1 0x1 PUSH1 0xA0 SHL SUB SWAP2 DUP3 AND PUSH1 0x0 SWAP1 DUP2 MSTORE PUSH1 0xC PUSH1 0x20 SWAP1 DUP2 MSTORE PUSH1 0x40 DUP1 DUP4 KECCAK256 SWAP4 SWAP1 SWAP5 AND DUP3 MSTORE PUSH1 0x3 SWAP1 SWAP3 ADD SWAP1 SWAP2 MSTORE KECCAK256 SLOAD SWAP1 JUMP JUMPDEST PUSH1 0x0 PUSH3 0x617 PUSH3 0x9F3 DUP4 PUSH3 0x67C JUMP JUMPDEST PUSH3 0x9FE DUP5 PUSH3 0x78C JUMP JUMPDEST SWAP1 PUSH4 0xFFFFFFFF PUSH3 0xDCB AND JUMP JUMPDEST PUSH1 0x0 PUSH3 0xAA6 PUSH3 0xA1B PUSH3 0xB4A JUMP JUMPDEST PUSH3 0xA25 PUSH3 0x758 JUMP JUMPDEST PUSH1 0x1 PUSH1 0x1 PUSH1 0xA0 SHL SUB AND PUSH4 0x18160DDD PUSH1 0x40 MLOAD DUP2 PUSH4 0xFFFFFFFF AND PUSH1 0xE0 SHL DUP2 MSTORE PUSH1 0x4 ADD PUSH1 0x20 PUSH1 0x40 MLOAD DUP1 DUP4 SUB DUP2 DUP7 DUP1 EXTCODESIZE ISZERO DUP1 ISZERO PUSH3 0xA5E JUMPI PUSH1 0x0 DUP1 REVERT JUMPDEST POP GAS STATICCALL ISZERO DUP1 ISZERO PUSH3 0xA73 JUMPI RETURNDATASIZE PUSH1 0x0 DUP1 RETURNDATACOPY RETURNDATASIZE PUSH1 0x0 REVERT JUMPDEST POP POP POP POP PUSH1 0x40 MLOAD RETURNDATASIZE PUSH1 0x1F NOT PUSH1 0x1F DUP3 ADD AND DUP3 ADD DUP1 PUSH1 0x40 MSTORE POP PUSH3 0xA99 SWAP2 SWAP1 DUP2 ADD SWAP1 PUSH3 0x10E8 JUMP JUMPDEST SWAP1 PUSH4 0xFFFFFFFF PUSH3 0xDF3 AND JUMP JUMPDEST SWAP1 POP SWAP1 JUMP JUMPDEST PUSH1 0x0 PUSH3 0xAB8 DUP3 PUSH3 0xAF3 JUMP JUMPDEST PUSH3 0xAC6 JUMPI POP PUSH1 0x0 PUSH3 0x617 JUMP JUMPDEST POP PUSH1 0x1 PUSH1 0x1 PUSH1 0xA0 SHL SUB SWAP2 SWAP1 SWAP2 AND PUSH1 0x0 SWAP1 DUP2 MSTORE PUSH1 0xC PUSH1 0x20 SWAP1 DUP2 MSTORE PUSH1 0x40 DUP1 DUP4 KECCAK256 SWAP4 DUP4 MSTORE PUSH1 0x2 SWAP1 SWAP4 ADD SWAP1 MSTORE KECCAK256 SLOAD SWAP1 JUMP JUMPDEST PUSH1 0x0 SWAP1 DUP2 MSTORE PUSH1 0xD PUSH1 0x20 MSTORE PUSH1 0x40 SWAP1 KECCAK256 PUSH1 0x1 ADD SLOAD SWAP1 JUMP JUMPDEST PUSH1 0x5 SLOAD SWAP1 JUMP JUMPDEST PUSH1 0x1 PUSH1 0x1 PUSH1 0xA0 SHL SUB AND PUSH1 0x0 SWAP1 DUP2 MSTORE PUSH1 0xE PUSH1 0x20 MSTORE PUSH1 0x40 SWAP1 KECCAK256 PUSH1 0x5 ADD SLOAD PUSH1 0xFF AND SWAP1 JUMP JUMPDEST PUSH1 0x1 PUSH1 0x1 PUSH1 0xA0 SHL SUB AND PUSH1 0x0 SWAP1 DUP2 MSTORE PUSH1 0xE PUSH1 0x20 MSTORE PUSH1 0x40 SWAP1 KECCAK256 SLOAD SWAP1 JUMP JUMPDEST PUSH1 0x7 SLOAD SWAP1 JUMP JUMPDEST PUSH1 0x0 SWAP1 DUP2 MSTORE PUSH1 0xD PUSH1 0x20 MSTORE PUSH1 0x40 SWAP1 KECCAK256 SLOAD SWAP1 JUMP JUMPDEST PUSH3 0xB6D DUP2 PUSH3 0xE37 JUMP JUMPDEST PUSH1 0x40 DUP1 MLOAD PUSH1 0x4 DUP2 MSTORE PUSH1 0x24 DUP2 ADD DUP3 MSTORE PUSH1 0x20 DUP2 ADD DUP1 MLOAD PUSH1 0x1 PUSH1 0x1 PUSH1 0xE0 SHL SUB AND PUSH4 0x204A7F07 PUSH1 0xE2 SHL OR SWAP1 MSTORE SWAP1 MLOAD PUSH1 0x0 SWAP2 PUSH1 0x60 SWAP2 PUSH1 0x1 PUSH1 0x1 PUSH1 0xA0 SHL SUB DUP6 AND SWAP2 PUSH3 0xBB3 SWAP2 PUSH3 0x1304 JUMP JUMPDEST PUSH1 0x0 PUSH1 0x40 MLOAD DUP1 DUP4 SUB DUP2 DUP6 GAS DELEGATECALL SWAP2 POP POP RETURNDATASIZE DUP1 PUSH1 0x0 DUP2 EQ PUSH3 0xBF0 JUMPI PUSH1 0x40 MLOAD SWAP2 POP PUSH1 0x1F NOT PUSH1 0x3F RETURNDATASIZE ADD AND DUP3 ADD PUSH1 0x40 MSTORE RETURNDATASIZE DUP3 MSTORE RETURNDATASIZE PUSH1 0x0 PUSH1 0x20 DUP5 ADD RETURNDATACOPY PUSH3 0xBF5 JUMP JUMPDEST PUSH1 0x60 SWAP2 POP JUMPDEST POP SWAP2 POP SWAP2 POP DUP2 DUP2 SWAP1 PUSH3 0xC26 JUMPI PUSH1 0x40 MLOAD PUSH3 0x461BCD PUSH1 0xE5 SHL DUP2 MSTORE PUSH1 0x4 ADD PUSH3 0xC1D SWAP2 SWAP1 PUSH3 0x1389 JUMP JUMPDEST PUSH1 0x40 MLOAD DUP1 SWAP2 SUB SWAP1 REVERT JUMPDEST POP PUSH1 0x40 MLOAD PUSH1 0x1 PUSH1 0x1 PUSH1 0xA0 SHL SUB DUP5 AND SWAP1 PUSH32 0xBC7CD75A20EE27FD9ADEBAB32041F755214DBC6BFFA90CC0225B39DA2E5C2D3B SWAP1 PUSH1 0x0 SWAP1 LOG2 POP POP POP JUMP JUMPDEST PUSH3 0xC6A PUSH3 0xF80 JUMP JUMPDEST PUSH1 0x40 MLOAD DUP1 PUSH1 0x60 ADD PUSH1 0x40 MSTORE DUP1 PUSH1 0x0 DUP2 MSTORE PUSH1 0x20 ADD PUSH4 0x5FBEF000 DUP2 MSTORE PUSH1 0x20 ADD PUSH2 0x1C20 DUP2 MSTORE POP SWAP1 POP SWAP1 JUMP JUMPDEST PUSH1 0x0 PUSH3 0x617 DUP3 PUSH1 0x0 ADD MLOAD PUSH3 0x9FE DUP5 PUSH1 0x40 ADD MLOAD PUSH3 0x8EC DUP7 PUSH1 0x20 ADD MLOAD PUSH3 0xA99 PUSH3 0xE85 JUMP JUMPDEST PUSH1 0x96 SWAP1 JUMP JUMPDEST DUP3 PUSH3 0xD1B JUMPI PUSH3 0xCCE DUP3 PUSH3 0xE89 JUMP JUMPDEST PUSH2 0x1D1 PUSH1 0xF5 SHL PUSH3 0xCDF DUP4 PUSH3 0xE89 JUMP JUMPDEST PUSH1 0x40 MLOAD PUSH1 0x20 ADD PUSH3 0xCF3 SWAP4 SWAP3 SWAP2 SWAP1 PUSH3 0x1312 JUMP JUMPDEST PUSH1 0x40 DUP1 MLOAD PUSH1 0x1F NOT DUP2 DUP5 SUB ADD DUP2 MSTORE SWAP1 DUP3 SWAP1 MSTORE PUSH3 0x461BCD PUSH1 0xE5 SHL DUP3 MSTORE PUSH3 0xC1D SWAP2 PUSH1 0x4 ADD PUSH3 0x1389 JUMP JUMPDEST POP POP POP JUMP JUMPDEST PUSH1 0x1 PUSH1 0x1 PUSH1 0xA0 SHL SUB AND PUSH1 0x0 SWAP1 DUP2 MSTORE PUSH1 0xE PUSH1 0x20 MSTORE PUSH1 0x40 SWAP1 KECCAK256 PUSH1 0x5 ADD DUP1 SLOAD PUSH1 0xFF NOT AND PUSH1 0x1 OR SWAP1 SSTORE JUMP JUMPDEST PUSH1 0x0 DUP3 PUSH3 0xD58 JUMPI POP PUSH1 0x0 PUSH3 0x617 JUMP JUMPDEST DUP3 DUP3 MUL DUP3 DUP5 DUP3 DUP2 PUSH3 0xD66 JUMPI INVALID JUMPDEST DIV EQ PUSH3 0x8F9 JUMPI PUSH1 0x40 MLOAD PUSH3 0x461BCD PUSH1 0xE5 SHL DUP2 MSTORE PUSH1 0x4 ADD PUSH3 0xC1D SWAP1 PUSH3 0x13AE JUMP JUMPDEST PUSH1 0x0 PUSH3 0x8F9 DUP4 DUP4 PUSH1 0x40 MLOAD DUP1 PUSH1 0x40 ADD PUSH1 0x40 MSTORE DUP1 PUSH1 0x1A DUP2 MSTORE PUSH1 0x20 ADD PUSH32 0x536166654D6174683A206469766973696F6E206279207A65726F000000000000 DUP2 MSTORE POP PUSH3 0xF10 JUMP JUMPDEST PUSH1 0x0 DUP3 DUP3 ADD DUP4 DUP2 LT ISZERO PUSH3 0x8F9 JUMPI PUSH1 0x40 MLOAD PUSH3 0x461BCD PUSH1 0xE5 SHL DUP2 MSTORE PUSH1 0x4 ADD PUSH3 0xC1D SWAP1 PUSH3 0x139C JUMP JUMPDEST PUSH1 0x0 PUSH3 0x8F9 DUP4 DUP4 PUSH1 0x40 MLOAD DUP1 PUSH1 0x40 ADD PUSH1 0x40 MSTORE DUP1 PUSH1 0x1E DUP2 MSTORE PUSH1 0x20 ADD PUSH32 0x536166654D6174683A207375627472616374696F6E206F766572666C6F770000 DUP2 MSTORE POP PUSH3 0xF4B JUMP JUMPDEST PUSH3 0xE42 DUP2 PUSH3 0xF7A JUMP JUMPDEST PUSH3 0xE61 JUMPI PUSH1 0x40 MLOAD PUSH3 0x461BCD PUSH1 0xE5 SHL DUP2 MSTORE PUSH1 0x4 ADD PUSH3 0xC1D SWAP1 PUSH3 0x13C0 JUMP JUMPDEST PUSH32 0x360894A13BA1A3210667C828492DB98DCA3E2076CC3735A920A3CA505D382BBC SSTORE JUMP JUMPDEST TIMESTAMP SWAP1 JUMP JUMPDEST PUSH1 0x60 DUP1 DUP3 PUSH1 0x40 MLOAD PUSH1 0x20 ADD PUSH3 0xE9F SWAP2 SWAP1 PUSH3 0x12ED JUMP JUMPDEST PUSH1 0x40 DUP1 MLOAD PUSH1 0x1F NOT DUP2 DUP5 SUB ADD DUP2 MSTORE SWAP2 SWAP1 MSTORE SWAP1 POP PUSH1 0x20 JUMPDEST DUP1 ISZERO PUSH3 0xEF9 JUMPI DUP2 MLOAD PUSH1 0x0 NOT SWAP1 SWAP2 ADD SWAP1 DUP3 SWAP1 DUP3 SWAP1 DUP2 LT PUSH3 0xED1 JUMPI INVALID JUMPDEST ADD PUSH1 0x20 ADD MLOAD PUSH1 0x1 PUSH1 0x1 PUSH1 0xF8 SHL SUB NOT AND ISZERO PUSH3 0xEF3 JUMPI PUSH1 0x1 ADD DUP2 MSTORE SWAP1 POP PUSH3 0x630 JUMP JUMPDEST PUSH3 0xEB4 JUMP JUMPDEST POP POP PUSH1 0x40 DUP1 MLOAD PUSH1 0x0 DUP2 MSTORE PUSH1 0x20 DUP2 ADD SWAP1 SWAP2 MSTORE SWAP3 SWAP2 POP POP JUMP JUMPDEST PUSH1 0x0 DUP2 DUP4 PUSH3 0xF34 JUMPI PUSH1 0x40 MLOAD PUSH3 0x461BCD PUSH1 0xE5 SHL DUP2 MSTORE PUSH1 0x4 ADD PUSH3 0xC1D SWAP2 SWAP1 PUSH3 0x1389 JUMP JUMPDEST POP PUSH1 0x0 DUP4 DUP6 DUP2 PUSH3 0xF41 JUMPI INVALID JUMPDEST DIV SWAP6 SWAP5 POP POP POP POP POP JUMP JUMPDEST PUSH1 0x0 DUP2 DUP5 DUP5 GT ISZERO PUSH3 0xF72 JUMPI PUSH1 0x40 MLOAD PUSH3 0x461BCD PUSH1 0xE5 SHL DUP2 MSTORE PUSH1 0x4 ADD PUSH3 0xC1D SWAP2 SWAP1 PUSH3 0x1389 JUMP JUMPDEST POP POP POP SWAP1 SUB SWAP1 JUMP JUMPDEST EXTCODESIZE ISZERO ISZERO SWAP1 JUMP JUMPDEST PUSH1 0x40 MLOAD DUP1 PUSH1 0x60 ADD PUSH1 0x40 MSTORE DUP1 PUSH1 0x0 DUP2 MSTORE PUSH1 0x20 ADD PUSH1 0x0 DUP2 MSTORE PUSH1 0x20 ADD PUSH1 0x0 DUP2 MSTORE POP SWAP1 JUMP JUMPDEST PUSH2 0x1C12 DUP1 PUSH3 0x14C4 DUP4 CODECOPY ADD SWAP1 JUMP JUMPDEST DUP1 CALLDATALOAD PUSH3 0x617 DUP2 PUSH3 0x14A1 JUMP JUMPDEST DUP1 CALLDATALOAD PUSH3 0x617 DUP2 PUSH3 0x14B8 JUMP JUMPDEST DUP1 MLOAD PUSH3 0x617 DUP2 PUSH3 0x14B8 JUMP JUMPDEST PUSH1 0x0 PUSH1 0x20 DUP3 DUP5 SUB SLT ISZERO PUSH3 0xFE9 JUMPI PUSH1 0x0 DUP1 REVERT JUMPDEST PUSH1 0x0 PUSH3 0xFF7 DUP5 DUP5 PUSH3 0xFAF JUMP JUMPDEST SWAP5 SWAP4 POP POP POP POP JUMP JUMPDEST PUSH1 0x0 DUP1 PUSH1 0x40 DUP4 DUP6 SUB SLT ISZERO PUSH3 0x1013 JUMPI PUSH1 0x0 DUP1 REVERT JUMPDEST PUSH1 0x0 PUSH3 0x1021 DUP6 DUP6 PUSH3 0xFAF JUMP JUMPDEST SWAP3 POP POP PUSH1 0x20 PUSH3 0x1034 DUP6 DUP3 DUP7 ADD PUSH3 0xFAF JUMP JUMPDEST SWAP2 POP POP SWAP3 POP SWAP3 SWAP1 POP JUMP JUMPDEST PUSH1 0x0 DUP1 PUSH1 0x0 PUSH1 0x60 DUP5 DUP7 SUB SLT ISZERO PUSH3 0x1054 JUMPI PUSH1 0x0 DUP1 REVERT JUMPDEST PUSH1 0x0 PUSH3 0x1062 DUP7 DUP7 PUSH3 0xFAF JUMP JUMPDEST SWAP4 POP POP PUSH1 0x20 PUSH3 0x1075 DUP7 DUP3 DUP8 ADD PUSH3 0xFAF JUMP JUMPDEST SWAP3 POP POP PUSH1 0x40 PUSH3 0x1088 DUP7 DUP3 DUP8 ADD PUSH3 0xFBC JUMP JUMPDEST SWAP2 POP POP SWAP3 POP SWAP3 POP SWAP3 JUMP JUMPDEST PUSH1 0x0 DUP1 PUSH1 0x40 DUP4 DUP6 SUB SLT ISZERO PUSH3 0x10A6 JUMPI PUSH1 0x0 DUP1 REVERT JUMPDEST PUSH1 0x0 PUSH3 0x10B4 DUP6 DUP6 PUSH3 0xFAF JUMP JUMPDEST SWAP3 POP POP PUSH1 0x20 PUSH3 0x1034 DUP6 DUP3 DUP7 ADD PUSH3 0xFBC JUMP JUMPDEST PUSH1 0x0 PUSH1 0x20 DUP3 DUP5 SUB SLT ISZERO PUSH3 0x10DA JUMPI PUSH1 0x0 DUP1 REVERT JUMPDEST PUSH1 0x0 PUSH3 0xFF7 DUP5 DUP5 PUSH3 0xFBC JUMP JUMPDEST PUSH1 0x0 PUSH1 0x20 DUP3 DUP5 SUB SLT ISZERO PUSH3 0x10FB JUMPI PUSH1 0x0 DUP1 REVERT JUMPDEST PUSH1 0x0 PUSH3 0xFF7 DUP5 DUP5 PUSH3 0xFC9 JUMP JUMPDEST PUSH1 0x0 DUP1 PUSH1 0x40 DUP4 DUP6 SUB SLT ISZERO PUSH3 0x111D JUMPI PUSH1 0x0 DUP1 REVERT JUMPDEST PUSH1 0x0 PUSH3 0x10B4 DUP6 DUP6 PUSH3 0xFBC JUMP JUMPDEST PUSH3 0x1136 DUP2 PUSH3 0x13FF JUMP JUMPDEST DUP3 MSTORE POP POP JUMP JUMPDEST PUSH3 0x1136 DUP2 PUSH3 0x140C JUMP JUMPDEST PUSH3 0x1136 PUSH3 0x1156 DUP3 PUSH3 0x1411 JUMP JUMPDEST PUSH3 0x141E JUMP JUMPDEST PUSH3 0x1136 PUSH3 0x1156 DUP3 PUSH3 0x141E JUMP JUMPDEST PUSH1 0x0 PUSH3 0x1178 DUP3 PUSH3 0x13F2 JUMP JUMPDEST PUSH3 0x1184 DUP2 DUP6 PUSH3 0x630 JUMP JUMPDEST SWAP4 POP PUSH3 0x1196 DUP2 DUP6 PUSH1 0x20 DUP7 ADD PUSH3 0x1459 JUMP JUMPDEST SWAP3 SWAP1 SWAP3 ADD SWAP3 SWAP2 POP POP JUMP JUMPDEST PUSH3 0x1136 DUP2 PUSH3 0x143F JUMP JUMPDEST PUSH3 0x1136 DUP2 PUSH3 0x144C JUMP JUMPDEST PUSH1 0x0 PUSH3 0x11C3 DUP3 PUSH3 0x13F2 JUMP JUMPDEST PUSH3 0x11CF DUP2 DUP6 PUSH3 0x13F6 JUMP JUMPDEST SWAP4 POP PUSH3 0x11E1 DUP2 DUP6 PUSH1 0x20 DUP7 ADD PUSH3 0x1459 JUMP JUMPDEST PUSH3 0x11EC DUP2 PUSH3 0x148C JUMP JUMPDEST SWAP1 SWAP4 ADD SWAP4 SWAP3 POP POP POP JUMP JUMPDEST PUSH1 0x0 PUSH3 0x1205 PUSH1 0x1B DUP4 PUSH3 0x13F6 JUMP JUMPDEST PUSH32 0x536166654D6174683A206164646974696F6E206F766572666C6F770000000000 DUP2 MSTORE PUSH1 0x20 ADD SWAP3 SWAP2 POP POP JUMP JUMPDEST PUSH1 0x0 PUSH3 0x1240 PUSH1 0x21 DUP4 PUSH3 0x13F6 JUMP JUMPDEST PUSH32 0x536166654D6174683A206D756C7469706C69636174696F6E206F766572666C6F DUP2 MSTORE PUSH1 0x77 PUSH1 0xF8 SHL PUSH1 0x20 DUP3 ADD MSTORE PUSH1 0x40 ADD SWAP3 SWAP2 POP POP JUMP JUMPDEST PUSH1 0x0 PUSH3 0x1285 PUSH1 0x3B DUP4 PUSH3 0x13F6 JUMP JUMPDEST PUSH32 0x43616E6E6F742073657420612070726F787920696D706C656D656E746174696F DUP2 MSTORE PUSH32 0x6E20746F2061206E6F6E2D636F6E747261637420616464726573730000000000 PUSH1 0x20 DUP3 ADD MSTORE PUSH1 0x40 ADD SWAP3 SWAP2 POP POP JUMP JUMPDEST PUSH3 0x1136 DUP2 PUSH3 0x141E JUMP JUMPDEST PUSH3 0x1136 DUP2 PUSH3 0x1439 JUMP JUMPDEST PUSH1 0x0 PUSH3 0x12FB DUP3 DUP5 PUSH3 0x115C JUMP JUMPDEST POP PUSH1 0x20 ADD SWAP2 SWAP1 POP JUMP JUMPDEST PUSH1 0x0 PUSH3 0x8F9 DUP3 DUP5 PUSH3 0x116B JUMP JUMPDEST PUSH1 0x0 PUSH3 0x1320 DUP3 DUP7 PUSH3 0x116B JUMP JUMPDEST SWAP2 POP PUSH3 0x132E DUP3 DUP6 PUSH3 0x1147 JUMP JUMPDEST PUSH1 0x2 DUP3 ADD SWAP2 POP PUSH3 0x1340 DUP3 DUP5 PUSH3 0x116B JUMP JUMPDEST SWAP6 SWAP5 POP POP POP POP POP JUMP JUMPDEST PUSH1 0x20 DUP2 ADD PUSH3 0x617 DUP3 DUP5 PUSH3 0x112B JUMP JUMPDEST PUSH1 0x20 DUP2 ADD PUSH3 0x617 DUP3 DUP5 PUSH3 0x113C JUMP JUMPDEST PUSH1 0x20 DUP2 ADD PUSH3 0x617 DUP3 DUP5 PUSH3 0x11A0 JUMP JUMPDEST PUSH1 0x20 DUP2 ADD PUSH3 0x617 DUP3 DUP5 PUSH3 0x11AB JUMP JUMPDEST PUSH1 0x20 DUP1 DUP3 MSTORE DUP2 ADD PUSH3 0x8F9 DUP2 DUP5 PUSH3 0x11B6 JUMP JUMPDEST PUSH1 0x20 DUP1 DUP3 MSTORE DUP2 ADD PUSH3 0x617 DUP2 PUSH3 0x11F6 JUMP JUMPDEST PUSH1 0x20 DUP1 DUP3 MSTORE DUP2 ADD PUSH3 0x617 DUP2 PUSH3 0x1231 JUMP JUMPDEST PUSH1 0x20 DUP1 DUP3 MSTORE DUP2 ADD PUSH3 0x617 DUP2 PUSH3 0x1276 JUMP JUMPDEST PUSH1 0x20 DUP2 ADD PUSH3 0x617 DUP3 DUP5 PUSH3 0x12D7 JUMP JUMPDEST PUSH1 0x20 DUP2 ADD PUSH3 0x617 DUP3 DUP5 PUSH3 0x12E2 JUMP JUMPDEST MLOAD SWAP1 JUMP JUMPDEST SWAP1 DUP2 MSTORE PUSH1 0x20 ADD SWAP1 JUMP JUMPDEST PUSH1 0x0 PUSH3 0x617 DUP3 PUSH3 0x142D JUMP JUMPDEST ISZERO ISZERO SWAP1 JUMP JUMPDEST PUSH1 0x1 PUSH1 0x1 PUSH1 0xF0 SHL SUB NOT AND SWAP1 JUMP JUMPDEST SWAP1 JUMP JUMPDEST DUP1 PUSH3 0x630 DUP2 PUSH3 0x1496 JUMP JUMPDEST PUSH1 0x1 PUSH1 0x1 PUSH1 0xA0 SHL SUB AND SWAP1 JUMP JUMPDEST PUSH1 0xFF AND SWAP1 JUMP JUMPDEST PUSH1 0x0 PUSH3 0x617 DUP3 PUSH3 0x13FF JUMP JUMPDEST PUSH1 0x0 PUSH3 0x617 DUP3 PUSH3 0x1421 JUMP JUMPDEST PUSH1 0x0 JUMPDEST DUP4 DUP2 LT ISZERO PUSH3 0x1476 JUMPI DUP2 DUP2 ADD MLOAD DUP4 DUP3 ADD MSTORE PUSH1 0x20 ADD PUSH3 0x145C JUMP JUMPDEST DUP4 DUP2 GT ISZERO PUSH3 0x1486 JUMPI PUSH1 0x0 DUP5 DUP5 ADD MSTORE JUMPDEST POP POP POP POP JUMP JUMPDEST PUSH1 0x1F ADD PUSH1 0x1F NOT AND SWAP1 JUMP JUMPDEST PUSH1 0x3 DUP2 LT PUSH3 0x6FB JUMPI INVALID JUMPDEST PUSH3 0x14AC DUP2 PUSH3 0x13FF JUMP JUMPDEST DUP2 EQ PUSH3 0x6FB JUMPI PUSH1 0x0 DUP1 REVERT JUMPDEST PUSH3 0x14AC DUP2 PUSH3 0x141E JUMP INVALID PUSH1 0x80 PUSH1 0x40 MSTORE CALLVALUE DUP1 ISZERO PUSH3 0x11 JUMPI PUSH1 0x0 DUP1 REVERT JUMPDEST POP PUSH1 0x40 MLOAD DUP1 PUSH1 0x40 ADD PUSH1 0x40 MSTORE DUP1 PUSH1 0x18 DUP2 MSTORE PUSH1 0x20 ADD PUSH32 0x42696E616E6365204167696C652053657420446F6C6C61720000000000000000 DUP2 MSTORE POP PUSH1 0x40 MLOAD DUP1 PUSH1 0x40 ADD PUSH1 0x40 MSTORE DUP1 PUSH1 0x4 DUP2 MSTORE PUSH1 0x20 ADD PUSH4 0x109054D1 PUSH1 0xE2 SHL DUP2 MSTORE POP PUSH1 0x12 PUSH3 0x8A PUSH3 0x7B PUSH3 0x125 PUSH1 0x20 SHL PUSH1 0x20 SHR JUMP JUMPDEST PUSH1 0x1 PUSH1 0x1 PUSH1 0xE0 SHL SUB PUSH3 0x12A AND JUMP JUMPDEST DUP3 MLOAD PUSH3 0x9F SWAP1 PUSH1 0x1 SWAP1 PUSH1 0x20 DUP7 ADD SWAP1 PUSH3 0x31F JUMP JUMPDEST POP DUP2 MLOAD PUSH3 0xB5 SWAP1 PUSH1 0x2 SWAP1 PUSH1 0x20 DUP6 ADD SWAP1 PUSH3 0x31F JUMP JUMPDEST POP PUSH1 0x3 DUP1 SLOAD PUSH1 0xFF NOT AND PUSH1 0xFF SWAP3 SWAP1 SWAP3 AND SWAP2 SWAP1 SWAP2 OR SWAP1 SSTORE POP PUSH3 0x11C SWAP1 POP PUSH3 0xDB PUSH3 0x17C JUMP JUMPDEST PUSH1 0x40 MLOAD DUP1 PUSH1 0x40 ADD PUSH1 0x40 MSTORE DUP1 PUSH1 0x1 DUP2 MSTORE PUSH1 0x20 ADD PUSH1 0x31 PUSH1 0xF8 SHL DUP2 MSTORE POP PUSH3 0x10A PUSH3 0x215 PUSH1 0x20 SHL PUSH3 0x1634 OR PUSH1 0x20 SHR JUMP JUMPDEST ADDRESS PUSH3 0x21A PUSH1 0x20 SHL PUSH3 0x1639 OR PUSH1 0x20 SHR JUMP JUMPDEST PUSH1 0x7 SSTORE PUSH3 0x475 JUMP JUMPDEST CALLER JUMPDEST SWAP1 JUMP JUMPDEST PUSH3 0x145 DUP2 PUSH1 0x0 PUSH3 0x271 PUSH1 0x20 SHL PUSH3 0xD7E OR SWAP1 SWAP2 SWAP1 PUSH1 0x20 SHR JUMP JUMPDEST PUSH1 0x40 MLOAD PUSH1 0x1 PUSH1 0x1 PUSH1 0xA0 SHL SUB DUP3 AND SWAP1 PUSH32 0x6AE172837EA30B801FBFCDD4108AA1D5BF8FF775444FD70256B44E6BF3DFC3F6 SWAP1 PUSH1 0x0 SWAP1 LOG2 POP JUMP JUMPDEST PUSH1 0x1 DUP1 SLOAD PUSH1 0x40 DUP1 MLOAD PUSH1 0x20 PUSH1 0x1F PUSH1 0x2 PUSH1 0x0 NOT PUSH2 0x100 DUP8 DUP10 AND ISZERO MUL ADD SWAP1 SWAP6 AND SWAP5 SWAP1 SWAP5 DIV SWAP4 DUP5 ADD DUP2 SWAP1 DIV DUP2 MUL DUP3 ADD DUP2 ADD SWAP1 SWAP3 MSTORE DUP3 DUP2 MSTORE PUSH1 0x60 SWAP4 SWAP1 SWAP3 SWAP1 SWAP2 DUP4 ADD DUP3 DUP3 DUP1 ISZERO PUSH3 0x20B JUMPI DUP1 PUSH1 0x1F LT PUSH3 0x1DF JUMPI PUSH2 0x100 DUP1 DUP4 SLOAD DIV MUL DUP4 MSTORE SWAP2 PUSH1 0x20 ADD SWAP2 PUSH3 0x20B JUMP JUMPDEST DUP3 ADD SWAP2 SWAP1 PUSH1 0x0 MSTORE PUSH1 0x20 PUSH1 0x0 KECCAK256 SWAP1 JUMPDEST DUP2 SLOAD DUP2 MSTORE SWAP1 PUSH1 0x1 ADD SWAP1 PUSH1 0x20 ADD DUP1 DUP4 GT PUSH3 0x1ED JUMPI DUP3 SWAP1 SUB PUSH1 0x1F AND DUP3 ADD SWAP2 JUMPDEST POP POP POP POP POP SWAP1 POP SWAP1 JUMP JUMPDEST PUSH1 0x38 SWAP1 JUMP JUMPDEST DUP4 MLOAD PUSH1 0x20 SWAP5 DUP6 ADD KECCAK256 DUP4 MLOAD SWAP4 DUP6 ADD SWAP4 SWAP1 SWAP4 KECCAK256 PUSH1 0x40 DUP1 MLOAD PUSH32 0x8B73C3C69BB8FE3D512ECC4CF759CC79239F7B179B0FFACAA9A75D522B39400F DUP2 MSTORE SWAP6 DUP7 ADD SWAP5 SWAP1 SWAP5 MSTORE SWAP3 DUP5 ADD SWAP3 SWAP1 SWAP3 MSTORE PUSH1 0x60 DUP4 ADD MSTORE PUSH1 0x80 DUP3 ADD MSTORE PUSH1 0xA0 SWAP1 KECCAK256 SWAP1 JUMP JUMPDEST PUSH3 0x286 DUP3 DUP3 PUSH1 0x1 PUSH1 0x1 PUSH1 0xE0 SHL SUB PUSH3 0x2D4 AND JUMP JUMPDEST ISZERO PUSH3 0x2AF JUMPI PUSH1 0x40 MLOAD PUSH3 0x461BCD PUSH1 0xE5 SHL DUP2 MSTORE PUSH1 0x4 ADD PUSH3 0x2A6 SWAP1 PUSH3 0x442 JUMP JUMPDEST PUSH1 0x40 MLOAD DUP1 SWAP2 SUB SWAP1 REVERT JUMPDEST PUSH1 0x1 PUSH1 0x1 PUSH1 0xA0 SHL SUB AND PUSH1 0x0 SWAP1 DUP2 MSTORE PUSH1 0x20 SWAP2 SWAP1 SWAP2 MSTORE PUSH1 0x40 SWAP1 KECCAK256 DUP1 SLOAD PUSH1 0xFF NOT AND PUSH1 0x1 OR SWAP1 SSTORE JUMP JUMPDEST PUSH1 0x0 PUSH1 0x1 PUSH1 0x1 PUSH1 0xA0 SHL SUB DUP3 AND PUSH3 0x2FF JUMPI PUSH1 0x40 MLOAD PUSH3 0x461BCD PUSH1 0xE5 SHL DUP2 MSTORE PUSH1 0x4 ADD PUSH3 0x2A6 SWAP1 PUSH3 0x45A JUMP JUMPDEST POP PUSH1 0x1 PUSH1 0x1 PUSH1 0xA0 SHL SUB AND PUSH1 0x0 SWAP1 DUP2 MSTORE PUSH1 0x20 SWAP2 SWAP1 SWAP2 MSTORE PUSH1 0x40 SWAP1 KECCAK256 SLOAD PUSH1 0xFF AND SWAP1 JUMP JUMPDEST DUP3 DUP1 SLOAD PUSH1 0x1 DUP2 PUSH1 0x1 AND ISZERO PUSH2 0x100 MUL SUB AND PUSH1 0x2 SWAP1 DIV SWAP1 PUSH1 0x0 MSTORE PUSH1 0x20 PUSH1 0x0 KECCAK256 SWAP1 PUSH1 0x1F ADD PUSH1 0x20 SWAP1 DIV DUP2 ADD SWAP3 DUP3 PUSH1 0x1F LT PUSH3 0x362 JUMPI DUP1 MLOAD PUSH1 0xFF NOT AND DUP4 DUP1 ADD OR DUP6 SSTORE PUSH3 0x392 JUMP JUMPDEST DUP3 DUP1 ADD PUSH1 0x1 ADD DUP6 SSTORE DUP3 ISZERO PUSH3 0x392 JUMPI SWAP2 DUP3 ADD JUMPDEST DUP3 DUP2 GT ISZERO PUSH3 0x392 JUMPI DUP3 MLOAD DUP3 SSTORE SWAP2 PUSH1 0x20 ADD SWAP2 SWAP1 PUSH1 0x1 ADD SWAP1 PUSH3 0x375 JUMP JUMPDEST POP PUSH3 0x3A0 SWAP3 SWAP2 POP PUSH3 0x3A4 JUMP JUMPDEST POP SWAP1 JUMP JUMPDEST PUSH3 0x127 SWAP2 SWAP1 JUMPDEST DUP1 DUP3 GT ISZERO PUSH3 0x3A0 JUMPI PUSH1 0x0 DUP2 SSTORE PUSH1 0x1 ADD PUSH3 0x3AB JUMP JUMPDEST PUSH1 0x0 PUSH3 0x3D0 PUSH1 0x1F DUP4 PUSH3 0x46C JUMP JUMPDEST PUSH32 0x526F6C65733A206163636F756E7420616C72656164792068617320726F6C6500 DUP2 MSTORE PUSH1 0x20 ADD SWAP3 SWAP2 POP POP JUMP JUMPDEST PUSH1 0x0 PUSH3 0x40B PUSH1 0x22 DUP4 PUSH3 0x46C JUMP JUMPDEST PUSH32 0x526F6C65733A206163636F756E7420697320746865207A65726F206164647265 DUP2 MSTORE PUSH2 0x7373 PUSH1 0xF0 SHL PUSH1 0x20 DUP3 ADD MSTORE PUSH1 0x40 ADD SWAP3 SWAP2 POP POP JUMP JUMPDEST PUSH1 0x20 DUP1 DUP3 MSTORE DUP2 ADD PUSH3 0x454 DUP2 PUSH3 0x3C1 JUMP JUMPDEST SWAP3 SWAP2 POP POP JUMP JUMPDEST PUSH1 0x20 DUP1 DUP3 MSTORE DUP2 ADD PUSH3 0x454 DUP2 PUSH3 0x3FC JUMP JUMPDEST SWAP1 DUP2 MSTORE PUSH1 0x20 ADD SWAP1 JUMP JUMPDEST PUSH2 0x178D DUP1 PUSH3 0x485 PUSH1 0x0 CODECOPY PUSH1 0x0 RETURN INVALID PUSH1 0x80 PUSH1 0x40 MSTORE CALLVALUE DUP1 ISZERO PUSH2 0x10 JUMPI PUSH1 0x0 DUP1 REVERT JUMPDEST POP PUSH1 0x4 CALLDATASIZE LT PUSH2 0x12C JUMPI PUSH1 0x0 CALLDATALOAD PUSH1 0xE0 SHR DUP1 PUSH4 0x95D89B41 GT PUSH2 0xAD JUMPI DUP1 PUSH4 0xAA271E1A GT PUSH2 0x71 JUMPI DUP1 PUSH4 0xAA271E1A EQ PUSH2 0x256 JUMPI DUP1 PUSH4 0xD505ACCF EQ PUSH2 0x269 JUMPI DUP1 PUSH4 0xDAB400F3 EQ PUSH2 0x27C JUMPI DUP1 PUSH4 0xDD62ED3E EQ PUSH2 0x284 JUMPI DUP1 PUSH4 0xE879C19F EQ PUSH2 0x297 JUMPI PUSH2 0x12C JUMP JUMPDEST DUP1 PUSH4 0x95D89B41 EQ PUSH2 0x20D JUMPI DUP1 PUSH4 0x983B2D56 EQ PUSH2 0x215 JUMPI DUP1 PUSH4 0x98650275 EQ PUSH2 0x228 JUMPI DUP1 PUSH4 0xA457C2D7 EQ PUSH2 0x230 JUMPI DUP1 PUSH4 0xA9059CBB EQ PUSH2 0x243 JUMPI PUSH2 0x12C JUMP JUMPDEST DUP1 PUSH4 0x39509351 GT PUSH2 0xF4 JUMPI DUP1 PUSH4 0x39509351 EQ PUSH2 0x1AC JUMPI DUP1 PUSH4 0x40C10F19 EQ PUSH2 0x1BF JUMPI DUP1 PUSH4 0x42966C68 EQ PUSH2 0x1D2 JUMPI DUP1 PUSH4 0x70A08231 EQ PUSH2 0x1E7 JUMPI DUP1 PUSH4 0x79CC6790 EQ PUSH2 0x1FA JUMPI PUSH2 0x12C JUMP JUMPDEST DUP1 PUSH4 0x6FDDE03 EQ PUSH2 0x131 JUMPI DUP1 PUSH4 0x95EA7B3 EQ PUSH2 0x14F JUMPI DUP1 PUSH4 0x18160DDD EQ PUSH2 0x16F JUMPI DUP1 PUSH4 0x23B872DD EQ PUSH2 0x184 JUMPI DUP1 PUSH4 0x313CE567 EQ PUSH2 0x197 JUMPI JUMPDEST PUSH1 0x0 DUP1 REVERT JUMPDEST PUSH2 0x139 PUSH2 0x29F JUMP JUMPDEST PUSH1 0x40 MLOAD PUSH2 0x146 SWAP2 SWAP1 PUSH2 0x14C6 JUMP JUMPDEST PUSH1 0x40 MLOAD DUP1 SWAP2 SUB SWAP1 RETURN JUMPDEST PUSH2 0x162 PUSH2 0x15D CALLDATASIZE PUSH1 0x4 PUSH2 0xFFC JUMP JUMPDEST PUSH2 0x334 JUMP JUMPDEST PUSH1 0x40 MLOAD PUSH2 0x146 SWAP2 SWAP1 PUSH2 0x141B JUMP JUMPDEST PUSH2 0x177 PUSH2 0x352 JUMP JUMPDEST PUSH1 0x40 MLOAD PUSH2 0x146 SWAP2 SWAP1 PUSH2 0x1429 JUMP JUMPDEST PUSH2 0x162 PUSH2 0x192 CALLDATASIZE PUSH1 0x4 PUSH2 0xF13 JUMP JUMPDEST PUSH2 0x358 JUMP JUMPDEST PUSH2 0x19F PUSH2 0x3CA JUMP JUMPDEST PUSH1 0x40 MLOAD PUSH2 0x146 SWAP2 SWAP1 PUSH2 0x1587 JUMP JUMPDEST PUSH2 0x162 PUSH2 0x1BA CALLDATASIZE PUSH1 0x4 PUSH2 0xFFC JUMP JUMPDEST PUSH2 0x3D3 JUMP JUMPDEST PUSH2 0x162 PUSH2 0x1CD CALLDATASIZE PUSH1 0x4 PUSH2 0xFFC JUMP JUMPDEST PUSH2 0x427 JUMP JUMPDEST PUSH2 0x1E5 PUSH2 0x1E0 CALLDATASIZE PUSH1 0x4 PUSH2 0x102C JUMP JUMPDEST PUSH2 0x463 JUMP JUMPDEST STOP JUMPDEST PUSH2 0x177 PUSH2 0x1F5 CALLDATASIZE PUSH1 0x4 PUSH2 0xEB3 JUMP JUMPDEST PUSH2 0x477 JUMP JUMPDEST PUSH2 0x1E5 PUSH2 0x208 CALLDATASIZE PUSH1 0x4 PUSH2 0xFFC JUMP JUMPDEST PUSH2 0x496 JUMP JUMPDEST PUSH2 0x139 PUSH2 0x4A4 JUMP JUMPDEST PUSH2 0x1E5 PUSH2 0x223 CALLDATASIZE PUSH1 0x4 PUSH2 0xEB3 JUMP JUMPDEST PUSH2 0x502 JUMP JUMPDEST PUSH2 0x1E5 PUSH2 0x532 JUMP JUMPDEST PUSH2 0x162 PUSH2 0x23E CALLDATASIZE PUSH1 0x4 PUSH2 0xFFC JUMP JUMPDEST PUSH2 0x544 JUMP JUMPDEST PUSH2 0x162 PUSH2 0x251 CALLDATASIZE PUSH1 0x4 PUSH2 0xFFC JUMP JUMPDEST PUSH2 0x5B2 JUMP JUMPDEST PUSH2 0x162 PUSH2 0x264 CALLDATASIZE PUSH1 0x4 PUSH2 0xEB3 JUMP JUMPDEST PUSH2 0x5C6 JUMP JUMPDEST PUSH2 0x1E5 PUSH2 0x277 CALLDATASIZE PUSH1 0x4 PUSH2 0xF60 JUMP JUMPDEST PUSH2 0x5D8 JUMP JUMPDEST PUSH2 0x177 PUSH2 0x75F JUMP JUMPDEST PUSH2 0x177 PUSH2 0x292 CALLDATASIZE PUSH1 0x4 PUSH2 0xED9 JUMP JUMPDEST PUSH2 0x765 JUMP JUMPDEST PUSH2 0x177 PUSH2 0x790 JUMP JUMPDEST PUSH1 0x1 DUP1 SLOAD PUSH1 0x40 DUP1 MLOAD PUSH1 0x20 PUSH1 0x1F PUSH1 0x2 PUSH1 0x0 NOT PUSH2 0x100 DUP8 DUP10 AND ISZERO MUL ADD SWAP1 SWAP6 AND SWAP5 SWAP1 SWAP5 DIV SWAP4 DUP5 ADD DUP2 SWAP1 DIV DUP2 MUL DUP3 ADD DUP2 ADD SWAP1 SWAP3 MSTORE DUP3 DUP2 MSTORE PUSH1 0x60 SWAP4 SWAP1 SWAP3 SWAP1 SWAP2 DUP4 ADD DUP3 DUP3 DUP1 ISZERO PUSH2 0x32A JUMPI DUP1 PUSH1 0x1F LT PUSH2 0x2FF JUMPI PUSH2 0x100 DUP1 DUP4 SLOAD DIV MUL DUP4 MSTORE SWAP2 PUSH1 0x20 ADD SWAP2 PUSH2 0x32A JUMP JUMPDEST DUP3 ADD SWAP2 SWAP1 PUSH1 0x0 MSTORE PUSH1 0x20 PUSH1 0x0 KECCAK256 SWAP1 JUMPDEST DUP2 SLOAD DUP2 MSTORE SWAP1 PUSH1 0x1 ADD SWAP1 PUSH1 0x20 ADD DUP1 DUP4 GT PUSH2 0x30D JUMPI DUP3 SWAP1 SUB PUSH1 0x1F AND DUP3 ADD SWAP2 JUMPDEST POP POP POP POP POP SWAP1 POP SWAP1 JUMP JUMPDEST PUSH1 0x0 PUSH2 0x348 PUSH2 0x341 PUSH2 0x7B4 JUMP JUMPDEST DUP5 DUP5 PUSH2 0x7B8 JUMP JUMPDEST POP PUSH1 0x1 JUMPDEST SWAP3 SWAP2 POP POP JUMP JUMPDEST PUSH1 0x6 SLOAD SWAP1 JUMP JUMPDEST PUSH1 0x0 PUSH2 0x365 DUP5 DUP5 DUP5 PUSH2 0x86C JUMP JUMPDEST PUSH1 0x0 NOT PUSH2 0x374 DUP6 PUSH2 0x292 PUSH2 0x7B4 JUMP JUMPDEST EQ PUSH2 0x3C0 JUMPI PUSH2 0x3C0 DUP5 PUSH2 0x385 PUSH2 0x7B4 JUMP JUMPDEST PUSH2 0x3BB DUP6 PUSH1 0x40 MLOAD DUP1 PUSH1 0x60 ADD PUSH1 0x40 MSTORE DUP1 PUSH1 0x29 DUP2 MSTORE PUSH1 0x20 ADD PUSH2 0x16DC PUSH1 0x29 SWAP2 CODECOPY PUSH2 0x3AE DUP11 PUSH2 0x292 PUSH2 0x7B4 JUMP JUMPDEST SWAP2 SWAP1 PUSH4 0xFFFFFFFF PUSH2 0x982 AND JUMP JUMPDEST PUSH2 0x7B8 JUMP JUMPDEST POP PUSH1 0x1 SWAP4 SWAP3 POP POP POP JUMP JUMPDEST PUSH1 0x3 SLOAD PUSH1 0xFF AND SWAP1 JUMP JUMPDEST PUSH1 0x0 PUSH2 0x348 PUSH2 0x3E0 PUSH2 0x7B4 JUMP JUMPDEST DUP5 PUSH2 0x3BB DUP6 PUSH1 0x5 PUSH1 0x0 PUSH2 0x3F1 PUSH2 0x7B4 JUMP JUMPDEST PUSH1 0x1 PUSH1 0x1 PUSH1 0xA0 SHL SUB SWAP1 DUP2 AND DUP3 MSTORE PUSH1 0x20 DUP1 DUP4 ADD SWAP4 SWAP1 SWAP4 MSTORE PUSH1 0x40 SWAP2 DUP3 ADD PUSH1 0x0 SWAP1 DUP2 KECCAK256 SWAP2 DUP13 AND DUP2 MSTORE SWAP3 MSTORE SWAP1 KECCAK256 SLOAD SWAP1 PUSH4 0xFFFFFFFF PUSH2 0x9AE AND JUMP JUMPDEST PUSH1 0x0 PUSH2 0x434 PUSH2 0x264 PUSH2 0x7B4 JUMP JUMPDEST PUSH2 0x459 JUMPI PUSH1 0x40 MLOAD PUSH3 0x461BCD PUSH1 0xE5 SHL DUP2 MSTORE PUSH1 0x4 ADD PUSH2 0x450 SWAP1 PUSH2 0x1517 JUMP JUMPDEST PUSH1 0x40 MLOAD DUP1 SWAP2 SUB SWAP1 REVERT JUMPDEST PUSH2 0x348 DUP4 DUP4 PUSH2 0x9DA JUMP JUMPDEST PUSH2 0x474 PUSH2 0x46E PUSH2 0x7B4 JUMP JUMPDEST DUP3 PUSH2 0xA9A JUMP JUMPDEST POP JUMP JUMPDEST PUSH1 0x1 PUSH1 0x1 PUSH1 0xA0 SHL SUB DUP2 AND PUSH1 0x0 SWAP1 DUP2 MSTORE PUSH1 0x4 PUSH1 0x20 MSTORE PUSH1 0x40 SWAP1 KECCAK256 SLOAD JUMPDEST SWAP2 SWAP1 POP JUMP JUMPDEST PUSH2 0x4A0 DUP3 DUP3 PUSH2 0xB70 JUMP JUMPDEST POP POP JUMP JUMPDEST PUSH1 0x2 DUP1 SLOAD PUSH1 0x40 DUP1 MLOAD PUSH1 0x20 PUSH1 0x1F PUSH1 0x0 NOT PUSH2 0x100 PUSH1 0x1 DUP8 AND ISZERO MUL ADD SWAP1 SWAP5 AND DUP6 SWAP1 DIV SWAP4 DUP5 ADD DUP2 SWAP1 DIV DUP2 MUL DUP3 ADD DUP2 ADD SWAP1 SWAP3 MSTORE DUP3 DUP2 MSTORE PUSH1 0x60 SWAP4 SWAP1 SWAP3 SWAP1 SWAP2 DUP4 ADD DUP3 DUP3 DUP1 ISZERO PUSH2 0x32A JUMPI DUP1 PUSH1 0x1F LT PUSH2 0x2FF JUMPI PUSH2 0x100 DUP1 DUP4 SLOAD DIV MUL DUP4 MSTORE SWAP2 PUSH1 0x20 ADD SWAP2 PUSH2 0x32A JUMP JUMPDEST PUSH2 0x50D PUSH2 0x264 PUSH2 0x7B4 JUMP JUMPDEST PUSH2 0x529 JUMPI PUSH1 0x40 MLOAD PUSH3 0x461BCD PUSH1 0xE5 SHL DUP2 MSTORE PUSH1 0x4 ADD PUSH2 0x450 SWAP1 PUSH2 0x1517 JUMP JUMPDEST PUSH2 0x474 DUP2 PUSH2 0xBEB JUMP JUMPDEST PUSH2 0x542 PUSH2 0x53D PUSH2 0x7B4 JUMP JUMPDEST PUSH2 0xC33 JUMP JUMPDEST JUMP JUMPDEST PUSH1 0x0 PUSH2 0x348 PUSH2 0x551 PUSH2 0x7B4 JUMP JUMPDEST DUP5 PUSH2 0x3BB DUP6 PUSH1 0x40 MLOAD DUP1 PUSH1 0x60 ADD PUSH1 0x40 MSTORE DUP1 PUSH1 0x25 DUP2 MSTORE PUSH1 0x20 ADD PUSH2 0x16B7 PUSH1 0x25 SWAP2 CODECOPY PUSH1 0x5 PUSH1 0x0 PUSH2 0x57B PUSH2 0x7B4 JUMP JUMPDEST PUSH1 0x1 PUSH1 0x1 PUSH1 0xA0 SHL SUB SWAP1 DUP2 AND DUP3 MSTORE PUSH1 0x20 DUP1 DUP4 ADD SWAP4 SWAP1 SWAP4 MSTORE PUSH1 0x40 SWAP2 DUP3 ADD PUSH1 0x0 SWAP1 DUP2 KECCAK256 SWAP2 DUP14 AND DUP2 MSTORE SWAP3 MSTORE SWAP1 KECCAK256 SLOAD SWAP2 SWAP1 PUSH4 0xFFFFFFFF PUSH2 0x982 AND JUMP JUMPDEST PUSH1 0x0 PUSH2 0x348 PUSH2 0x5BF PUSH2 0x7B4 JUMP JUMPDEST DUP5 DUP5 PUSH2 0x86C JUMP JUMPDEST PUSH1 0x0 PUSH2 0x34C DUP2 DUP4 PUSH4 0xFFFFFFFF PUSH2 0xC7B AND JUMP JUMPDEST PUSH1 0x7 SLOAD PUSH1 0x1 PUSH1 0x1 PUSH1 0xA0 SHL SUB DUP9 AND PUSH1 0x0 SWAP1 DUP2 MSTORE PUSH1 0x8 PUSH1 0x20 SWAP1 DUP2 MSTORE PUSH1 0x40 DUP1 DUP4 KECCAK256 DUP1 SLOAD PUSH1 0x1 DUP2 ADD SWAP1 SWAP2 SSTORE SWAP1 MLOAD SWAP3 SWAP4 PUSH2 0x65A SWAP4 SWAP1 SWAP3 PUSH2 0x63F SWAP3 PUSH32 0x6E71EDAE12B1B97F4D1F60370FEF10105FA2FAAE0126114A169C64845D6126C9 SWAP3 DUP15 SWAP3 DUP15 SWAP3 DUP15 SWAP3 SWAP1 SWAP2 DUP15 SWAP2 ADD PUSH2 0x1437 JUMP JUMPDEST PUSH1 0x40 MLOAD PUSH1 0x20 DUP2 DUP4 SUB SUB DUP2 MSTORE SWAP1 PUSH1 0x40 MSTORE DUP1 MLOAD SWAP1 PUSH1 0x20 ADD KECCAK256 PUSH2 0xCC3 JUMP JUMPDEST SWAP1 POP PUSH1 0x0 PUSH1 0x1 DUP3 DUP7 DUP7 DUP7 PUSH1 0x40 MLOAD PUSH1 0x0 DUP2 MSTORE PUSH1 0x20 ADD PUSH1 0x40 MSTORE PUSH1 0x40 MLOAD PUSH2 0x681 SWAP5 SWAP4 SWAP3 SWAP2 SWAP1 PUSH2 0x1491 JUMP JUMPDEST PUSH1 0x20 PUSH1 0x40 MLOAD PUSH1 0x20 DUP2 SUB SWAP1 DUP1 DUP5 SUB SWAP1 DUP6 GAS STATICCALL ISZERO DUP1 ISZERO PUSH2 0x6A3 JUMPI RETURNDATASIZE PUSH1 0x0 DUP1 RETURNDATACOPY RETURNDATASIZE PUSH1 0x0 REVERT JUMPDEST POP POP POP PUSH1 0x20 PUSH1 0x40 MLOAD SUB MLOAD SWAP1 POP PUSH2 0x6F0 DUP10 PUSH1 0x1 PUSH1 0x1 PUSH1 0xA0 SHL SUB AND DUP3 PUSH1 0x1 PUSH1 0x1 PUSH1 0xA0 SHL SUB AND EQ PUSH11 0x5065726D69747461626C65 PUSH1 0xA8 SHL PUSH17 0x496E76616C6964207369676E6174757265 PUSH1 0x78 SHL PUSH2 0xCE2 JUMP JUMPDEST PUSH2 0x723 PUSH1 0x1 PUSH1 0x1 PUSH1 0xA0 SHL SUB DUP3 AND ISZERO ISZERO PUSH11 0x5065726D69747461626C65 PUSH1 0xA8 SHL PUSH12 0x5A65726F2061646472657373 PUSH1 0xA0 SHL PUSH2 0xCE2 JUMP JUMPDEST PUSH2 0x749 DUP7 TIMESTAMP GT ISZERO PUSH11 0x5065726D69747461626C65 PUSH1 0xA8 SHL PUSH7 0x115E1C1A5C9959 PUSH1 0xCA SHL PUSH2 0xCE2 JUMP JUMPDEST PUSH2 0x754 DUP10 DUP10 DUP10 PUSH2 0x7B8 JUMP JUMPDEST POP POP POP POP POP POP POP POP POP JUMP JUMPDEST PUSH1 0x7 SLOAD DUP2 JUMP JUMPDEST PUSH1 0x1 PUSH1 0x1 PUSH1 0xA0 SHL SUB SWAP2 DUP3 AND PUSH1 0x0 SWAP1 DUP2 MSTORE PUSH1 0x5 PUSH1 0x20 SWAP1 DUP2 MSTORE PUSH1 0x40 DUP1 DUP4 KECCAK256 SWAP4 SWAP1 SWAP5 AND DUP3 MSTORE SWAP2 SWAP1 SWAP2 MSTORE KECCAK256 SLOAD SWAP1 JUMP JUMPDEST PUSH32 0x6E71EDAE12B1B97F4D1F60370FEF10105FA2FAAE0126114A169C64845D6126C9 DUP2 JUMP JUMPDEST CALLER SWAP1 JUMP JUMPDEST PUSH1 0x1 PUSH1 0x1 PUSH1 0xA0 SHL SUB DUP4 AND PUSH2 0x7DE JUMPI PUSH1 0x40 MLOAD PUSH3 0x461BCD PUSH1 0xE5 SHL DUP2 MSTORE PUSH1 0x4 ADD PUSH2 0x450 SWAP1 PUSH2 0x14F7 JUMP JUMPDEST PUSH1 0x1 PUSH1 0x1 PUSH1 0xA0 SHL SUB DUP3 AND PUSH2 0x804 JUMPI PUSH1 0x40 MLOAD PUSH3 0x461BCD PUSH1 0xE5 SHL DUP2 MSTORE PUSH1 0x4 ADD PUSH2 0x450 SWAP1 PUSH2 0x1577 JUMP JUMPDEST PUSH1 0x1 PUSH1 0x1 PUSH1 0xA0 SHL SUB DUP1 DUP5 AND PUSH1 0x0 DUP2 DUP2 MSTORE PUSH1 0x5 PUSH1 0x20 SWAP1 DUP2 MSTORE PUSH1 0x40 DUP1 DUP4 KECCAK256 SWAP5 DUP8 AND DUP1 DUP5 MSTORE SWAP5 SWAP1 SWAP2 MSTORE SWAP1 DUP2 SWAP1 KECCAK256 DUP5 SWAP1 SSTORE MLOAD PUSH32 0x8C5BE1E5EBEC7D5BD14F71427D1E84F3DD0314C0F7B2291E5B200AC8C7C3B925 SWAP1 PUSH2 0x85F SWAP1 DUP6 SWAP1 PUSH2 0x1429 JUMP JUMPDEST PUSH1 0x40 MLOAD DUP1 SWAP2 SUB SWAP1 LOG3 POP POP POP JUMP JUMPDEST PUSH1 0x1 PUSH1 0x1 PUSH1 0xA0 SHL SUB DUP4 AND PUSH2 0x892 JUMPI PUSH1 0x40 MLOAD PUSH3 0x461BCD PUSH1 0xE5 SHL DUP2 MSTORE PUSH1 0x4 ADD PUSH2 0x450 SWAP1 PUSH2 0x14D7 JUMP JUMPDEST PUSH1 0x1 PUSH1 0x1 PUSH1 0xA0 SHL SUB DUP3 AND PUSH2 0x8B8 JUMPI PUSH1 0x40 MLOAD PUSH3 0x461BCD PUSH1 0xE5 SHL DUP2 MSTORE PUSH1 0x4 ADD PUSH2 0x450 SWAP1 PUSH2 0x1557 JUMP JUMPDEST PUSH2 0x8FB DUP2 PUSH1 0x40 MLOAD DUP1 PUSH1 0x60 ADD PUSH1 0x40 MSTORE DUP1 PUSH1 0x26 DUP2 MSTORE PUSH1 0x20 ADD PUSH2 0x1691 PUSH1 0x26 SWAP2 CODECOPY PUSH1 0x1 PUSH1 0x1 PUSH1 0xA0 SHL SUB DUP7 AND PUSH1 0x0 SWAP1 DUP2 MSTORE PUSH1 0x4 PUSH1 0x20 MSTORE PUSH1 0x40 SWAP1 KECCAK256 SLOAD SWAP2 SWAP1 PUSH4 0xFFFFFFFF PUSH2 0x982 AND JUMP JUMPDEST PUSH1 0x1 PUSH1 0x1 PUSH1 0xA0 SHL SUB DUP1 DUP6 AND PUSH1 0x0 SWAP1 DUP2 MSTORE PUSH1 0x4 PUSH1 0x20 MSTORE PUSH1 0x40 DUP1 DUP3 KECCAK256 SWAP4 SWAP1 SWAP4 SSTORE SWAP1 DUP5 AND DUP2 MSTORE KECCAK256 SLOAD PUSH2 0x930 SWAP1 DUP3 PUSH4 0xFFFFFFFF PUSH2 0x9AE AND JUMP JUMPDEST PUSH1 0x1 PUSH1 0x1 PUSH1 0xA0 SHL SUB DUP1 DUP5 AND PUSH1 0x0 DUP2 DUP2 MSTORE PUSH1 0x4 PUSH1 0x20 MSTORE PUSH1 0x40 SWAP1 DUP2 SWAP1 KECCAK256 SWAP4 SWAP1 SWAP4 SSTORE SWAP2 MLOAD SWAP1 DUP6 AND SWAP1 PUSH32 0xDDF252AD1BE2C89B69C2B068FC378DAA952BA7F163C4A11628F55A4DF523B3EF SWAP1 PUSH2 0x85F SWAP1 DUP6 SWAP1 PUSH2 0x1429 JUMP JUMPDEST PUSH1 0x0 DUP2 DUP5 DUP5 GT ISZERO PUSH2 0x9A6 JUMPI PUSH1 0x40 MLOAD PUSH3 0x461BCD PUSH1 0xE5 SHL DUP2 MSTORE PUSH1 0x4 ADD PUSH2 0x450 SWAP2 SWAP1 PUSH2 0x14C6 JUMP JUMPDEST POP POP POP SWAP1 SUB SWAP1 JUMP JUMPDEST PUSH1 0x0 DUP3 DUP3 ADD DUP4 DUP2 LT ISZERO PUSH2 0x9D3 JUMPI PUSH1 0x40 MLOAD PUSH3 0x461BCD PUSH1 0xE5 SHL DUP2 MSTORE PUSH1 0x4 ADD PUSH2 0x450 SWAP1 PUSH2 0x1507 JUMP JUMPDEST SWAP4 SWAP3 POP POP POP JUMP JUMPDEST PUSH1 0x1 PUSH1 0x1 PUSH1 0xA0 SHL SUB DUP3 AND PUSH2 0xA00 JUMPI PUSH1 0x40 MLOAD PUSH3 0x461BCD PUSH1 0xE5 SHL DUP2 MSTORE PUSH1 0x4 ADD PUSH2 0x450 SWAP1 PUSH2 0x1537 JUMP JUMPDEST PUSH1 0x6 SLOAD PUSH2 0xA13 SWAP1 DUP3 PUSH4 0xFFFFFFFF PUSH2 0x9AE AND JUMP JUMPDEST PUSH1 0x6 SSTORE PUSH1 0x1 PUSH1 0x1 PUSH1 0xA0 SHL SUB DUP3 AND PUSH1 0x0 SWAP1 DUP2 MSTORE PUSH1 0x4 PUSH1 0x20 MSTORE PUSH1 0x40 SWAP1 KECCAK256 SLOAD PUSH2 0xA3F SWAP1 DUP3 PUSH4 0xFFFFFFFF PUSH2 0x9AE AND JUMP JUMPDEST PUSH1 0x1 PUSH1 0x1 PUSH1 0xA0 SHL SUB DUP4 AND PUSH1 0x0 DUP2 DUP2 MSTORE PUSH1 0x4 PUSH1 0x20 MSTORE PUSH1 0x40 DUP1 DUP3 KECCAK256 SWAP4 SWAP1 SWAP4 SSTORE SWAP2 MLOAD SWAP1 SWAP2 SWAP1 PUSH32 0xDDF252AD1BE2C89B69C2B068FC378DAA952BA7F163C4A11628F55A4DF523B3EF SWAP1 PUSH2 0xA8E SWAP1 DUP6 SWAP1 PUSH2 0x1429 JUMP JUMPDEST PUSH1 0x40 MLOAD DUP1 SWAP2 SUB SWAP1 LOG3 POP POP JUMP JUMPDEST PUSH1 0x1 PUSH1 0x1 PUSH1 0xA0 SHL SUB DUP3 AND PUSH2 0xAC0 JUMPI PUSH1 0x40 MLOAD PUSH3 0x461BCD PUSH1 0xE5 SHL DUP2 MSTORE PUSH1 0x4 ADD PUSH2 0x450 SWAP1 PUSH2 0x1567 JUMP JUMPDEST PUSH2 0xB03 DUP2 PUSH1 0x40 MLOAD DUP1 PUSH1 0x60 ADD PUSH1 0x40 MSTORE DUP1 PUSH1 0x22 DUP2 MSTORE PUSH1 0x20 ADD PUSH2 0x1705 PUSH1 0x22 SWAP2 CODECOPY PUSH1 0x1 PUSH1 0x1 PUSH1 0xA0 SHL SUB DUP6 AND PUSH1 0x0 SWAP1 DUP2 MSTORE PUSH1 0x4 PUSH1 0x20 MSTORE PUSH1 0x40 SWAP1 KECCAK256 SLOAD SWAP2 SWAP1 PUSH4 0xFFFFFFFF PUSH2 0x982 AND JUMP JUMPDEST PUSH1 0x1 PUSH1 0x1 PUSH1 0xA0 SHL SUB DUP4 AND PUSH1 0x0 SWAP1 DUP2 MSTORE PUSH1 0x4 PUSH1 0x20 MSTORE PUSH1 0x40 SWAP1 KECCAK256 SSTORE PUSH1 0x6 SLOAD PUSH2 0xB2F SWAP1 DUP3 PUSH4 0xFFFFFFFF PUSH2 0xD3C AND JUMP JUMPDEST PUSH1 0x6 SSTORE PUSH1 0x40 MLOAD PUSH1 0x0 SWAP1 PUSH1 0x1 PUSH1 0x1 PUSH1 0xA0 SHL SUB DUP5 AND SWAP1 PUSH32 0xDDF252AD1BE2C89B69C2B068FC378DAA952BA7F163C4A11628F55A4DF523B3EF SWAP1 PUSH2 0xA8E SWAP1 DUP6 SWAP1 PUSH2 0x1429 JUMP JUMPDEST PUSH2 0xB7A DUP3 DUP3 PUSH2 0xA9A JUMP JUMPDEST PUSH2 0x4A0 DUP3 PUSH2 0xB86 PUSH2 0x7B4 JUMP JUMPDEST PUSH2 0x3BB DUP5 PUSH1 0x40 MLOAD DUP1 PUSH1 0x60 ADD PUSH1 0x40 MSTORE DUP1 PUSH1 0x24 DUP2 MSTORE PUSH1 0x20 ADD PUSH2 0x1727 PUSH1 0x24 SWAP2 CODECOPY PUSH1 0x1 PUSH1 0x1 PUSH1 0xA0 SHL SUB DUP9 AND PUSH1 0x0 SWAP1 DUP2 MSTORE PUSH1 0x5 PUSH1 0x20 MSTORE PUSH1 0x40 DUP2 KECCAK256 SWAP1 PUSH2 0xBC4 PUSH2 0x7B4 JUMP JUMPDEST PUSH1 0x1 PUSH1 0x1 PUSH1 0xA0 SHL SUB AND DUP2 MSTORE PUSH1 0x20 DUP2 ADD SWAP2 SWAP1 SWAP2 MSTORE PUSH1 0x40 ADD PUSH1 0x0 KECCAK256 SLOAD SWAP2 SWAP1 PUSH4 0xFFFFFFFF PUSH2 0x982 AND JUMP JUMPDEST PUSH2 0xBFC PUSH1 0x0 DUP3 PUSH4 0xFFFFFFFF PUSH2 0xD7E AND JUMP JUMPDEST PUSH1 0x40 MLOAD PUSH1 0x1 PUSH1 0x1 PUSH1 0xA0 SHL SUB DUP3 AND SWAP1 PUSH32 0x6AE172837EA30B801FBFCDD4108AA1D5BF8FF775444FD70256B44E6BF3DFC3F6 SWAP1 PUSH1 0x0 SWAP1 LOG2 POP JUMP JUMPDEST PUSH2 0xC44 PUSH1 0x0 DUP3 PUSH4 0xFFFFFFFF PUSH2 0xDCA AND JUMP JUMPDEST PUSH1 0x40 MLOAD PUSH1 0x1 PUSH1 0x1 PUSH1 0xA0 SHL SUB DUP3 AND SWAP1 PUSH32 0xE94479A9F7E1952CC78F2D6BAAB678ADC1B772D936C6583DEF489E524CB66692 SWAP1 PUSH1 0x0 SWAP1 LOG2 POP JUMP JUMPDEST PUSH1 0x0 PUSH1 0x1 PUSH1 0x1 PUSH1 0xA0 SHL SUB DUP3 AND PUSH2 0xCA3 JUMPI PUSH1 0x40 MLOAD PUSH3 0x461BCD PUSH1 0xE5 SHL DUP2 MSTORE PUSH1 0x4 ADD PUSH2 0x450 SWAP1 PUSH2 0x1547 JUMP JUMPDEST POP PUSH1 0x1 PUSH1 0x1 PUSH1 0xA0 SHL SUB AND PUSH1 0x0 SWAP1 DUP2 MSTORE PUSH1 0x20 SWAP2 SWAP1 SWAP2 MSTORE PUSH1 0x40 SWAP1 KECCAK256 SLOAD PUSH1 0xFF AND SWAP1 JUMP JUMPDEST PUSH1 0x40 MLOAD PUSH2 0x1901 PUSH1 0xF0 SHL DUP2 MSTORE PUSH1 0x2 DUP2 ADD SWAP3 SWAP1 SWAP3 MSTORE PUSH1 0x22 DUP3 ADD MSTORE PUSH1 0x42 SWAP1 KECCAK256 SWAP1 JUMP JUMPDEST DUP3 PUSH2 0xD37 JUMPI PUSH2 0xCF0 DUP3 PUSH2 0xE12 JUMP JUMPDEST PUSH2 0x1D1 PUSH1 0xF5 SHL PUSH2 0xCFF DUP4 PUSH2 0xE12 JUMP JUMPDEST PUSH1 0x40 MLOAD PUSH1 0x20 ADD PUSH2 0xD11 SWAP4 SWAP3 SWAP2 SWAP1 PUSH2 0x13EA JUMP JUMPDEST PUSH1 0x40 DUP1 MLOAD PUSH1 0x1F NOT DUP2 DUP5 SUB ADD DUP2 MSTORE SWAP1 DUP3 SWAP1 MSTORE PUSH3 0x461BCD PUSH1 0xE5 SHL DUP3 MSTORE PUSH2 0x450 SWAP2 PUSH1 0x4 ADD PUSH2 0x14C6 JUMP JUMPDEST POP POP POP JUMP JUMPDEST PUSH1 0x0 PUSH2 0x9D3 DUP4 DUP4 PUSH1 0x40 MLOAD DUP1 PUSH1 0x40 ADD PUSH1 0x40 MSTORE DUP1 PUSH1 0x1E DUP2 MSTORE PUSH1 0x20 ADD PUSH32 0x536166654D6174683A207375627472616374696F6E206F766572666C6F770000 DUP2 MSTORE POP PUSH2 0x982 JUMP JUMPDEST PUSH2 0xD88 DUP3 DUP3 PUSH2 0xC7B JUMP JUMPDEST ISZERO PUSH2 0xDA5 JUMPI PUSH1 0x40 MLOAD PUSH3 0x461BCD PUSH1 0xE5 SHL DUP2 MSTORE PUSH1 0x4 ADD PUSH2 0x450 SWAP1 PUSH2 0x14E7 JUMP JUMPDEST PUSH1 0x1 PUSH1 0x1 PUSH1 0xA0 SHL SUB AND PUSH1 0x0 SWAP1 DUP2 MSTORE PUSH1 0x20 SWAP2 SWAP1 SWAP2 MSTORE PUSH1 0x40 SWAP1 KECCAK256 DUP1 SLOAD PUSH1 0xFF NOT AND PUSH1 0x1 OR SWAP1 SSTORE JUMP JUMPDEST PUSH2 0xDD4 DUP3 DUP3 PUSH2 0xC7B JUMP JUMPDEST PUSH2 0xDF0 JUMPI PUSH1 0x40 MLOAD PUSH3 0x461BCD PUSH1 0xE5 SHL DUP2 MSTORE PUSH1 0x4 ADD PUSH2 0x450 SWAP1 PUSH2 0x1527 JUMP JUMPDEST PUSH1 0x1 PUSH1 0x1 PUSH1 0xA0 SHL SUB AND PUSH1 0x0 SWAP1 DUP2 MSTORE PUSH1 0x20 SWAP2 SWAP1 SWAP2 MSTORE PUSH1 0x40 SWAP1 KECCAK256 DUP1 SLOAD PUSH1 0xFF NOT AND SWAP1 SSTORE JUMP JUMPDEST PUSH1 0x60 DUP1 DUP3 PUSH1 0x40 MLOAD PUSH1 0x20 ADD PUSH2 0xE26 SWAP2 SWAP1 PUSH2 0x13D5 JUMP JUMPDEST PUSH1 0x40 DUP1 MLOAD PUSH1 0x1F NOT DUP2 DUP5 SUB ADD DUP2 MSTORE SWAP2 SWAP1 MSTORE SWAP1 POP PUSH1 0x20 JUMPDEST DUP1 ISZERO PUSH2 0xE7B JUMPI DUP2 MLOAD PUSH1 0x0 NOT SWAP1 SWAP2 ADD SWAP1 DUP3 SWAP1 DUP3 SWAP1 DUP2 LT PUSH2 0xE56 JUMPI INVALID JUMPDEST ADD PUSH1 0x20 ADD MLOAD PUSH1 0x1 PUSH1 0x1 PUSH1 0xF8 SHL SUB NOT AND ISZERO PUSH2 0xE76 JUMPI PUSH1 0x1 ADD DUP2 MSTORE SWAP1 POP PUSH2 0x491 JUMP JUMPDEST PUSH2 0xE3B JUMP JUMPDEST POP POP PUSH1 0x40 DUP1 MLOAD PUSH1 0x0 DUP2 MSTORE PUSH1 0x20 DUP2 ADD SWAP1 SWAP2 MSTORE SWAP3 SWAP2 POP POP JUMP JUMPDEST DUP1 CALLDATALOAD PUSH2 0x34C DUP2 PUSH2 0x160E JUMP JUMPDEST DUP1 CALLDATALOAD PUSH2 0x34C DUP2 PUSH2 0x1622 JUMP JUMPDEST DUP1 CALLDATALOAD PUSH2 0x34C DUP2 PUSH2 0x162B JUMP JUMPDEST PUSH1 0x0 PUSH1 0x20 DUP3 DUP5 SUB SLT ISZERO PUSH2 0xEC5 JUMPI PUSH1 0x0 DUP1 REVERT JUMPDEST PUSH1 0x0 PUSH2 0xED1 DUP5 DUP5 PUSH2 0xE92 JUMP JUMPDEST SWAP5 SWAP4 POP POP POP POP JUMP JUMPDEST PUSH1 0x0 DUP1 PUSH1 0x40 DUP4 DUP6 SUB SLT ISZERO PUSH2 0xEEC JUMPI PUSH1 0x0 DUP1 REVERT JUMPDEST PUSH1 0x0 PUSH2 0xEF8 DUP6 DUP6 PUSH2 0xE92 JUMP JUMPDEST SWAP3 POP POP PUSH1 0x20 PUSH2 0xF09 DUP6 DUP3 DUP7 ADD PUSH2 0xE92 JUMP JUMPDEST SWAP2 POP POP SWAP3 POP SWAP3 SWAP1 POP JUMP JUMPDEST PUSH1 0x0 DUP1 PUSH1 0x0 PUSH1 0x60 DUP5 DUP7 SUB SLT ISZERO PUSH2 0xF28 JUMPI PUSH1 0x0 DUP1 REVERT JUMPDEST PUSH1 0x0 PUSH2 0xF34 DUP7 DUP7 PUSH2 0xE92 JUMP JUMPDEST SWAP4 POP POP PUSH1 0x20 PUSH2 0xF45 DUP7 DUP3 DUP8 ADD PUSH2 0xE92 JUMP JUMPDEST SWAP3 POP POP PUSH1 0x40 PUSH2 0xF56 DUP7 DUP3 DUP8 ADD PUSH2 0xE9D JUMP JUMPDEST SWAP2 POP POP SWAP3 POP SWAP3 POP SWAP3 JUMP JUMPDEST PUSH1 0x0 DUP1 PUSH1 0x0 DUP1 PUSH1 0x0 DUP1 PUSH1 0x0 PUSH1 0xE0 DUP9 DUP11 SUB SLT ISZERO PUSH2 0xF7B JUMPI PUSH1 0x0 DUP1 REVERT JUMPDEST PUSH1 0x0 PUSH2 0xF87 DUP11 DUP11 PUSH2 0xE92 JUMP JUMPDEST SWAP8 POP POP PUSH1 0x20 PUSH2 0xF98 DUP11 DUP3 DUP12 ADD PUSH2 0xE92 JUMP JUMPDEST SWAP7 POP POP PUSH1 0x40 PUSH2 0xFA9 DUP11 DUP3 DUP12 ADD PUSH2 0xE9D JUMP JUMPDEST SWAP6 POP POP PUSH1 0x60 PUSH2 0xFBA DUP11 DUP3 DUP12 ADD PUSH2 0xE9D JUMP JUMPDEST SWAP5 POP POP PUSH1 0x80 PUSH2 0xFCB DUP11 DUP3 DUP12 ADD PUSH2 0xEA8 JUMP JUMPDEST SWAP4 POP POP PUSH1 0xA0 PUSH2 0xFDC DUP11 DUP3 DUP12 ADD PUSH2 0xE9D JUMP JUMPDEST SWAP3 POP POP PUSH1 0xC0 PUSH2 0xFED DUP11 DUP3 DUP12 ADD PUSH2 0xE9D JUMP JUMPDEST SWAP2 POP POP SWAP3 SWAP6 SWAP9 SWAP2 SWAP5 SWAP8 POP SWAP3 SWAP6 POP JUMP JUMPDEST PUSH1 0x0 DUP1 PUSH1 0x40 DUP4 DUP6 SUB SLT ISZERO PUSH2 0x100F JUMPI PUSH1 0x0 DUP1 REVERT JUMPDEST PUSH1 0x0 PUSH2 0x101B DUP6 DUP6 PUSH2 0xE92 JUMP JUMPDEST SWAP3 POP POP PUSH1 0x20 PUSH2 0xF09 DUP6 DUP3 DUP7 ADD PUSH2 0xE9D JUMP JUMPDEST PUSH1 0x0 PUSH1 0x20 DUP3 DUP5 SUB SLT ISZERO PUSH2 0x103E JUMPI PUSH1 0x0 DUP1 REVERT JUMPDEST PUSH1 0x0 PUSH2 0xED1 DUP5 DUP5 PUSH2 0xE9D JUMP JUMPDEST PUSH2 0x1053 DUP2 PUSH2 0x15A2 JUMP JUMPDEST DUP3 MSTORE POP POP JUMP JUMPDEST PUSH2 0x1053 DUP2 PUSH2 0x15AD JUMP JUMPDEST PUSH2 0x1053 PUSH2 0x106E DUP3 PUSH2 0x15B2 JUMP JUMPDEST PUSH2 0x15BF JUMP JUMPDEST PUSH2 0x1053 DUP2 PUSH2 0x15BF JUMP JUMPDEST PUSH2 0x1053 PUSH2 0x106E DUP3 PUSH2 0x15BF JUMP JUMPDEST PUSH1 0x0 PUSH2 0x1093 DUP3 PUSH2 0x1595 JUMP JUMPDEST PUSH2 0x109D DUP2 DUP6 PUSH2 0x491 JUMP JUMPDEST SWAP4 POP PUSH2 0x10AD DUP2 DUP6 PUSH1 0x20 DUP7 ADD PUSH2 0x15D4 JUMP JUMPDEST SWAP3 SWAP1 SWAP3 ADD SWAP3 SWAP2 POP POP JUMP JUMPDEST PUSH1 0x0 PUSH2 0x10C2 DUP3 PUSH2 0x1595 JUMP JUMPDEST PUSH2 0x10CC DUP2 DUP6 PUSH2 0x1599 JUMP JUMPDEST SWAP4 POP PUSH2 0x10DC DUP2 DUP6 PUSH1 0x20 DUP7 ADD PUSH2 0x15D4 JUMP JUMPDEST PUSH2 0x10E5 DUP2 PUSH2 0x1604 JUMP JUMPDEST SWAP1 SWAP4 ADD SWAP4 SWAP3 POP POP POP JUMP JUMPDEST PUSH1 0x0 PUSH2 0x10FC PUSH1 0x25 DUP4 PUSH2 0x1599 JUMP JUMPDEST PUSH32 0x42455032303A207472616E736665722066726F6D20746865207A65726F206164 DUP2 MSTORE PUSH5 0x6472657373 PUSH1 0xD8 SHL PUSH1 0x20 DUP3 ADD MSTORE PUSH1 0x40 ADD SWAP3 SWAP2 POP POP JUMP JUMPDEST PUSH1 0x0 PUSH2 0x1143 PUSH1 0x1F DUP4 PUSH2 0x1599 JUMP JUMPDEST PUSH32 0x526F6C65733A206163636F756E7420616C72656164792068617320726F6C6500 DUP2 MSTORE PUSH1 0x20 ADD SWAP3 SWAP2 POP POP JUMP JUMPDEST PUSH1 0x0 PUSH2 0x117C PUSH1 0x24 DUP4 PUSH2 0x1599 JUMP JUMPDEST PUSH32 0x42455032303A20617070726F76652066726F6D20746865207A65726F20616464 DUP2 MSTORE PUSH4 0x72657373 PUSH1 0xE0 SHL PUSH1 0x20 DUP3 ADD MSTORE PUSH1 0x40 ADD SWAP3 SWAP2 POP POP JUMP JUMPDEST PUSH1 0x0 PUSH2 0x11C2 PUSH1 0x1B DUP4 PUSH2 0x1599 JUMP JUMPDEST PUSH32 0x536166654D6174683A206164646974696F6E206F766572666C6F770000000000 DUP2 MSTORE PUSH1 0x20 ADD SWAP3 SWAP2 POP POP JUMP JUMPDEST PUSH1 0x0 PUSH2 0x11FB PUSH1 0x30 DUP4 PUSH2 0x1599 JUMP JUMPDEST PUSH32 0x4D696E746572526F6C653A2063616C6C657220646F6573206E6F742068617665 DUP2 MSTORE PUSH16 0x20746865204D696E74657220726F6C65 PUSH1 0x80 SHL PUSH1 0x20 DUP3 ADD MSTORE PUSH1 0x40 ADD SWAP3 SWAP2 POP POP JUMP JUMPDEST PUSH1 0x0 PUSH2 0x124D PUSH1 0x21 DUP4 PUSH2 0x1599 JUMP JUMPDEST PUSH32 0x526F6C65733A206163636F756E7420646F6573206E6F74206861766520726F6C DUP2 MSTORE PUSH1 0x65 PUSH1 0xF8 SHL PUSH1 0x20 DUP3 ADD MSTORE PUSH1 0x40 ADD SWAP3 SWAP2 POP POP JUMP JUMPDEST PUSH1 0x0 PUSH2 0x1290 PUSH1 0x1F DUP4 PUSH2 0x1599 JUMP JUMPDEST PUSH32 0x42455032303A206D696E7420746F20746865207A65726F206164647265737300 DUP2 MSTORE PUSH1 0x20 ADD SWAP3 SWAP2 POP POP JUMP JUMPDEST PUSH1 0x0 PUSH2 0x12C9 PUSH1 0x22 DUP4 PUSH2 0x1599 JUMP JUMPDEST PUSH32 0x526F6C65733A206163636F756E7420697320746865207A65726F206164647265 DUP2 MSTORE PUSH2 0x7373 PUSH1 0xF0 SHL PUSH1 0x20 DUP3 ADD MSTORE PUSH1 0x40 ADD SWAP3 SWAP2 POP POP JUMP JUMPDEST PUSH1 0x0 PUSH2 0x130D PUSH1 0x23 DUP4 PUSH2 0x1599 JUMP JUMPDEST PUSH32 0x42455032303A207472616E7366657220746F20746865207A65726F2061646472 DUP2 MSTORE PUSH3 0x657373 PUSH1 0xE8 SHL PUSH1 0x20 DUP3 ADD MSTORE PUSH1 0x40 ADD SWAP3 SWAP2 POP POP JUMP JUMPDEST PUSH1 0x0 PUSH2 0x1352 PUSH1 0x21 DUP4 PUSH2 0x1599 JUMP JUMPDEST PUSH32 0x42455032303A206275726E2066726F6D20746865207A65726F20616464726573 DUP2 MSTORE PUSH1 0x73 PUSH1 0xF8 SHL PUSH1 0x20 DUP3 ADD MSTORE PUSH1 0x40 ADD SWAP3 SWAP2 POP POP JUMP JUMPDEST PUSH1 0x0 PUSH2 0x1395 PUSH1 0x22 DUP4 PUSH2 0x1599 JUMP JUMPDEST PUSH32 0x42455032303A20617070726F766520746F20746865207A65726F206164647265 DUP2 MSTORE PUSH2 0x7373 PUSH1 0xF0 SHL PUSH1 0x20 DUP3 ADD MSTORE PUSH1 0x40 ADD SWAP3 SWAP2 POP POP JUMP JUMPDEST PUSH2 0x1053 DUP2 PUSH2 0x15CE JUMP JUMPDEST PUSH1 0x0 PUSH2 0x13E1 DUP3 DUP5 PUSH2 0x107C JUMP JUMPDEST POP PUSH1 0x20 ADD SWAP2 SWAP1 POP JUMP JUMPDEST PUSH1 0x0 PUSH2 0x13F6 DUP3 DUP7 PUSH2 0x1088 JUMP JUMPDEST SWAP2 POP PUSH2 0x1402 DUP3 DUP6 PUSH2 0x1062 JUMP JUMPDEST PUSH1 0x2 DUP3 ADD SWAP2 POP PUSH2 0x1412 DUP3 DUP5 PUSH2 0x1088 JUMP JUMPDEST SWAP6 SWAP5 POP POP POP POP POP JUMP JUMPDEST PUSH1 0x20 DUP2 ADD PUSH2 0x34C DUP3 DUP5 PUSH2 0x1059 JUMP JUMPDEST PUSH1 0x20 DUP2 ADD PUSH2 0x34C DUP3 DUP5 PUSH2 0x1073 JUMP JUMPDEST PUSH1 0xC0 DUP2 ADD PUSH2 0x1445 DUP3 DUP10 PUSH2 0x1073 JUMP JUMPDEST PUSH2 0x1452 PUSH1 0x20 DUP4 ADD DUP9 PUSH2 0x104A JUMP JUMPDEST PUSH2 0x145F PUSH1 0x40 DUP4 ADD DUP8 PUSH2 0x104A JUMP JUMPDEST PUSH2 0x146C PUSH1 0x60 DUP4 ADD DUP7 PUSH2 0x1073 JUMP JUMPDEST PUSH2 0x1479 PUSH1 0x80 DUP4 ADD DUP6 PUSH2 0x1073 JUMP JUMPDEST PUSH2 0x1486 PUSH1 0xA0 DUP4 ADD DUP5 PUSH2 0x1073 JUMP JUMPDEST SWAP8 SWAP7 POP POP POP POP POP POP POP JUMP JUMPDEST PUSH1 0x80 DUP2 ADD PUSH2 0x149F DUP3 DUP8 PUSH2 0x1073 JUMP JUMPDEST PUSH2 0x14AC PUSH1 0x20 DUP4 ADD DUP7 PUSH2 0x13CC JUMP JUMPDEST PUSH2 0x14B9 PUSH1 0x40 DUP4 ADD DUP6 PUSH2 0x1073 JUMP JUMPDEST PUSH2 0x1412 PUSH1 0x60 DUP4 ADD DUP5 PUSH2 0x1073 JUMP JUMPDEST PUSH1 0x20 DUP1 DUP3 MSTORE DUP2 ADD PUSH2 0x9D3 DUP2 DUP5 PUSH2 0x10B7 JUMP JUMPDEST PUSH1 0x20 DUP1 DUP3 MSTORE DUP2 ADD PUSH2 0x34C DUP2 PUSH2 0x10EF JUMP JUMPDEST PUSH1 0x20 DUP1 DUP3 MSTORE DUP2 ADD PUSH2 0x34C DUP2 PUSH2 0x1136 JUMP JUMPDEST PUSH1 0x20 DUP1 DUP3 MSTORE DUP2 ADD PUSH2 0x34C DUP2 PUSH2 0x116F JUMP JUMPDEST PUSH1 0x20 DUP1 DUP3 MSTORE DUP2 ADD PUSH2 0x34C DUP2 PUSH2 0x11B5 JUMP JUMPDEST PUSH1 0x20 DUP1 DUP3 MSTORE DUP2 ADD PUSH2 0x34C DUP2 PUSH2 0x11EE JUMP JUMPDEST PUSH1 0x20 DUP1 DUP3 MSTORE DUP2 ADD PUSH2 0x34C DUP2 PUSH2 0x1240 JUMP JUMPDEST PUSH1 0x20 DUP1 DUP3 MSTORE DUP2 ADD PUSH2 0x34C DUP2 PUSH2 0x1283 JUMP JUMPDEST PUSH1 0x20 DUP1 DUP3 MSTORE DUP2 ADD PUSH2 0x34C DUP2 PUSH2 0x12BC JUMP JUMPDEST PUSH1 0x20 DUP1 DUP3 MSTORE DUP2 ADD PUSH2 0x34C DUP2 PUSH2 0x1300 JUMP JUMPDEST PUSH1 0x20 DUP1 DUP3 MSTORE DUP2 ADD PUSH2 0x34C DUP2 PUSH2 0x1345 JUMP JUMPDEST PUSH1 0x20 DUP1 DUP3 MSTORE DUP2 ADD PUSH2 0x34C DUP2 PUSH2 0x1388 JUMP JUMPDEST PUSH1 0x20 DUP2 ADD PUSH2 0x34C DUP3 DUP5 PUSH2 0x13CC JUMP JUMPDEST MLOAD SWAP1 JUMP JUMPDEST SWAP1 DUP2 MSTORE PUSH1 0x20 ADD SWAP1 JUMP JUMPDEST PUSH1 0x0 PUSH2 0x34C DUP3 PUSH2 0x15C2 JUMP JUMPDEST ISZERO ISZERO SWAP1 JUMP JUMPDEST PUSH1 0x1 PUSH1 0x1 PUSH1 0xF0 SHL SUB NOT AND SWAP1 JUMP JUMPDEST SWAP1 JUMP JUMPDEST PUSH1 0x1 PUSH1 0x1 PUSH1 0xA0 SHL SUB AND SWAP1 JUMP JUMPDEST PUSH1 0xFF AND SWAP1 JUMP JUMPDEST PUSH1 0x0 JUMPDEST DUP4 DUP2 LT ISZERO PUSH2 0x15EF JUMPI DUP2 DUP2 ADD MLOAD DUP4 DUP3 ADD MSTORE PUSH1 0x20 ADD PUSH2 0x15D7 JUMP JUMPDEST DUP4 DUP2 GT ISZERO PUSH2 0x15FE JUMPI PUSH1 0x0 DUP5 DUP5 ADD MSTORE JUMPDEST POP POP POP POP JUMP JUMPDEST PUSH1 0x1F ADD PUSH1 0x1F NOT AND SWAP1 JUMP JUMPDEST PUSH2 0x1617 DUP2 PUSH2 0x15A2 JUMP JUMPDEST DUP2 EQ PUSH2 0x474 JUMPI PUSH1 0x0 DUP1 REVERT JUMPDEST PUSH2 0x1617 DUP2 PUSH2 0x15BF JUMP JUMPDEST PUSH2 0x1617 DUP2 PUSH2 0x15CE JUMP JUMPDEST PUSH1 0x38 SWAP1 JUMP JUMPDEST DUP4 MLOAD PUSH1 0x20 SWAP5 DUP6 ADD KECCAK256 DUP4 MLOAD SWAP4 DUP6 ADD SWAP4 SWAP1 SWAP4 KECCAK256 PUSH1 0x40 DUP1 MLOAD PUSH32 0x8B73C3C69BB8FE3D512ECC4CF759CC79239F7B179B0FFACAA9A75D522B39400F DUP2 MSTORE SWAP6 DUP7 ADD SWAP5 SWAP1 SWAP5 MSTORE SWAP3 DUP5 ADD SWAP3 SWAP1 SWAP3 MSTORE PUSH1 0x60 DUP4 ADD MSTORE PUSH1 0x80 DUP3 ADD MSTORE PUSH1 0xA0 SWAP1 KECCAK256 SWAP1 JUMP INVALID TIMESTAMP GASLIMIT POP ORIGIN ADDRESS GASPRICE KECCAK256 PUSH21 0x72616E7366657220616D6F756E7420657863656564 PUSH20 0x2062616C616E636542455032303A206465637265 PUSH2 0x7365 PUSH5 0x20616C6C6F PUSH24 0x616E63652062656C6F77207A65726F446F6C6C61723A2074 PUSH19 0x616E7366657220616D6F756E74206578636565 PUSH5 0x7320616C6C PUSH16 0x77616E636542455032303A206275726E KECCAK256 PUSH2 0x6D6F PUSH22 0x6E7420657863656564732062616C616E636542455032 ADDRESS GASPRICE KECCAK256 PUSH3 0x75726E KECCAK256 PUSH2 0x6D6F PUSH22 0x6E74206578636565647320616C6C6F77616E6365A365 PUSH3 0x7A7A72 BALANCE PC KECCAK256 0xE9 0xC5 SELFBALANCE MUL PUSH12 0x6126CD1610441C447410706B JUMP RETURNDATASIZE JUMP 0xC3 PUSH28 0xAEA9DF2169BC73ED95146C6578706572696D656E74616CF564736F6C PUSH4 0x43000511 STOP BLOCKHASH LOG3 PUSH6 0x627A7A723158 KECCAK256 0x2A TIMESTAMP SIGNEXTEND 0xD5 DUP16 0xDD DUP3 PUSH10 0x748A51C5496A4C247207 ORIGIN 0x5F 0xC CHAINID 0xCE 0xD LOG3 0xB9 PUSH16 0xF1AE3FC6A96C6578706572696D656E74 PUSH2 0x6CF5 PUSH5 0x736F6C6343 STOP SDIV GT STOP BLOCKHASH "
		},
		"gasEstimates": {
			"creation": {
				"codeDepositCost": "2513600",
				"executionCost": "2710",
				"totalCost": "2516310"
			},
			"external": {
				"allowance(address,address)": "infinite",
				"allowanceCoupons(address,address)": "infinite",
				"approve(address,uint256)": "infinite",
				"approveFor(address)": "infinite",
				"balanceOf(address)": "infinite",
				"balanceOfBonded(address)": "infinite",
				"balanceOfCoupons(address,uint256)": "infinite",
				"balanceOfStaged(address)": "infinite",
				"bootstrappingAt(uint256)": "infinite",
				"couponsExpiration(uint256)": "infinite",
				"decimals()": "417",
				"dollar()": "infinite",
				"epoch()": "1144",
				"epochTime()": "infinite",
				"expiringCoupons(uint256)": "infinite",
				"expiringCouponsAtIndex(uint256,uint256)": "infinite",
				"implement(address)": "infinite",
				"implementation()": "infinite",
				"initialize()": "infinite",
				"isInitialized(address)": "infinite",
				"isNominated(address)": "infinite",
				"name()": "infinite",
				"oracle()": "infinite",
				"outstandingCoupons(uint256)": "infinite",
				"periodFor(address)": "infinite",
				"pool()": "infinite",
				"recordedVote(address,address)": "infinite",
				"rejectFor(address)": "infinite",
				"startFor(address)": "infinite",
				"statusOf(address)": "infinite",
				"symbol()": "infinite",
				"totalBonded()": "1189",
				"totalBondedAt(uint256)": "infinite",
				"totalCoupons()": "1210",
				"totalDebt()": "1231",
				"totalNet()": "infinite",
				"totalRedeemable()": "1167",
				"totalStaged()": "1143",
				"totalSupply()": "1145",
				"transfer(address,uint256)": "infinite",
				"transferFrom(address,address,uint256)": "infinite",
				"votesFor(address)": "infinite"
			}
		},
		"methodIdentifiers": {
			"allowance(address,address)": "dd62ed3e",
			"allowanceCoupons(address,address)": "9f6e1b26",
			"approve(address,uint256)": "095ea7b3",
			"approveFor(address)": "64668022",
			"balanceOf(address)": "70a08231",
			"balanceOfBonded(address)": "825ad607",
			"balanceOfCoupons(address,uint256)": "bc7513e2",
			"balanceOfStaged(address)": "86cf9f14",
			"bootstrappingAt(uint256)": "75d5024b",
			"couponsExpiration(uint256)": "10e95b6c",
			"decimals()": "313ce567",
			"dollar()": "51adeb57",
			"epoch()": "900cf0cf",
			"epochTime()": "5053e461",
			"expiringCoupons(uint256)": "6a39e328",
			"expiringCouponsAtIndex(uint256,uint256)": "4c736099",
			"implement(address)": "4a960261",
			"implementation()": "5c60da1b",
			"initialize()": "8129fc1c",
			"isInitialized(address)": "d60b347f",
			"isNominated(address)": "3a3e6c81",
			"name()": "06fdde03",
			"oracle()": "7dc0d1d0",
			"outstandingCoupons(uint256)": "c9aff70c",
			"periodFor(address)": "15e14bf6",
			"pool()": "16f0115b",
			"recordedVote(address,address)": "3fbba9a6",
			"rejectFor(address)": "353a420c",
			"startFor(address)": "f1b7cf49",
			"statusOf(address)": "97a5d5b5",
			"symbol()": "95d89b41",
			"totalBonded()": "44d96e95",
			"totalBondedAt(uint256)": "ffbe3b73",
			"totalCoupons()": "9a649edc",
			"totalDebt()": "fc7b9c18",
			"totalNet()": "a6c409f1",
			"totalRedeemable()": "1edbcf6c",
			"totalStaged()": "cf023779",
			"totalSupply()": "18160ddd",
			"transfer(address,uint256)": "a9059cbb",
			"transferFrom(address,address,uint256)": "23b872dd",
			"votesFor(address)": "a50cd8e7"
		}
	},
	"abi": [
		{
			"anonymous": false,
			"inputs": [
				{
					"indexed": true,
					"internalType": "address",
					"name": "from",
					"type": "address"
				},
				{
					"indexed": true,
					"internalType": "address",
					"name": "to",
					"type": "address"
				},
				{
					"indexed": false,
					"internalType": "uint256",
					"name": "value",
					"type": "uint256"
				}
			],
			"name": "Transfer",
			"type": "event"
		},
		{
			"anonymous": false,
			"inputs": [
				{
					"indexed": true,
					"internalType": "address",
					"name": "implementation",
					"type": "address"
				}
			],
			"name": "Upgraded",
			"type": "event"
		},
		{
			"constant": true,
			"inputs": [
				{
					"internalType": "address",
					"name": "owner",
					"type": "address"
				},
				{
					"internalType": "address",
					"name": "spender",
					"type": "address"
				}
			],
			"name": "allowance",
			"outputs": [
				{
					"internalType": "uint256",
					"name": "",
					"type": "uint256"
				}
			],
			"payable": false,
			"stateMutability": "view",
			"type": "function"
		},
		{
			"constant": true,
			"inputs": [
				{
					"internalType": "address",
					"name": "owner",
					"type": "address"
				},
				{
					"internalType": "address",
					"name": "spender",
					"type": "address"
				}
			],
			"name": "allowanceCoupons",
			"outputs": [
				{
					"internalType": "uint256",
					"name": "",
					"type": "uint256"
				}
			],
			"payable": false,
			"stateMutability": "view",
			"type": "function"
		},
		{
			"constant": false,
			"inputs": [
				{
					"internalType": "address",
					"name": "spender",
					"type": "address"
				},
				{
					"internalType": "uint256",
					"name": "amount",
					"type": "uint256"
				}
			],
			"name": "approve",
			"outputs": [
				{
					"internalType": "bool",
					"name": "",
					"type": "bool"
				}
			],
			"payable": false,
			"stateMutability": "nonpayable",
			"type": "function"
		},
		{
			"constant": true,
			"inputs": [
				{
					"internalType": "address",
					"name": "candidate",
					"type": "address"
				}
			],
			"name": "approveFor",
			"outputs": [
				{
					"internalType": "uint256",
					"name": "",
					"type": "uint256"
				}
			],
			"payable": false,
			"stateMutability": "view",
			"type": "function"
		},
		{
			"constant": true,
			"inputs": [
				{
					"internalType": "address",
					"name": "account",
					"type": "address"
				}
			],
			"name": "balanceOf",
			"outputs": [
				{
					"internalType": "uint256",
					"name": "",
					"type": "uint256"
				}
			],
			"payable": false,
			"stateMutability": "view",
			"type": "function"
		},
		{
			"constant": true,
			"inputs": [
				{
					"internalType": "address",
					"name": "account",
					"type": "address"
				}
			],
			"name": "balanceOfBonded",
			"outputs": [
				{
					"internalType": "uint256",
					"name": "",
					"type": "uint256"
				}
			],
			"payable": false,
			"stateMutability": "view",
			"type": "function"
		},
		{
			"constant": true,
			"inputs": [
				{
					"internalType": "address",
					"name": "account",
					"type": "address"
				},
				{
					"internalType": "uint256",
					"name": "epoch",
					"type": "uint256"
				}
			],
			"name": "balanceOfCoupons",
			"outputs": [
				{
					"internalType": "uint256",
					"name": "",
					"type": "uint256"
				}
			],
			"payable": false,
			"stateMutability": "view",
			"type": "function"
		},
		{
			"constant": true,
			"inputs": [
				{
					"internalType": "address",
					"name": "account",
					"type": "address"
				}
			],
			"name": "balanceOfStaged",
			"outputs": [
				{
					"internalType": "uint256",
					"name": "",
					"type": "uint256"
				}
			],
			"payable": false,
			"stateMutability": "view",
			"type": "function"
		},
		{
			"constant": true,
			"inputs": [
				{
					"internalType": "uint256",
					"name": "epoch",
					"type": "uint256"
				}
			],
			"name": "bootstrappingAt",
			"outputs": [
				{
					"internalType": "bool",
					"name": "",
					"type": "bool"
				}
			],
			"payable": false,
			"stateMutability": "view",
			"type": "function"
		},
		{
			"constant": true,
			"inputs": [
				{
					"internalType": "uint256",
					"name": "epoch",
					"type": "uint256"
				}
			],
			"name": "couponsExpiration",
			"outputs": [
				{
					"internalType": "uint256",
					"name": "",
					"type": "uint256"
				}
			],
			"payable": false,
			"stateMutability": "view",
			"type": "function"
		},
		{
			"constant": true,
			"inputs": [],
			"name": "decimals",
			"outputs": [
				{
					"internalType": "uint8",
					"name": "",
					"type": "uint8"
				}
			],
			"payable": false,
			"stateMutability": "view",
			"type": "function"
		},
		{
			"constant": true,
			"inputs": [],
			"name": "dollar",
			"outputs": [
				{
					"internalType": "contract IDollar",
					"name": "",
					"type": "address"
				}
			],
			"payable": false,
			"stateMutability": "view",
			"type": "function"
		},
		{
			"constant": true,
			"inputs": [],
			"name": "epoch",
			"outputs": [
				{
					"internalType": "uint256",
					"name": "",
					"type": "uint256"
				}
			],
			"payable": false,
			"stateMutability": "view",
			"type": "function"
		},
		{
			"constant": true,
			"inputs": [],
			"name": "epochTime",
			"outputs": [
				{
					"internalType": "uint256",
					"name": "",
					"type": "uint256"
				}
			],
			"payable": false,
			"stateMutability": "view",
			"type": "function"
		},
		{
			"constant": true,
			"inputs": [
				{
					"internalType": "uint256",
					"name": "epoch",
					"type": "uint256"
				}
			],
			"name": "expiringCoupons",
			"outputs": [
				{
					"internalType": "uint256",
					"name": "",
					"type": "uint256"
				}
			],
			"payable": false,
			"stateMutability": "view",
			"type": "function"
		},
		{
			"constant": true,
			"inputs": [
				{
					"internalType": "uint256",
					"name": "epoch",
					"type": "uint256"
				},
				{
					"internalType": "uint256",
					"name": "i",
					"type": "uint256"
				}
			],
			"name": "expiringCouponsAtIndex",
			"outputs": [
				{
					"internalType": "uint256",
					"name": "",
					"type": "uint256"
				}
			],
			"payable": false,
			"stateMutability": "view",
			"type": "function"
		},
		{
			"constant": false,
			"inputs": [
				{
					"internalType": "address",
					"name": "implementation",
					"type": "address"
				}
			],
			"name": "implement",
			"outputs": [],
			"payable": false,
			"stateMutability": "nonpayable",
			"type": "function"
		},
		{
			"constant": true,
			"inputs": [],
			"name": "implementation",
			"outputs": [
				{
					"internalType": "address",
					"name": "impl",
					"type": "address"
				}
			],
			"payable": false,
			"stateMutability": "view",
			"type": "function"
		},
		{
			"constant": false,
			"inputs": [],
			"name": "initialize",
			"outputs": [],
			"payable": false,
			"stateMutability": "nonpayable",
			"type": "function"
		},
		{
			"constant": true,
			"inputs": [
				{
					"internalType": "address",
					"name": "candidate",
					"type": "address"
				}
			],
			"name": "isInitialized",
			"outputs": [
				{
					"internalType": "bool",
					"name": "",
					"type": "bool"
				}
			],
			"payable": false,
			"stateMutability": "view",
			"type": "function"
		},
		{
			"constant": true,
			"inputs": [
				{
					"internalType": "address",
					"name": "candidate",
					"type": "address"
				}
			],
			"name": "isNominated",
			"outputs": [
				{
					"internalType": "bool",
					"name": "",
					"type": "bool"
				}
			],
			"payable": false,
			"stateMutability": "view",
			"type": "function"
		},
		{
			"constant": true,
			"inputs": [],
			"name": "name",
			"outputs": [
				{
					"internalType": "string",
					"name": "",
					"type": "string"
				}
			],
			"payable": false,
			"stateMutability": "view",
			"type": "function"
		},
		{
			"constant": true,
			"inputs": [],
			"name": "oracle",
			"outputs": [
				{
					"internalType": "contract IOracle",
					"name": "",
					"type": "address"
				}
			],
			"payable": false,
			"stateMutability": "view",
			"type": "function"
		},
		{
			"constant": true,
			"inputs": [
				{
					"internalType": "uint256",
					"name": "epoch",
					"type": "uint256"
				}
			],
			"name": "outstandingCoupons",
			"outputs": [
				{
					"internalType": "uint256",
					"name": "",
					"type": "uint256"
				}
			],
			"payable": false,
			"stateMutability": "view",
			"type": "function"
		},
		{
			"constant": true,
			"inputs": [
				{
					"internalType": "address",
					"name": "candidate",
					"type": "address"
				}
			],
			"name": "periodFor",
			"outputs": [
				{
					"internalType": "uint256",
					"name": "",
					"type": "uint256"
				}
			],
			"payable": false,
			"stateMutability": "view",
			"type": "function"
		},
		{
			"constant": true,
			"inputs": [],
			"name": "pool",
			"outputs": [
				{
					"internalType": "address",
					"name": "",
					"type": "address"
				}
			],
			"payable": false,
			"stateMutability": "view",
			"type": "function"
		},
		{
			"constant": true,
			"inputs": [
				{
					"internalType": "address",
					"name": "account",
					"type": "address"
				},
				{
					"internalType": "address",
					"name": "candidate",
					"type": "address"
				}
			],
			"name": "recordedVote",
			"outputs": [
				{
					"internalType": "enum Candidate.Vote",
					"name": "",
					"type": "uint8"
				}
			],
			"payable": false,
			"stateMutability": "view",
			"type": "function"
		},
		{
			"constant": true,
			"inputs": [
				{
					"internalType": "address",
					"name": "candidate",
					"type": "address"
				}
			],
			"name": "rejectFor",
			"outputs": [
				{
					"internalType": "uint256",
					"name": "",
					"type": "uint256"
				}
			],
			"payable": false,
			"stateMutability": "view",
			"type": "function"
		},
		{
			"constant": true,
			"inputs": [
				{
					"internalType": "address",
					"name": "candidate",
					"type": "address"
				}
			],
			"name": "startFor",
			"outputs": [
				{
					"internalType": "uint256",
					"name": "",
					"type": "uint256"
				}
			],
			"payable": false,
			"stateMutability": "view",
			"type": "function"
		},
		{
			"constant": true,
			"inputs": [
				{
					"internalType": "address",
					"name": "account",
					"type": "address"
				}
			],
			"name": "statusOf",
			"outputs": [
				{
					"internalType": "enum Account.Status",
					"name": "",
					"type": "uint8"
				}
			],
			"payable": false,
			"stateMutability": "view",
			"type": "function"
		},
		{
			"constant": true,
			"inputs": [],
			"name": "symbol",
			"outputs": [
				{
					"internalType": "string",
					"name": "",
					"type": "string"
				}
			],
			"payable": false,
			"stateMutability": "view",
			"type": "function"
		},
		{
			"constant": true,
			"inputs": [],
			"name": "totalBonded",
			"outputs": [
				{
					"internalType": "uint256",
					"name": "",
					"type": "uint256"
				}
			],
			"payable": false,
			"stateMutability": "view",
			"type": "function"
		},
		{
			"constant": true,
			"inputs": [
				{
					"internalType": "uint256",
					"name": "epoch",
					"type": "uint256"
				}
			],
			"name": "totalBondedAt",
			"outputs": [
				{
					"internalType": "uint256",
					"name": "",
					"type": "uint256"
				}
			],
			"payable": false,
			"stateMutability": "view",
			"type": "function"
		},
		{
			"constant": true,
			"inputs": [],
			"name": "totalCoupons",
			"outputs": [
				{
					"internalType": "uint256",
					"name": "",
					"type": "uint256"
				}
			],
			"payable": false,
			"stateMutability": "view",
			"type": "function"
		},
		{
			"constant": true,
			"inputs": [],
			"name": "totalDebt",
			"outputs": [
				{
					"internalType": "uint256",
					"name": "",
					"type": "uint256"
				}
			],
			"payable": false,
			"stateMutability": "view",
			"type": "function"
		},
		{
			"constant": true,
			"inputs": [],
			"name": "totalNet",
			"outputs": [
				{
					"internalType": "uint256",
					"name": "",
					"type": "uint256"
				}
			],
			"payable": false,
			"stateMutability": "view",
			"type": "function"
		},
		{
			"constant": true,
			"inputs": [],
			"name": "totalRedeemable",
			"outputs": [
				{
					"internalType": "uint256",
					"name": "",
					"type": "uint256"
				}
			],
			"payable": false,
			"stateMutability": "view",
			"type": "function"
		},
		{
			"constant": true,
			"inputs": [],
			"name": "totalStaged",
			"outputs": [
				{
					"internalType": "uint256",
					"name": "",
					"type": "uint256"
				}
			],
			"payable": false,
			"stateMutability": "view",
			"type": "function"
		},
		{
			"constant": true,
			"inputs": [],
			"name": "totalSupply",
			"outputs": [
				{
					"internalType": "uint256",
					"name": "",
					"type": "uint256"
				}
			],
			"payable": false,
			"stateMutability": "view",
			"type": "function"
		},
		{
			"constant": false,
			"inputs": [
				{
					"internalType": "address",
					"name": "recipient",
					"type": "address"
				},
				{
					"internalType": "uint256",
					"name": "amount",
					"type": "uint256"
				}
			],
			"name": "transfer",
			"outputs": [
				{
					"internalType": "bool",
					"name": "",
					"type": "bool"
				}
			],
			"payable": false,
			"stateMutability": "nonpayable",
			"type": "function"
		},
		{
			"constant": false,
			"inputs": [
				{
					"internalType": "address",
					"name": "sender",
					"type": "address"
				},
				{
					"internalType": "address",
					"name": "recipient",
					"type": "address"
				},
				{
					"internalType": "uint256",
					"name": "amount",
					"type": "uint256"
				}
			],
			"name": "transferFrom",
			"outputs": [
				{
					"internalType": "bool",
					"name": "",
					"type": "bool"
				}
			],
			"payable": false,
			"stateMutability": "nonpayable",
			"type": "function"
		},
		{
			"constant": true,
			"inputs": [
				{
					"internalType": "address",
					"name": "candidate",
					"type": "address"
				}
			],
			"name": "votesFor",
			"outputs": [
				{
					"internalType": "uint256",
					"name": "",
					"type": "uint256"
				}
			],
			"payable": false,
			"stateMutability": "view",
			"type": "function"
		}
	]
}