{
	"data": {
		"bytecode": {
			"linkReferences": {},
			"object": "608060405234801561001057600080fd5b506126cd806100206000396000f3fe60806040523480156200001157600080fd5b5060043610620002985760003560e01c806375d5024b1162000165578063a50cd8e711620000d5578063cf0237791162000093578063cf0237791462000573578063d60b347f146200057d578063dd62ed3e1462000594578063f1b7cf4914620005a5578063fc7b9c1814620005bc578063ffbe3b7314620005c65762000298565b8063a50cd8e71462000524578063a6c409f1146200053b578063a9059cbb14620002bf578063bc7513e21462000545578063c9aff70c146200055c5762000298565b8063900cf0cf1162000123578063900cf0cf14620004d857806395d89b4114620004e257806397a5d5b514620004ec5780639a649edc14620005035780639f6e1b26146200050d5762000298565b806375d5024b146200047f5780637dc0d1d014620004965780638129fc1c14620004a0578063825ad60714620004aa57806386cf9f1414620004c15762000298565b80633a3e6c81116200020d5780635053e46111620001cb5780635053e461146200040d57806351adeb5714620004175780635c60da1b146200043057806364668022146200043a5780636a39e328146200045157806370a0823114620004685762000298565b80633a3e6c8114620003965780633fbba9a614620003ad57806344d96e9514620003d35780634a96026114620003dd5780634c73609914620003f65762000298565b806318160ddd116200025b57806318160ddd146200033b5780631edbcf6c146200034557806323b872dd146200034f578063313ce5671462000366578063353a420c146200037f5762000298565b806306fdde03146200029d578063095ea7b314620002bf57806310e95b6c14620002e557806315e14bf6146200030b57806316f0115b1462000322575b600080fd5b620002a7620005dd565b604051620002b69190620013fd565b60405180910390f35b620002d6620002d036600462001106565b62000614565b604051620002b69190620013cd565b620002fc620002f63660046200113b565b6200061d565b604051620002b6919062001446565b620002fc6200031c3660046200104a565b62000635565b6200032c62000653565b604051620002b69190620013bd565b620002fc62000662565b620002fc62000668565b620002d662000360366004620010b2565b6200066e565b6200037062000677565b604051620002b6919062001456565b620002fc620003903660046200104a565b6200067c565b620002d6620003a73660046200104a565b6200069a565b620003c4620003be36600462001073565b620006b7565b604051620002b69190620013ed565b620002fc620006ea565b620003f4620003ee3660046200104a565b620006f0565b005b620002fc620004073660046200117d565b620006fe565b620002fc6200072f565b6200042162000758565b604051620002b69190620013dd565b6200032c62000767565b620002fc6200044b3660046200104a565b6200078c565b620002fc620004623660046200113b565b620007aa565b620002fc620004793660046200104a565b620007bf565b620002d6620004903660046200113b565b620007dd565b62000421620007f2565b620003f462000801565b620002fc620004bb3660046200104a565b62000915565b620002fc620004d23660046200104a565b62000974565b620002fc6200098f565b620002a762000995565b620003c4620004fd3660046200104a565b620009b4565b620002fc62000a21565b620002fc6200051e36600462001073565b62000a27565b620002fc620005353660046200104a565b62000a56565b620002fc62000a7f565b620002fc6200055636600462001106565b62000b1f565b620002fc6200056d3660046200113b565b62000b67565b620002fc62000b7c565b620002d66200058e3660046200104a565b62000b82565b620002fc620002d036600462001073565b620002fc620005b63660046200104a565b62000ba3565b620002fc62000bbe565b620002fc620005d73660046200113b565b62000bc4565b60408051808201909152601e81527f42696e616e6365204167696c652053657420446f6c6c6172205374616b650000602082015290565b60005b92915050565b6000818152600d60205260409020600201545b919050565b6001600160a01b03166000908152600e602052604090206001015490565b600b546001600160a01b031690565b60035490565b60065490565b60009392505050565b601290565b6001600160a01b03166000908152600e602052604090206003015490565b6001600160a01b03166000908152600e6020526040902054151590565b6001600160a01b038082166000908152600e60209081526040808320938616835260049093019052205460ff1692915050565b60045490565b620006fb8162000bd6565b50565b6000828152600d602052604081206003018054839081106200071c57fe5b9060005260206000200154905092915050565b60006200073b62000ff4565b6200074562000cd4565b9050620007528162000d05565b91505090565b6009546001600160a01b031690565b7f360894a13ba1a3210667c828492db98dca3e2076cc3735a920a3ca505d382bbc5490565b6001600160a01b03166000908152600e602052604090206002015490565b6000908152600d602052604090206003015490565b6001600160a01b03166000908152600c602052604090206001015490565b6000620007e962000d2c565b90911115919050565b600a546001600160a01b031690565b6200083f620008136200058e62000767565b15692832b936b4b9b9b4b7b760b11b72105b1c9958591e481a5b9a5d1a585b1a5e9959606a1b62000d31565b620008536200084d62000767565b62000d94565b6200085d62000758565b6040516200086b9062001015565b620008779190620013bd565b604051809103906000f08015801562000894573d6000803e3d6000fd5b50600a80546001600160a01b0319166001600160a01b0392909216919091179055620008bf620007f2565b6001600160a01b031663ba0bba406040518163ffffffff1660e01b8152600401600060405180830381600087803b158015620008fa57600080fd5b505af11580156200090f573d6000803e3d6000fd5b50505050565b6000806200092262000662565b9050806200093557600091505062000630565b6200096d81620009606200094986620007bf565b62000953620006ea565b9063ffffffff62000dbb16565b9063ffffffff62000dfb16565b9392505050565b6001600160a01b03166000908152600c602052604090205490565b60025490565b604080518082019091526005815264424153445360d81b602082015290565b6000620009c06200098f565b6001600160a01b0383166000908152600c60205260409020600501541115620009ec5750600262000630565b6001600160a01b0382166000908152600c602052604090206004015462000a126200098f565b10156200061457600162000617565b60085490565b6001600160a01b039182166000908152600c602090815260408083209390941682526003909201909152205490565b60006200061762000a67836200067c565b62000a72846200078c565b9063ffffffff62000e3f16565b600062000b1a62000a8f62000bbe565b62000a9962000758565b6001600160a01b03166318160ddd6040518163ffffffff1660e01b815260040160206040518083038186803b15801562000ad257600080fd5b505afa15801562000ae7573d6000803e3d6000fd5b505050506040513d601f19601f8201168201806040525062000b0d91908101906200115c565b9063ffffffff62000e6716565b905090565b600062000b2c8262000b67565b62000b3a5750600062000617565b506001600160a01b03919091166000908152600c6020908152604080832093835260029093019052205490565b6000908152600d602052604090206001015490565b60055490565b6001600160a01b03166000908152600e602052604090206005015460ff1690565b6001600160a01b03166000908152600e602052604090205490565b60075490565b6000908152600d602052604090205490565b62000be18162000eab565b60408051600481526024810182526020810180516001600160e01b031663204a7f0760e21b17905290516000916060916001600160a01b0385169162000c279162001378565b600060405180830381855af49150503d806000811462000c64576040519150601f19603f3d011682016040523d82523d6000602084013e62000c69565b606091505b509150915081819062000c9a5760405162461bcd60e51b815260040162000c919190620013fd565b60405180910390fd5b506040516001600160a01b038416907fbc7cd75a20ee27fd9adebab32041f755214dbc6bffa90cc0225b39da2e5c2d3b90600090a2505050565b62000cde62000ff4565b604051806060016040528060008152602001635fbef0008152602001611c20815250905090565b600062000617826000015162000a72846040015162000960866020015162000b0d62000ef9565b609690565b8262000d8f5762000d428262000efd565b6101d160f51b62000d538362000efd565b60405160200162000d679392919062001386565b60408051601f198184030181529082905262461bcd60e51b825262000c9191600401620013fd565b505050565b6001600160a01b03166000908152600e60205260409020600501805460ff19166001179055565b60008262000dcc5750600062000617565b8282028284828162000dda57fe5b04146200096d5760405162461bcd60e51b815260040162000c919062001422565b60006200096d83836040518060400160405280601a81526020017f536166654d6174683a206469766973696f6e206279207a65726f00000000000081525062000f84565b6000828201838110156200096d5760405162461bcd60e51b815260040162000c919062001410565b60006200096d83836040518060400160405280601e81526020017f536166654d6174683a207375627472616374696f6e206f766572666c6f77000081525062000fbf565b62000eb68162000fee565b62000ed55760405162461bcd60e51b815260040162000c919062001434565b7f360894a13ba1a3210667c828492db98dca3e2076cc3735a920a3ca505d382bbc55565b4290565b6060808260405160200162000f13919062001361565b60408051601f19818403018152919052905060205b801562000f6d5781516000199091019082908290811062000f4557fe5b01602001516001600160f81b0319161562000f67576001018152905062000630565b62000f28565b505060408051600081526020810190915292915050565b6000818362000fa85760405162461bcd60e51b815260040162000c919190620013fd565b50600083858162000fb557fe5b0495945050505050565b6000818484111562000fe65760405162461bcd60e51b815260040162000c919190620013fd565b505050900390565b3b151590565b60405180606001604052806000815260200160008152602001600081525090565b611157806200153483390190565b8035620006178162001511565b8035620006178162001528565b8051620006178162001528565b6000602082840312156200105d57600080fd5b60006200106b848462001023565b949350505050565b600080604083850312156200108757600080fd5b600062001095858562001023565b9250506020620010a88582860162001023565b9150509250929050565b600080600060608486031215620010c857600080fd5b6000620010d6868662001023565b9350506020620010e98682870162001023565b9250506040620010fc8682870162001030565b9150509250925092565b600080604083850312156200111a57600080fd5b600062001128858562001023565b9250506020620010a88582860162001030565b6000602082840312156200114e57600080fd5b60006200106b848462001030565b6000602082840312156200116f57600080fd5b60006200106b84846200103d565b600080604083850312156200119157600080fd5b600062001128858562001030565b620011aa8162001473565b82525050565b620011aa8162001480565b620011aa620011ca8262001485565b62001492565b620011aa620011ca8262001492565b6000620011ec8262001466565b620011f8818562000630565b93506200120a818560208601620014cd565b9290920192915050565b620011aa81620014b3565b620011aa81620014c0565b6000620012378262001466565b6200124381856200146a565b935062001255818560208601620014cd565b6200126081620014fc565b9093019392505050565b600062001279601b836200146a565b7f536166654d6174683a206164646974696f6e206f766572666c6f770000000000815260200192915050565b6000620012b46021836200146a565b7f536166654d6174683a206d756c7469706c69636174696f6e206f766572666c6f8152607760f81b602082015260400192915050565b6000620012f9603b836200146a565b7f43616e6e6f742073657420612070726f787920696d706c656d656e746174696f81527f6e20746f2061206e6f6e2d636f6e747261637420616464726573730000000000602082015260400192915050565b620011aa8162001492565b620011aa81620014ad565b60006200136f8284620011d0565b50602001919050565b60006200096d8284620011df565b6000620013948286620011df565b9150620013a28285620011bb565b600282019150620013b48284620011df565b95945050505050565b602081016200061782846200119f565b60208101620006178284620011b0565b6020810162000617828462001214565b602081016200061782846200121f565b602080825281016200096d81846200122a565b6020808252810162000617816200126a565b602080825281016200061781620012a5565b602080825281016200061781620012ea565b602081016200061782846200134b565b6020810162000617828462001356565b5190565b90815260200190565b60006200061782620014a1565b151590565b6001600160f01b03191690565b90565b80620006308162001506565b6001600160a01b031690565b60ff1690565b6000620006178262001473565b6000620006178262001495565b60005b83811015620014ea578181015183820152602001620014d0565b838111156200090f5750506000910152565b601f01601f191690565b60038110620006fb57fe5b6200151c8162001473565b8114620006fb57600080fd5b6200151c816200149256fe608060405234801561001057600080fd5b5060405161115738038061115783398101604081905261002f91610073565b60008054336001600160a01b031991821617909155600180549091166001600160a01b03929092169190911790556100c1565b805161006d816100aa565b92915050565b60006020828403121561008557600080fd5b60006100918484610062565b949350505050565b60006001600160a01b03821661006d565b6100b381610099565b81146100be57600080fd5b50565b611087806100d06000396000f3fe608060405234801561001057600080fd5b506004361061004c5760003560e01c8063a8aa1b3114610051578063ba0bba401461006f578063cd3293de14610079578063d4a3e9d71461008e575b600080fd5b6100596100a4565b6040516100669190610f02565b60405180910390f35b6100776100b3565b005b610081610307565b6040516100669190610f77565b61009661030d565b604051610066929190610f5c565b6002546001600160a01b031690565b6000546100df906001600160a01b03163314654f7261636c6560d01b664e6f742064616f60c81b610380565b60015473bcfccbde45ce874adcb698cc183debcf179528129063c9c65396906001600160a01b031661010f6103e3565b6040518363ffffffff1660e01b815260040161012c929190610f10565b602060405180830381600087803b15801561014657600080fd5b505af115801561015a573d6000803e3d6000fd5b505050506040513d601f19601f8201168201806040525061017e9190810190610cd5565b600280546001600160a01b0319166001600160a01b03928316179081905560408051630dfe168160e01b8152905160009384931691630dfe1681916004808301926020929190829003018186803b1580156101d857600080fd5b505afa1580156101ec573d6000803e3d6000fd5b505050506040513d601f19601f820116820180604052506102109190810190610cd5565b600260009054906101000a90046001600160a01b03166001600160a01b031663d21220a76040518163ffffffff1660e01b815260040160206040518083038186803b15801561025e57600080fd5b505afa158015610272573d6000803e3d6000fd5b505050506040513d601f19601f820116820180604052506102969190810190610cd5565b60015491935091506001600160a01b038084169116146102b75760016102ba565b60005b60ff1660038190556103039015806102df57506001546001600160a01b038381169116145b654f7261636c6560d01b701130ee1b1b185c881b9bdd08199bdd5b99607a1b610380565b5050565b60065490565b610315610c79565b60008054610342906001600160a01b03163314654f7261636c6560d01b664e6f742064616f60c81b610380565b600154600160a01b900460ff16156103655761035c6103f2565b9150915061037c565b61036d6104e7565b6103756106f1565b6000915091505b9091565b826103de5761038e82610713565b6101d160f51b61039d83610713565b6040516020016103af93929190610ed1565b60408051601f198184030181529082905262461bcd60e51b82526103d591600401610f2b565b60405180910390fd5b505050565b60006103ed610795565b905090565b6103fa610c79565b6000610404610c79565b61040c6107ad565b9050600061041861084a565b905060006104246103e3565b60025460405163fe575a8760e01b81526001600160a01b039283169263fe575a879261045592911690600401610f02565b60206040518083038186803b15801561046d57600080fd5b505afa158015610481573d6000803e3d6000fd5b505050506040513d601f19601f820116820180604052506104a59190810190610cfb565b905060016104b1610906565b8310156104bc575060005b6104c4610906565b60065410156104d1575060005b81156104db575060005b92945091925050509091565b6002546003546001600160a01b03909116906000901561057757816001600160a01b0316635a3d54936040518163ffffffff1660e01b815260040160206040518083038186803b15801561053a57600080fd5b505afa15801561054e573d6000803e3d6000fd5b505050506040513d601f19601f820116820180604052506105729190810190610d66565b6105e8565b816001600160a01b0316635909c0d56040518163ffffffff1660e01b815260040160206040518083038186803b1580156105b057600080fd5b505afa1580156105c4573d6000803e3d6000fd5b505050506040513d601f19601f820116820180604052506105e89190810190610d66565b90506000806000846001600160a01b0316630902f1ac6040518163ffffffff1660e01b815260040160606040518083038186803b15801561062857600080fd5b505afa15801561063c573d6000803e3d6000fd5b505050506040513d601f19601f820116820180604052506106609190810190610d19565b925092509250826001600160701b031660001415801561068857506001600160701b03821615155b8015610699575063ffffffff811615155b156106ea5760048490556005805463ffffffff831663ffffffff199091161790556001805460ff60a01b1916600160a01b179055600354156106db57826106dd565b815b6001600160701b03166006555b5050505050565b6106f9610c79565b506040805160208101909152670de0b6b3a7640000815290565b606080826040516020016107279190610ebc565b60408051601f19818403018152919052905060205b801561077c5781516000199091019082908290811061075757fe5b01602001516001600160f81b031916156107775760010181529050610790565b61073c565b505060408051600081526020810190915290505b919050565b73e9e7cea3dedca5984780bafc599bd69add087d5690565b6107b5610c79565b600254600090819081906107d1906001600160a01b0316610914565b600554600354939650919450925063ffffffff16820390600090156107f657836107f8565b845b9050610802610c79565b6108238363ffffffff1660045484038161081857fe5b04600160701b610ae9565b6005805463ffffffff191663ffffffff969096169590951790945550600455509392505050565b6000806006549050600080600260009054906101000a90046001600160a01b03166001600160a01b0316630902f1ac6040518163ffffffff1660e01b815260040160606040518083038186803b1580156108a357600080fd5b505afa1580156108b7573d6000803e3d6000fd5b505050506040513d601f19601f820116820180604052506108db9190810190610d19565b50915091506003546000146108f057816108f2565b805b6001600160701b0316600655509091505090565b69021e19e0c9bab240000090565b6000806000610921610b1a565b9050836001600160a01b0316635909c0d56040518163ffffffff1660e01b815260040160206040518083038186803b15801561095c57600080fd5b505afa158015610970573d6000803e3d6000fd5b505050506040513d601f19601f820116820180604052506109949190810190610d66565b9250836001600160a01b0316635a3d54936040518163ffffffff1660e01b815260040160206040518083038186803b1580156109cf57600080fd5b505afa1580156109e3573d6000803e3d6000fd5b505050506040513d601f19601f82011682018060405250610a079190810190610d66565b91506000806000866001600160a01b0316630902f1ac6040518163ffffffff1660e01b815260040160606040518083038186803b158015610a4757600080fd5b505afa158015610a5b573d6000803e3d6000fd5b505050506040513d601f19601f82011682018060405250610a7f9190810190610d19565b9250925092508363ffffffff168163ffffffff1614610adf5780840363ffffffff8116610aac8486610b24565b516001600160e01b031602969096019563ffffffff8116610acd8585610b24565b516001600160e01b0316029590950194505b5050509193909250565b610af1610c79565b6040518060200160405280610b0f85670de0b6b3a764000086610b9f565b905290505b92915050565b63ffffffff421690565b610b2c610c8c565b6000826001600160701b031611610b555760405162461bcd60e51b81526004016103d590610f4c565b6040805160208101909152806001600160701b0384166dffffffffffffffffffffffffffff60701b607087901b1681610b8a57fe5b046001600160e01b0316815250905092915050565b6000610bc182610bb5868663ffffffff610bcb16565b9063ffffffff610c0516565b90505b9392505050565b600082610bda57506000610b14565b82820282848281610be757fe5b0414610bc45760405162461bcd60e51b81526004016103d590610f3c565b6000610bc483836040518060400160405280601a81526020017f536166654d6174683a206469766973696f6e206279207a65726f00000000000081525060008183610c635760405162461bcd60e51b81526004016103d59190610f2b565b506000838581610c6f57fe5b0495945050505050565b6040518060200160405280600081525090565b60408051602081019091526000815290565b8051610b1481611009565b8051610b1481611020565b8051610b1481611029565b8051610b1481611032565b8051610b148161103b565b600060208284031215610ce757600080fd5b6000610cf38484610c9e565b949350505050565b600060208284031215610d0d57600080fd5b6000610cf38484610ca9565b600080600060608486031215610d2e57600080fd5b6000610d3a8686610cb4565b9350506020610d4b86828701610cb4565b9250506040610d5c86828701610cca565b9150509250925092565b600060208284031215610d7857600080fd5b6000610cf38484610cbf565b610d8d81610f92565b82525050565b610d8d81610f9d565b610d8d610da882610fa2565b610faf565b610d8d610da882610faf565b6000610dc482610f85565b610dce8185610790565b9350610dde818560208601610fd3565b9290920192915050565b6000610df382610f85565b610dfd8185610f89565b9350610e0d818560208601610fd3565b610e1681610fff565b9093019392505050565b6000610e2d602183610f89565b7f536166654d6174683a206d756c7469706c69636174696f6e206f766572666c6f8152607760f81b602082015260400192915050565b6000610e70601783610f89565b7f4669786564506f696e743a204449565f42595f5a45524f000000000000000000815260200192915050565b80516020830190610ead8482610eb3565b50505050565b610d8d81610faf565b6000610ec88284610dad565b50602001919050565b6000610edd8286610db9565b9150610ee98285610d9c565b600282019150610ef98284610db9565b95945050505050565b60208101610b148284610d84565b60408101610f1e8285610d84565b610bc46020830184610d84565b60208082528101610bc48184610de8565b60208082528101610b1481610e20565b60208082528101610b1481610e63565b60408101610f6a8285610e9c565b610bc46020830184610d93565b60208101610b148284610eb3565b5190565b90815260200190565b6000610b1482610fbe565b151590565b6001600160f01b03191690565b90565b6001600160701b031690565b6001600160a01b031690565b63ffffffff1690565b60005b83811015610fee578181015183820152602001610fd6565b83811115610ead5750506000910152565b601f01601f191690565b61101281610f92565b811461101d57600080fd5b50565b61101281610f9d565b61101281610fb2565b61101281610faf565b61101281610fca56fea365627a7a72315820a9f1860fc08aeab9f860080c029b762ea2d8491b8b6de00a07f7c636cb0a287c6c6578706572696d656e74616cf564736f6c63430005110040a365627a7a72315820f266d51c32bf49ef704bec0c374fc97b55dffd4d4a3b172d5cc6fa840e62445e6c6578706572696d656e74616cf564736f6c63430005110040",
			"opcodes": "PUSH1 0x80 PUSH1 0x40 MSTORE CALLVALUE DUP1 ISZERO PUSH2 0x10 JUMPI PUSH1 0x0 DUP1 REVERT JUMPDEST POP PUSH2 0x26CD DUP1 PUSH2 0x20 PUSH1 0x0 CODECOPY PUSH1 0x0 RETURN INVALID PUSH1 0x80 PUSH1 0x40 MSTORE CALLVALUE DUP1 ISZERO PUSH3 0x11 JUMPI PUSH1 0x0 DUP1 REVERT JUMPDEST POP PUSH1 0x4 CALLDATASIZE LT PUSH3 0x298 JUMPI PUSH1 0x0 CALLDATALOAD PUSH1 0xE0 SHR DUP1 PUSH4 0x75D5024B GT PUSH3 0x165 JUMPI DUP1 PUSH4 0xA50CD8E7 GT PUSH3 0xD5 JUMPI DUP1 PUSH4 0xCF023779 GT PUSH3 0x93 JUMPI DUP1 PUSH4 0xCF023779 EQ PUSH3 0x573 JUMPI DUP1 PUSH4 0xD60B347F EQ PUSH3 0x57D JUMPI DUP1 PUSH4 0xDD62ED3E EQ PUSH3 0x594 JUMPI DUP1 PUSH4 0xF1B7CF49 EQ PUSH3 0x5A5 JUMPI DUP1 PUSH4 0xFC7B9C18 EQ PUSH3 0x5BC JUMPI DUP1 PUSH4 0xFFBE3B73 EQ PUSH3 0x5C6 JUMPI PUSH3 0x298 JUMP JUMPDEST DUP1 PUSH4 0xA50CD8E7 EQ PUSH3 0x524 JUMPI DUP1 PUSH4 0xA6C409F1 EQ PUSH3 0x53B JUMPI DUP1 PUSH4 0xA9059CBB EQ PUSH3 0x2BF JUMPI DUP1 PUSH4 0xBC7513E2 EQ PUSH3 0x545 JUMPI DUP1 PUSH4 0xC9AFF70C EQ PUSH3 0x55C JUMPI PUSH3 0x298 JUMP JUMPDEST DUP1 PUSH4 0x900CF0CF GT PUSH3 0x123 JUMPI DUP1 PUSH4 0x900CF0CF EQ PUSH3 0x4D8 JUMPI DUP1 PUSH4 0x95D89B41 EQ PUSH3 0x4E2 JUMPI DUP1 PUSH4 0x97A5D5B5 EQ PUSH3 0x4EC JUMPI DUP1 PUSH4 0x9A649EDC EQ PUSH3 0x503 JUMPI DUP1 PUSH4 0x9F6E1B26 EQ PUSH3 0x50D JUMPI PUSH3 0x298 JUMP JUMPDEST DUP1 PUSH4 0x75D5024B EQ PUSH3 0x47F JUMPI DUP1 PUSH4 0x7DC0D1D0 EQ PUSH3 0x496 JUMPI DUP1 PUSH4 0x8129FC1C EQ PUSH3 0x4A0 JUMPI DUP1 PUSH4 0x825AD607 EQ PUSH3 0x4AA JUMPI DUP1 PUSH4 0x86CF9F14 EQ PUSH3 0x4C1 JUMPI PUSH3 0x298 JUMP JUMPDEST DUP1 PUSH4 0x3A3E6C81 GT PUSH3 0x20D JUMPI DUP1 PUSH4 0x5053E461 GT PUSH3 0x1CB JUMPI DUP1 PUSH4 0x5053E461 EQ PUSH3 0x40D JUMPI DUP1 PUSH4 0x51ADEB57 EQ PUSH3 0x417 JUMPI DUP1 PUSH4 0x5C60DA1B EQ PUSH3 0x430 JUMPI DUP1 PUSH4 0x64668022 EQ PUSH3 0x43A JUMPI DUP1 PUSH4 0x6A39E328 EQ PUSH3 0x451 JUMPI DUP1 PUSH4 0x70A08231 EQ PUSH3 0x468 JUMPI PUSH3 0x298 JUMP JUMPDEST DUP1 PUSH4 0x3A3E6C81 EQ PUSH3 0x396 JUMPI DUP1 PUSH4 0x3FBBA9A6 EQ PUSH3 0x3AD JUMPI DUP1 PUSH4 0x44D96E95 EQ PUSH3 0x3D3 JUMPI DUP1 PUSH4 0x4A960261 EQ PUSH3 0x3DD JUMPI DUP1 PUSH4 0x4C736099 EQ PUSH3 0x3F6 JUMPI PUSH3 0x298 JUMP JUMPDEST DUP1 PUSH4 0x18160DDD GT PUSH3 0x25B JUMPI DUP1 PUSH4 0x18160DDD EQ PUSH3 0x33B JUMPI DUP1 PUSH4 0x1EDBCF6C EQ PUSH3 0x345 JUMPI DUP1 PUSH4 0x23B872DD EQ PUSH3 0x34F JUMPI DUP1 PUSH4 0x313CE567 EQ PUSH3 0x366 JUMPI DUP1 PUSH4 0x353A420C EQ PUSH3 0x37F JUMPI PUSH3 0x298 JUMP JUMPDEST DUP1 PUSH4 0x6FDDE03 EQ PUSH3 0x29D JUMPI DUP1 PUSH4 0x95EA7B3 EQ PUSH3 0x2BF JUMPI DUP1 PUSH4 0x10E95B6C EQ PUSH3 0x2E5 JUMPI DUP1 PUSH4 0x15E14BF6 EQ PUSH3 0x30B JUMPI DUP1 PUSH4 0x16F0115B EQ PUSH3 0x322 JUMPI JUMPDEST PUSH1 0x0 DUP1 REVERT JUMPDEST PUSH3 0x2A7 PUSH3 0x5DD JUMP JUMPDEST PUSH1 0x40 MLOAD PUSH3 0x2B6 SWAP2 SWAP1 PUSH3 0x13FD JUMP JUMPDEST PUSH1 0x40 MLOAD DUP1 SWAP2 SUB SWAP1 RETURN JUMPDEST PUSH3 0x2D6 PUSH3 0x2D0 CALLDATASIZE PUSH1 0x4 PUSH3 0x1106 JUMP JUMPDEST PUSH3 0x614 JUMP JUMPDEST PUSH1 0x40 MLOAD PUSH3 0x2B6 SWAP2 SWAP1 PUSH3 0x13CD JUMP JUMPDEST PUSH3 0x2FC PUSH3 0x2F6 CALLDATASIZE PUSH1 0x4 PUSH3 0x113B JUMP JUMPDEST PUSH3 0x61D JUMP JUMPDEST PUSH1 0x40 MLOAD PUSH3 0x2B6 SWAP2 SWAP1 PUSH3 0x1446 JUMP JUMPDEST PUSH3 0x2FC PUSH3 0x31C CALLDATASIZE PUSH1 0x4 PUSH3 0x104A JUMP JUMPDEST PUSH3 0x635 JUMP JUMPDEST PUSH3 0x32C PUSH3 0x653 JUMP JUMPDEST PUSH1 0x40 MLOAD PUSH3 0x2B6 SWAP2 SWAP1 PUSH3 0x13BD JUMP JUMPDEST PUSH3 0x2FC PUSH3 0x662 JUMP JUMPDEST PUSH3 0x2FC PUSH3 0x668 JUMP JUMPDEST PUSH3 0x2D6 PUSH3 0x360 CALLDATASIZE PUSH1 0x4 PUSH3 0x10B2 JUMP JUMPDEST PUSH3 0x66E JUMP JUMPDEST PUSH3 0x370 PUSH3 0x677 JUMP JUMPDEST PUSH1 0x40 MLOAD PUSH3 0x2B6 SWAP2 SWAP1 PUSH3 0x1456 JUMP JUMPDEST PUSH3 0x2FC PUSH3 0x390 CALLDATASIZE PUSH1 0x4 PUSH3 0x104A JUMP JUMPDEST PUSH3 0x67C JUMP JUMPDEST PUSH3 0x2D6 PUSH3 0x3A7 CALLDATASIZE PUSH1 0x4 PUSH3 0x104A JUMP JUMPDEST PUSH3 0x69A JUMP JUMPDEST PUSH3 0x3C4 PUSH3 0x3BE CALLDATASIZE PUSH1 0x4 PUSH3 0x1073 JUMP JUMPDEST PUSH3 0x6B7 JUMP JUMPDEST PUSH1 0x40 MLOAD PUSH3 0x2B6 SWAP2 SWAP1 PUSH3 0x13ED JUMP JUMPDEST PUSH3 0x2FC PUSH3 0x6EA JUMP JUMPDEST PUSH3 0x3F4 PUSH3 0x3EE CALLDATASIZE PUSH1 0x4 PUSH3 0x104A JUMP JUMPDEST PUSH3 0x6F0 JUMP JUMPDEST STOP JUMPDEST PUSH3 0x2FC PUSH3 0x407 CALLDATASIZE PUSH1 0x4 PUSH3 0x117D JUMP JUMPDEST PUSH3 0x6FE JUMP JUMPDEST PUSH3 0x2FC PUSH3 0x72F JUMP JUMPDEST PUSH3 0x421 PUSH3 0x758 JUMP JUMPDEST PUSH1 0x40 MLOAD PUSH3 0x2B6 SWAP2 SWAP1 PUSH3 0x13DD JUMP JUMPDEST PUSH3 0x32C PUSH3 0x767 JUMP JUMPDEST PUSH3 0x2FC PUSH3 0x44B CALLDATASIZE PUSH1 0x4 PUSH3 0x104A JUMP JUMPDEST PUSH3 0x78C JUMP JUMPDEST PUSH3 0x2FC PUSH3 0x462 CALLDATASIZE PUSH1 0x4 PUSH3 0x113B JUMP JUMPDEST PUSH3 0x7AA JUMP JUMPDEST PUSH3 0x2FC PUSH3 0x479 CALLDATASIZE PUSH1 0x4 PUSH3 0x104A JUMP JUMPDEST PUSH3 0x7BF JUMP JUMPDEST PUSH3 0x2D6 PUSH3 0x490 CALLDATASIZE PUSH1 0x4 PUSH3 0x113B JUMP JUMPDEST PUSH3 0x7DD JUMP JUMPDEST PUSH3 0x421 PUSH3 0x7F2 JUMP JUMPDEST PUSH3 0x3F4 PUSH3 0x801 JUMP JUMPDEST PUSH3 0x2FC PUSH3 0x4BB CALLDATASIZE PUSH1 0x4 PUSH3 0x104A JUMP JUMPDEST PUSH3 0x915 JUMP JUMPDEST PUSH3 0x2FC PUSH3 0x4D2 CALLDATASIZE PUSH1 0x4 PUSH3 0x104A JUMP JUMPDEST PUSH3 0x974 JUMP JUMPDEST PUSH3 0x2FC PUSH3 0x98F JUMP JUMPDEST PUSH3 0x2A7 PUSH3 0x995 JUMP JUMPDEST PUSH3 0x3C4 PUSH3 0x4FD CALLDATASIZE PUSH1 0x4 PUSH3 0x104A JUMP JUMPDEST PUSH3 0x9B4 JUMP JUMPDEST PUSH3 0x2FC PUSH3 0xA21 JUMP JUMPDEST PUSH3 0x2FC PUSH3 0x51E CALLDATASIZE PUSH1 0x4 PUSH3 0x1073 JUMP JUMPDEST PUSH3 0xA27 JUMP JUMPDEST PUSH3 0x2FC PUSH3 0x535 CALLDATASIZE PUSH1 0x4 PUSH3 0x104A JUMP JUMPDEST PUSH3 0xA56 JUMP JUMPDEST PUSH3 0x2FC PUSH3 0xA7F JUMP JUMPDEST PUSH3 0x2FC PUSH3 0x556 CALLDATASIZE PUSH1 0x4 PUSH3 0x1106 JUMP JUMPDEST PUSH3 0xB1F JUMP JUMPDEST PUSH3 0x2FC PUSH3 0x56D CALLDATASIZE PUSH1 0x4 PUSH3 0x113B JUMP JUMPDEST PUSH3 0xB67 JUMP JUMPDEST PUSH3 0x2FC PUSH3 0xB7C JUMP JUMPDEST PUSH3 0x2D6 PUSH3 0x58E CALLDATASIZE PUSH1 0x4 PUSH3 0x104A JUMP JUMPDEST PUSH3 0xB82 JUMP JUMPDEST PUSH3 0x2FC PUSH3 0x2D0 CALLDATASIZE PUSH1 0x4 PUSH3 0x1073 JUMP JUMPDEST PUSH3 0x2FC PUSH3 0x5B6 CALLDATASIZE PUSH1 0x4 PUSH3 0x104A JUMP JUMPDEST PUSH3 0xBA3 JUMP JUMPDEST PUSH3 0x2FC PUSH3 0xBBE JUMP JUMPDEST PUSH3 0x2FC PUSH3 0x5D7 CALLDATASIZE PUSH1 0x4 PUSH3 0x113B JUMP JUMPDEST PUSH3 0xBC4 JUMP JUMPDEST PUSH1 0x40 DUP1 MLOAD DUP1 DUP3 ADD SWAP1 SWAP2 MSTORE PUSH1 0x1E DUP2 MSTORE PUSH32 0x42696E616E6365204167696C652053657420446F6C6C6172205374616B650000 PUSH1 0x20 DUP3 ADD MSTORE SWAP1 JUMP JUMPDEST PUSH1 0x0 JUMPDEST SWAP3 SWAP2 POP POP JUMP JUMPDEST PUSH1 0x0 DUP2 DUP2 MSTORE PUSH1 0xD PUSH1 0x20 MSTORE PUSH1 0x40 SWAP1 KECCAK256 PUSH1 0x2 ADD SLOAD JUMPDEST SWAP2 SWAP1 POP JUMP JUMPDEST PUSH1 0x1 PUSH1 0x1 PUSH1 0xA0 SHL SUB AND PUSH1 0x0 SWAP1 DUP2 MSTORE PUSH1 0xE PUSH1 0x20 MSTORE PUSH1 0x40 SWAP1 KECCAK256 PUSH1 0x1 ADD SLOAD SWAP1 JUMP JUMPDEST PUSH1 0xB SLOAD PUSH1 0x1 PUSH1 0x1 PUSH1 0xA0 SHL SUB AND SWAP1 JUMP JUMPDEST PUSH1 0x3 SLOAD SWAP1 JUMP JUMPDEST PUSH1 0x6 SLOAD SWAP1 JUMP JUMPDEST PUSH1 0x0 SWAP4 SWAP3 POP POP POP JUMP JUMPDEST PUSH1 0x12 SWAP1 JUMP JUMPDEST PUSH1 0x1 PUSH1 0x1 PUSH1 0xA0 SHL SUB AND PUSH1 0x0 SWAP1 DUP2 MSTORE PUSH1 0xE PUSH1 0x20 MSTORE PUSH1 0x40 SWAP1 KECCAK256 PUSH1 0x3 ADD SLOAD SWAP1 JUMP JUMPDEST PUSH1 0x1 PUSH1 0x1 PUSH1 0xA0 SHL SUB AND PUSH1 0x0 SWAP1 DUP2 MSTORE PUSH1 0xE PUSH1 0x20 MSTORE PUSH1 0x40 SWAP1 KECCAK256 SLOAD ISZERO ISZERO SWAP1 JUMP JUMPDEST PUSH1 0x1 PUSH1 0x1 PUSH1 0xA0 SHL SUB DUP1 DUP3 AND PUSH1 0x0 SWAP1 DUP2 MSTORE PUSH1 0xE PUSH1 0x20 SWAP1 DUP2 MSTORE PUSH1 0x40 DUP1 DUP4 KECCAK256 SWAP4 DUP7 AND DUP4 MSTORE PUSH1 0x4 SWAP1 SWAP4 ADD SWAP1 MSTORE KECCAK256 SLOAD PUSH1 0xFF AND SWAP3 SWAP2 POP POP JUMP JUMPDEST PUSH1 0x4 SLOAD SWAP1 JUMP JUMPDEST PUSH3 0x6FB DUP2 PUSH3 0xBD6 JUMP JUMPDEST POP JUMP JUMPDEST PUSH1 0x0 DUP3 DUP2 MSTORE PUSH1 0xD PUSH1 0x20 MSTORE PUSH1 0x40 DUP2 KECCAK256 PUSH1 0x3 ADD DUP1 SLOAD DUP4 SWAP1 DUP2 LT PUSH3 0x71C JUMPI INVALID JUMPDEST SWAP1 PUSH1 0x0 MSTORE PUSH1 0x20 PUSH1 0x0 KECCAK256 ADD SLOAD SWAP1 POP SWAP3 SWAP2 POP POP JUMP JUMPDEST PUSH1 0x0 PUSH3 0x73B PUSH3 0xFF4 JUMP JUMPDEST PUSH3 0x745 PUSH3 0xCD4 JUMP JUMPDEST SWAP1 POP PUSH3 0x752 DUP2 PUSH3 0xD05 JUMP JUMPDEST SWAP2 POP POP SWAP1 JUMP JUMPDEST PUSH1 0x9 SLOAD PUSH1 0x1 PUSH1 0x1 PUSH1 0xA0 SHL SUB AND SWAP1 JUMP JUMPDEST PUSH32 0x360894A13BA1A3210667C828492DB98DCA3E2076CC3735A920A3CA505D382BBC SLOAD SWAP1 JUMP JUMPDEST PUSH1 0x1 PUSH1 0x1 PUSH1 0xA0 SHL SUB AND PUSH1 0x0 SWAP1 DUP2 MSTORE PUSH1 0xE PUSH1 0x20 MSTORE PUSH1 0x40 SWAP1 KECCAK256 PUSH1 0x2 ADD SLOAD SWAP1 JUMP JUMPDEST PUSH1 0x0 SWAP1 DUP2 MSTORE PUSH1 0xD PUSH1 0x20 MSTORE PUSH1 0x40 SWAP1 KECCAK256 PUSH1 0x3 ADD SLOAD SWAP1 JUMP JUMPDEST PUSH1 0x1 PUSH1 0x1 PUSH1 0xA0 SHL SUB AND PUSH1 0x0 SWAP1 DUP2 MSTORE PUSH1 0xC PUSH1 0x20 MSTORE PUSH1 0x40 SWAP1 KECCAK256 PUSH1 0x1 ADD SLOAD SWAP1 JUMP JUMPDEST PUSH1 0x0 PUSH3 0x7E9 PUSH3 0xD2C JUMP JUMPDEST SWAP1 SWAP2 GT ISZERO SWAP2 SWAP1 POP JUMP JUMPDEST PUSH1 0xA SLOAD PUSH1 0x1 PUSH1 0x1 PUSH1 0xA0 SHL SUB AND SWAP1 JUMP JUMPDEST PUSH3 0x83F PUSH3 0x813 PUSH3 0x58E PUSH3 0x767 JUMP JUMPDEST ISZERO PUSH10 0x2832B936B4B9B9B4B7B7 PUSH1 0xB1 SHL PUSH19 0x105B1C9958591E481A5B9A5D1A585B1A5E9959 PUSH1 0x6A SHL PUSH3 0xD31 JUMP JUMPDEST PUSH3 0x853 PUSH3 0x84D PUSH3 0x767 JUMP JUMPDEST PUSH3 0xD94 JUMP JUMPDEST PUSH3 0x85D PUSH3 0x758 JUMP JUMPDEST PUSH1 0x40 MLOAD PUSH3 0x86B SWAP1 PUSH3 0x1015 JUMP JUMPDEST PUSH3 0x877 SWAP2 SWAP1 PUSH3 0x13BD JUMP JUMPDEST PUSH1 0x40 MLOAD DUP1 SWAP2 SUB SWAP1 PUSH1 0x0 CREATE DUP1 ISZERO DUP1 ISZERO PUSH3 0x894 JUMPI RETURNDATASIZE PUSH1 0x0 DUP1 RETURNDATACOPY RETURNDATASIZE PUSH1 0x0 REVERT JUMPDEST POP PUSH1 0xA DUP1 SLOAD PUSH1 0x1 PUSH1 0x1 PUSH1 0xA0 SHL SUB NOT AND PUSH1 0x1 PUSH1 0x1 PUSH1 0xA0 SHL SUB SWAP3 SWAP1 SWAP3 AND SWAP2 SWAP1 SWAP2 OR SWAP1 SSTORE PUSH3 0x8BF PUSH3 0x7F2 JUMP JUMPDEST PUSH1 0x1 PUSH1 0x1 PUSH1 0xA0 SHL SUB AND PUSH4 0xBA0BBA40 PUSH1 0x40 MLOAD DUP2 PUSH4 0xFFFFFFFF AND PUSH1 0xE0 SHL DUP2 MSTORE PUSH1 0x4 ADD PUSH1 0x0 PUSH1 0x40 MLOAD DUP1 DUP4 SUB DUP2 PUSH1 0x0 DUP8 DUP1 EXTCODESIZE ISZERO DUP1 ISZERO PUSH3 0x8FA JUMPI PUSH1 0x0 DUP1 REVERT JUMPDEST POP GAS CALL ISZERO DUP1 ISZERO PUSH3 0x90F JUMPI RETURNDATASIZE PUSH1 0x0 DUP1 RETURNDATACOPY RETURNDATASIZE PUSH1 0x0 REVERT JUMPDEST POP POP POP POP JUMP JUMPDEST PUSH1 0x0 DUP1 PUSH3 0x922 PUSH3 0x662 JUMP JUMPDEST SWAP1 POP DUP1 PUSH3 0x935 JUMPI PUSH1 0x0 SWAP2 POP POP PUSH3 0x630 JUMP JUMPDEST PUSH3 0x96D DUP2 PUSH3 0x960 PUSH3 0x949 DUP7 PUSH3 0x7BF JUMP JUMPDEST PUSH3 0x953 PUSH3 0x6EA JUMP JUMPDEST SWAP1 PUSH4 0xFFFFFFFF PUSH3 0xDBB AND JUMP JUMPDEST SWAP1 PUSH4 0xFFFFFFFF PUSH3 0xDFB AND JUMP JUMPDEST SWAP4 SWAP3 POP POP POP JUMP JUMPDEST PUSH1 0x1 PUSH1 0x1 PUSH1 0xA0 SHL SUB AND PUSH1 0x0 SWAP1 DUP2 MSTORE PUSH1 0xC PUSH1 0x20 MSTORE PUSH1 0x40 SWAP1 KECCAK256 SLOAD SWAP1 JUMP JUMPDEST PUSH1 0x2 SLOAD SWAP1 JUMP JUMPDEST PUSH1 0x40 DUP1 MLOAD DUP1 DUP3 ADD SWAP1 SWAP2 MSTORE PUSH1 0x5 DUP2 MSTORE PUSH5 0x4241534453 PUSH1 0xD8 SHL PUSH1 0x20 DUP3 ADD MSTORE SWAP1 JUMP JUMPDEST PUSH1 0x0 PUSH3 0x9C0 PUSH3 0x98F JUMP JUMPDEST PUSH1 0x1 PUSH1 0x1 PUSH1 0xA0 SHL SUB DUP4 AND PUSH1 0x0 SWAP1 DUP2 MSTORE PUSH1 0xC PUSH1 0x20 MSTORE PUSH1 0x40 SWAP1 KECCAK256 PUSH1 0x5 ADD SLOAD GT ISZERO PUSH3 0x9EC JUMPI POP PUSH1 0x2 PUSH3 0x630 JUMP JUMPDEST PUSH1 0x1 PUSH1 0x1 PUSH1 0xA0 SHL SUB DUP3 AND PUSH1 0x0 SWAP1 DUP2 MSTORE PUSH1 0xC PUSH1 0x20 MSTORE PUSH1 0x40 SWAP1 KECCAK256 PUSH1 0x4 ADD SLOAD PUSH3 0xA12 PUSH3 0x98F JUMP JUMPDEST LT ISZERO PUSH3 0x614 JUMPI PUSH1 0x1 PUSH3 0x617 JUMP JUMPDEST PUSH1 0x8 SLOAD SWAP1 JUMP JUMPDEST PUSH1 0x1 PUSH1 0x1 PUSH1 0xA0 SHL SUB SWAP2 DUP3 AND PUSH1 0x0 SWAP1 DUP2 MSTORE PUSH1 0xC PUSH1 0x20 SWAP1 DUP2 MSTORE PUSH1 0x40 DUP1 DUP4 KECCAK256 SWAP4 SWAP1 SWAP5 AND DUP3 MSTORE PUSH1 0x3 SWAP1 SWAP3 ADD SWAP1 SWAP2 MSTORE KECCAK256 SLOAD SWAP1 JUMP JUMPDEST PUSH1 0x0 PUSH3 0x617 PUSH3 0xA67 DUP4 PUSH3 0x67C JUMP JUMPDEST PUSH3 0xA72 DUP5 PUSH3 0x78C JUMP JUMPDEST SWAP1 PUSH4 0xFFFFFFFF PUSH3 0xE3F AND JUMP JUMPDEST PUSH1 0x0 PUSH3 0xB1A PUSH3 0xA8F PUSH3 0xBBE JUMP JUMPDEST PUSH3 0xA99 PUSH3 0x758 JUMP JUMPDEST PUSH1 0x1 PUSH1 0x1 PUSH1 0xA0 SHL SUB AND PUSH4 0x18160DDD PUSH1 0x40 MLOAD DUP2 PUSH4 0xFFFFFFFF AND PUSH1 0xE0 SHL DUP2 MSTORE PUSH1 0x4 ADD PUSH1 0x20 PUSH1 0x40 MLOAD DUP1 DUP4 SUB DUP2 DUP7 DUP1 EXTCODESIZE ISZERO DUP1 ISZERO PUSH3 0xAD2 JUMPI PUSH1 0x0 DUP1 REVERT JUMPDEST POP GAS STATICCALL ISZERO DUP1 ISZERO PUSH3 0xAE7 JUMPI RETURNDATASIZE PUSH1 0x0 DUP1 RETURNDATACOPY RETURNDATASIZE PUSH1 0x0 REVERT JUMPDEST POP POP POP POP PUSH1 0x40 MLOAD RETURNDATASIZE PUSH1 0x1F NOT PUSH1 0x1F DUP3 ADD AND DUP3 ADD DUP1 PUSH1 0x40 MSTORE POP PUSH3 0xB0D SWAP2 SWAP1 DUP2 ADD SWAP1 PUSH3 0x115C JUMP JUMPDEST SWAP1 PUSH4 0xFFFFFFFF PUSH3 0xE67 AND JUMP JUMPDEST SWAP1 POP SWAP1 JUMP JUMPDEST PUSH1 0x0 PUSH3 0xB2C DUP3 PUSH3 0xB67 JUMP JUMPDEST PUSH3 0xB3A JUMPI POP PUSH1 0x0 PUSH3 0x617 JUMP JUMPDEST POP PUSH1 0x1 PUSH1 0x1 PUSH1 0xA0 SHL SUB SWAP2 SWAP1 SWAP2 AND PUSH1 0x0 SWAP1 DUP2 MSTORE PUSH1 0xC PUSH1 0x20 SWAP1 DUP2 MSTORE PUSH1 0x40 DUP1 DUP4 KECCAK256 SWAP4 DUP4 MSTORE PUSH1 0x2 SWAP1 SWAP4 ADD SWAP1 MSTORE KECCAK256 SLOAD SWAP1 JUMP JUMPDEST PUSH1 0x0 SWAP1 DUP2 MSTORE PUSH1 0xD PUSH1 0x20 MSTORE PUSH1 0x40 SWAP1 KECCAK256 PUSH1 0x1 ADD SLOAD SWAP1 JUMP JUMPDEST PUSH1 0x5 SLOAD SWAP1 JUMP JUMPDEST PUSH1 0x1 PUSH1 0x1 PUSH1 0xA0 SHL SUB AND PUSH1 0x0 SWAP1 DUP2 MSTORE PUSH1 0xE PUSH1 0x20 MSTORE PUSH1 0x40 SWAP1 KECCAK256 PUSH1 0x5 ADD SLOAD PUSH1 0xFF AND SWAP1 JUMP JUMPDEST PUSH1 0x1 PUSH1 0x1 PUSH1 0xA0 SHL SUB AND PUSH1 0x0 SWAP1 DUP2 MSTORE PUSH1 0xE PUSH1 0x20 MSTORE PUSH1 0x40 SWAP1 KECCAK256 SLOAD SWAP1 JUMP JUMPDEST PUSH1 0x7 SLOAD SWAP1 JUMP JUMPDEST PUSH1 0x0 SWAP1 DUP2 MSTORE PUSH1 0xD PUSH1 0x20 MSTORE PUSH1 0x40 SWAP1 KECCAK256 SLOAD SWAP1 JUMP JUMPDEST PUSH3 0xBE1 DUP2 PUSH3 0xEAB JUMP JUMPDEST PUSH1 0x40 DUP1 MLOAD PUSH1 0x4 DUP2 MSTORE PUSH1 0x24 DUP2 ADD DUP3 MSTORE PUSH1 0x20 DUP2 ADD DUP1 MLOAD PUSH1 0x1 PUSH1 0x1 PUSH1 0xE0 SHL SUB AND PUSH4 0x204A7F07 PUSH1 0xE2 SHL OR SWAP1 MSTORE SWAP1 MLOAD PUSH1 0x0 SWAP2 PUSH1 0x60 SWAP2 PUSH1 0x1 PUSH1 0x1 PUSH1 0xA0 SHL SUB DUP6 AND SWAP2 PUSH3 0xC27 SWAP2 PUSH3 0x1378 JUMP JUMPDEST PUSH1 0x0 PUSH1 0x40 MLOAD DUP1 DUP4 SUB DUP2 DUP6 GAS DELEGATECALL SWAP2 POP POP RETURNDATASIZE DUP1 PUSH1 0x0 DUP2 EQ PUSH3 0xC64 JUMPI PUSH1 0x40 MLOAD SWAP2 POP PUSH1 0x1F NOT PUSH1 0x3F RETURNDATASIZE ADD AND DUP3 ADD PUSH1 0x40 MSTORE RETURNDATASIZE DUP3 MSTORE RETURNDATASIZE PUSH1 0x0 PUSH1 0x20 DUP5 ADD RETURNDATACOPY PUSH3 0xC69 JUMP JUMPDEST PUSH1 0x60 SWAP2 POP JUMPDEST POP SWAP2 POP SWAP2 POP DUP2 DUP2 SWAP1 PUSH3 0xC9A JUMPI PUSH1 0x40 MLOAD PUSH3 0x461BCD PUSH1 0xE5 SHL DUP2 MSTORE PUSH1 0x4 ADD PUSH3 0xC91 SWAP2 SWAP1 PUSH3 0x13FD JUMP JUMPDEST PUSH1 0x40 MLOAD DUP1 SWAP2 SUB SWAP1 REVERT JUMPDEST POP PUSH1 0x40 MLOAD PUSH1 0x1 PUSH1 0x1 PUSH1 0xA0 SHL SUB DUP5 AND SWAP1 PUSH32 0xBC7CD75A20EE27FD9ADEBAB32041F755214DBC6BFFA90CC0225B39DA2E5C2D3B SWAP1 PUSH1 0x0 SWAP1 LOG2 POP POP POP JUMP JUMPDEST PUSH3 0xCDE PUSH3 0xFF4 JUMP JUMPDEST PUSH1 0x40 MLOAD DUP1 PUSH1 0x60 ADD PUSH1 0x40 MSTORE DUP1 PUSH1 0x0 DUP2 MSTORE PUSH1 0x20 ADD PUSH4 0x5FBEF000 DUP2 MSTORE PUSH1 0x20 ADD PUSH2 0x1C20 DUP2 MSTORE POP SWAP1 POP SWAP1 JUMP JUMPDEST PUSH1 0x0 PUSH3 0x617 DUP3 PUSH1 0x0 ADD MLOAD PUSH3 0xA72 DUP5 PUSH1 0x40 ADD MLOAD PUSH3 0x960 DUP7 PUSH1 0x20 ADD MLOAD PUSH3 0xB0D PUSH3 0xEF9 JUMP JUMPDEST PUSH1 0x96 SWAP1 JUMP JUMPDEST DUP3 PUSH3 0xD8F JUMPI PUSH3 0xD42 DUP3 PUSH3 0xEFD JUMP JUMPDEST PUSH2 0x1D1 PUSH1 0xF5 SHL PUSH3 0xD53 DUP4 PUSH3 0xEFD JUMP JUMPDEST PUSH1 0x40 MLOAD PUSH1 0x20 ADD PUSH3 0xD67 SWAP4 SWAP3 SWAP2 SWAP1 PUSH3 0x1386 JUMP JUMPDEST PUSH1 0x40 DUP1 MLOAD PUSH1 0x1F NOT DUP2 DUP5 SUB ADD DUP2 MSTORE SWAP1 DUP3 SWAP1 MSTORE PUSH3 0x461BCD PUSH1 0xE5 SHL DUP3 MSTORE PUSH3 0xC91 SWAP2 PUSH1 0x4 ADD PUSH3 0x13FD JUMP JUMPDEST POP POP POP JUMP JUMPDEST PUSH1 0x1 PUSH1 0x1 PUSH1 0xA0 SHL SUB AND PUSH1 0x0 SWAP1 DUP2 MSTORE PUSH1 0xE PUSH1 0x20 MSTORE PUSH1 0x40 SWAP1 KECCAK256 PUSH1 0x5 ADD DUP1 SLOAD PUSH1 0xFF NOT AND PUSH1 0x1 OR SWAP1 SSTORE JUMP JUMPDEST PUSH1 0x0 DUP3 PUSH3 0xDCC JUMPI POP PUSH1 0x0 PUSH3 0x617 JUMP JUMPDEST DUP3 DUP3 MUL DUP3 DUP5 DUP3 DUP2 PUSH3 0xDDA JUMPI INVALID JUMPDEST DIV EQ PUSH3 0x96D JUMPI PUSH1 0x40 MLOAD PUSH3 0x461BCD PUSH1 0xE5 SHL DUP2 MSTORE PUSH1 0x4 ADD PUSH3 0xC91 SWAP1 PUSH3 0x1422 JUMP JUMPDEST PUSH1 0x0 PUSH3 0x96D DUP4 DUP4 PUSH1 0x40 MLOAD DUP1 PUSH1 0x40 ADD PUSH1 0x40 MSTORE DUP1 PUSH1 0x1A DUP2 MSTORE PUSH1 0x20 ADD PUSH32 0x536166654D6174683A206469766973696F6E206279207A65726F000000000000 DUP2 MSTORE POP PUSH3 0xF84 JUMP JUMPDEST PUSH1 0x0 DUP3 DUP3 ADD DUP4 DUP2 LT ISZERO PUSH3 0x96D JUMPI PUSH1 0x40 MLOAD PUSH3 0x461BCD PUSH1 0xE5 SHL DUP2 MSTORE PUSH1 0x4 ADD PUSH3 0xC91 SWAP1 PUSH3 0x1410 JUMP JUMPDEST PUSH1 0x0 PUSH3 0x96D DUP4 DUP4 PUSH1 0x40 MLOAD DUP1 PUSH1 0x40 ADD PUSH1 0x40 MSTORE DUP1 PUSH1 0x1E DUP2 MSTORE PUSH1 0x20 ADD PUSH32 0x536166654D6174683A207375627472616374696F6E206F766572666C6F770000 DUP2 MSTORE POP PUSH3 0xFBF JUMP JUMPDEST PUSH3 0xEB6 DUP2 PUSH3 0xFEE JUMP JUMPDEST PUSH3 0xED5 JUMPI PUSH1 0x40 MLOAD PUSH3 0x461BCD PUSH1 0xE5 SHL DUP2 MSTORE PUSH1 0x4 ADD PUSH3 0xC91 SWAP1 PUSH3 0x1434 JUMP JUMPDEST PUSH32 0x360894A13BA1A3210667C828492DB98DCA3E2076CC3735A920A3CA505D382BBC SSTORE JUMP JUMPDEST TIMESTAMP SWAP1 JUMP JUMPDEST PUSH1 0x60 DUP1 DUP3 PUSH1 0x40 MLOAD PUSH1 0x20 ADD PUSH3 0xF13 SWAP2 SWAP1 PUSH3 0x1361 JUMP JUMPDEST PUSH1 0x40 DUP1 MLOAD PUSH1 0x1F NOT DUP2 DUP5 SUB ADD DUP2 MSTORE SWAP2 SWAP1 MSTORE SWAP1 POP PUSH1 0x20 JUMPDEST DUP1 ISZERO PUSH3 0xF6D JUMPI DUP2 MLOAD PUSH1 0x0 NOT SWAP1 SWAP2 ADD SWAP1 DUP3 SWAP1 DUP3 SWAP1 DUP2 LT PUSH3 0xF45 JUMPI INVALID JUMPDEST ADD PUSH1 0x20 ADD MLOAD PUSH1 0x1 PUSH1 0x1 PUSH1 0xF8 SHL SUB NOT AND ISZERO PUSH3 0xF67 JUMPI PUSH1 0x1 ADD DUP2 MSTORE SWAP1 POP PUSH3 0x630 JUMP JUMPDEST PUSH3 0xF28 JUMP JUMPDEST POP POP PUSH1 0x40 DUP1 MLOAD PUSH1 0x0 DUP2 MSTORE PUSH1 0x20 DUP2 ADD SWAP1 SWAP2 MSTORE SWAP3 SWAP2 POP POP JUMP JUMPDEST PUSH1 0x0 DUP2 DUP4 PUSH3 0xFA8 JUMPI PUSH1 0x40 MLOAD PUSH3 0x461BCD PUSH1 0xE5 SHL DUP2 MSTORE PUSH1 0x4 ADD PUSH3 0xC91 SWAP2 SWAP1 PUSH3 0x13FD JUMP JUMPDEST POP PUSH1 0x0 DUP4 DUP6 DUP2 PUSH3 0xFB5 JUMPI INVALID JUMPDEST DIV SWAP6 SWAP5 POP POP POP POP POP JUMP JUMPDEST PUSH1 0x0 DUP2 DUP5 DUP5 GT ISZERO PUSH3 0xFE6 JUMPI PUSH1 0x40 MLOAD PUSH3 0x461BCD PUSH1 0xE5 SHL DUP2 MSTORE PUSH1 0x4 ADD PUSH3 0xC91 SWAP2 SWAP1 PUSH3 0x13FD JUMP JUMPDEST POP POP POP SWAP1 SUB SWAP1 JUMP JUMPDEST EXTCODESIZE ISZERO ISZERO SWAP1 JUMP JUMPDEST PUSH1 0x40 MLOAD DUP1 PUSH1 0x60 ADD PUSH1 0x40 MSTORE DUP1 PUSH1 0x0 DUP2 MSTORE PUSH1 0x20 ADD PUSH1 0x0 DUP2 MSTORE PUSH1 0x20 ADD PUSH1 0x0 DUP2 MSTORE POP SWAP1 JUMP JUMPDEST PUSH2 0x1157 DUP1 PUSH3 0x1534 DUP4 CODECOPY ADD SWAP1 JUMP JUMPDEST DUP1 CALLDATALOAD PUSH3 0x617 DUP2 PUSH3 0x1511 JUMP JUMPDEST DUP1 CALLDATALOAD PUSH3 0x617 DUP2 PUSH3 0x1528 JUMP JUMPDEST DUP1 MLOAD PUSH3 0x617 DUP2 PUSH3 0x1528 JUMP JUMPDEST PUSH1 0x0 PUSH1 0x20 DUP3 DUP5 SUB SLT ISZERO PUSH3 0x105D JUMPI PUSH1 0x0 DUP1 REVERT JUMPDEST PUSH1 0x0 PUSH3 0x106B DUP5 DUP5 PUSH3 0x1023 JUMP JUMPDEST SWAP5 SWAP4 POP POP POP POP JUMP JUMPDEST PUSH1 0x0 DUP1 PUSH1 0x40 DUP4 DUP6 SUB SLT ISZERO PUSH3 0x1087 JUMPI PUSH1 0x0 DUP1 REVERT JUMPDEST PUSH1 0x0 PUSH3 0x1095 DUP6 DUP6 PUSH3 0x1023 JUMP JUMPDEST SWAP3 POP POP PUSH1 0x20 PUSH3 0x10A8 DUP6 DUP3 DUP7 ADD PUSH3 0x1023 JUMP JUMPDEST SWAP2 POP POP SWAP3 POP SWAP3 SWAP1 POP JUMP JUMPDEST PUSH1 0x0 DUP1 PUSH1 0x0 PUSH1 0x60 DUP5 DUP7 SUB SLT ISZERO PUSH3 0x10C8 JUMPI PUSH1 0x0 DUP1 REVERT JUMPDEST PUSH1 0x0 PUSH3 0x10D6 DUP7 DUP7 PUSH3 0x1023 JUMP JUMPDEST SWAP4 POP POP PUSH1 0x20 PUSH3 0x10E9 DUP7 DUP3 DUP8 ADD PUSH3 0x1023 JUMP JUMPDEST SWAP3 POP POP PUSH1 0x40 PUSH3 0x10FC DUP7 DUP3 DUP8 ADD PUSH3 0x1030 JUMP JUMPDEST SWAP2 POP POP SWAP3 POP SWAP3 POP SWAP3 JUMP JUMPDEST PUSH1 0x0 DUP1 PUSH1 0x40 DUP4 DUP6 SUB SLT ISZERO PUSH3 0x111A JUMPI PUSH1 0x0 DUP1 REVERT JUMPDEST PUSH1 0x0 PUSH3 0x1128 DUP6 DUP6 PUSH3 0x1023 JUMP JUMPDEST SWAP3 POP POP PUSH1 0x20 PUSH3 0x10A8 DUP6 DUP3 DUP7 ADD PUSH3 0x1030 JUMP JUMPDEST PUSH1 0x0 PUSH1 0x20 DUP3 DUP5 SUB SLT ISZERO PUSH3 0x114E JUMPI PUSH1 0x0 DUP1 REVERT JUMPDEST PUSH1 0x0 PUSH3 0x106B DUP5 DUP5 PUSH3 0x1030 JUMP JUMPDEST PUSH1 0x0 PUSH1 0x20 DUP3 DUP5 SUB SLT ISZERO PUSH3 0x116F JUMPI PUSH1 0x0 DUP1 REVERT JUMPDEST PUSH1 0x0 PUSH3 0x106B DUP5 DUP5 PUSH3 0x103D JUMP JUMPDEST PUSH1 0x0 DUP1 PUSH1 0x40 DUP4 DUP6 SUB SLT ISZERO PUSH3 0x1191 JUMPI PUSH1 0x0 DUP1 REVERT JUMPDEST PUSH1 0x0 PUSH3 0x1128 DUP6 DUP6 PUSH3 0x1030 JUMP JUMPDEST PUSH3 0x11AA DUP2 PUSH3 0x1473 JUMP JUMPDEST DUP3 MSTORE POP POP JUMP JUMPDEST PUSH3 0x11AA DUP2 PUSH3 0x1480 JUMP JUMPDEST PUSH3 0x11AA PUSH3 0x11CA DUP3 PUSH3 0x1485 JUMP JUMPDEST PUSH3 0x1492 JUMP JUMPDEST PUSH3 0x11AA PUSH3 0x11CA DUP3 PUSH3 0x1492 JUMP JUMPDEST PUSH1 0x0 PUSH3 0x11EC DUP3 PUSH3 0x1466 JUMP JUMPDEST PUSH3 0x11F8 DUP2 DUP6 PUSH3 0x630 JUMP JUMPDEST SWAP4 POP PUSH3 0x120A DUP2 DUP6 PUSH1 0x20 DUP7 ADD PUSH3 0x14CD JUMP JUMPDEST SWAP3 SWAP1 SWAP3 ADD SWAP3 SWAP2 POP POP JUMP JUMPDEST PUSH3 0x11AA DUP2 PUSH3 0x14B3 JUMP JUMPDEST PUSH3 0x11AA DUP2 PUSH3 0x14C0 JUMP JUMPDEST PUSH1 0x0 PUSH3 0x1237 DUP3 PUSH3 0x1466 JUMP JUMPDEST PUSH3 0x1243 DUP2 DUP6 PUSH3 0x146A JUMP JUMPDEST SWAP4 POP PUSH3 0x1255 DUP2 DUP6 PUSH1 0x20 DUP7 ADD PUSH3 0x14CD JUMP JUMPDEST PUSH3 0x1260 DUP2 PUSH3 0x14FC JUMP JUMPDEST SWAP1 SWAP4 ADD SWAP4 SWAP3 POP POP POP JUMP JUMPDEST PUSH1 0x0 PUSH3 0x1279 PUSH1 0x1B DUP4 PUSH3 0x146A JUMP JUMPDEST PUSH32 0x536166654D6174683A206164646974696F6E206F766572666C6F770000000000 DUP2 MSTORE PUSH1 0x20 ADD SWAP3 SWAP2 POP POP JUMP JUMPDEST PUSH1 0x0 PUSH3 0x12B4 PUSH1 0x21 DUP4 PUSH3 0x146A JUMP JUMPDEST PUSH32 0x536166654D6174683A206D756C7469706C69636174696F6E206F766572666C6F DUP2 MSTORE PUSH1 0x77 PUSH1 0xF8 SHL PUSH1 0x20 DUP3 ADD MSTORE PUSH1 0x40 ADD SWAP3 SWAP2 POP POP JUMP JUMPDEST PUSH1 0x0 PUSH3 0x12F9 PUSH1 0x3B DUP4 PUSH3 0x146A JUMP JUMPDEST PUSH32 0x43616E6E6F742073657420612070726F787920696D706C656D656E746174696F DUP2 MSTORE PUSH32 0x6E20746F2061206E6F6E2D636F6E747261637420616464726573730000000000 PUSH1 0x20 DUP3 ADD MSTORE PUSH1 0x40 ADD SWAP3 SWAP2 POP POP JUMP JUMPDEST PUSH3 0x11AA DUP2 PUSH3 0x1492 JUMP JUMPDEST PUSH3 0x11AA DUP2 PUSH3 0x14AD JUMP JUMPDEST PUSH1 0x0 PUSH3 0x136F DUP3 DUP5 PUSH3 0x11D0 JUMP JUMPDEST POP PUSH1 0x20 ADD SWAP2 SWAP1 POP JUMP JUMPDEST PUSH1 0x0 PUSH3 0x96D DUP3 DUP5 PUSH3 0x11DF JUMP JUMPDEST PUSH1 0x0 PUSH3 0x1394 DUP3 DUP7 PUSH3 0x11DF JUMP JUMPDEST SWAP2 POP PUSH3 0x13A2 DUP3 DUP6 PUSH3 0x11BB JUMP JUMPDEST PUSH1 0x2 DUP3 ADD SWAP2 POP PUSH3 0x13B4 DUP3 DUP5 PUSH3 0x11DF JUMP JUMPDEST SWAP6 SWAP5 POP POP POP POP POP JUMP JUMPDEST PUSH1 0x20 DUP2 ADD PUSH3 0x617 DUP3 DUP5 PUSH3 0x119F JUMP JUMPDEST PUSH1 0x20 DUP2 ADD PUSH3 0x617 DUP3 DUP5 PUSH3 0x11B0 JUMP JUMPDEST PUSH1 0x20 DUP2 ADD PUSH3 0x617 DUP3 DUP5 PUSH3 0x1214 JUMP JUMPDEST PUSH1 0x20 DUP2 ADD PUSH3 0x617 DUP3 DUP5 PUSH3 0x121F JUMP JUMPDEST PUSH1 0x20 DUP1 DUP3 MSTORE DUP2 ADD PUSH3 0x96D DUP2 DUP5 PUSH3 0x122A JUMP JUMPDEST PUSH1 0x20 DUP1 DUP3 MSTORE DUP2 ADD PUSH3 0x617 DUP2 PUSH3 0x126A JUMP JUMPDEST PUSH1 0x20 DUP1 DUP3 MSTORE DUP2 ADD PUSH3 0x617 DUP2 PUSH3 0x12A5 JUMP JUMPDEST PUSH1 0x20 DUP1 DUP3 MSTORE DUP2 ADD PUSH3 0x617 DUP2 PUSH3 0x12EA JUMP JUMPDEST PUSH1 0x20 DUP2 ADD PUSH3 0x617 DUP3 DUP5 PUSH3 0x134B JUMP JUMPDEST PUSH1 0x20 DUP2 ADD PUSH3 0x617 DUP3 DUP5 PUSH3 0x1356 JUMP JUMPDEST MLOAD SWAP1 JUMP JUMPDEST SWAP1 DUP2 MSTORE PUSH1 0x20 ADD SWAP1 JUMP JUMPDEST PUSH1 0x0 PUSH3 0x617 DUP3 PUSH3 0x14A1 JUMP JUMPDEST ISZERO ISZERO SWAP1 JUMP JUMPDEST PUSH1 0x1 PUSH1 0x1 PUSH1 0xF0 SHL SUB NOT AND SWAP1 JUMP JUMPDEST SWAP1 JUMP JUMPDEST DUP1 PUSH3 0x630 DUP2 PUSH3 0x1506 JUMP JUMPDEST PUSH1 0x1 PUSH1 0x1 PUSH1 0xA0 SHL SUB AND SWAP1 JUMP JUMPDEST PUSH1 0xFF AND SWAP1 JUMP JUMPDEST PUSH1 0x0 PUSH3 0x617 DUP3 PUSH3 0x1473 JUMP JUMPDEST PUSH1 0x0 PUSH3 0x617 DUP3 PUSH3 0x1495 JUMP JUMPDEST PUSH1 0x0 JUMPDEST DUP4 DUP2 LT ISZERO PUSH3 0x14EA JUMPI DUP2 DUP2 ADD MLOAD DUP4 DUP3 ADD MSTORE PUSH1 0x20 ADD PUSH3 0x14D0 JUMP JUMPDEST DUP4 DUP2 GT ISZERO PUSH3 0x90F JUMPI POP POP PUSH1 0x0 SWAP2 ADD MSTORE JUMP JUMPDEST PUSH1 0x1F ADD PUSH1 0x1F NOT AND SWAP1 JUMP JUMPDEST PUSH1 0x3 DUP2 LT PUSH3 0x6FB JUMPI INVALID JUMPDEST PUSH3 0x151C DUP2 PUSH3 0x1473 JUMP JUMPDEST DUP2 EQ PUSH3 0x6FB JUMPI PUSH1 0x0 DUP1 REVERT JUMPDEST PUSH3 0x151C DUP2 PUSH3 0x1492 JUMP INVALID PUSH1 0x80 PUSH1 0x40 MSTORE CALLVALUE DUP1 ISZERO PUSH2 0x10 JUMPI PUSH1 0x0 DUP1 REVERT JUMPDEST POP PUSH1 0x40 MLOAD PUSH2 0x1157 CODESIZE SUB DUP1 PUSH2 0x1157 DUP4 CODECOPY DUP2 ADD PUSH1 0x40 DUP2 SWAP1 MSTORE PUSH2 0x2F SWAP2 PUSH2 0x73 JUMP JUMPDEST PUSH1 0x0 DUP1 SLOAD CALLER PUSH1 0x1 PUSH1 0x1 PUSH1 0xA0 SHL SUB NOT SWAP2 DUP3 AND OR SWAP1 SWAP2 SSTORE PUSH1 0x1 DUP1 SLOAD SWAP1 SWAP2 AND PUSH1 0x1 PUSH1 0x1 PUSH1 0xA0 SHL SUB SWAP3 SWAP1 SWAP3 AND SWAP2 SWAP1 SWAP2 OR SWAP1 SSTORE PUSH2 0xC1 JUMP JUMPDEST DUP1 MLOAD PUSH2 0x6D DUP2 PUSH2 0xAA JUMP JUMPDEST SWAP3 SWAP2 POP POP JUMP JUMPDEST PUSH1 0x0 PUSH1 0x20 DUP3 DUP5 SUB SLT ISZERO PUSH2 0x85 JUMPI PUSH1 0x0 DUP1 REVERT JUMPDEST PUSH1 0x0 PUSH2 0x91 DUP5 DUP5 PUSH2 0x62 JUMP JUMPDEST SWAP5 SWAP4 POP POP POP POP JUMP JUMPDEST PUSH1 0x0 PUSH1 0x1 PUSH1 0x1 PUSH1 0xA0 SHL SUB DUP3 AND PUSH2 0x6D JUMP JUMPDEST PUSH2 0xB3 DUP2 PUSH2 0x99 JUMP JUMPDEST DUP2 EQ PUSH2 0xBE JUMPI PUSH1 0x0 DUP1 REVERT JUMPDEST POP JUMP JUMPDEST PUSH2 0x1087 DUP1 PUSH2 0xD0 PUSH1 0x0 CODECOPY PUSH1 0x0 RETURN INVALID PUSH1 0x80 PUSH1 0x40 MSTORE CALLVALUE DUP1 ISZERO PUSH2 0x10 JUMPI PUSH1 0x0 DUP1 REVERT JUMPDEST POP PUSH1 0x4 CALLDATASIZE LT PUSH2 0x4C JUMPI PUSH1 0x0 CALLDATALOAD PUSH1 0xE0 SHR DUP1 PUSH4 0xA8AA1B31 EQ PUSH2 0x51 JUMPI DUP1 PUSH4 0xBA0BBA40 EQ PUSH2 0x6F JUMPI DUP1 PUSH4 0xCD3293DE EQ PUSH2 0x79 JUMPI DUP1 PUSH4 0xD4A3E9D7 EQ PUSH2 0x8E JUMPI JUMPDEST PUSH1 0x0 DUP1 REVERT JUMPDEST PUSH2 0x59 PUSH2 0xA4 JUMP JUMPDEST PUSH1 0x40 MLOAD PUSH2 0x66 SWAP2 SWAP1 PUSH2 0xF02 JUMP JUMPDEST PUSH1 0x40 MLOAD DUP1 SWAP2 SUB SWAP1 RETURN JUMPDEST PUSH2 0x77 PUSH2 0xB3 JUMP JUMPDEST STOP JUMPDEST PUSH2 0x81 PUSH2 0x307 JUMP JUMPDEST PUSH1 0x40 MLOAD PUSH2 0x66 SWAP2 SWAP1 PUSH2 0xF77 JUMP JUMPDEST PUSH2 0x96 PUSH2 0x30D JUMP JUMPDEST PUSH1 0x40 MLOAD PUSH2 0x66 SWAP3 SWAP2 SWAP1 PUSH2 0xF5C JUMP JUMPDEST PUSH1 0x2 SLOAD PUSH1 0x1 PUSH1 0x1 PUSH1 0xA0 SHL SUB AND SWAP1 JUMP JUMPDEST PUSH1 0x0 SLOAD PUSH2 0xDF SWAP1 PUSH1 0x1 PUSH1 0x1 PUSH1 0xA0 SHL SUB AND CALLER EQ PUSH6 0x4F7261636C65 PUSH1 0xD0 SHL PUSH7 0x4E6F742064616F PUSH1 0xC8 SHL PUSH2 0x380 JUMP JUMPDEST PUSH1 0x1 SLOAD PUSH20 0xBCFCCBDE45CE874ADCB698CC183DEBCF17952812 SWAP1 PUSH4 0xC9C65396 SWAP1 PUSH1 0x1 PUSH1 0x1 PUSH1 0xA0 SHL SUB AND PUSH2 0x10F PUSH2 0x3E3 JUMP JUMPDEST PUSH1 0x40 MLOAD DUP4 PUSH4 0xFFFFFFFF AND PUSH1 0xE0 SHL DUP2 MSTORE PUSH1 0x4 ADD PUSH2 0x12C SWAP3 SWAP2 SWAP1 PUSH2 0xF10 JUMP JUMPDEST PUSH1 0x20 PUSH1 0x40 MLOAD DUP1 DUP4 SUB DUP2 PUSH1 0x0 DUP8 DUP1 EXTCODESIZE ISZERO DUP1 ISZERO PUSH2 0x146 JUMPI PUSH1 0x0 DUP1 REVERT JUMPDEST POP GAS CALL ISZERO DUP1 ISZERO PUSH2 0x15A JUMPI RETURNDATASIZE PUSH1 0x0 DUP1 RETURNDATACOPY RETURNDATASIZE PUSH1 0x0 REVERT JUMPDEST POP POP POP POP PUSH1 0x40 MLOAD RETURNDATASIZE PUSH1 0x1F NOT PUSH1 0x1F DUP3 ADD AND DUP3 ADD DUP1 PUSH1 0x40 MSTORE POP PUSH2 0x17E SWAP2 SWAP1 DUP2 ADD SWAP1 PUSH2 0xCD5 JUMP JUMPDEST PUSH1 0x2 DUP1 SLOAD PUSH1 0x1 PUSH1 0x1 PUSH1 0xA0 SHL SUB NOT AND PUSH1 0x1 PUSH1 0x1 PUSH1 0xA0 SHL SUB SWAP3 DUP4 AND OR SWAP1 DUP2 SWAP1 SSTORE PUSH1 0x40 DUP1 MLOAD PUSH4 0xDFE1681 PUSH1 0xE0 SHL DUP2 MSTORE SWAP1 MLOAD PUSH1 0x0 SWAP4 DUP5 SWAP4 AND SWAP2 PUSH4 0xDFE1681 SWAP2 PUSH1 0x4 DUP1 DUP4 ADD SWAP3 PUSH1 0x20 SWAP3 SWAP2 SWAP1 DUP3 SWAP1 SUB ADD DUP2 DUP7 DUP1 EXTCODESIZE ISZERO DUP1 ISZERO PUSH2 0x1D8 JUMPI PUSH1 0x0 DUP1 REVERT JUMPDEST POP GAS STATICCALL ISZERO DUP1 ISZERO PUSH2 0x1EC JUMPI RETURNDATASIZE PUSH1 0x0 DUP1 RETURNDATACOPY RETURNDATASIZE PUSH1 0x0 REVERT JUMPDEST POP POP POP POP PUSH1 0x40 MLOAD RETURNDATASIZE PUSH1 0x1F NOT PUSH1 0x1F DUP3 ADD AND DUP3 ADD DUP1 PUSH1 0x40 MSTORE POP PUSH2 0x210 SWAP2 SWAP1 DUP2 ADD SWAP1 PUSH2 0xCD5 JUMP JUMPDEST PUSH1 0x2 PUSH1 0x0 SWAP1 SLOAD SWAP1 PUSH2 0x100 EXP SWAP1 DIV PUSH1 0x1 PUSH1 0x1 PUSH1 0xA0 SHL SUB AND PUSH1 0x1 PUSH1 0x1 PUSH1 0xA0 SHL SUB AND PUSH4 0xD21220A7 PUSH1 0x40 MLOAD DUP2 PUSH4 0xFFFFFFFF AND PUSH1 0xE0 SHL DUP2 MSTORE PUSH1 0x4 ADD PUSH1 0x20 PUSH1 0x40 MLOAD DUP1 DUP4 SUB DUP2 DUP7 DUP1 EXTCODESIZE ISZERO DUP1 ISZERO PUSH2 0x25E JUMPI PUSH1 0x0 DUP1 REVERT JUMPDEST POP GAS STATICCALL ISZERO DUP1 ISZERO PUSH2 0x272 JUMPI RETURNDATASIZE PUSH1 0x0 DUP1 RETURNDATACOPY RETURNDATASIZE PUSH1 0x0 REVERT JUMPDEST POP POP POP POP PUSH1 0x40 MLOAD RETURNDATASIZE PUSH1 0x1F NOT PUSH1 0x1F DUP3 ADD AND DUP3 ADD DUP1 PUSH1 0x40 MSTORE POP PUSH2 0x296 SWAP2 SWAP1 DUP2 ADD SWAP1 PUSH2 0xCD5 JUMP JUMPDEST PUSH1 0x1 SLOAD SWAP2 SWAP4 POP SWAP2 POP PUSH1 0x1 PUSH1 0x1 PUSH1 0xA0 SHL SUB DUP1 DUP5 AND SWAP2 AND EQ PUSH2 0x2B7 JUMPI PUSH1 0x1 PUSH2 0x2BA JUMP JUMPDEST PUSH1 0x0 JUMPDEST PUSH1 0xFF AND PUSH1 0x3 DUP2 SWAP1 SSTORE PUSH2 0x303 SWAP1 ISZERO DUP1 PUSH2 0x2DF JUMPI POP PUSH1 0x1 SLOAD PUSH1 0x1 PUSH1 0x1 PUSH1 0xA0 SHL SUB DUP4 DUP2 AND SWAP2 AND EQ JUMPDEST PUSH6 0x4F7261636C65 PUSH1 0xD0 SHL PUSH17 0x1130EE1B1B185C881B9BDD08199BDD5B99 PUSH1 0x7A SHL PUSH2 0x380 JUMP JUMPDEST POP POP JUMP JUMPDEST PUSH1 0x6 SLOAD SWAP1 JUMP JUMPDEST PUSH2 0x315 PUSH2 0xC79 JUMP JUMPDEST PUSH1 0x0 DUP1 SLOAD PUSH2 0x342 SWAP1 PUSH1 0x1 PUSH1 0x1 PUSH1 0xA0 SHL SUB AND CALLER EQ PUSH6 0x4F7261636C65 PUSH1 0xD0 SHL PUSH7 0x4E6F742064616F PUSH1 0xC8 SHL PUSH2 0x380 JUMP JUMPDEST PUSH1 0x1 SLOAD PUSH1 0x1 PUSH1 0xA0 SHL SWAP1 DIV PUSH1 0xFF AND ISZERO PUSH2 0x365 JUMPI PUSH2 0x35C PUSH2 0x3F2 JUMP JUMPDEST SWAP2 POP SWAP2 POP PUSH2 0x37C JUMP JUMPDEST PUSH2 0x36D PUSH2 0x4E7 JUMP JUMPDEST PUSH2 0x375 PUSH2 0x6F1 JUMP JUMPDEST PUSH1 0x0 SWAP2 POP SWAP2 POP JUMPDEST SWAP1 SWAP2 JUMP JUMPDEST DUP3 PUSH2 0x3DE JUMPI PUSH2 0x38E DUP3 PUSH2 0x713 JUMP JUMPDEST PUSH2 0x1D1 PUSH1 0xF5 SHL PUSH2 0x39D DUP4 PUSH2 0x713 JUMP JUMPDEST PUSH1 0x40 MLOAD PUSH1 0x20 ADD PUSH2 0x3AF SWAP4 SWAP3 SWAP2 SWAP1 PUSH2 0xED1 JUMP JUMPDEST PUSH1 0x40 DUP1 MLOAD PUSH1 0x1F NOT DUP2 DUP5 SUB ADD DUP2 MSTORE SWAP1 DUP3 SWAP1 MSTORE PUSH3 0x461BCD PUSH1 0xE5 SHL DUP3 MSTORE PUSH2 0x3D5 SWAP2 PUSH1 0x4 ADD PUSH2 0xF2B JUMP JUMPDEST PUSH1 0x40 MLOAD DUP1 SWAP2 SUB SWAP1 REVERT JUMPDEST POP POP POP JUMP JUMPDEST PUSH1 0x0 PUSH2 0x3ED PUSH2 0x795 JUMP JUMPDEST SWAP1 POP SWAP1 JUMP JUMPDEST PUSH2 0x3FA PUSH2 0xC79 JUMP JUMPDEST PUSH1 0x0 PUSH2 0x404 PUSH2 0xC79 JUMP JUMPDEST PUSH2 0x40C PUSH2 0x7AD JUMP JUMPDEST SWAP1 POP PUSH1 0x0 PUSH2 0x418 PUSH2 0x84A JUMP JUMPDEST SWAP1 POP PUSH1 0x0 PUSH2 0x424 PUSH2 0x3E3 JUMP JUMPDEST PUSH1 0x2 SLOAD PUSH1 0x40 MLOAD PUSH4 0xFE575A87 PUSH1 0xE0 SHL DUP2 MSTORE PUSH1 0x1 PUSH1 0x1 PUSH1 0xA0 SHL SUB SWAP3 DUP4 AND SWAP3 PUSH4 0xFE575A87 SWAP3 PUSH2 0x455 SWAP3 SWAP2 AND SWAP1 PUSH1 0x4 ADD PUSH2 0xF02 JUMP JUMPDEST PUSH1 0x20 PUSH1 0x40 MLOAD DUP1 DUP4 SUB DUP2 DUP7 DUP1 EXTCODESIZE ISZERO DUP1 ISZERO PUSH2 0x46D JUMPI PUSH1 0x0 DUP1 REVERT JUMPDEST POP GAS STATICCALL ISZERO DUP1 ISZERO PUSH2 0x481 JUMPI RETURNDATASIZE PUSH1 0x0 DUP1 RETURNDATACOPY RETURNDATASIZE PUSH1 0x0 REVERT JUMPDEST POP POP POP POP PUSH1 0x40 MLOAD RETURNDATASIZE PUSH1 0x1F NOT PUSH1 0x1F DUP3 ADD AND DUP3 ADD DUP1 PUSH1 0x40 MSTORE POP PUSH2 0x4A5 SWAP2 SWAP1 DUP2 ADD SWAP1 PUSH2 0xCFB JUMP JUMPDEST SWAP1 POP PUSH1 0x1 PUSH2 0x4B1 PUSH2 0x906 JUMP JUMPDEST DUP4 LT ISZERO PUSH2 0x4BC JUMPI POP PUSH1 0x0 JUMPDEST PUSH2 0x4C4 PUSH2 0x906 JUMP JUMPDEST PUSH1 0x6 SLOAD LT ISZERO PUSH2 0x4D1 JUMPI POP PUSH1 0x0 JUMPDEST DUP2 ISZERO PUSH2 0x4DB JUMPI POP PUSH1 0x0 JUMPDEST SWAP3 SWAP5 POP SWAP2 SWAP3 POP POP POP SWAP1 SWAP2 JUMP JUMPDEST PUSH1 0x2 SLOAD PUSH1 0x3 SLOAD PUSH1 0x1 PUSH1 0x1 PUSH1 0xA0 SHL SUB SWAP1 SWAP2 AND SWAP1 PUSH1 0x0 SWAP1 ISZERO PUSH2 0x577 JUMPI DUP2 PUSH1 0x1 PUSH1 0x1 PUSH1 0xA0 SHL SUB AND PUSH4 0x5A3D5493 PUSH1 0x40 MLOAD DUP2 PUSH4 0xFFFFFFFF AND PUSH1 0xE0 SHL DUP2 MSTORE PUSH1 0x4 ADD PUSH1 0x20 PUSH1 0x40 MLOAD DUP1 DUP4 SUB DUP2 DUP7 DUP1 EXTCODESIZE ISZERO DUP1 ISZERO PUSH2 0x53A JUMPI PUSH1 0x0 DUP1 REVERT JUMPDEST POP GAS STATICCALL ISZERO DUP1 ISZERO PUSH2 0x54E JUMPI RETURNDATASIZE PUSH1 0x0 DUP1 RETURNDATACOPY RETURNDATASIZE PUSH1 0x0 REVERT JUMPDEST POP POP POP POP PUSH1 0x40 MLOAD RETURNDATASIZE PUSH1 0x1F NOT PUSH1 0x1F DUP3 ADD AND DUP3 ADD DUP1 PUSH1 0x40 MSTORE POP PUSH2 0x572 SWAP2 SWAP1 DUP2 ADD SWAP1 PUSH2 0xD66 JUMP JUMPDEST PUSH2 0x5E8 JUMP JUMPDEST DUP2 PUSH1 0x1 PUSH1 0x1 PUSH1 0xA0 SHL SUB AND PUSH4 0x5909C0D5 PUSH1 0x40 MLOAD DUP2 PUSH4 0xFFFFFFFF AND PUSH1 0xE0 SHL DUP2 MSTORE PUSH1 0x4 ADD PUSH1 0x20 PUSH1 0x40 MLOAD DUP1 DUP4 SUB DUP2 DUP7 DUP1 EXTCODESIZE ISZERO DUP1 ISZERO PUSH2 0x5B0 JUMPI PUSH1 0x0 DUP1 REVERT JUMPDEST POP GAS STATICCALL ISZERO DUP1 ISZERO PUSH2 0x5C4 JUMPI RETURNDATASIZE PUSH1 0x0 DUP1 RETURNDATACOPY RETURNDATASIZE PUSH1 0x0 REVERT JUMPDEST POP POP POP POP PUSH1 0x40 MLOAD RETURNDATASIZE PUSH1 0x1F NOT PUSH1 0x1F DUP3 ADD AND DUP3 ADD DUP1 PUSH1 0x40 MSTORE POP PUSH2 0x5E8 SWAP2 SWAP1 DUP2 ADD SWAP1 PUSH2 0xD66 JUMP JUMPDEST SWAP1 POP PUSH1 0x0 DUP1 PUSH1 0x0 DUP5 PUSH1 0x1 PUSH1 0x1 PUSH1 0xA0 SHL SUB AND PUSH4 0x902F1AC PUSH1 0x40 MLOAD DUP2 PUSH4 0xFFFFFFFF AND PUSH1 0xE0 SHL DUP2 MSTORE PUSH1 0x4 ADD PUSH1 0x60 PUSH1 0x40 MLOAD DUP1 DUP4 SUB DUP2 DUP7 DUP1 EXTCODESIZE ISZERO DUP1 ISZERO PUSH2 0x628 JUMPI PUSH1 0x0 DUP1 REVERT JUMPDEST POP GAS STATICCALL ISZERO DUP1 ISZERO PUSH2 0x63C JUMPI RETURNDATASIZE PUSH1 0x0 DUP1 RETURNDATACOPY RETURNDATASIZE PUSH1 0x0 REVERT JUMPDEST POP POP POP POP PUSH1 0x40 MLOAD RETURNDATASIZE PUSH1 0x1F NOT PUSH1 0x1F DUP3 ADD AND DUP3 ADD DUP1 PUSH1 0x40 MSTORE POP PUSH2 0x660 SWAP2 SWAP1 DUP2 ADD SWAP1 PUSH2 0xD19 JUMP JUMPDEST SWAP3 POP SWAP3 POP SWAP3 POP DUP3 PUSH1 0x1 PUSH1 0x1 PUSH1 0x70 SHL SUB AND PUSH1 0x0 EQ ISZERO DUP1 ISZERO PUSH2 0x688 JUMPI POP PUSH1 0x1 PUSH1 0x1 PUSH1 0x70 SHL SUB DUP3 AND ISZERO ISZERO JUMPDEST DUP1 ISZERO PUSH2 0x699 JUMPI POP PUSH4 0xFFFFFFFF DUP2 AND ISZERO ISZERO JUMPDEST ISZERO PUSH2 0x6EA JUMPI PUSH1 0x4 DUP5 SWAP1 SSTORE PUSH1 0x5 DUP1 SLOAD PUSH4 0xFFFFFFFF DUP4 AND PUSH4 0xFFFFFFFF NOT SWAP1 SWAP2 AND OR SWAP1 SSTORE PUSH1 0x1 DUP1 SLOAD PUSH1 0xFF PUSH1 0xA0 SHL NOT AND PUSH1 0x1 PUSH1 0xA0 SHL OR SWAP1 SSTORE PUSH1 0x3 SLOAD ISZERO PUSH2 0x6DB JUMPI DUP3 PUSH2 0x6DD JUMP JUMPDEST DUP2 JUMPDEST PUSH1 0x1 PUSH1 0x1 PUSH1 0x70 SHL SUB AND PUSH1 0x6 SSTORE JUMPDEST POP POP POP POP POP JUMP JUMPDEST PUSH2 0x6F9 PUSH2 0xC79 JUMP JUMPDEST POP PUSH1 0x40 DUP1 MLOAD PUSH1 0x20 DUP2 ADD SWAP1 SWAP2 MSTORE PUSH8 0xDE0B6B3A7640000 DUP2 MSTORE SWAP1 JUMP JUMPDEST PUSH1 0x60 DUP1 DUP3 PUSH1 0x40 MLOAD PUSH1 0x20 ADD PUSH2 0x727 SWAP2 SWAP1 PUSH2 0xEBC JUMP JUMPDEST PUSH1 0x40 DUP1 MLOAD PUSH1 0x1F NOT DUP2 DUP5 SUB ADD DUP2 MSTORE SWAP2 SWAP1 MSTORE SWAP1 POP PUSH1 0x20 JUMPDEST DUP1 ISZERO PUSH2 0x77C JUMPI DUP2 MLOAD PUSH1 0x0 NOT SWAP1 SWAP2 ADD SWAP1 DUP3 SWAP1 DUP3 SWAP1 DUP2 LT PUSH2 0x757 JUMPI INVALID JUMPDEST ADD PUSH1 0x20 ADD MLOAD PUSH1 0x1 PUSH1 0x1 PUSH1 0xF8 SHL SUB NOT AND ISZERO PUSH2 0x777 JUMPI PUSH1 0x1 ADD DUP2 MSTORE SWAP1 POP PUSH2 0x790 JUMP JUMPDEST PUSH2 0x73C JUMP JUMPDEST POP POP PUSH1 0x40 DUP1 MLOAD PUSH1 0x0 DUP2 MSTORE PUSH1 0x20 DUP2 ADD SWAP1 SWAP2 MSTORE SWAP1 POP JUMPDEST SWAP2 SWAP1 POP JUMP JUMPDEST PUSH20 0xE9E7CEA3DEDCA5984780BAFC599BD69ADD087D56 SWAP1 JUMP JUMPDEST PUSH2 0x7B5 PUSH2 0xC79 JUMP JUMPDEST PUSH1 0x2 SLOAD PUSH1 0x0 SWAP1 DUP2 SWAP1 DUP2 SWAP1 PUSH2 0x7D1 SWAP1 PUSH1 0x1 PUSH1 0x1 PUSH1 0xA0 SHL SUB AND PUSH2 0x914 JUMP JUMPDEST PUSH1 0x5 SLOAD PUSH1 0x3 SLOAD SWAP4 SWAP7 POP SWAP2 SWAP5 POP SWAP3 POP PUSH4 0xFFFFFFFF AND DUP3 SUB SWAP1 PUSH1 0x0 SWAP1 ISZERO PUSH2 0x7F6 JUMPI DUP4 PUSH2 0x7F8 JUMP JUMPDEST DUP5 JUMPDEST SWAP1 POP PUSH2 0x802 PUSH2 0xC79 JUMP JUMPDEST PUSH2 0x823 DUP4 PUSH4 0xFFFFFFFF AND PUSH1 0x4 SLOAD DUP5 SUB DUP2 PUSH2 0x818 JUMPI INVALID JUMPDEST DIV PUSH1 0x1 PUSH1 0x70 SHL PUSH2 0xAE9 JUMP JUMPDEST PUSH1 0x5 DUP1 SLOAD PUSH4 0xFFFFFFFF NOT AND PUSH4 0xFFFFFFFF SWAP7 SWAP1 SWAP7 AND SWAP6 SWAP1 SWAP6 OR SWAP1 SWAP5 SSTORE POP PUSH1 0x4 SSTORE POP SWAP4 SWAP3 POP POP POP JUMP JUMPDEST PUSH1 0x0 DUP1 PUSH1 0x6 SLOAD SWAP1 POP PUSH1 0x0 DUP1 PUSH1 0x2 PUSH1 0x0 SWAP1 SLOAD SWAP1 PUSH2 0x100 EXP SWAP1 DIV PUSH1 0x1 PUSH1 0x1 PUSH1 0xA0 SHL SUB AND PUSH1 0x1 PUSH1 0x1 PUSH1 0xA0 SHL SUB AND PUSH4 0x902F1AC PUSH1 0x40 MLOAD DUP2 PUSH4 0xFFFFFFFF AND PUSH1 0xE0 SHL DUP2 MSTORE PUSH1 0x4 ADD PUSH1 0x60 PUSH1 0x40 MLOAD DUP1 DUP4 SUB DUP2 DUP7 DUP1 EXTCODESIZE ISZERO DUP1 ISZERO PUSH2 0x8A3 JUMPI PUSH1 0x0 DUP1 REVERT JUMPDEST POP GAS STATICCALL ISZERO DUP1 ISZERO PUSH2 0x8B7 JUMPI RETURNDATASIZE PUSH1 0x0 DUP1 RETURNDATACOPY RETURNDATASIZE PUSH1 0x0 REVERT JUMPDEST POP POP POP POP PUSH1 0x40 MLOAD RETURNDATASIZE PUSH1 0x1F NOT PUSH1 0x1F DUP3 ADD AND DUP3 ADD DUP1 PUSH1 0x40 MSTORE POP PUSH2 0x8DB SWAP2 SWAP1 DUP2 ADD SWAP1 PUSH2 0xD19 JUMP JUMPDEST POP SWAP2 POP SWAP2 POP PUSH1 0x3 SLOAD PUSH1 0x0 EQ PUSH2 0x8F0 JUMPI DUP2 PUSH2 0x8F2 JUMP JUMPDEST DUP1 JUMPDEST PUSH1 0x1 PUSH1 0x1 PUSH1 0x70 SHL SUB AND PUSH1 0x6 SSTORE POP SWAP1 SWAP2 POP POP SWAP1 JUMP JUMPDEST PUSH10 0x21E19E0C9BAB2400000 SWAP1 JUMP JUMPDEST PUSH1 0x0 DUP1 PUSH1 0x0 PUSH2 0x921 PUSH2 0xB1A JUMP JUMPDEST SWAP1 POP DUP4 PUSH1 0x1 PUSH1 0x1 PUSH1 0xA0 SHL SUB AND PUSH4 0x5909C0D5 PUSH1 0x40 MLOAD DUP2 PUSH4 0xFFFFFFFF AND PUSH1 0xE0 SHL DUP2 MSTORE PUSH1 0x4 ADD PUSH1 0x20 PUSH1 0x40 MLOAD DUP1 DUP4 SUB DUP2 DUP7 DUP1 EXTCODESIZE ISZERO DUP1 ISZERO PUSH2 0x95C JUMPI PUSH1 0x0 DUP1 REVERT JUMPDEST POP GAS STATICCALL ISZERO DUP1 ISZERO PUSH2 0x970 JUMPI RETURNDATASIZE PUSH1 0x0 DUP1 RETURNDATACOPY RETURNDATASIZE PUSH1 0x0 REVERT JUMPDEST POP POP POP POP PUSH1 0x40 MLOAD RETURNDATASIZE PUSH1 0x1F NOT PUSH1 0x1F DUP3 ADD AND DUP3 ADD DUP1 PUSH1 0x40 MSTORE POP PUSH2 0x994 SWAP2 SWAP1 DUP2 ADD SWAP1 PUSH2 0xD66 JUMP JUMPDEST SWAP3 POP DUP4 PUSH1 0x1 PUSH1 0x1 PUSH1 0xA0 SHL SUB AND PUSH4 0x5A3D5493 PUSH1 0x40 MLOAD DUP2 PUSH4 0xFFFFFFFF AND PUSH1 0xE0 SHL DUP2 MSTORE PUSH1 0x4 ADD PUSH1 0x20 PUSH1 0x40 MLOAD DUP1 DUP4 SUB DUP2 DUP7 DUP1 EXTCODESIZE ISZERO DUP1 ISZERO PUSH2 0x9CF JUMPI PUSH1 0x0 DUP1 REVERT JUMPDEST POP GAS STATICCALL ISZERO DUP1 ISZERO PUSH2 0x9E3 JUMPI RETURNDATASIZE PUSH1 0x0 DUP1 RETURNDATACOPY RETURNDATASIZE PUSH1 0x0 REVERT JUMPDEST POP POP POP POP PUSH1 0x40 MLOAD RETURNDATASIZE PUSH1 0x1F NOT PUSH1 0x1F DUP3 ADD AND DUP3 ADD DUP1 PUSH1 0x40 MSTORE POP PUSH2 0xA07 SWAP2 SWAP1 DUP2 ADD SWAP1 PUSH2 0xD66 JUMP JUMPDEST SWAP2 POP PUSH1 0x0 DUP1 PUSH1 0x0 DUP7 PUSH1 0x1 PUSH1 0x1 PUSH1 0xA0 SHL SUB AND PUSH4 0x902F1AC PUSH1 0x40 MLOAD DUP2 PUSH4 0xFFFFFFFF AND PUSH1 0xE0 SHL DUP2 MSTORE PUSH1 0x4 ADD PUSH1 0x60 PUSH1 0x40 MLOAD DUP1 DUP4 SUB DUP2 DUP7 DUP1 EXTCODESIZE ISZERO DUP1 ISZERO PUSH2 0xA47 JUMPI PUSH1 0x0 DUP1 REVERT JUMPDEST POP GAS STATICCALL ISZERO DUP1 ISZERO PUSH2 0xA5B JUMPI RETURNDATASIZE PUSH1 0x0 DUP1 RETURNDATACOPY RETURNDATASIZE PUSH1 0x0 REVERT JUMPDEST POP POP POP POP PUSH1 0x40 MLOAD RETURNDATASIZE PUSH1 0x1F NOT PUSH1 0x1F DUP3 ADD AND DUP3 ADD DUP1 PUSH1 0x40 MSTORE POP PUSH2 0xA7F SWAP2 SWAP1 DUP2 ADD SWAP1 PUSH2 0xD19 JUMP JUMPDEST SWAP3 POP SWAP3 POP SWAP3 POP DUP4 PUSH4 0xFFFFFFFF AND DUP2 PUSH4 0xFFFFFFFF AND EQ PUSH2 0xADF JUMPI DUP1 DUP5 SUB PUSH4 0xFFFFFFFF DUP2 AND PUSH2 0xAAC DUP5 DUP7 PUSH2 0xB24 JUMP JUMPDEST MLOAD PUSH1 0x1 PUSH1 0x1 PUSH1 0xE0 SHL SUB AND MUL SWAP7 SWAP1 SWAP7 ADD SWAP6 PUSH4 0xFFFFFFFF DUP2 AND PUSH2 0xACD DUP6 DUP6 PUSH2 0xB24 JUMP JUMPDEST MLOAD PUSH1 0x1 PUSH1 0x1 PUSH1 0xE0 SHL SUB AND MUL SWAP6 SWAP1 SWAP6 ADD SWAP5 POP JUMPDEST POP POP POP SWAP2 SWAP4 SWAP1 SWAP3 POP JUMP JUMPDEST PUSH2 0xAF1 PUSH2 0xC79 JUMP JUMPDEST PUSH1 0x40 MLOAD DUP1 PUSH1 0x20 ADD PUSH1 0x40 MSTORE DUP1 PUSH2 0xB0F DUP6 PUSH8 0xDE0B6B3A7640000 DUP7 PUSH2 0xB9F JUMP JUMPDEST SWAP1 MSTORE SWAP1 POP JUMPDEST SWAP3 SWAP2 POP POP JUMP JUMPDEST PUSH4 0xFFFFFFFF TIMESTAMP AND SWAP1 JUMP JUMPDEST PUSH2 0xB2C PUSH2 0xC8C JUMP JUMPDEST PUSH1 0x0 DUP3 PUSH1 0x1 PUSH1 0x1 PUSH1 0x70 SHL SUB AND GT PUSH2 0xB55 JUMPI PUSH1 0x40 MLOAD PUSH3 0x461BCD PUSH1 0xE5 SHL DUP2 MSTORE PUSH1 0x4 ADD PUSH2 0x3D5 SWAP1 PUSH2 0xF4C JUMP JUMPDEST PUSH1 0x40 DUP1 MLOAD PUSH1 0x20 DUP2 ADD SWAP1 SWAP2 MSTORE DUP1 PUSH1 0x1 PUSH1 0x1 PUSH1 0x70 SHL SUB DUP5 AND PUSH14 0xFFFFFFFFFFFFFFFFFFFFFFFFFFFF PUSH1 0x70 SHL PUSH1 0x70 DUP8 SWAP1 SHL AND DUP2 PUSH2 0xB8A JUMPI INVALID JUMPDEST DIV PUSH1 0x1 PUSH1 0x1 PUSH1 0xE0 SHL SUB AND DUP2 MSTORE POP SWAP1 POP SWAP3 SWAP2 POP POP JUMP JUMPDEST PUSH1 0x0 PUSH2 0xBC1 DUP3 PUSH2 0xBB5 DUP7 DUP7 PUSH4 0xFFFFFFFF PUSH2 0xBCB AND JUMP JUMPDEST SWAP1 PUSH4 0xFFFFFFFF PUSH2 0xC05 AND JUMP JUMPDEST SWAP1 POP JUMPDEST SWAP4 SWAP3 POP POP POP JUMP JUMPDEST PUSH1 0x0 DUP3 PUSH2 0xBDA JUMPI POP PUSH1 0x0 PUSH2 0xB14 JUMP JUMPDEST DUP3 DUP3 MUL DUP3 DUP5 DUP3 DUP2 PUSH2 0xBE7 JUMPI INVALID JUMPDEST DIV EQ PUSH2 0xBC4 JUMPI PUSH1 0x40 MLOAD PUSH3 0x461BCD PUSH1 0xE5 SHL DUP2 MSTORE PUSH1 0x4 ADD PUSH2 0x3D5 SWAP1 PUSH2 0xF3C JUMP JUMPDEST PUSH1 0x0 PUSH2 0xBC4 DUP4 DUP4 PUSH1 0x40 MLOAD DUP1 PUSH1 0x40 ADD PUSH1 0x40 MSTORE DUP1 PUSH1 0x1A DUP2 MSTORE PUSH1 0x20 ADD PUSH32 0x536166654D6174683A206469766973696F6E206279207A65726F000000000000 DUP2 MSTORE POP PUSH1 0x0 DUP2 DUP4 PUSH2 0xC63 JUMPI PUSH1 0x40 MLOAD PUSH3 0x461BCD PUSH1 0xE5 SHL DUP2 MSTORE PUSH1 0x4 ADD PUSH2 0x3D5 SWAP2 SWAP1 PUSH2 0xF2B JUMP JUMPDEST POP PUSH1 0x0 DUP4 DUP6 DUP2 PUSH2 0xC6F JUMPI INVALID JUMPDEST DIV SWAP6 SWAP5 POP POP POP POP POP JUMP JUMPDEST PUSH1 0x40 MLOAD DUP1 PUSH1 0x20 ADD PUSH1 0x40 MSTORE DUP1 PUSH1 0x0 DUP2 MSTORE POP SWAP1 JUMP JUMPDEST PUSH1 0x40 DUP1 MLOAD PUSH1 0x20 DUP2 ADD SWAP1 SWAP2 MSTORE PUSH1 0x0 DUP2 MSTORE SWAP1 JUMP JUMPDEST DUP1 MLOAD PUSH2 0xB14 DUP2 PUSH2 0x1009 JUMP JUMPDEST DUP1 MLOAD PUSH2 0xB14 DUP2 PUSH2 0x1020 JUMP JUMPDEST DUP1 MLOAD PUSH2 0xB14 DUP2 PUSH2 0x1029 JUMP JUMPDEST DUP1 MLOAD PUSH2 0xB14 DUP2 PUSH2 0x1032 JUMP JUMPDEST DUP1 MLOAD PUSH2 0xB14 DUP2 PUSH2 0x103B JUMP JUMPDEST PUSH1 0x0 PUSH1 0x20 DUP3 DUP5 SUB SLT ISZERO PUSH2 0xCE7 JUMPI PUSH1 0x0 DUP1 REVERT JUMPDEST PUSH1 0x0 PUSH2 0xCF3 DUP5 DUP5 PUSH2 0xC9E JUMP JUMPDEST SWAP5 SWAP4 POP POP POP POP JUMP JUMPDEST PUSH1 0x0 PUSH1 0x20 DUP3 DUP5 SUB SLT ISZERO PUSH2 0xD0D JUMPI PUSH1 0x0 DUP1 REVERT JUMPDEST PUSH1 0x0 PUSH2 0xCF3 DUP5 DUP5 PUSH2 0xCA9 JUMP JUMPDEST PUSH1 0x0 DUP1 PUSH1 0x0 PUSH1 0x60 DUP5 DUP7 SUB SLT ISZERO PUSH2 0xD2E JUMPI PUSH1 0x0 DUP1 REVERT JUMPDEST PUSH1 0x0 PUSH2 0xD3A DUP7 DUP7 PUSH2 0xCB4 JUMP JUMPDEST SWAP4 POP POP PUSH1 0x20 PUSH2 0xD4B DUP7 DUP3 DUP8 ADD PUSH2 0xCB4 JUMP JUMPDEST SWAP3 POP POP PUSH1 0x40 PUSH2 0xD5C DUP7 DUP3 DUP8 ADD PUSH2 0xCCA JUMP JUMPDEST SWAP2 POP POP SWAP3 POP SWAP3 POP SWAP3 JUMP JUMPDEST PUSH1 0x0 PUSH1 0x20 DUP3 DUP5 SUB SLT ISZERO PUSH2 0xD78 JUMPI PUSH1 0x0 DUP1 REVERT JUMPDEST PUSH1 0x0 PUSH2 0xCF3 DUP5 DUP5 PUSH2 0xCBF JUMP JUMPDEST PUSH2 0xD8D DUP2 PUSH2 0xF92 JUMP JUMPDEST DUP3 MSTORE POP POP JUMP JUMPDEST PUSH2 0xD8D DUP2 PUSH2 0xF9D JUMP JUMPDEST PUSH2 0xD8D PUSH2 0xDA8 DUP3 PUSH2 0xFA2 JUMP JUMPDEST PUSH2 0xFAF JUMP JUMPDEST PUSH2 0xD8D PUSH2 0xDA8 DUP3 PUSH2 0xFAF JUMP JUMPDEST PUSH1 0x0 PUSH2 0xDC4 DUP3 PUSH2 0xF85 JUMP JUMPDEST PUSH2 0xDCE DUP2 DUP6 PUSH2 0x790 JUMP JUMPDEST SWAP4 POP PUSH2 0xDDE DUP2 DUP6 PUSH1 0x20 DUP7 ADD PUSH2 0xFD3 JUMP JUMPDEST SWAP3 SWAP1 SWAP3 ADD SWAP3 SWAP2 POP POP JUMP JUMPDEST PUSH1 0x0 PUSH2 0xDF3 DUP3 PUSH2 0xF85 JUMP JUMPDEST PUSH2 0xDFD DUP2 DUP6 PUSH2 0xF89 JUMP JUMPDEST SWAP4 POP PUSH2 0xE0D DUP2 DUP6 PUSH1 0x20 DUP7 ADD PUSH2 0xFD3 JUMP JUMPDEST PUSH2 0xE16 DUP2 PUSH2 0xFFF JUMP JUMPDEST SWAP1 SWAP4 ADD SWAP4 SWAP3 POP POP POP JUMP JUMPDEST PUSH1 0x0 PUSH2 0xE2D PUSH1 0x21 DUP4 PUSH2 0xF89 JUMP JUMPDEST PUSH32 0x536166654D6174683A206D756C7469706C69636174696F6E206F766572666C6F DUP2 MSTORE PUSH1 0x77 PUSH1 0xF8 SHL PUSH1 0x20 DUP3 ADD MSTORE PUSH1 0x40 ADD SWAP3 SWAP2 POP POP JUMP JUMPDEST PUSH1 0x0 PUSH2 0xE70 PUSH1 0x17 DUP4 PUSH2 0xF89 JUMP JUMPDEST PUSH32 0x4669786564506F696E743A204449565F42595F5A45524F000000000000000000 DUP2 MSTORE PUSH1 0x20 ADD SWAP3 SWAP2 POP POP JUMP JUMPDEST DUP1 MLOAD PUSH1 0x20 DUP4 ADD SWAP1 PUSH2 0xEAD DUP5 DUP3 PUSH2 0xEB3 JUMP JUMPDEST POP POP POP POP JUMP JUMPDEST PUSH2 0xD8D DUP2 PUSH2 0xFAF JUMP JUMPDEST PUSH1 0x0 PUSH2 0xEC8 DUP3 DUP5 PUSH2 0xDAD JUMP JUMPDEST POP PUSH1 0x20 ADD SWAP2 SWAP1 POP JUMP JUMPDEST PUSH1 0x0 PUSH2 0xEDD DUP3 DUP7 PUSH2 0xDB9 JUMP JUMPDEST SWAP2 POP PUSH2 0xEE9 DUP3 DUP6 PUSH2 0xD9C JUMP JUMPDEST PUSH1 0x2 DUP3 ADD SWAP2 POP PUSH2 0xEF9 DUP3 DUP5 PUSH2 0xDB9 JUMP JUMPDEST SWAP6 SWAP5 POP POP POP POP POP JUMP JUMPDEST PUSH1 0x20 DUP2 ADD PUSH2 0xB14 DUP3 DUP5 PUSH2 0xD84 JUMP JUMPDEST PUSH1 0x40 DUP2 ADD PUSH2 0xF1E DUP3 DUP6 PUSH2 0xD84 JUMP JUMPDEST PUSH2 0xBC4 PUSH1 0x20 DUP4 ADD DUP5 PUSH2 0xD84 JUMP JUMPDEST PUSH1 0x20 DUP1 DUP3 MSTORE DUP2 ADD PUSH2 0xBC4 DUP2 DUP5 PUSH2 0xDE8 JUMP JUMPDEST PUSH1 0x20 DUP1 DUP3 MSTORE DUP2 ADD PUSH2 0xB14 DUP2 PUSH2 0xE20 JUMP JUMPDEST PUSH1 0x20 DUP1 DUP3 MSTORE DUP2 ADD PUSH2 0xB14 DUP2 PUSH2 0xE63 JUMP JUMPDEST PUSH1 0x40 DUP2 ADD PUSH2 0xF6A DUP3 DUP6 PUSH2 0xE9C JUMP JUMPDEST PUSH2 0xBC4 PUSH1 0x20 DUP4 ADD DUP5 PUSH2 0xD93 JUMP JUMPDEST PUSH1 0x20 DUP2 ADD PUSH2 0xB14 DUP3 DUP5 PUSH2 0xEB3 JUMP JUMPDEST MLOAD SWAP1 JUMP JUMPDEST SWAP1 DUP2 MSTORE PUSH1 0x20 ADD SWAP1 JUMP JUMPDEST PUSH1 0x0 PUSH2 0xB14 DUP3 PUSH2 0xFBE JUMP JUMPDEST ISZERO ISZERO SWAP1 JUMP JUMPDEST PUSH1 0x1 PUSH1 0x1 PUSH1 0xF0 SHL SUB NOT AND SWAP1 JUMP JUMPDEST SWAP1 JUMP JUMPDEST PUSH1 0x1 PUSH1 0x1 PUSH1 0x70 SHL SUB AND SWAP1 JUMP JUMPDEST PUSH1 0x1 PUSH1 0x1 PUSH1 0xA0 SHL SUB AND SWAP1 JUMP JUMPDEST PUSH4 0xFFFFFFFF AND SWAP1 JUMP JUMPDEST PUSH1 0x0 JUMPDEST DUP4 DUP2 LT ISZERO PUSH2 0xFEE JUMPI DUP2 DUP2 ADD MLOAD DUP4 DUP3 ADD MSTORE PUSH1 0x20 ADD PUSH2 0xFD6 JUMP JUMPDEST DUP4 DUP2 GT ISZERO PUSH2 0xEAD JUMPI POP POP PUSH1 0x0 SWAP2 ADD MSTORE JUMP JUMPDEST PUSH1 0x1F ADD PUSH1 0x1F NOT AND SWAP1 JUMP JUMPDEST PUSH2 0x1012 DUP2 PUSH2 0xF92 JUMP JUMPDEST DUP2 EQ PUSH2 0x101D JUMPI PUSH1 0x0 DUP1 REVERT JUMPDEST POP JUMP JUMPDEST PUSH2 0x1012 DUP2 PUSH2 0xF9D JUMP JUMPDEST PUSH2 0x1012 DUP2 PUSH2 0xFB2 JUMP JUMPDEST PUSH2 0x1012 DUP2 PUSH2 0xFAF JUMP JUMPDEST PUSH2 0x1012 DUP2 PUSH2 0xFCA JUMP INVALID LOG3 PUSH6 0x627A7A723158 KECCAK256 0xA9 CALL DUP7 0xF 0xC0 DUP11 0xEA 0xB9 0xF8 PUSH1 0x8 0xC MUL SWAP12 PUSH23 0x2EA2D8491B8B6DE00A07F7C636CB0A287C6C6578706572 PUSH10 0x6D656E74616CF564736F PUSH13 0x63430005110040A365627A7A72 BALANCE PC KECCAK256 CALLCODE PUSH7 0xD51C32BF49EF70 0x4B 0xEC 0xC CALLDATACOPY 0x4F 0xC9 PUSH28 0x55DFFD4D4A3B172D5CC6FA840E62445E6C6578706572696D656E7461 PUSH13 0xF564736F6C6343000511004000 "
		},
		"gasEstimates": {
			"creation": {
				"codeDepositCost": "1986600",
				"executionCost": "2105",
				"totalCost": "1988705"
			},
			"external": {
				"allowance(address,address)": "infinite",
				"allowanceCoupons(address,address)": "infinite",
				"approve(address,uint256)": "infinite",
				"approveFor(address)": "infinite",
				"balanceOf(address)": "infinite",
				"balanceOfBonded(address)": "infinite",
				"balanceOfCoupons(address,uint256)": "infinite",
				"balanceOfStaged(address)": "infinite",
				"bootstrappingAt(uint256)": "infinite",
				"couponsExpiration(uint256)": "infinite",
				"decimals()": "417",
				"dollar()": "infinite",
				"epoch()": "1144",
				"epochTime()": "infinite",
				"expiringCoupons(uint256)": "infinite",
				"expiringCouponsAtIndex(uint256,uint256)": "infinite",
				"implement(address)": "infinite",
				"implementation()": "infinite",
				"initialize()": "infinite",
				"isInitialized(address)": "infinite",
				"isNominated(address)": "infinite",
				"name()": "infinite",
				"oracle()": "infinite",
				"outstandingCoupons(uint256)": "infinite",
				"periodFor(address)": "infinite",
				"pool()": "infinite",
				"recordedVote(address,address)": "infinite",
				"rejectFor(address)": "infinite",
				"startFor(address)": "infinite",
				"statusOf(address)": "infinite",
				"symbol()": "infinite",
				"totalBonded()": "1189",
				"totalBondedAt(uint256)": "infinite",
				"totalCoupons()": "1210",
				"totalDebt()": "1231",
				"totalNet()": "infinite",
				"totalRedeemable()": "1167",
				"totalStaged()": "1143",
				"totalSupply()": "1145",
				"transfer(address,uint256)": "infinite",
				"transferFrom(address,address,uint256)": "infinite",
				"votesFor(address)": "infinite"
			}
		},
		"methodIdentifiers": {
			"allowance(address,address)": "dd62ed3e",
			"allowanceCoupons(address,address)": "9f6e1b26",
			"approve(address,uint256)": "095ea7b3",
			"approveFor(address)": "64668022",
			"balanceOf(address)": "70a08231",
			"balanceOfBonded(address)": "825ad607",
			"balanceOfCoupons(address,uint256)": "bc7513e2",
			"balanceOfStaged(address)": "86cf9f14",
			"bootstrappingAt(uint256)": "75d5024b",
			"couponsExpiration(uint256)": "10e95b6c",
			"decimals()": "313ce567",
			"dollar()": "51adeb57",
			"epoch()": "900cf0cf",
			"epochTime()": "5053e461",
			"expiringCoupons(uint256)": "6a39e328",
			"expiringCouponsAtIndex(uint256,uint256)": "4c736099",
			"implement(address)": "4a960261",
			"implementation()": "5c60da1b",
			"initialize()": "8129fc1c",
			"isInitialized(address)": "d60b347f",
			"isNominated(address)": "3a3e6c81",
			"name()": "06fdde03",
			"oracle()": "7dc0d1d0",
			"outstandingCoupons(uint256)": "c9aff70c",
			"periodFor(address)": "15e14bf6",
			"pool()": "16f0115b",
			"recordedVote(address,address)": "3fbba9a6",
			"rejectFor(address)": "353a420c",
			"startFor(address)": "f1b7cf49",
			"statusOf(address)": "97a5d5b5",
			"symbol()": "95d89b41",
			"totalBonded()": "44d96e95",
			"totalBondedAt(uint256)": "ffbe3b73",
			"totalCoupons()": "9a649edc",
			"totalDebt()": "fc7b9c18",
			"totalNet()": "a6c409f1",
			"totalRedeemable()": "1edbcf6c",
			"totalStaged()": "cf023779",
			"totalSupply()": "18160ddd",
			"transfer(address,uint256)": "a9059cbb",
			"transferFrom(address,address,uint256)": "23b872dd",
			"votesFor(address)": "a50cd8e7"
		}
	},
	"abi": [
		{
			"anonymous": false,
			"inputs": [
				{
					"indexed": true,
					"internalType": "address",
					"name": "from",
					"type": "address"
				},
				{
					"indexed": true,
					"internalType": "address",
					"name": "to",
					"type": "address"
				},
				{
					"indexed": false,
					"internalType": "uint256",
					"name": "value",
					"type": "uint256"
				}
			],
			"name": "Transfer",
			"type": "event"
		},
		{
			"anonymous": false,
			"inputs": [
				{
					"indexed": true,
					"internalType": "address",
					"name": "implementation",
					"type": "address"
				}
			],
			"name": "Upgraded",
			"type": "event"
		},
		{
			"constant": true,
			"inputs": [
				{
					"internalType": "address",
					"name": "owner",
					"type": "address"
				},
				{
					"internalType": "address",
					"name": "spender",
					"type": "address"
				}
			],
			"name": "allowance",
			"outputs": [
				{
					"internalType": "uint256",
					"name": "",
					"type": "uint256"
				}
			],
			"payable": false,
			"stateMutability": "view",
			"type": "function"
		},
		{
			"constant": true,
			"inputs": [
				{
					"internalType": "address",
					"name": "owner",
					"type": "address"
				},
				{
					"internalType": "address",
					"name": "spender",
					"type": "address"
				}
			],
			"name": "allowanceCoupons",
			"outputs": [
				{
					"internalType": "uint256",
					"name": "",
					"type": "uint256"
				}
			],
			"payable": false,
			"stateMutability": "view",
			"type": "function"
		},
		{
			"constant": false,
			"inputs": [
				{
					"internalType": "address",
					"name": "spender",
					"type": "address"
				},
				{
					"internalType": "uint256",
					"name": "amount",
					"type": "uint256"
				}
			],
			"name": "approve",
			"outputs": [
				{
					"internalType": "bool",
					"name": "",
					"type": "bool"
				}
			],
			"payable": false,
			"stateMutability": "nonpayable",
			"type": "function"
		},
		{
			"constant": true,
			"inputs": [
				{
					"internalType": "address",
					"name": "candidate",
					"type": "address"
				}
			],
			"name": "approveFor",
			"outputs": [
				{
					"internalType": "uint256",
					"name": "",
					"type": "uint256"
				}
			],
			"payable": false,
			"stateMutability": "view",
			"type": "function"
		},
		{
			"constant": true,
			"inputs": [
				{
					"internalType": "address",
					"name": "account",
					"type": "address"
				}
			],
			"name": "balanceOf",
			"outputs": [
				{
					"internalType": "uint256",
					"name": "",
					"type": "uint256"
				}
			],
			"payable": false,
			"stateMutability": "view",
			"type": "function"
		},
		{
			"constant": true,
			"inputs": [
				{
					"internalType": "address",
					"name": "account",
					"type": "address"
				}
			],
			"name": "balanceOfBonded",
			"outputs": [
				{
					"internalType": "uint256",
					"name": "",
					"type": "uint256"
				}
			],
			"payable": false,
			"stateMutability": "view",
			"type": "function"
		},
		{
			"constant": true,
			"inputs": [
				{
					"internalType": "address",
					"name": "account",
					"type": "address"
				},
				{
					"internalType": "uint256",
					"name": "epoch",
					"type": "uint256"
				}
			],
			"name": "balanceOfCoupons",
			"outputs": [
				{
					"internalType": "uint256",
					"name": "",
					"type": "uint256"
				}
			],
			"payable": false,
			"stateMutability": "view",
			"type": "function"
		},
		{
			"constant": true,
			"inputs": [
				{
					"internalType": "address",
					"name": "account",
					"type": "address"
				}
			],
			"name": "balanceOfStaged",
			"outputs": [
				{
					"internalType": "uint256",
					"name": "",
					"type": "uint256"
				}
			],
			"payable": false,
			"stateMutability": "view",
			"type": "function"
		},
		{
			"constant": true,
			"inputs": [
				{
					"internalType": "uint256",
					"name": "epoch",
					"type": "uint256"
				}
			],
			"name": "bootstrappingAt",
			"outputs": [
				{
					"internalType": "bool",
					"name": "",
					"type": "bool"
				}
			],
			"payable": false,
			"stateMutability": "view",
			"type": "function"
		},
		{
			"constant": true,
			"inputs": [
				{
					"internalType": "uint256",
					"name": "epoch",
					"type": "uint256"
				}
			],
			"name": "couponsExpiration",
			"outputs": [
				{
					"internalType": "uint256",
					"name": "",
					"type": "uint256"
				}
			],
			"payable": false,
			"stateMutability": "view",
			"type": "function"
		},
		{
			"constant": true,
			"inputs": [],
			"name": "decimals",
			"outputs": [
				{
					"internalType": "uint8",
					"name": "",
					"type": "uint8"
				}
			],
			"payable": false,
			"stateMutability": "view",
			"type": "function"
		},
		{
			"constant": true,
			"inputs": [],
			"name": "dollar",
			"outputs": [
				{
					"internalType": "contract IDollar",
					"name": "",
					"type": "address"
				}
			],
			"payable": false,
			"stateMutability": "view",
			"type": "function"
		},
		{
			"constant": true,
			"inputs": [],
			"name": "epoch",
			"outputs": [
				{
					"internalType": "uint256",
					"name": "",
					"type": "uint256"
				}
			],
			"payable": false,
			"stateMutability": "view",
			"type": "function"
		},
		{
			"constant": true,
			"inputs": [],
			"name": "epochTime",
			"outputs": [
				{
					"internalType": "uint256",
					"name": "",
					"type": "uint256"
				}
			],
			"payable": false,
			"stateMutability": "view",
			"type": "function"
		},
		{
			"constant": true,
			"inputs": [
				{
					"internalType": "uint256",
					"name": "epoch",
					"type": "uint256"
				}
			],
			"name": "expiringCoupons",
			"outputs": [
				{
					"internalType": "uint256",
					"name": "",
					"type": "uint256"
				}
			],
			"payable": false,
			"stateMutability": "view",
			"type": "function"
		},
		{
			"constant": true,
			"inputs": [
				{
					"internalType": "uint256",
					"name": "epoch",
					"type": "uint256"
				},
				{
					"internalType": "uint256",
					"name": "i",
					"type": "uint256"
				}
			],
			"name": "expiringCouponsAtIndex",
			"outputs": [
				{
					"internalType": "uint256",
					"name": "",
					"type": "uint256"
				}
			],
			"payable": false,
			"stateMutability": "view",
			"type": "function"
		},
		{
			"constant": false,
			"inputs": [
				{
					"internalType": "address",
					"name": "implementation",
					"type": "address"
				}
			],
			"name": "implement",
			"outputs": [],
			"payable": false,
			"stateMutability": "nonpayable",
			"type": "function"
		},
		{
			"constant": true,
			"inputs": [],
			"name": "implementation",
			"outputs": [
				{
					"internalType": "address",
					"name": "impl",
					"type": "address"
				}
			],
			"payable": false,
			"stateMutability": "view",
			"type": "function"
		},
		{
			"constant": false,
			"inputs": [],
			"name": "initialize",
			"outputs": [],
			"payable": false,
			"stateMutability": "nonpayable",
			"type": "function"
		},
		{
			"constant": true,
			"inputs": [
				{
					"internalType": "address",
					"name": "candidate",
					"type": "address"
				}
			],
			"name": "isInitialized",
			"outputs": [
				{
					"internalType": "bool",
					"name": "",
					"type": "bool"
				}
			],
			"payable": false,
			"stateMutability": "view",
			"type": "function"
		},
		{
			"constant": true,
			"inputs": [
				{
					"internalType": "address",
					"name": "candidate",
					"type": "address"
				}
			],
			"name": "isNominated",
			"outputs": [
				{
					"internalType": "bool",
					"name": "",
					"type": "bool"
				}
			],
			"payable": false,
			"stateMutability": "view",
			"type": "function"
		},
		{
			"constant": true,
			"inputs": [],
			"name": "name",
			"outputs": [
				{
					"internalType": "string",
					"name": "",
					"type": "string"
				}
			],
			"payable": false,
			"stateMutability": "view",
			"type": "function"
		},
		{
			"constant": true,
			"inputs": [],
			"name": "oracle",
			"outputs": [
				{
					"internalType": "contract IOracle",
					"name": "",
					"type": "address"
				}
			],
			"payable": false,
			"stateMutability": "view",
			"type": "function"
		},
		{
			"constant": true,
			"inputs": [
				{
					"internalType": "uint256",
					"name": "epoch",
					"type": "uint256"
				}
			],
			"name": "outstandingCoupons",
			"outputs": [
				{
					"internalType": "uint256",
					"name": "",
					"type": "uint256"
				}
			],
			"payable": false,
			"stateMutability": "view",
			"type": "function"
		},
		{
			"constant": true,
			"inputs": [
				{
					"internalType": "address",
					"name": "candidate",
					"type": "address"
				}
			],
			"name": "periodFor",
			"outputs": [
				{
					"internalType": "uint256",
					"name": "",
					"type": "uint256"
				}
			],
			"payable": false,
			"stateMutability": "view",
			"type": "function"
		},
		{
			"constant": true,
			"inputs": [],
			"name": "pool",
			"outputs": [
				{
					"internalType": "address",
					"name": "",
					"type": "address"
				}
			],
			"payable": false,
			"stateMutability": "view",
			"type": "function"
		},
		{
			"constant": true,
			"inputs": [
				{
					"internalType": "address",
					"name": "account",
					"type": "address"
				},
				{
					"internalType": "address",
					"name": "candidate",
					"type": "address"
				}
			],
			"name": "recordedVote",
			"outputs": [
				{
					"internalType": "enum Candidate.Vote",
					"name": "",
					"type": "uint8"
				}
			],
			"payable": false,
			"stateMutability": "view",
			"type": "function"
		},
		{
			"constant": true,
			"inputs": [
				{
					"internalType": "address",
					"name": "candidate",
					"type": "address"
				}
			],
			"name": "rejectFor",
			"outputs": [
				{
					"internalType": "uint256",
					"name": "",
					"type": "uint256"
				}
			],
			"payable": false,
			"stateMutability": "view",
			"type": "function"
		},
		{
			"constant": true,
			"inputs": [
				{
					"internalType": "address",
					"name": "candidate",
					"type": "address"
				}
			],
			"name": "startFor",
			"outputs": [
				{
					"internalType": "uint256",
					"name": "",
					"type": "uint256"
				}
			],
			"payable": false,
			"stateMutability": "view",
			"type": "function"
		},
		{
			"constant": true,
			"inputs": [
				{
					"internalType": "address",
					"name": "account",
					"type": "address"
				}
			],
			"name": "statusOf",
			"outputs": [
				{
					"internalType": "enum Account.Status",
					"name": "",
					"type": "uint8"
				}
			],
			"payable": false,
			"stateMutability": "view",
			"type": "function"
		},
		{
			"constant": true,
			"inputs": [],
			"name": "symbol",
			"outputs": [
				{
					"internalType": "string",
					"name": "",
					"type": "string"
				}
			],
			"payable": false,
			"stateMutability": "view",
			"type": "function"
		},
		{
			"constant": true,
			"inputs": [],
			"name": "totalBonded",
			"outputs": [
				{
					"internalType": "uint256",
					"name": "",
					"type": "uint256"
				}
			],
			"payable": false,
			"stateMutability": "view",
			"type": "function"
		},
		{
			"constant": true,
			"inputs": [
				{
					"internalType": "uint256",
					"name": "epoch",
					"type": "uint256"
				}
			],
			"name": "totalBondedAt",
			"outputs": [
				{
					"internalType": "uint256",
					"name": "",
					"type": "uint256"
				}
			],
			"payable": false,
			"stateMutability": "view",
			"type": "function"
		},
		{
			"constant": true,
			"inputs": [],
			"name": "totalCoupons",
			"outputs": [
				{
					"internalType": "uint256",
					"name": "",
					"type": "uint256"
				}
			],
			"payable": false,
			"stateMutability": "view",
			"type": "function"
		},
		{
			"constant": true,
			"inputs": [],
			"name": "totalDebt",
			"outputs": [
				{
					"internalType": "uint256",
					"name": "",
					"type": "uint256"
				}
			],
			"payable": false,
			"stateMutability": "view",
			"type": "function"
		},
		{
			"constant": true,
			"inputs": [],
			"name": "totalNet",
			"outputs": [
				{
					"internalType": "uint256",
					"name": "",
					"type": "uint256"
				}
			],
			"payable": false,
			"stateMutability": "view",
			"type": "function"
		},
		{
			"constant": true,
			"inputs": [],
			"name": "totalRedeemable",
			"outputs": [
				{
					"internalType": "uint256",
					"name": "",
					"type": "uint256"
				}
			],
			"payable": false,
			"stateMutability": "view",
			"type": "function"
		},
		{
			"constant": true,
			"inputs": [],
			"name": "totalStaged",
			"outputs": [
				{
					"internalType": "uint256",
					"name": "",
					"type": "uint256"
				}
			],
			"payable": false,
			"stateMutability": "view",
			"type": "function"
		},
		{
			"constant": true,
			"inputs": [],
			"name": "totalSupply",
			"outputs": [
				{
					"internalType": "uint256",
					"name": "",
					"type": "uint256"
				}
			],
			"payable": false,
			"stateMutability": "view",
			"type": "function"
		},
		{
			"constant": false,
			"inputs": [
				{
					"internalType": "address",
					"name": "recipient",
					"type": "address"
				},
				{
					"internalType": "uint256",
					"name": "amount",
					"type": "uint256"
				}
			],
			"name": "transfer",
			"outputs": [
				{
					"internalType": "bool",
					"name": "",
					"type": "bool"
				}
			],
			"payable": false,
			"stateMutability": "nonpayable",
			"type": "function"
		},
		{
			"constant": false,
			"inputs": [
				{
					"internalType": "address",
					"name": "sender",
					"type": "address"
				},
				{
					"internalType": "address",
					"name": "recipient",
					"type": "address"
				},
				{
					"internalType": "uint256",
					"name": "amount",
					"type": "uint256"
				}
			],
			"name": "transferFrom",
			"outputs": [
				{
					"internalType": "bool",
					"name": "",
					"type": "bool"
				}
			],
			"payable": false,
			"stateMutability": "nonpayable",
			"type": "function"
		},
		{
			"constant": true,
			"inputs": [
				{
					"internalType": "address",
					"name": "candidate",
					"type": "address"
				}
			],
			"name": "votesFor",
			"outputs": [
				{
					"internalType": "uint256",
					"name": "",
					"type": "uint256"
				}
			],
			"payable": false,
			"stateMutability": "view",
			"type": "function"
		}
	]
}