{
	"data": {
		"bytecode": {
			"linkReferences": {},
			"object": "608060405234801561001057600080fd5b50610e80806100206000396000f3fe608060405234801561001057600080fd5b50600436106102275760003560e01c806375d5024b11610130578063a50cd8e7116100b8578063d60b347f1161007c578063d60b347f1461044b578063dd62ed3e1461045e578063f1b7cf4914610471578063fc7b9c1814610484578063ffbe3b731461048c57610227565b8063a50cd8e714610402578063a6c409f114610415578063bc7513e21461041d578063c9aff70c14610430578063cf0237791461044357610227565b8063900cf0cf116100ff578063900cf0cf146103c457806395d89b41146103cc57806397a5d5b5146103d45780639a649edc146103e75780639f6e1b26146103ef57610227565b806375d5024b146103835780637dc0d1d014610396578063825ad6071461039e57806386cf9f14146103b157610227565b80633fbba9a6116101b357806351adeb571161018257806351adeb571461032d5780635c60da1b14610342578063646680221461034a5780636a39e3281461035d57806370a082311461037057610227565b80633fbba9a6146102ea57806344d96e951461030a5780634c736099146103125780635053e4611461032557610227565b806318160ddd116101fa57806318160ddd146102925780631edbcf6c1461029a578063313ce567146102a2578063353a420c146102b75780633a3e6c81146102ca57610227565b806306fdde031461022c57806310e95b6c1461024a57806315e14bf61461026a57806316f0115b1461027d575b600080fd5b61023461049f565b6040516102419190610d3a565b60405180910390f35b61025d610258366004610bb7565b6104d6565b6040516102419190610d6b565b61025d610278366004610b27565b6104ee565b61028561050c565b6040516102419190610d02565b61025d61051b565b61025d610521565b6102aa610527565b6040516102419190610d79565b61025d6102c5366004610b27565b61052c565b6102dd6102d8366004610b27565b61054a565b6040516102419190610d10565b6102fd6102f8366004610b4d565b610567565b6040516102419190610d2c565b61025d61059b565b61025d610320366004610bf3565b6105a1565b61025d6105d1565b6103356105f4565b6040516102419190610d1e565b610285610603565b61025d610358366004610b27565b610628565b61025d61036b366004610bb7565b610646565b61025d61037e366004610b27565b61065b565b6102dd610391366004610bb7565b610679565b61033561068c565b61025d6103ac366004610b27565b61069b565b61025d6103bf366004610b27565b6106ee565b61025d610709565b61023461070f565b6102fd6103e2366004610b27565b61072e565b61025d61079b565b61025d6103fd366004610b4d565b6107a1565b61025d610410366004610b27565b6107d0565b61025d6107f3565b61025d61042b366004610b87565b610889565b61025d61043e366004610bb7565b6108cd565b61025d6108e2565b6102dd610459366004610b27565b6108e8565b61025d61046c366004610b4d565b610793565b61025d61047f366004610b27565b610909565b61025d610924565b61025d61049a366004610bb7565b61092a565b60408051808201909152601e81527f42696e616e6365204167696c652053657420446f6c6c6172205374616b650000602082015290565b6000818152600d60205260409020600201545b919050565b6001600160a01b03166000908152600e602052604090206001015490565b600b546001600160a01b031690565b60035490565b60065490565b601290565b6001600160a01b03166000908152600e602052604090206003015490565b6001600160a01b03166000908152600e6020526040902054151590565b6001600160a01b038082166000908152600e60209081526040808320938616835260049093019052205460ff165b92915050565b60045490565b6000828152600d602052604081206003018054839081106105be57fe5b9060005260206000200154905092915050565b60006105db610ae5565b6105e361093c565b90506105ee8161096b565b91505090565b6009546001600160a01b031690565b7f360894a13ba1a3210667c828492db98dca3e2076cc3735a920a3ca505d382bbc5490565b6001600160a01b03166000908152600e602052604090206002015490565b6000908152600d602052604090206003015490565b6001600160a01b03166000908152600c602052604090206001015490565b600061068361098d565b90911115919050565b600a546001600160a01b031690565b6000806106a661051b565b9050806106b75760009150506104e9565b6106e7816106db6106c78661065b565b6106cf61059b565b9063ffffffff61099216565b9063ffffffff6109d516565b9392505050565b6001600160a01b03166000908152600c602052604090205490565b60025490565b604080518082019091526005815264424153445360d81b602082015290565b6000610738610709565b6001600160a01b0383166000908152600c60205260409020600501541115610762575060026104e9565b6001600160a01b0382166000908152600c6020526040902060040154610786610709565b1015610793576001610595565b600092915050565b60085490565b6001600160a01b039182166000908152600c602090815260408083209390941682526003909201909152205490565b60006105956107de8361052c565b6107e784610628565b9063ffffffff610a1716565b6000610884610800610924565b6108086105f4565b6001600160a01b03166318160ddd6040518163ffffffff1660e01b815260040160206040518083038186803b15801561084057600080fd5b505afa158015610854573d6000803e3d6000fd5b505050506040513d601f19601f820116820180604052506108789190810190610bd5565b9063ffffffff610a3c16565b905090565b6000610894826108cd565b6108a057506000610595565b506001600160a01b03919091166000908152600c6020908152604080832093835260029093019052205490565b6000908152600d602052604090206001015490565b60055490565b6001600160a01b03166000908152600e602052604090206005015460ff1690565b6001600160a01b03166000908152600e602052604090205490565b60075490565b6000908152600d602052604090205490565b610944610ae5565b604051806060016040528060008152602001635fbef0008152602001611c20815250905090565b600061059582600001516107e784604001516106db8660200151610878610a7e565b609690565b6000826109a157506000610595565b828202828482816109ae57fe5b04146106e75760405162461bcd60e51b81526004016109cc90610d5b565b60405180910390fd5b60006106e783836040518060400160405280601a81526020017f536166654d6174683a206469766973696f6e206279207a65726f000000000000815250610a82565b6000828201838110156106e75760405162461bcd60e51b81526004016109cc90610d4b565b60006106e783836040518060400160405280601e81526020017f536166654d6174683a207375627472616374696f6e206f766572666c6f770000815250610ab9565b4290565b60008183610aa35760405162461bcd60e51b81526004016109cc9190610d3a565b506000838581610aaf57fe5b0495945050505050565b60008184841115610add5760405162461bcd60e51b81526004016109cc9190610d3a565b505050900390565b60405180606001604052806000815260200160008152602001600081525090565b803561059581610e20565b803561059581610e34565b805161059581610e34565b600060208284031215610b3957600080fd5b6000610b458484610b06565b949350505050565b60008060408385031215610b6057600080fd5b6000610b6c8585610b06565b9250506020610b7d85828601610b06565b9150509250929050565b60008060408385031215610b9a57600080fd5b6000610ba68585610b06565b9250506020610b7d85828601610b11565b600060208284031215610bc957600080fd5b6000610b458484610b11565b600060208284031215610be757600080fd5b6000610b458484610b1c565b60008060408385031215610c0657600080fd5b6000610ba68585610b11565b610c1b81610d94565b82525050565b610c1b81610d9f565b610c1b81610dc3565b610c1b81610dce565b6000610c4782610d87565b610c518185610d8b565b9350610c61818560208601610dd9565b610c6a81610e09565b9093019392505050565b6000610c81601b83610d8b565b7f536166654d6174683a206164646974696f6e206f766572666c6f770000000000815260200192915050565b6000610cba602183610d8b565b7f536166654d6174683a206d756c7469706c69636174696f6e206f766572666c6f8152607760f81b602082015260400192915050565b610c1b81610dba565b610c1b81610dbd565b602081016105958284610c12565b602081016105958284610c21565b602081016105958284610c2a565b602081016105958284610c33565b602080825281016106e78184610c3c565b6020808252810161059581610c74565b6020808252810161059581610cad565b602081016105958284610cf0565b602081016105958284610cf9565b5190565b90815260200190565b600061059582610dae565b151590565b806104e981610e13565b6001600160a01b031690565b90565b60ff1690565b600061059582610d94565b600061059582610da4565b60005b83811015610df4578181015183820152602001610ddc565b83811115610e03576000848401525b50505050565b601f01601f191690565b60038110610e1d57fe5b50565b610e2981610d94565b8114610e1d57600080fd5b610e2981610dba56fea365627a7a723158203e6527745c1af0ec7135c07c94d317cf099b2d7bc27a2aee9d6fc6d7a600eb556c6578706572696d656e74616cf564736f6c63430005110040",
			"opcodes": "PUSH1 0x80 PUSH1 0x40 MSTORE CALLVALUE DUP1 ISZERO PUSH2 0x10 JUMPI PUSH1 0x0 DUP1 REVERT JUMPDEST POP PUSH2 0xE80 DUP1 PUSH2 0x20 PUSH1 0x0 CODECOPY PUSH1 0x0 RETURN INVALID PUSH1 0x80 PUSH1 0x40 MSTORE CALLVALUE DUP1 ISZERO PUSH2 0x10 JUMPI PUSH1 0x0 DUP1 REVERT JUMPDEST POP PUSH1 0x4 CALLDATASIZE LT PUSH2 0x227 JUMPI PUSH1 0x0 CALLDATALOAD PUSH1 0xE0 SHR DUP1 PUSH4 0x75D5024B GT PUSH2 0x130 JUMPI DUP1 PUSH4 0xA50CD8E7 GT PUSH2 0xB8 JUMPI DUP1 PUSH4 0xD60B347F GT PUSH2 0x7C JUMPI DUP1 PUSH4 0xD60B347F EQ PUSH2 0x44B JUMPI DUP1 PUSH4 0xDD62ED3E EQ PUSH2 0x45E JUMPI DUP1 PUSH4 0xF1B7CF49 EQ PUSH2 0x471 JUMPI DUP1 PUSH4 0xFC7B9C18 EQ PUSH2 0x484 JUMPI DUP1 PUSH4 0xFFBE3B73 EQ PUSH2 0x48C JUMPI PUSH2 0x227 JUMP JUMPDEST DUP1 PUSH4 0xA50CD8E7 EQ PUSH2 0x402 JUMPI DUP1 PUSH4 0xA6C409F1 EQ PUSH2 0x415 JUMPI DUP1 PUSH4 0xBC7513E2 EQ PUSH2 0x41D JUMPI DUP1 PUSH4 0xC9AFF70C EQ PUSH2 0x430 JUMPI DUP1 PUSH4 0xCF023779 EQ PUSH2 0x443 JUMPI PUSH2 0x227 JUMP JUMPDEST DUP1 PUSH4 0x900CF0CF GT PUSH2 0xFF JUMPI DUP1 PUSH4 0x900CF0CF EQ PUSH2 0x3C4 JUMPI DUP1 PUSH4 0x95D89B41 EQ PUSH2 0x3CC JUMPI DUP1 PUSH4 0x97A5D5B5 EQ PUSH2 0x3D4 JUMPI DUP1 PUSH4 0x9A649EDC EQ PUSH2 0x3E7 JUMPI DUP1 PUSH4 0x9F6E1B26 EQ PUSH2 0x3EF JUMPI PUSH2 0x227 JUMP JUMPDEST DUP1 PUSH4 0x75D5024B EQ PUSH2 0x383 JUMPI DUP1 PUSH4 0x7DC0D1D0 EQ PUSH2 0x396 JUMPI DUP1 PUSH4 0x825AD607 EQ PUSH2 0x39E JUMPI DUP1 PUSH4 0x86CF9F14 EQ PUSH2 0x3B1 JUMPI PUSH2 0x227 JUMP JUMPDEST DUP1 PUSH4 0x3FBBA9A6 GT PUSH2 0x1B3 JUMPI DUP1 PUSH4 0x51ADEB57 GT PUSH2 0x182 JUMPI DUP1 PUSH4 0x51ADEB57 EQ PUSH2 0x32D JUMPI DUP1 PUSH4 0x5C60DA1B EQ PUSH2 0x342 JUMPI DUP1 PUSH4 0x64668022 EQ PUSH2 0x34A JUMPI DUP1 PUSH4 0x6A39E328 EQ PUSH2 0x35D JUMPI DUP1 PUSH4 0x70A08231 EQ PUSH2 0x370 JUMPI PUSH2 0x227 JUMP JUMPDEST DUP1 PUSH4 0x3FBBA9A6 EQ PUSH2 0x2EA JUMPI DUP1 PUSH4 0x44D96E95 EQ PUSH2 0x30A JUMPI DUP1 PUSH4 0x4C736099 EQ PUSH2 0x312 JUMPI DUP1 PUSH4 0x5053E461 EQ PUSH2 0x325 JUMPI PUSH2 0x227 JUMP JUMPDEST DUP1 PUSH4 0x18160DDD GT PUSH2 0x1FA JUMPI DUP1 PUSH4 0x18160DDD EQ PUSH2 0x292 JUMPI DUP1 PUSH4 0x1EDBCF6C EQ PUSH2 0x29A JUMPI DUP1 PUSH4 0x313CE567 EQ PUSH2 0x2A2 JUMPI DUP1 PUSH4 0x353A420C EQ PUSH2 0x2B7 JUMPI DUP1 PUSH4 0x3A3E6C81 EQ PUSH2 0x2CA JUMPI PUSH2 0x227 JUMP JUMPDEST DUP1 PUSH4 0x6FDDE03 EQ PUSH2 0x22C JUMPI DUP1 PUSH4 0x10E95B6C EQ PUSH2 0x24A JUMPI DUP1 PUSH4 0x15E14BF6 EQ PUSH2 0x26A JUMPI DUP1 PUSH4 0x16F0115B EQ PUSH2 0x27D JUMPI JUMPDEST PUSH1 0x0 DUP1 REVERT JUMPDEST PUSH2 0x234 PUSH2 0x49F JUMP JUMPDEST PUSH1 0x40 MLOAD PUSH2 0x241 SWAP2 SWAP1 PUSH2 0xD3A JUMP JUMPDEST PUSH1 0x40 MLOAD DUP1 SWAP2 SUB SWAP1 RETURN JUMPDEST PUSH2 0x25D PUSH2 0x258 CALLDATASIZE PUSH1 0x4 PUSH2 0xBB7 JUMP JUMPDEST PUSH2 0x4D6 JUMP JUMPDEST PUSH1 0x40 MLOAD PUSH2 0x241 SWAP2 SWAP1 PUSH2 0xD6B JUMP JUMPDEST PUSH2 0x25D PUSH2 0x278 CALLDATASIZE PUSH1 0x4 PUSH2 0xB27 JUMP JUMPDEST PUSH2 0x4EE JUMP JUMPDEST PUSH2 0x285 PUSH2 0x50C JUMP JUMPDEST PUSH1 0x40 MLOAD PUSH2 0x241 SWAP2 SWAP1 PUSH2 0xD02 JUMP JUMPDEST PUSH2 0x25D PUSH2 0x51B JUMP JUMPDEST PUSH2 0x25D PUSH2 0x521 JUMP JUMPDEST PUSH2 0x2AA PUSH2 0x527 JUMP JUMPDEST PUSH1 0x40 MLOAD PUSH2 0x241 SWAP2 SWAP1 PUSH2 0xD79 JUMP JUMPDEST PUSH2 0x25D PUSH2 0x2C5 CALLDATASIZE PUSH1 0x4 PUSH2 0xB27 JUMP JUMPDEST PUSH2 0x52C JUMP JUMPDEST PUSH2 0x2DD PUSH2 0x2D8 CALLDATASIZE PUSH1 0x4 PUSH2 0xB27 JUMP JUMPDEST PUSH2 0x54A JUMP JUMPDEST PUSH1 0x40 MLOAD PUSH2 0x241 SWAP2 SWAP1 PUSH2 0xD10 JUMP JUMPDEST PUSH2 0x2FD PUSH2 0x2F8 CALLDATASIZE PUSH1 0x4 PUSH2 0xB4D JUMP JUMPDEST PUSH2 0x567 JUMP JUMPDEST PUSH1 0x40 MLOAD PUSH2 0x241 SWAP2 SWAP1 PUSH2 0xD2C JUMP JUMPDEST PUSH2 0x25D PUSH2 0x59B JUMP JUMPDEST PUSH2 0x25D PUSH2 0x320 CALLDATASIZE PUSH1 0x4 PUSH2 0xBF3 JUMP JUMPDEST PUSH2 0x5A1 JUMP JUMPDEST PUSH2 0x25D PUSH2 0x5D1 JUMP JUMPDEST PUSH2 0x335 PUSH2 0x5F4 JUMP JUMPDEST PUSH1 0x40 MLOAD PUSH2 0x241 SWAP2 SWAP1 PUSH2 0xD1E JUMP JUMPDEST PUSH2 0x285 PUSH2 0x603 JUMP JUMPDEST PUSH2 0x25D PUSH2 0x358 CALLDATASIZE PUSH1 0x4 PUSH2 0xB27 JUMP JUMPDEST PUSH2 0x628 JUMP JUMPDEST PUSH2 0x25D PUSH2 0x36B CALLDATASIZE PUSH1 0x4 PUSH2 0xBB7 JUMP JUMPDEST PUSH2 0x646 JUMP JUMPDEST PUSH2 0x25D PUSH2 0x37E CALLDATASIZE PUSH1 0x4 PUSH2 0xB27 JUMP JUMPDEST PUSH2 0x65B JUMP JUMPDEST PUSH2 0x2DD PUSH2 0x391 CALLDATASIZE PUSH1 0x4 PUSH2 0xBB7 JUMP JUMPDEST PUSH2 0x679 JUMP JUMPDEST PUSH2 0x335 PUSH2 0x68C JUMP JUMPDEST PUSH2 0x25D PUSH2 0x3AC CALLDATASIZE PUSH1 0x4 PUSH2 0xB27 JUMP JUMPDEST PUSH2 0x69B JUMP JUMPDEST PUSH2 0x25D PUSH2 0x3BF CALLDATASIZE PUSH1 0x4 PUSH2 0xB27 JUMP JUMPDEST PUSH2 0x6EE JUMP JUMPDEST PUSH2 0x25D PUSH2 0x709 JUMP JUMPDEST PUSH2 0x234 PUSH2 0x70F JUMP JUMPDEST PUSH2 0x2FD PUSH2 0x3E2 CALLDATASIZE PUSH1 0x4 PUSH2 0xB27 JUMP JUMPDEST PUSH2 0x72E JUMP JUMPDEST PUSH2 0x25D PUSH2 0x79B JUMP JUMPDEST PUSH2 0x25D PUSH2 0x3FD CALLDATASIZE PUSH1 0x4 PUSH2 0xB4D JUMP JUMPDEST PUSH2 0x7A1 JUMP JUMPDEST PUSH2 0x25D PUSH2 0x410 CALLDATASIZE PUSH1 0x4 PUSH2 0xB27 JUMP JUMPDEST PUSH2 0x7D0 JUMP JUMPDEST PUSH2 0x25D PUSH2 0x7F3 JUMP JUMPDEST PUSH2 0x25D PUSH2 0x42B CALLDATASIZE PUSH1 0x4 PUSH2 0xB87 JUMP JUMPDEST PUSH2 0x889 JUMP JUMPDEST PUSH2 0x25D PUSH2 0x43E CALLDATASIZE PUSH1 0x4 PUSH2 0xBB7 JUMP JUMPDEST PUSH2 0x8CD JUMP JUMPDEST PUSH2 0x25D PUSH2 0x8E2 JUMP JUMPDEST PUSH2 0x2DD PUSH2 0x459 CALLDATASIZE PUSH1 0x4 PUSH2 0xB27 JUMP JUMPDEST PUSH2 0x8E8 JUMP JUMPDEST PUSH2 0x25D PUSH2 0x46C CALLDATASIZE PUSH1 0x4 PUSH2 0xB4D JUMP JUMPDEST PUSH2 0x793 JUMP JUMPDEST PUSH2 0x25D PUSH2 0x47F CALLDATASIZE PUSH1 0x4 PUSH2 0xB27 JUMP JUMPDEST PUSH2 0x909 JUMP JUMPDEST PUSH2 0x25D PUSH2 0x924 JUMP JUMPDEST PUSH2 0x25D PUSH2 0x49A CALLDATASIZE PUSH1 0x4 PUSH2 0xBB7 JUMP JUMPDEST PUSH2 0x92A JUMP JUMPDEST PUSH1 0x40 DUP1 MLOAD DUP1 DUP3 ADD SWAP1 SWAP2 MSTORE PUSH1 0x1E DUP2 MSTORE PUSH32 0x42696E616E6365204167696C652053657420446F6C6C6172205374616B650000 PUSH1 0x20 DUP3 ADD MSTORE SWAP1 JUMP JUMPDEST PUSH1 0x0 DUP2 DUP2 MSTORE PUSH1 0xD PUSH1 0x20 MSTORE PUSH1 0x40 SWAP1 KECCAK256 PUSH1 0x2 ADD SLOAD JUMPDEST SWAP2 SWAP1 POP JUMP JUMPDEST PUSH1 0x1 PUSH1 0x1 PUSH1 0xA0 SHL SUB AND PUSH1 0x0 SWAP1 DUP2 MSTORE PUSH1 0xE PUSH1 0x20 MSTORE PUSH1 0x40 SWAP1 KECCAK256 PUSH1 0x1 ADD SLOAD SWAP1 JUMP JUMPDEST PUSH1 0xB SLOAD PUSH1 0x1 PUSH1 0x1 PUSH1 0xA0 SHL SUB AND SWAP1 JUMP JUMPDEST PUSH1 0x3 SLOAD SWAP1 JUMP JUMPDEST PUSH1 0x6 SLOAD SWAP1 JUMP JUMPDEST PUSH1 0x12 SWAP1 JUMP JUMPDEST PUSH1 0x1 PUSH1 0x1 PUSH1 0xA0 SHL SUB AND PUSH1 0x0 SWAP1 DUP2 MSTORE PUSH1 0xE PUSH1 0x20 MSTORE PUSH1 0x40 SWAP1 KECCAK256 PUSH1 0x3 ADD SLOAD SWAP1 JUMP JUMPDEST PUSH1 0x1 PUSH1 0x1 PUSH1 0xA0 SHL SUB AND PUSH1 0x0 SWAP1 DUP2 MSTORE PUSH1 0xE PUSH1 0x20 MSTORE PUSH1 0x40 SWAP1 KECCAK256 SLOAD ISZERO ISZERO SWAP1 JUMP JUMPDEST PUSH1 0x1 PUSH1 0x1 PUSH1 0xA0 SHL SUB DUP1 DUP3 AND PUSH1 0x0 SWAP1 DUP2 MSTORE PUSH1 0xE PUSH1 0x20 SWAP1 DUP2 MSTORE PUSH1 0x40 DUP1 DUP4 KECCAK256 SWAP4 DUP7 AND DUP4 MSTORE PUSH1 0x4 SWAP1 SWAP4 ADD SWAP1 MSTORE KECCAK256 SLOAD PUSH1 0xFF AND JUMPDEST SWAP3 SWAP2 POP POP JUMP JUMPDEST PUSH1 0x4 SLOAD SWAP1 JUMP JUMPDEST PUSH1 0x0 DUP3 DUP2 MSTORE PUSH1 0xD PUSH1 0x20 MSTORE PUSH1 0x40 DUP2 KECCAK256 PUSH1 0x3 ADD DUP1 SLOAD DUP4 SWAP1 DUP2 LT PUSH2 0x5BE JUMPI INVALID JUMPDEST SWAP1 PUSH1 0x0 MSTORE PUSH1 0x20 PUSH1 0x0 KECCAK256 ADD SLOAD SWAP1 POP SWAP3 SWAP2 POP POP JUMP JUMPDEST PUSH1 0x0 PUSH2 0x5DB PUSH2 0xAE5 JUMP JUMPDEST PUSH2 0x5E3 PUSH2 0x93C JUMP JUMPDEST SWAP1 POP PUSH2 0x5EE DUP2 PUSH2 0x96B JUMP JUMPDEST SWAP2 POP POP SWAP1 JUMP JUMPDEST PUSH1 0x9 SLOAD PUSH1 0x1 PUSH1 0x1 PUSH1 0xA0 SHL SUB AND SWAP1 JUMP JUMPDEST PUSH32 0x360894A13BA1A3210667C828492DB98DCA3E2076CC3735A920A3CA505D382BBC SLOAD SWAP1 JUMP JUMPDEST PUSH1 0x1 PUSH1 0x1 PUSH1 0xA0 SHL SUB AND PUSH1 0x0 SWAP1 DUP2 MSTORE PUSH1 0xE PUSH1 0x20 MSTORE PUSH1 0x40 SWAP1 KECCAK256 PUSH1 0x2 ADD SLOAD SWAP1 JUMP JUMPDEST PUSH1 0x0 SWAP1 DUP2 MSTORE PUSH1 0xD PUSH1 0x20 MSTORE PUSH1 0x40 SWAP1 KECCAK256 PUSH1 0x3 ADD SLOAD SWAP1 JUMP JUMPDEST PUSH1 0x1 PUSH1 0x1 PUSH1 0xA0 SHL SUB AND PUSH1 0x0 SWAP1 DUP2 MSTORE PUSH1 0xC PUSH1 0x20 MSTORE PUSH1 0x40 SWAP1 KECCAK256 PUSH1 0x1 ADD SLOAD SWAP1 JUMP JUMPDEST PUSH1 0x0 PUSH2 0x683 PUSH2 0x98D JUMP JUMPDEST SWAP1 SWAP2 GT ISZERO SWAP2 SWAP1 POP JUMP JUMPDEST PUSH1 0xA SLOAD PUSH1 0x1 PUSH1 0x1 PUSH1 0xA0 SHL SUB AND SWAP1 JUMP JUMPDEST PUSH1 0x0 DUP1 PUSH2 0x6A6 PUSH2 0x51B JUMP JUMPDEST SWAP1 POP DUP1 PUSH2 0x6B7 JUMPI PUSH1 0x0 SWAP2 POP POP PUSH2 0x4E9 JUMP JUMPDEST PUSH2 0x6E7 DUP2 PUSH2 0x6DB PUSH2 0x6C7 DUP7 PUSH2 0x65B JUMP JUMPDEST PUSH2 0x6CF PUSH2 0x59B JUMP JUMPDEST SWAP1 PUSH4 0xFFFFFFFF PUSH2 0x992 AND JUMP JUMPDEST SWAP1 PUSH4 0xFFFFFFFF PUSH2 0x9D5 AND JUMP JUMPDEST SWAP4 SWAP3 POP POP POP JUMP JUMPDEST PUSH1 0x1 PUSH1 0x1 PUSH1 0xA0 SHL SUB AND PUSH1 0x0 SWAP1 DUP2 MSTORE PUSH1 0xC PUSH1 0x20 MSTORE PUSH1 0x40 SWAP1 KECCAK256 SLOAD SWAP1 JUMP JUMPDEST PUSH1 0x2 SLOAD SWAP1 JUMP JUMPDEST PUSH1 0x40 DUP1 MLOAD DUP1 DUP3 ADD SWAP1 SWAP2 MSTORE PUSH1 0x5 DUP2 MSTORE PUSH5 0x4241534453 PUSH1 0xD8 SHL PUSH1 0x20 DUP3 ADD MSTORE SWAP1 JUMP JUMPDEST PUSH1 0x0 PUSH2 0x738 PUSH2 0x709 JUMP JUMPDEST PUSH1 0x1 PUSH1 0x1 PUSH1 0xA0 SHL SUB DUP4 AND PUSH1 0x0 SWAP1 DUP2 MSTORE PUSH1 0xC PUSH1 0x20 MSTORE PUSH1 0x40 SWAP1 KECCAK256 PUSH1 0x5 ADD SLOAD GT ISZERO PUSH2 0x762 JUMPI POP PUSH1 0x2 PUSH2 0x4E9 JUMP JUMPDEST PUSH1 0x1 PUSH1 0x1 PUSH1 0xA0 SHL SUB DUP3 AND PUSH1 0x0 SWAP1 DUP2 MSTORE PUSH1 0xC PUSH1 0x20 MSTORE PUSH1 0x40 SWAP1 KECCAK256 PUSH1 0x4 ADD SLOAD PUSH2 0x786 PUSH2 0x709 JUMP JUMPDEST LT ISZERO PUSH2 0x793 JUMPI PUSH1 0x1 PUSH2 0x595 JUMP JUMPDEST PUSH1 0x0 SWAP3 SWAP2 POP POP JUMP JUMPDEST PUSH1 0x8 SLOAD SWAP1 JUMP JUMPDEST PUSH1 0x1 PUSH1 0x1 PUSH1 0xA0 SHL SUB SWAP2 DUP3 AND PUSH1 0x0 SWAP1 DUP2 MSTORE PUSH1 0xC PUSH1 0x20 SWAP1 DUP2 MSTORE PUSH1 0x40 DUP1 DUP4 KECCAK256 SWAP4 SWAP1 SWAP5 AND DUP3 MSTORE PUSH1 0x3 SWAP1 SWAP3 ADD SWAP1 SWAP2 MSTORE KECCAK256 SLOAD SWAP1 JUMP JUMPDEST PUSH1 0x0 PUSH2 0x595 PUSH2 0x7DE DUP4 PUSH2 0x52C JUMP JUMPDEST PUSH2 0x7E7 DUP5 PUSH2 0x628 JUMP JUMPDEST SWAP1 PUSH4 0xFFFFFFFF PUSH2 0xA17 AND JUMP JUMPDEST PUSH1 0x0 PUSH2 0x884 PUSH2 0x800 PUSH2 0x924 JUMP JUMPDEST PUSH2 0x808 PUSH2 0x5F4 JUMP JUMPDEST PUSH1 0x1 PUSH1 0x1 PUSH1 0xA0 SHL SUB AND PUSH4 0x18160DDD PUSH1 0x40 MLOAD DUP2 PUSH4 0xFFFFFFFF AND PUSH1 0xE0 SHL DUP2 MSTORE PUSH1 0x4 ADD PUSH1 0x20 PUSH1 0x40 MLOAD DUP1 DUP4 SUB DUP2 DUP7 DUP1 EXTCODESIZE ISZERO DUP1 ISZERO PUSH2 0x840 JUMPI PUSH1 0x0 DUP1 REVERT JUMPDEST POP GAS STATICCALL ISZERO DUP1 ISZERO PUSH2 0x854 JUMPI RETURNDATASIZE PUSH1 0x0 DUP1 RETURNDATACOPY RETURNDATASIZE PUSH1 0x0 REVERT JUMPDEST POP POP POP POP PUSH1 0x40 MLOAD RETURNDATASIZE PUSH1 0x1F NOT PUSH1 0x1F DUP3 ADD AND DUP3 ADD DUP1 PUSH1 0x40 MSTORE POP PUSH2 0x878 SWAP2 SWAP1 DUP2 ADD SWAP1 PUSH2 0xBD5 JUMP JUMPDEST SWAP1 PUSH4 0xFFFFFFFF PUSH2 0xA3C AND JUMP JUMPDEST SWAP1 POP SWAP1 JUMP JUMPDEST PUSH1 0x0 PUSH2 0x894 DUP3 PUSH2 0x8CD JUMP JUMPDEST PUSH2 0x8A0 JUMPI POP PUSH1 0x0 PUSH2 0x595 JUMP JUMPDEST POP PUSH1 0x1 PUSH1 0x1 PUSH1 0xA0 SHL SUB SWAP2 SWAP1 SWAP2 AND PUSH1 0x0 SWAP1 DUP2 MSTORE PUSH1 0xC PUSH1 0x20 SWAP1 DUP2 MSTORE PUSH1 0x40 DUP1 DUP4 KECCAK256 SWAP4 DUP4 MSTORE PUSH1 0x2 SWAP1 SWAP4 ADD SWAP1 MSTORE KECCAK256 SLOAD SWAP1 JUMP JUMPDEST PUSH1 0x0 SWAP1 DUP2 MSTORE PUSH1 0xD PUSH1 0x20 MSTORE PUSH1 0x40 SWAP1 KECCAK256 PUSH1 0x1 ADD SLOAD SWAP1 JUMP JUMPDEST PUSH1 0x5 SLOAD SWAP1 JUMP JUMPDEST PUSH1 0x1 PUSH1 0x1 PUSH1 0xA0 SHL SUB AND PUSH1 0x0 SWAP1 DUP2 MSTORE PUSH1 0xE PUSH1 0x20 MSTORE PUSH1 0x40 SWAP1 KECCAK256 PUSH1 0x5 ADD SLOAD PUSH1 0xFF AND SWAP1 JUMP JUMPDEST PUSH1 0x1 PUSH1 0x1 PUSH1 0xA0 SHL SUB AND PUSH1 0x0 SWAP1 DUP2 MSTORE PUSH1 0xE PUSH1 0x20 MSTORE PUSH1 0x40 SWAP1 KECCAK256 SLOAD SWAP1 JUMP JUMPDEST PUSH1 0x7 SLOAD SWAP1 JUMP JUMPDEST PUSH1 0x0 SWAP1 DUP2 MSTORE PUSH1 0xD PUSH1 0x20 MSTORE PUSH1 0x40 SWAP1 KECCAK256 SLOAD SWAP1 JUMP JUMPDEST PUSH2 0x944 PUSH2 0xAE5 JUMP JUMPDEST PUSH1 0x40 MLOAD DUP1 PUSH1 0x60 ADD PUSH1 0x40 MSTORE DUP1 PUSH1 0x0 DUP2 MSTORE PUSH1 0x20 ADD PUSH4 0x5FBEF000 DUP2 MSTORE PUSH1 0x20 ADD PUSH2 0x1C20 DUP2 MSTORE POP SWAP1 POP SWAP1 JUMP JUMPDEST PUSH1 0x0 PUSH2 0x595 DUP3 PUSH1 0x0 ADD MLOAD PUSH2 0x7E7 DUP5 PUSH1 0x40 ADD MLOAD PUSH2 0x6DB DUP7 PUSH1 0x20 ADD MLOAD PUSH2 0x878 PUSH2 0xA7E JUMP JUMPDEST PUSH1 0x96 SWAP1 JUMP JUMPDEST PUSH1 0x0 DUP3 PUSH2 0x9A1 JUMPI POP PUSH1 0x0 PUSH2 0x595 JUMP JUMPDEST DUP3 DUP3 MUL DUP3 DUP5 DUP3 DUP2 PUSH2 0x9AE JUMPI INVALID JUMPDEST DIV EQ PUSH2 0x6E7 JUMPI PUSH1 0x40 MLOAD PUSH3 0x461BCD PUSH1 0xE5 SHL DUP2 MSTORE PUSH1 0x4 ADD PUSH2 0x9CC SWAP1 PUSH2 0xD5B JUMP JUMPDEST PUSH1 0x40 MLOAD DUP1 SWAP2 SUB SWAP1 REVERT JUMPDEST PUSH1 0x0 PUSH2 0x6E7 DUP4 DUP4 PUSH1 0x40 MLOAD DUP1 PUSH1 0x40 ADD PUSH1 0x40 MSTORE DUP1 PUSH1 0x1A DUP2 MSTORE PUSH1 0x20 ADD PUSH32 0x536166654D6174683A206469766973696F6E206279207A65726F000000000000 DUP2 MSTORE POP PUSH2 0xA82 JUMP JUMPDEST PUSH1 0x0 DUP3 DUP3 ADD DUP4 DUP2 LT ISZERO PUSH2 0x6E7 JUMPI PUSH1 0x40 MLOAD PUSH3 0x461BCD PUSH1 0xE5 SHL DUP2 MSTORE PUSH1 0x4 ADD PUSH2 0x9CC SWAP1 PUSH2 0xD4B JUMP JUMPDEST PUSH1 0x0 PUSH2 0x6E7 DUP4 DUP4 PUSH1 0x40 MLOAD DUP1 PUSH1 0x40 ADD PUSH1 0x40 MSTORE DUP1 PUSH1 0x1E DUP2 MSTORE PUSH1 0x20 ADD PUSH32 0x536166654D6174683A207375627472616374696F6E206F766572666C6F770000 DUP2 MSTORE POP PUSH2 0xAB9 JUMP JUMPDEST TIMESTAMP SWAP1 JUMP JUMPDEST PUSH1 0x0 DUP2 DUP4 PUSH2 0xAA3 JUMPI PUSH1 0x40 MLOAD PUSH3 0x461BCD PUSH1 0xE5 SHL DUP2 MSTORE PUSH1 0x4 ADD PUSH2 0x9CC SWAP2 SWAP1 PUSH2 0xD3A JUMP JUMPDEST POP PUSH1 0x0 DUP4 DUP6 DUP2 PUSH2 0xAAF JUMPI INVALID JUMPDEST DIV SWAP6 SWAP5 POP POP POP POP POP JUMP JUMPDEST PUSH1 0x0 DUP2 DUP5 DUP5 GT ISZERO PUSH2 0xADD JUMPI PUSH1 0x40 MLOAD PUSH3 0x461BCD PUSH1 0xE5 SHL DUP2 MSTORE PUSH1 0x4 ADD PUSH2 0x9CC SWAP2 SWAP1 PUSH2 0xD3A JUMP JUMPDEST POP POP POP SWAP1 SUB SWAP1 JUMP JUMPDEST PUSH1 0x40 MLOAD DUP1 PUSH1 0x60 ADD PUSH1 0x40 MSTORE DUP1 PUSH1 0x0 DUP2 MSTORE PUSH1 0x20 ADD PUSH1 0x0 DUP2 MSTORE PUSH1 0x20 ADD PUSH1 0x0 DUP2 MSTORE POP SWAP1 JUMP JUMPDEST DUP1 CALLDATALOAD PUSH2 0x595 DUP2 PUSH2 0xE20 JUMP JUMPDEST DUP1 CALLDATALOAD PUSH2 0x595 DUP2 PUSH2 0xE34 JUMP JUMPDEST DUP1 MLOAD PUSH2 0x595 DUP2 PUSH2 0xE34 JUMP JUMPDEST PUSH1 0x0 PUSH1 0x20 DUP3 DUP5 SUB SLT ISZERO PUSH2 0xB39 JUMPI PUSH1 0x0 DUP1 REVERT JUMPDEST PUSH1 0x0 PUSH2 0xB45 DUP5 DUP5 PUSH2 0xB06 JUMP JUMPDEST SWAP5 SWAP4 POP POP POP POP JUMP JUMPDEST PUSH1 0x0 DUP1 PUSH1 0x40 DUP4 DUP6 SUB SLT ISZERO PUSH2 0xB60 JUMPI PUSH1 0x0 DUP1 REVERT JUMPDEST PUSH1 0x0 PUSH2 0xB6C DUP6 DUP6 PUSH2 0xB06 JUMP JUMPDEST SWAP3 POP POP PUSH1 0x20 PUSH2 0xB7D DUP6 DUP3 DUP7 ADD PUSH2 0xB06 JUMP JUMPDEST SWAP2 POP POP SWAP3 POP SWAP3 SWAP1 POP JUMP JUMPDEST PUSH1 0x0 DUP1 PUSH1 0x40 DUP4 DUP6 SUB SLT ISZERO PUSH2 0xB9A JUMPI PUSH1 0x0 DUP1 REVERT JUMPDEST PUSH1 0x0 PUSH2 0xBA6 DUP6 DUP6 PUSH2 0xB06 JUMP JUMPDEST SWAP3 POP POP PUSH1 0x20 PUSH2 0xB7D DUP6 DUP3 DUP7 ADD PUSH2 0xB11 JUMP JUMPDEST PUSH1 0x0 PUSH1 0x20 DUP3 DUP5 SUB SLT ISZERO PUSH2 0xBC9 JUMPI PUSH1 0x0 DUP1 REVERT JUMPDEST PUSH1 0x0 PUSH2 0xB45 DUP5 DUP5 PUSH2 0xB11 JUMP JUMPDEST PUSH1 0x0 PUSH1 0x20 DUP3 DUP5 SUB SLT ISZERO PUSH2 0xBE7 JUMPI PUSH1 0x0 DUP1 REVERT JUMPDEST PUSH1 0x0 PUSH2 0xB45 DUP5 DUP5 PUSH2 0xB1C JUMP JUMPDEST PUSH1 0x0 DUP1 PUSH1 0x40 DUP4 DUP6 SUB SLT ISZERO PUSH2 0xC06 JUMPI PUSH1 0x0 DUP1 REVERT JUMPDEST PUSH1 0x0 PUSH2 0xBA6 DUP6 DUP6 PUSH2 0xB11 JUMP JUMPDEST PUSH2 0xC1B DUP2 PUSH2 0xD94 JUMP JUMPDEST DUP3 MSTORE POP POP JUMP JUMPDEST PUSH2 0xC1B DUP2 PUSH2 0xD9F JUMP JUMPDEST PUSH2 0xC1B DUP2 PUSH2 0xDC3 JUMP JUMPDEST PUSH2 0xC1B DUP2 PUSH2 0xDCE JUMP JUMPDEST PUSH1 0x0 PUSH2 0xC47 DUP3 PUSH2 0xD87 JUMP JUMPDEST PUSH2 0xC51 DUP2 DUP6 PUSH2 0xD8B JUMP JUMPDEST SWAP4 POP PUSH2 0xC61 DUP2 DUP6 PUSH1 0x20 DUP7 ADD PUSH2 0xDD9 JUMP JUMPDEST PUSH2 0xC6A DUP2 PUSH2 0xE09 JUMP JUMPDEST SWAP1 SWAP4 ADD SWAP4 SWAP3 POP POP POP JUMP JUMPDEST PUSH1 0x0 PUSH2 0xC81 PUSH1 0x1B DUP4 PUSH2 0xD8B JUMP JUMPDEST PUSH32 0x536166654D6174683A206164646974696F6E206F766572666C6F770000000000 DUP2 MSTORE PUSH1 0x20 ADD SWAP3 SWAP2 POP POP JUMP JUMPDEST PUSH1 0x0 PUSH2 0xCBA PUSH1 0x21 DUP4 PUSH2 0xD8B JUMP JUMPDEST PUSH32 0x536166654D6174683A206D756C7469706C69636174696F6E206F766572666C6F DUP2 MSTORE PUSH1 0x77 PUSH1 0xF8 SHL PUSH1 0x20 DUP3 ADD MSTORE PUSH1 0x40 ADD SWAP3 SWAP2 POP POP JUMP JUMPDEST PUSH2 0xC1B DUP2 PUSH2 0xDBA JUMP JUMPDEST PUSH2 0xC1B DUP2 PUSH2 0xDBD JUMP JUMPDEST PUSH1 0x20 DUP2 ADD PUSH2 0x595 DUP3 DUP5 PUSH2 0xC12 JUMP JUMPDEST PUSH1 0x20 DUP2 ADD PUSH2 0x595 DUP3 DUP5 PUSH2 0xC21 JUMP JUMPDEST PUSH1 0x20 DUP2 ADD PUSH2 0x595 DUP3 DUP5 PUSH2 0xC2A JUMP JUMPDEST PUSH1 0x20 DUP2 ADD PUSH2 0x595 DUP3 DUP5 PUSH2 0xC33 JUMP JUMPDEST PUSH1 0x20 DUP1 DUP3 MSTORE DUP2 ADD PUSH2 0x6E7 DUP2 DUP5 PUSH2 0xC3C JUMP JUMPDEST PUSH1 0x20 DUP1 DUP3 MSTORE DUP2 ADD PUSH2 0x595 DUP2 PUSH2 0xC74 JUMP JUMPDEST PUSH1 0x20 DUP1 DUP3 MSTORE DUP2 ADD PUSH2 0x595 DUP2 PUSH2 0xCAD JUMP JUMPDEST PUSH1 0x20 DUP2 ADD PUSH2 0x595 DUP3 DUP5 PUSH2 0xCF0 JUMP JUMPDEST PUSH1 0x20 DUP2 ADD PUSH2 0x595 DUP3 DUP5 PUSH2 0xCF9 JUMP JUMPDEST MLOAD SWAP1 JUMP JUMPDEST SWAP1 DUP2 MSTORE PUSH1 0x20 ADD SWAP1 JUMP JUMPDEST PUSH1 0x0 PUSH2 0x595 DUP3 PUSH2 0xDAE JUMP JUMPDEST ISZERO ISZERO SWAP1 JUMP JUMPDEST DUP1 PUSH2 0x4E9 DUP2 PUSH2 0xE13 JUMP JUMPDEST PUSH1 0x1 PUSH1 0x1 PUSH1 0xA0 SHL SUB AND SWAP1 JUMP JUMPDEST SWAP1 JUMP JUMPDEST PUSH1 0xFF AND SWAP1 JUMP JUMPDEST PUSH1 0x0 PUSH2 0x595 DUP3 PUSH2 0xD94 JUMP JUMPDEST PUSH1 0x0 PUSH2 0x595 DUP3 PUSH2 0xDA4 JUMP JUMPDEST PUSH1 0x0 JUMPDEST DUP4 DUP2 LT ISZERO PUSH2 0xDF4 JUMPI DUP2 DUP2 ADD MLOAD DUP4 DUP3 ADD MSTORE PUSH1 0x20 ADD PUSH2 0xDDC JUMP JUMPDEST DUP4 DUP2 GT ISZERO PUSH2 0xE03 JUMPI PUSH1 0x0 DUP5 DUP5 ADD MSTORE JUMPDEST POP POP POP POP JUMP JUMPDEST PUSH1 0x1F ADD PUSH1 0x1F NOT AND SWAP1 JUMP JUMPDEST PUSH1 0x3 DUP2 LT PUSH2 0xE1D JUMPI INVALID JUMPDEST POP JUMP JUMPDEST PUSH2 0xE29 DUP2 PUSH2 0xD94 JUMP JUMPDEST DUP2 EQ PUSH2 0xE1D JUMPI PUSH1 0x0 DUP1 REVERT JUMPDEST PUSH2 0xE29 DUP2 PUSH2 0xDBA JUMP INVALID LOG3 PUSH6 0x627A7A723158 KECCAK256 RETURNDATACOPY PUSH6 0x27745C1AF0EC PUSH18 0x35C07C94D317CF099B2D7BC27A2AEE9D6FC6 0xD7 0xA6 STOP 0xEB SSTORE PUSH13 0x6578706572696D656E74616CF5 PUSH5 0x736F6C6343 STOP SDIV GT STOP BLOCKHASH "
		},
		"gasEstimates": {
			"creation": {
				"codeDepositCost": "742400",
				"executionCost": "773",
				"totalCost": "743173"
			},
			"external": {
				"allowance(address,address)": "infinite",
				"allowanceCoupons(address,address)": "infinite",
				"approveFor(address)": "infinite",
				"balanceOf(address)": "infinite",
				"balanceOfBonded(address)": "infinite",
				"balanceOfCoupons(address,uint256)": "infinite",
				"balanceOfStaged(address)": "infinite",
				"bootstrappingAt(uint256)": "infinite",
				"couponsExpiration(uint256)": "infinite",
				"decimals()": "395",
				"dollar()": "infinite",
				"epoch()": "1144",
				"epochTime()": "infinite",
				"expiringCoupons(uint256)": "infinite",
				"expiringCouponsAtIndex(uint256,uint256)": "infinite",
				"implementation()": "infinite",
				"isInitialized(address)": "infinite",
				"isNominated(address)": "infinite",
				"name()": "infinite",
				"oracle()": "infinite",
				"outstandingCoupons(uint256)": "infinite",
				"periodFor(address)": "infinite",
				"pool()": "infinite",
				"recordedVote(address,address)": "infinite",
				"rejectFor(address)": "infinite",
				"startFor(address)": "infinite",
				"statusOf(address)": "infinite",
				"symbol()": "infinite",
				"totalBonded()": "1167",
				"totalBondedAt(uint256)": "infinite",
				"totalCoupons()": "1210",
				"totalDebt()": "1209",
				"totalNet()": "infinite",
				"totalRedeemable()": "1167",
				"totalStaged()": "1232",
				"totalSupply()": "1145",
				"votesFor(address)": "infinite"
			},
			"internal": {
				"blockTimestamp()": "14",
				"epochTimeWithStrategy(struct Constants.EpochStrategy memory)": "infinite"
			}
		},
		"methodIdentifiers": {
			"allowance(address,address)": "dd62ed3e",
			"allowanceCoupons(address,address)": "9f6e1b26",
			"approveFor(address)": "64668022",
			"balanceOf(address)": "70a08231",
			"balanceOfBonded(address)": "825ad607",
			"balanceOfCoupons(address,uint256)": "bc7513e2",
			"balanceOfStaged(address)": "86cf9f14",
			"bootstrappingAt(uint256)": "75d5024b",
			"couponsExpiration(uint256)": "10e95b6c",
			"decimals()": "313ce567",
			"dollar()": "51adeb57",
			"epoch()": "900cf0cf",
			"epochTime()": "5053e461",
			"expiringCoupons(uint256)": "6a39e328",
			"expiringCouponsAtIndex(uint256,uint256)": "4c736099",
			"implementation()": "5c60da1b",
			"isInitialized(address)": "d60b347f",
			"isNominated(address)": "3a3e6c81",
			"name()": "06fdde03",
			"oracle()": "7dc0d1d0",
			"outstandingCoupons(uint256)": "c9aff70c",
			"periodFor(address)": "15e14bf6",
			"pool()": "16f0115b",
			"recordedVote(address,address)": "3fbba9a6",
			"rejectFor(address)": "353a420c",
			"startFor(address)": "f1b7cf49",
			"statusOf(address)": "97a5d5b5",
			"symbol()": "95d89b41",
			"totalBonded()": "44d96e95",
			"totalBondedAt(uint256)": "ffbe3b73",
			"totalCoupons()": "9a649edc",
			"totalDebt()": "fc7b9c18",
			"totalNet()": "a6c409f1",
			"totalRedeemable()": "1edbcf6c",
			"totalStaged()": "cf023779",
			"totalSupply()": "18160ddd",
			"votesFor(address)": "a50cd8e7"
		}
	},
	"abi": [
		{
			"constant": true,
			"inputs": [
				{
					"internalType": "address",
					"name": "owner",
					"type": "address"
				},
				{
					"internalType": "address",
					"name": "spender",
					"type": "address"
				}
			],
			"name": "allowance",
			"outputs": [
				{
					"internalType": "uint256",
					"name": "",
					"type": "uint256"
				}
			],
			"payable": false,
			"stateMutability": "view",
			"type": "function"
		},
		{
			"constant": true,
			"inputs": [
				{
					"internalType": "address",
					"name": "owner",
					"type": "address"
				},
				{
					"internalType": "address",
					"name": "spender",
					"type": "address"
				}
			],
			"name": "allowanceCoupons",
			"outputs": [
				{
					"internalType": "uint256",
					"name": "",
					"type": "uint256"
				}
			],
			"payable": false,
			"stateMutability": "view",
			"type": "function"
		},
		{
			"constant": true,
			"inputs": [
				{
					"internalType": "address",
					"name": "candidate",
					"type": "address"
				}
			],
			"name": "approveFor",
			"outputs": [
				{
					"internalType": "uint256",
					"name": "",
					"type": "uint256"
				}
			],
			"payable": false,
			"stateMutability": "view",
			"type": "function"
		},
		{
			"constant": true,
			"inputs": [
				{
					"internalType": "address",
					"name": "account",
					"type": "address"
				}
			],
			"name": "balanceOf",
			"outputs": [
				{
					"internalType": "uint256",
					"name": "",
					"type": "uint256"
				}
			],
			"payable": false,
			"stateMutability": "view",
			"type": "function"
		},
		{
			"constant": true,
			"inputs": [
				{
					"internalType": "address",
					"name": "account",
					"type": "address"
				}
			],
			"name": "balanceOfBonded",
			"outputs": [
				{
					"internalType": "uint256",
					"name": "",
					"type": "uint256"
				}
			],
			"payable": false,
			"stateMutability": "view",
			"type": "function"
		},
		{
			"constant": true,
			"inputs": [
				{
					"internalType": "address",
					"name": "account",
					"type": "address"
				},
				{
					"internalType": "uint256",
					"name": "epoch",
					"type": "uint256"
				}
			],
			"name": "balanceOfCoupons",
			"outputs": [
				{
					"internalType": "uint256",
					"name": "",
					"type": "uint256"
				}
			],
			"payable": false,
			"stateMutability": "view",
			"type": "function"
		},
		{
			"constant": true,
			"inputs": [
				{
					"internalType": "address",
					"name": "account",
					"type": "address"
				}
			],
			"name": "balanceOfStaged",
			"outputs": [
				{
					"internalType": "uint256",
					"name": "",
					"type": "uint256"
				}
			],
			"payable": false,
			"stateMutability": "view",
			"type": "function"
		},
		{
			"constant": true,
			"inputs": [
				{
					"internalType": "uint256",
					"name": "epoch",
					"type": "uint256"
				}
			],
			"name": "bootstrappingAt",
			"outputs": [
				{
					"internalType": "bool",
					"name": "",
					"type": "bool"
				}
			],
			"payable": false,
			"stateMutability": "view",
			"type": "function"
		},
		{
			"constant": true,
			"inputs": [
				{
					"internalType": "uint256",
					"name": "epoch",
					"type": "uint256"
				}
			],
			"name": "couponsExpiration",
			"outputs": [
				{
					"internalType": "uint256",
					"name": "",
					"type": "uint256"
				}
			],
			"payable": false,
			"stateMutability": "view",
			"type": "function"
		},
		{
			"constant": true,
			"inputs": [],
			"name": "decimals",
			"outputs": [
				{
					"internalType": "uint8",
					"name": "",
					"type": "uint8"
				}
			],
			"payable": false,
			"stateMutability": "view",
			"type": "function"
		},
		{
			"constant": true,
			"inputs": [],
			"name": "dollar",
			"outputs": [
				{
					"internalType": "contract IDollar",
					"name": "",
					"type": "address"
				}
			],
			"payable": false,
			"stateMutability": "view",
			"type": "function"
		},
		{
			"constant": true,
			"inputs": [],
			"name": "epoch",
			"outputs": [
				{
					"internalType": "uint256",
					"name": "",
					"type": "uint256"
				}
			],
			"payable": false,
			"stateMutability": "view",
			"type": "function"
		},
		{
			"constant": true,
			"inputs": [],
			"name": "epochTime",
			"outputs": [
				{
					"internalType": "uint256",
					"name": "",
					"type": "uint256"
				}
			],
			"payable": false,
			"stateMutability": "view",
			"type": "function"
		},
		{
			"constant": true,
			"inputs": [
				{
					"internalType": "uint256",
					"name": "epoch",
					"type": "uint256"
				}
			],
			"name": "expiringCoupons",
			"outputs": [
				{
					"internalType": "uint256",
					"name": "",
					"type": "uint256"
				}
			],
			"payable": false,
			"stateMutability": "view",
			"type": "function"
		},
		{
			"constant": true,
			"inputs": [
				{
					"internalType": "uint256",
					"name": "epoch",
					"type": "uint256"
				},
				{
					"internalType": "uint256",
					"name": "i",
					"type": "uint256"
				}
			],
			"name": "expiringCouponsAtIndex",
			"outputs": [
				{
					"internalType": "uint256",
					"name": "",
					"type": "uint256"
				}
			],
			"payable": false,
			"stateMutability": "view",
			"type": "function"
		},
		{
			"constant": true,
			"inputs": [],
			"name": "implementation",
			"outputs": [
				{
					"internalType": "address",
					"name": "impl",
					"type": "address"
				}
			],
			"payable": false,
			"stateMutability": "view",
			"type": "function"
		},
		{
			"constant": true,
			"inputs": [
				{
					"internalType": "address",
					"name": "candidate",
					"type": "address"
				}
			],
			"name": "isInitialized",
			"outputs": [
				{
					"internalType": "bool",
					"name": "",
					"type": "bool"
				}
			],
			"payable": false,
			"stateMutability": "view",
			"type": "function"
		},
		{
			"constant": true,
			"inputs": [
				{
					"internalType": "address",
					"name": "candidate",
					"type": "address"
				}
			],
			"name": "isNominated",
			"outputs": [
				{
					"internalType": "bool",
					"name": "",
					"type": "bool"
				}
			],
			"payable": false,
			"stateMutability": "view",
			"type": "function"
		},
		{
			"constant": true,
			"inputs": [],
			"name": "name",
			"outputs": [
				{
					"internalType": "string",
					"name": "",
					"type": "string"
				}
			],
			"payable": false,
			"stateMutability": "view",
			"type": "function"
		},
		{
			"constant": true,
			"inputs": [],
			"name": "oracle",
			"outputs": [
				{
					"internalType": "contract IOracle",
					"name": "",
					"type": "address"
				}
			],
			"payable": false,
			"stateMutability": "view",
			"type": "function"
		},
		{
			"constant": true,
			"inputs": [
				{
					"internalType": "uint256",
					"name": "epoch",
					"type": "uint256"
				}
			],
			"name": "outstandingCoupons",
			"outputs": [
				{
					"internalType": "uint256",
					"name": "",
					"type": "uint256"
				}
			],
			"payable": false,
			"stateMutability": "view",
			"type": "function"
		},
		{
			"constant": true,
			"inputs": [
				{
					"internalType": "address",
					"name": "candidate",
					"type": "address"
				}
			],
			"name": "periodFor",
			"outputs": [
				{
					"internalType": "uint256",
					"name": "",
					"type": "uint256"
				}
			],
			"payable": false,
			"stateMutability": "view",
			"type": "function"
		},
		{
			"constant": true,
			"inputs": [],
			"name": "pool",
			"outputs": [
				{
					"internalType": "address",
					"name": "",
					"type": "address"
				}
			],
			"payable": false,
			"stateMutability": "view",
			"type": "function"
		},
		{
			"constant": true,
			"inputs": [
				{
					"internalType": "address",
					"name": "account",
					"type": "address"
				},
				{
					"internalType": "address",
					"name": "candidate",
					"type": "address"
				}
			],
			"name": "recordedVote",
			"outputs": [
				{
					"internalType": "enum Candidate.Vote",
					"name": "",
					"type": "uint8"
				}
			],
			"payable": false,
			"stateMutability": "view",
			"type": "function"
		},
		{
			"constant": true,
			"inputs": [
				{
					"internalType": "address",
					"name": "candidate",
					"type": "address"
				}
			],
			"name": "rejectFor",
			"outputs": [
				{
					"internalType": "uint256",
					"name": "",
					"type": "uint256"
				}
			],
			"payable": false,
			"stateMutability": "view",
			"type": "function"
		},
		{
			"constant": true,
			"inputs": [
				{
					"internalType": "address",
					"name": "candidate",
					"type": "address"
				}
			],
			"name": "startFor",
			"outputs": [
				{
					"internalType": "uint256",
					"name": "",
					"type": "uint256"
				}
			],
			"payable": false,
			"stateMutability": "view",
			"type": "function"
		},
		{
			"constant": true,
			"inputs": [
				{
					"internalType": "address",
					"name": "account",
					"type": "address"
				}
			],
			"name": "statusOf",
			"outputs": [
				{
					"internalType": "enum Account.Status",
					"name": "",
					"type": "uint8"
				}
			],
			"payable": false,
			"stateMutability": "view",
			"type": "function"
		},
		{
			"constant": true,
			"inputs": [],
			"name": "symbol",
			"outputs": [
				{
					"internalType": "string",
					"name": "",
					"type": "string"
				}
			],
			"payable": false,
			"stateMutability": "view",
			"type": "function"
		},
		{
			"constant": true,
			"inputs": [],
			"name": "totalBonded",
			"outputs": [
				{
					"internalType": "uint256",
					"name": "",
					"type": "uint256"
				}
			],
			"payable": false,
			"stateMutability": "view",
			"type": "function"
		},
		{
			"constant": true,
			"inputs": [
				{
					"internalType": "uint256",
					"name": "epoch",
					"type": "uint256"
				}
			],
			"name": "totalBondedAt",
			"outputs": [
				{
					"internalType": "uint256",
					"name": "",
					"type": "uint256"
				}
			],
			"payable": false,
			"stateMutability": "view",
			"type": "function"
		},
		{
			"constant": true,
			"inputs": [],
			"name": "totalCoupons",
			"outputs": [
				{
					"internalType": "uint256",
					"name": "",
					"type": "uint256"
				}
			],
			"payable": false,
			"stateMutability": "view",
			"type": "function"
		},
		{
			"constant": true,
			"inputs": [],
			"name": "totalDebt",
			"outputs": [
				{
					"internalType": "uint256",
					"name": "",
					"type": "uint256"
				}
			],
			"payable": false,
			"stateMutability": "view",
			"type": "function"
		},
		{
			"constant": true,
			"inputs": [],
			"name": "totalNet",
			"outputs": [
				{
					"internalType": "uint256",
					"name": "",
					"type": "uint256"
				}
			],
			"payable": false,
			"stateMutability": "view",
			"type": "function"
		},
		{
			"constant": true,
			"inputs": [],
			"name": "totalRedeemable",
			"outputs": [
				{
					"internalType": "uint256",
					"name": "",
					"type": "uint256"
				}
			],
			"payable": false,
			"stateMutability": "view",
			"type": "function"
		},
		{
			"constant": true,
			"inputs": [],
			"name": "totalStaged",
			"outputs": [
				{
					"internalType": "uint256",
					"name": "",
					"type": "uint256"
				}
			],
			"payable": false,
			"stateMutability": "view",
			"type": "function"
		},
		{
			"constant": true,
			"inputs": [],
			"name": "totalSupply",
			"outputs": [
				{
					"internalType": "uint256",
					"name": "",
					"type": "uint256"
				}
			],
			"payable": false,
			"stateMutability": "view",
			"type": "function"
		},
		{
			"constant": true,
			"inputs": [
				{
					"internalType": "address",
					"name": "candidate",
					"type": "address"
				}
			],
			"name": "votesFor",
			"outputs": [
				{
					"internalType": "uint256",
					"name": "",
					"type": "uint256"
				}
			],
			"payable": false,
			"stateMutability": "view",
			"type": "function"
		}
	]
}