{
	"data": {
		"bytecode": {
			"linkReferences": {},
			"object": "608060405234801561001057600080fd5b506108f8806100206000396000f3fe608060405234801561001057600080fd5b50600436106101005760003560e01c806378a4c91111610097578063aed29d0711610066578063aed29d07146101e6578063c0d7a94f146101ee578063cf02377914610201578063e0cf72851461020957610100565b806378a4c91114610198578063825ad607146101a057806386cf9f14146101b357806397a5d5b5146101c657610100565b806344d96e95116100d357806344d96e951461016b5780634838ed191461017357806351adeb571461017b5780635c975abb1461018357610100565b80631667eb171461010557806329f32ed41461012e5780633ca5b234146101415780634162169f14610156575b600080fd5b610118610113366004610663565b610211565b60405161012591906107f7565b60405180910390f35b61011861013c366004610663565b610233565b610149610251565b604051610125919061078e565b61015e610260565b60405161012591906107aa565b61011861026f565b610118610275565b61015e61027b565b61018b61028a565b604051610125919061079c565b61015e610293565b6101186101ae366004610663565b6102a2565b6101186101c1366004610663565b6102c0565b6101d96101d4366004610663565b6102db565b60405161012591906107b8565b610118610315565b6101186101fc366004610663565b6103b1565b610118610459565b61011861045f565b6001600160a01b0381166000908152600860205260409020600101545b919050565b6001600160a01b031660009081526008602052604090206003015490565b600061025b610465565b905090565b6004546001600160a01b031690565b60025490565b60015490565b6005546001600160a01b031690565b60075460ff1690565b6006546001600160a01b031690565b6001600160a01b031660009081526008602052604090206002015490565b6001600160a01b031660009081526008602052604090205490565b6001600160a01b0381166000908152600860205260408120600401546102ff61047d565b101561030c57600161030f565b60005b92915050565b600061025b610322610275565b61032a61027b565b6001600160a01b03166370a08231306040518263ffffffff1660e01b8152600401610355919061078e565b60206040518083038186803b15801561036d57600080fd5b505afa158015610381573d6000803e3d6000fd5b505050506040513d601f19601f820116820180604052506103a59190810190610689565b9063ffffffff6104f716565b6000806103bc61026f565b9050806103cd57600091505061022e565b60006103ee6103da61045f565b6103e2610315565b9063ffffffff61054016565b9050600061041b8361040f610402886102a2565b859063ffffffff61056e16565b9063ffffffff6105a816565b9050600061042886610233565b90508082111561044d57610442828263ffffffff6104f716565b94505050505061022e565b50600095945050505050565b60005490565b60035490565b73e9e7cea3dedca5984780bafc599bd69add087d5690565b6000610487610260565b6001600160a01b031663900cf0cf6040518163ffffffff1660e01b815260040160206040518083038186803b1580156104bf57600080fd5b505afa1580156104d3573d6000803e3d6000fd5b505050506040513d601f19601f8201168201806040525061025b9190810190610689565b600061053983836040518060400160405280601e81526020017f536166654d6174683a207375627472616374696f6e206f766572666c6f7700008152506105ea565b9392505050565b6000828201838110156105395760405162461bcd60e51b8152600401610565906107d7565b60405180910390fd5b60008261057d5750600061030f565b8282028284828161058a57fe5b04146105395760405162461bcd60e51b8152600401610565906107e7565b600061053983836040518060400160405280601a81526020017f536166654d6174683a206469766973696f6e206279207a65726f000000000000815250610616565b6000818484111561060e5760405162461bcd60e51b815260040161056591906107c6565b505050900390565b600081836106375760405162461bcd60e51b815260040161056591906107c6565b50600083858161064357fe5b0495945050505050565b803561030f81610898565b805161030f816108ac565b60006020828403121561067557600080fd5b6000610681848461064d565b949350505050565b60006020828403121561069b57600080fd5b60006106818484610658565b6106b081610812565b82525050565b6106b08161081d565b6106b08161083b565b6106b081610846565b60006106dc82610805565b6106e68185610809565b93506106f6818560208601610851565b6106ff81610881565b9093019392505050565b6000610716601b83610809565b7f536166654d6174683a206164646974696f6e206f766572666c6f770000000000815260200192915050565b600061074f602183610809565b7f536166654d6174683a206d756c7469706c69636174696f6e206f766572666c6f8152607760f81b602082015260400192915050565b6106b081610838565b6020810161030f82846106a7565b6020810161030f82846106b6565b6020810161030f82846106bf565b6020810161030f82846106c8565b6020808252810161053981846106d1565b6020808252810161030f81610709565b6020808252810161030f81610742565b6020810161030f8284610785565b5190565b90815260200190565b600061030f8261082c565b151590565b8061022e8161088b565b6001600160a01b031690565b90565b600061030f82610812565b600061030f82610822565b60005b8381101561086c578181015183820152602001610854565b8381111561087b576000848401525b50505050565b601f01601f191690565b6003811061089557fe5b50565b6108a181610812565b811461089557600080fd5b6108a18161083856fea365627a7a723158201c8761715aacfb902d9f5ff01f00674f9d636cda91eb90205f38479f3b74678c6c6578706572696d656e74616cf564736f6c63430005110040",
			"opcodes": "PUSH1 0x80 PUSH1 0x40 MSTORE CALLVALUE DUP1 ISZERO PUSH2 0x10 JUMPI PUSH1 0x0 DUP1 REVERT JUMPDEST POP PUSH2 0x8F8 DUP1 PUSH2 0x20 PUSH1 0x0 CODECOPY PUSH1 0x0 RETURN INVALID PUSH1 0x80 PUSH1 0x40 MSTORE CALLVALUE DUP1 ISZERO PUSH2 0x10 JUMPI PUSH1 0x0 DUP1 REVERT JUMPDEST POP PUSH1 0x4 CALLDATASIZE LT PUSH2 0x100 JUMPI PUSH1 0x0 CALLDATALOAD PUSH1 0xE0 SHR DUP1 PUSH4 0x78A4C911 GT PUSH2 0x97 JUMPI DUP1 PUSH4 0xAED29D07 GT PUSH2 0x66 JUMPI DUP1 PUSH4 0xAED29D07 EQ PUSH2 0x1E6 JUMPI DUP1 PUSH4 0xC0D7A94F EQ PUSH2 0x1EE JUMPI DUP1 PUSH4 0xCF023779 EQ PUSH2 0x201 JUMPI DUP1 PUSH4 0xE0CF7285 EQ PUSH2 0x209 JUMPI PUSH2 0x100 JUMP JUMPDEST DUP1 PUSH4 0x78A4C911 EQ PUSH2 0x198 JUMPI DUP1 PUSH4 0x825AD607 EQ PUSH2 0x1A0 JUMPI DUP1 PUSH4 0x86CF9F14 EQ PUSH2 0x1B3 JUMPI DUP1 PUSH4 0x97A5D5B5 EQ PUSH2 0x1C6 JUMPI PUSH2 0x100 JUMP JUMPDEST DUP1 PUSH4 0x44D96E95 GT PUSH2 0xD3 JUMPI DUP1 PUSH4 0x44D96E95 EQ PUSH2 0x16B JUMPI DUP1 PUSH4 0x4838ED19 EQ PUSH2 0x173 JUMPI DUP1 PUSH4 0x51ADEB57 EQ PUSH2 0x17B JUMPI DUP1 PUSH4 0x5C975ABB EQ PUSH2 0x183 JUMPI PUSH2 0x100 JUMP JUMPDEST DUP1 PUSH4 0x1667EB17 EQ PUSH2 0x105 JUMPI DUP1 PUSH4 0x29F32ED4 EQ PUSH2 0x12E JUMPI DUP1 PUSH4 0x3CA5B234 EQ PUSH2 0x141 JUMPI DUP1 PUSH4 0x4162169F EQ PUSH2 0x156 JUMPI JUMPDEST PUSH1 0x0 DUP1 REVERT JUMPDEST PUSH2 0x118 PUSH2 0x113 CALLDATASIZE PUSH1 0x4 PUSH2 0x663 JUMP JUMPDEST PUSH2 0x211 JUMP JUMPDEST PUSH1 0x40 MLOAD PUSH2 0x125 SWAP2 SWAP1 PUSH2 0x7F7 JUMP JUMPDEST PUSH1 0x40 MLOAD DUP1 SWAP2 SUB SWAP1 RETURN JUMPDEST PUSH2 0x118 PUSH2 0x13C CALLDATASIZE PUSH1 0x4 PUSH2 0x663 JUMP JUMPDEST PUSH2 0x233 JUMP JUMPDEST PUSH2 0x149 PUSH2 0x251 JUMP JUMPDEST PUSH1 0x40 MLOAD PUSH2 0x125 SWAP2 SWAP1 PUSH2 0x78E JUMP JUMPDEST PUSH2 0x15E PUSH2 0x260 JUMP JUMPDEST PUSH1 0x40 MLOAD PUSH2 0x125 SWAP2 SWAP1 PUSH2 0x7AA JUMP JUMPDEST PUSH2 0x118 PUSH2 0x26F JUMP JUMPDEST PUSH2 0x118 PUSH2 0x275 JUMP JUMPDEST PUSH2 0x15E PUSH2 0x27B JUMP JUMPDEST PUSH2 0x18B PUSH2 0x28A JUMP JUMPDEST PUSH1 0x40 MLOAD PUSH2 0x125 SWAP2 SWAP1 PUSH2 0x79C JUMP JUMPDEST PUSH2 0x15E PUSH2 0x293 JUMP JUMPDEST PUSH2 0x118 PUSH2 0x1AE CALLDATASIZE PUSH1 0x4 PUSH2 0x663 JUMP JUMPDEST PUSH2 0x2A2 JUMP JUMPDEST PUSH2 0x118 PUSH2 0x1C1 CALLDATASIZE PUSH1 0x4 PUSH2 0x663 JUMP JUMPDEST PUSH2 0x2C0 JUMP JUMPDEST PUSH2 0x1D9 PUSH2 0x1D4 CALLDATASIZE PUSH1 0x4 PUSH2 0x663 JUMP JUMPDEST PUSH2 0x2DB JUMP JUMPDEST PUSH1 0x40 MLOAD PUSH2 0x125 SWAP2 SWAP1 PUSH2 0x7B8 JUMP JUMPDEST PUSH2 0x118 PUSH2 0x315 JUMP JUMPDEST PUSH2 0x118 PUSH2 0x1FC CALLDATASIZE PUSH1 0x4 PUSH2 0x663 JUMP JUMPDEST PUSH2 0x3B1 JUMP JUMPDEST PUSH2 0x118 PUSH2 0x459 JUMP JUMPDEST PUSH2 0x118 PUSH2 0x45F JUMP JUMPDEST PUSH1 0x1 PUSH1 0x1 PUSH1 0xA0 SHL SUB DUP2 AND PUSH1 0x0 SWAP1 DUP2 MSTORE PUSH1 0x8 PUSH1 0x20 MSTORE PUSH1 0x40 SWAP1 KECCAK256 PUSH1 0x1 ADD SLOAD JUMPDEST SWAP2 SWAP1 POP JUMP JUMPDEST PUSH1 0x1 PUSH1 0x1 PUSH1 0xA0 SHL SUB AND PUSH1 0x0 SWAP1 DUP2 MSTORE PUSH1 0x8 PUSH1 0x20 MSTORE PUSH1 0x40 SWAP1 KECCAK256 PUSH1 0x3 ADD SLOAD SWAP1 JUMP JUMPDEST PUSH1 0x0 PUSH2 0x25B PUSH2 0x465 JUMP JUMPDEST SWAP1 POP SWAP1 JUMP JUMPDEST PUSH1 0x4 SLOAD PUSH1 0x1 PUSH1 0x1 PUSH1 0xA0 SHL SUB AND SWAP1 JUMP JUMPDEST PUSH1 0x2 SLOAD SWAP1 JUMP JUMPDEST PUSH1 0x1 SLOAD SWAP1 JUMP JUMPDEST PUSH1 0x5 SLOAD PUSH1 0x1 PUSH1 0x1 PUSH1 0xA0 SHL SUB AND SWAP1 JUMP JUMPDEST PUSH1 0x7 SLOAD PUSH1 0xFF AND SWAP1 JUMP JUMPDEST PUSH1 0x6 SLOAD PUSH1 0x1 PUSH1 0x1 PUSH1 0xA0 SHL SUB AND SWAP1 JUMP JUMPDEST PUSH1 0x1 PUSH1 0x1 PUSH1 0xA0 SHL SUB AND PUSH1 0x0 SWAP1 DUP2 MSTORE PUSH1 0x8 PUSH1 0x20 MSTORE PUSH1 0x40 SWAP1 KECCAK256 PUSH1 0x2 ADD SLOAD SWAP1 JUMP JUMPDEST PUSH1 0x1 PUSH1 0x1 PUSH1 0xA0 SHL SUB AND PUSH1 0x0 SWAP1 DUP2 MSTORE PUSH1 0x8 PUSH1 0x20 MSTORE PUSH1 0x40 SWAP1 KECCAK256 SLOAD SWAP1 JUMP JUMPDEST PUSH1 0x1 PUSH1 0x1 PUSH1 0xA0 SHL SUB DUP2 AND PUSH1 0x0 SWAP1 DUP2 MSTORE PUSH1 0x8 PUSH1 0x20 MSTORE PUSH1 0x40 DUP2 KECCAK256 PUSH1 0x4 ADD SLOAD PUSH2 0x2FF PUSH2 0x47D JUMP JUMPDEST LT ISZERO PUSH2 0x30C JUMPI PUSH1 0x1 PUSH2 0x30F JUMP JUMPDEST PUSH1 0x0 JUMPDEST SWAP3 SWAP2 POP POP JUMP JUMPDEST PUSH1 0x0 PUSH2 0x25B PUSH2 0x322 PUSH2 0x275 JUMP JUMPDEST PUSH2 0x32A PUSH2 0x27B JUMP JUMPDEST PUSH1 0x1 PUSH1 0x1 PUSH1 0xA0 SHL SUB AND PUSH4 0x70A08231 ADDRESS PUSH1 0x40 MLOAD DUP3 PUSH4 0xFFFFFFFF AND PUSH1 0xE0 SHL DUP2 MSTORE PUSH1 0x4 ADD PUSH2 0x355 SWAP2 SWAP1 PUSH2 0x78E JUMP JUMPDEST PUSH1 0x20 PUSH1 0x40 MLOAD DUP1 DUP4 SUB DUP2 DUP7 DUP1 EXTCODESIZE ISZERO DUP1 ISZERO PUSH2 0x36D JUMPI PUSH1 0x0 DUP1 REVERT JUMPDEST POP GAS STATICCALL ISZERO DUP1 ISZERO PUSH2 0x381 JUMPI RETURNDATASIZE PUSH1 0x0 DUP1 RETURNDATACOPY RETURNDATASIZE PUSH1 0x0 REVERT JUMPDEST POP POP POP POP PUSH1 0x40 MLOAD RETURNDATASIZE PUSH1 0x1F NOT PUSH1 0x1F DUP3 ADD AND DUP3 ADD DUP1 PUSH1 0x40 MSTORE POP PUSH2 0x3A5 SWAP2 SWAP1 DUP2 ADD SWAP1 PUSH2 0x689 JUMP JUMPDEST SWAP1 PUSH4 0xFFFFFFFF PUSH2 0x4F7 AND JUMP JUMPDEST PUSH1 0x0 DUP1 PUSH2 0x3BC PUSH2 0x26F JUMP JUMPDEST SWAP1 POP DUP1 PUSH2 0x3CD JUMPI PUSH1 0x0 SWAP2 POP POP PUSH2 0x22E JUMP JUMPDEST PUSH1 0x0 PUSH2 0x3EE PUSH2 0x3DA PUSH2 0x45F JUMP JUMPDEST PUSH2 0x3E2 PUSH2 0x315 JUMP JUMPDEST SWAP1 PUSH4 0xFFFFFFFF PUSH2 0x540 AND JUMP JUMPDEST SWAP1 POP PUSH1 0x0 PUSH2 0x41B DUP4 PUSH2 0x40F PUSH2 0x402 DUP9 PUSH2 0x2A2 JUMP JUMPDEST DUP6 SWAP1 PUSH4 0xFFFFFFFF PUSH2 0x56E AND JUMP JUMPDEST SWAP1 PUSH4 0xFFFFFFFF PUSH2 0x5A8 AND JUMP JUMPDEST SWAP1 POP PUSH1 0x0 PUSH2 0x428 DUP7 PUSH2 0x233 JUMP JUMPDEST SWAP1 POP DUP1 DUP3 GT ISZERO PUSH2 0x44D JUMPI PUSH2 0x442 DUP3 DUP3 PUSH4 0xFFFFFFFF PUSH2 0x4F7 AND JUMP JUMPDEST SWAP5 POP POP POP POP POP PUSH2 0x22E JUMP JUMPDEST POP PUSH1 0x0 SWAP6 SWAP5 POP POP POP POP POP JUMP JUMPDEST PUSH1 0x0 SLOAD SWAP1 JUMP JUMPDEST PUSH1 0x3 SLOAD SWAP1 JUMP JUMPDEST PUSH20 0xE9E7CEA3DEDCA5984780BAFC599BD69ADD087D56 SWAP1 JUMP JUMPDEST PUSH1 0x0 PUSH2 0x487 PUSH2 0x260 JUMP JUMPDEST PUSH1 0x1 PUSH1 0x1 PUSH1 0xA0 SHL SUB AND PUSH4 0x900CF0CF PUSH1 0x40 MLOAD DUP2 PUSH4 0xFFFFFFFF AND PUSH1 0xE0 SHL DUP2 MSTORE PUSH1 0x4 ADD PUSH1 0x20 PUSH1 0x40 MLOAD DUP1 DUP4 SUB DUP2 DUP7 DUP1 EXTCODESIZE ISZERO DUP1 ISZERO PUSH2 0x4BF JUMPI PUSH1 0x0 DUP1 REVERT JUMPDEST POP GAS STATICCALL ISZERO DUP1 ISZERO PUSH2 0x4D3 JUMPI RETURNDATASIZE PUSH1 0x0 DUP1 RETURNDATACOPY RETURNDATASIZE PUSH1 0x0 REVERT JUMPDEST POP POP POP POP PUSH1 0x40 MLOAD RETURNDATASIZE PUSH1 0x1F NOT PUSH1 0x1F DUP3 ADD AND DUP3 ADD DUP1 PUSH1 0x40 MSTORE POP PUSH2 0x25B SWAP2 SWAP1 DUP2 ADD SWAP1 PUSH2 0x689 JUMP JUMPDEST PUSH1 0x0 PUSH2 0x539 DUP4 DUP4 PUSH1 0x40 MLOAD DUP1 PUSH1 0x40 ADD PUSH1 0x40 MSTORE DUP1 PUSH1 0x1E DUP2 MSTORE PUSH1 0x20 ADD PUSH32 0x536166654D6174683A207375627472616374696F6E206F766572666C6F770000 DUP2 MSTORE POP PUSH2 0x5EA JUMP JUMPDEST SWAP4 SWAP3 POP POP POP JUMP JUMPDEST PUSH1 0x0 DUP3 DUP3 ADD DUP4 DUP2 LT ISZERO PUSH2 0x539 JUMPI PUSH1 0x40 MLOAD PUSH3 0x461BCD PUSH1 0xE5 SHL DUP2 MSTORE PUSH1 0x4 ADD PUSH2 0x565 SWAP1 PUSH2 0x7D7 JUMP JUMPDEST PUSH1 0x40 MLOAD DUP1 SWAP2 SUB SWAP1 REVERT JUMPDEST PUSH1 0x0 DUP3 PUSH2 0x57D JUMPI POP PUSH1 0x0 PUSH2 0x30F JUMP JUMPDEST DUP3 DUP3 MUL DUP3 DUP5 DUP3 DUP2 PUSH2 0x58A JUMPI INVALID JUMPDEST DIV EQ PUSH2 0x539 JUMPI PUSH1 0x40 MLOAD PUSH3 0x461BCD PUSH1 0xE5 SHL DUP2 MSTORE PUSH1 0x4 ADD PUSH2 0x565 SWAP1 PUSH2 0x7E7 JUMP JUMPDEST PUSH1 0x0 PUSH2 0x539 DUP4 DUP4 PUSH1 0x40 MLOAD DUP1 PUSH1 0x40 ADD PUSH1 0x40 MSTORE DUP1 PUSH1 0x1A DUP2 MSTORE PUSH1 0x20 ADD PUSH32 0x536166654D6174683A206469766973696F6E206279207A65726F000000000000 DUP2 MSTORE POP PUSH2 0x616 JUMP JUMPDEST PUSH1 0x0 DUP2 DUP5 DUP5 GT ISZERO PUSH2 0x60E JUMPI PUSH1 0x40 MLOAD PUSH3 0x461BCD PUSH1 0xE5 SHL DUP2 MSTORE PUSH1 0x4 ADD PUSH2 0x565 SWAP2 SWAP1 PUSH2 0x7C6 JUMP JUMPDEST POP POP POP SWAP1 SUB SWAP1 JUMP JUMPDEST PUSH1 0x0 DUP2 DUP4 PUSH2 0x637 JUMPI PUSH1 0x40 MLOAD PUSH3 0x461BCD PUSH1 0xE5 SHL DUP2 MSTORE PUSH1 0x4 ADD PUSH2 0x565 SWAP2 SWAP1 PUSH2 0x7C6 JUMP JUMPDEST POP PUSH1 0x0 DUP4 DUP6 DUP2 PUSH2 0x643 JUMPI INVALID JUMPDEST DIV SWAP6 SWAP5 POP POP POP POP POP JUMP JUMPDEST DUP1 CALLDATALOAD PUSH2 0x30F DUP2 PUSH2 0x898 JUMP JUMPDEST DUP1 MLOAD PUSH2 0x30F DUP2 PUSH2 0x8AC JUMP JUMPDEST PUSH1 0x0 PUSH1 0x20 DUP3 DUP5 SUB SLT ISZERO PUSH2 0x675 JUMPI PUSH1 0x0 DUP1 REVERT JUMPDEST PUSH1 0x0 PUSH2 0x681 DUP5 DUP5 PUSH2 0x64D JUMP JUMPDEST SWAP5 SWAP4 POP POP POP POP JUMP JUMPDEST PUSH1 0x0 PUSH1 0x20 DUP3 DUP5 SUB SLT ISZERO PUSH2 0x69B JUMPI PUSH1 0x0 DUP1 REVERT JUMPDEST PUSH1 0x0 PUSH2 0x681 DUP5 DUP5 PUSH2 0x658 JUMP JUMPDEST PUSH2 0x6B0 DUP2 PUSH2 0x812 JUMP JUMPDEST DUP3 MSTORE POP POP JUMP JUMPDEST PUSH2 0x6B0 DUP2 PUSH2 0x81D JUMP JUMPDEST PUSH2 0x6B0 DUP2 PUSH2 0x83B JUMP JUMPDEST PUSH2 0x6B0 DUP2 PUSH2 0x846 JUMP JUMPDEST PUSH1 0x0 PUSH2 0x6DC DUP3 PUSH2 0x805 JUMP JUMPDEST PUSH2 0x6E6 DUP2 DUP6 PUSH2 0x809 JUMP JUMPDEST SWAP4 POP PUSH2 0x6F6 DUP2 DUP6 PUSH1 0x20 DUP7 ADD PUSH2 0x851 JUMP JUMPDEST PUSH2 0x6FF DUP2 PUSH2 0x881 JUMP JUMPDEST SWAP1 SWAP4 ADD SWAP4 SWAP3 POP POP POP JUMP JUMPDEST PUSH1 0x0 PUSH2 0x716 PUSH1 0x1B DUP4 PUSH2 0x809 JUMP JUMPDEST PUSH32 0x536166654D6174683A206164646974696F6E206F766572666C6F770000000000 DUP2 MSTORE PUSH1 0x20 ADD SWAP3 SWAP2 POP POP JUMP JUMPDEST PUSH1 0x0 PUSH2 0x74F PUSH1 0x21 DUP4 PUSH2 0x809 JUMP JUMPDEST PUSH32 0x536166654D6174683A206D756C7469706C69636174696F6E206F766572666C6F DUP2 MSTORE PUSH1 0x77 PUSH1 0xF8 SHL PUSH1 0x20 DUP3 ADD MSTORE PUSH1 0x40 ADD SWAP3 SWAP2 POP POP JUMP JUMPDEST PUSH2 0x6B0 DUP2 PUSH2 0x838 JUMP JUMPDEST PUSH1 0x20 DUP2 ADD PUSH2 0x30F DUP3 DUP5 PUSH2 0x6A7 JUMP JUMPDEST PUSH1 0x20 DUP2 ADD PUSH2 0x30F DUP3 DUP5 PUSH2 0x6B6 JUMP JUMPDEST PUSH1 0x20 DUP2 ADD PUSH2 0x30F DUP3 DUP5 PUSH2 0x6BF JUMP JUMPDEST PUSH1 0x20 DUP2 ADD PUSH2 0x30F DUP3 DUP5 PUSH2 0x6C8 JUMP JUMPDEST PUSH1 0x20 DUP1 DUP3 MSTORE DUP2 ADD PUSH2 0x539 DUP2 DUP5 PUSH2 0x6D1 JUMP JUMPDEST PUSH1 0x20 DUP1 DUP3 MSTORE DUP2 ADD PUSH2 0x30F DUP2 PUSH2 0x709 JUMP JUMPDEST PUSH1 0x20 DUP1 DUP3 MSTORE DUP2 ADD PUSH2 0x30F DUP2 PUSH2 0x742 JUMP JUMPDEST PUSH1 0x20 DUP2 ADD PUSH2 0x30F DUP3 DUP5 PUSH2 0x785 JUMP JUMPDEST MLOAD SWAP1 JUMP JUMPDEST SWAP1 DUP2 MSTORE PUSH1 0x20 ADD SWAP1 JUMP JUMPDEST PUSH1 0x0 PUSH2 0x30F DUP3 PUSH2 0x82C JUMP JUMPDEST ISZERO ISZERO SWAP1 JUMP JUMPDEST DUP1 PUSH2 0x22E DUP2 PUSH2 0x88B JUMP JUMPDEST PUSH1 0x1 PUSH1 0x1 PUSH1 0xA0 SHL SUB AND SWAP1 JUMP JUMPDEST SWAP1 JUMP JUMPDEST PUSH1 0x0 PUSH2 0x30F DUP3 PUSH2 0x812 JUMP JUMPDEST PUSH1 0x0 PUSH2 0x30F DUP3 PUSH2 0x822 JUMP JUMPDEST PUSH1 0x0 JUMPDEST DUP4 DUP2 LT ISZERO PUSH2 0x86C JUMPI DUP2 DUP2 ADD MLOAD DUP4 DUP3 ADD MSTORE PUSH1 0x20 ADD PUSH2 0x854 JUMP JUMPDEST DUP4 DUP2 GT ISZERO PUSH2 0x87B JUMPI PUSH1 0x0 DUP5 DUP5 ADD MSTORE JUMPDEST POP POP POP POP JUMP JUMPDEST PUSH1 0x1F ADD PUSH1 0x1F NOT AND SWAP1 JUMP JUMPDEST PUSH1 0x3 DUP2 LT PUSH2 0x895 JUMPI INVALID JUMPDEST POP JUMP JUMPDEST PUSH2 0x8A1 DUP2 PUSH2 0x812 JUMP JUMPDEST DUP2 EQ PUSH2 0x895 JUMPI PUSH1 0x0 DUP1 REVERT JUMPDEST PUSH2 0x8A1 DUP2 PUSH2 0x838 JUMP INVALID LOG3 PUSH6 0x627A7A723158 KECCAK256 SHR DUP8 PUSH2 0x715A 0xAC 0xFB SWAP1 0x2D SWAP16 0x5F CREATE 0x1F STOP PUSH8 0x4F9D636CDA91EB90 KECCAK256 0x5F CODESIZE SELFBALANCE SWAP16 EXTCODESIZE PUSH21 0x678C6C6578706572696D656E74616CF564736F6C63 NUMBER STOP SDIV GT STOP BLOCKHASH "
		},
		"gasEstimates": {
			"creation": {
				"codeDepositCost": "459200",
				"executionCost": "493",
				"totalCost": "459693"
			},
			"external": {
				"Pancakev2()": "infinite",
				"balanceOfBonded(address)": "infinite",
				"balanceOfClaimable(address)": "infinite",
				"balanceOfPhantom(address)": "infinite",
				"balanceOfRewarded(address)": "infinite",
				"balanceOfStaged(address)": "infinite",
				"busd()": "infinite",
				"dao()": "infinite",
				"dollar()": "infinite",
				"paused()": "1200",
				"statusOf(address)": "infinite",
				"totalBonded()": "1122",
				"totalClaimable()": "1144",
				"totalPhantom()": "1187",
				"totalRewarded()": "infinite",
				"totalStaged()": "1165"
			},
			"internal": {
				"addLiquidity(uint256)": "infinite",
				"getReserves(address,address)": "infinite"
			}
		},
		"methodIdentifiers": {
			"Pancakev2()": "78a4c911",
			"balanceOfBonded(address)": "825ad607",
			"balanceOfClaimable(address)": "1667eb17",
			"balanceOfPhantom(address)": "29f32ed4",
			"balanceOfRewarded(address)": "c0d7a94f",
			"balanceOfStaged(address)": "86cf9f14",
			"busd()": "3ca5b234",
			"dao()": "4162169f",
			"dollar()": "51adeb57",
			"paused()": "5c975abb",
			"statusOf(address)": "97a5d5b5",
			"totalBonded()": "44d96e95",
			"totalClaimable()": "4838ed19",
			"totalPhantom()": "e0cf7285",
			"totalRewarded()": "aed29d07",
			"totalStaged()": "cf023779"
		}
	},
	"abi": [
		{
			"constant": true,
			"inputs": [],
			"name": "Pancakev2",
			"outputs": [
				{
					"internalType": "contract IBEP20",
					"name": "",
					"type": "address"
				}
			],
			"payable": false,
			"stateMutability": "view",
			"type": "function"
		},
		{
			"constant": true,
			"inputs": [
				{
					"internalType": "address",
					"name": "account",
					"type": "address"
				}
			],
			"name": "balanceOfBonded",
			"outputs": [
				{
					"internalType": "uint256",
					"name": "",
					"type": "uint256"
				}
			],
			"payable": false,
			"stateMutability": "view",
			"type": "function"
		},
		{
			"constant": true,
			"inputs": [
				{
					"internalType": "address",
					"name": "account",
					"type": "address"
				}
			],
			"name": "balanceOfClaimable",
			"outputs": [
				{
					"internalType": "uint256",
					"name": "",
					"type": "uint256"
				}
			],
			"payable": false,
			"stateMutability": "view",
			"type": "function"
		},
		{
			"constant": true,
			"inputs": [
				{
					"internalType": "address",
					"name": "account",
					"type": "address"
				}
			],
			"name": "balanceOfPhantom",
			"outputs": [
				{
					"internalType": "uint256",
					"name": "",
					"type": "uint256"
				}
			],
			"payable": false,
			"stateMutability": "view",
			"type": "function"
		},
		{
			"constant": true,
			"inputs": [
				{
					"internalType": "address",
					"name": "account",
					"type": "address"
				}
			],
			"name": "balanceOfRewarded",
			"outputs": [
				{
					"internalType": "uint256",
					"name": "",
					"type": "uint256"
				}
			],
			"payable": false,
			"stateMutability": "view",
			"type": "function"
		},
		{
			"constant": true,
			"inputs": [
				{
					"internalType": "address",
					"name": "account",
					"type": "address"
				}
			],
			"name": "balanceOfStaged",
			"outputs": [
				{
					"internalType": "uint256",
					"name": "",
					"type": "uint256"
				}
			],
			"payable": false,
			"stateMutability": "view",
			"type": "function"
		},
		{
			"constant": true,
			"inputs": [],
			"name": "busd",
			"outputs": [
				{
					"internalType": "address",
					"name": "",
					"type": "address"
				}
			],
			"payable": false,
			"stateMutability": "view",
			"type": "function"
		},
		{
			"constant": true,
			"inputs": [],
			"name": "dao",
			"outputs": [
				{
					"internalType": "contract IDAO",
					"name": "",
					"type": "address"
				}
			],
			"payable": false,
			"stateMutability": "view",
			"type": "function"
		},
		{
			"constant": true,
			"inputs": [],
			"name": "dollar",
			"outputs": [
				{
					"internalType": "contract IDollar",
					"name": "",
					"type": "address"
				}
			],
			"payable": false,
			"stateMutability": "view",
			"type": "function"
		},
		{
			"constant": true,
			"inputs": [],
			"name": "paused",
			"outputs": [
				{
					"internalType": "bool",
					"name": "",
					"type": "bool"
				}
			],
			"payable": false,
			"stateMutability": "view",
			"type": "function"
		},
		{
			"constant": true,
			"inputs": [
				{
					"internalType": "address",
					"name": "account",
					"type": "address"
				}
			],
			"name": "statusOf",
			"outputs": [
				{
					"internalType": "enum PoolAccount.Status",
					"name": "",
					"type": "uint8"
				}
			],
			"payable": false,
			"stateMutability": "view",
			"type": "function"
		},
		{
			"constant": true,
			"inputs": [],
			"name": "totalBonded",
			"outputs": [
				{
					"internalType": "uint256",
					"name": "",
					"type": "uint256"
				}
			],
			"payable": false,
			"stateMutability": "view",
			"type": "function"
		},
		{
			"constant": true,
			"inputs": [],
			"name": "totalClaimable",
			"outputs": [
				{
					"internalType": "uint256",
					"name": "",
					"type": "uint256"
				}
			],
			"payable": false,
			"stateMutability": "view",
			"type": "function"
		},
		{
			"constant": true,
			"inputs": [],
			"name": "totalPhantom",
			"outputs": [
				{
					"internalType": "uint256",
					"name": "",
					"type": "uint256"
				}
			],
			"payable": false,
			"stateMutability": "view",
			"type": "function"
		},
		{
			"constant": true,
			"inputs": [],
			"name": "totalRewarded",
			"outputs": [
				{
					"internalType": "uint256",
					"name": "",
					"type": "uint256"
				}
			],
			"payable": false,
			"stateMutability": "view",
			"type": "function"
		},
		{
			"constant": true,
			"inputs": [],
			"name": "totalStaged",
			"outputs": [
				{
					"internalType": "uint256",
					"name": "",
					"type": "uint256"
				}
			],
			"payable": false,
			"stateMutability": "view",
			"type": "function"
		}
	]
}