{
	"data": {
		"bytecode": {
			"linkReferences": {},
			"object": "608060405234801561001057600080fd5b5060405161115738038061115783398101604081905261002f91610073565b60008054336001600160a01b031991821617909155600180549091166001600160a01b03929092169190911790556100c1565b805161006d816100aa565b92915050565b60006020828403121561008557600080fd5b60006100918484610062565b949350505050565b60006001600160a01b03821661006d565b6100b381610099565b81146100be57600080fd5b50565b611087806100d06000396000f3fe608060405234801561001057600080fd5b506004361061004c5760003560e01c8063a8aa1b3114610051578063ba0bba401461006f578063cd3293de14610079578063d4a3e9d71461008e575b600080fd5b6100596100a4565b6040516100669190610f02565b60405180910390f35b6100776100b3565b005b610081610307565b6040516100669190610f77565b61009661030d565b604051610066929190610f5c565b6002546001600160a01b031690565b6000546100df906001600160a01b03163314654f7261636c6560d01b664e6f742064616f60c81b610380565b60015473bcfccbde45ce874adcb698cc183debcf179528129063c9c65396906001600160a01b031661010f6103e3565b6040518363ffffffff1660e01b815260040161012c929190610f10565b602060405180830381600087803b15801561014657600080fd5b505af115801561015a573d6000803e3d6000fd5b505050506040513d601f19601f8201168201806040525061017e9190810190610cd5565b600280546001600160a01b0319166001600160a01b03928316179081905560408051630dfe168160e01b8152905160009384931691630dfe1681916004808301926020929190829003018186803b1580156101d857600080fd5b505afa1580156101ec573d6000803e3d6000fd5b505050506040513d601f19601f820116820180604052506102109190810190610cd5565b600260009054906101000a90046001600160a01b03166001600160a01b031663d21220a76040518163ffffffff1660e01b815260040160206040518083038186803b15801561025e57600080fd5b505afa158015610272573d6000803e3d6000fd5b505050506040513d601f19601f820116820180604052506102969190810190610cd5565b60015491935091506001600160a01b038084169116146102b75760016102ba565b60005b60ff1660038190556103039015806102df57506001546001600160a01b038381169116145b654f7261636c6560d01b701130ee1b1b185c881b9bdd08199bdd5b99607a1b610380565b5050565b60065490565b610315610c79565b60008054610342906001600160a01b03163314654f7261636c6560d01b664e6f742064616f60c81b610380565b600154600160a01b900460ff16156103655761035c6103f2565b9150915061037c565b61036d6104e7565b6103756106f1565b6000915091505b9091565b826103de5761038e82610713565b6101d160f51b61039d83610713565b6040516020016103af93929190610ed1565b60408051601f198184030181529082905262461bcd60e51b82526103d591600401610f2b565b60405180910390fd5b505050565b60006103ed610795565b905090565b6103fa610c79565b6000610404610c79565b61040c6107ad565b9050600061041861084a565b905060006104246103e3565b60025460405163fe575a8760e01b81526001600160a01b039283169263fe575a879261045592911690600401610f02565b60206040518083038186803b15801561046d57600080fd5b505afa158015610481573d6000803e3d6000fd5b505050506040513d601f19601f820116820180604052506104a59190810190610cfb565b905060016104b1610906565b8310156104bc575060005b6104c4610906565b60065410156104d1575060005b81156104db575060005b92945091925050509091565b6002546003546001600160a01b03909116906000901561057757816001600160a01b0316635a3d54936040518163ffffffff1660e01b815260040160206040518083038186803b15801561053a57600080fd5b505afa15801561054e573d6000803e3d6000fd5b505050506040513d601f19601f820116820180604052506105729190810190610d66565b6105e8565b816001600160a01b0316635909c0d56040518163ffffffff1660e01b815260040160206040518083038186803b1580156105b057600080fd5b505afa1580156105c4573d6000803e3d6000fd5b505050506040513d601f19601f820116820180604052506105e89190810190610d66565b90506000806000846001600160a01b0316630902f1ac6040518163ffffffff1660e01b815260040160606040518083038186803b15801561062857600080fd5b505afa15801561063c573d6000803e3d6000fd5b505050506040513d601f19601f820116820180604052506106609190810190610d19565b925092509250826001600160701b031660001415801561068857506001600160701b03821615155b8015610699575063ffffffff811615155b156106ea5760048490556005805463ffffffff831663ffffffff199091161790556001805460ff60a01b1916600160a01b179055600354156106db57826106dd565b815b6001600160701b03166006555b5050505050565b6106f9610c79565b506040805160208101909152670de0b6b3a7640000815290565b606080826040516020016107279190610ebc565b60408051601f19818403018152919052905060205b801561077c5781516000199091019082908290811061075757fe5b01602001516001600160f81b031916156107775760010181529050610790565b61073c565b505060408051600081526020810190915290505b919050565b73e9e7cea3dedca5984780bafc599bd69add087d5690565b6107b5610c79565b600254600090819081906107d1906001600160a01b0316610914565b600554600354939650919450925063ffffffff16820390600090156107f657836107f8565b845b9050610802610c79565b6108238363ffffffff1660045484038161081857fe5b04600160701b610ae9565b6005805463ffffffff191663ffffffff969096169590951790945550600455509392505050565b6000806006549050600080600260009054906101000a90046001600160a01b03166001600160a01b0316630902f1ac6040518163ffffffff1660e01b815260040160606040518083038186803b1580156108a357600080fd5b505afa1580156108b7573d6000803e3d6000fd5b505050506040513d601f19601f820116820180604052506108db9190810190610d19565b50915091506003546000146108f057816108f2565b805b6001600160701b0316600655509091505090565b69021e19e0c9bab240000090565b6000806000610921610b1a565b9050836001600160a01b0316635909c0d56040518163ffffffff1660e01b815260040160206040518083038186803b15801561095c57600080fd5b505afa158015610970573d6000803e3d6000fd5b505050506040513d601f19601f820116820180604052506109949190810190610d66565b9250836001600160a01b0316635a3d54936040518163ffffffff1660e01b815260040160206040518083038186803b1580156109cf57600080fd5b505afa1580156109e3573d6000803e3d6000fd5b505050506040513d601f19601f82011682018060405250610a079190810190610d66565b91506000806000866001600160a01b0316630902f1ac6040518163ffffffff1660e01b815260040160606040518083038186803b158015610a4757600080fd5b505afa158015610a5b573d6000803e3d6000fd5b505050506040513d601f19601f82011682018060405250610a7f9190810190610d19565b9250925092508363ffffffff168163ffffffff1614610adf5780840363ffffffff8116610aac8486610b24565b516001600160e01b031602969096019563ffffffff8116610acd8585610b24565b516001600160e01b0316029590950194505b5050509193909250565b610af1610c79565b6040518060200160405280610b0f85670de0b6b3a764000086610b9f565b905290505b92915050565b63ffffffff421690565b610b2c610c8c565b6000826001600160701b031611610b555760405162461bcd60e51b81526004016103d590610f4c565b6040805160208101909152806001600160701b0384166dffffffffffffffffffffffffffff60701b607087901b1681610b8a57fe5b046001600160e01b0316815250905092915050565b6000610bc182610bb5868663ffffffff610bcb16565b9063ffffffff610c0516565b90505b9392505050565b600082610bda57506000610b14565b82820282848281610be757fe5b0414610bc45760405162461bcd60e51b81526004016103d590610f3c565b6000610bc483836040518060400160405280601a81526020017f536166654d6174683a206469766973696f6e206279207a65726f00000000000081525060008183610c635760405162461bcd60e51b81526004016103d59190610f2b565b506000838581610c6f57fe5b0495945050505050565b6040518060200160405280600081525090565b60408051602081019091526000815290565b8051610b1481611009565b8051610b1481611020565b8051610b1481611029565b8051610b1481611032565b8051610b148161103b565b600060208284031215610ce757600080fd5b6000610cf38484610c9e565b949350505050565b600060208284031215610d0d57600080fd5b6000610cf38484610ca9565b600080600060608486031215610d2e57600080fd5b6000610d3a8686610cb4565b9350506020610d4b86828701610cb4565b9250506040610d5c86828701610cca565b9150509250925092565b600060208284031215610d7857600080fd5b6000610cf38484610cbf565b610d8d81610f92565b82525050565b610d8d81610f9d565b610d8d610da882610fa2565b610faf565b610d8d610da882610faf565b6000610dc482610f85565b610dce8185610790565b9350610dde818560208601610fd3565b9290920192915050565b6000610df382610f85565b610dfd8185610f89565b9350610e0d818560208601610fd3565b610e1681610fff565b9093019392505050565b6000610e2d602183610f89565b7f536166654d6174683a206d756c7469706c69636174696f6e206f766572666c6f8152607760f81b602082015260400192915050565b6000610e70601783610f89565b7f4669786564506f696e743a204449565f42595f5a45524f000000000000000000815260200192915050565b80516020830190610ead8482610eb3565b50505050565b610d8d81610faf565b6000610ec88284610dad565b50602001919050565b6000610edd8286610db9565b9150610ee98285610d9c565b600282019150610ef98284610db9565b95945050505050565b60208101610b148284610d84565b60408101610f1e8285610d84565b610bc46020830184610d84565b60208082528101610bc48184610de8565b60208082528101610b1481610e20565b60208082528101610b1481610e63565b60408101610f6a8285610e9c565b610bc46020830184610d93565b60208101610b148284610eb3565b5190565b90815260200190565b6000610b1482610fbe565b151590565b6001600160f01b03191690565b90565b6001600160701b031690565b6001600160a01b031690565b63ffffffff1690565b60005b83811015610fee578181015183820152602001610fd6565b83811115610ead5750506000910152565b601f01601f191690565b61101281610f92565b811461101d57600080fd5b50565b61101281610f9d565b61101281610fb2565b61101281610faf565b61101281610fca56fea365627a7a723158206536865ef578da02f06eff17e7b5abef4798c9ad518e92f9c2cd5050d515b81b6c6578706572696d656e74616cf564736f6c63430005110040",
			"opcodes": "PUSH1 0x80 PUSH1 0x40 MSTORE CALLVALUE DUP1 ISZERO PUSH2 0x10 JUMPI PUSH1 0x0 DUP1 REVERT JUMPDEST POP PUSH1 0x40 MLOAD PUSH2 0x1157 CODESIZE SUB DUP1 PUSH2 0x1157 DUP4 CODECOPY DUP2 ADD PUSH1 0x40 DUP2 SWAP1 MSTORE PUSH2 0x2F SWAP2 PUSH2 0x73 JUMP JUMPDEST PUSH1 0x0 DUP1 SLOAD CALLER PUSH1 0x1 PUSH1 0x1 PUSH1 0xA0 SHL SUB NOT SWAP2 DUP3 AND OR SWAP1 SWAP2 SSTORE PUSH1 0x1 DUP1 SLOAD SWAP1 SWAP2 AND PUSH1 0x1 PUSH1 0x1 PUSH1 0xA0 SHL SUB SWAP3 SWAP1 SWAP3 AND SWAP2 SWAP1 SWAP2 OR SWAP1 SSTORE PUSH2 0xC1 JUMP JUMPDEST DUP1 MLOAD PUSH2 0x6D DUP2 PUSH2 0xAA JUMP JUMPDEST SWAP3 SWAP2 POP POP JUMP JUMPDEST PUSH1 0x0 PUSH1 0x20 DUP3 DUP5 SUB SLT ISZERO PUSH2 0x85 JUMPI PUSH1 0x0 DUP1 REVERT JUMPDEST PUSH1 0x0 PUSH2 0x91 DUP5 DUP5 PUSH2 0x62 JUMP JUMPDEST SWAP5 SWAP4 POP POP POP POP JUMP JUMPDEST PUSH1 0x0 PUSH1 0x1 PUSH1 0x1 PUSH1 0xA0 SHL SUB DUP3 AND PUSH2 0x6D JUMP JUMPDEST PUSH2 0xB3 DUP2 PUSH2 0x99 JUMP JUMPDEST DUP2 EQ PUSH2 0xBE JUMPI PUSH1 0x0 DUP1 REVERT JUMPDEST POP JUMP JUMPDEST PUSH2 0x1087 DUP1 PUSH2 0xD0 PUSH1 0x0 CODECOPY PUSH1 0x0 RETURN INVALID PUSH1 0x80 PUSH1 0x40 MSTORE CALLVALUE DUP1 ISZERO PUSH2 0x10 JUMPI PUSH1 0x0 DUP1 REVERT JUMPDEST POP PUSH1 0x4 CALLDATASIZE LT PUSH2 0x4C JUMPI PUSH1 0x0 CALLDATALOAD PUSH1 0xE0 SHR DUP1 PUSH4 0xA8AA1B31 EQ PUSH2 0x51 JUMPI DUP1 PUSH4 0xBA0BBA40 EQ PUSH2 0x6F JUMPI DUP1 PUSH4 0xCD3293DE EQ PUSH2 0x79 JUMPI DUP1 PUSH4 0xD4A3E9D7 EQ PUSH2 0x8E JUMPI JUMPDEST PUSH1 0x0 DUP1 REVERT JUMPDEST PUSH2 0x59 PUSH2 0xA4 JUMP JUMPDEST PUSH1 0x40 MLOAD PUSH2 0x66 SWAP2 SWAP1 PUSH2 0xF02 JUMP JUMPDEST PUSH1 0x40 MLOAD DUP1 SWAP2 SUB SWAP1 RETURN JUMPDEST PUSH2 0x77 PUSH2 0xB3 JUMP JUMPDEST STOP JUMPDEST PUSH2 0x81 PUSH2 0x307 JUMP JUMPDEST PUSH1 0x40 MLOAD PUSH2 0x66 SWAP2 SWAP1 PUSH2 0xF77 JUMP JUMPDEST PUSH2 0x96 PUSH2 0x30D JUMP JUMPDEST PUSH1 0x40 MLOAD PUSH2 0x66 SWAP3 SWAP2 SWAP1 PUSH2 0xF5C JUMP JUMPDEST PUSH1 0x2 SLOAD PUSH1 0x1 PUSH1 0x1 PUSH1 0xA0 SHL SUB AND SWAP1 JUMP JUMPDEST PUSH1 0x0 SLOAD PUSH2 0xDF SWAP1 PUSH1 0x1 PUSH1 0x1 PUSH1 0xA0 SHL SUB AND CALLER EQ PUSH6 0x4F7261636C65 PUSH1 0xD0 SHL PUSH7 0x4E6F742064616F PUSH1 0xC8 SHL PUSH2 0x380 JUMP JUMPDEST PUSH1 0x1 SLOAD PUSH20 0xBCFCCBDE45CE874ADCB698CC183DEBCF17952812 SWAP1 PUSH4 0xC9C65396 SWAP1 PUSH1 0x1 PUSH1 0x1 PUSH1 0xA0 SHL SUB AND PUSH2 0x10F PUSH2 0x3E3 JUMP JUMPDEST PUSH1 0x40 MLOAD DUP4 PUSH4 0xFFFFFFFF AND PUSH1 0xE0 SHL DUP2 MSTORE PUSH1 0x4 ADD PUSH2 0x12C SWAP3 SWAP2 SWAP1 PUSH2 0xF10 JUMP JUMPDEST PUSH1 0x20 PUSH1 0x40 MLOAD DUP1 DUP4 SUB DUP2 PUSH1 0x0 DUP8 DUP1 EXTCODESIZE ISZERO DUP1 ISZERO PUSH2 0x146 JUMPI PUSH1 0x0 DUP1 REVERT JUMPDEST POP GAS CALL ISZERO DUP1 ISZERO PUSH2 0x15A JUMPI RETURNDATASIZE PUSH1 0x0 DUP1 RETURNDATACOPY RETURNDATASIZE PUSH1 0x0 REVERT JUMPDEST POP POP POP POP PUSH1 0x40 MLOAD RETURNDATASIZE PUSH1 0x1F NOT PUSH1 0x1F DUP3 ADD AND DUP3 ADD DUP1 PUSH1 0x40 MSTORE POP PUSH2 0x17E SWAP2 SWAP1 DUP2 ADD SWAP1 PUSH2 0xCD5 JUMP JUMPDEST PUSH1 0x2 DUP1 SLOAD PUSH1 0x1 PUSH1 0x1 PUSH1 0xA0 SHL SUB NOT AND PUSH1 0x1 PUSH1 0x1 PUSH1 0xA0 SHL SUB SWAP3 DUP4 AND OR SWAP1 DUP2 SWAP1 SSTORE PUSH1 0x40 DUP1 MLOAD PUSH4 0xDFE1681 PUSH1 0xE0 SHL DUP2 MSTORE SWAP1 MLOAD PUSH1 0x0 SWAP4 DUP5 SWAP4 AND SWAP2 PUSH4 0xDFE1681 SWAP2 PUSH1 0x4 DUP1 DUP4 ADD SWAP3 PUSH1 0x20 SWAP3 SWAP2 SWAP1 DUP3 SWAP1 SUB ADD DUP2 DUP7 DUP1 EXTCODESIZE ISZERO DUP1 ISZERO PUSH2 0x1D8 JUMPI PUSH1 0x0 DUP1 REVERT JUMPDEST POP GAS STATICCALL ISZERO DUP1 ISZERO PUSH2 0x1EC JUMPI RETURNDATASIZE PUSH1 0x0 DUP1 RETURNDATACOPY RETURNDATASIZE PUSH1 0x0 REVERT JUMPDEST POP POP POP POP PUSH1 0x40 MLOAD RETURNDATASIZE PUSH1 0x1F NOT PUSH1 0x1F DUP3 ADD AND DUP3 ADD DUP1 PUSH1 0x40 MSTORE POP PUSH2 0x210 SWAP2 SWAP1 DUP2 ADD SWAP1 PUSH2 0xCD5 JUMP JUMPDEST PUSH1 0x2 PUSH1 0x0 SWAP1 SLOAD SWAP1 PUSH2 0x100 EXP SWAP1 DIV PUSH1 0x1 PUSH1 0x1 PUSH1 0xA0 SHL SUB AND PUSH1 0x1 PUSH1 0x1 PUSH1 0xA0 SHL SUB AND PUSH4 0xD21220A7 PUSH1 0x40 MLOAD DUP2 PUSH4 0xFFFFFFFF AND PUSH1 0xE0 SHL DUP2 MSTORE PUSH1 0x4 ADD PUSH1 0x20 PUSH1 0x40 MLOAD DUP1 DUP4 SUB DUP2 DUP7 DUP1 EXTCODESIZE ISZERO DUP1 ISZERO PUSH2 0x25E JUMPI PUSH1 0x0 DUP1 REVERT JUMPDEST POP GAS STATICCALL ISZERO DUP1 ISZERO PUSH2 0x272 JUMPI RETURNDATASIZE PUSH1 0x0 DUP1 RETURNDATACOPY RETURNDATASIZE PUSH1 0x0 REVERT JUMPDEST POP POP POP POP PUSH1 0x40 MLOAD RETURNDATASIZE PUSH1 0x1F NOT PUSH1 0x1F DUP3 ADD AND DUP3 ADD DUP1 PUSH1 0x40 MSTORE POP PUSH2 0x296 SWAP2 SWAP1 DUP2 ADD SWAP1 PUSH2 0xCD5 JUMP JUMPDEST PUSH1 0x1 SLOAD SWAP2 SWAP4 POP SWAP2 POP PUSH1 0x1 PUSH1 0x1 PUSH1 0xA0 SHL SUB DUP1 DUP5 AND SWAP2 AND EQ PUSH2 0x2B7 JUMPI PUSH1 0x1 PUSH2 0x2BA JUMP JUMPDEST PUSH1 0x0 JUMPDEST PUSH1 0xFF AND PUSH1 0x3 DUP2 SWAP1 SSTORE PUSH2 0x303 SWAP1 ISZERO DUP1 PUSH2 0x2DF JUMPI POP PUSH1 0x1 SLOAD PUSH1 0x1 PUSH1 0x1 PUSH1 0xA0 SHL SUB DUP4 DUP2 AND SWAP2 AND EQ JUMPDEST PUSH6 0x4F7261636C65 PUSH1 0xD0 SHL PUSH17 0x1130EE1B1B185C881B9BDD08199BDD5B99 PUSH1 0x7A SHL PUSH2 0x380 JUMP JUMPDEST POP POP JUMP JUMPDEST PUSH1 0x6 SLOAD SWAP1 JUMP JUMPDEST PUSH2 0x315 PUSH2 0xC79 JUMP JUMPDEST PUSH1 0x0 DUP1 SLOAD PUSH2 0x342 SWAP1 PUSH1 0x1 PUSH1 0x1 PUSH1 0xA0 SHL SUB AND CALLER EQ PUSH6 0x4F7261636C65 PUSH1 0xD0 SHL PUSH7 0x4E6F742064616F PUSH1 0xC8 SHL PUSH2 0x380 JUMP JUMPDEST PUSH1 0x1 SLOAD PUSH1 0x1 PUSH1 0xA0 SHL SWAP1 DIV PUSH1 0xFF AND ISZERO PUSH2 0x365 JUMPI PUSH2 0x35C PUSH2 0x3F2 JUMP JUMPDEST SWAP2 POP SWAP2 POP PUSH2 0x37C JUMP JUMPDEST PUSH2 0x36D PUSH2 0x4E7 JUMP JUMPDEST PUSH2 0x375 PUSH2 0x6F1 JUMP JUMPDEST PUSH1 0x0 SWAP2 POP SWAP2 POP JUMPDEST SWAP1 SWAP2 JUMP JUMPDEST DUP3 PUSH2 0x3DE JUMPI PUSH2 0x38E DUP3 PUSH2 0x713 JUMP JUMPDEST PUSH2 0x1D1 PUSH1 0xF5 SHL PUSH2 0x39D DUP4 PUSH2 0x713 JUMP JUMPDEST PUSH1 0x40 MLOAD PUSH1 0x20 ADD PUSH2 0x3AF SWAP4 SWAP3 SWAP2 SWAP1 PUSH2 0xED1 JUMP JUMPDEST PUSH1 0x40 DUP1 MLOAD PUSH1 0x1F NOT DUP2 DUP5 SUB ADD DUP2 MSTORE SWAP1 DUP3 SWAP1 MSTORE PUSH3 0x461BCD PUSH1 0xE5 SHL DUP3 MSTORE PUSH2 0x3D5 SWAP2 PUSH1 0x4 ADD PUSH2 0xF2B JUMP JUMPDEST PUSH1 0x40 MLOAD DUP1 SWAP2 SUB SWAP1 REVERT JUMPDEST POP POP POP JUMP JUMPDEST PUSH1 0x0 PUSH2 0x3ED PUSH2 0x795 JUMP JUMPDEST SWAP1 POP SWAP1 JUMP JUMPDEST PUSH2 0x3FA PUSH2 0xC79 JUMP JUMPDEST PUSH1 0x0 PUSH2 0x404 PUSH2 0xC79 JUMP JUMPDEST PUSH2 0x40C PUSH2 0x7AD JUMP JUMPDEST SWAP1 POP PUSH1 0x0 PUSH2 0x418 PUSH2 0x84A JUMP JUMPDEST SWAP1 POP PUSH1 0x0 PUSH2 0x424 PUSH2 0x3E3 JUMP JUMPDEST PUSH1 0x2 SLOAD PUSH1 0x40 MLOAD PUSH4 0xFE575A87 PUSH1 0xE0 SHL DUP2 MSTORE PUSH1 0x1 PUSH1 0x1 PUSH1 0xA0 SHL SUB SWAP3 DUP4 AND SWAP3 PUSH4 0xFE575A87 SWAP3 PUSH2 0x455 SWAP3 SWAP2 AND SWAP1 PUSH1 0x4 ADD PUSH2 0xF02 JUMP JUMPDEST PUSH1 0x20 PUSH1 0x40 MLOAD DUP1 DUP4 SUB DUP2 DUP7 DUP1 EXTCODESIZE ISZERO DUP1 ISZERO PUSH2 0x46D JUMPI PUSH1 0x0 DUP1 REVERT JUMPDEST POP GAS STATICCALL ISZERO DUP1 ISZERO PUSH2 0x481 JUMPI RETURNDATASIZE PUSH1 0x0 DUP1 RETURNDATACOPY RETURNDATASIZE PUSH1 0x0 REVERT JUMPDEST POP POP POP POP PUSH1 0x40 MLOAD RETURNDATASIZE PUSH1 0x1F NOT PUSH1 0x1F DUP3 ADD AND DUP3 ADD DUP1 PUSH1 0x40 MSTORE POP PUSH2 0x4A5 SWAP2 SWAP1 DUP2 ADD SWAP1 PUSH2 0xCFB JUMP JUMPDEST SWAP1 POP PUSH1 0x1 PUSH2 0x4B1 PUSH2 0x906 JUMP JUMPDEST DUP4 LT ISZERO PUSH2 0x4BC JUMPI POP PUSH1 0x0 JUMPDEST PUSH2 0x4C4 PUSH2 0x906 JUMP JUMPDEST PUSH1 0x6 SLOAD LT ISZERO PUSH2 0x4D1 JUMPI POP PUSH1 0x0 JUMPDEST DUP2 ISZERO PUSH2 0x4DB JUMPI POP PUSH1 0x0 JUMPDEST SWAP3 SWAP5 POP SWAP2 SWAP3 POP POP POP SWAP1 SWAP2 JUMP JUMPDEST PUSH1 0x2 SLOAD PUSH1 0x3 SLOAD PUSH1 0x1 PUSH1 0x1 PUSH1 0xA0 SHL SUB SWAP1 SWAP2 AND SWAP1 PUSH1 0x0 SWAP1 ISZERO PUSH2 0x577 JUMPI DUP2 PUSH1 0x1 PUSH1 0x1 PUSH1 0xA0 SHL SUB AND PUSH4 0x5A3D5493 PUSH1 0x40 MLOAD DUP2 PUSH4 0xFFFFFFFF AND PUSH1 0xE0 SHL DUP2 MSTORE PUSH1 0x4 ADD PUSH1 0x20 PUSH1 0x40 MLOAD DUP1 DUP4 SUB DUP2 DUP7 DUP1 EXTCODESIZE ISZERO DUP1 ISZERO PUSH2 0x53A JUMPI PUSH1 0x0 DUP1 REVERT JUMPDEST POP GAS STATICCALL ISZERO DUP1 ISZERO PUSH2 0x54E JUMPI RETURNDATASIZE PUSH1 0x0 DUP1 RETURNDATACOPY RETURNDATASIZE PUSH1 0x0 REVERT JUMPDEST POP POP POP POP PUSH1 0x40 MLOAD RETURNDATASIZE PUSH1 0x1F NOT PUSH1 0x1F DUP3 ADD AND DUP3 ADD DUP1 PUSH1 0x40 MSTORE POP PUSH2 0x572 SWAP2 SWAP1 DUP2 ADD SWAP1 PUSH2 0xD66 JUMP JUMPDEST PUSH2 0x5E8 JUMP JUMPDEST DUP2 PUSH1 0x1 PUSH1 0x1 PUSH1 0xA0 SHL SUB AND PUSH4 0x5909C0D5 PUSH1 0x40 MLOAD DUP2 PUSH4 0xFFFFFFFF AND PUSH1 0xE0 SHL DUP2 MSTORE PUSH1 0x4 ADD PUSH1 0x20 PUSH1 0x40 MLOAD DUP1 DUP4 SUB DUP2 DUP7 DUP1 EXTCODESIZE ISZERO DUP1 ISZERO PUSH2 0x5B0 JUMPI PUSH1 0x0 DUP1 REVERT JUMPDEST POP GAS STATICCALL ISZERO DUP1 ISZERO PUSH2 0x5C4 JUMPI RETURNDATASIZE PUSH1 0x0 DUP1 RETURNDATACOPY RETURNDATASIZE PUSH1 0x0 REVERT JUMPDEST POP POP POP POP PUSH1 0x40 MLOAD RETURNDATASIZE PUSH1 0x1F NOT PUSH1 0x1F DUP3 ADD AND DUP3 ADD DUP1 PUSH1 0x40 MSTORE POP PUSH2 0x5E8 SWAP2 SWAP1 DUP2 ADD SWAP1 PUSH2 0xD66 JUMP JUMPDEST SWAP1 POP PUSH1 0x0 DUP1 PUSH1 0x0 DUP5 PUSH1 0x1 PUSH1 0x1 PUSH1 0xA0 SHL SUB AND PUSH4 0x902F1AC PUSH1 0x40 MLOAD DUP2 PUSH4 0xFFFFFFFF AND PUSH1 0xE0 SHL DUP2 MSTORE PUSH1 0x4 ADD PUSH1 0x60 PUSH1 0x40 MLOAD DUP1 DUP4 SUB DUP2 DUP7 DUP1 EXTCODESIZE ISZERO DUP1 ISZERO PUSH2 0x628 JUMPI PUSH1 0x0 DUP1 REVERT JUMPDEST POP GAS STATICCALL ISZERO DUP1 ISZERO PUSH2 0x63C JUMPI RETURNDATASIZE PUSH1 0x0 DUP1 RETURNDATACOPY RETURNDATASIZE PUSH1 0x0 REVERT JUMPDEST POP POP POP POP PUSH1 0x40 MLOAD RETURNDATASIZE PUSH1 0x1F NOT PUSH1 0x1F DUP3 ADD AND DUP3 ADD DUP1 PUSH1 0x40 MSTORE POP PUSH2 0x660 SWAP2 SWAP1 DUP2 ADD SWAP1 PUSH2 0xD19 JUMP JUMPDEST SWAP3 POP SWAP3 POP SWAP3 POP DUP3 PUSH1 0x1 PUSH1 0x1 PUSH1 0x70 SHL SUB AND PUSH1 0x0 EQ ISZERO DUP1 ISZERO PUSH2 0x688 JUMPI POP PUSH1 0x1 PUSH1 0x1 PUSH1 0x70 SHL SUB DUP3 AND ISZERO ISZERO JUMPDEST DUP1 ISZERO PUSH2 0x699 JUMPI POP PUSH4 0xFFFFFFFF DUP2 AND ISZERO ISZERO JUMPDEST ISZERO PUSH2 0x6EA JUMPI PUSH1 0x4 DUP5 SWAP1 SSTORE PUSH1 0x5 DUP1 SLOAD PUSH4 0xFFFFFFFF DUP4 AND PUSH4 0xFFFFFFFF NOT SWAP1 SWAP2 AND OR SWAP1 SSTORE PUSH1 0x1 DUP1 SLOAD PUSH1 0xFF PUSH1 0xA0 SHL NOT AND PUSH1 0x1 PUSH1 0xA0 SHL OR SWAP1 SSTORE PUSH1 0x3 SLOAD ISZERO PUSH2 0x6DB JUMPI DUP3 PUSH2 0x6DD JUMP JUMPDEST DUP2 JUMPDEST PUSH1 0x1 PUSH1 0x1 PUSH1 0x70 SHL SUB AND PUSH1 0x6 SSTORE JUMPDEST POP POP POP POP POP JUMP JUMPDEST PUSH2 0x6F9 PUSH2 0xC79 JUMP JUMPDEST POP PUSH1 0x40 DUP1 MLOAD PUSH1 0x20 DUP2 ADD SWAP1 SWAP2 MSTORE PUSH8 0xDE0B6B3A7640000 DUP2 MSTORE SWAP1 JUMP JUMPDEST PUSH1 0x60 DUP1 DUP3 PUSH1 0x40 MLOAD PUSH1 0x20 ADD PUSH2 0x727 SWAP2 SWAP1 PUSH2 0xEBC JUMP JUMPDEST PUSH1 0x40 DUP1 MLOAD PUSH1 0x1F NOT DUP2 DUP5 SUB ADD DUP2 MSTORE SWAP2 SWAP1 MSTORE SWAP1 POP PUSH1 0x20 JUMPDEST DUP1 ISZERO PUSH2 0x77C JUMPI DUP2 MLOAD PUSH1 0x0 NOT SWAP1 SWAP2 ADD SWAP1 DUP3 SWAP1 DUP3 SWAP1 DUP2 LT PUSH2 0x757 JUMPI INVALID JUMPDEST ADD PUSH1 0x20 ADD MLOAD PUSH1 0x1 PUSH1 0x1 PUSH1 0xF8 SHL SUB NOT AND ISZERO PUSH2 0x777 JUMPI PUSH1 0x1 ADD DUP2 MSTORE SWAP1 POP PUSH2 0x790 JUMP JUMPDEST PUSH2 0x73C JUMP JUMPDEST POP POP PUSH1 0x40 DUP1 MLOAD PUSH1 0x0 DUP2 MSTORE PUSH1 0x20 DUP2 ADD SWAP1 SWAP2 MSTORE SWAP1 POP JUMPDEST SWAP2 SWAP1 POP JUMP JUMPDEST PUSH20 0xE9E7CEA3DEDCA5984780BAFC599BD69ADD087D56 SWAP1 JUMP JUMPDEST PUSH2 0x7B5 PUSH2 0xC79 JUMP JUMPDEST PUSH1 0x2 SLOAD PUSH1 0x0 SWAP1 DUP2 SWAP1 DUP2 SWAP1 PUSH2 0x7D1 SWAP1 PUSH1 0x1 PUSH1 0x1 PUSH1 0xA0 SHL SUB AND PUSH2 0x914 JUMP JUMPDEST PUSH1 0x5 SLOAD PUSH1 0x3 SLOAD SWAP4 SWAP7 POP SWAP2 SWAP5 POP SWAP3 POP PUSH4 0xFFFFFFFF AND DUP3 SUB SWAP1 PUSH1 0x0 SWAP1 ISZERO PUSH2 0x7F6 JUMPI DUP4 PUSH2 0x7F8 JUMP JUMPDEST DUP5 JUMPDEST SWAP1 POP PUSH2 0x802 PUSH2 0xC79 JUMP JUMPDEST PUSH2 0x823 DUP4 PUSH4 0xFFFFFFFF AND PUSH1 0x4 SLOAD DUP5 SUB DUP2 PUSH2 0x818 JUMPI INVALID JUMPDEST DIV PUSH1 0x1 PUSH1 0x70 SHL PUSH2 0xAE9 JUMP JUMPDEST PUSH1 0x5 DUP1 SLOAD PUSH4 0xFFFFFFFF NOT AND PUSH4 0xFFFFFFFF SWAP7 SWAP1 SWAP7 AND SWAP6 SWAP1 SWAP6 OR SWAP1 SWAP5 SSTORE POP PUSH1 0x4 SSTORE POP SWAP4 SWAP3 POP POP POP JUMP JUMPDEST PUSH1 0x0 DUP1 PUSH1 0x6 SLOAD SWAP1 POP PUSH1 0x0 DUP1 PUSH1 0x2 PUSH1 0x0 SWAP1 SLOAD SWAP1 PUSH2 0x100 EXP SWAP1 DIV PUSH1 0x1 PUSH1 0x1 PUSH1 0xA0 SHL SUB AND PUSH1 0x1 PUSH1 0x1 PUSH1 0xA0 SHL SUB AND PUSH4 0x902F1AC PUSH1 0x40 MLOAD DUP2 PUSH4 0xFFFFFFFF AND PUSH1 0xE0 SHL DUP2 MSTORE PUSH1 0x4 ADD PUSH1 0x60 PUSH1 0x40 MLOAD DUP1 DUP4 SUB DUP2 DUP7 DUP1 EXTCODESIZE ISZERO DUP1 ISZERO PUSH2 0x8A3 JUMPI PUSH1 0x0 DUP1 REVERT JUMPDEST POP GAS STATICCALL ISZERO DUP1 ISZERO PUSH2 0x8B7 JUMPI RETURNDATASIZE PUSH1 0x0 DUP1 RETURNDATACOPY RETURNDATASIZE PUSH1 0x0 REVERT JUMPDEST POP POP POP POP PUSH1 0x40 MLOAD RETURNDATASIZE PUSH1 0x1F NOT PUSH1 0x1F DUP3 ADD AND DUP3 ADD DUP1 PUSH1 0x40 MSTORE POP PUSH2 0x8DB SWAP2 SWAP1 DUP2 ADD SWAP1 PUSH2 0xD19 JUMP JUMPDEST POP SWAP2 POP SWAP2 POP PUSH1 0x3 SLOAD PUSH1 0x0 EQ PUSH2 0x8F0 JUMPI DUP2 PUSH2 0x8F2 JUMP JUMPDEST DUP1 JUMPDEST PUSH1 0x1 PUSH1 0x1 PUSH1 0x70 SHL SUB AND PUSH1 0x6 SSTORE POP SWAP1 SWAP2 POP POP SWAP1 JUMP JUMPDEST PUSH10 0x21E19E0C9BAB2400000 SWAP1 JUMP JUMPDEST PUSH1 0x0 DUP1 PUSH1 0x0 PUSH2 0x921 PUSH2 0xB1A JUMP JUMPDEST SWAP1 POP DUP4 PUSH1 0x1 PUSH1 0x1 PUSH1 0xA0 SHL SUB AND PUSH4 0x5909C0D5 PUSH1 0x40 MLOAD DUP2 PUSH4 0xFFFFFFFF AND PUSH1 0xE0 SHL DUP2 MSTORE PUSH1 0x4 ADD PUSH1 0x20 PUSH1 0x40 MLOAD DUP1 DUP4 SUB DUP2 DUP7 DUP1 EXTCODESIZE ISZERO DUP1 ISZERO PUSH2 0x95C JUMPI PUSH1 0x0 DUP1 REVERT JUMPDEST POP GAS STATICCALL ISZERO DUP1 ISZERO PUSH2 0x970 JUMPI RETURNDATASIZE PUSH1 0x0 DUP1 RETURNDATACOPY RETURNDATASIZE PUSH1 0x0 REVERT JUMPDEST POP POP POP POP PUSH1 0x40 MLOAD RETURNDATASIZE PUSH1 0x1F NOT PUSH1 0x1F DUP3 ADD AND DUP3 ADD DUP1 PUSH1 0x40 MSTORE POP PUSH2 0x994 SWAP2 SWAP1 DUP2 ADD SWAP1 PUSH2 0xD66 JUMP JUMPDEST SWAP3 POP DUP4 PUSH1 0x1 PUSH1 0x1 PUSH1 0xA0 SHL SUB AND PUSH4 0x5A3D5493 PUSH1 0x40 MLOAD DUP2 PUSH4 0xFFFFFFFF AND PUSH1 0xE0 SHL DUP2 MSTORE PUSH1 0x4 ADD PUSH1 0x20 PUSH1 0x40 MLOAD DUP1 DUP4 SUB DUP2 DUP7 DUP1 EXTCODESIZE ISZERO DUP1 ISZERO PUSH2 0x9CF JUMPI PUSH1 0x0 DUP1 REVERT JUMPDEST POP GAS STATICCALL ISZERO DUP1 ISZERO PUSH2 0x9E3 JUMPI RETURNDATASIZE PUSH1 0x0 DUP1 RETURNDATACOPY RETURNDATASIZE PUSH1 0x0 REVERT JUMPDEST POP POP POP POP PUSH1 0x40 MLOAD RETURNDATASIZE PUSH1 0x1F NOT PUSH1 0x1F DUP3 ADD AND DUP3 ADD DUP1 PUSH1 0x40 MSTORE POP PUSH2 0xA07 SWAP2 SWAP1 DUP2 ADD SWAP1 PUSH2 0xD66 JUMP JUMPDEST SWAP2 POP PUSH1 0x0 DUP1 PUSH1 0x0 DUP7 PUSH1 0x1 PUSH1 0x1 PUSH1 0xA0 SHL SUB AND PUSH4 0x902F1AC PUSH1 0x40 MLOAD DUP2 PUSH4 0xFFFFFFFF AND PUSH1 0xE0 SHL DUP2 MSTORE PUSH1 0x4 ADD PUSH1 0x60 PUSH1 0x40 MLOAD DUP1 DUP4 SUB DUP2 DUP7 DUP1 EXTCODESIZE ISZERO DUP1 ISZERO PUSH2 0xA47 JUMPI PUSH1 0x0 DUP1 REVERT JUMPDEST POP GAS STATICCALL ISZERO DUP1 ISZERO PUSH2 0xA5B JUMPI RETURNDATASIZE PUSH1 0x0 DUP1 RETURNDATACOPY RETURNDATASIZE PUSH1 0x0 REVERT JUMPDEST POP POP POP POP PUSH1 0x40 MLOAD RETURNDATASIZE PUSH1 0x1F NOT PUSH1 0x1F DUP3 ADD AND DUP3 ADD DUP1 PUSH1 0x40 MSTORE POP PUSH2 0xA7F SWAP2 SWAP1 DUP2 ADD SWAP1 PUSH2 0xD19 JUMP JUMPDEST SWAP3 POP SWAP3 POP SWAP3 POP DUP4 PUSH4 0xFFFFFFFF AND DUP2 PUSH4 0xFFFFFFFF AND EQ PUSH2 0xADF JUMPI DUP1 DUP5 SUB PUSH4 0xFFFFFFFF DUP2 AND PUSH2 0xAAC DUP5 DUP7 PUSH2 0xB24 JUMP JUMPDEST MLOAD PUSH1 0x1 PUSH1 0x1 PUSH1 0xE0 SHL SUB AND MUL SWAP7 SWAP1 SWAP7 ADD SWAP6 PUSH4 0xFFFFFFFF DUP2 AND PUSH2 0xACD DUP6 DUP6 PUSH2 0xB24 JUMP JUMPDEST MLOAD PUSH1 0x1 PUSH1 0x1 PUSH1 0xE0 SHL SUB AND MUL SWAP6 SWAP1 SWAP6 ADD SWAP5 POP JUMPDEST POP POP POP SWAP2 SWAP4 SWAP1 SWAP3 POP JUMP JUMPDEST PUSH2 0xAF1 PUSH2 0xC79 JUMP JUMPDEST PUSH1 0x40 MLOAD DUP1 PUSH1 0x20 ADD PUSH1 0x40 MSTORE DUP1 PUSH2 0xB0F DUP6 PUSH8 0xDE0B6B3A7640000 DUP7 PUSH2 0xB9F JUMP JUMPDEST SWAP1 MSTORE SWAP1 POP JUMPDEST SWAP3 SWAP2 POP POP JUMP JUMPDEST PUSH4 0xFFFFFFFF TIMESTAMP AND SWAP1 JUMP JUMPDEST PUSH2 0xB2C PUSH2 0xC8C JUMP JUMPDEST PUSH1 0x0 DUP3 PUSH1 0x1 PUSH1 0x1 PUSH1 0x70 SHL SUB AND GT PUSH2 0xB55 JUMPI PUSH1 0x40 MLOAD PUSH3 0x461BCD PUSH1 0xE5 SHL DUP2 MSTORE PUSH1 0x4 ADD PUSH2 0x3D5 SWAP1 PUSH2 0xF4C JUMP JUMPDEST PUSH1 0x40 DUP1 MLOAD PUSH1 0x20 DUP2 ADD SWAP1 SWAP2 MSTORE DUP1 PUSH1 0x1 PUSH1 0x1 PUSH1 0x70 SHL SUB DUP5 AND PUSH14 0xFFFFFFFFFFFFFFFFFFFFFFFFFFFF PUSH1 0x70 SHL PUSH1 0x70 DUP8 SWAP1 SHL AND DUP2 PUSH2 0xB8A JUMPI INVALID JUMPDEST DIV PUSH1 0x1 PUSH1 0x1 PUSH1 0xE0 SHL SUB AND DUP2 MSTORE POP SWAP1 POP SWAP3 SWAP2 POP POP JUMP JUMPDEST PUSH1 0x0 PUSH2 0xBC1 DUP3 PUSH2 0xBB5 DUP7 DUP7 PUSH4 0xFFFFFFFF PUSH2 0xBCB AND JUMP JUMPDEST SWAP1 PUSH4 0xFFFFFFFF PUSH2 0xC05 AND JUMP JUMPDEST SWAP1 POP JUMPDEST SWAP4 SWAP3 POP POP POP JUMP JUMPDEST PUSH1 0x0 DUP3 PUSH2 0xBDA JUMPI POP PUSH1 0x0 PUSH2 0xB14 JUMP JUMPDEST DUP3 DUP3 MUL DUP3 DUP5 DUP3 DUP2 PUSH2 0xBE7 JUMPI INVALID JUMPDEST DIV EQ PUSH2 0xBC4 JUMPI PUSH1 0x40 MLOAD PUSH3 0x461BCD PUSH1 0xE5 SHL DUP2 MSTORE PUSH1 0x4 ADD PUSH2 0x3D5 SWAP1 PUSH2 0xF3C JUMP JUMPDEST PUSH1 0x0 PUSH2 0xBC4 DUP4 DUP4 PUSH1 0x40 MLOAD DUP1 PUSH1 0x40 ADD PUSH1 0x40 MSTORE DUP1 PUSH1 0x1A DUP2 MSTORE PUSH1 0x20 ADD PUSH32 0x536166654D6174683A206469766973696F6E206279207A65726F000000000000 DUP2 MSTORE POP PUSH1 0x0 DUP2 DUP4 PUSH2 0xC63 JUMPI PUSH1 0x40 MLOAD PUSH3 0x461BCD PUSH1 0xE5 SHL DUP2 MSTORE PUSH1 0x4 ADD PUSH2 0x3D5 SWAP2 SWAP1 PUSH2 0xF2B JUMP JUMPDEST POP PUSH1 0x0 DUP4 DUP6 DUP2 PUSH2 0xC6F JUMPI INVALID JUMPDEST DIV SWAP6 SWAP5 POP POP POP POP POP JUMP JUMPDEST PUSH1 0x40 MLOAD DUP1 PUSH1 0x20 ADD PUSH1 0x40 MSTORE DUP1 PUSH1 0x0 DUP2 MSTORE POP SWAP1 JUMP JUMPDEST PUSH1 0x40 DUP1 MLOAD PUSH1 0x20 DUP2 ADD SWAP1 SWAP2 MSTORE PUSH1 0x0 DUP2 MSTORE SWAP1 JUMP JUMPDEST DUP1 MLOAD PUSH2 0xB14 DUP2 PUSH2 0x1009 JUMP JUMPDEST DUP1 MLOAD PUSH2 0xB14 DUP2 PUSH2 0x1020 JUMP JUMPDEST DUP1 MLOAD PUSH2 0xB14 DUP2 PUSH2 0x1029 JUMP JUMPDEST DUP1 MLOAD PUSH2 0xB14 DUP2 PUSH2 0x1032 JUMP JUMPDEST DUP1 MLOAD PUSH2 0xB14 DUP2 PUSH2 0x103B JUMP JUMPDEST PUSH1 0x0 PUSH1 0x20 DUP3 DUP5 SUB SLT ISZERO PUSH2 0xCE7 JUMPI PUSH1 0x0 DUP1 REVERT JUMPDEST PUSH1 0x0 PUSH2 0xCF3 DUP5 DUP5 PUSH2 0xC9E JUMP JUMPDEST SWAP5 SWAP4 POP POP POP POP JUMP JUMPDEST PUSH1 0x0 PUSH1 0x20 DUP3 DUP5 SUB SLT ISZERO PUSH2 0xD0D JUMPI PUSH1 0x0 DUP1 REVERT JUMPDEST PUSH1 0x0 PUSH2 0xCF3 DUP5 DUP5 PUSH2 0xCA9 JUMP JUMPDEST PUSH1 0x0 DUP1 PUSH1 0x0 PUSH1 0x60 DUP5 DUP7 SUB SLT ISZERO PUSH2 0xD2E JUMPI PUSH1 0x0 DUP1 REVERT JUMPDEST PUSH1 0x0 PUSH2 0xD3A DUP7 DUP7 PUSH2 0xCB4 JUMP JUMPDEST SWAP4 POP POP PUSH1 0x20 PUSH2 0xD4B DUP7 DUP3 DUP8 ADD PUSH2 0xCB4 JUMP JUMPDEST SWAP3 POP POP PUSH1 0x40 PUSH2 0xD5C DUP7 DUP3 DUP8 ADD PUSH2 0xCCA JUMP JUMPDEST SWAP2 POP POP SWAP3 POP SWAP3 POP SWAP3 JUMP JUMPDEST PUSH1 0x0 PUSH1 0x20 DUP3 DUP5 SUB SLT ISZERO PUSH2 0xD78 JUMPI PUSH1 0x0 DUP1 REVERT JUMPDEST PUSH1 0x0 PUSH2 0xCF3 DUP5 DUP5 PUSH2 0xCBF JUMP JUMPDEST PUSH2 0xD8D DUP2 PUSH2 0xF92 JUMP JUMPDEST DUP3 MSTORE POP POP JUMP JUMPDEST PUSH2 0xD8D DUP2 PUSH2 0xF9D JUMP JUMPDEST PUSH2 0xD8D PUSH2 0xDA8 DUP3 PUSH2 0xFA2 JUMP JUMPDEST PUSH2 0xFAF JUMP JUMPDEST PUSH2 0xD8D PUSH2 0xDA8 DUP3 PUSH2 0xFAF JUMP JUMPDEST PUSH1 0x0 PUSH2 0xDC4 DUP3 PUSH2 0xF85 JUMP JUMPDEST PUSH2 0xDCE DUP2 DUP6 PUSH2 0x790 JUMP JUMPDEST SWAP4 POP PUSH2 0xDDE DUP2 DUP6 PUSH1 0x20 DUP7 ADD PUSH2 0xFD3 JUMP JUMPDEST SWAP3 SWAP1 SWAP3 ADD SWAP3 SWAP2 POP POP JUMP JUMPDEST PUSH1 0x0 PUSH2 0xDF3 DUP3 PUSH2 0xF85 JUMP JUMPDEST PUSH2 0xDFD DUP2 DUP6 PUSH2 0xF89 JUMP JUMPDEST SWAP4 POP PUSH2 0xE0D DUP2 DUP6 PUSH1 0x20 DUP7 ADD PUSH2 0xFD3 JUMP JUMPDEST PUSH2 0xE16 DUP2 PUSH2 0xFFF JUMP JUMPDEST SWAP1 SWAP4 ADD SWAP4 SWAP3 POP POP POP JUMP JUMPDEST PUSH1 0x0 PUSH2 0xE2D PUSH1 0x21 DUP4 PUSH2 0xF89 JUMP JUMPDEST PUSH32 0x536166654D6174683A206D756C7469706C69636174696F6E206F766572666C6F DUP2 MSTORE PUSH1 0x77 PUSH1 0xF8 SHL PUSH1 0x20 DUP3 ADD MSTORE PUSH1 0x40 ADD SWAP3 SWAP2 POP POP JUMP JUMPDEST PUSH1 0x0 PUSH2 0xE70 PUSH1 0x17 DUP4 PUSH2 0xF89 JUMP JUMPDEST PUSH32 0x4669786564506F696E743A204449565F42595F5A45524F000000000000000000 DUP2 MSTORE PUSH1 0x20 ADD SWAP3 SWAP2 POP POP JUMP JUMPDEST DUP1 MLOAD PUSH1 0x20 DUP4 ADD SWAP1 PUSH2 0xEAD DUP5 DUP3 PUSH2 0xEB3 JUMP JUMPDEST POP POP POP POP JUMP JUMPDEST PUSH2 0xD8D DUP2 PUSH2 0xFAF JUMP JUMPDEST PUSH1 0x0 PUSH2 0xEC8 DUP3 DUP5 PUSH2 0xDAD JUMP JUMPDEST POP PUSH1 0x20 ADD SWAP2 SWAP1 POP JUMP JUMPDEST PUSH1 0x0 PUSH2 0xEDD DUP3 DUP7 PUSH2 0xDB9 JUMP JUMPDEST SWAP2 POP PUSH2 0xEE9 DUP3 DUP6 PUSH2 0xD9C JUMP JUMPDEST PUSH1 0x2 DUP3 ADD SWAP2 POP PUSH2 0xEF9 DUP3 DUP5 PUSH2 0xDB9 JUMP JUMPDEST SWAP6 SWAP5 POP POP POP POP POP JUMP JUMPDEST PUSH1 0x20 DUP2 ADD PUSH2 0xB14 DUP3 DUP5 PUSH2 0xD84 JUMP JUMPDEST PUSH1 0x40 DUP2 ADD PUSH2 0xF1E DUP3 DUP6 PUSH2 0xD84 JUMP JUMPDEST PUSH2 0xBC4 PUSH1 0x20 DUP4 ADD DUP5 PUSH2 0xD84 JUMP JUMPDEST PUSH1 0x20 DUP1 DUP3 MSTORE DUP2 ADD PUSH2 0xBC4 DUP2 DUP5 PUSH2 0xDE8 JUMP JUMPDEST PUSH1 0x20 DUP1 DUP3 MSTORE DUP2 ADD PUSH2 0xB14 DUP2 PUSH2 0xE20 JUMP JUMPDEST PUSH1 0x20 DUP1 DUP3 MSTORE DUP2 ADD PUSH2 0xB14 DUP2 PUSH2 0xE63 JUMP JUMPDEST PUSH1 0x40 DUP2 ADD PUSH2 0xF6A DUP3 DUP6 PUSH2 0xE9C JUMP JUMPDEST PUSH2 0xBC4 PUSH1 0x20 DUP4 ADD DUP5 PUSH2 0xD93 JUMP JUMPDEST PUSH1 0x20 DUP2 ADD PUSH2 0xB14 DUP3 DUP5 PUSH2 0xEB3 JUMP JUMPDEST MLOAD SWAP1 JUMP JUMPDEST SWAP1 DUP2 MSTORE PUSH1 0x20 ADD SWAP1 JUMP JUMPDEST PUSH1 0x0 PUSH2 0xB14 DUP3 PUSH2 0xFBE JUMP JUMPDEST ISZERO ISZERO SWAP1 JUMP JUMPDEST PUSH1 0x1 PUSH1 0x1 PUSH1 0xF0 SHL SUB NOT AND SWAP1 JUMP JUMPDEST SWAP1 JUMP JUMPDEST PUSH1 0x1 PUSH1 0x1 PUSH1 0x70 SHL SUB AND SWAP1 JUMP JUMPDEST PUSH1 0x1 PUSH1 0x1 PUSH1 0xA0 SHL SUB AND SWAP1 JUMP JUMPDEST PUSH4 0xFFFFFFFF AND SWAP1 JUMP JUMPDEST PUSH1 0x0 JUMPDEST DUP4 DUP2 LT ISZERO PUSH2 0xFEE JUMPI DUP2 DUP2 ADD MLOAD DUP4 DUP3 ADD MSTORE PUSH1 0x20 ADD PUSH2 0xFD6 JUMP JUMPDEST DUP4 DUP2 GT ISZERO PUSH2 0xEAD JUMPI POP POP PUSH1 0x0 SWAP2 ADD MSTORE JUMP JUMPDEST PUSH1 0x1F ADD PUSH1 0x1F NOT AND SWAP1 JUMP JUMPDEST PUSH2 0x1012 DUP2 PUSH2 0xF92 JUMP JUMPDEST DUP2 EQ PUSH2 0x101D JUMPI PUSH1 0x0 DUP1 REVERT JUMPDEST POP JUMP JUMPDEST PUSH2 0x1012 DUP2 PUSH2 0xF9D JUMP JUMPDEST PUSH2 0x1012 DUP2 PUSH2 0xFB2 JUMP JUMPDEST PUSH2 0x1012 DUP2 PUSH2 0xFAF JUMP JUMPDEST PUSH2 0x1012 DUP2 PUSH2 0xFCA JUMP INVALID LOG3 PUSH6 0x627A7A723158 KECCAK256 PUSH6 0x36865EF578DA MUL CREATE PUSH15 0xFF17E7B5ABEF4798C9AD518E92F9C2 0xCD POP POP 0xD5 ISZERO 0xB8 SHL PUSH13 0x6578706572696D656E74616CF5 PUSH5 0x736F6C6343 STOP SDIV GT STOP BLOCKHASH "
		},
		"gasEstimates": {
			"creation": {
				"codeDepositCost": "846200",
				"executionCost": "infinite",
				"totalCost": "infinite"
			},
			"external": {
				"capture()": "infinite",
				"pair()": "infinite",
				"reserve()": "1121",
				"setup()": "infinite"
			},
			"internal": {
				"busd()": "50",
				"initializeOracle()": "infinite",
				"updateOracle()": "infinite",
				"updatePrice()": "infinite",
				"updateReserve()": "infinite"
			}
		},
		"methodIdentifiers": {
			"capture()": "d4a3e9d7",
			"pair()": "a8aa1b31",
			"reserve()": "cd3293de",
			"setup()": "ba0bba40"
		}
	},
	"abi": [
		{
			"inputs": [
				{
					"internalType": "address",
					"name": "dollar",
					"type": "address"
				}
			],
			"payable": false,
			"stateMutability": "nonpayable",
			"type": "constructor"
		},
		{
			"constant": false,
			"inputs": [],
			"name": "capture",
			"outputs": [
				{
					"components": [
						{
							"internalType": "uint256",
							"name": "value",
							"type": "uint256"
						}
					],
					"internalType": "struct Decimal.D256",
					"name": "",
					"type": "tuple"
				},
				{
					"internalType": "bool",
					"name": "",
					"type": "bool"
				}
			],
			"payable": false,
			"stateMutability": "nonpayable",
			"type": "function"
		},
		{
			"constant": true,
			"inputs": [],
			"name": "pair",
			"outputs": [
				{
					"internalType": "address",
					"name": "",
					"type": "address"
				}
			],
			"payable": false,
			"stateMutability": "view",
			"type": "function"
		},
		{
			"constant": true,
			"inputs": [],
			"name": "reserve",
			"outputs": [
				{
					"internalType": "uint256",
					"name": "",
					"type": "uint256"
				}
			],
			"payable": false,
			"stateMutability": "view",
			"type": "function"
		},
		{
			"constant": false,
			"inputs": [],
			"name": "setup",
			"outputs": [],
			"payable": false,
			"stateMutability": "nonpayable",
			"type": "function"
		}
	]
}