{
	"data": {
		"bytecode": {
			"linkReferences": {},
			"object": "60806040523480156200001157600080fd5b506040516200212a3803806200212a833981016040819052620000349162000084565b600480546001600160a01b03199081163317909155600580546001600160a01b0394851690831617905560068054929093169116179055620000ef565b80516200007e81620000d5565b92915050565b600080604083850312156200009857600080fd5b6000620000a6858562000071565b9250506020620000b98582860162000071565b9150509250929050565b60006001600160a01b0382166200007e565b620000e081620000c3565b8114620000ec57600080fd5b50565b61202b80620000ff6000396000f3fe608060405234801561001057600080fd5b50600436106101735760003560e01c806351adeb57116100de57806397a5d5b511610097578063b6b55f2511610071578063b6b55f25146102f0578063c0d7a94f14610303578063cf02377914610316578063e0cf72851461031e57610173565b806397a5d5b5146102b55780639940686e146102d5578063aed29d07146102e857610173565b806351adeb571461024c57806351bf21d8146102545780635c975abb14610267578063825ad6071461027c57806386cf9f141461028f57806395ccea67146102a257610173565b80633ca5b234116101305780633ca5b234146102025780634162169f146102175780634315ee561461022c57806344d96e95146102345780634838ed191461023c57806351858e271461024457610173565b80631667eb171461017857806327de9e32146101a157806329f32ed4146101b65780632e1a7d4d146101c95780632e2ebe06146101dc578063379607f5146101ef575b600080fd5b61018b6101863660046118bd565b610326565b6040516101989190611e1e565b60405180910390f35b6101b46101af366004611988565b610348565b005b61018b6101c43660046118bd565b610491565b6101b46101d7366004611988565b6104af565b6101b46101ea366004611988565b6105de565b6101b46101fd366004611988565b610783565b61020a61087a565b6040516101989190611d24565b61021f610889565b6040516101989190611d91565b61021f610898565b61018b6108a7565b61018b6108ad565b6101b46108b3565b61021f6108f4565b61018b6102623660046118bd565b610903565b61026f610921565b6040516101989190611d83565b61018b61028a3660046118bd565b61092a565b61018b61029d3660046118bd565b610948565b6101b46102b03660046118e3565b610963565b6102c86102c33660046118bd565b6109fa565b6040516101989190611d9f565b6101b46102e3366004611988565b610a34565b61018b610b22565b6101b46102fe366004611988565b610bbe565b61018b6103113660046118bd565b610ca9565b61018b610d31565b61018b610d37565b6001600160a01b0381166000908152600860205260409020600101545b919050565b61035133610d3d565b600061035c3361092a565b90506103936000821163141bdbdb60e21b7f696e73756666696369656e7420626f6e6465642062616c616e63650000000000610d6f565b60006103be826103b2856103a633610ca9565b9063ffffffff610dcd16565b9063ffffffff610e0e16565b905060006103d3836103b2866103a633610491565b90506103df3385610e50565b6103e93383610ead565b61040c3385604051806060016040528060218152602001611fc860219139610f12565b61042f3382604051806060016040528060228152602001611f8560229139610f7a565b610437610fe2565b337f93530ac0ee8c50e696e13c5ac62355d0c0ba4bd943620d5bda1eb08b64ae751261047260016104666110ab565b9063ffffffff61112516565b868560405161048393929190611e3a565b60405180910390a250505050565b6001600160a01b031660009081526008602052604090206003015490565b336104e660005b6104bf836109fa565b60028111156104ca57fe5b1463141bdbdb60e21b692737ba10333937bd32b760b11b610d6f565b6104ee610898565b6001600160a01b031663a9059cbb33846040518363ffffffff1660e01b815260040161051b929190611d5a565b602060405180830381600087803b15801561053557600080fd5b505af1158015610549573d6000803e3d6000fd5b505050506040513d601f19601f8201168201806040525061056d919081019061191d565b506105913383604051806060016040528060218152602001611fa76021913961114a565b610599610fe2565b336001600160a01b03167f884edad9ce6fa2440d8a54cc123490eb96d2768479d49ff9c7366125a9424364836040516105d29190611e1e565b60405180910390a25050565b336105e960006104b6565b61060c6105f4610921565b1563141bdbdb60e21b6514185d5cd95960d21b610d6f565b61064860006106196108a7565b1163141bdbdb60e21b7f696e73756666696369656e7420746f74616c20626f6e64656400000000000000610d6f565b6106846000610655610b22565b1163141bdbdb60e21b7f696e73756666696369656e7420746f74616c2072657761726465640000000000610d6f565b6106c18261069133610ca9565b101563141bdbdb60e21b7f696e73756666696369656e742072657761726465642062616c616e6365000000610d6f565b6000806106cd846111aa565b9150915060006106ea856104666106e2610d37565b610466610b22565b905060006107096106f96108a7565b6103b2848663ffffffff610dcd16565b9050610715338461139d565b61072e33610729888463ffffffff61112516565b611402565b610736610fe2565b336001600160a01b03167fbe9d8078818a53534ce225882a00e0c6f709b5296c8a08c3a1f23f9ffd44838087868660405161077393929190611e3a565b60405180910390a2505050505050565b3361078e60006104b6565b6107966108f4565b6001600160a01b031663a9059cbb33846040518363ffffffff1660e01b81526004016107c3929190611d5a565b602060405180830381600087803b1580156107dd57600080fd5b505af11580156107f1573d6000803e3d6000fd5b505050506040513d601f19601f82011682018060405250610815919081019061191d565b506108393383604051806060016040528060248152602001611f6160249139611467565b610841610fe2565b336001600160a01b03167f47cee97cb7acd717b3c0aa1435d004cd5b3c8c57d70dbceb4e4458bbd60e39d4836040516105d29190611e1e565b60006108846114cf565b905090565b6004546001600160a01b031690565b6006546001600160a01b031690565b60025490565b60015490565b6108ea6108be610889565b6001600160a01b0316336001600160a01b03161463141bdbdb60e21b664e6f742064616f60c81b610d6f565b6108f26114e7565b565b6005546001600160a01b031690565b6001600160a01b031660009081526008602052604090206004015490565b60075460ff1690565b6001600160a01b031660009081526008602052604090206002015490565b6001600160a01b031660009081526008602052604090205490565b61096e6108be610889565b816001600160a01b031663a9059cbb610985610889565b836040518363ffffffff1660e01b81526004016109a3929190611d75565b602060405180830381600087803b1580156109bd57600080fd5b505af11580156109d1573d6000803e3d6000fd5b505050506040513d601f19601f820116820180604052506109f5919081019061191d565b505050565b6001600160a01b038116600090815260086020526040812060040154610a1e6110ab565b1015610a2b576001610a2e565b60005b92915050565b610a3f6105f4610921565b610a4833610d3d565b6000610a556106e2610d37565b90506000610a616108a7565b15610a7657610a716106f96108a7565b610a96565b610a7e610b22565b15610a8a576000610a96565b610a96836103a66114f6565b9050610aa2338461139d565b610aac3382611402565b610acf3384604051806060016040528060218152602001611fa76021913961114a565b610ad7610fe2565b337f3ae9ad26d7d47616d306d7757b947fe7b0f9a7c61a5f0dc784b0ddb6c7c40b5a610b0660016104666110ab565b85604051610b15929190611e2c565b60405180910390a2505050565b6000610884610b2f6108ad565b610b376108f4565b6001600160a01b03166370a08231306040518263ffffffff1660e01b8152600401610b629190611d24565b60206040518083038186803b158015610b7a57600080fd5b505afa158015610b8e573d6000803e3d6000fd5b505050506040513d601f19601f82011682018060405250610bb291908101906119a6565b9063ffffffff6114fd16565b33610bc960006104b6565b610bd46105f4610921565b610bdc610898565b6001600160a01b03166323b872dd3330856040518463ffffffff1660e01b8152600401610c0b93929190611d32565b602060405180830381600087803b158015610c2557600080fd5b505af1158015610c39573d6000803e3d6000fd5b505050506040513d601f19601f82011682018060405250610c5d919081019061191d565b50610c683383610e50565b610c70610fe2565b336001600160a01b03167fe1fffcc4923d04b559f4d29a8bfc6cda04eb5b0d3c460751c2402c5c5cc9109c836040516105d29190611e1e565b600080610cb46108a7565b905080610cc5576000915050610343565b6000610cd26106e2610d37565b90506000610cf3836103b2610ce68861092a565b859063ffffffff610dcd16565b90506000610d0086610491565b905080821115610d2557610d1a828263ffffffff6114fd16565b945050505050610343565b50600095945050505050565b60005490565b60035490565b610d50610d4861153f565b6104666110ab565b6001600160a01b03909116600090815260086020526040902060040155565b826109f557610d7d82611544565b6101d160f51b610d8c83611544565b604051602001610d9e93929190611cbd565b60408051601f198184030181529082905262461bcd60e51b8252610dc491600401611dad565b60405180910390fd5b600082610ddc57506000610a2e565b82820282848281610de957fe5b0414610e075760405162461bcd60e51b8152600401610dc490611dfe565b9392505050565b6000610e0783836040518060400160405280601a81526020017f536166654d6174683a206469766973696f6e206279207a65726f0000000000008152506115c4565b6001600160a01b038216600090815260086020526040902054610e79908263ffffffff61112516565b6001600160a01b03831660009081526008602052604081209190915554610ea6908263ffffffff61112516565b6000555050565b6001600160a01b038216600090815260086020526040902060010154610ed9908263ffffffff61112516565b6001600160a01b038316600090815260086020526040902060019081019190915554610f0b908263ffffffff61112516565b6001555050565b6001600160a01b038316600090815260086020526040902060020154610f3f90838363ffffffff6115fb16565b6001600160a01b038416600090815260086020526040902060029081019190915554610f7290838363ffffffff6115fb16565b600255505050565b6001600160a01b038316600090815260086020526040902060030154610fa790838363ffffffff6115fb16565b6001600160a01b038416600090815260086020526040902060039081019190915554610fda90838363ffffffff6115fb16565b600355505050565b6108f2610ff8610ff06108a7565b610466610d31565b611000610898565b6001600160a01b03166370a08231306040518263ffffffff1660e01b815260040161102b9190611d24565b60206040518083038186803b15801561104357600080fd5b505afa158015611057573d6000803e3d6000fd5b505050506040513d601f19601f8201168201806040525061107b91908101906119a6565b101563141bdbdb60e21b7f496e636f6e73697374656e742043616b652d4c502062616c616e636573000000610d6f565b60006110b5610889565b6001600160a01b031663900cf0cf6040518163ffffffff1660e01b815260040160206040518083038186803b1580156110ed57600080fd5b505afa158015611101573d6000803e3d6000fd5b505050506040513d601f19601f8201168201806040525061088491908101906119a6565b600082820183811015610e075760405162461bcd60e51b8152600401610dc490611dce565b6001600160a01b03831660009081526008602052604090205461117490838363ffffffff6115fb16565b6001600160a01b038416600090815260086020526040812091909155546111a290838363ffffffff6115fb16565b600055505050565b6000806000806111b86108f4565b6111c061087a565b915091506000806111d18484611627565b9150915060008260001480156111e5575081155b6111f9576111f4888484611713565b6111fb565b875b90506000611207610898565b60405163a9059cbb60e01b81529091506001600160a01b0387169063a9059cbb906112389084908d90600401611d75565b602060405180830381600087803b15801561125257600080fd5b505af1158015611266573d6000803e3d6000fd5b505050506040513d601f19601f8201168201806040525061128a919081019061191d565b506040516323b872dd60e01b81526001600160a01b038616906323b872dd906112bb90339085908790600401611d32565b602060405180830381600087803b1580156112d557600080fd5b505af11580156112e9573d6000803e3d6000fd5b505050506040513d601f19601f8201168201806040525061130d919081019061191d565b506040516335313c2160e11b815282906001600160a01b03831690636a6278429061133c903090600401611d24565b602060405180830381600087803b15801561135657600080fd5b505af115801561136a573d6000803e3d6000fd5b505050506040513d601f19601f8201168201806040525061138e91908101906119a6565b97509750505050505050915091565b6001600160a01b0382166000908152600860205260409020600201546113c9908263ffffffff61112516565b6001600160a01b0383166000908152600860205260409020600290810191909155546113fb908263ffffffff61112516565b6002555050565b6001600160a01b03821660009081526008602052604090206003015461142e908263ffffffff61112516565b6001600160a01b038316600090815260086020526040902060039081019190915554611460908263ffffffff61112516565b6003555050565b6001600160a01b03831660009081526008602052604090206001015461149490838363ffffffff6115fb16565b6001600160a01b0384166000908152600860205260409020600190810191909155546114c790838363ffffffff6115fb16565b600155505050565b73e9e7cea3dedca5984780bafc599bd69add087d5690565b6007805460ff19166001179055565b620f424090565b6000610e0783836040518060400160405280601e81526020017f536166654d6174683a207375627472616374696f6e206f766572666c6f7700008152506115fb565b600c90565b606080826040516020016115589190611ca8565b60408051601f19818403018152919052905060205b80156115ad5781516000199091019082908290811061158857fe5b01602001516001600160f81b031916156115a85760010181529050610343565b61156d565b505060408051600081526020810190915292915050565b600081836115e55760405162461bcd60e51b8152600401610dc49190611dad565b5060008385816115f157fe5b0495945050505050565b6000818484111561161f5760405162461bcd60e51b8152600401610dc49190611dad565b505050900390565b60008060006116368585611781565b50905060008061165b735c69bee701ef814a2b6a3edd4b1652cb9cc5aa6f888861180b565b6001600160a01b0316630902f1ac6040518163ffffffff1660e01b815260040160606040518083038186803b15801561169357600080fd5b505afa1580156116a7573d6000803e3d6000fd5b505050506040513d601f19601f820116820180604052506116cb919081019061193b565b506001600160701b031691506001600160701b03169150826001600160a01b0316876001600160a01b031614611702578082611705565b81815b909890975095505050505050565b60008084116117345760405162461bcd60e51b8152600401610dc490611dee565b6000831180156117445750600082115b6117605760405162461bcd60e51b8152600401610dc490611e0e565b82611771858463ffffffff610dcd16565b8161177857fe5b04949350505050565b600080826001600160a01b0316846001600160a01b031614156117b65760405162461bcd60e51b8152600401610dc490611dde565b826001600160a01b0316846001600160a01b0316106117d65782846117d9565b83835b90925090506001600160a01b0382166118045760405162461bcd60e51b8152600401610dc490611dbe565b9250929050565b600080600061181a8585611781565b91509150858282604051602001611832929190611c82565b60405160208183030381529060405280519060200120604051602001611859929190611cee565b60408051601f1981840301815291905280516020909101209695505050505050565b8035610a2e81611f28565b8051610a2e81611f3c565b8051610a2e81611f45565b8035610a2e81611f4e565b8051610a2e81611f4e565b8051610a2e81611f57565b6000602082840312156118cf57600080fd5b60006118db848461187b565b949350505050565b600080604083850312156118f657600080fd5b6000611902858561187b565b92505060206119138582860161189c565b9150509250929050565b60006020828403121561192f57600080fd5b60006118db8484611886565b60008060006060848603121561195057600080fd5b600061195c8686611891565b935050602061196d86828701611891565b925050604061197e868287016118b2565b9150509250925092565b60006020828403121561199a57600080fd5b60006118db848461189c565b6000602082840312156119b857600080fd5b60006118db84846118a7565b6119cd81611ead565b82525050565b6119cd81611e62565b6119cd6119e882611e62565b611efa565b6119cd81611e6d565b6119cd611a0282611e72565b611e7f565b6119cd611a0282611e7f565b6000611a1e82611e55565b611a288185610343565b9350611a38818560208601611eca565b9290920192915050565b6119cd81611eb4565b6119cd81611ebf565b6000611a5f82611e55565b611a698185611e59565b9350611a79818560208601611eca565b611a8281611f0b565b9093019392505050565b6000611a99602083611e59565b7f50616e63616b65737761704c6962726172793a205a45524f5f41444452455353815260200192915050565b6000611ad2601b83611e59565b7f536166654d6174683a206164646974696f6e206f766572666c6f770000000000815260200192915050565b6000611b0b602783611e59565b7f50616e63616b65737761704c6962726172793a204944454e544943414c5f41448152664452455353455360c81b602082015260400192915050565b6000611b54602083610343565b7f96e8ac4277198ff8b6f785478aa9a39f403cb768dd02cbee326c3e7da348845f815260200192915050565b6000611b8d602783611e59565b7f50616e63616b65737761704c6962726172793a20494e53554646494349454e5481526617d05353d5539560ca1b602082015260400192915050565b6000611bd6600183610343565b6001600160f81b0319815260010192915050565b6000611bf7602183611e59565b7f536166654d6174683a206d756c7469706c69636174696f6e206f766572666c6f8152607760f81b602082015260400192915050565b6000611c3a602a83611e59565b7f50616e63616b65737761704c6962726172793a20494e53554646494349454e548152695f4c495155494449545960b01b602082015260400192915050565b6119cd81611e7f565b6000611c8e82856119dc565b601482019150611c9e82846119dc565b5060140192915050565b6000611cb48284611a07565b50602001919050565b6000611cc98286611a13565b9150611cd582856119f6565b600282019150611ce58284611a13565b95945050505050565b6000611cf982611bc9565b9150611d0582856119dc565b601482019150611d158284611a07565b6020820191506118db82611b47565b60208101610a2e82846119d3565b60608101611d4082866119c4565b611d4d60208301856119d3565b6118db6040830184611c79565b60408101611d6882856119c4565b610e076020830184611c79565b60408101611d6882856119d3565b60208101610a2e82846119ed565b60208101610a2e8284611a42565b60208101610a2e8284611a4b565b60208082528101610e078184611a54565b60208082528101610a2e81611a8c565b60208082528101610a2e81611ac5565b60208082528101610a2e81611afe565b60208082528101610a2e81611b80565b60208082528101610a2e81611bea565b60208082528101610a2e81611c2d565b60208101610a2e8284611c79565b60408101611d688285611c79565b60608101611e488286611c79565b611d4d6020830185611c79565b5190565b90815260200190565b6000610a2e82611e98565b151590565b6001600160f01b03191690565b90565b8061034381611f1b565b6001600160701b031690565b6001600160a01b031690565b63ffffffff1690565b6000610a2e825b6000610a2e82611e62565b6000610a2e82611e82565b60005b83811015611ee5578181015183820152602001611ecd565b83811115611ef4576000848401525b50505050565b6000610a2e826000610a2e82611f15565b601f01601f191690565b60601b90565b60038110611f2557fe5b50565b611f3181611e62565b8114611f2557600080fd5b611f3181611e6d565b611f3181611e8c565b611f3181611e7f565b611f3181611ea456fe506f6f6c3a20696e73756666696369656e7420636c61696d61626c652062616c616e6365506f6f6c3a20696e73756666696369656e74207068616e746f6d2062616c616e6365506f6f6c3a20696e73756666696369656e74207374616765642062616c616e6365506f6f6c3a20696e73756666696369656e7420626f6e6465642062616c616e6365a365627a7a723158206a5d92ebe4e2642578cebaf0ebb36544b81306fa32c6c46a1e1ed4e851543f416c6578706572696d656e74616cf564736f6c63430005110040",
			"opcodes": "PUSH1 0x80 PUSH1 0x40 MSTORE CALLVALUE DUP1 ISZERO PUSH3 0x11 JUMPI PUSH1 0x0 DUP1 REVERT JUMPDEST POP PUSH1 0x40 MLOAD PUSH3 0x212A CODESIZE SUB DUP1 PUSH3 0x212A DUP4 CODECOPY DUP2 ADD PUSH1 0x40 DUP2 SWAP1 MSTORE PUSH3 0x34 SWAP2 PUSH3 0x84 JUMP JUMPDEST PUSH1 0x4 DUP1 SLOAD PUSH1 0x1 PUSH1 0x1 PUSH1 0xA0 SHL SUB NOT SWAP1 DUP2 AND CALLER OR SWAP1 SWAP2 SSTORE PUSH1 0x5 DUP1 SLOAD PUSH1 0x1 PUSH1 0x1 PUSH1 0xA0 SHL SUB SWAP5 DUP6 AND SWAP1 DUP4 AND OR SWAP1 SSTORE PUSH1 0x6 DUP1 SLOAD SWAP3 SWAP1 SWAP4 AND SWAP2 AND OR SWAP1 SSTORE PUSH3 0xEF JUMP JUMPDEST DUP1 MLOAD PUSH3 0x7E DUP2 PUSH3 0xD5 JUMP JUMPDEST SWAP3 SWAP2 POP POP JUMP JUMPDEST PUSH1 0x0 DUP1 PUSH1 0x40 DUP4 DUP6 SUB SLT ISZERO PUSH3 0x98 JUMPI PUSH1 0x0 DUP1 REVERT JUMPDEST PUSH1 0x0 PUSH3 0xA6 DUP6 DUP6 PUSH3 0x71 JUMP JUMPDEST SWAP3 POP POP PUSH1 0x20 PUSH3 0xB9 DUP6 DUP3 DUP7 ADD PUSH3 0x71 JUMP JUMPDEST SWAP2 POP POP SWAP3 POP SWAP3 SWAP1 POP JUMP JUMPDEST PUSH1 0x0 PUSH1 0x1 PUSH1 0x1 PUSH1 0xA0 SHL SUB DUP3 AND PUSH3 0x7E JUMP JUMPDEST PUSH3 0xE0 DUP2 PUSH3 0xC3 JUMP JUMPDEST DUP2 EQ PUSH3 0xEC JUMPI PUSH1 0x0 DUP1 REVERT JUMPDEST POP JUMP JUMPDEST PUSH2 0x202B DUP1 PUSH3 0xFF PUSH1 0x0 CODECOPY PUSH1 0x0 RETURN INVALID PUSH1 0x80 PUSH1 0x40 MSTORE CALLVALUE DUP1 ISZERO PUSH2 0x10 JUMPI PUSH1 0x0 DUP1 REVERT JUMPDEST POP PUSH1 0x4 CALLDATASIZE LT PUSH2 0x173 JUMPI PUSH1 0x0 CALLDATALOAD PUSH1 0xE0 SHR DUP1 PUSH4 0x51ADEB57 GT PUSH2 0xDE JUMPI DUP1 PUSH4 0x97A5D5B5 GT PUSH2 0x97 JUMPI DUP1 PUSH4 0xB6B55F25 GT PUSH2 0x71 JUMPI DUP1 PUSH4 0xB6B55F25 EQ PUSH2 0x2F0 JUMPI DUP1 PUSH4 0xC0D7A94F EQ PUSH2 0x303 JUMPI DUP1 PUSH4 0xCF023779 EQ PUSH2 0x316 JUMPI DUP1 PUSH4 0xE0CF7285 EQ PUSH2 0x31E JUMPI PUSH2 0x173 JUMP JUMPDEST DUP1 PUSH4 0x97A5D5B5 EQ PUSH2 0x2B5 JUMPI DUP1 PUSH4 0x9940686E EQ PUSH2 0x2D5 JUMPI DUP1 PUSH4 0xAED29D07 EQ PUSH2 0x2E8 JUMPI PUSH2 0x173 JUMP JUMPDEST DUP1 PUSH4 0x51ADEB57 EQ PUSH2 0x24C JUMPI DUP1 PUSH4 0x51BF21D8 EQ PUSH2 0x254 JUMPI DUP1 PUSH4 0x5C975ABB EQ PUSH2 0x267 JUMPI DUP1 PUSH4 0x825AD607 EQ PUSH2 0x27C JUMPI DUP1 PUSH4 0x86CF9F14 EQ PUSH2 0x28F JUMPI DUP1 PUSH4 0x95CCEA67 EQ PUSH2 0x2A2 JUMPI PUSH2 0x173 JUMP JUMPDEST DUP1 PUSH4 0x3CA5B234 GT PUSH2 0x130 JUMPI DUP1 PUSH4 0x3CA5B234 EQ PUSH2 0x202 JUMPI DUP1 PUSH4 0x4162169F EQ PUSH2 0x217 JUMPI DUP1 PUSH4 0x4315EE56 EQ PUSH2 0x22C JUMPI DUP1 PUSH4 0x44D96E95 EQ PUSH2 0x234 JUMPI DUP1 PUSH4 0x4838ED19 EQ PUSH2 0x23C JUMPI DUP1 PUSH4 0x51858E27 EQ PUSH2 0x244 JUMPI PUSH2 0x173 JUMP JUMPDEST DUP1 PUSH4 0x1667EB17 EQ PUSH2 0x178 JUMPI DUP1 PUSH4 0x27DE9E32 EQ PUSH2 0x1A1 JUMPI DUP1 PUSH4 0x29F32ED4 EQ PUSH2 0x1B6 JUMPI DUP1 PUSH4 0x2E1A7D4D EQ PUSH2 0x1C9 JUMPI DUP1 PUSH4 0x2E2EBE06 EQ PUSH2 0x1DC JUMPI DUP1 PUSH4 0x379607F5 EQ PUSH2 0x1EF JUMPI JUMPDEST PUSH1 0x0 DUP1 REVERT JUMPDEST PUSH2 0x18B PUSH2 0x186 CALLDATASIZE PUSH1 0x4 PUSH2 0x18BD JUMP JUMPDEST PUSH2 0x326 JUMP JUMPDEST PUSH1 0x40 MLOAD PUSH2 0x198 SWAP2 SWAP1 PUSH2 0x1E1E JUMP JUMPDEST PUSH1 0x40 MLOAD DUP1 SWAP2 SUB SWAP1 RETURN JUMPDEST PUSH2 0x1B4 PUSH2 0x1AF CALLDATASIZE PUSH1 0x4 PUSH2 0x1988 JUMP JUMPDEST PUSH2 0x348 JUMP JUMPDEST STOP JUMPDEST PUSH2 0x18B PUSH2 0x1C4 CALLDATASIZE PUSH1 0x4 PUSH2 0x18BD JUMP JUMPDEST PUSH2 0x491 JUMP JUMPDEST PUSH2 0x1B4 PUSH2 0x1D7 CALLDATASIZE PUSH1 0x4 PUSH2 0x1988 JUMP JUMPDEST PUSH2 0x4AF JUMP JUMPDEST PUSH2 0x1B4 PUSH2 0x1EA CALLDATASIZE PUSH1 0x4 PUSH2 0x1988 JUMP JUMPDEST PUSH2 0x5DE JUMP JUMPDEST PUSH2 0x1B4 PUSH2 0x1FD CALLDATASIZE PUSH1 0x4 PUSH2 0x1988 JUMP JUMPDEST PUSH2 0x783 JUMP JUMPDEST PUSH2 0x20A PUSH2 0x87A JUMP JUMPDEST PUSH1 0x40 MLOAD PUSH2 0x198 SWAP2 SWAP1 PUSH2 0x1D24 JUMP JUMPDEST PUSH2 0x21F PUSH2 0x889 JUMP JUMPDEST PUSH1 0x40 MLOAD PUSH2 0x198 SWAP2 SWAP1 PUSH2 0x1D91 JUMP JUMPDEST PUSH2 0x21F PUSH2 0x898 JUMP JUMPDEST PUSH2 0x18B PUSH2 0x8A7 JUMP JUMPDEST PUSH2 0x18B PUSH2 0x8AD JUMP JUMPDEST PUSH2 0x1B4 PUSH2 0x8B3 JUMP JUMPDEST PUSH2 0x21F PUSH2 0x8F4 JUMP JUMPDEST PUSH2 0x18B PUSH2 0x262 CALLDATASIZE PUSH1 0x4 PUSH2 0x18BD JUMP JUMPDEST PUSH2 0x903 JUMP JUMPDEST PUSH2 0x26F PUSH2 0x921 JUMP JUMPDEST PUSH1 0x40 MLOAD PUSH2 0x198 SWAP2 SWAP1 PUSH2 0x1D83 JUMP JUMPDEST PUSH2 0x18B PUSH2 0x28A CALLDATASIZE PUSH1 0x4 PUSH2 0x18BD JUMP JUMPDEST PUSH2 0x92A JUMP JUMPDEST PUSH2 0x18B PUSH2 0x29D CALLDATASIZE PUSH1 0x4 PUSH2 0x18BD JUMP JUMPDEST PUSH2 0x948 JUMP JUMPDEST PUSH2 0x1B4 PUSH2 0x2B0 CALLDATASIZE PUSH1 0x4 PUSH2 0x18E3 JUMP JUMPDEST PUSH2 0x963 JUMP JUMPDEST PUSH2 0x2C8 PUSH2 0x2C3 CALLDATASIZE PUSH1 0x4 PUSH2 0x18BD JUMP JUMPDEST PUSH2 0x9FA JUMP JUMPDEST PUSH1 0x40 MLOAD PUSH2 0x198 SWAP2 SWAP1 PUSH2 0x1D9F JUMP JUMPDEST PUSH2 0x1B4 PUSH2 0x2E3 CALLDATASIZE PUSH1 0x4 PUSH2 0x1988 JUMP JUMPDEST PUSH2 0xA34 JUMP JUMPDEST PUSH2 0x18B PUSH2 0xB22 JUMP JUMPDEST PUSH2 0x1B4 PUSH2 0x2FE CALLDATASIZE PUSH1 0x4 PUSH2 0x1988 JUMP JUMPDEST PUSH2 0xBBE JUMP JUMPDEST PUSH2 0x18B PUSH2 0x311 CALLDATASIZE PUSH1 0x4 PUSH2 0x18BD JUMP JUMPDEST PUSH2 0xCA9 JUMP JUMPDEST PUSH2 0x18B PUSH2 0xD31 JUMP JUMPDEST PUSH2 0x18B PUSH2 0xD37 JUMP JUMPDEST PUSH1 0x1 PUSH1 0x1 PUSH1 0xA0 SHL SUB DUP2 AND PUSH1 0x0 SWAP1 DUP2 MSTORE PUSH1 0x8 PUSH1 0x20 MSTORE PUSH1 0x40 SWAP1 KECCAK256 PUSH1 0x1 ADD SLOAD JUMPDEST SWAP2 SWAP1 POP JUMP JUMPDEST PUSH2 0x351 CALLER PUSH2 0xD3D JUMP JUMPDEST PUSH1 0x0 PUSH2 0x35C CALLER PUSH2 0x92A JUMP JUMPDEST SWAP1 POP PUSH2 0x393 PUSH1 0x0 DUP3 GT PUSH4 0x141BDBDB PUSH1 0xE2 SHL PUSH32 0x696E73756666696369656E7420626F6E6465642062616C616E63650000000000 PUSH2 0xD6F JUMP JUMPDEST PUSH1 0x0 PUSH2 0x3BE DUP3 PUSH2 0x3B2 DUP6 PUSH2 0x3A6 CALLER PUSH2 0xCA9 JUMP JUMPDEST SWAP1 PUSH4 0xFFFFFFFF PUSH2 0xDCD AND JUMP JUMPDEST SWAP1 PUSH4 0xFFFFFFFF PUSH2 0xE0E AND JUMP JUMPDEST SWAP1 POP PUSH1 0x0 PUSH2 0x3D3 DUP4 PUSH2 0x3B2 DUP7 PUSH2 0x3A6 CALLER PUSH2 0x491 JUMP JUMPDEST SWAP1 POP PUSH2 0x3DF CALLER DUP6 PUSH2 0xE50 JUMP JUMPDEST PUSH2 0x3E9 CALLER DUP4 PUSH2 0xEAD JUMP JUMPDEST PUSH2 0x40C CALLER DUP6 PUSH1 0x40 MLOAD DUP1 PUSH1 0x60 ADD PUSH1 0x40 MSTORE DUP1 PUSH1 0x21 DUP2 MSTORE PUSH1 0x20 ADD PUSH2 0x1FC8 PUSH1 0x21 SWAP2 CODECOPY PUSH2 0xF12 JUMP JUMPDEST PUSH2 0x42F CALLER DUP3 PUSH1 0x40 MLOAD DUP1 PUSH1 0x60 ADD PUSH1 0x40 MSTORE DUP1 PUSH1 0x22 DUP2 MSTORE PUSH1 0x20 ADD PUSH2 0x1F85 PUSH1 0x22 SWAP2 CODECOPY PUSH2 0xF7A JUMP JUMPDEST PUSH2 0x437 PUSH2 0xFE2 JUMP JUMPDEST CALLER PUSH32 0x93530AC0EE8C50E696E13C5AC62355D0C0BA4BD943620D5BDA1EB08B64AE7512 PUSH2 0x472 PUSH1 0x1 PUSH2 0x466 PUSH2 0x10AB JUMP JUMPDEST SWAP1 PUSH4 0xFFFFFFFF PUSH2 0x1125 AND JUMP JUMPDEST DUP7 DUP6 PUSH1 0x40 MLOAD PUSH2 0x483 SWAP4 SWAP3 SWAP2 SWAP1 PUSH2 0x1E3A JUMP JUMPDEST PUSH1 0x40 MLOAD DUP1 SWAP2 SUB SWAP1 LOG2 POP POP POP POP JUMP JUMPDEST PUSH1 0x1 PUSH1 0x1 PUSH1 0xA0 SHL SUB AND PUSH1 0x0 SWAP1 DUP2 MSTORE PUSH1 0x8 PUSH1 0x20 MSTORE PUSH1 0x40 SWAP1 KECCAK256 PUSH1 0x3 ADD SLOAD SWAP1 JUMP JUMPDEST CALLER PUSH2 0x4E6 PUSH1 0x0 JUMPDEST PUSH2 0x4BF DUP4 PUSH2 0x9FA JUMP JUMPDEST PUSH1 0x2 DUP2 GT ISZERO PUSH2 0x4CA JUMPI INVALID JUMPDEST EQ PUSH4 0x141BDBDB PUSH1 0xE2 SHL PUSH10 0x2737BA10333937BD32B7 PUSH1 0xB1 SHL PUSH2 0xD6F JUMP JUMPDEST PUSH2 0x4EE PUSH2 0x898 JUMP JUMPDEST PUSH1 0x1 PUSH1 0x1 PUSH1 0xA0 SHL SUB AND PUSH4 0xA9059CBB CALLER DUP5 PUSH1 0x40 MLOAD DUP4 PUSH4 0xFFFFFFFF AND PUSH1 0xE0 SHL DUP2 MSTORE PUSH1 0x4 ADD PUSH2 0x51B SWAP3 SWAP2 SWAP1 PUSH2 0x1D5A JUMP JUMPDEST PUSH1 0x20 PUSH1 0x40 MLOAD DUP1 DUP4 SUB DUP2 PUSH1 0x0 DUP8 DUP1 EXTCODESIZE ISZERO DUP1 ISZERO PUSH2 0x535 JUMPI PUSH1 0x0 DUP1 REVERT JUMPDEST POP GAS CALL ISZERO DUP1 ISZERO PUSH2 0x549 JUMPI RETURNDATASIZE PUSH1 0x0 DUP1 RETURNDATACOPY RETURNDATASIZE PUSH1 0x0 REVERT JUMPDEST POP POP POP POP PUSH1 0x40 MLOAD RETURNDATASIZE PUSH1 0x1F NOT PUSH1 0x1F DUP3 ADD AND DUP3 ADD DUP1 PUSH1 0x40 MSTORE POP PUSH2 0x56D SWAP2 SWAP1 DUP2 ADD SWAP1 PUSH2 0x191D JUMP JUMPDEST POP PUSH2 0x591 CALLER DUP4 PUSH1 0x40 MLOAD DUP1 PUSH1 0x60 ADD PUSH1 0x40 MSTORE DUP1 PUSH1 0x21 DUP2 MSTORE PUSH1 0x20 ADD PUSH2 0x1FA7 PUSH1 0x21 SWAP2 CODECOPY PUSH2 0x114A JUMP JUMPDEST PUSH2 0x599 PUSH2 0xFE2 JUMP JUMPDEST CALLER PUSH1 0x1 PUSH1 0x1 PUSH1 0xA0 SHL SUB AND PUSH32 0x884EDAD9CE6FA2440D8A54CC123490EB96D2768479D49FF9C7366125A9424364 DUP4 PUSH1 0x40 MLOAD PUSH2 0x5D2 SWAP2 SWAP1 PUSH2 0x1E1E JUMP JUMPDEST PUSH1 0x40 MLOAD DUP1 SWAP2 SUB SWAP1 LOG2 POP POP JUMP JUMPDEST CALLER PUSH2 0x5E9 PUSH1 0x0 PUSH2 0x4B6 JUMP JUMPDEST PUSH2 0x60C PUSH2 0x5F4 PUSH2 0x921 JUMP JUMPDEST ISZERO PUSH4 0x141BDBDB PUSH1 0xE2 SHL PUSH6 0x14185D5CD959 PUSH1 0xD2 SHL PUSH2 0xD6F JUMP JUMPDEST PUSH2 0x648 PUSH1 0x0 PUSH2 0x619 PUSH2 0x8A7 JUMP JUMPDEST GT PUSH4 0x141BDBDB PUSH1 0xE2 SHL PUSH32 0x696E73756666696369656E7420746F74616C20626F6E64656400000000000000 PUSH2 0xD6F JUMP JUMPDEST PUSH2 0x684 PUSH1 0x0 PUSH2 0x655 PUSH2 0xB22 JUMP JUMPDEST GT PUSH4 0x141BDBDB PUSH1 0xE2 SHL PUSH32 0x696E73756666696369656E7420746F74616C2072657761726465640000000000 PUSH2 0xD6F JUMP JUMPDEST PUSH2 0x6C1 DUP3 PUSH2 0x691 CALLER PUSH2 0xCA9 JUMP JUMPDEST LT ISZERO PUSH4 0x141BDBDB PUSH1 0xE2 SHL PUSH32 0x696E73756666696369656E742072657761726465642062616C616E6365000000 PUSH2 0xD6F JUMP JUMPDEST PUSH1 0x0 DUP1 PUSH2 0x6CD DUP5 PUSH2 0x11AA JUMP JUMPDEST SWAP2 POP SWAP2 POP PUSH1 0x0 PUSH2 0x6EA DUP6 PUSH2 0x466 PUSH2 0x6E2 PUSH2 0xD37 JUMP JUMPDEST PUSH2 0x466 PUSH2 0xB22 JUMP JUMPDEST SWAP1 POP PUSH1 0x0 PUSH2 0x709 PUSH2 0x6F9 PUSH2 0x8A7 JUMP JUMPDEST PUSH2 0x3B2 DUP5 DUP7 PUSH4 0xFFFFFFFF PUSH2 0xDCD AND JUMP JUMPDEST SWAP1 POP PUSH2 0x715 CALLER DUP5 PUSH2 0x139D JUMP JUMPDEST PUSH2 0x72E CALLER PUSH2 0x729 DUP9 DUP5 PUSH4 0xFFFFFFFF PUSH2 0x1125 AND JUMP JUMPDEST PUSH2 0x1402 JUMP JUMPDEST PUSH2 0x736 PUSH2 0xFE2 JUMP JUMPDEST CALLER PUSH1 0x1 PUSH1 0x1 PUSH1 0xA0 SHL SUB AND PUSH32 0xBE9D8078818A53534CE225882A00E0C6F709B5296C8A08C3A1F23F9FFD448380 DUP8 DUP7 DUP7 PUSH1 0x40 MLOAD PUSH2 0x773 SWAP4 SWAP3 SWAP2 SWAP1 PUSH2 0x1E3A JUMP JUMPDEST PUSH1 0x40 MLOAD DUP1 SWAP2 SUB SWAP1 LOG2 POP POP POP POP POP POP JUMP JUMPDEST CALLER PUSH2 0x78E PUSH1 0x0 PUSH2 0x4B6 JUMP JUMPDEST PUSH2 0x796 PUSH2 0x8F4 JUMP JUMPDEST PUSH1 0x1 PUSH1 0x1 PUSH1 0xA0 SHL SUB AND PUSH4 0xA9059CBB CALLER DUP5 PUSH1 0x40 MLOAD DUP4 PUSH4 0xFFFFFFFF AND PUSH1 0xE0 SHL DUP2 MSTORE PUSH1 0x4 ADD PUSH2 0x7C3 SWAP3 SWAP2 SWAP1 PUSH2 0x1D5A JUMP JUMPDEST PUSH1 0x20 PUSH1 0x40 MLOAD DUP1 DUP4 SUB DUP2 PUSH1 0x0 DUP8 DUP1 EXTCODESIZE ISZERO DUP1 ISZERO PUSH2 0x7DD JUMPI PUSH1 0x0 DUP1 REVERT JUMPDEST POP GAS CALL ISZERO DUP1 ISZERO PUSH2 0x7F1 JUMPI RETURNDATASIZE PUSH1 0x0 DUP1 RETURNDATACOPY RETURNDATASIZE PUSH1 0x0 REVERT JUMPDEST POP POP POP POP PUSH1 0x40 MLOAD RETURNDATASIZE PUSH1 0x1F NOT PUSH1 0x1F DUP3 ADD AND DUP3 ADD DUP1 PUSH1 0x40 MSTORE POP PUSH2 0x815 SWAP2 SWAP1 DUP2 ADD SWAP1 PUSH2 0x191D JUMP JUMPDEST POP PUSH2 0x839 CALLER DUP4 PUSH1 0x40 MLOAD DUP1 PUSH1 0x60 ADD PUSH1 0x40 MSTORE DUP1 PUSH1 0x24 DUP2 MSTORE PUSH1 0x20 ADD PUSH2 0x1F61 PUSH1 0x24 SWAP2 CODECOPY PUSH2 0x1467 JUMP JUMPDEST PUSH2 0x841 PUSH2 0xFE2 JUMP JUMPDEST CALLER PUSH1 0x1 PUSH1 0x1 PUSH1 0xA0 SHL SUB AND PUSH32 0x47CEE97CB7ACD717B3C0AA1435D004CD5B3C8C57D70DBCEB4E4458BBD60E39D4 DUP4 PUSH1 0x40 MLOAD PUSH2 0x5D2 SWAP2 SWAP1 PUSH2 0x1E1E JUMP JUMPDEST PUSH1 0x0 PUSH2 0x884 PUSH2 0x14CF JUMP JUMPDEST SWAP1 POP SWAP1 JUMP JUMPDEST PUSH1 0x4 SLOAD PUSH1 0x1 PUSH1 0x1 PUSH1 0xA0 SHL SUB AND SWAP1 JUMP JUMPDEST PUSH1 0x6 SLOAD PUSH1 0x1 PUSH1 0x1 PUSH1 0xA0 SHL SUB AND SWAP1 JUMP JUMPDEST PUSH1 0x2 SLOAD SWAP1 JUMP JUMPDEST PUSH1 0x1 SLOAD SWAP1 JUMP JUMPDEST PUSH2 0x8EA PUSH2 0x8BE PUSH2 0x889 JUMP JUMPDEST PUSH1 0x1 PUSH1 0x1 PUSH1 0xA0 SHL SUB AND CALLER PUSH1 0x1 PUSH1 0x1 PUSH1 0xA0 SHL SUB AND EQ PUSH4 0x141BDBDB PUSH1 0xE2 SHL PUSH7 0x4E6F742064616F PUSH1 0xC8 SHL PUSH2 0xD6F JUMP JUMPDEST PUSH2 0x8F2 PUSH2 0x14E7 JUMP JUMPDEST JUMP JUMPDEST PUSH1 0x5 SLOAD PUSH1 0x1 PUSH1 0x1 PUSH1 0xA0 SHL SUB AND SWAP1 JUMP JUMPDEST PUSH1 0x1 PUSH1 0x1 PUSH1 0xA0 SHL SUB AND PUSH1 0x0 SWAP1 DUP2 MSTORE PUSH1 0x8 PUSH1 0x20 MSTORE PUSH1 0x40 SWAP1 KECCAK256 PUSH1 0x4 ADD SLOAD SWAP1 JUMP JUMPDEST PUSH1 0x7 SLOAD PUSH1 0xFF AND SWAP1 JUMP JUMPDEST PUSH1 0x1 PUSH1 0x1 PUSH1 0xA0 SHL SUB AND PUSH1 0x0 SWAP1 DUP2 MSTORE PUSH1 0x8 PUSH1 0x20 MSTORE PUSH1 0x40 SWAP1 KECCAK256 PUSH1 0x2 ADD SLOAD SWAP1 JUMP JUMPDEST PUSH1 0x1 PUSH1 0x1 PUSH1 0xA0 SHL SUB AND PUSH1 0x0 SWAP1 DUP2 MSTORE PUSH1 0x8 PUSH1 0x20 MSTORE PUSH1 0x40 SWAP1 KECCAK256 SLOAD SWAP1 JUMP JUMPDEST PUSH2 0x96E PUSH2 0x8BE PUSH2 0x889 JUMP JUMPDEST DUP2 PUSH1 0x1 PUSH1 0x1 PUSH1 0xA0 SHL SUB AND PUSH4 0xA9059CBB PUSH2 0x985 PUSH2 0x889 JUMP JUMPDEST DUP4 PUSH1 0x40 MLOAD DUP4 PUSH4 0xFFFFFFFF AND PUSH1 0xE0 SHL DUP2 MSTORE PUSH1 0x4 ADD PUSH2 0x9A3 SWAP3 SWAP2 SWAP1 PUSH2 0x1D75 JUMP JUMPDEST PUSH1 0x20 PUSH1 0x40 MLOAD DUP1 DUP4 SUB DUP2 PUSH1 0x0 DUP8 DUP1 EXTCODESIZE ISZERO DUP1 ISZERO PUSH2 0x9BD JUMPI PUSH1 0x0 DUP1 REVERT JUMPDEST POP GAS CALL ISZERO DUP1 ISZERO PUSH2 0x9D1 JUMPI RETURNDATASIZE PUSH1 0x0 DUP1 RETURNDATACOPY RETURNDATASIZE PUSH1 0x0 REVERT JUMPDEST POP POP POP POP PUSH1 0x40 MLOAD RETURNDATASIZE PUSH1 0x1F NOT PUSH1 0x1F DUP3 ADD AND DUP3 ADD DUP1 PUSH1 0x40 MSTORE POP PUSH2 0x9F5 SWAP2 SWAP1 DUP2 ADD SWAP1 PUSH2 0x191D JUMP JUMPDEST POP POP POP JUMP JUMPDEST PUSH1 0x1 PUSH1 0x1 PUSH1 0xA0 SHL SUB DUP2 AND PUSH1 0x0 SWAP1 DUP2 MSTORE PUSH1 0x8 PUSH1 0x20 MSTORE PUSH1 0x40 DUP2 KECCAK256 PUSH1 0x4 ADD SLOAD PUSH2 0xA1E PUSH2 0x10AB JUMP JUMPDEST LT ISZERO PUSH2 0xA2B JUMPI PUSH1 0x1 PUSH2 0xA2E JUMP JUMPDEST PUSH1 0x0 JUMPDEST SWAP3 SWAP2 POP POP JUMP JUMPDEST PUSH2 0xA3F PUSH2 0x5F4 PUSH2 0x921 JUMP JUMPDEST PUSH2 0xA48 CALLER PUSH2 0xD3D JUMP JUMPDEST PUSH1 0x0 PUSH2 0xA55 PUSH2 0x6E2 PUSH2 0xD37 JUMP JUMPDEST SWAP1 POP PUSH1 0x0 PUSH2 0xA61 PUSH2 0x8A7 JUMP JUMPDEST ISZERO PUSH2 0xA76 JUMPI PUSH2 0xA71 PUSH2 0x6F9 PUSH2 0x8A7 JUMP JUMPDEST PUSH2 0xA96 JUMP JUMPDEST PUSH2 0xA7E PUSH2 0xB22 JUMP JUMPDEST ISZERO PUSH2 0xA8A JUMPI PUSH1 0x0 PUSH2 0xA96 JUMP JUMPDEST PUSH2 0xA96 DUP4 PUSH2 0x3A6 PUSH2 0x14F6 JUMP JUMPDEST SWAP1 POP PUSH2 0xAA2 CALLER DUP5 PUSH2 0x139D JUMP JUMPDEST PUSH2 0xAAC CALLER DUP3 PUSH2 0x1402 JUMP JUMPDEST PUSH2 0xACF CALLER DUP5 PUSH1 0x40 MLOAD DUP1 PUSH1 0x60 ADD PUSH1 0x40 MSTORE DUP1 PUSH1 0x21 DUP2 MSTORE PUSH1 0x20 ADD PUSH2 0x1FA7 PUSH1 0x21 SWAP2 CODECOPY PUSH2 0x114A JUMP JUMPDEST PUSH2 0xAD7 PUSH2 0xFE2 JUMP JUMPDEST CALLER PUSH32 0x3AE9AD26D7D47616D306D7757B947FE7B0F9A7C61A5F0DC784B0DDB6C7C40B5A PUSH2 0xB06 PUSH1 0x1 PUSH2 0x466 PUSH2 0x10AB JUMP JUMPDEST DUP6 PUSH1 0x40 MLOAD PUSH2 0xB15 SWAP3 SWAP2 SWAP1 PUSH2 0x1E2C JUMP JUMPDEST PUSH1 0x40 MLOAD DUP1 SWAP2 SUB SWAP1 LOG2 POP POP POP JUMP JUMPDEST PUSH1 0x0 PUSH2 0x884 PUSH2 0xB2F PUSH2 0x8AD JUMP JUMPDEST PUSH2 0xB37 PUSH2 0x8F4 JUMP JUMPDEST PUSH1 0x1 PUSH1 0x1 PUSH1 0xA0 SHL SUB AND PUSH4 0x70A08231 ADDRESS PUSH1 0x40 MLOAD DUP3 PUSH4 0xFFFFFFFF AND PUSH1 0xE0 SHL DUP2 MSTORE PUSH1 0x4 ADD PUSH2 0xB62 SWAP2 SWAP1 PUSH2 0x1D24 JUMP JUMPDEST PUSH1 0x20 PUSH1 0x40 MLOAD DUP1 DUP4 SUB DUP2 DUP7 DUP1 EXTCODESIZE ISZERO DUP1 ISZERO PUSH2 0xB7A JUMPI PUSH1 0x0 DUP1 REVERT JUMPDEST POP GAS STATICCALL ISZERO DUP1 ISZERO PUSH2 0xB8E JUMPI RETURNDATASIZE PUSH1 0x0 DUP1 RETURNDATACOPY RETURNDATASIZE PUSH1 0x0 REVERT JUMPDEST POP POP POP POP PUSH1 0x40 MLOAD RETURNDATASIZE PUSH1 0x1F NOT PUSH1 0x1F DUP3 ADD AND DUP3 ADD DUP1 PUSH1 0x40 MSTORE POP PUSH2 0xBB2 SWAP2 SWAP1 DUP2 ADD SWAP1 PUSH2 0x19A6 JUMP JUMPDEST SWAP1 PUSH4 0xFFFFFFFF PUSH2 0x14FD AND JUMP JUMPDEST CALLER PUSH2 0xBC9 PUSH1 0x0 PUSH2 0x4B6 JUMP JUMPDEST PUSH2 0xBD4 PUSH2 0x5F4 PUSH2 0x921 JUMP JUMPDEST PUSH2 0xBDC PUSH2 0x898 JUMP JUMPDEST PUSH1 0x1 PUSH1 0x1 PUSH1 0xA0 SHL SUB AND PUSH4 0x23B872DD CALLER ADDRESS DUP6 PUSH1 0x40 MLOAD DUP5 PUSH4 0xFFFFFFFF AND PUSH1 0xE0 SHL DUP2 MSTORE PUSH1 0x4 ADD PUSH2 0xC0B SWAP4 SWAP3 SWAP2 SWAP1 PUSH2 0x1D32 JUMP JUMPDEST PUSH1 0x20 PUSH1 0x40 MLOAD DUP1 DUP4 SUB DUP2 PUSH1 0x0 DUP8 DUP1 EXTCODESIZE ISZERO DUP1 ISZERO PUSH2 0xC25 JUMPI PUSH1 0x0 DUP1 REVERT JUMPDEST POP GAS CALL ISZERO DUP1 ISZERO PUSH2 0xC39 JUMPI RETURNDATASIZE PUSH1 0x0 DUP1 RETURNDATACOPY RETURNDATASIZE PUSH1 0x0 REVERT JUMPDEST POP POP POP POP PUSH1 0x40 MLOAD RETURNDATASIZE PUSH1 0x1F NOT PUSH1 0x1F DUP3 ADD AND DUP3 ADD DUP1 PUSH1 0x40 MSTORE POP PUSH2 0xC5D SWAP2 SWAP1 DUP2 ADD SWAP1 PUSH2 0x191D JUMP JUMPDEST POP PUSH2 0xC68 CALLER DUP4 PUSH2 0xE50 JUMP JUMPDEST PUSH2 0xC70 PUSH2 0xFE2 JUMP JUMPDEST CALLER PUSH1 0x1 PUSH1 0x1 PUSH1 0xA0 SHL SUB AND PUSH32 0xE1FFFCC4923D04B559F4D29A8BFC6CDA04EB5B0D3C460751C2402C5C5CC9109C DUP4 PUSH1 0x40 MLOAD PUSH2 0x5D2 SWAP2 SWAP1 PUSH2 0x1E1E JUMP JUMPDEST PUSH1 0x0 DUP1 PUSH2 0xCB4 PUSH2 0x8A7 JUMP JUMPDEST SWAP1 POP DUP1 PUSH2 0xCC5 JUMPI PUSH1 0x0 SWAP2 POP POP PUSH2 0x343 JUMP JUMPDEST PUSH1 0x0 PUSH2 0xCD2 PUSH2 0x6E2 PUSH2 0xD37 JUMP JUMPDEST SWAP1 POP PUSH1 0x0 PUSH2 0xCF3 DUP4 PUSH2 0x3B2 PUSH2 0xCE6 DUP9 PUSH2 0x92A JUMP JUMPDEST DUP6 SWAP1 PUSH4 0xFFFFFFFF PUSH2 0xDCD AND JUMP JUMPDEST SWAP1 POP PUSH1 0x0 PUSH2 0xD00 DUP7 PUSH2 0x491 JUMP JUMPDEST SWAP1 POP DUP1 DUP3 GT ISZERO PUSH2 0xD25 JUMPI PUSH2 0xD1A DUP3 DUP3 PUSH4 0xFFFFFFFF PUSH2 0x14FD AND JUMP JUMPDEST SWAP5 POP POP POP POP POP PUSH2 0x343 JUMP JUMPDEST POP PUSH1 0x0 SWAP6 SWAP5 POP POP POP POP POP JUMP JUMPDEST PUSH1 0x0 SLOAD SWAP1 JUMP JUMPDEST PUSH1 0x3 SLOAD SWAP1 JUMP JUMPDEST PUSH2 0xD50 PUSH2 0xD48 PUSH2 0x153F JUMP JUMPDEST PUSH2 0x466 PUSH2 0x10AB JUMP JUMPDEST PUSH1 0x1 PUSH1 0x1 PUSH1 0xA0 SHL SUB SWAP1 SWAP2 AND PUSH1 0x0 SWAP1 DUP2 MSTORE PUSH1 0x8 PUSH1 0x20 MSTORE PUSH1 0x40 SWAP1 KECCAK256 PUSH1 0x4 ADD SSTORE JUMP JUMPDEST DUP3 PUSH2 0x9F5 JUMPI PUSH2 0xD7D DUP3 PUSH2 0x1544 JUMP JUMPDEST PUSH2 0x1D1 PUSH1 0xF5 SHL PUSH2 0xD8C DUP4 PUSH2 0x1544 JUMP JUMPDEST PUSH1 0x40 MLOAD PUSH1 0x20 ADD PUSH2 0xD9E SWAP4 SWAP3 SWAP2 SWAP1 PUSH2 0x1CBD JUMP JUMPDEST PUSH1 0x40 DUP1 MLOAD PUSH1 0x1F NOT DUP2 DUP5 SUB ADD DUP2 MSTORE SWAP1 DUP3 SWAP1 MSTORE PUSH3 0x461BCD PUSH1 0xE5 SHL DUP3 MSTORE PUSH2 0xDC4 SWAP2 PUSH1 0x4 ADD PUSH2 0x1DAD JUMP JUMPDEST PUSH1 0x40 MLOAD DUP1 SWAP2 SUB SWAP1 REVERT JUMPDEST PUSH1 0x0 DUP3 PUSH2 0xDDC JUMPI POP PUSH1 0x0 PUSH2 0xA2E JUMP JUMPDEST DUP3 DUP3 MUL DUP3 DUP5 DUP3 DUP2 PUSH2 0xDE9 JUMPI INVALID JUMPDEST DIV EQ PUSH2 0xE07 JUMPI PUSH1 0x40 MLOAD PUSH3 0x461BCD PUSH1 0xE5 SHL DUP2 MSTORE PUSH1 0x4 ADD PUSH2 0xDC4 SWAP1 PUSH2 0x1DFE JUMP JUMPDEST SWAP4 SWAP3 POP POP POP JUMP JUMPDEST PUSH1 0x0 PUSH2 0xE07 DUP4 DUP4 PUSH1 0x40 MLOAD DUP1 PUSH1 0x40 ADD PUSH1 0x40 MSTORE DUP1 PUSH1 0x1A DUP2 MSTORE PUSH1 0x20 ADD PUSH32 0x536166654D6174683A206469766973696F6E206279207A65726F000000000000 DUP2 MSTORE POP PUSH2 0x15C4 JUMP JUMPDEST PUSH1 0x1 PUSH1 0x1 PUSH1 0xA0 SHL SUB DUP3 AND PUSH1 0x0 SWAP1 DUP2 MSTORE PUSH1 0x8 PUSH1 0x20 MSTORE PUSH1 0x40 SWAP1 KECCAK256 SLOAD PUSH2 0xE79 SWAP1 DUP3 PUSH4 0xFFFFFFFF PUSH2 0x1125 AND JUMP JUMPDEST PUSH1 0x1 PUSH1 0x1 PUSH1 0xA0 SHL SUB DUP4 AND PUSH1 0x0 SWAP1 DUP2 MSTORE PUSH1 0x8 PUSH1 0x20 MSTORE PUSH1 0x40 DUP2 KECCAK256 SWAP2 SWAP1 SWAP2 SSTORE SLOAD PUSH2 0xEA6 SWAP1 DUP3 PUSH4 0xFFFFFFFF PUSH2 0x1125 AND JUMP JUMPDEST PUSH1 0x0 SSTORE POP POP JUMP JUMPDEST PUSH1 0x1 PUSH1 0x1 PUSH1 0xA0 SHL SUB DUP3 AND PUSH1 0x0 SWAP1 DUP2 MSTORE PUSH1 0x8 PUSH1 0x20 MSTORE PUSH1 0x40 SWAP1 KECCAK256 PUSH1 0x1 ADD SLOAD PUSH2 0xED9 SWAP1 DUP3 PUSH4 0xFFFFFFFF PUSH2 0x1125 AND JUMP JUMPDEST PUSH1 0x1 PUSH1 0x1 PUSH1 0xA0 SHL SUB DUP4 AND PUSH1 0x0 SWAP1 DUP2 MSTORE PUSH1 0x8 PUSH1 0x20 MSTORE PUSH1 0x40 SWAP1 KECCAK256 PUSH1 0x1 SWAP1 DUP2 ADD SWAP2 SWAP1 SWAP2 SSTORE SLOAD PUSH2 0xF0B SWAP1 DUP3 PUSH4 0xFFFFFFFF PUSH2 0x1125 AND JUMP JUMPDEST PUSH1 0x1 SSTORE POP POP JUMP JUMPDEST PUSH1 0x1 PUSH1 0x1 PUSH1 0xA0 SHL SUB DUP4 AND PUSH1 0x0 SWAP1 DUP2 MSTORE PUSH1 0x8 PUSH1 0x20 MSTORE PUSH1 0x40 SWAP1 KECCAK256 PUSH1 0x2 ADD SLOAD PUSH2 0xF3F SWAP1 DUP4 DUP4 PUSH4 0xFFFFFFFF PUSH2 0x15FB AND JUMP JUMPDEST PUSH1 0x1 PUSH1 0x1 PUSH1 0xA0 SHL SUB DUP5 AND PUSH1 0x0 SWAP1 DUP2 MSTORE PUSH1 0x8 PUSH1 0x20 MSTORE PUSH1 0x40 SWAP1 KECCAK256 PUSH1 0x2 SWAP1 DUP2 ADD SWAP2 SWAP1 SWAP2 SSTORE SLOAD PUSH2 0xF72 SWAP1 DUP4 DUP4 PUSH4 0xFFFFFFFF PUSH2 0x15FB AND JUMP JUMPDEST PUSH1 0x2 SSTORE POP POP POP JUMP JUMPDEST PUSH1 0x1 PUSH1 0x1 PUSH1 0xA0 SHL SUB DUP4 AND PUSH1 0x0 SWAP1 DUP2 MSTORE PUSH1 0x8 PUSH1 0x20 MSTORE PUSH1 0x40 SWAP1 KECCAK256 PUSH1 0x3 ADD SLOAD PUSH2 0xFA7 SWAP1 DUP4 DUP4 PUSH4 0xFFFFFFFF PUSH2 0x15FB AND JUMP JUMPDEST PUSH1 0x1 PUSH1 0x1 PUSH1 0xA0 SHL SUB DUP5 AND PUSH1 0x0 SWAP1 DUP2 MSTORE PUSH1 0x8 PUSH1 0x20 MSTORE PUSH1 0x40 SWAP1 KECCAK256 PUSH1 0x3 SWAP1 DUP2 ADD SWAP2 SWAP1 SWAP2 SSTORE SLOAD PUSH2 0xFDA SWAP1 DUP4 DUP4 PUSH4 0xFFFFFFFF PUSH2 0x15FB AND JUMP JUMPDEST PUSH1 0x3 SSTORE POP POP POP JUMP JUMPDEST PUSH2 0x8F2 PUSH2 0xFF8 PUSH2 0xFF0 PUSH2 0x8A7 JUMP JUMPDEST PUSH2 0x466 PUSH2 0xD31 JUMP JUMPDEST PUSH2 0x1000 PUSH2 0x898 JUMP JUMPDEST PUSH1 0x1 PUSH1 0x1 PUSH1 0xA0 SHL SUB AND PUSH4 0x70A08231 ADDRESS PUSH1 0x40 MLOAD DUP3 PUSH4 0xFFFFFFFF AND PUSH1 0xE0 SHL DUP2 MSTORE PUSH1 0x4 ADD PUSH2 0x102B SWAP2 SWAP1 PUSH2 0x1D24 JUMP JUMPDEST PUSH1 0x20 PUSH1 0x40 MLOAD DUP1 DUP4 SUB DUP2 DUP7 DUP1 EXTCODESIZE ISZERO DUP1 ISZERO PUSH2 0x1043 JUMPI PUSH1 0x0 DUP1 REVERT JUMPDEST POP GAS STATICCALL ISZERO DUP1 ISZERO PUSH2 0x1057 JUMPI RETURNDATASIZE PUSH1 0x0 DUP1 RETURNDATACOPY RETURNDATASIZE PUSH1 0x0 REVERT JUMPDEST POP POP POP POP PUSH1 0x40 MLOAD RETURNDATASIZE PUSH1 0x1F NOT PUSH1 0x1F DUP3 ADD AND DUP3 ADD DUP1 PUSH1 0x40 MSTORE POP PUSH2 0x107B SWAP2 SWAP1 DUP2 ADD SWAP1 PUSH2 0x19A6 JUMP JUMPDEST LT ISZERO PUSH4 0x141BDBDB PUSH1 0xE2 SHL PUSH32 0x496E636F6E73697374656E742043616B652D4C502062616C616E636573000000 PUSH2 0xD6F JUMP JUMPDEST PUSH1 0x0 PUSH2 0x10B5 PUSH2 0x889 JUMP JUMPDEST PUSH1 0x1 PUSH1 0x1 PUSH1 0xA0 SHL SUB AND PUSH4 0x900CF0CF PUSH1 0x40 MLOAD DUP2 PUSH4 0xFFFFFFFF AND PUSH1 0xE0 SHL DUP2 MSTORE PUSH1 0x4 ADD PUSH1 0x20 PUSH1 0x40 MLOAD DUP1 DUP4 SUB DUP2 DUP7 DUP1 EXTCODESIZE ISZERO DUP1 ISZERO PUSH2 0x10ED JUMPI PUSH1 0x0 DUP1 REVERT JUMPDEST POP GAS STATICCALL ISZERO DUP1 ISZERO PUSH2 0x1101 JUMPI RETURNDATASIZE PUSH1 0x0 DUP1 RETURNDATACOPY RETURNDATASIZE PUSH1 0x0 REVERT JUMPDEST POP POP POP POP PUSH1 0x40 MLOAD RETURNDATASIZE PUSH1 0x1F NOT PUSH1 0x1F DUP3 ADD AND DUP3 ADD DUP1 PUSH1 0x40 MSTORE POP PUSH2 0x884 SWAP2 SWAP1 DUP2 ADD SWAP1 PUSH2 0x19A6 JUMP JUMPDEST PUSH1 0x0 DUP3 DUP3 ADD DUP4 DUP2 LT ISZERO PUSH2 0xE07 JUMPI PUSH1 0x40 MLOAD PUSH3 0x461BCD PUSH1 0xE5 SHL DUP2 MSTORE PUSH1 0x4 ADD PUSH2 0xDC4 SWAP1 PUSH2 0x1DCE JUMP JUMPDEST PUSH1 0x1 PUSH1 0x1 PUSH1 0xA0 SHL SUB DUP4 AND PUSH1 0x0 SWAP1 DUP2 MSTORE PUSH1 0x8 PUSH1 0x20 MSTORE PUSH1 0x40 SWAP1 KECCAK256 SLOAD PUSH2 0x1174 SWAP1 DUP4 DUP4 PUSH4 0xFFFFFFFF PUSH2 0x15FB AND JUMP JUMPDEST PUSH1 0x1 PUSH1 0x1 PUSH1 0xA0 SHL SUB DUP5 AND PUSH1 0x0 SWAP1 DUP2 MSTORE PUSH1 0x8 PUSH1 0x20 MSTORE PUSH1 0x40 DUP2 KECCAK256 SWAP2 SWAP1 SWAP2 SSTORE SLOAD PUSH2 0x11A2 SWAP1 DUP4 DUP4 PUSH4 0xFFFFFFFF PUSH2 0x15FB AND JUMP JUMPDEST PUSH1 0x0 SSTORE POP POP POP JUMP JUMPDEST PUSH1 0x0 DUP1 PUSH1 0x0 DUP1 PUSH2 0x11B8 PUSH2 0x8F4 JUMP JUMPDEST PUSH2 0x11C0 PUSH2 0x87A JUMP JUMPDEST SWAP2 POP SWAP2 POP PUSH1 0x0 DUP1 PUSH2 0x11D1 DUP5 DUP5 PUSH2 0x1627 JUMP JUMPDEST SWAP2 POP SWAP2 POP PUSH1 0x0 DUP3 PUSH1 0x0 EQ DUP1 ISZERO PUSH2 0x11E5 JUMPI POP DUP2 ISZERO JUMPDEST PUSH2 0x11F9 JUMPI PUSH2 0x11F4 DUP9 DUP5 DUP5 PUSH2 0x1713 JUMP JUMPDEST PUSH2 0x11FB JUMP JUMPDEST DUP8 JUMPDEST SWAP1 POP PUSH1 0x0 PUSH2 0x1207 PUSH2 0x898 JUMP JUMPDEST PUSH1 0x40 MLOAD PUSH4 0xA9059CBB PUSH1 0xE0 SHL DUP2 MSTORE SWAP1 SWAP2 POP PUSH1 0x1 PUSH1 0x1 PUSH1 0xA0 SHL SUB DUP8 AND SWAP1 PUSH4 0xA9059CBB SWAP1 PUSH2 0x1238 SWAP1 DUP5 SWAP1 DUP14 SWAP1 PUSH1 0x4 ADD PUSH2 0x1D75 JUMP JUMPDEST PUSH1 0x20 PUSH1 0x40 MLOAD DUP1 DUP4 SUB DUP2 PUSH1 0x0 DUP8 DUP1 EXTCODESIZE ISZERO DUP1 ISZERO PUSH2 0x1252 JUMPI PUSH1 0x0 DUP1 REVERT JUMPDEST POP GAS CALL ISZERO DUP1 ISZERO PUSH2 0x1266 JUMPI RETURNDATASIZE PUSH1 0x0 DUP1 RETURNDATACOPY RETURNDATASIZE PUSH1 0x0 REVERT JUMPDEST POP POP POP POP PUSH1 0x40 MLOAD RETURNDATASIZE PUSH1 0x1F NOT PUSH1 0x1F DUP3 ADD AND DUP3 ADD DUP1 PUSH1 0x40 MSTORE POP PUSH2 0x128A SWAP2 SWAP1 DUP2 ADD SWAP1 PUSH2 0x191D JUMP JUMPDEST POP PUSH1 0x40 MLOAD PUSH4 0x23B872DD PUSH1 0xE0 SHL DUP2 MSTORE PUSH1 0x1 PUSH1 0x1 PUSH1 0xA0 SHL SUB DUP7 AND SWAP1 PUSH4 0x23B872DD SWAP1 PUSH2 0x12BB SWAP1 CALLER SWAP1 DUP6 SWAP1 DUP8 SWAP1 PUSH1 0x4 ADD PUSH2 0x1D32 JUMP JUMPDEST PUSH1 0x20 PUSH1 0x40 MLOAD DUP1 DUP4 SUB DUP2 PUSH1 0x0 DUP8 DUP1 EXTCODESIZE ISZERO DUP1 ISZERO PUSH2 0x12D5 JUMPI PUSH1 0x0 DUP1 REVERT JUMPDEST POP GAS CALL ISZERO DUP1 ISZERO PUSH2 0x12E9 JUMPI RETURNDATASIZE PUSH1 0x0 DUP1 RETURNDATACOPY RETURNDATASIZE PUSH1 0x0 REVERT JUMPDEST POP POP POP POP PUSH1 0x40 MLOAD RETURNDATASIZE PUSH1 0x1F NOT PUSH1 0x1F DUP3 ADD AND DUP3 ADD DUP1 PUSH1 0x40 MSTORE POP PUSH2 0x130D SWAP2 SWAP1 DUP2 ADD SWAP1 PUSH2 0x191D JUMP JUMPDEST POP PUSH1 0x40 MLOAD PUSH4 0x35313C21 PUSH1 0xE1 SHL DUP2 MSTORE DUP3 SWAP1 PUSH1 0x1 PUSH1 0x1 PUSH1 0xA0 SHL SUB DUP4 AND SWAP1 PUSH4 0x6A627842 SWAP1 PUSH2 0x133C SWAP1 ADDRESS SWAP1 PUSH1 0x4 ADD PUSH2 0x1D24 JUMP JUMPDEST PUSH1 0x20 PUSH1 0x40 MLOAD DUP1 DUP4 SUB DUP2 PUSH1 0x0 DUP8 DUP1 EXTCODESIZE ISZERO DUP1 ISZERO PUSH2 0x1356 JUMPI PUSH1 0x0 DUP1 REVERT JUMPDEST POP GAS CALL ISZERO DUP1 ISZERO PUSH2 0x136A JUMPI RETURNDATASIZE PUSH1 0x0 DUP1 RETURNDATACOPY RETURNDATASIZE PUSH1 0x0 REVERT JUMPDEST POP POP POP POP PUSH1 0x40 MLOAD RETURNDATASIZE PUSH1 0x1F NOT PUSH1 0x1F DUP3 ADD AND DUP3 ADD DUP1 PUSH1 0x40 MSTORE POP PUSH2 0x138E SWAP2 SWAP1 DUP2 ADD SWAP1 PUSH2 0x19A6 JUMP JUMPDEST SWAP8 POP SWAP8 POP POP POP POP POP POP POP SWAP2 POP SWAP2 JUMP JUMPDEST PUSH1 0x1 PUSH1 0x1 PUSH1 0xA0 SHL SUB DUP3 AND PUSH1 0x0 SWAP1 DUP2 MSTORE PUSH1 0x8 PUSH1 0x20 MSTORE PUSH1 0x40 SWAP1 KECCAK256 PUSH1 0x2 ADD SLOAD PUSH2 0x13C9 SWAP1 DUP3 PUSH4 0xFFFFFFFF PUSH2 0x1125 AND JUMP JUMPDEST PUSH1 0x1 PUSH1 0x1 PUSH1 0xA0 SHL SUB DUP4 AND PUSH1 0x0 SWAP1 DUP2 MSTORE PUSH1 0x8 PUSH1 0x20 MSTORE PUSH1 0x40 SWAP1 KECCAK256 PUSH1 0x2 SWAP1 DUP2 ADD SWAP2 SWAP1 SWAP2 SSTORE SLOAD PUSH2 0x13FB SWAP1 DUP3 PUSH4 0xFFFFFFFF PUSH2 0x1125 AND JUMP JUMPDEST PUSH1 0x2 SSTORE POP POP JUMP JUMPDEST PUSH1 0x1 PUSH1 0x1 PUSH1 0xA0 SHL SUB DUP3 AND PUSH1 0x0 SWAP1 DUP2 MSTORE PUSH1 0x8 PUSH1 0x20 MSTORE PUSH1 0x40 SWAP1 KECCAK256 PUSH1 0x3 ADD SLOAD PUSH2 0x142E SWAP1 DUP3 PUSH4 0xFFFFFFFF PUSH2 0x1125 AND JUMP JUMPDEST PUSH1 0x1 PUSH1 0x1 PUSH1 0xA0 SHL SUB DUP4 AND PUSH1 0x0 SWAP1 DUP2 MSTORE PUSH1 0x8 PUSH1 0x20 MSTORE PUSH1 0x40 SWAP1 KECCAK256 PUSH1 0x3 SWAP1 DUP2 ADD SWAP2 SWAP1 SWAP2 SSTORE SLOAD PUSH2 0x1460 SWAP1 DUP3 PUSH4 0xFFFFFFFF PUSH2 0x1125 AND JUMP JUMPDEST PUSH1 0x3 SSTORE POP POP JUMP JUMPDEST PUSH1 0x1 PUSH1 0x1 PUSH1 0xA0 SHL SUB DUP4 AND PUSH1 0x0 SWAP1 DUP2 MSTORE PUSH1 0x8 PUSH1 0x20 MSTORE PUSH1 0x40 SWAP1 KECCAK256 PUSH1 0x1 ADD SLOAD PUSH2 0x1494 SWAP1 DUP4 DUP4 PUSH4 0xFFFFFFFF PUSH2 0x15FB AND JUMP JUMPDEST PUSH1 0x1 PUSH1 0x1 PUSH1 0xA0 SHL SUB DUP5 AND PUSH1 0x0 SWAP1 DUP2 MSTORE PUSH1 0x8 PUSH1 0x20 MSTORE PUSH1 0x40 SWAP1 KECCAK256 PUSH1 0x1 SWAP1 DUP2 ADD SWAP2 SWAP1 SWAP2 SSTORE SLOAD PUSH2 0x14C7 SWAP1 DUP4 DUP4 PUSH4 0xFFFFFFFF PUSH2 0x15FB AND JUMP JUMPDEST PUSH1 0x1 SSTORE POP POP POP JUMP JUMPDEST PUSH20 0xE9E7CEA3DEDCA5984780BAFC599BD69ADD087D56 SWAP1 JUMP JUMPDEST PUSH1 0x7 DUP1 SLOAD PUSH1 0xFF NOT AND PUSH1 0x1 OR SWAP1 SSTORE JUMP JUMPDEST PUSH3 0xF4240 SWAP1 JUMP JUMPDEST PUSH1 0x0 PUSH2 0xE07 DUP4 DUP4 PUSH1 0x40 MLOAD DUP1 PUSH1 0x40 ADD PUSH1 0x40 MSTORE DUP1 PUSH1 0x1E DUP2 MSTORE PUSH1 0x20 ADD PUSH32 0x536166654D6174683A207375627472616374696F6E206F766572666C6F770000 DUP2 MSTORE POP PUSH2 0x15FB JUMP JUMPDEST PUSH1 0xC SWAP1 JUMP JUMPDEST PUSH1 0x60 DUP1 DUP3 PUSH1 0x40 MLOAD PUSH1 0x20 ADD PUSH2 0x1558 SWAP2 SWAP1 PUSH2 0x1CA8 JUMP JUMPDEST PUSH1 0x40 DUP1 MLOAD PUSH1 0x1F NOT DUP2 DUP5 SUB ADD DUP2 MSTORE SWAP2 SWAP1 MSTORE SWAP1 POP PUSH1 0x20 JUMPDEST DUP1 ISZERO PUSH2 0x15AD JUMPI DUP2 MLOAD PUSH1 0x0 NOT SWAP1 SWAP2 ADD SWAP1 DUP3 SWAP1 DUP3 SWAP1 DUP2 LT PUSH2 0x1588 JUMPI INVALID JUMPDEST ADD PUSH1 0x20 ADD MLOAD PUSH1 0x1 PUSH1 0x1 PUSH1 0xF8 SHL SUB NOT AND ISZERO PUSH2 0x15A8 JUMPI PUSH1 0x1 ADD DUP2 MSTORE SWAP1 POP PUSH2 0x343 JUMP JUMPDEST PUSH2 0x156D JUMP JUMPDEST POP POP PUSH1 0x40 DUP1 MLOAD PUSH1 0x0 DUP2 MSTORE PUSH1 0x20 DUP2 ADD SWAP1 SWAP2 MSTORE SWAP3 SWAP2 POP POP JUMP JUMPDEST PUSH1 0x0 DUP2 DUP4 PUSH2 0x15E5 JUMPI PUSH1 0x40 MLOAD PUSH3 0x461BCD PUSH1 0xE5 SHL DUP2 MSTORE PUSH1 0x4 ADD PUSH2 0xDC4 SWAP2 SWAP1 PUSH2 0x1DAD JUMP JUMPDEST POP PUSH1 0x0 DUP4 DUP6 DUP2 PUSH2 0x15F1 JUMPI INVALID JUMPDEST DIV SWAP6 SWAP5 POP POP POP POP POP JUMP JUMPDEST PUSH1 0x0 DUP2 DUP5 DUP5 GT ISZERO PUSH2 0x161F JUMPI PUSH1 0x40 MLOAD PUSH3 0x461BCD PUSH1 0xE5 SHL DUP2 MSTORE PUSH1 0x4 ADD PUSH2 0xDC4 SWAP2 SWAP1 PUSH2 0x1DAD JUMP JUMPDEST POP POP POP SWAP1 SUB SWAP1 JUMP JUMPDEST PUSH1 0x0 DUP1 PUSH1 0x0 PUSH2 0x1636 DUP6 DUP6 PUSH2 0x1781 JUMP JUMPDEST POP SWAP1 POP PUSH1 0x0 DUP1 PUSH2 0x165B PUSH20 0x5C69BEE701EF814A2B6A3EDD4B1652CB9CC5AA6F DUP9 DUP9 PUSH2 0x180B JUMP JUMPDEST PUSH1 0x1 PUSH1 0x1 PUSH1 0xA0 SHL SUB AND PUSH4 0x902F1AC PUSH1 0x40 MLOAD DUP2 PUSH4 0xFFFFFFFF AND PUSH1 0xE0 SHL DUP2 MSTORE PUSH1 0x4 ADD PUSH1 0x60 PUSH1 0x40 MLOAD DUP1 DUP4 SUB DUP2 DUP7 DUP1 EXTCODESIZE ISZERO DUP1 ISZERO PUSH2 0x1693 JUMPI PUSH1 0x0 DUP1 REVERT JUMPDEST POP GAS STATICCALL ISZERO DUP1 ISZERO PUSH2 0x16A7 JUMPI RETURNDATASIZE PUSH1 0x0 DUP1 RETURNDATACOPY RETURNDATASIZE PUSH1 0x0 REVERT JUMPDEST POP POP POP POP PUSH1 0x40 MLOAD RETURNDATASIZE PUSH1 0x1F NOT PUSH1 0x1F DUP3 ADD AND DUP3 ADD DUP1 PUSH1 0x40 MSTORE POP PUSH2 0x16CB SWAP2 SWAP1 DUP2 ADD SWAP1 PUSH2 0x193B JUMP JUMPDEST POP PUSH1 0x1 PUSH1 0x1 PUSH1 0x70 SHL SUB AND SWAP2 POP PUSH1 0x1 PUSH1 0x1 PUSH1 0x70 SHL SUB AND SWAP2 POP DUP3 PUSH1 0x1 PUSH1 0x1 PUSH1 0xA0 SHL SUB AND DUP8 PUSH1 0x1 PUSH1 0x1 PUSH1 0xA0 SHL SUB AND EQ PUSH2 0x1702 JUMPI DUP1 DUP3 PUSH2 0x1705 JUMP JUMPDEST DUP2 DUP2 JUMPDEST SWAP1 SWAP9 SWAP1 SWAP8 POP SWAP6 POP POP POP POP POP POP JUMP JUMPDEST PUSH1 0x0 DUP1 DUP5 GT PUSH2 0x1734 JUMPI PUSH1 0x40 MLOAD PUSH3 0x461BCD PUSH1 0xE5 SHL DUP2 MSTORE PUSH1 0x4 ADD PUSH2 0xDC4 SWAP1 PUSH2 0x1DEE JUMP JUMPDEST PUSH1 0x0 DUP4 GT DUP1 ISZERO PUSH2 0x1744 JUMPI POP PUSH1 0x0 DUP3 GT JUMPDEST PUSH2 0x1760 JUMPI PUSH1 0x40 MLOAD PUSH3 0x461BCD PUSH1 0xE5 SHL DUP2 MSTORE PUSH1 0x4 ADD PUSH2 0xDC4 SWAP1 PUSH2 0x1E0E JUMP JUMPDEST DUP3 PUSH2 0x1771 DUP6 DUP5 PUSH4 0xFFFFFFFF PUSH2 0xDCD AND JUMP JUMPDEST DUP2 PUSH2 0x1778 JUMPI INVALID JUMPDEST DIV SWAP5 SWAP4 POP POP POP POP JUMP JUMPDEST PUSH1 0x0 DUP1 DUP3 PUSH1 0x1 PUSH1 0x1 PUSH1 0xA0 SHL SUB AND DUP5 PUSH1 0x1 PUSH1 0x1 PUSH1 0xA0 SHL SUB AND EQ ISZERO PUSH2 0x17B6 JUMPI PUSH1 0x40 MLOAD PUSH3 0x461BCD PUSH1 0xE5 SHL DUP2 MSTORE PUSH1 0x4 ADD PUSH2 0xDC4 SWAP1 PUSH2 0x1DDE JUMP JUMPDEST DUP3 PUSH1 0x1 PUSH1 0x1 PUSH1 0xA0 SHL SUB AND DUP5 PUSH1 0x1 PUSH1 0x1 PUSH1 0xA0 SHL SUB AND LT PUSH2 0x17D6 JUMPI DUP3 DUP5 PUSH2 0x17D9 JUMP JUMPDEST DUP4 DUP4 JUMPDEST SWAP1 SWAP3 POP SWAP1 POP PUSH1 0x1 PUSH1 0x1 PUSH1 0xA0 SHL SUB DUP3 AND PUSH2 0x1804 JUMPI PUSH1 0x40 MLOAD PUSH3 0x461BCD PUSH1 0xE5 SHL DUP2 MSTORE PUSH1 0x4 ADD PUSH2 0xDC4 SWAP1 PUSH2 0x1DBE JUMP JUMPDEST SWAP3 POP SWAP3 SWAP1 POP JUMP JUMPDEST PUSH1 0x0 DUP1 PUSH1 0x0 PUSH2 0x181A DUP6 DUP6 PUSH2 0x1781 JUMP JUMPDEST SWAP2 POP SWAP2 POP DUP6 DUP3 DUP3 PUSH1 0x40 MLOAD PUSH1 0x20 ADD PUSH2 0x1832 SWAP3 SWAP2 SWAP1 PUSH2 0x1C82 JUMP JUMPDEST PUSH1 0x40 MLOAD PUSH1 0x20 DUP2 DUP4 SUB SUB DUP2 MSTORE SWAP1 PUSH1 0x40 MSTORE DUP1 MLOAD SWAP1 PUSH1 0x20 ADD KECCAK256 PUSH1 0x40 MLOAD PUSH1 0x20 ADD PUSH2 0x1859 SWAP3 SWAP2 SWAP1 PUSH2 0x1CEE JUMP JUMPDEST PUSH1 0x40 DUP1 MLOAD PUSH1 0x1F NOT DUP2 DUP5 SUB ADD DUP2 MSTORE SWAP2 SWAP1 MSTORE DUP1 MLOAD PUSH1 0x20 SWAP1 SWAP2 ADD KECCAK256 SWAP7 SWAP6 POP POP POP POP POP POP JUMP JUMPDEST DUP1 CALLDATALOAD PUSH2 0xA2E DUP2 PUSH2 0x1F28 JUMP JUMPDEST DUP1 MLOAD PUSH2 0xA2E DUP2 PUSH2 0x1F3C JUMP JUMPDEST DUP1 MLOAD PUSH2 0xA2E DUP2 PUSH2 0x1F45 JUMP JUMPDEST DUP1 CALLDATALOAD PUSH2 0xA2E DUP2 PUSH2 0x1F4E JUMP JUMPDEST DUP1 MLOAD PUSH2 0xA2E DUP2 PUSH2 0x1F4E JUMP JUMPDEST DUP1 MLOAD PUSH2 0xA2E DUP2 PUSH2 0x1F57 JUMP JUMPDEST PUSH1 0x0 PUSH1 0x20 DUP3 DUP5 SUB SLT ISZERO PUSH2 0x18CF JUMPI PUSH1 0x0 DUP1 REVERT JUMPDEST PUSH1 0x0 PUSH2 0x18DB DUP5 DUP5 PUSH2 0x187B JUMP JUMPDEST SWAP5 SWAP4 POP POP POP POP JUMP JUMPDEST PUSH1 0x0 DUP1 PUSH1 0x40 DUP4 DUP6 SUB SLT ISZERO PUSH2 0x18F6 JUMPI PUSH1 0x0 DUP1 REVERT JUMPDEST PUSH1 0x0 PUSH2 0x1902 DUP6 DUP6 PUSH2 0x187B JUMP JUMPDEST SWAP3 POP POP PUSH1 0x20 PUSH2 0x1913 DUP6 DUP3 DUP7 ADD PUSH2 0x189C JUMP JUMPDEST SWAP2 POP POP SWAP3 POP SWAP3 SWAP1 POP JUMP JUMPDEST PUSH1 0x0 PUSH1 0x20 DUP3 DUP5 SUB SLT ISZERO PUSH2 0x192F JUMPI PUSH1 0x0 DUP1 REVERT JUMPDEST PUSH1 0x0 PUSH2 0x18DB DUP5 DUP5 PUSH2 0x1886 JUMP JUMPDEST PUSH1 0x0 DUP1 PUSH1 0x0 PUSH1 0x60 DUP5 DUP7 SUB SLT ISZERO PUSH2 0x1950 JUMPI PUSH1 0x0 DUP1 REVERT JUMPDEST PUSH1 0x0 PUSH2 0x195C DUP7 DUP7 PUSH2 0x1891 JUMP JUMPDEST SWAP4 POP POP PUSH1 0x20 PUSH2 0x196D DUP7 DUP3 DUP8 ADD PUSH2 0x1891 JUMP JUMPDEST SWAP3 POP POP PUSH1 0x40 PUSH2 0x197E DUP7 DUP3 DUP8 ADD PUSH2 0x18B2 JUMP JUMPDEST SWAP2 POP POP SWAP3 POP SWAP3 POP SWAP3 JUMP JUMPDEST PUSH1 0x0 PUSH1 0x20 DUP3 DUP5 SUB SLT ISZERO PUSH2 0x199A JUMPI PUSH1 0x0 DUP1 REVERT JUMPDEST PUSH1 0x0 PUSH2 0x18DB DUP5 DUP5 PUSH2 0x189C JUMP JUMPDEST PUSH1 0x0 PUSH1 0x20 DUP3 DUP5 SUB SLT ISZERO PUSH2 0x19B8 JUMPI PUSH1 0x0 DUP1 REVERT JUMPDEST PUSH1 0x0 PUSH2 0x18DB DUP5 DUP5 PUSH2 0x18A7 JUMP JUMPDEST PUSH2 0x19CD DUP2 PUSH2 0x1EAD JUMP JUMPDEST DUP3 MSTORE POP POP JUMP JUMPDEST PUSH2 0x19CD DUP2 PUSH2 0x1E62 JUMP JUMPDEST PUSH2 0x19CD PUSH2 0x19E8 DUP3 PUSH2 0x1E62 JUMP JUMPDEST PUSH2 0x1EFA JUMP JUMPDEST PUSH2 0x19CD DUP2 PUSH2 0x1E6D JUMP JUMPDEST PUSH2 0x19CD PUSH2 0x1A02 DUP3 PUSH2 0x1E72 JUMP JUMPDEST PUSH2 0x1E7F JUMP JUMPDEST PUSH2 0x19CD PUSH2 0x1A02 DUP3 PUSH2 0x1E7F JUMP JUMPDEST PUSH1 0x0 PUSH2 0x1A1E DUP3 PUSH2 0x1E55 JUMP JUMPDEST PUSH2 0x1A28 DUP2 DUP6 PUSH2 0x343 JUMP JUMPDEST SWAP4 POP PUSH2 0x1A38 DUP2 DUP6 PUSH1 0x20 DUP7 ADD PUSH2 0x1ECA JUMP JUMPDEST SWAP3 SWAP1 SWAP3 ADD SWAP3 SWAP2 POP POP JUMP JUMPDEST PUSH2 0x19CD DUP2 PUSH2 0x1EB4 JUMP JUMPDEST PUSH2 0x19CD DUP2 PUSH2 0x1EBF JUMP JUMPDEST PUSH1 0x0 PUSH2 0x1A5F DUP3 PUSH2 0x1E55 JUMP JUMPDEST PUSH2 0x1A69 DUP2 DUP6 PUSH2 0x1E59 JUMP JUMPDEST SWAP4 POP PUSH2 0x1A79 DUP2 DUP6 PUSH1 0x20 DUP7 ADD PUSH2 0x1ECA JUMP JUMPDEST PUSH2 0x1A82 DUP2 PUSH2 0x1F0B JUMP JUMPDEST SWAP1 SWAP4 ADD SWAP4 SWAP3 POP POP POP JUMP JUMPDEST PUSH1 0x0 PUSH2 0x1A99 PUSH1 0x20 DUP4 PUSH2 0x1E59 JUMP JUMPDEST PUSH32 0x50616E63616B65737761704C6962726172793A205A45524F5F41444452455353 DUP2 MSTORE PUSH1 0x20 ADD SWAP3 SWAP2 POP POP JUMP JUMPDEST PUSH1 0x0 PUSH2 0x1AD2 PUSH1 0x1B DUP4 PUSH2 0x1E59 JUMP JUMPDEST PUSH32 0x536166654D6174683A206164646974696F6E206F766572666C6F770000000000 DUP2 MSTORE PUSH1 0x20 ADD SWAP3 SWAP2 POP POP JUMP JUMPDEST PUSH1 0x0 PUSH2 0x1B0B PUSH1 0x27 DUP4 PUSH2 0x1E59 JUMP JUMPDEST PUSH32 0x50616E63616B65737761704C6962726172793A204944454E544943414C5F4144 DUP2 MSTORE PUSH7 0x44524553534553 PUSH1 0xC8 SHL PUSH1 0x20 DUP3 ADD MSTORE PUSH1 0x40 ADD SWAP3 SWAP2 POP POP JUMP JUMPDEST PUSH1 0x0 PUSH2 0x1B54 PUSH1 0x20 DUP4 PUSH2 0x343 JUMP JUMPDEST PUSH32 0x96E8AC4277198FF8B6F785478AA9A39F403CB768DD02CBEE326C3E7DA348845F DUP2 MSTORE PUSH1 0x20 ADD SWAP3 SWAP2 POP POP JUMP JUMPDEST PUSH1 0x0 PUSH2 0x1B8D PUSH1 0x27 DUP4 PUSH2 0x1E59 JUMP JUMPDEST PUSH32 0x50616E63616B65737761704C6962726172793A20494E53554646494349454E54 DUP2 MSTORE PUSH7 0x17D05353D55395 PUSH1 0xCA SHL PUSH1 0x20 DUP3 ADD MSTORE PUSH1 0x40 ADD SWAP3 SWAP2 POP POP JUMP JUMPDEST PUSH1 0x0 PUSH2 0x1BD6 PUSH1 0x1 DUP4 PUSH2 0x343 JUMP JUMPDEST PUSH1 0x1 PUSH1 0x1 PUSH1 0xF8 SHL SUB NOT DUP2 MSTORE PUSH1 0x1 ADD SWAP3 SWAP2 POP POP JUMP JUMPDEST PUSH1 0x0 PUSH2 0x1BF7 PUSH1 0x21 DUP4 PUSH2 0x1E59 JUMP JUMPDEST PUSH32 0x536166654D6174683A206D756C7469706C69636174696F6E206F766572666C6F DUP2 MSTORE PUSH1 0x77 PUSH1 0xF8 SHL PUSH1 0x20 DUP3 ADD MSTORE PUSH1 0x40 ADD SWAP3 SWAP2 POP POP JUMP JUMPDEST PUSH1 0x0 PUSH2 0x1C3A PUSH1 0x2A DUP4 PUSH2 0x1E59 JUMP JUMPDEST PUSH32 0x50616E63616B65737761704C6962726172793A20494E53554646494349454E54 DUP2 MSTORE PUSH10 0x5F4C4951554944495459 PUSH1 0xB0 SHL PUSH1 0x20 DUP3 ADD MSTORE PUSH1 0x40 ADD SWAP3 SWAP2 POP POP JUMP JUMPDEST PUSH2 0x19CD DUP2 PUSH2 0x1E7F JUMP JUMPDEST PUSH1 0x0 PUSH2 0x1C8E DUP3 DUP6 PUSH2 0x19DC JUMP JUMPDEST PUSH1 0x14 DUP3 ADD SWAP2 POP PUSH2 0x1C9E DUP3 DUP5 PUSH2 0x19DC JUMP JUMPDEST POP PUSH1 0x14 ADD SWAP3 SWAP2 POP POP JUMP JUMPDEST PUSH1 0x0 PUSH2 0x1CB4 DUP3 DUP5 PUSH2 0x1A07 JUMP JUMPDEST POP PUSH1 0x20 ADD SWAP2 SWAP1 POP JUMP JUMPDEST PUSH1 0x0 PUSH2 0x1CC9 DUP3 DUP7 PUSH2 0x1A13 JUMP JUMPDEST SWAP2 POP PUSH2 0x1CD5 DUP3 DUP6 PUSH2 0x19F6 JUMP JUMPDEST PUSH1 0x2 DUP3 ADD SWAP2 POP PUSH2 0x1CE5 DUP3 DUP5 PUSH2 0x1A13 JUMP JUMPDEST SWAP6 SWAP5 POP POP POP POP POP JUMP JUMPDEST PUSH1 0x0 PUSH2 0x1CF9 DUP3 PUSH2 0x1BC9 JUMP JUMPDEST SWAP2 POP PUSH2 0x1D05 DUP3 DUP6 PUSH2 0x19DC JUMP JUMPDEST PUSH1 0x14 DUP3 ADD SWAP2 POP PUSH2 0x1D15 DUP3 DUP5 PUSH2 0x1A07 JUMP JUMPDEST PUSH1 0x20 DUP3 ADD SWAP2 POP PUSH2 0x18DB DUP3 PUSH2 0x1B47 JUMP JUMPDEST PUSH1 0x20 DUP2 ADD PUSH2 0xA2E DUP3 DUP5 PUSH2 0x19D3 JUMP JUMPDEST PUSH1 0x60 DUP2 ADD PUSH2 0x1D40 DUP3 DUP7 PUSH2 0x19C4 JUMP JUMPDEST PUSH2 0x1D4D PUSH1 0x20 DUP4 ADD DUP6 PUSH2 0x19D3 JUMP JUMPDEST PUSH2 0x18DB PUSH1 0x40 DUP4 ADD DUP5 PUSH2 0x1C79 JUMP JUMPDEST PUSH1 0x40 DUP2 ADD PUSH2 0x1D68 DUP3 DUP6 PUSH2 0x19C4 JUMP JUMPDEST PUSH2 0xE07 PUSH1 0x20 DUP4 ADD DUP5 PUSH2 0x1C79 JUMP JUMPDEST PUSH1 0x40 DUP2 ADD PUSH2 0x1D68 DUP3 DUP6 PUSH2 0x19D3 JUMP JUMPDEST PUSH1 0x20 DUP2 ADD PUSH2 0xA2E DUP3 DUP5 PUSH2 0x19ED JUMP JUMPDEST PUSH1 0x20 DUP2 ADD PUSH2 0xA2E DUP3 DUP5 PUSH2 0x1A42 JUMP JUMPDEST PUSH1 0x20 DUP2 ADD PUSH2 0xA2E DUP3 DUP5 PUSH2 0x1A4B JUMP JUMPDEST PUSH1 0x20 DUP1 DUP3 MSTORE DUP2 ADD PUSH2 0xE07 DUP2 DUP5 PUSH2 0x1A54 JUMP JUMPDEST PUSH1 0x20 DUP1 DUP3 MSTORE DUP2 ADD PUSH2 0xA2E DUP2 PUSH2 0x1A8C JUMP JUMPDEST PUSH1 0x20 DUP1 DUP3 MSTORE DUP2 ADD PUSH2 0xA2E DUP2 PUSH2 0x1AC5 JUMP JUMPDEST PUSH1 0x20 DUP1 DUP3 MSTORE DUP2 ADD PUSH2 0xA2E DUP2 PUSH2 0x1AFE JUMP JUMPDEST PUSH1 0x20 DUP1 DUP3 MSTORE DUP2 ADD PUSH2 0xA2E DUP2 PUSH2 0x1B80 JUMP JUMPDEST PUSH1 0x20 DUP1 DUP3 MSTORE DUP2 ADD PUSH2 0xA2E DUP2 PUSH2 0x1BEA JUMP JUMPDEST PUSH1 0x20 DUP1 DUP3 MSTORE DUP2 ADD PUSH2 0xA2E DUP2 PUSH2 0x1C2D JUMP JUMPDEST PUSH1 0x20 DUP2 ADD PUSH2 0xA2E DUP3 DUP5 PUSH2 0x1C79 JUMP JUMPDEST PUSH1 0x40 DUP2 ADD PUSH2 0x1D68 DUP3 DUP6 PUSH2 0x1C79 JUMP JUMPDEST PUSH1 0x60 DUP2 ADD PUSH2 0x1E48 DUP3 DUP7 PUSH2 0x1C79 JUMP JUMPDEST PUSH2 0x1D4D PUSH1 0x20 DUP4 ADD DUP6 PUSH2 0x1C79 JUMP JUMPDEST MLOAD SWAP1 JUMP JUMPDEST SWAP1 DUP2 MSTORE PUSH1 0x20 ADD SWAP1 JUMP JUMPDEST PUSH1 0x0 PUSH2 0xA2E DUP3 PUSH2 0x1E98 JUMP JUMPDEST ISZERO ISZERO SWAP1 JUMP JUMPDEST PUSH1 0x1 PUSH1 0x1 PUSH1 0xF0 SHL SUB NOT AND SWAP1 JUMP JUMPDEST SWAP1 JUMP JUMPDEST DUP1 PUSH2 0x343 DUP2 PUSH2 0x1F1B JUMP JUMPDEST PUSH1 0x1 PUSH1 0x1 PUSH1 0x70 SHL SUB AND SWAP1 JUMP JUMPDEST PUSH1 0x1 PUSH1 0x1 PUSH1 0xA0 SHL SUB AND SWAP1 JUMP JUMPDEST PUSH4 0xFFFFFFFF AND SWAP1 JUMP JUMPDEST PUSH1 0x0 PUSH2 0xA2E DUP3 JUMPDEST PUSH1 0x0 PUSH2 0xA2E DUP3 PUSH2 0x1E62 JUMP JUMPDEST PUSH1 0x0 PUSH2 0xA2E DUP3 PUSH2 0x1E82 JUMP JUMPDEST PUSH1 0x0 JUMPDEST DUP4 DUP2 LT ISZERO PUSH2 0x1EE5 JUMPI DUP2 DUP2 ADD MLOAD DUP4 DUP3 ADD MSTORE PUSH1 0x20 ADD PUSH2 0x1ECD JUMP JUMPDEST DUP4 DUP2 GT ISZERO PUSH2 0x1EF4 JUMPI PUSH1 0x0 DUP5 DUP5 ADD MSTORE JUMPDEST POP POP POP POP JUMP JUMPDEST PUSH1 0x0 PUSH2 0xA2E DUP3 PUSH1 0x0 PUSH2 0xA2E DUP3 PUSH2 0x1F15 JUMP JUMPDEST PUSH1 0x1F ADD PUSH1 0x1F NOT AND SWAP1 JUMP JUMPDEST PUSH1 0x60 SHL SWAP1 JUMP JUMPDEST PUSH1 0x3 DUP2 LT PUSH2 0x1F25 JUMPI INVALID JUMPDEST POP JUMP JUMPDEST PUSH2 0x1F31 DUP2 PUSH2 0x1E62 JUMP JUMPDEST DUP2 EQ PUSH2 0x1F25 JUMPI PUSH1 0x0 DUP1 REVERT JUMPDEST PUSH2 0x1F31 DUP2 PUSH2 0x1E6D JUMP JUMPDEST PUSH2 0x1F31 DUP2 PUSH2 0x1E8C JUMP JUMPDEST PUSH2 0x1F31 DUP2 PUSH2 0x1E7F JUMP JUMPDEST PUSH2 0x1F31 DUP2 PUSH2 0x1EA4 JUMP INVALID POP PUSH16 0x6F6C3A20696E73756666696369656E74 KECCAK256 PUSH4 0x6C61696D PUSH2 0x626C PUSH6 0x2062616C616E PUSH4 0x65506F6F PUSH13 0x3A20696E73756666696369656E PUSH21 0x207068616E746F6D2062616C616E6365506F6F6C3A KECCAK256 PUSH10 0x6E73756666696369656E PUSH21 0x207374616765642062616C616E6365506F6F6C3A20 PUSH10 0x6E73756666696369656E PUSH21 0x20626F6E6465642062616C616E6365A365627A7A72 BALANCE PC KECCAK256 PUSH11 0x5D92EBE4E2642578CEBAF0 0xEB 0xB3 PUSH6 0x44B81306FA32 0xC6 0xC4 PUSH11 0x1E1ED4E851543F416C6578 PUSH17 0x6572696D656E74616CF564736F6C634300 SDIV GT STOP BLOCKHASH "
		},
		"gasEstimates": {
			"creation": {
				"codeDepositCost": "1647000",
				"executionCost": "infinite",
				"totalCost": "infinite"
			},
			"external": {
				"balanceOfBonded(address)": "infinite",
				"balanceOfClaimable(address)": "infinite",
				"balanceOfPhantom(address)": "infinite",
				"balanceOfRewarded(address)": "infinite",
				"balanceOfStaged(address)": "infinite",
				"bond(uint256)": "infinite",
				"busd()": "infinite",
				"cakelp()": "infinite",
				"claim(uint256)": "infinite",
				"dao()": "infinite",
				"deposit(uint256)": "infinite",
				"dollar()": "infinite",
				"emergencyPause()": "infinite",
				"emergencyWithdraw(address,uint256)": "infinite",
				"fluidUntil(address)": "infinite",
				"paused()": "1178",
				"provide(uint256)": "infinite",
				"statusOf(address)": "infinite",
				"totalBonded()": "1188",
				"totalClaimable()": "1210",
				"totalPhantom()": "1209",
				"totalRewarded()": "infinite",
				"totalStaged()": "1187",
				"unbond(uint256)": "infinite",
				"withdraw(uint256)": "infinite"
			},
			"internal": {
				"balanceCheck()": "infinite"
			}
		},
		"methodIdentifiers": {
			"balanceOfBonded(address)": "825ad607",
			"balanceOfClaimable(address)": "1667eb17",
			"balanceOfPhantom(address)": "29f32ed4",
			"balanceOfRewarded(address)": "c0d7a94f",
			"balanceOfStaged(address)": "86cf9f14",
			"bond(uint256)": "9940686e",
			"busd()": "3ca5b234",
			"cakelp()": "4315ee56",
			"claim(uint256)": "379607f5",
			"dao()": "4162169f",
			"deposit(uint256)": "b6b55f25",
			"dollar()": "51adeb57",
			"emergencyPause()": "51858e27",
			"emergencyWithdraw(address,uint256)": "95ccea67",
			"fluidUntil(address)": "51bf21d8",
			"paused()": "5c975abb",
			"provide(uint256)": "2e2ebe06",
			"statusOf(address)": "97a5d5b5",
			"totalBonded()": "44d96e95",
			"totalClaimable()": "4838ed19",
			"totalPhantom()": "e0cf7285",
			"totalRewarded()": "aed29d07",
			"totalStaged()": "cf023779",
			"unbond(uint256)": "27de9e32",
			"withdraw(uint256)": "2e1a7d4d"
		}
	},
	"abi": [
		{
			"inputs": [
				{
					"internalType": "address",
					"name": "dollar",
					"type": "address"
				},
				{
					"internalType": "address",
					"name": "cakelp",
					"type": "address"
				}
			],
			"payable": false,
			"stateMutability": "nonpayable",
			"type": "constructor"
		},
		{
			"anonymous": false,
			"inputs": [
				{
					"indexed": true,
					"internalType": "address",
					"name": "account",
					"type": "address"
				},
				{
					"indexed": false,
					"internalType": "uint256",
					"name": "start",
					"type": "uint256"
				},
				{
					"indexed": false,
					"internalType": "uint256",
					"name": "value",
					"type": "uint256"
				}
			],
			"name": "Bond",
			"type": "event"
		},
		{
			"anonymous": false,
			"inputs": [
				{
					"indexed": true,
					"internalType": "address",
					"name": "account",
					"type": "address"
				},
				{
					"indexed": false,
					"internalType": "uint256",
					"name": "value",
					"type": "uint256"
				}
			],
			"name": "Claim",
			"type": "event"
		},
		{
			"anonymous": false,
			"inputs": [
				{
					"indexed": true,
					"internalType": "address",
					"name": "account",
					"type": "address"
				},
				{
					"indexed": false,
					"internalType": "uint256",
					"name": "value",
					"type": "uint256"
				}
			],
			"name": "Deposit",
			"type": "event"
		},
		{
			"anonymous": false,
			"inputs": [
				{
					"indexed": true,
					"internalType": "address",
					"name": "account",
					"type": "address"
				},
				{
					"indexed": false,
					"internalType": "uint256",
					"name": "value",
					"type": "uint256"
				},
				{
					"indexed": false,
					"internalType": "uint256",
					"name": "lessBusd",
					"type": "uint256"
				},
				{
					"indexed": false,
					"internalType": "uint256",
					"name": "newCakelp",
					"type": "uint256"
				}
			],
			"name": "Provide",
			"type": "event"
		},
		{
			"anonymous": false,
			"inputs": [
				{
					"indexed": true,
					"internalType": "address",
					"name": "account",
					"type": "address"
				},
				{
					"indexed": false,
					"internalType": "uint256",
					"name": "start",
					"type": "uint256"
				},
				{
					"indexed": false,
					"internalType": "uint256",
					"name": "value",
					"type": "uint256"
				},
				{
					"indexed": false,
					"internalType": "uint256",
					"name": "newClaimable",
					"type": "uint256"
				}
			],
			"name": "Unbond",
			"type": "event"
		},
		{
			"anonymous": false,
			"inputs": [
				{
					"indexed": true,
					"internalType": "address",
					"name": "account",
					"type": "address"
				},
				{
					"indexed": false,
					"internalType": "uint256",
					"name": "value",
					"type": "uint256"
				}
			],
			"name": "Withdraw",
			"type": "event"
		},
		{
			"constant": true,
			"inputs": [
				{
					"internalType": "address",
					"name": "account",
					"type": "address"
				}
			],
			"name": "balanceOfBonded",
			"outputs": [
				{
					"internalType": "uint256",
					"name": "",
					"type": "uint256"
				}
			],
			"payable": false,
			"stateMutability": "view",
			"type": "function"
		},
		{
			"constant": true,
			"inputs": [
				{
					"internalType": "address",
					"name": "account",
					"type": "address"
				}
			],
			"name": "balanceOfClaimable",
			"outputs": [
				{
					"internalType": "uint256",
					"name": "",
					"type": "uint256"
				}
			],
			"payable": false,
			"stateMutability": "view",
			"type": "function"
		},
		{
			"constant": true,
			"inputs": [
				{
					"internalType": "address",
					"name": "account",
					"type": "address"
				}
			],
			"name": "balanceOfPhantom",
			"outputs": [
				{
					"internalType": "uint256",
					"name": "",
					"type": "uint256"
				}
			],
			"payable": false,
			"stateMutability": "view",
			"type": "function"
		},
		{
			"constant": true,
			"inputs": [
				{
					"internalType": "address",
					"name": "account",
					"type": "address"
				}
			],
			"name": "balanceOfRewarded",
			"outputs": [
				{
					"internalType": "uint256",
					"name": "",
					"type": "uint256"
				}
			],
			"payable": false,
			"stateMutability": "view",
			"type": "function"
		},
		{
			"constant": true,
			"inputs": [
				{
					"internalType": "address",
					"name": "account",
					"type": "address"
				}
			],
			"name": "balanceOfStaged",
			"outputs": [
				{
					"internalType": "uint256",
					"name": "",
					"type": "uint256"
				}
			],
			"payable": false,
			"stateMutability": "view",
			"type": "function"
		},
		{
			"constant": false,
			"inputs": [
				{
					"internalType": "uint256",
					"name": "value",
					"type": "uint256"
				}
			],
			"name": "bond",
			"outputs": [],
			"payable": false,
			"stateMutability": "nonpayable",
			"type": "function"
		},
		{
			"constant": true,
			"inputs": [],
			"name": "busd",
			"outputs": [
				{
					"internalType": "address",
					"name": "",
					"type": "address"
				}
			],
			"payable": false,
			"stateMutability": "view",
			"type": "function"
		},
		{
			"constant": true,
			"inputs": [],
			"name": "cakelp",
			"outputs": [
				{
					"internalType": "contract IERC20",
					"name": "",
					"type": "address"
				}
			],
			"payable": false,
			"stateMutability": "view",
			"type": "function"
		},
		{
			"constant": false,
			"inputs": [
				{
					"internalType": "uint256",
					"name": "value",
					"type": "uint256"
				}
			],
			"name": "claim",
			"outputs": [],
			"payable": false,
			"stateMutability": "nonpayable",
			"type": "function"
		},
		{
			"constant": true,
			"inputs": [],
			"name": "dao",
			"outputs": [
				{
					"internalType": "contract IDAO",
					"name": "",
					"type": "address"
				}
			],
			"payable": false,
			"stateMutability": "view",
			"type": "function"
		},
		{
			"constant": false,
			"inputs": [
				{
					"internalType": "uint256",
					"name": "value",
					"type": "uint256"
				}
			],
			"name": "deposit",
			"outputs": [],
			"payable": false,
			"stateMutability": "nonpayable",
			"type": "function"
		},
		{
			"constant": true,
			"inputs": [],
			"name": "dollar",
			"outputs": [
				{
					"internalType": "contract IDollar",
					"name": "",
					"type": "address"
				}
			],
			"payable": false,
			"stateMutability": "view",
			"type": "function"
		},
		{
			"constant": false,
			"inputs": [],
			"name": "emergencyPause",
			"outputs": [],
			"payable": false,
			"stateMutability": "nonpayable",
			"type": "function"
		},
		{
			"constant": false,
			"inputs": [
				{
					"internalType": "address",
					"name": "token",
					"type": "address"
				},
				{
					"internalType": "uint256",
					"name": "value",
					"type": "uint256"
				}
			],
			"name": "emergencyWithdraw",
			"outputs": [],
			"payable": false,
			"stateMutability": "nonpayable",
			"type": "function"
		},
		{
			"constant": true,
			"inputs": [
				{
					"internalType": "address",
					"name": "account",
					"type": "address"
				}
			],
			"name": "fluidUntil",
			"outputs": [
				{
					"internalType": "uint256",
					"name": "",
					"type": "uint256"
				}
			],
			"payable": false,
			"stateMutability": "view",
			"type": "function"
		},
		{
			"constant": true,
			"inputs": [],
			"name": "paused",
			"outputs": [
				{
					"internalType": "bool",
					"name": "",
					"type": "bool"
				}
			],
			"payable": false,
			"stateMutability": "view",
			"type": "function"
		},
		{
			"constant": false,
			"inputs": [
				{
					"internalType": "uint256",
					"name": "value",
					"type": "uint256"
				}
			],
			"name": "provide",
			"outputs": [],
			"payable": false,
			"stateMutability": "nonpayable",
			"type": "function"
		},
		{
			"constant": true,
			"inputs": [
				{
					"internalType": "address",
					"name": "account",
					"type": "address"
				}
			],
			"name": "statusOf",
			"outputs": [
				{
					"internalType": "enum PoolAccount.Status",
					"name": "",
					"type": "uint8"
				}
			],
			"payable": false,
			"stateMutability": "view",
			"type": "function"
		},
		{
			"constant": true,
			"inputs": [],
			"name": "totalBonded",
			"outputs": [
				{
					"internalType": "uint256",
					"name": "",
					"type": "uint256"
				}
			],
			"payable": false,
			"stateMutability": "view",
			"type": "function"
		},
		{
			"constant": true,
			"inputs": [],
			"name": "totalClaimable",
			"outputs": [
				{
					"internalType": "uint256",
					"name": "",
					"type": "uint256"
				}
			],
			"payable": false,
			"stateMutability": "view",
			"type": "function"
		},
		{
			"constant": true,
			"inputs": [],
			"name": "totalPhantom",
			"outputs": [
				{
					"internalType": "uint256",
					"name": "",
					"type": "uint256"
				}
			],
			"payable": false,
			"stateMutability": "view",
			"type": "function"
		},
		{
			"constant": true,
			"inputs": [],
			"name": "totalRewarded",
			"outputs": [
				{
					"internalType": "uint256",
					"name": "",
					"type": "uint256"
				}
			],
			"payable": false,
			"stateMutability": "view",
			"type": "function"
		},
		{
			"constant": true,
			"inputs": [],
			"name": "totalStaged",
			"outputs": [
				{
					"internalType": "uint256",
					"name": "",
					"type": "uint256"
				}
			],
			"payable": false,
			"stateMutability": "view",
			"type": "function"
		},
		{
			"constant": false,
			"inputs": [
				{
					"internalType": "uint256",
					"name": "value",
					"type": "uint256"
				}
			],
			"name": "unbond",
			"outputs": [],
			"payable": false,
			"stateMutability": "nonpayable",
			"type": "function"
		},
		{
			"constant": false,
			"inputs": [
				{
					"internalType": "uint256",
					"name": "value",
					"type": "uint256"
				}
			],
			"name": "withdraw",
			"outputs": [],
			"payable": false,
			"stateMutability": "nonpayable",
			"type": "function"
		}
	]
}