{
	"data": {
		"bytecode": {
			"linkReferences": {},
			"object": "608060405234801561001057600080fd5b50610f18806100206000396000f3fe608060405234801561001057600080fd5b50600436106102485760003560e01c806375d5024b1161013b578063a6c409f1116100b8578063d60b347f1161007c578063d60b347f14610492578063dd62ed3e146104a5578063f1b7cf49146104b3578063fc7b9c18146104c6578063ffbe3b73146104ce57610248565b8063a6c409f11461045c578063a9059cbb1461026b578063bc7513e214610464578063c9aff70c14610477578063cf0237791461048a57610248565b806395d89b41116100ff57806395d89b411461041357806397a5d5b51461041b5780639a649edc1461042e5780639f6e1b2614610436578063a50cd8e71461044957610248565b806375d5024b146103ca5780637dc0d1d0146103dd578063825ad607146103e557806386cf9f14146103f8578063900cf0cf1461040b57610248565b80633a3e6c81116101c957806351adeb571161018d57806351adeb57146103745780635c60da1b1461038957806364668022146103915780636a39e328146103a457806370a08231146103b757610248565b80633a3e6c811461031e5780633fbba9a61461033157806344d96e95146103515780634c736099146103595780635053e4611461036c57610248565b806318160ddd1161021057806318160ddd146102d35780631edbcf6c146102db57806323b872dd146102e3578063313ce567146102f6578063353a420c1461030b57610248565b806306fdde031461024d578063095ea7b31461026b57806310e95b6c1461028b57806315e14bf6146102ab57806316f0115b146102be575b600080fd5b6102556104e1565b6040516102629190610dd2565b60405180910390f35b61027e610279366004610c1f565b610518565b6040516102629190610da8565b61029e610299366004610c4f565b610521565b6040516102629190610e03565b61029e6102b9366004610b72565b610539565b6102c6610557565b6040516102629190610d9a565b61029e610566565b61029e61056c565b61027e6102f1366004610bd2565b610572565b6102fe61057b565b6040516102629190610e11565b61029e610319366004610b72565b610580565b61027e61032c366004610b72565b61059e565b61034461033f366004610b98565b6105bb565b6040516102629190610dc4565b61029e6105ee565b61029e610367366004610c8b565b6105f4565b61029e610624565b61037c610647565b6040516102629190610db6565b6102c6610656565b61029e61039f366004610b72565b61067b565b61029e6103b2366004610c4f565b610699565b61029e6103c5366004610b72565b6106ae565b61027e6103d8366004610c4f565b6106cc565b61037c6106df565b61029e6103f3366004610b72565b6106ee565b61029e610406366004610b72565b610741565b61029e61075c565b610255610762565b610344610429366004610b72565b610781565b61029e6107e6565b61029e610444366004610b98565b6107ec565b61029e610457366004610b72565b61081b565b61029e61083e565b61029e610472366004610c1f565b6108d4565b61029e610485366004610c4f565b610918565b61029e61092d565b61027e6104a0366004610b72565b610933565b61029e610279366004610b98565b61029e6104c1366004610b72565b610954565b61029e61096f565b61029e6104dc366004610c4f565b610975565b60408051808201909152601e81527f42696e616e6365204167696c652053657420446f6c6c6172205374616b650000602082015290565b60005b92915050565b6000818152600d60205260409020600201545b919050565b6001600160a01b03166000908152600e602052604090206001015490565b600b546001600160a01b031690565b60035490565b60065490565b60009392505050565b601290565b6001600160a01b03166000908152600e602052604090206003015490565b6001600160a01b03166000908152600e6020526040902054151590565b6001600160a01b038082166000908152600e60209081526040808320938616835260049093019052205460ff1692915050565b60045490565b6000828152600d6020526040812060030180548390811061061157fe5b9060005260206000200154905092915050565b600061062e610b30565b610636610987565b9050610641816109b6565b91505090565b6009546001600160a01b031690565b7f360894a13ba1a3210667c828492db98dca3e2076cc3735a920a3ca505d382bbc5490565b6001600160a01b03166000908152600e602052604090206002015490565b6000908152600d602052604090206003015490565b6001600160a01b03166000908152600c602052604090206001015490565b60006106d66109d8565b90911115919050565b600a546001600160a01b031690565b6000806106f9610566565b90508061070a576000915050610534565b61073a8161072e61071a866106ae565b6107226105ee565b9063ffffffff6109dd16565b9063ffffffff610a2016565b9392505050565b6001600160a01b03166000908152600c602052604090205490565b60025490565b604080518082019091526005815264424153445360d81b602082015290565b600061078b61075c565b6001600160a01b0383166000908152600c602052604090206005015411156107b557506002610534565b6001600160a01b0382166000908152600c60205260409020600401546107d961075c565b101561051857600161051b565b60085490565b6001600160a01b039182166000908152600c602090815260408083209390941682526003909201909152205490565b600061051b61082983610580565b6108328461067b565b9063ffffffff610a6216565b60006108cf61084b61096f565b610853610647565b6001600160a01b03166318160ddd6040518163ffffffff1660e01b815260040160206040518083038186803b15801561088b57600080fd5b505afa15801561089f573d6000803e3d6000fd5b505050506040513d601f19601f820116820180604052506108c39190810190610c6d565b9063ffffffff610a8716565b905090565b60006108df82610918565b6108eb5750600061051b565b506001600160a01b03919091166000908152600c6020908152604080832093835260029093019052205490565b6000908152600d602052604090206001015490565b60055490565b6001600160a01b03166000908152600e602052604090206005015460ff1690565b6001600160a01b03166000908152600e602052604090205490565b60075490565b6000908152600d602052604090205490565b61098f610b30565b604051806060016040528060008152602001635fbef0008152602001611c20815250905090565b600061051b8260000151610832846040015161072e86602001516108c3610ac9565b609690565b6000826109ec5750600061051b565b828202828482816109f957fe5b041461073a5760405162461bcd60e51b8152600401610a1790610df3565b60405180910390fd5b600061073a83836040518060400160405280601a81526020017f536166654d6174683a206469766973696f6e206279207a65726f000000000000815250610acd565b60008282018381101561073a5760405162461bcd60e51b8152600401610a1790610de3565b600061073a83836040518060400160405280601e81526020017f536166654d6174683a207375627472616374696f6e206f766572666c6f770000815250610b04565b4290565b60008183610aee5760405162461bcd60e51b8152600401610a179190610dd2565b506000838581610afa57fe5b0495945050505050565b60008184841115610b285760405162461bcd60e51b8152600401610a179190610dd2565b505050900390565b60405180606001604052806000815260200160008152602001600081525090565b803561051b81610eb8565b803561051b81610ecc565b805161051b81610ecc565b600060208284031215610b8457600080fd5b6000610b908484610b51565b949350505050565b60008060408385031215610bab57600080fd5b6000610bb78585610b51565b9250506020610bc885828601610b51565b9150509250929050565b600080600060608486031215610be757600080fd5b6000610bf38686610b51565b9350506020610c0486828701610b51565b9250506040610c1586828701610b5c565b9150509250925092565b60008060408385031215610c3257600080fd5b6000610c3e8585610b51565b9250506020610bc885828601610b5c565b600060208284031215610c6157600080fd5b6000610b908484610b5c565b600060208284031215610c7f57600080fd5b6000610b908484610b67565b60008060408385031215610c9e57600080fd5b6000610c3e8585610b5c565b610cb381610e2c565b82525050565b610cb381610e37565b610cb381610e5b565b610cb381610e66565b6000610cdf82610e1f565b610ce98185610e23565b9350610cf9818560208601610e71565b610d0281610ea1565b9093019392505050565b6000610d19601b83610e23565b7f536166654d6174683a206164646974696f6e206f766572666c6f770000000000815260200192915050565b6000610d52602183610e23565b7f536166654d6174683a206d756c7469706c69636174696f6e206f766572666c6f8152607760f81b602082015260400192915050565b610cb381610e52565b610cb381610e55565b6020810161051b8284610caa565b6020810161051b8284610cb9565b6020810161051b8284610cc2565b6020810161051b8284610ccb565b6020808252810161073a8184610cd4565b6020808252810161051b81610d0c565b6020808252810161051b81610d45565b6020810161051b8284610d88565b6020810161051b8284610d91565b5190565b90815260200190565b600061051b82610e46565b151590565b8061053481610eab565b6001600160a01b031690565b90565b60ff1690565b600061051b82610e2c565b600061051b82610e3c565b60005b83811015610e8c578181015183820152602001610e74565b83811115610e9b576000848401525b50505050565b601f01601f191690565b60038110610eb557fe5b50565b610ec181610e2c565b8114610eb557600080fd5b610ec181610e5256fea365627a7a72315820f087d61687fc7d36b692aa9246ca90dbfca22b63ca8204b3c8b73c17c744eb276c6578706572696d656e74616cf564736f6c63430005110040",
			"opcodes": "PUSH1 0x80 PUSH1 0x40 MSTORE CALLVALUE DUP1 ISZERO PUSH2 0x10 JUMPI PUSH1 0x0 DUP1 REVERT JUMPDEST POP PUSH2 0xF18 DUP1 PUSH2 0x20 PUSH1 0x0 CODECOPY PUSH1 0x0 RETURN INVALID PUSH1 0x80 PUSH1 0x40 MSTORE CALLVALUE DUP1 ISZERO PUSH2 0x10 JUMPI PUSH1 0x0 DUP1 REVERT JUMPDEST POP PUSH1 0x4 CALLDATASIZE LT PUSH2 0x248 JUMPI PUSH1 0x0 CALLDATALOAD PUSH1 0xE0 SHR DUP1 PUSH4 0x75D5024B GT PUSH2 0x13B JUMPI DUP1 PUSH4 0xA6C409F1 GT PUSH2 0xB8 JUMPI DUP1 PUSH4 0xD60B347F GT PUSH2 0x7C JUMPI DUP1 PUSH4 0xD60B347F EQ PUSH2 0x492 JUMPI DUP1 PUSH4 0xDD62ED3E EQ PUSH2 0x4A5 JUMPI DUP1 PUSH4 0xF1B7CF49 EQ PUSH2 0x4B3 JUMPI DUP1 PUSH4 0xFC7B9C18 EQ PUSH2 0x4C6 JUMPI DUP1 PUSH4 0xFFBE3B73 EQ PUSH2 0x4CE JUMPI PUSH2 0x248 JUMP JUMPDEST DUP1 PUSH4 0xA6C409F1 EQ PUSH2 0x45C JUMPI DUP1 PUSH4 0xA9059CBB EQ PUSH2 0x26B JUMPI DUP1 PUSH4 0xBC7513E2 EQ PUSH2 0x464 JUMPI DUP1 PUSH4 0xC9AFF70C EQ PUSH2 0x477 JUMPI DUP1 PUSH4 0xCF023779 EQ PUSH2 0x48A JUMPI PUSH2 0x248 JUMP JUMPDEST DUP1 PUSH4 0x95D89B41 GT PUSH2 0xFF JUMPI DUP1 PUSH4 0x95D89B41 EQ PUSH2 0x413 JUMPI DUP1 PUSH4 0x97A5D5B5 EQ PUSH2 0x41B JUMPI DUP1 PUSH4 0x9A649EDC EQ PUSH2 0x42E JUMPI DUP1 PUSH4 0x9F6E1B26 EQ PUSH2 0x436 JUMPI DUP1 PUSH4 0xA50CD8E7 EQ PUSH2 0x449 JUMPI PUSH2 0x248 JUMP JUMPDEST DUP1 PUSH4 0x75D5024B EQ PUSH2 0x3CA JUMPI DUP1 PUSH4 0x7DC0D1D0 EQ PUSH2 0x3DD JUMPI DUP1 PUSH4 0x825AD607 EQ PUSH2 0x3E5 JUMPI DUP1 PUSH4 0x86CF9F14 EQ PUSH2 0x3F8 JUMPI DUP1 PUSH4 0x900CF0CF EQ PUSH2 0x40B JUMPI PUSH2 0x248 JUMP JUMPDEST DUP1 PUSH4 0x3A3E6C81 GT PUSH2 0x1C9 JUMPI DUP1 PUSH4 0x51ADEB57 GT PUSH2 0x18D JUMPI DUP1 PUSH4 0x51ADEB57 EQ PUSH2 0x374 JUMPI DUP1 PUSH4 0x5C60DA1B EQ PUSH2 0x389 JUMPI DUP1 PUSH4 0x64668022 EQ PUSH2 0x391 JUMPI DUP1 PUSH4 0x6A39E328 EQ PUSH2 0x3A4 JUMPI DUP1 PUSH4 0x70A08231 EQ PUSH2 0x3B7 JUMPI PUSH2 0x248 JUMP JUMPDEST DUP1 PUSH4 0x3A3E6C81 EQ PUSH2 0x31E JUMPI DUP1 PUSH4 0x3FBBA9A6 EQ PUSH2 0x331 JUMPI DUP1 PUSH4 0x44D96E95 EQ PUSH2 0x351 JUMPI DUP1 PUSH4 0x4C736099 EQ PUSH2 0x359 JUMPI DUP1 PUSH4 0x5053E461 EQ PUSH2 0x36C JUMPI PUSH2 0x248 JUMP JUMPDEST DUP1 PUSH4 0x18160DDD GT PUSH2 0x210 JUMPI DUP1 PUSH4 0x18160DDD EQ PUSH2 0x2D3 JUMPI DUP1 PUSH4 0x1EDBCF6C EQ PUSH2 0x2DB JUMPI DUP1 PUSH4 0x23B872DD EQ PUSH2 0x2E3 JUMPI DUP1 PUSH4 0x313CE567 EQ PUSH2 0x2F6 JUMPI DUP1 PUSH4 0x353A420C EQ PUSH2 0x30B JUMPI PUSH2 0x248 JUMP JUMPDEST DUP1 PUSH4 0x6FDDE03 EQ PUSH2 0x24D JUMPI DUP1 PUSH4 0x95EA7B3 EQ PUSH2 0x26B JUMPI DUP1 PUSH4 0x10E95B6C EQ PUSH2 0x28B JUMPI DUP1 PUSH4 0x15E14BF6 EQ PUSH2 0x2AB JUMPI DUP1 PUSH4 0x16F0115B EQ PUSH2 0x2BE JUMPI JUMPDEST PUSH1 0x0 DUP1 REVERT JUMPDEST PUSH2 0x255 PUSH2 0x4E1 JUMP JUMPDEST PUSH1 0x40 MLOAD PUSH2 0x262 SWAP2 SWAP1 PUSH2 0xDD2 JUMP JUMPDEST PUSH1 0x40 MLOAD DUP1 SWAP2 SUB SWAP1 RETURN JUMPDEST PUSH2 0x27E PUSH2 0x279 CALLDATASIZE PUSH1 0x4 PUSH2 0xC1F JUMP JUMPDEST PUSH2 0x518 JUMP JUMPDEST PUSH1 0x40 MLOAD PUSH2 0x262 SWAP2 SWAP1 PUSH2 0xDA8 JUMP JUMPDEST PUSH2 0x29E PUSH2 0x299 CALLDATASIZE PUSH1 0x4 PUSH2 0xC4F JUMP JUMPDEST PUSH2 0x521 JUMP JUMPDEST PUSH1 0x40 MLOAD PUSH2 0x262 SWAP2 SWAP1 PUSH2 0xE03 JUMP JUMPDEST PUSH2 0x29E PUSH2 0x2B9 CALLDATASIZE PUSH1 0x4 PUSH2 0xB72 JUMP JUMPDEST PUSH2 0x539 JUMP JUMPDEST PUSH2 0x2C6 PUSH2 0x557 JUMP JUMPDEST PUSH1 0x40 MLOAD PUSH2 0x262 SWAP2 SWAP1 PUSH2 0xD9A JUMP JUMPDEST PUSH2 0x29E PUSH2 0x566 JUMP JUMPDEST PUSH2 0x29E PUSH2 0x56C JUMP JUMPDEST PUSH2 0x27E PUSH2 0x2F1 CALLDATASIZE PUSH1 0x4 PUSH2 0xBD2 JUMP JUMPDEST PUSH2 0x572 JUMP JUMPDEST PUSH2 0x2FE PUSH2 0x57B JUMP JUMPDEST PUSH1 0x40 MLOAD PUSH2 0x262 SWAP2 SWAP1 PUSH2 0xE11 JUMP JUMPDEST PUSH2 0x29E PUSH2 0x319 CALLDATASIZE PUSH1 0x4 PUSH2 0xB72 JUMP JUMPDEST PUSH2 0x580 JUMP JUMPDEST PUSH2 0x27E PUSH2 0x32C CALLDATASIZE PUSH1 0x4 PUSH2 0xB72 JUMP JUMPDEST PUSH2 0x59E JUMP JUMPDEST PUSH2 0x344 PUSH2 0x33F CALLDATASIZE PUSH1 0x4 PUSH2 0xB98 JUMP JUMPDEST PUSH2 0x5BB JUMP JUMPDEST PUSH1 0x40 MLOAD PUSH2 0x262 SWAP2 SWAP1 PUSH2 0xDC4 JUMP JUMPDEST PUSH2 0x29E PUSH2 0x5EE JUMP JUMPDEST PUSH2 0x29E PUSH2 0x367 CALLDATASIZE PUSH1 0x4 PUSH2 0xC8B JUMP JUMPDEST PUSH2 0x5F4 JUMP JUMPDEST PUSH2 0x29E PUSH2 0x624 JUMP JUMPDEST PUSH2 0x37C PUSH2 0x647 JUMP JUMPDEST PUSH1 0x40 MLOAD PUSH2 0x262 SWAP2 SWAP1 PUSH2 0xDB6 JUMP JUMPDEST PUSH2 0x2C6 PUSH2 0x656 JUMP JUMPDEST PUSH2 0x29E PUSH2 0x39F CALLDATASIZE PUSH1 0x4 PUSH2 0xB72 JUMP JUMPDEST PUSH2 0x67B JUMP JUMPDEST PUSH2 0x29E PUSH2 0x3B2 CALLDATASIZE PUSH1 0x4 PUSH2 0xC4F JUMP JUMPDEST PUSH2 0x699 JUMP JUMPDEST PUSH2 0x29E PUSH2 0x3C5 CALLDATASIZE PUSH1 0x4 PUSH2 0xB72 JUMP JUMPDEST PUSH2 0x6AE JUMP JUMPDEST PUSH2 0x27E PUSH2 0x3D8 CALLDATASIZE PUSH1 0x4 PUSH2 0xC4F JUMP JUMPDEST PUSH2 0x6CC JUMP JUMPDEST PUSH2 0x37C PUSH2 0x6DF JUMP JUMPDEST PUSH2 0x29E PUSH2 0x3F3 CALLDATASIZE PUSH1 0x4 PUSH2 0xB72 JUMP JUMPDEST PUSH2 0x6EE JUMP JUMPDEST PUSH2 0x29E PUSH2 0x406 CALLDATASIZE PUSH1 0x4 PUSH2 0xB72 JUMP JUMPDEST PUSH2 0x741 JUMP JUMPDEST PUSH2 0x29E PUSH2 0x75C JUMP JUMPDEST PUSH2 0x255 PUSH2 0x762 JUMP JUMPDEST PUSH2 0x344 PUSH2 0x429 CALLDATASIZE PUSH1 0x4 PUSH2 0xB72 JUMP JUMPDEST PUSH2 0x781 JUMP JUMPDEST PUSH2 0x29E PUSH2 0x7E6 JUMP JUMPDEST PUSH2 0x29E PUSH2 0x444 CALLDATASIZE PUSH1 0x4 PUSH2 0xB98 JUMP JUMPDEST PUSH2 0x7EC JUMP JUMPDEST PUSH2 0x29E PUSH2 0x457 CALLDATASIZE PUSH1 0x4 PUSH2 0xB72 JUMP JUMPDEST PUSH2 0x81B JUMP JUMPDEST PUSH2 0x29E PUSH2 0x83E JUMP JUMPDEST PUSH2 0x29E PUSH2 0x472 CALLDATASIZE PUSH1 0x4 PUSH2 0xC1F JUMP JUMPDEST PUSH2 0x8D4 JUMP JUMPDEST PUSH2 0x29E PUSH2 0x485 CALLDATASIZE PUSH1 0x4 PUSH2 0xC4F JUMP JUMPDEST PUSH2 0x918 JUMP JUMPDEST PUSH2 0x29E PUSH2 0x92D JUMP JUMPDEST PUSH2 0x27E PUSH2 0x4A0 CALLDATASIZE PUSH1 0x4 PUSH2 0xB72 JUMP JUMPDEST PUSH2 0x933 JUMP JUMPDEST PUSH2 0x29E PUSH2 0x279 CALLDATASIZE PUSH1 0x4 PUSH2 0xB98 JUMP JUMPDEST PUSH2 0x29E PUSH2 0x4C1 CALLDATASIZE PUSH1 0x4 PUSH2 0xB72 JUMP JUMPDEST PUSH2 0x954 JUMP JUMPDEST PUSH2 0x29E PUSH2 0x96F JUMP JUMPDEST PUSH2 0x29E PUSH2 0x4DC CALLDATASIZE PUSH1 0x4 PUSH2 0xC4F JUMP JUMPDEST PUSH2 0x975 JUMP JUMPDEST PUSH1 0x40 DUP1 MLOAD DUP1 DUP3 ADD SWAP1 SWAP2 MSTORE PUSH1 0x1E DUP2 MSTORE PUSH32 0x42696E616E6365204167696C652053657420446F6C6C6172205374616B650000 PUSH1 0x20 DUP3 ADD MSTORE SWAP1 JUMP JUMPDEST PUSH1 0x0 JUMPDEST SWAP3 SWAP2 POP POP JUMP JUMPDEST PUSH1 0x0 DUP2 DUP2 MSTORE PUSH1 0xD PUSH1 0x20 MSTORE PUSH1 0x40 SWAP1 KECCAK256 PUSH1 0x2 ADD SLOAD JUMPDEST SWAP2 SWAP1 POP JUMP JUMPDEST PUSH1 0x1 PUSH1 0x1 PUSH1 0xA0 SHL SUB AND PUSH1 0x0 SWAP1 DUP2 MSTORE PUSH1 0xE PUSH1 0x20 MSTORE PUSH1 0x40 SWAP1 KECCAK256 PUSH1 0x1 ADD SLOAD SWAP1 JUMP JUMPDEST PUSH1 0xB SLOAD PUSH1 0x1 PUSH1 0x1 PUSH1 0xA0 SHL SUB AND SWAP1 JUMP JUMPDEST PUSH1 0x3 SLOAD SWAP1 JUMP JUMPDEST PUSH1 0x6 SLOAD SWAP1 JUMP JUMPDEST PUSH1 0x0 SWAP4 SWAP3 POP POP POP JUMP JUMPDEST PUSH1 0x12 SWAP1 JUMP JUMPDEST PUSH1 0x1 PUSH1 0x1 PUSH1 0xA0 SHL SUB AND PUSH1 0x0 SWAP1 DUP2 MSTORE PUSH1 0xE PUSH1 0x20 MSTORE PUSH1 0x40 SWAP1 KECCAK256 PUSH1 0x3 ADD SLOAD SWAP1 JUMP JUMPDEST PUSH1 0x1 PUSH1 0x1 PUSH1 0xA0 SHL SUB AND PUSH1 0x0 SWAP1 DUP2 MSTORE PUSH1 0xE PUSH1 0x20 MSTORE PUSH1 0x40 SWAP1 KECCAK256 SLOAD ISZERO ISZERO SWAP1 JUMP JUMPDEST PUSH1 0x1 PUSH1 0x1 PUSH1 0xA0 SHL SUB DUP1 DUP3 AND PUSH1 0x0 SWAP1 DUP2 MSTORE PUSH1 0xE PUSH1 0x20 SWAP1 DUP2 MSTORE PUSH1 0x40 DUP1 DUP4 KECCAK256 SWAP4 DUP7 AND DUP4 MSTORE PUSH1 0x4 SWAP1 SWAP4 ADD SWAP1 MSTORE KECCAK256 SLOAD PUSH1 0xFF AND SWAP3 SWAP2 POP POP JUMP JUMPDEST PUSH1 0x4 SLOAD SWAP1 JUMP JUMPDEST PUSH1 0x0 DUP3 DUP2 MSTORE PUSH1 0xD PUSH1 0x20 MSTORE PUSH1 0x40 DUP2 KECCAK256 PUSH1 0x3 ADD DUP1 SLOAD DUP4 SWAP1 DUP2 LT PUSH2 0x611 JUMPI INVALID JUMPDEST SWAP1 PUSH1 0x0 MSTORE PUSH1 0x20 PUSH1 0x0 KECCAK256 ADD SLOAD SWAP1 POP SWAP3 SWAP2 POP POP JUMP JUMPDEST PUSH1 0x0 PUSH2 0x62E PUSH2 0xB30 JUMP JUMPDEST PUSH2 0x636 PUSH2 0x987 JUMP JUMPDEST SWAP1 POP PUSH2 0x641 DUP2 PUSH2 0x9B6 JUMP JUMPDEST SWAP2 POP POP SWAP1 JUMP JUMPDEST PUSH1 0x9 SLOAD PUSH1 0x1 PUSH1 0x1 PUSH1 0xA0 SHL SUB AND SWAP1 JUMP JUMPDEST PUSH32 0x360894A13BA1A3210667C828492DB98DCA3E2076CC3735A920A3CA505D382BBC SLOAD SWAP1 JUMP JUMPDEST PUSH1 0x1 PUSH1 0x1 PUSH1 0xA0 SHL SUB AND PUSH1 0x0 SWAP1 DUP2 MSTORE PUSH1 0xE PUSH1 0x20 MSTORE PUSH1 0x40 SWAP1 KECCAK256 PUSH1 0x2 ADD SLOAD SWAP1 JUMP JUMPDEST PUSH1 0x0 SWAP1 DUP2 MSTORE PUSH1 0xD PUSH1 0x20 MSTORE PUSH1 0x40 SWAP1 KECCAK256 PUSH1 0x3 ADD SLOAD SWAP1 JUMP JUMPDEST PUSH1 0x1 PUSH1 0x1 PUSH1 0xA0 SHL SUB AND PUSH1 0x0 SWAP1 DUP2 MSTORE PUSH1 0xC PUSH1 0x20 MSTORE PUSH1 0x40 SWAP1 KECCAK256 PUSH1 0x1 ADD SLOAD SWAP1 JUMP JUMPDEST PUSH1 0x0 PUSH2 0x6D6 PUSH2 0x9D8 JUMP JUMPDEST SWAP1 SWAP2 GT ISZERO SWAP2 SWAP1 POP JUMP JUMPDEST PUSH1 0xA SLOAD PUSH1 0x1 PUSH1 0x1 PUSH1 0xA0 SHL SUB AND SWAP1 JUMP JUMPDEST PUSH1 0x0 DUP1 PUSH2 0x6F9 PUSH2 0x566 JUMP JUMPDEST SWAP1 POP DUP1 PUSH2 0x70A JUMPI PUSH1 0x0 SWAP2 POP POP PUSH2 0x534 JUMP JUMPDEST PUSH2 0x73A DUP2 PUSH2 0x72E PUSH2 0x71A DUP7 PUSH2 0x6AE JUMP JUMPDEST PUSH2 0x722 PUSH2 0x5EE JUMP JUMPDEST SWAP1 PUSH4 0xFFFFFFFF PUSH2 0x9DD AND JUMP JUMPDEST SWAP1 PUSH4 0xFFFFFFFF PUSH2 0xA20 AND JUMP JUMPDEST SWAP4 SWAP3 POP POP POP JUMP JUMPDEST PUSH1 0x1 PUSH1 0x1 PUSH1 0xA0 SHL SUB AND PUSH1 0x0 SWAP1 DUP2 MSTORE PUSH1 0xC PUSH1 0x20 MSTORE PUSH1 0x40 SWAP1 KECCAK256 SLOAD SWAP1 JUMP JUMPDEST PUSH1 0x2 SLOAD SWAP1 JUMP JUMPDEST PUSH1 0x40 DUP1 MLOAD DUP1 DUP3 ADD SWAP1 SWAP2 MSTORE PUSH1 0x5 DUP2 MSTORE PUSH5 0x4241534453 PUSH1 0xD8 SHL PUSH1 0x20 DUP3 ADD MSTORE SWAP1 JUMP JUMPDEST PUSH1 0x0 PUSH2 0x78B PUSH2 0x75C JUMP JUMPDEST PUSH1 0x1 PUSH1 0x1 PUSH1 0xA0 SHL SUB DUP4 AND PUSH1 0x0 SWAP1 DUP2 MSTORE PUSH1 0xC PUSH1 0x20 MSTORE PUSH1 0x40 SWAP1 KECCAK256 PUSH1 0x5 ADD SLOAD GT ISZERO PUSH2 0x7B5 JUMPI POP PUSH1 0x2 PUSH2 0x534 JUMP JUMPDEST PUSH1 0x1 PUSH1 0x1 PUSH1 0xA0 SHL SUB DUP3 AND PUSH1 0x0 SWAP1 DUP2 MSTORE PUSH1 0xC PUSH1 0x20 MSTORE PUSH1 0x40 SWAP1 KECCAK256 PUSH1 0x4 ADD SLOAD PUSH2 0x7D9 PUSH2 0x75C JUMP JUMPDEST LT ISZERO PUSH2 0x518 JUMPI PUSH1 0x1 PUSH2 0x51B JUMP JUMPDEST PUSH1 0x8 SLOAD SWAP1 JUMP JUMPDEST PUSH1 0x1 PUSH1 0x1 PUSH1 0xA0 SHL SUB SWAP2 DUP3 AND PUSH1 0x0 SWAP1 DUP2 MSTORE PUSH1 0xC PUSH1 0x20 SWAP1 DUP2 MSTORE PUSH1 0x40 DUP1 DUP4 KECCAK256 SWAP4 SWAP1 SWAP5 AND DUP3 MSTORE PUSH1 0x3 SWAP1 SWAP3 ADD SWAP1 SWAP2 MSTORE KECCAK256 SLOAD SWAP1 JUMP JUMPDEST PUSH1 0x0 PUSH2 0x51B PUSH2 0x829 DUP4 PUSH2 0x580 JUMP JUMPDEST PUSH2 0x832 DUP5 PUSH2 0x67B JUMP JUMPDEST SWAP1 PUSH4 0xFFFFFFFF PUSH2 0xA62 AND JUMP JUMPDEST PUSH1 0x0 PUSH2 0x8CF PUSH2 0x84B PUSH2 0x96F JUMP JUMPDEST PUSH2 0x853 PUSH2 0x647 JUMP JUMPDEST PUSH1 0x1 PUSH1 0x1 PUSH1 0xA0 SHL SUB AND PUSH4 0x18160DDD PUSH1 0x40 MLOAD DUP2 PUSH4 0xFFFFFFFF AND PUSH1 0xE0 SHL DUP2 MSTORE PUSH1 0x4 ADD PUSH1 0x20 PUSH1 0x40 MLOAD DUP1 DUP4 SUB DUP2 DUP7 DUP1 EXTCODESIZE ISZERO DUP1 ISZERO PUSH2 0x88B JUMPI PUSH1 0x0 DUP1 REVERT JUMPDEST POP GAS STATICCALL ISZERO DUP1 ISZERO PUSH2 0x89F JUMPI RETURNDATASIZE PUSH1 0x0 DUP1 RETURNDATACOPY RETURNDATASIZE PUSH1 0x0 REVERT JUMPDEST POP POP POP POP PUSH1 0x40 MLOAD RETURNDATASIZE PUSH1 0x1F NOT PUSH1 0x1F DUP3 ADD AND DUP3 ADD DUP1 PUSH1 0x40 MSTORE POP PUSH2 0x8C3 SWAP2 SWAP1 DUP2 ADD SWAP1 PUSH2 0xC6D JUMP JUMPDEST SWAP1 PUSH4 0xFFFFFFFF PUSH2 0xA87 AND JUMP JUMPDEST SWAP1 POP SWAP1 JUMP JUMPDEST PUSH1 0x0 PUSH2 0x8DF DUP3 PUSH2 0x918 JUMP JUMPDEST PUSH2 0x8EB JUMPI POP PUSH1 0x0 PUSH2 0x51B JUMP JUMPDEST POP PUSH1 0x1 PUSH1 0x1 PUSH1 0xA0 SHL SUB SWAP2 SWAP1 SWAP2 AND PUSH1 0x0 SWAP1 DUP2 MSTORE PUSH1 0xC PUSH1 0x20 SWAP1 DUP2 MSTORE PUSH1 0x40 DUP1 DUP4 KECCAK256 SWAP4 DUP4 MSTORE PUSH1 0x2 SWAP1 SWAP4 ADD SWAP1 MSTORE KECCAK256 SLOAD SWAP1 JUMP JUMPDEST PUSH1 0x0 SWAP1 DUP2 MSTORE PUSH1 0xD PUSH1 0x20 MSTORE PUSH1 0x40 SWAP1 KECCAK256 PUSH1 0x1 ADD SLOAD SWAP1 JUMP JUMPDEST PUSH1 0x5 SLOAD SWAP1 JUMP JUMPDEST PUSH1 0x1 PUSH1 0x1 PUSH1 0xA0 SHL SUB AND PUSH1 0x0 SWAP1 DUP2 MSTORE PUSH1 0xE PUSH1 0x20 MSTORE PUSH1 0x40 SWAP1 KECCAK256 PUSH1 0x5 ADD SLOAD PUSH1 0xFF AND SWAP1 JUMP JUMPDEST PUSH1 0x1 PUSH1 0x1 PUSH1 0xA0 SHL SUB AND PUSH1 0x0 SWAP1 DUP2 MSTORE PUSH1 0xE PUSH1 0x20 MSTORE PUSH1 0x40 SWAP1 KECCAK256 SLOAD SWAP1 JUMP JUMPDEST PUSH1 0x7 SLOAD SWAP1 JUMP JUMPDEST PUSH1 0x0 SWAP1 DUP2 MSTORE PUSH1 0xD PUSH1 0x20 MSTORE PUSH1 0x40 SWAP1 KECCAK256 SLOAD SWAP1 JUMP JUMPDEST PUSH2 0x98F PUSH2 0xB30 JUMP JUMPDEST PUSH1 0x40 MLOAD DUP1 PUSH1 0x60 ADD PUSH1 0x40 MSTORE DUP1 PUSH1 0x0 DUP2 MSTORE PUSH1 0x20 ADD PUSH4 0x5FBEF000 DUP2 MSTORE PUSH1 0x20 ADD PUSH2 0x1C20 DUP2 MSTORE POP SWAP1 POP SWAP1 JUMP JUMPDEST PUSH1 0x0 PUSH2 0x51B DUP3 PUSH1 0x0 ADD MLOAD PUSH2 0x832 DUP5 PUSH1 0x40 ADD MLOAD PUSH2 0x72E DUP7 PUSH1 0x20 ADD MLOAD PUSH2 0x8C3 PUSH2 0xAC9 JUMP JUMPDEST PUSH1 0x96 SWAP1 JUMP JUMPDEST PUSH1 0x0 DUP3 PUSH2 0x9EC JUMPI POP PUSH1 0x0 PUSH2 0x51B JUMP JUMPDEST DUP3 DUP3 MUL DUP3 DUP5 DUP3 DUP2 PUSH2 0x9F9 JUMPI INVALID JUMPDEST DIV EQ PUSH2 0x73A JUMPI PUSH1 0x40 MLOAD PUSH3 0x461BCD PUSH1 0xE5 SHL DUP2 MSTORE PUSH1 0x4 ADD PUSH2 0xA17 SWAP1 PUSH2 0xDF3 JUMP JUMPDEST PUSH1 0x40 MLOAD DUP1 SWAP2 SUB SWAP1 REVERT JUMPDEST PUSH1 0x0 PUSH2 0x73A DUP4 DUP4 PUSH1 0x40 MLOAD DUP1 PUSH1 0x40 ADD PUSH1 0x40 MSTORE DUP1 PUSH1 0x1A DUP2 MSTORE PUSH1 0x20 ADD PUSH32 0x536166654D6174683A206469766973696F6E206279207A65726F000000000000 DUP2 MSTORE POP PUSH2 0xACD JUMP JUMPDEST PUSH1 0x0 DUP3 DUP3 ADD DUP4 DUP2 LT ISZERO PUSH2 0x73A JUMPI PUSH1 0x40 MLOAD PUSH3 0x461BCD PUSH1 0xE5 SHL DUP2 MSTORE PUSH1 0x4 ADD PUSH2 0xA17 SWAP1 PUSH2 0xDE3 JUMP JUMPDEST PUSH1 0x0 PUSH2 0x73A DUP4 DUP4 PUSH1 0x40 MLOAD DUP1 PUSH1 0x40 ADD PUSH1 0x40 MSTORE DUP1 PUSH1 0x1E DUP2 MSTORE PUSH1 0x20 ADD PUSH32 0x536166654D6174683A207375627472616374696F6E206F766572666C6F770000 DUP2 MSTORE POP PUSH2 0xB04 JUMP JUMPDEST TIMESTAMP SWAP1 JUMP JUMPDEST PUSH1 0x0 DUP2 DUP4 PUSH2 0xAEE JUMPI PUSH1 0x40 MLOAD PUSH3 0x461BCD PUSH1 0xE5 SHL DUP2 MSTORE PUSH1 0x4 ADD PUSH2 0xA17 SWAP2 SWAP1 PUSH2 0xDD2 JUMP JUMPDEST POP PUSH1 0x0 DUP4 DUP6 DUP2 PUSH2 0xAFA JUMPI INVALID JUMPDEST DIV SWAP6 SWAP5 POP POP POP POP POP JUMP JUMPDEST PUSH1 0x0 DUP2 DUP5 DUP5 GT ISZERO PUSH2 0xB28 JUMPI PUSH1 0x40 MLOAD PUSH3 0x461BCD PUSH1 0xE5 SHL DUP2 MSTORE PUSH1 0x4 ADD PUSH2 0xA17 SWAP2 SWAP1 PUSH2 0xDD2 JUMP JUMPDEST POP POP POP SWAP1 SUB SWAP1 JUMP JUMPDEST PUSH1 0x40 MLOAD DUP1 PUSH1 0x60 ADD PUSH1 0x40 MSTORE DUP1 PUSH1 0x0 DUP2 MSTORE PUSH1 0x20 ADD PUSH1 0x0 DUP2 MSTORE PUSH1 0x20 ADD PUSH1 0x0 DUP2 MSTORE POP SWAP1 JUMP JUMPDEST DUP1 CALLDATALOAD PUSH2 0x51B DUP2 PUSH2 0xEB8 JUMP JUMPDEST DUP1 CALLDATALOAD PUSH2 0x51B DUP2 PUSH2 0xECC JUMP JUMPDEST DUP1 MLOAD PUSH2 0x51B DUP2 PUSH2 0xECC JUMP JUMPDEST PUSH1 0x0 PUSH1 0x20 DUP3 DUP5 SUB SLT ISZERO PUSH2 0xB84 JUMPI PUSH1 0x0 DUP1 REVERT JUMPDEST PUSH1 0x0 PUSH2 0xB90 DUP5 DUP5 PUSH2 0xB51 JUMP JUMPDEST SWAP5 SWAP4 POP POP POP POP JUMP JUMPDEST PUSH1 0x0 DUP1 PUSH1 0x40 DUP4 DUP6 SUB SLT ISZERO PUSH2 0xBAB JUMPI PUSH1 0x0 DUP1 REVERT JUMPDEST PUSH1 0x0 PUSH2 0xBB7 DUP6 DUP6 PUSH2 0xB51 JUMP JUMPDEST SWAP3 POP POP PUSH1 0x20 PUSH2 0xBC8 DUP6 DUP3 DUP7 ADD PUSH2 0xB51 JUMP JUMPDEST SWAP2 POP POP SWAP3 POP SWAP3 SWAP1 POP JUMP JUMPDEST PUSH1 0x0 DUP1 PUSH1 0x0 PUSH1 0x60 DUP5 DUP7 SUB SLT ISZERO PUSH2 0xBE7 JUMPI PUSH1 0x0 DUP1 REVERT JUMPDEST PUSH1 0x0 PUSH2 0xBF3 DUP7 DUP7 PUSH2 0xB51 JUMP JUMPDEST SWAP4 POP POP PUSH1 0x20 PUSH2 0xC04 DUP7 DUP3 DUP8 ADD PUSH2 0xB51 JUMP JUMPDEST SWAP3 POP POP PUSH1 0x40 PUSH2 0xC15 DUP7 DUP3 DUP8 ADD PUSH2 0xB5C JUMP JUMPDEST SWAP2 POP POP SWAP3 POP SWAP3 POP SWAP3 JUMP JUMPDEST PUSH1 0x0 DUP1 PUSH1 0x40 DUP4 DUP6 SUB SLT ISZERO PUSH2 0xC32 JUMPI PUSH1 0x0 DUP1 REVERT JUMPDEST PUSH1 0x0 PUSH2 0xC3E DUP6 DUP6 PUSH2 0xB51 JUMP JUMPDEST SWAP3 POP POP PUSH1 0x20 PUSH2 0xBC8 DUP6 DUP3 DUP7 ADD PUSH2 0xB5C JUMP JUMPDEST PUSH1 0x0 PUSH1 0x20 DUP3 DUP5 SUB SLT ISZERO PUSH2 0xC61 JUMPI PUSH1 0x0 DUP1 REVERT JUMPDEST PUSH1 0x0 PUSH2 0xB90 DUP5 DUP5 PUSH2 0xB5C JUMP JUMPDEST PUSH1 0x0 PUSH1 0x20 DUP3 DUP5 SUB SLT ISZERO PUSH2 0xC7F JUMPI PUSH1 0x0 DUP1 REVERT JUMPDEST PUSH1 0x0 PUSH2 0xB90 DUP5 DUP5 PUSH2 0xB67 JUMP JUMPDEST PUSH1 0x0 DUP1 PUSH1 0x40 DUP4 DUP6 SUB SLT ISZERO PUSH2 0xC9E JUMPI PUSH1 0x0 DUP1 REVERT JUMPDEST PUSH1 0x0 PUSH2 0xC3E DUP6 DUP6 PUSH2 0xB5C JUMP JUMPDEST PUSH2 0xCB3 DUP2 PUSH2 0xE2C JUMP JUMPDEST DUP3 MSTORE POP POP JUMP JUMPDEST PUSH2 0xCB3 DUP2 PUSH2 0xE37 JUMP JUMPDEST PUSH2 0xCB3 DUP2 PUSH2 0xE5B JUMP JUMPDEST PUSH2 0xCB3 DUP2 PUSH2 0xE66 JUMP JUMPDEST PUSH1 0x0 PUSH2 0xCDF DUP3 PUSH2 0xE1F JUMP JUMPDEST PUSH2 0xCE9 DUP2 DUP6 PUSH2 0xE23 JUMP JUMPDEST SWAP4 POP PUSH2 0xCF9 DUP2 DUP6 PUSH1 0x20 DUP7 ADD PUSH2 0xE71 JUMP JUMPDEST PUSH2 0xD02 DUP2 PUSH2 0xEA1 JUMP JUMPDEST SWAP1 SWAP4 ADD SWAP4 SWAP3 POP POP POP JUMP JUMPDEST PUSH1 0x0 PUSH2 0xD19 PUSH1 0x1B DUP4 PUSH2 0xE23 JUMP JUMPDEST PUSH32 0x536166654D6174683A206164646974696F6E206F766572666C6F770000000000 DUP2 MSTORE PUSH1 0x20 ADD SWAP3 SWAP2 POP POP JUMP JUMPDEST PUSH1 0x0 PUSH2 0xD52 PUSH1 0x21 DUP4 PUSH2 0xE23 JUMP JUMPDEST PUSH32 0x536166654D6174683A206D756C7469706C69636174696F6E206F766572666C6F DUP2 MSTORE PUSH1 0x77 PUSH1 0xF8 SHL PUSH1 0x20 DUP3 ADD MSTORE PUSH1 0x40 ADD SWAP3 SWAP2 POP POP JUMP JUMPDEST PUSH2 0xCB3 DUP2 PUSH2 0xE52 JUMP JUMPDEST PUSH2 0xCB3 DUP2 PUSH2 0xE55 JUMP JUMPDEST PUSH1 0x20 DUP2 ADD PUSH2 0x51B DUP3 DUP5 PUSH2 0xCAA JUMP JUMPDEST PUSH1 0x20 DUP2 ADD PUSH2 0x51B DUP3 DUP5 PUSH2 0xCB9 JUMP JUMPDEST PUSH1 0x20 DUP2 ADD PUSH2 0x51B DUP3 DUP5 PUSH2 0xCC2 JUMP JUMPDEST PUSH1 0x20 DUP2 ADD PUSH2 0x51B DUP3 DUP5 PUSH2 0xCCB JUMP JUMPDEST PUSH1 0x20 DUP1 DUP3 MSTORE DUP2 ADD PUSH2 0x73A DUP2 DUP5 PUSH2 0xCD4 JUMP JUMPDEST PUSH1 0x20 DUP1 DUP3 MSTORE DUP2 ADD PUSH2 0x51B DUP2 PUSH2 0xD0C JUMP JUMPDEST PUSH1 0x20 DUP1 DUP3 MSTORE DUP2 ADD PUSH2 0x51B DUP2 PUSH2 0xD45 JUMP JUMPDEST PUSH1 0x20 DUP2 ADD PUSH2 0x51B DUP3 DUP5 PUSH2 0xD88 JUMP JUMPDEST PUSH1 0x20 DUP2 ADD PUSH2 0x51B DUP3 DUP5 PUSH2 0xD91 JUMP JUMPDEST MLOAD SWAP1 JUMP JUMPDEST SWAP1 DUP2 MSTORE PUSH1 0x20 ADD SWAP1 JUMP JUMPDEST PUSH1 0x0 PUSH2 0x51B DUP3 PUSH2 0xE46 JUMP JUMPDEST ISZERO ISZERO SWAP1 JUMP JUMPDEST DUP1 PUSH2 0x534 DUP2 PUSH2 0xEAB JUMP JUMPDEST PUSH1 0x1 PUSH1 0x1 PUSH1 0xA0 SHL SUB AND SWAP1 JUMP JUMPDEST SWAP1 JUMP JUMPDEST PUSH1 0xFF AND SWAP1 JUMP JUMPDEST PUSH1 0x0 PUSH2 0x51B DUP3 PUSH2 0xE2C JUMP JUMPDEST PUSH1 0x0 PUSH2 0x51B DUP3 PUSH2 0xE3C JUMP JUMPDEST PUSH1 0x0 JUMPDEST DUP4 DUP2 LT ISZERO PUSH2 0xE8C JUMPI DUP2 DUP2 ADD MLOAD DUP4 DUP3 ADD MSTORE PUSH1 0x20 ADD PUSH2 0xE74 JUMP JUMPDEST DUP4 DUP2 GT ISZERO PUSH2 0xE9B JUMPI PUSH1 0x0 DUP5 DUP5 ADD MSTORE JUMPDEST POP POP POP POP JUMP JUMPDEST PUSH1 0x1F ADD PUSH1 0x1F NOT AND SWAP1 JUMP JUMPDEST PUSH1 0x3 DUP2 LT PUSH2 0xEB5 JUMPI INVALID JUMPDEST POP JUMP JUMPDEST PUSH2 0xEC1 DUP2 PUSH2 0xE2C JUMP JUMPDEST DUP2 EQ PUSH2 0xEB5 JUMPI PUSH1 0x0 DUP1 REVERT JUMPDEST PUSH2 0xEC1 DUP2 PUSH2 0xE52 JUMP INVALID LOG3 PUSH6 0x627A7A723158 KECCAK256 CREATE DUP8 0xD6 AND DUP8 0xFC PUSH30 0x36B692AA9246CA90DBFCA22B63CA8204B3C8B73C17C744EB276C65787065 PUSH19 0x696D656E74616CF564736F6C63430005110040 "
		},
		"gasEstimates": {
			"creation": {
				"codeDepositCost": "772800",
				"executionCost": "805",
				"totalCost": "773605"
			},
			"external": {
				"allowance(address,address)": "infinite",
				"allowanceCoupons(address,address)": "infinite",
				"approve(address,uint256)": "infinite",
				"approveFor(address)": "infinite",
				"balanceOf(address)": "infinite",
				"balanceOfBonded(address)": "infinite",
				"balanceOfCoupons(address,uint256)": "infinite",
				"balanceOfStaged(address)": "infinite",
				"bootstrappingAt(uint256)": "infinite",
				"couponsExpiration(uint256)": "infinite",
				"decimals()": "417",
				"dollar()": "infinite",
				"epoch()": "1233",
				"epochTime()": "infinite",
				"expiringCoupons(uint256)": "infinite",
				"expiringCouponsAtIndex(uint256,uint256)": "infinite",
				"implementation()": "infinite",
				"isInitialized(address)": "infinite",
				"isNominated(address)": "infinite",
				"name()": "infinite",
				"oracle()": "infinite",
				"outstandingCoupons(uint256)": "infinite",
				"periodFor(address)": "infinite",
				"pool()": "infinite",
				"recordedVote(address,address)": "infinite",
				"rejectFor(address)": "infinite",
				"startFor(address)": "infinite",
				"statusOf(address)": "infinite",
				"symbol()": "infinite",
				"totalBonded()": "1189",
				"totalBondedAt(uint256)": "infinite",
				"totalCoupons()": "1188",
				"totalDebt()": "1209",
				"totalNet()": "infinite",
				"totalRedeemable()": "1167",
				"totalStaged()": "1232",
				"totalSupply()": "1145",
				"transfer(address,uint256)": "infinite",
				"transferFrom(address,address,uint256)": "infinite",
				"votesFor(address)": "infinite"
			},
			"internal": {
				"createCandidate(address,uint256)": "infinite",
				"decrementAllowanceCoupons(address,address,uint256,string memory)": "infinite",
				"decrementApproveFor(address,uint256,string memory)": "infinite",
				"decrementBalanceOf(address,uint256,string memory)": "infinite",
				"decrementBalanceOfCoupons(address,uint256,uint256,string memory)": "infinite",
				"decrementBalanceOfStaged(address,uint256,string memory)": "infinite",
				"decrementRejectFor(address,uint256,string memory)": "infinite",
				"decrementTotalBonded(uint256,string memory)": "infinite",
				"decrementTotalDebt(uint256,string memory)": "infinite",
				"decrementTotalRedeemable(uint256,string memory)": "infinite",
				"eliminateOutstandingCoupons(uint256)": "infinite",
				"incrementApproveFor(address,uint256)": "infinite",
				"incrementBalanceOf(address,uint256)": "infinite",
				"incrementBalanceOfCoupons(address,uint256,uint256)": "infinite",
				"incrementBalanceOfStaged(address,uint256)": "infinite",
				"incrementEpoch()": "infinite",
				"incrementRejectFor(address,uint256)": "infinite",
				"incrementTotalBonded(uint256)": "infinite",
				"incrementTotalDebt(uint256)": "infinite",
				"incrementTotalRedeemable(uint256)": "infinite",
				"initializeCouponsExpiration(uint256,uint256)": "infinite",
				"initialized(address)": "infinite",
				"placeLock(address,address)": "infinite",
				"recordVote(address,address,enum Candidate.Vote)": "infinite",
				"setDebtToZero()": "infinite",
				"snapshotTotalBonded()": "infinite",
				"unfreeze(address)": "infinite",
				"updateAllowanceCoupons(address,address,uint256)": "infinite"
			}
		},
		"methodIdentifiers": {
			"allowance(address,address)": "dd62ed3e",
			"allowanceCoupons(address,address)": "9f6e1b26",
			"approve(address,uint256)": "095ea7b3",
			"approveFor(address)": "64668022",
			"balanceOf(address)": "70a08231",
			"balanceOfBonded(address)": "825ad607",
			"balanceOfCoupons(address,uint256)": "bc7513e2",
			"balanceOfStaged(address)": "86cf9f14",
			"bootstrappingAt(uint256)": "75d5024b",
			"couponsExpiration(uint256)": "10e95b6c",
			"decimals()": "313ce567",
			"dollar()": "51adeb57",
			"epoch()": "900cf0cf",
			"epochTime()": "5053e461",
			"expiringCoupons(uint256)": "6a39e328",
			"expiringCouponsAtIndex(uint256,uint256)": "4c736099",
			"implementation()": "5c60da1b",
			"isInitialized(address)": "d60b347f",
			"isNominated(address)": "3a3e6c81",
			"name()": "06fdde03",
			"oracle()": "7dc0d1d0",
			"outstandingCoupons(uint256)": "c9aff70c",
			"periodFor(address)": "15e14bf6",
			"pool()": "16f0115b",
			"recordedVote(address,address)": "3fbba9a6",
			"rejectFor(address)": "353a420c",
			"startFor(address)": "f1b7cf49",
			"statusOf(address)": "97a5d5b5",
			"symbol()": "95d89b41",
			"totalBonded()": "44d96e95",
			"totalBondedAt(uint256)": "ffbe3b73",
			"totalCoupons()": "9a649edc",
			"totalDebt()": "fc7b9c18",
			"totalNet()": "a6c409f1",
			"totalRedeemable()": "1edbcf6c",
			"totalStaged()": "cf023779",
			"totalSupply()": "18160ddd",
			"transfer(address,uint256)": "a9059cbb",
			"transferFrom(address,address,uint256)": "23b872dd",
			"votesFor(address)": "a50cd8e7"
		}
	},
	"abi": [
		{
			"anonymous": false,
			"inputs": [
				{
					"indexed": true,
					"internalType": "address",
					"name": "from",
					"type": "address"
				},
				{
					"indexed": true,
					"internalType": "address",
					"name": "to",
					"type": "address"
				},
				{
					"indexed": false,
					"internalType": "uint256",
					"name": "value",
					"type": "uint256"
				}
			],
			"name": "Transfer",
			"type": "event"
		},
		{
			"constant": true,
			"inputs": [
				{
					"internalType": "address",
					"name": "owner",
					"type": "address"
				},
				{
					"internalType": "address",
					"name": "spender",
					"type": "address"
				}
			],
			"name": "allowance",
			"outputs": [
				{
					"internalType": "uint256",
					"name": "",
					"type": "uint256"
				}
			],
			"payable": false,
			"stateMutability": "view",
			"type": "function"
		},
		{
			"constant": true,
			"inputs": [
				{
					"internalType": "address",
					"name": "owner",
					"type": "address"
				},
				{
					"internalType": "address",
					"name": "spender",
					"type": "address"
				}
			],
			"name": "allowanceCoupons",
			"outputs": [
				{
					"internalType": "uint256",
					"name": "",
					"type": "uint256"
				}
			],
			"payable": false,
			"stateMutability": "view",
			"type": "function"
		},
		{
			"constant": false,
			"inputs": [
				{
					"internalType": "address",
					"name": "spender",
					"type": "address"
				},
				{
					"internalType": "uint256",
					"name": "amount",
					"type": "uint256"
				}
			],
			"name": "approve",
			"outputs": [
				{
					"internalType": "bool",
					"name": "",
					"type": "bool"
				}
			],
			"payable": false,
			"stateMutability": "nonpayable",
			"type": "function"
		},
		{
			"constant": true,
			"inputs": [
				{
					"internalType": "address",
					"name": "candidate",
					"type": "address"
				}
			],
			"name": "approveFor",
			"outputs": [
				{
					"internalType": "uint256",
					"name": "",
					"type": "uint256"
				}
			],
			"payable": false,
			"stateMutability": "view",
			"type": "function"
		},
		{
			"constant": true,
			"inputs": [
				{
					"internalType": "address",
					"name": "account",
					"type": "address"
				}
			],
			"name": "balanceOf",
			"outputs": [
				{
					"internalType": "uint256",
					"name": "",
					"type": "uint256"
				}
			],
			"payable": false,
			"stateMutability": "view",
			"type": "function"
		},
		{
			"constant": true,
			"inputs": [
				{
					"internalType": "address",
					"name": "account",
					"type": "address"
				}
			],
			"name": "balanceOfBonded",
			"outputs": [
				{
					"internalType": "uint256",
					"name": "",
					"type": "uint256"
				}
			],
			"payable": false,
			"stateMutability": "view",
			"type": "function"
		},
		{
			"constant": true,
			"inputs": [
				{
					"internalType": "address",
					"name": "account",
					"type": "address"
				},
				{
					"internalType": "uint256",
					"name": "epoch",
					"type": "uint256"
				}
			],
			"name": "balanceOfCoupons",
			"outputs": [
				{
					"internalType": "uint256",
					"name": "",
					"type": "uint256"
				}
			],
			"payable": false,
			"stateMutability": "view",
			"type": "function"
		},
		{
			"constant": true,
			"inputs": [
				{
					"internalType": "address",
					"name": "account",
					"type": "address"
				}
			],
			"name": "balanceOfStaged",
			"outputs": [
				{
					"internalType": "uint256",
					"name": "",
					"type": "uint256"
				}
			],
			"payable": false,
			"stateMutability": "view",
			"type": "function"
		},
		{
			"constant": true,
			"inputs": [
				{
					"internalType": "uint256",
					"name": "epoch",
					"type": "uint256"
				}
			],
			"name": "bootstrappingAt",
			"outputs": [
				{
					"internalType": "bool",
					"name": "",
					"type": "bool"
				}
			],
			"payable": false,
			"stateMutability": "view",
			"type": "function"
		},
		{
			"constant": true,
			"inputs": [
				{
					"internalType": "uint256",
					"name": "epoch",
					"type": "uint256"
				}
			],
			"name": "couponsExpiration",
			"outputs": [
				{
					"internalType": "uint256",
					"name": "",
					"type": "uint256"
				}
			],
			"payable": false,
			"stateMutability": "view",
			"type": "function"
		},
		{
			"constant": true,
			"inputs": [],
			"name": "decimals",
			"outputs": [
				{
					"internalType": "uint8",
					"name": "",
					"type": "uint8"
				}
			],
			"payable": false,
			"stateMutability": "view",
			"type": "function"
		},
		{
			"constant": true,
			"inputs": [],
			"name": "dollar",
			"outputs": [
				{
					"internalType": "contract IDollar",
					"name": "",
					"type": "address"
				}
			],
			"payable": false,
			"stateMutability": "view",
			"type": "function"
		},
		{
			"constant": true,
			"inputs": [],
			"name": "epoch",
			"outputs": [
				{
					"internalType": "uint256",
					"name": "",
					"type": "uint256"
				}
			],
			"payable": false,
			"stateMutability": "view",
			"type": "function"
		},
		{
			"constant": true,
			"inputs": [],
			"name": "epochTime",
			"outputs": [
				{
					"internalType": "uint256",
					"name": "",
					"type": "uint256"
				}
			],
			"payable": false,
			"stateMutability": "view",
			"type": "function"
		},
		{
			"constant": true,
			"inputs": [
				{
					"internalType": "uint256",
					"name": "epoch",
					"type": "uint256"
				}
			],
			"name": "expiringCoupons",
			"outputs": [
				{
					"internalType": "uint256",
					"name": "",
					"type": "uint256"
				}
			],
			"payable": false,
			"stateMutability": "view",
			"type": "function"
		},
		{
			"constant": true,
			"inputs": [
				{
					"internalType": "uint256",
					"name": "epoch",
					"type": "uint256"
				},
				{
					"internalType": "uint256",
					"name": "i",
					"type": "uint256"
				}
			],
			"name": "expiringCouponsAtIndex",
			"outputs": [
				{
					"internalType": "uint256",
					"name": "",
					"type": "uint256"
				}
			],
			"payable": false,
			"stateMutability": "view",
			"type": "function"
		},
		{
			"constant": true,
			"inputs": [],
			"name": "implementation",
			"outputs": [
				{
					"internalType": "address",
					"name": "impl",
					"type": "address"
				}
			],
			"payable": false,
			"stateMutability": "view",
			"type": "function"
		},
		{
			"constant": true,
			"inputs": [
				{
					"internalType": "address",
					"name": "candidate",
					"type": "address"
				}
			],
			"name": "isInitialized",
			"outputs": [
				{
					"internalType": "bool",
					"name": "",
					"type": "bool"
				}
			],
			"payable": false,
			"stateMutability": "view",
			"type": "function"
		},
		{
			"constant": true,
			"inputs": [
				{
					"internalType": "address",
					"name": "candidate",
					"type": "address"
				}
			],
			"name": "isNominated",
			"outputs": [
				{
					"internalType": "bool",
					"name": "",
					"type": "bool"
				}
			],
			"payable": false,
			"stateMutability": "view",
			"type": "function"
		},
		{
			"constant": true,
			"inputs": [],
			"name": "name",
			"outputs": [
				{
					"internalType": "string",
					"name": "",
					"type": "string"
				}
			],
			"payable": false,
			"stateMutability": "view",
			"type": "function"
		},
		{
			"constant": true,
			"inputs": [],
			"name": "oracle",
			"outputs": [
				{
					"internalType": "contract IOracle",
					"name": "",
					"type": "address"
				}
			],
			"payable": false,
			"stateMutability": "view",
			"type": "function"
		},
		{
			"constant": true,
			"inputs": [
				{
					"internalType": "uint256",
					"name": "epoch",
					"type": "uint256"
				}
			],
			"name": "outstandingCoupons",
			"outputs": [
				{
					"internalType": "uint256",
					"name": "",
					"type": "uint256"
				}
			],
			"payable": false,
			"stateMutability": "view",
			"type": "function"
		},
		{
			"constant": true,
			"inputs": [
				{
					"internalType": "address",
					"name": "candidate",
					"type": "address"
				}
			],
			"name": "periodFor",
			"outputs": [
				{
					"internalType": "uint256",
					"name": "",
					"type": "uint256"
				}
			],
			"payable": false,
			"stateMutability": "view",
			"type": "function"
		},
		{
			"constant": true,
			"inputs": [],
			"name": "pool",
			"outputs": [
				{
					"internalType": "address",
					"name": "",
					"type": "address"
				}
			],
			"payable": false,
			"stateMutability": "view",
			"type": "function"
		},
		{
			"constant": true,
			"inputs": [
				{
					"internalType": "address",
					"name": "account",
					"type": "address"
				},
				{
					"internalType": "address",
					"name": "candidate",
					"type": "address"
				}
			],
			"name": "recordedVote",
			"outputs": [
				{
					"internalType": "enum Candidate.Vote",
					"name": "",
					"type": "uint8"
				}
			],
			"payable": false,
			"stateMutability": "view",
			"type": "function"
		},
		{
			"constant": true,
			"inputs": [
				{
					"internalType": "address",
					"name": "candidate",
					"type": "address"
				}
			],
			"name": "rejectFor",
			"outputs": [
				{
					"internalType": "uint256",
					"name": "",
					"type": "uint256"
				}
			],
			"payable": false,
			"stateMutability": "view",
			"type": "function"
		},
		{
			"constant": true,
			"inputs": [
				{
					"internalType": "address",
					"name": "candidate",
					"type": "address"
				}
			],
			"name": "startFor",
			"outputs": [
				{
					"internalType": "uint256",
					"name": "",
					"type": "uint256"
				}
			],
			"payable": false,
			"stateMutability": "view",
			"type": "function"
		},
		{
			"constant": true,
			"inputs": [
				{
					"internalType": "address",
					"name": "account",
					"type": "address"
				}
			],
			"name": "statusOf",
			"outputs": [
				{
					"internalType": "enum Account.Status",
					"name": "",
					"type": "uint8"
				}
			],
			"payable": false,
			"stateMutability": "view",
			"type": "function"
		},
		{
			"constant": true,
			"inputs": [],
			"name": "symbol",
			"outputs": [
				{
					"internalType": "string",
					"name": "",
					"type": "string"
				}
			],
			"payable": false,
			"stateMutability": "view",
			"type": "function"
		},
		{
			"constant": true,
			"inputs": [],
			"name": "totalBonded",
			"outputs": [
				{
					"internalType": "uint256",
					"name": "",
					"type": "uint256"
				}
			],
			"payable": false,
			"stateMutability": "view",
			"type": "function"
		},
		{
			"constant": true,
			"inputs": [
				{
					"internalType": "uint256",
					"name": "epoch",
					"type": "uint256"
				}
			],
			"name": "totalBondedAt",
			"outputs": [
				{
					"internalType": "uint256",
					"name": "",
					"type": "uint256"
				}
			],
			"payable": false,
			"stateMutability": "view",
			"type": "function"
		},
		{
			"constant": true,
			"inputs": [],
			"name": "totalCoupons",
			"outputs": [
				{
					"internalType": "uint256",
					"name": "",
					"type": "uint256"
				}
			],
			"payable": false,
			"stateMutability": "view",
			"type": "function"
		},
		{
			"constant": true,
			"inputs": [],
			"name": "totalDebt",
			"outputs": [
				{
					"internalType": "uint256",
					"name": "",
					"type": "uint256"
				}
			],
			"payable": false,
			"stateMutability": "view",
			"type": "function"
		},
		{
			"constant": true,
			"inputs": [],
			"name": "totalNet",
			"outputs": [
				{
					"internalType": "uint256",
					"name": "",
					"type": "uint256"
				}
			],
			"payable": false,
			"stateMutability": "view",
			"type": "function"
		},
		{
			"constant": true,
			"inputs": [],
			"name": "totalRedeemable",
			"outputs": [
				{
					"internalType": "uint256",
					"name": "",
					"type": "uint256"
				}
			],
			"payable": false,
			"stateMutability": "view",
			"type": "function"
		},
		{
			"constant": true,
			"inputs": [],
			"name": "totalStaged",
			"outputs": [
				{
					"internalType": "uint256",
					"name": "",
					"type": "uint256"
				}
			],
			"payable": false,
			"stateMutability": "view",
			"type": "function"
		},
		{
			"constant": true,
			"inputs": [],
			"name": "totalSupply",
			"outputs": [
				{
					"internalType": "uint256",
					"name": "",
					"type": "uint256"
				}
			],
			"payable": false,
			"stateMutability": "view",
			"type": "function"
		},
		{
			"constant": false,
			"inputs": [
				{
					"internalType": "address",
					"name": "recipient",
					"type": "address"
				},
				{
					"internalType": "uint256",
					"name": "amount",
					"type": "uint256"
				}
			],
			"name": "transfer",
			"outputs": [
				{
					"internalType": "bool",
					"name": "",
					"type": "bool"
				}
			],
			"payable": false,
			"stateMutability": "nonpayable",
			"type": "function"
		},
		{
			"constant": false,
			"inputs": [
				{
					"internalType": "address",
					"name": "sender",
					"type": "address"
				},
				{
					"internalType": "address",
					"name": "recipient",
					"type": "address"
				},
				{
					"internalType": "uint256",
					"name": "amount",
					"type": "uint256"
				}
			],
			"name": "transferFrom",
			"outputs": [
				{
					"internalType": "bool",
					"name": "",
					"type": "bool"
				}
			],
			"payable": false,
			"stateMutability": "nonpayable",
			"type": "function"
		},
		{
			"constant": true,
			"inputs": [
				{
					"internalType": "address",
					"name": "candidate",
					"type": "address"
				}
			],
			"name": "votesFor",
			"outputs": [
				{
					"internalType": "uint256",
					"name": "",
					"type": "uint256"
				}
			],
			"payable": false,
			"stateMutability": "view",
			"type": "function"
		}
	]
}