{
	"data": {
		"bytecode": {
			"linkReferences": {},
			"object": "608060405234801561001057600080fd5b506119ce806100206000396000f3fe608060405234801561001057600080fd5b50600436106102955760003560e01c806375d5024b11610167578063a6c409f1116100ce578063d60b347f11610087578063d60b347f14610553578063dd62ed3e14610566578063df9a2b1c14610574578063f1b7cf4914610587578063fc7b9c181461059a578063ffbe3b73146105a257610295565b8063a6c409f11461050a578063a9059cbb146102b8578063b6b55f2514610512578063bc7513e214610525578063c9aff70c14610538578063cf0237791461054b57610295565b806397a5d5b51161012057806397a5d5b5146104a35780639940686e146104b65780639a649edc146104c95780639bc289f1146104d15780639f6e1b26146104e4578063a50cd8e7146104f757610295565b806375d5024b146104525780637dc0d1d014610465578063825ad6071461046d57806386cf9f1414610480578063900cf0cf1461049357806395d89b411461049b57610295565b8063353a420c1161020b57806351adeb57116101c457806351adeb57146103e957806351bf21d8146103fe5780635c60da1b1461041157806364668022146104195780636a39e3281461042c57806370a082311461043f57610295565b8063353a420c146103805780633a3e6c81146103935780633fbba9a6146103a657806344d96e95146103c65780634c736099146103ce5780635053e461146103e157610295565b806318160ddd1161025d57806318160ddd146103205780631edbcf6c1461032857806323b872dd1461033057806327de9e32146103435780632e1a7d4d14610358578063313ce5671461036b57610295565b806306fdde031461029a578063095ea7b3146102b857806310e95b6c146102d857806315e14bf6146102f857806316f0115b1461030b575b600080fd5b6102a26105b5565b6040516102af919061180a565b60405180910390f35b6102cb6102c636600461155b565b6105ec565b6040516102af91906117e0565b6102eb6102e63660046115a9565b6105f5565b6040516102af919061183b565b6102eb6103063660046114ae565b61060d565b61031361062b565b6040516102af919061178f565b6102eb61063a565b6102eb610640565b6102cb61033e36600461150e565b610646565b6103566103513660046115a9565b610650565b005b6103566103663660046115a9565b61079a565b6103736108d1565b6040516102af9190611864565b6102eb61038e3660046114ae565b6108d6565b6102cb6103a13660046114ae565b6108f4565b6103b96103b43660046114d4565b610911565b6040516102af91906117fc565b6102eb610944565b6102eb6103dc3660046115e5565b61094a565b6102eb61097a565b6103f161099d565b6040516102af91906117ee565b6102eb61040c3660046114ae565b6109ac565b6103136109ca565b6102eb6104273660046114ae565b6109ef565b6102eb61043a3660046115a9565b610a0d565b6102eb61044d3660046114ae565b610a22565b6102cb6104603660046115a9565b610a40565b6103f1610a53565b6102eb61047b3660046114ae565b610a62565b6102eb61048e3660046114ae565b610aa2565b6102eb610abd565b6102a2610ac3565b6103b96104b13660046114ae565b610ae2565b6103566104c43660046115a9565b610b47565b6102eb610c15565b6102eb6104df3660046114ae565b610c1b565b6102eb6104f23660046114d4565b610c39565b6102eb6105053660046114ae565b610c68565b6102eb610c7f565b6103566105203660046115a9565b610d15565b6102eb61053336600461155b565b610ded565b6102eb6105463660046115a9565b610e31565b6102eb610e46565b6102cb6105613660046114ae565b610e4c565b6102eb6102c63660046114d4565b6103566105823660046115a9565b610e6d565b6102eb6105953660046114ae565b610f2b565b6102eb610f46565b6102eb6105b03660046115a9565b610f4c565b60408051808201909152601e81527f42696e616e6365204167696c652053657420446f6c6c6172205374616b650000602082015290565b60005b92915050565b6000818152600d60205260409020600201545b919050565b6001600160a01b03166000908152600e602052604090206001015490565b600b546001600160a01b031690565b60035490565b60065490565b60005b9392505050565b3361069760025b61066083610ae2565b600281111561066b57fe5b1415692832b936b4b9b9b4b7b760b11b72139bdd08199c9bde995b881bdc88199b1d5a59606a1b610f5e565b6106a033610fc1565b60006106d36106ae33610a22565b6106c76106ba33610a62565b869063ffffffff610ff316565b9063ffffffff61102d16565b90506106df338261106f565b6107018160405180606001604052806022815260200161196a602291396110cb565b61074133846040518060400160405280601d81526020017f426f6e64696e673a20696e73756666696369656e742062616c616e63650000008152506110e6565b337f93530ac0ee8c50e696e13c5ac62355d0c0ba4bd943620d5bda1eb08b64ae751261077c6001610770610abd565b9063ffffffff61119116565b858460405161078d93929190611849565b60405180910390a2505050565b336107e160016107a983610ae2565b60028111156107b457fe5b1415692832b936b4b9b9b4b7b760b11b73139bdd08199c9bde995b881bdc881b1bd8dad95960621b610f5e565b6107e961099d565b6001600160a01b031663a9059cbb33846040518363ffffffff1660e01b81526004016108169291906117c5565b602060405180830381600087803b15801561083057600080fd5b505af1158015610844573d6000803e3d6000fd5b505050506040513d601f19601f82011682018060405250610868919081019061158b565b5061088c3383604051806060016040528060248152602001611946602491396111b6565b336001600160a01b03167f884edad9ce6fa2440d8a54cc123490eb96d2768479d49ff9c7366125a9424364836040516108c5919061183b565b60405180910390a25050565b601290565b6001600160a01b03166000908152600e602052604090206003015490565b6001600160a01b03166000908152600e6020526040902054151590565b6001600160a01b038082166000908152600e60209081526040808320938616835260049093019052205460ff1692915050565b60045490565b6000828152600d6020526040812060030180548390811061096757fe5b9060005260206000200154905092915050565b6000610984611461565b61098c611215565b905061099781611244565b91505090565b6009546001600160a01b031690565b6001600160a01b03166000908152600c602052604090206004015490565b7f360894a13ba1a3210667c828492db98dca3e2076cc3735a920a3ca505d382bbc5490565b6001600160a01b03166000908152600e602052604090206002015490565b6000908152600d602052604090206003015490565b6001600160a01b03166000908152600c602052604090206001015490565b6000610a4a611266565b90911115919050565b600a546001600160a01b031690565b600080610a6d61063a565b905080610a7e576000915050610608565b610649816106c7610a8e86610a22565b610a96610944565b9063ffffffff610ff316565b6001600160a01b03166000908152600c602052604090205490565b60025490565b604080518082019091526005815264424153445360d81b602082015290565b6000610aec610abd565b6001600160a01b0383166000908152600c60205260409020600501541115610b1657506002610608565b6001600160a01b0382166000908152600c6020526040902060040154610b3a610abd565b10156105ec5760016105ef565b33610b526002610657565b610b5b33610fc1565b6000610b65610944565b15610b8557610b80610b75610944565b6106c76106ba61063a565b610b9d565b610b9d610b9061126b565b849063ffffffff610ff316565b9050610ba93382611272565b610bb28361131a565b610bd53384604051806060016040528060248152602001611946602491396111b6565b337f44002fdef5a0c2d2e4e05572e9780b95aef97e0e93ffd7cc076b09fa78ff2b46610c046001610770610abd565b838660405161078d93929190611849565b60085490565b6001600160a01b03166000908152600c602052604090206005015490565b6001600160a01b039182166000908152600c602090815260408083209390941682526003909201909152205490565b60006105ef610c76836108d6565b610770846109ef565b6000610d10610c8c610f46565b610c9461099d565b6001600160a01b03166318160ddd6040518163ffffffff1660e01b815260040160206040518083038186803b158015610ccc57600080fd5b505afa158015610ce0573d6000803e3d6000fd5b505050506040513d601f19601f82011682018060405250610d0491908101906115c7565b9063ffffffff61133316565b905090565b610d1d61099d565b6001600160a01b03166323b872dd3330846040518463ffffffff1660e01b8152600401610d4c9392919061179d565b602060405180830381600087803b158015610d6657600080fd5b505af1158015610d7a573d6000803e3d6000fd5b505050506040513d601f19601f82011682018060405250610d9e919081019061158b565b50610da9338261106f565b336001600160a01b03167fe1fffcc4923d04b559f4d29a8bfc6cda04eb5b0d3c460751c2402c5c5cc9109c82604051610de2919061183b565b60405180910390a250565b6000610df882610e31565b610e04575060006105ef565b506001600160a01b03919091166000908152600c6020908152604080832093835260029093019052205490565b6000908152600d602052604090206001015490565b60055490565b6001600160a01b03166000908152600e602052604090206005015460ff1690565b33610e786002610657565b610e8133610fc1565b6000610e8e610b75610944565b9050610e9a338461106f565b610ebc8360405180606001604052806022815260200161196a602291396110cb565b610efc33826040518060400160405280601d81526020017f426f6e64696e673a20696e73756666696369656e742062616c616e63650000008152506110e6565b337f93530ac0ee8c50e696e13c5ac62355d0c0ba4bd943620d5bda1eb08b64ae7512610c046001610770610abd565b6001600160a01b03166000908152600e602052604090205490565b60075490565b6000908152600d602052604090205490565b82610fbc57610f6c82611375565b6101d160f51b610f7b83611375565b604051602001610f8d9392919061175e565b60408051601f198184030181529082905262461bcd60e51b8252610fb39160040161180a565b60405180910390fd5b505050565b610fd4610fcc6113f5565b610770610abd565b6001600160a01b039091166000908152600c6020526040902060040155565b600082611002575060006105ef565b8282028284828161100f57fe5b04146106495760405162461bcd60e51b8152600401610fb39061182b565b600061064983836040518060400160405280601a81526020017f536166654d6174683a206469766973696f6e206279207a65726f0000000000008152506113fa565b6001600160a01b0382166000908152600c6020526040902054611098908263ffffffff61119116565b6001600160a01b0383166000908152600c60205260409020556005546110c4908263ffffffff61119116565b6005555050565b6004546110df90838363ffffffff61143116565b6004555050565b6001600160a01b0383166000908152600c602052604090206001015461111390838363ffffffff61143116565b6001600160a01b0384166000908152600c602052604090206001015560035461114390838363ffffffff61143116565b6003556040516000906001600160a01b038516907fddf252ad1be2c89b69c2b068fc378daa952ba7f163c4a11628f55a4df523b3ef9061118490869061183b565b60405180910390a3505050565b6000828201838110156106495760405162461bcd60e51b8152600401610fb39061181b565b6001600160a01b0383166000908152600c60205260409020546111e090838363ffffffff61143116565b6001600160a01b0384166000908152600c602052604090205560055461120d90838363ffffffff61143116565b600555505050565b61121d611461565b604051806060016040528060008152602001635fbef0008152602001611c20815250905090565b60006105ef826000015161077084604001516106c78660200151610d0461145d565b609690565b620f424090565b6001600160a01b0382166000908152600c602052604090206001015461129e908263ffffffff61119116565b6001600160a01b0383166000908152600c60205260409020600101556003546112cd908263ffffffff61119116565b6003556040516001600160a01b038316906000907fddf252ad1be2c89b69c2b068fc378daa952ba7f163c4a11628f55a4df523b3ef9061130e90859061183b565b60405180910390a35050565b60045461132d908263ffffffff61119116565b60045550565b600061064983836040518060400160405280601e81526020017f536166654d6174683a207375627472616374696f6e206f766572666c6f770000815250611431565b606080826040516020016113899190611749565b60408051601f19818403018152919052905060205b80156113de578151600019909101908290829081106113b957fe5b01602001516001600160f81b031916156113d95760010181529050610608565b61139e565b505060408051600081526020810190915292915050565b602490565b6000818361141b5760405162461bcd60e51b8152600401610fb3919061180a565b50600083858161142757fe5b0495945050505050565b600081848411156114555760405162461bcd60e51b8152600401610fb3919061180a565b505050900390565b4290565b60405180606001604052806000815260200160008152602001600081525090565b80356105ef8161191f565b80516105ef81611933565b80356105ef8161193c565b80516105ef8161193c565b6000602082840312156114c057600080fd5b60006114cc8484611482565b949350505050565b600080604083850312156114e757600080fd5b60006114f38585611482565b925050602061150485828601611482565b9150509250929050565b60008060006060848603121561152357600080fd5b600061152f8686611482565b935050602061154086828701611482565b925050604061155186828701611498565b9150509250925092565b6000806040838503121561156e57600080fd5b600061157a8585611482565b925050602061150485828601611498565b60006020828403121561159d57600080fd5b60006114cc848461148d565b6000602082840312156115bb57600080fd5b60006114cc8484611498565b6000602082840312156115d957600080fd5b60006114cc84846114a3565b600080604083850312156115f857600080fd5b600061157a8585611498565b61160d816118bb565b82525050565b61160d8161187f565b61160d8161188a565b61160d6116318261188f565b61189c565b61160d6116318261189c565b600061164d82611872565b6116578185610608565b93506116678185602086016118d8565b9290920192915050565b61160d816118c2565b61160d816118cd565b600061168e82611872565b6116988185611876565b93506116a88185602086016118d8565b6116b181611908565b9093019392505050565b60006116c8601b83611876565b7f536166654d6174683a206164646974696f6e206f766572666c6f770000000000815260200192915050565b6000611701602183611876565b7f536166654d6174683a206d756c7469706c69636174696f6e206f766572666c6f8152607760f81b602082015260400192915050565b61160d8161189c565b61160d816118b5565b60006117558284611636565b50602001919050565b600061176a8286611642565b91506117768285611625565b6002820191506117868284611642565b95945050505050565b602081016105ef8284611613565b606081016117ab8286611604565b6117b86020830185611613565b6114cc6040830184611737565b604081016117d38285611604565b6106496020830184611737565b602081016105ef828461161c565b602081016105ef8284611671565b602081016105ef828461167a565b602080825281016106498184611683565b602080825281016105ef816116bb565b602080825281016105ef816116f4565b602081016105ef8284611737565b606081016118578286611737565b6117b86020830185611737565b602081016105ef8284611740565b5190565b90815260200190565b60006105ef826118a9565b151590565b6001600160f01b03191690565b90565b8061060881611912565b6001600160a01b031690565b60ff1690565b60006105ef825b60006105ef8261187f565b60006105ef8261189f565b60005b838110156118f35781810151838201526020016118db565b83811115611902576000848401525b50505050565b601f01601f191690565b6003811061191c57fe5b50565b6119288161187f565b811461191c57600080fd5b6119288161188a565b6119288161189c56fe426f6e64696e673a20696e73756666696369656e74207374616765642062616c616e6365426f6e64696e673a20696e73756666696369656e7420746f74616c20626f6e646564a365627a7a72315820532dd56683f6f52912a80d6322436bf9e7e1c2828abb465a9b2170e841c575876c6578706572696d656e74616cf564736f6c63430005110040",
			"opcodes": "PUSH1 0x80 PUSH1 0x40 MSTORE CALLVALUE DUP1 ISZERO PUSH2 0x10 JUMPI PUSH1 0x0 DUP1 REVERT JUMPDEST POP PUSH2 0x19CE DUP1 PUSH2 0x20 PUSH1 0x0 CODECOPY PUSH1 0x0 RETURN INVALID PUSH1 0x80 PUSH1 0x40 MSTORE CALLVALUE DUP1 ISZERO PUSH2 0x10 JUMPI PUSH1 0x0 DUP1 REVERT JUMPDEST POP PUSH1 0x4 CALLDATASIZE LT PUSH2 0x295 JUMPI PUSH1 0x0 CALLDATALOAD PUSH1 0xE0 SHR DUP1 PUSH4 0x75D5024B GT PUSH2 0x167 JUMPI DUP1 PUSH4 0xA6C409F1 GT PUSH2 0xCE JUMPI DUP1 PUSH4 0xD60B347F GT PUSH2 0x87 JUMPI DUP1 PUSH4 0xD60B347F EQ PUSH2 0x553 JUMPI DUP1 PUSH4 0xDD62ED3E EQ PUSH2 0x566 JUMPI DUP1 PUSH4 0xDF9A2B1C EQ PUSH2 0x574 JUMPI DUP1 PUSH4 0xF1B7CF49 EQ PUSH2 0x587 JUMPI DUP1 PUSH4 0xFC7B9C18 EQ PUSH2 0x59A JUMPI DUP1 PUSH4 0xFFBE3B73 EQ PUSH2 0x5A2 JUMPI PUSH2 0x295 JUMP JUMPDEST DUP1 PUSH4 0xA6C409F1 EQ PUSH2 0x50A JUMPI DUP1 PUSH4 0xA9059CBB EQ PUSH2 0x2B8 JUMPI DUP1 PUSH4 0xB6B55F25 EQ PUSH2 0x512 JUMPI DUP1 PUSH4 0xBC7513E2 EQ PUSH2 0x525 JUMPI DUP1 PUSH4 0xC9AFF70C EQ PUSH2 0x538 JUMPI DUP1 PUSH4 0xCF023779 EQ PUSH2 0x54B JUMPI PUSH2 0x295 JUMP JUMPDEST DUP1 PUSH4 0x97A5D5B5 GT PUSH2 0x120 JUMPI DUP1 PUSH4 0x97A5D5B5 EQ PUSH2 0x4A3 JUMPI DUP1 PUSH4 0x9940686E EQ PUSH2 0x4B6 JUMPI DUP1 PUSH4 0x9A649EDC EQ PUSH2 0x4C9 JUMPI DUP1 PUSH4 0x9BC289F1 EQ PUSH2 0x4D1 JUMPI DUP1 PUSH4 0x9F6E1B26 EQ PUSH2 0x4E4 JUMPI DUP1 PUSH4 0xA50CD8E7 EQ PUSH2 0x4F7 JUMPI PUSH2 0x295 JUMP JUMPDEST DUP1 PUSH4 0x75D5024B EQ PUSH2 0x452 JUMPI DUP1 PUSH4 0x7DC0D1D0 EQ PUSH2 0x465 JUMPI DUP1 PUSH4 0x825AD607 EQ PUSH2 0x46D JUMPI DUP1 PUSH4 0x86CF9F14 EQ PUSH2 0x480 JUMPI DUP1 PUSH4 0x900CF0CF EQ PUSH2 0x493 JUMPI DUP1 PUSH4 0x95D89B41 EQ PUSH2 0x49B JUMPI PUSH2 0x295 JUMP JUMPDEST DUP1 PUSH4 0x353A420C GT PUSH2 0x20B JUMPI DUP1 PUSH4 0x51ADEB57 GT PUSH2 0x1C4 JUMPI DUP1 PUSH4 0x51ADEB57 EQ PUSH2 0x3E9 JUMPI DUP1 PUSH4 0x51BF21D8 EQ PUSH2 0x3FE JUMPI DUP1 PUSH4 0x5C60DA1B EQ PUSH2 0x411 JUMPI DUP1 PUSH4 0x64668022 EQ PUSH2 0x419 JUMPI DUP1 PUSH4 0x6A39E328 EQ PUSH2 0x42C JUMPI DUP1 PUSH4 0x70A08231 EQ PUSH2 0x43F JUMPI PUSH2 0x295 JUMP JUMPDEST DUP1 PUSH4 0x353A420C EQ PUSH2 0x380 JUMPI DUP1 PUSH4 0x3A3E6C81 EQ PUSH2 0x393 JUMPI DUP1 PUSH4 0x3FBBA9A6 EQ PUSH2 0x3A6 JUMPI DUP1 PUSH4 0x44D96E95 EQ PUSH2 0x3C6 JUMPI DUP1 PUSH4 0x4C736099 EQ PUSH2 0x3CE JUMPI DUP1 PUSH4 0x5053E461 EQ PUSH2 0x3E1 JUMPI PUSH2 0x295 JUMP JUMPDEST DUP1 PUSH4 0x18160DDD GT PUSH2 0x25D JUMPI DUP1 PUSH4 0x18160DDD EQ PUSH2 0x320 JUMPI DUP1 PUSH4 0x1EDBCF6C EQ PUSH2 0x328 JUMPI DUP1 PUSH4 0x23B872DD EQ PUSH2 0x330 JUMPI DUP1 PUSH4 0x27DE9E32 EQ PUSH2 0x343 JUMPI DUP1 PUSH4 0x2E1A7D4D EQ PUSH2 0x358 JUMPI DUP1 PUSH4 0x313CE567 EQ PUSH2 0x36B JUMPI PUSH2 0x295 JUMP JUMPDEST DUP1 PUSH4 0x6FDDE03 EQ PUSH2 0x29A JUMPI DUP1 PUSH4 0x95EA7B3 EQ PUSH2 0x2B8 JUMPI DUP1 PUSH4 0x10E95B6C EQ PUSH2 0x2D8 JUMPI DUP1 PUSH4 0x15E14BF6 EQ PUSH2 0x2F8 JUMPI DUP1 PUSH4 0x16F0115B EQ PUSH2 0x30B JUMPI JUMPDEST PUSH1 0x0 DUP1 REVERT JUMPDEST PUSH2 0x2A2 PUSH2 0x5B5 JUMP JUMPDEST PUSH1 0x40 MLOAD PUSH2 0x2AF SWAP2 SWAP1 PUSH2 0x180A JUMP JUMPDEST PUSH1 0x40 MLOAD DUP1 SWAP2 SUB SWAP1 RETURN JUMPDEST PUSH2 0x2CB PUSH2 0x2C6 CALLDATASIZE PUSH1 0x4 PUSH2 0x155B JUMP JUMPDEST PUSH2 0x5EC JUMP JUMPDEST PUSH1 0x40 MLOAD PUSH2 0x2AF SWAP2 SWAP1 PUSH2 0x17E0 JUMP JUMPDEST PUSH2 0x2EB PUSH2 0x2E6 CALLDATASIZE PUSH1 0x4 PUSH2 0x15A9 JUMP JUMPDEST PUSH2 0x5F5 JUMP JUMPDEST PUSH1 0x40 MLOAD PUSH2 0x2AF SWAP2 SWAP1 PUSH2 0x183B JUMP JUMPDEST PUSH2 0x2EB PUSH2 0x306 CALLDATASIZE PUSH1 0x4 PUSH2 0x14AE JUMP JUMPDEST PUSH2 0x60D JUMP JUMPDEST PUSH2 0x313 PUSH2 0x62B JUMP JUMPDEST PUSH1 0x40 MLOAD PUSH2 0x2AF SWAP2 SWAP1 PUSH2 0x178F JUMP JUMPDEST PUSH2 0x2EB PUSH2 0x63A JUMP JUMPDEST PUSH2 0x2EB PUSH2 0x640 JUMP JUMPDEST PUSH2 0x2CB PUSH2 0x33E CALLDATASIZE PUSH1 0x4 PUSH2 0x150E JUMP JUMPDEST PUSH2 0x646 JUMP JUMPDEST PUSH2 0x356 PUSH2 0x351 CALLDATASIZE PUSH1 0x4 PUSH2 0x15A9 JUMP JUMPDEST PUSH2 0x650 JUMP JUMPDEST STOP JUMPDEST PUSH2 0x356 PUSH2 0x366 CALLDATASIZE PUSH1 0x4 PUSH2 0x15A9 JUMP JUMPDEST PUSH2 0x79A JUMP JUMPDEST PUSH2 0x373 PUSH2 0x8D1 JUMP JUMPDEST PUSH1 0x40 MLOAD PUSH2 0x2AF SWAP2 SWAP1 PUSH2 0x1864 JUMP JUMPDEST PUSH2 0x2EB PUSH2 0x38E CALLDATASIZE PUSH1 0x4 PUSH2 0x14AE JUMP JUMPDEST PUSH2 0x8D6 JUMP JUMPDEST PUSH2 0x2CB PUSH2 0x3A1 CALLDATASIZE PUSH1 0x4 PUSH2 0x14AE JUMP JUMPDEST PUSH2 0x8F4 JUMP JUMPDEST PUSH2 0x3B9 PUSH2 0x3B4 CALLDATASIZE PUSH1 0x4 PUSH2 0x14D4 JUMP JUMPDEST PUSH2 0x911 JUMP JUMPDEST PUSH1 0x40 MLOAD PUSH2 0x2AF SWAP2 SWAP1 PUSH2 0x17FC JUMP JUMPDEST PUSH2 0x2EB PUSH2 0x944 JUMP JUMPDEST PUSH2 0x2EB PUSH2 0x3DC CALLDATASIZE PUSH1 0x4 PUSH2 0x15E5 JUMP JUMPDEST PUSH2 0x94A JUMP JUMPDEST PUSH2 0x2EB PUSH2 0x97A JUMP JUMPDEST PUSH2 0x3F1 PUSH2 0x99D JUMP JUMPDEST PUSH1 0x40 MLOAD PUSH2 0x2AF SWAP2 SWAP1 PUSH2 0x17EE JUMP JUMPDEST PUSH2 0x2EB PUSH2 0x40C CALLDATASIZE PUSH1 0x4 PUSH2 0x14AE JUMP JUMPDEST PUSH2 0x9AC JUMP JUMPDEST PUSH2 0x313 PUSH2 0x9CA JUMP JUMPDEST PUSH2 0x2EB PUSH2 0x427 CALLDATASIZE PUSH1 0x4 PUSH2 0x14AE JUMP JUMPDEST PUSH2 0x9EF JUMP JUMPDEST PUSH2 0x2EB PUSH2 0x43A CALLDATASIZE PUSH1 0x4 PUSH2 0x15A9 JUMP JUMPDEST PUSH2 0xA0D JUMP JUMPDEST PUSH2 0x2EB PUSH2 0x44D CALLDATASIZE PUSH1 0x4 PUSH2 0x14AE JUMP JUMPDEST PUSH2 0xA22 JUMP JUMPDEST PUSH2 0x2CB PUSH2 0x460 CALLDATASIZE PUSH1 0x4 PUSH2 0x15A9 JUMP JUMPDEST PUSH2 0xA40 JUMP JUMPDEST PUSH2 0x3F1 PUSH2 0xA53 JUMP JUMPDEST PUSH2 0x2EB PUSH2 0x47B CALLDATASIZE PUSH1 0x4 PUSH2 0x14AE JUMP JUMPDEST PUSH2 0xA62 JUMP JUMPDEST PUSH2 0x2EB PUSH2 0x48E CALLDATASIZE PUSH1 0x4 PUSH2 0x14AE JUMP JUMPDEST PUSH2 0xAA2 JUMP JUMPDEST PUSH2 0x2EB PUSH2 0xABD JUMP JUMPDEST PUSH2 0x2A2 PUSH2 0xAC3 JUMP JUMPDEST PUSH2 0x3B9 PUSH2 0x4B1 CALLDATASIZE PUSH1 0x4 PUSH2 0x14AE JUMP JUMPDEST PUSH2 0xAE2 JUMP JUMPDEST PUSH2 0x356 PUSH2 0x4C4 CALLDATASIZE PUSH1 0x4 PUSH2 0x15A9 JUMP JUMPDEST PUSH2 0xB47 JUMP JUMPDEST PUSH2 0x2EB PUSH2 0xC15 JUMP JUMPDEST PUSH2 0x2EB PUSH2 0x4DF CALLDATASIZE PUSH1 0x4 PUSH2 0x14AE JUMP JUMPDEST PUSH2 0xC1B JUMP JUMPDEST PUSH2 0x2EB PUSH2 0x4F2 CALLDATASIZE PUSH1 0x4 PUSH2 0x14D4 JUMP JUMPDEST PUSH2 0xC39 JUMP JUMPDEST PUSH2 0x2EB PUSH2 0x505 CALLDATASIZE PUSH1 0x4 PUSH2 0x14AE JUMP JUMPDEST PUSH2 0xC68 JUMP JUMPDEST PUSH2 0x2EB PUSH2 0xC7F JUMP JUMPDEST PUSH2 0x356 PUSH2 0x520 CALLDATASIZE PUSH1 0x4 PUSH2 0x15A9 JUMP JUMPDEST PUSH2 0xD15 JUMP JUMPDEST PUSH2 0x2EB PUSH2 0x533 CALLDATASIZE PUSH1 0x4 PUSH2 0x155B JUMP JUMPDEST PUSH2 0xDED JUMP JUMPDEST PUSH2 0x2EB PUSH2 0x546 CALLDATASIZE PUSH1 0x4 PUSH2 0x15A9 JUMP JUMPDEST PUSH2 0xE31 JUMP JUMPDEST PUSH2 0x2EB PUSH2 0xE46 JUMP JUMPDEST PUSH2 0x2CB PUSH2 0x561 CALLDATASIZE PUSH1 0x4 PUSH2 0x14AE JUMP JUMPDEST PUSH2 0xE4C JUMP JUMPDEST PUSH2 0x2EB PUSH2 0x2C6 CALLDATASIZE PUSH1 0x4 PUSH2 0x14D4 JUMP JUMPDEST PUSH2 0x356 PUSH2 0x582 CALLDATASIZE PUSH1 0x4 PUSH2 0x15A9 JUMP JUMPDEST PUSH2 0xE6D JUMP JUMPDEST PUSH2 0x2EB PUSH2 0x595 CALLDATASIZE PUSH1 0x4 PUSH2 0x14AE JUMP JUMPDEST PUSH2 0xF2B JUMP JUMPDEST PUSH2 0x2EB PUSH2 0xF46 JUMP JUMPDEST PUSH2 0x2EB PUSH2 0x5B0 CALLDATASIZE PUSH1 0x4 PUSH2 0x15A9 JUMP JUMPDEST PUSH2 0xF4C JUMP JUMPDEST PUSH1 0x40 DUP1 MLOAD DUP1 DUP3 ADD SWAP1 SWAP2 MSTORE PUSH1 0x1E DUP2 MSTORE PUSH32 0x42696E616E6365204167696C652053657420446F6C6C6172205374616B650000 PUSH1 0x20 DUP3 ADD MSTORE SWAP1 JUMP JUMPDEST PUSH1 0x0 JUMPDEST SWAP3 SWAP2 POP POP JUMP JUMPDEST PUSH1 0x0 DUP2 DUP2 MSTORE PUSH1 0xD PUSH1 0x20 MSTORE PUSH1 0x40 SWAP1 KECCAK256 PUSH1 0x2 ADD SLOAD JUMPDEST SWAP2 SWAP1 POP JUMP JUMPDEST PUSH1 0x1 PUSH1 0x1 PUSH1 0xA0 SHL SUB AND PUSH1 0x0 SWAP1 DUP2 MSTORE PUSH1 0xE PUSH1 0x20 MSTORE PUSH1 0x40 SWAP1 KECCAK256 PUSH1 0x1 ADD SLOAD SWAP1 JUMP JUMPDEST PUSH1 0xB SLOAD PUSH1 0x1 PUSH1 0x1 PUSH1 0xA0 SHL SUB AND SWAP1 JUMP JUMPDEST PUSH1 0x3 SLOAD SWAP1 JUMP JUMPDEST PUSH1 0x6 SLOAD SWAP1 JUMP JUMPDEST PUSH1 0x0 JUMPDEST SWAP4 SWAP3 POP POP POP JUMP JUMPDEST CALLER PUSH2 0x697 PUSH1 0x2 JUMPDEST PUSH2 0x660 DUP4 PUSH2 0xAE2 JUMP JUMPDEST PUSH1 0x2 DUP2 GT ISZERO PUSH2 0x66B JUMPI INVALID JUMPDEST EQ ISZERO PUSH10 0x2832B936B4B9B9B4B7B7 PUSH1 0xB1 SHL PUSH19 0x139BDD08199C9BDE995B881BDC88199B1D5A59 PUSH1 0x6A SHL PUSH2 0xF5E JUMP JUMPDEST PUSH2 0x6A0 CALLER PUSH2 0xFC1 JUMP JUMPDEST PUSH1 0x0 PUSH2 0x6D3 PUSH2 0x6AE CALLER PUSH2 0xA22 JUMP JUMPDEST PUSH2 0x6C7 PUSH2 0x6BA CALLER PUSH2 0xA62 JUMP JUMPDEST DUP7 SWAP1 PUSH4 0xFFFFFFFF PUSH2 0xFF3 AND JUMP JUMPDEST SWAP1 PUSH4 0xFFFFFFFF PUSH2 0x102D AND JUMP JUMPDEST SWAP1 POP PUSH2 0x6DF CALLER DUP3 PUSH2 0x106F JUMP JUMPDEST PUSH2 0x701 DUP2 PUSH1 0x40 MLOAD DUP1 PUSH1 0x60 ADD PUSH1 0x40 MSTORE DUP1 PUSH1 0x22 DUP2 MSTORE PUSH1 0x20 ADD PUSH2 0x196A PUSH1 0x22 SWAP2 CODECOPY PUSH2 0x10CB JUMP JUMPDEST PUSH2 0x741 CALLER DUP5 PUSH1 0x40 MLOAD DUP1 PUSH1 0x40 ADD PUSH1 0x40 MSTORE DUP1 PUSH1 0x1D DUP2 MSTORE PUSH1 0x20 ADD PUSH32 0x426F6E64696E673A20696E73756666696369656E742062616C616E6365000000 DUP2 MSTORE POP PUSH2 0x10E6 JUMP JUMPDEST CALLER PUSH32 0x93530AC0EE8C50E696E13C5AC62355D0C0BA4BD943620D5BDA1EB08B64AE7512 PUSH2 0x77C PUSH1 0x1 PUSH2 0x770 PUSH2 0xABD JUMP JUMPDEST SWAP1 PUSH4 0xFFFFFFFF PUSH2 0x1191 AND JUMP JUMPDEST DUP6 DUP5 PUSH1 0x40 MLOAD PUSH2 0x78D SWAP4 SWAP3 SWAP2 SWAP1 PUSH2 0x1849 JUMP JUMPDEST PUSH1 0x40 MLOAD DUP1 SWAP2 SUB SWAP1 LOG2 POP POP POP JUMP JUMPDEST CALLER PUSH2 0x7E1 PUSH1 0x1 PUSH2 0x7A9 DUP4 PUSH2 0xAE2 JUMP JUMPDEST PUSH1 0x2 DUP2 GT ISZERO PUSH2 0x7B4 JUMPI INVALID JUMPDEST EQ ISZERO PUSH10 0x2832B936B4B9B9B4B7B7 PUSH1 0xB1 SHL PUSH20 0x139BDD08199C9BDE995B881BDC881B1BD8DAD959 PUSH1 0x62 SHL PUSH2 0xF5E JUMP JUMPDEST PUSH2 0x7E9 PUSH2 0x99D JUMP JUMPDEST PUSH1 0x1 PUSH1 0x1 PUSH1 0xA0 SHL SUB AND PUSH4 0xA9059CBB CALLER DUP5 PUSH1 0x40 MLOAD DUP4 PUSH4 0xFFFFFFFF AND PUSH1 0xE0 SHL DUP2 MSTORE PUSH1 0x4 ADD PUSH2 0x816 SWAP3 SWAP2 SWAP1 PUSH2 0x17C5 JUMP JUMPDEST PUSH1 0x20 PUSH1 0x40 MLOAD DUP1 DUP4 SUB DUP2 PUSH1 0x0 DUP8 DUP1 EXTCODESIZE ISZERO DUP1 ISZERO PUSH2 0x830 JUMPI PUSH1 0x0 DUP1 REVERT JUMPDEST POP GAS CALL ISZERO DUP1 ISZERO PUSH2 0x844 JUMPI RETURNDATASIZE PUSH1 0x0 DUP1 RETURNDATACOPY RETURNDATASIZE PUSH1 0x0 REVERT JUMPDEST POP POP POP POP PUSH1 0x40 MLOAD RETURNDATASIZE PUSH1 0x1F NOT PUSH1 0x1F DUP3 ADD AND DUP3 ADD DUP1 PUSH1 0x40 MSTORE POP PUSH2 0x868 SWAP2 SWAP1 DUP2 ADD SWAP1 PUSH2 0x158B JUMP JUMPDEST POP PUSH2 0x88C CALLER DUP4 PUSH1 0x40 MLOAD DUP1 PUSH1 0x60 ADD PUSH1 0x40 MSTORE DUP1 PUSH1 0x24 DUP2 MSTORE PUSH1 0x20 ADD PUSH2 0x1946 PUSH1 0x24 SWAP2 CODECOPY PUSH2 0x11B6 JUMP JUMPDEST CALLER PUSH1 0x1 PUSH1 0x1 PUSH1 0xA0 SHL SUB AND PUSH32 0x884EDAD9CE6FA2440D8A54CC123490EB96D2768479D49FF9C7366125A9424364 DUP4 PUSH1 0x40 MLOAD PUSH2 0x8C5 SWAP2 SWAP1 PUSH2 0x183B JUMP JUMPDEST PUSH1 0x40 MLOAD DUP1 SWAP2 SUB SWAP1 LOG2 POP POP JUMP JUMPDEST PUSH1 0x12 SWAP1 JUMP JUMPDEST PUSH1 0x1 PUSH1 0x1 PUSH1 0xA0 SHL SUB AND PUSH1 0x0 SWAP1 DUP2 MSTORE PUSH1 0xE PUSH1 0x20 MSTORE PUSH1 0x40 SWAP1 KECCAK256 PUSH1 0x3 ADD SLOAD SWAP1 JUMP JUMPDEST PUSH1 0x1 PUSH1 0x1 PUSH1 0xA0 SHL SUB AND PUSH1 0x0 SWAP1 DUP2 MSTORE PUSH1 0xE PUSH1 0x20 MSTORE PUSH1 0x40 SWAP1 KECCAK256 SLOAD ISZERO ISZERO SWAP1 JUMP JUMPDEST PUSH1 0x1 PUSH1 0x1 PUSH1 0xA0 SHL SUB DUP1 DUP3 AND PUSH1 0x0 SWAP1 DUP2 MSTORE PUSH1 0xE PUSH1 0x20 SWAP1 DUP2 MSTORE PUSH1 0x40 DUP1 DUP4 KECCAK256 SWAP4 DUP7 AND DUP4 MSTORE PUSH1 0x4 SWAP1 SWAP4 ADD SWAP1 MSTORE KECCAK256 SLOAD PUSH1 0xFF AND SWAP3 SWAP2 POP POP JUMP JUMPDEST PUSH1 0x4 SLOAD SWAP1 JUMP JUMPDEST PUSH1 0x0 DUP3 DUP2 MSTORE PUSH1 0xD PUSH1 0x20 MSTORE PUSH1 0x40 DUP2 KECCAK256 PUSH1 0x3 ADD DUP1 SLOAD DUP4 SWAP1 DUP2 LT PUSH2 0x967 JUMPI INVALID JUMPDEST SWAP1 PUSH1 0x0 MSTORE PUSH1 0x20 PUSH1 0x0 KECCAK256 ADD SLOAD SWAP1 POP SWAP3 SWAP2 POP POP JUMP JUMPDEST PUSH1 0x0 PUSH2 0x984 PUSH2 0x1461 JUMP JUMPDEST PUSH2 0x98C PUSH2 0x1215 JUMP JUMPDEST SWAP1 POP PUSH2 0x997 DUP2 PUSH2 0x1244 JUMP JUMPDEST SWAP2 POP POP SWAP1 JUMP JUMPDEST PUSH1 0x9 SLOAD PUSH1 0x1 PUSH1 0x1 PUSH1 0xA0 SHL SUB AND SWAP1 JUMP JUMPDEST PUSH1 0x1 PUSH1 0x1 PUSH1 0xA0 SHL SUB AND PUSH1 0x0 SWAP1 DUP2 MSTORE PUSH1 0xC PUSH1 0x20 MSTORE PUSH1 0x40 SWAP1 KECCAK256 PUSH1 0x4 ADD SLOAD SWAP1 JUMP JUMPDEST PUSH32 0x360894A13BA1A3210667C828492DB98DCA3E2076CC3735A920A3CA505D382BBC SLOAD SWAP1 JUMP JUMPDEST PUSH1 0x1 PUSH1 0x1 PUSH1 0xA0 SHL SUB AND PUSH1 0x0 SWAP1 DUP2 MSTORE PUSH1 0xE PUSH1 0x20 MSTORE PUSH1 0x40 SWAP1 KECCAK256 PUSH1 0x2 ADD SLOAD SWAP1 JUMP JUMPDEST PUSH1 0x0 SWAP1 DUP2 MSTORE PUSH1 0xD PUSH1 0x20 MSTORE PUSH1 0x40 SWAP1 KECCAK256 PUSH1 0x3 ADD SLOAD SWAP1 JUMP JUMPDEST PUSH1 0x1 PUSH1 0x1 PUSH1 0xA0 SHL SUB AND PUSH1 0x0 SWAP1 DUP2 MSTORE PUSH1 0xC PUSH1 0x20 MSTORE PUSH1 0x40 SWAP1 KECCAK256 PUSH1 0x1 ADD SLOAD SWAP1 JUMP JUMPDEST PUSH1 0x0 PUSH2 0xA4A PUSH2 0x1266 JUMP JUMPDEST SWAP1 SWAP2 GT ISZERO SWAP2 SWAP1 POP JUMP JUMPDEST PUSH1 0xA SLOAD PUSH1 0x1 PUSH1 0x1 PUSH1 0xA0 SHL SUB AND SWAP1 JUMP JUMPDEST PUSH1 0x0 DUP1 PUSH2 0xA6D PUSH2 0x63A JUMP JUMPDEST SWAP1 POP DUP1 PUSH2 0xA7E JUMPI PUSH1 0x0 SWAP2 POP POP PUSH2 0x608 JUMP JUMPDEST PUSH2 0x649 DUP2 PUSH2 0x6C7 PUSH2 0xA8E DUP7 PUSH2 0xA22 JUMP JUMPDEST PUSH2 0xA96 PUSH2 0x944 JUMP JUMPDEST SWAP1 PUSH4 0xFFFFFFFF PUSH2 0xFF3 AND JUMP JUMPDEST PUSH1 0x1 PUSH1 0x1 PUSH1 0xA0 SHL SUB AND PUSH1 0x0 SWAP1 DUP2 MSTORE PUSH1 0xC PUSH1 0x20 MSTORE PUSH1 0x40 SWAP1 KECCAK256 SLOAD SWAP1 JUMP JUMPDEST PUSH1 0x2 SLOAD SWAP1 JUMP JUMPDEST PUSH1 0x40 DUP1 MLOAD DUP1 DUP3 ADD SWAP1 SWAP2 MSTORE PUSH1 0x5 DUP2 MSTORE PUSH5 0x4241534453 PUSH1 0xD8 SHL PUSH1 0x20 DUP3 ADD MSTORE SWAP1 JUMP JUMPDEST PUSH1 0x0 PUSH2 0xAEC PUSH2 0xABD JUMP JUMPDEST PUSH1 0x1 PUSH1 0x1 PUSH1 0xA0 SHL SUB DUP4 AND PUSH1 0x0 SWAP1 DUP2 MSTORE PUSH1 0xC PUSH1 0x20 MSTORE PUSH1 0x40 SWAP1 KECCAK256 PUSH1 0x5 ADD SLOAD GT ISZERO PUSH2 0xB16 JUMPI POP PUSH1 0x2 PUSH2 0x608 JUMP JUMPDEST PUSH1 0x1 PUSH1 0x1 PUSH1 0xA0 SHL SUB DUP3 AND PUSH1 0x0 SWAP1 DUP2 MSTORE PUSH1 0xC PUSH1 0x20 MSTORE PUSH1 0x40 SWAP1 KECCAK256 PUSH1 0x4 ADD SLOAD PUSH2 0xB3A PUSH2 0xABD JUMP JUMPDEST LT ISZERO PUSH2 0x5EC JUMPI PUSH1 0x1 PUSH2 0x5EF JUMP JUMPDEST CALLER PUSH2 0xB52 PUSH1 0x2 PUSH2 0x657 JUMP JUMPDEST PUSH2 0xB5B CALLER PUSH2 0xFC1 JUMP JUMPDEST PUSH1 0x0 PUSH2 0xB65 PUSH2 0x944 JUMP JUMPDEST ISZERO PUSH2 0xB85 JUMPI PUSH2 0xB80 PUSH2 0xB75 PUSH2 0x944 JUMP JUMPDEST PUSH2 0x6C7 PUSH2 0x6BA PUSH2 0x63A JUMP JUMPDEST PUSH2 0xB9D JUMP JUMPDEST PUSH2 0xB9D PUSH2 0xB90 PUSH2 0x126B JUMP JUMPDEST DUP5 SWAP1 PUSH4 0xFFFFFFFF PUSH2 0xFF3 AND JUMP JUMPDEST SWAP1 POP PUSH2 0xBA9 CALLER DUP3 PUSH2 0x1272 JUMP JUMPDEST PUSH2 0xBB2 DUP4 PUSH2 0x131A JUMP JUMPDEST PUSH2 0xBD5 CALLER DUP5 PUSH1 0x40 MLOAD DUP1 PUSH1 0x60 ADD PUSH1 0x40 MSTORE DUP1 PUSH1 0x24 DUP2 MSTORE PUSH1 0x20 ADD PUSH2 0x1946 PUSH1 0x24 SWAP2 CODECOPY PUSH2 0x11B6 JUMP JUMPDEST CALLER PUSH32 0x44002FDEF5A0C2D2E4E05572E9780B95AEF97E0E93FFD7CC076B09FA78FF2B46 PUSH2 0xC04 PUSH1 0x1 PUSH2 0x770 PUSH2 0xABD JUMP JUMPDEST DUP4 DUP7 PUSH1 0x40 MLOAD PUSH2 0x78D SWAP4 SWAP3 SWAP2 SWAP1 PUSH2 0x1849 JUMP JUMPDEST PUSH1 0x8 SLOAD SWAP1 JUMP JUMPDEST PUSH1 0x1 PUSH1 0x1 PUSH1 0xA0 SHL SUB AND PUSH1 0x0 SWAP1 DUP2 MSTORE PUSH1 0xC PUSH1 0x20 MSTORE PUSH1 0x40 SWAP1 KECCAK256 PUSH1 0x5 ADD SLOAD SWAP1 JUMP JUMPDEST PUSH1 0x1 PUSH1 0x1 PUSH1 0xA0 SHL SUB SWAP2 DUP3 AND PUSH1 0x0 SWAP1 DUP2 MSTORE PUSH1 0xC PUSH1 0x20 SWAP1 DUP2 MSTORE PUSH1 0x40 DUP1 DUP4 KECCAK256 SWAP4 SWAP1 SWAP5 AND DUP3 MSTORE PUSH1 0x3 SWAP1 SWAP3 ADD SWAP1 SWAP2 MSTORE KECCAK256 SLOAD SWAP1 JUMP JUMPDEST PUSH1 0x0 PUSH2 0x5EF PUSH2 0xC76 DUP4 PUSH2 0x8D6 JUMP JUMPDEST PUSH2 0x770 DUP5 PUSH2 0x9EF JUMP JUMPDEST PUSH1 0x0 PUSH2 0xD10 PUSH2 0xC8C PUSH2 0xF46 JUMP JUMPDEST PUSH2 0xC94 PUSH2 0x99D JUMP JUMPDEST PUSH1 0x1 PUSH1 0x1 PUSH1 0xA0 SHL SUB AND PUSH4 0x18160DDD PUSH1 0x40 MLOAD DUP2 PUSH4 0xFFFFFFFF AND PUSH1 0xE0 SHL DUP2 MSTORE PUSH1 0x4 ADD PUSH1 0x20 PUSH1 0x40 MLOAD DUP1 DUP4 SUB DUP2 DUP7 DUP1 EXTCODESIZE ISZERO DUP1 ISZERO PUSH2 0xCCC JUMPI PUSH1 0x0 DUP1 REVERT JUMPDEST POP GAS STATICCALL ISZERO DUP1 ISZERO PUSH2 0xCE0 JUMPI RETURNDATASIZE PUSH1 0x0 DUP1 RETURNDATACOPY RETURNDATASIZE PUSH1 0x0 REVERT JUMPDEST POP POP POP POP PUSH1 0x40 MLOAD RETURNDATASIZE PUSH1 0x1F NOT PUSH1 0x1F DUP3 ADD AND DUP3 ADD DUP1 PUSH1 0x40 MSTORE POP PUSH2 0xD04 SWAP2 SWAP1 DUP2 ADD SWAP1 PUSH2 0x15C7 JUMP JUMPDEST SWAP1 PUSH4 0xFFFFFFFF PUSH2 0x1333 AND JUMP JUMPDEST SWAP1 POP SWAP1 JUMP JUMPDEST PUSH2 0xD1D PUSH2 0x99D JUMP JUMPDEST PUSH1 0x1 PUSH1 0x1 PUSH1 0xA0 SHL SUB AND PUSH4 0x23B872DD CALLER ADDRESS DUP5 PUSH1 0x40 MLOAD DUP5 PUSH4 0xFFFFFFFF AND PUSH1 0xE0 SHL DUP2 MSTORE PUSH1 0x4 ADD PUSH2 0xD4C SWAP4 SWAP3 SWAP2 SWAP1 PUSH2 0x179D JUMP JUMPDEST PUSH1 0x20 PUSH1 0x40 MLOAD DUP1 DUP4 SUB DUP2 PUSH1 0x0 DUP8 DUP1 EXTCODESIZE ISZERO DUP1 ISZERO PUSH2 0xD66 JUMPI PUSH1 0x0 DUP1 REVERT JUMPDEST POP GAS CALL ISZERO DUP1 ISZERO PUSH2 0xD7A JUMPI RETURNDATASIZE PUSH1 0x0 DUP1 RETURNDATACOPY RETURNDATASIZE PUSH1 0x0 REVERT JUMPDEST POP POP POP POP PUSH1 0x40 MLOAD RETURNDATASIZE PUSH1 0x1F NOT PUSH1 0x1F DUP3 ADD AND DUP3 ADD DUP1 PUSH1 0x40 MSTORE POP PUSH2 0xD9E SWAP2 SWAP1 DUP2 ADD SWAP1 PUSH2 0x158B JUMP JUMPDEST POP PUSH2 0xDA9 CALLER DUP3 PUSH2 0x106F JUMP JUMPDEST CALLER PUSH1 0x1 PUSH1 0x1 PUSH1 0xA0 SHL SUB AND PUSH32 0xE1FFFCC4923D04B559F4D29A8BFC6CDA04EB5B0D3C460751C2402C5C5CC9109C DUP3 PUSH1 0x40 MLOAD PUSH2 0xDE2 SWAP2 SWAP1 PUSH2 0x183B JUMP JUMPDEST PUSH1 0x40 MLOAD DUP1 SWAP2 SUB SWAP1 LOG2 POP JUMP JUMPDEST PUSH1 0x0 PUSH2 0xDF8 DUP3 PUSH2 0xE31 JUMP JUMPDEST PUSH2 0xE04 JUMPI POP PUSH1 0x0 PUSH2 0x5EF JUMP JUMPDEST POP PUSH1 0x1 PUSH1 0x1 PUSH1 0xA0 SHL SUB SWAP2 SWAP1 SWAP2 AND PUSH1 0x0 SWAP1 DUP2 MSTORE PUSH1 0xC PUSH1 0x20 SWAP1 DUP2 MSTORE PUSH1 0x40 DUP1 DUP4 KECCAK256 SWAP4 DUP4 MSTORE PUSH1 0x2 SWAP1 SWAP4 ADD SWAP1 MSTORE KECCAK256 SLOAD SWAP1 JUMP JUMPDEST PUSH1 0x0 SWAP1 DUP2 MSTORE PUSH1 0xD PUSH1 0x20 MSTORE PUSH1 0x40 SWAP1 KECCAK256 PUSH1 0x1 ADD SLOAD SWAP1 JUMP JUMPDEST PUSH1 0x5 SLOAD SWAP1 JUMP JUMPDEST PUSH1 0x1 PUSH1 0x1 PUSH1 0xA0 SHL SUB AND PUSH1 0x0 SWAP1 DUP2 MSTORE PUSH1 0xE PUSH1 0x20 MSTORE PUSH1 0x40 SWAP1 KECCAK256 PUSH1 0x5 ADD SLOAD PUSH1 0xFF AND SWAP1 JUMP JUMPDEST CALLER PUSH2 0xE78 PUSH1 0x2 PUSH2 0x657 JUMP JUMPDEST PUSH2 0xE81 CALLER PUSH2 0xFC1 JUMP JUMPDEST PUSH1 0x0 PUSH2 0xE8E PUSH2 0xB75 PUSH2 0x944 JUMP JUMPDEST SWAP1 POP PUSH2 0xE9A CALLER DUP5 PUSH2 0x106F JUMP JUMPDEST PUSH2 0xEBC DUP4 PUSH1 0x40 MLOAD DUP1 PUSH1 0x60 ADD PUSH1 0x40 MSTORE DUP1 PUSH1 0x22 DUP2 MSTORE PUSH1 0x20 ADD PUSH2 0x196A PUSH1 0x22 SWAP2 CODECOPY PUSH2 0x10CB JUMP JUMPDEST PUSH2 0xEFC CALLER DUP3 PUSH1 0x40 MLOAD DUP1 PUSH1 0x40 ADD PUSH1 0x40 MSTORE DUP1 PUSH1 0x1D DUP2 MSTORE PUSH1 0x20 ADD PUSH32 0x426F6E64696E673A20696E73756666696369656E742062616C616E6365000000 DUP2 MSTORE POP PUSH2 0x10E6 JUMP JUMPDEST CALLER PUSH32 0x93530AC0EE8C50E696E13C5AC62355D0C0BA4BD943620D5BDA1EB08B64AE7512 PUSH2 0xC04 PUSH1 0x1 PUSH2 0x770 PUSH2 0xABD JUMP JUMPDEST PUSH1 0x1 PUSH1 0x1 PUSH1 0xA0 SHL SUB AND PUSH1 0x0 SWAP1 DUP2 MSTORE PUSH1 0xE PUSH1 0x20 MSTORE PUSH1 0x40 SWAP1 KECCAK256 SLOAD SWAP1 JUMP JUMPDEST PUSH1 0x7 SLOAD SWAP1 JUMP JUMPDEST PUSH1 0x0 SWAP1 DUP2 MSTORE PUSH1 0xD PUSH1 0x20 MSTORE PUSH1 0x40 SWAP1 KECCAK256 SLOAD SWAP1 JUMP JUMPDEST DUP3 PUSH2 0xFBC JUMPI PUSH2 0xF6C DUP3 PUSH2 0x1375 JUMP JUMPDEST PUSH2 0x1D1 PUSH1 0xF5 SHL PUSH2 0xF7B DUP4 PUSH2 0x1375 JUMP JUMPDEST PUSH1 0x40 MLOAD PUSH1 0x20 ADD PUSH2 0xF8D SWAP4 SWAP3 SWAP2 SWAP1 PUSH2 0x175E JUMP JUMPDEST PUSH1 0x40 DUP1 MLOAD PUSH1 0x1F NOT DUP2 DUP5 SUB ADD DUP2 MSTORE SWAP1 DUP3 SWAP1 MSTORE PUSH3 0x461BCD PUSH1 0xE5 SHL DUP3 MSTORE PUSH2 0xFB3 SWAP2 PUSH1 0x4 ADD PUSH2 0x180A JUMP JUMPDEST PUSH1 0x40 MLOAD DUP1 SWAP2 SUB SWAP1 REVERT JUMPDEST POP POP POP JUMP JUMPDEST PUSH2 0xFD4 PUSH2 0xFCC PUSH2 0x13F5 JUMP JUMPDEST PUSH2 0x770 PUSH2 0xABD JUMP JUMPDEST PUSH1 0x1 PUSH1 0x1 PUSH1 0xA0 SHL SUB SWAP1 SWAP2 AND PUSH1 0x0 SWAP1 DUP2 MSTORE PUSH1 0xC PUSH1 0x20 MSTORE PUSH1 0x40 SWAP1 KECCAK256 PUSH1 0x4 ADD SSTORE JUMP JUMPDEST PUSH1 0x0 DUP3 PUSH2 0x1002 JUMPI POP PUSH1 0x0 PUSH2 0x5EF JUMP JUMPDEST DUP3 DUP3 MUL DUP3 DUP5 DUP3 DUP2 PUSH2 0x100F JUMPI INVALID JUMPDEST DIV EQ PUSH2 0x649 JUMPI PUSH1 0x40 MLOAD PUSH3 0x461BCD PUSH1 0xE5 SHL DUP2 MSTORE PUSH1 0x4 ADD PUSH2 0xFB3 SWAP1 PUSH2 0x182B JUMP JUMPDEST PUSH1 0x0 PUSH2 0x649 DUP4 DUP4 PUSH1 0x40 MLOAD DUP1 PUSH1 0x40 ADD PUSH1 0x40 MSTORE DUP1 PUSH1 0x1A DUP2 MSTORE PUSH1 0x20 ADD PUSH32 0x536166654D6174683A206469766973696F6E206279207A65726F000000000000 DUP2 MSTORE POP PUSH2 0x13FA JUMP JUMPDEST PUSH1 0x1 PUSH1 0x1 PUSH1 0xA0 SHL SUB DUP3 AND PUSH1 0x0 SWAP1 DUP2 MSTORE PUSH1 0xC PUSH1 0x20 MSTORE PUSH1 0x40 SWAP1 KECCAK256 SLOAD PUSH2 0x1098 SWAP1 DUP3 PUSH4 0xFFFFFFFF PUSH2 0x1191 AND JUMP JUMPDEST PUSH1 0x1 PUSH1 0x1 PUSH1 0xA0 SHL SUB DUP4 AND PUSH1 0x0 SWAP1 DUP2 MSTORE PUSH1 0xC PUSH1 0x20 MSTORE PUSH1 0x40 SWAP1 KECCAK256 SSTORE PUSH1 0x5 SLOAD PUSH2 0x10C4 SWAP1 DUP3 PUSH4 0xFFFFFFFF PUSH2 0x1191 AND JUMP JUMPDEST PUSH1 0x5 SSTORE POP POP JUMP JUMPDEST PUSH1 0x4 SLOAD PUSH2 0x10DF SWAP1 DUP4 DUP4 PUSH4 0xFFFFFFFF PUSH2 0x1431 AND JUMP JUMPDEST PUSH1 0x4 SSTORE POP POP JUMP JUMPDEST PUSH1 0x1 PUSH1 0x1 PUSH1 0xA0 SHL SUB DUP4 AND PUSH1 0x0 SWAP1 DUP2 MSTORE PUSH1 0xC PUSH1 0x20 MSTORE PUSH1 0x40 SWAP1 KECCAK256 PUSH1 0x1 ADD SLOAD PUSH2 0x1113 SWAP1 DUP4 DUP4 PUSH4 0xFFFFFFFF PUSH2 0x1431 AND JUMP JUMPDEST PUSH1 0x1 PUSH1 0x1 PUSH1 0xA0 SHL SUB DUP5 AND PUSH1 0x0 SWAP1 DUP2 MSTORE PUSH1 0xC PUSH1 0x20 MSTORE PUSH1 0x40 SWAP1 KECCAK256 PUSH1 0x1 ADD SSTORE PUSH1 0x3 SLOAD PUSH2 0x1143 SWAP1 DUP4 DUP4 PUSH4 0xFFFFFFFF PUSH2 0x1431 AND JUMP JUMPDEST PUSH1 0x3 SSTORE PUSH1 0x40 MLOAD PUSH1 0x0 SWAP1 PUSH1 0x1 PUSH1 0x1 PUSH1 0xA0 SHL SUB DUP6 AND SWAP1 PUSH32 0xDDF252AD1BE2C89B69C2B068FC378DAA952BA7F163C4A11628F55A4DF523B3EF SWAP1 PUSH2 0x1184 SWAP1 DUP7 SWAP1 PUSH2 0x183B JUMP JUMPDEST PUSH1 0x40 MLOAD DUP1 SWAP2 SUB SWAP1 LOG3 POP POP POP JUMP JUMPDEST PUSH1 0x0 DUP3 DUP3 ADD DUP4 DUP2 LT ISZERO PUSH2 0x649 JUMPI PUSH1 0x40 MLOAD PUSH3 0x461BCD PUSH1 0xE5 SHL DUP2 MSTORE PUSH1 0x4 ADD PUSH2 0xFB3 SWAP1 PUSH2 0x181B JUMP JUMPDEST PUSH1 0x1 PUSH1 0x1 PUSH1 0xA0 SHL SUB DUP4 AND PUSH1 0x0 SWAP1 DUP2 MSTORE PUSH1 0xC PUSH1 0x20 MSTORE PUSH1 0x40 SWAP1 KECCAK256 SLOAD PUSH2 0x11E0 SWAP1 DUP4 DUP4 PUSH4 0xFFFFFFFF PUSH2 0x1431 AND JUMP JUMPDEST PUSH1 0x1 PUSH1 0x1 PUSH1 0xA0 SHL SUB DUP5 AND PUSH1 0x0 SWAP1 DUP2 MSTORE PUSH1 0xC PUSH1 0x20 MSTORE PUSH1 0x40 SWAP1 KECCAK256 SSTORE PUSH1 0x5 SLOAD PUSH2 0x120D SWAP1 DUP4 DUP4 PUSH4 0xFFFFFFFF PUSH2 0x1431 AND JUMP JUMPDEST PUSH1 0x5 SSTORE POP POP POP JUMP JUMPDEST PUSH2 0x121D PUSH2 0x1461 JUMP JUMPDEST PUSH1 0x40 MLOAD DUP1 PUSH1 0x60 ADD PUSH1 0x40 MSTORE DUP1 PUSH1 0x0 DUP2 MSTORE PUSH1 0x20 ADD PUSH4 0x5FBEF000 DUP2 MSTORE PUSH1 0x20 ADD PUSH2 0x1C20 DUP2 MSTORE POP SWAP1 POP SWAP1 JUMP JUMPDEST PUSH1 0x0 PUSH2 0x5EF DUP3 PUSH1 0x0 ADD MLOAD PUSH2 0x770 DUP5 PUSH1 0x40 ADD MLOAD PUSH2 0x6C7 DUP7 PUSH1 0x20 ADD MLOAD PUSH2 0xD04 PUSH2 0x145D JUMP JUMPDEST PUSH1 0x96 SWAP1 JUMP JUMPDEST PUSH3 0xF4240 SWAP1 JUMP JUMPDEST PUSH1 0x1 PUSH1 0x1 PUSH1 0xA0 SHL SUB DUP3 AND PUSH1 0x0 SWAP1 DUP2 MSTORE PUSH1 0xC PUSH1 0x20 MSTORE PUSH1 0x40 SWAP1 KECCAK256 PUSH1 0x1 ADD SLOAD PUSH2 0x129E SWAP1 DUP3 PUSH4 0xFFFFFFFF PUSH2 0x1191 AND JUMP JUMPDEST PUSH1 0x1 PUSH1 0x1 PUSH1 0xA0 SHL SUB DUP4 AND PUSH1 0x0 SWAP1 DUP2 MSTORE PUSH1 0xC PUSH1 0x20 MSTORE PUSH1 0x40 SWAP1 KECCAK256 PUSH1 0x1 ADD SSTORE PUSH1 0x3 SLOAD PUSH2 0x12CD SWAP1 DUP3 PUSH4 0xFFFFFFFF PUSH2 0x1191 AND JUMP JUMPDEST PUSH1 0x3 SSTORE PUSH1 0x40 MLOAD PUSH1 0x1 PUSH1 0x1 PUSH1 0xA0 SHL SUB DUP4 AND SWAP1 PUSH1 0x0 SWAP1 PUSH32 0xDDF252AD1BE2C89B69C2B068FC378DAA952BA7F163C4A11628F55A4DF523B3EF SWAP1 PUSH2 0x130E SWAP1 DUP6 SWAP1 PUSH2 0x183B JUMP JUMPDEST PUSH1 0x40 MLOAD DUP1 SWAP2 SUB SWAP1 LOG3 POP POP JUMP JUMPDEST PUSH1 0x4 SLOAD PUSH2 0x132D SWAP1 DUP3 PUSH4 0xFFFFFFFF PUSH2 0x1191 AND JUMP JUMPDEST PUSH1 0x4 SSTORE POP JUMP JUMPDEST PUSH1 0x0 PUSH2 0x649 DUP4 DUP4 PUSH1 0x40 MLOAD DUP1 PUSH1 0x40 ADD PUSH1 0x40 MSTORE DUP1 PUSH1 0x1E DUP2 MSTORE PUSH1 0x20 ADD PUSH32 0x536166654D6174683A207375627472616374696F6E206F766572666C6F770000 DUP2 MSTORE POP PUSH2 0x1431 JUMP JUMPDEST PUSH1 0x60 DUP1 DUP3 PUSH1 0x40 MLOAD PUSH1 0x20 ADD PUSH2 0x1389 SWAP2 SWAP1 PUSH2 0x1749 JUMP JUMPDEST PUSH1 0x40 DUP1 MLOAD PUSH1 0x1F NOT DUP2 DUP5 SUB ADD DUP2 MSTORE SWAP2 SWAP1 MSTORE SWAP1 POP PUSH1 0x20 JUMPDEST DUP1 ISZERO PUSH2 0x13DE JUMPI DUP2 MLOAD PUSH1 0x0 NOT SWAP1 SWAP2 ADD SWAP1 DUP3 SWAP1 DUP3 SWAP1 DUP2 LT PUSH2 0x13B9 JUMPI INVALID JUMPDEST ADD PUSH1 0x20 ADD MLOAD PUSH1 0x1 PUSH1 0x1 PUSH1 0xF8 SHL SUB NOT AND ISZERO PUSH2 0x13D9 JUMPI PUSH1 0x1 ADD DUP2 MSTORE SWAP1 POP PUSH2 0x608 JUMP JUMPDEST PUSH2 0x139E JUMP JUMPDEST POP POP PUSH1 0x40 DUP1 MLOAD PUSH1 0x0 DUP2 MSTORE PUSH1 0x20 DUP2 ADD SWAP1 SWAP2 MSTORE SWAP3 SWAP2 POP POP JUMP JUMPDEST PUSH1 0x24 SWAP1 JUMP JUMPDEST PUSH1 0x0 DUP2 DUP4 PUSH2 0x141B JUMPI PUSH1 0x40 MLOAD PUSH3 0x461BCD PUSH1 0xE5 SHL DUP2 MSTORE PUSH1 0x4 ADD PUSH2 0xFB3 SWAP2 SWAP1 PUSH2 0x180A JUMP JUMPDEST POP PUSH1 0x0 DUP4 DUP6 DUP2 PUSH2 0x1427 JUMPI INVALID JUMPDEST DIV SWAP6 SWAP5 POP POP POP POP POP JUMP JUMPDEST PUSH1 0x0 DUP2 DUP5 DUP5 GT ISZERO PUSH2 0x1455 JUMPI PUSH1 0x40 MLOAD PUSH3 0x461BCD PUSH1 0xE5 SHL DUP2 MSTORE PUSH1 0x4 ADD PUSH2 0xFB3 SWAP2 SWAP1 PUSH2 0x180A JUMP JUMPDEST POP POP POP SWAP1 SUB SWAP1 JUMP JUMPDEST TIMESTAMP SWAP1 JUMP JUMPDEST PUSH1 0x40 MLOAD DUP1 PUSH1 0x60 ADD PUSH1 0x40 MSTORE DUP1 PUSH1 0x0 DUP2 MSTORE PUSH1 0x20 ADD PUSH1 0x0 DUP2 MSTORE PUSH1 0x20 ADD PUSH1 0x0 DUP2 MSTORE POP SWAP1 JUMP JUMPDEST DUP1 CALLDATALOAD PUSH2 0x5EF DUP2 PUSH2 0x191F JUMP JUMPDEST DUP1 MLOAD PUSH2 0x5EF DUP2 PUSH2 0x1933 JUMP JUMPDEST DUP1 CALLDATALOAD PUSH2 0x5EF DUP2 PUSH2 0x193C JUMP JUMPDEST DUP1 MLOAD PUSH2 0x5EF DUP2 PUSH2 0x193C JUMP JUMPDEST PUSH1 0x0 PUSH1 0x20 DUP3 DUP5 SUB SLT ISZERO PUSH2 0x14C0 JUMPI PUSH1 0x0 DUP1 REVERT JUMPDEST PUSH1 0x0 PUSH2 0x14CC DUP5 DUP5 PUSH2 0x1482 JUMP JUMPDEST SWAP5 SWAP4 POP POP POP POP JUMP JUMPDEST PUSH1 0x0 DUP1 PUSH1 0x40 DUP4 DUP6 SUB SLT ISZERO PUSH2 0x14E7 JUMPI PUSH1 0x0 DUP1 REVERT JUMPDEST PUSH1 0x0 PUSH2 0x14F3 DUP6 DUP6 PUSH2 0x1482 JUMP JUMPDEST SWAP3 POP POP PUSH1 0x20 PUSH2 0x1504 DUP6 DUP3 DUP7 ADD PUSH2 0x1482 JUMP JUMPDEST SWAP2 POP POP SWAP3 POP SWAP3 SWAP1 POP JUMP JUMPDEST PUSH1 0x0 DUP1 PUSH1 0x0 PUSH1 0x60 DUP5 DUP7 SUB SLT ISZERO PUSH2 0x1523 JUMPI PUSH1 0x0 DUP1 REVERT JUMPDEST PUSH1 0x0 PUSH2 0x152F DUP7 DUP7 PUSH2 0x1482 JUMP JUMPDEST SWAP4 POP POP PUSH1 0x20 PUSH2 0x1540 DUP7 DUP3 DUP8 ADD PUSH2 0x1482 JUMP JUMPDEST SWAP3 POP POP PUSH1 0x40 PUSH2 0x1551 DUP7 DUP3 DUP8 ADD PUSH2 0x1498 JUMP JUMPDEST SWAP2 POP POP SWAP3 POP SWAP3 POP SWAP3 JUMP JUMPDEST PUSH1 0x0 DUP1 PUSH1 0x40 DUP4 DUP6 SUB SLT ISZERO PUSH2 0x156E JUMPI PUSH1 0x0 DUP1 REVERT JUMPDEST PUSH1 0x0 PUSH2 0x157A DUP6 DUP6 PUSH2 0x1482 JUMP JUMPDEST SWAP3 POP POP PUSH1 0x20 PUSH2 0x1504 DUP6 DUP3 DUP7 ADD PUSH2 0x1498 JUMP JUMPDEST PUSH1 0x0 PUSH1 0x20 DUP3 DUP5 SUB SLT ISZERO PUSH2 0x159D JUMPI PUSH1 0x0 DUP1 REVERT JUMPDEST PUSH1 0x0 PUSH2 0x14CC DUP5 DUP5 PUSH2 0x148D JUMP JUMPDEST PUSH1 0x0 PUSH1 0x20 DUP3 DUP5 SUB SLT ISZERO PUSH2 0x15BB JUMPI PUSH1 0x0 DUP1 REVERT JUMPDEST PUSH1 0x0 PUSH2 0x14CC DUP5 DUP5 PUSH2 0x1498 JUMP JUMPDEST PUSH1 0x0 PUSH1 0x20 DUP3 DUP5 SUB SLT ISZERO PUSH2 0x15D9 JUMPI PUSH1 0x0 DUP1 REVERT JUMPDEST PUSH1 0x0 PUSH2 0x14CC DUP5 DUP5 PUSH2 0x14A3 JUMP JUMPDEST PUSH1 0x0 DUP1 PUSH1 0x40 DUP4 DUP6 SUB SLT ISZERO PUSH2 0x15F8 JUMPI PUSH1 0x0 DUP1 REVERT JUMPDEST PUSH1 0x0 PUSH2 0x157A DUP6 DUP6 PUSH2 0x1498 JUMP JUMPDEST PUSH2 0x160D DUP2 PUSH2 0x18BB JUMP JUMPDEST DUP3 MSTORE POP POP JUMP JUMPDEST PUSH2 0x160D DUP2 PUSH2 0x187F JUMP JUMPDEST PUSH2 0x160D DUP2 PUSH2 0x188A JUMP JUMPDEST PUSH2 0x160D PUSH2 0x1631 DUP3 PUSH2 0x188F JUMP JUMPDEST PUSH2 0x189C JUMP JUMPDEST PUSH2 0x160D PUSH2 0x1631 DUP3 PUSH2 0x189C JUMP JUMPDEST PUSH1 0x0 PUSH2 0x164D DUP3 PUSH2 0x1872 JUMP JUMPDEST PUSH2 0x1657 DUP2 DUP6 PUSH2 0x608 JUMP JUMPDEST SWAP4 POP PUSH2 0x1667 DUP2 DUP6 PUSH1 0x20 DUP7 ADD PUSH2 0x18D8 JUMP JUMPDEST SWAP3 SWAP1 SWAP3 ADD SWAP3 SWAP2 POP POP JUMP JUMPDEST PUSH2 0x160D DUP2 PUSH2 0x18C2 JUMP JUMPDEST PUSH2 0x160D DUP2 PUSH2 0x18CD JUMP JUMPDEST PUSH1 0x0 PUSH2 0x168E DUP3 PUSH2 0x1872 JUMP JUMPDEST PUSH2 0x1698 DUP2 DUP6 PUSH2 0x1876 JUMP JUMPDEST SWAP4 POP PUSH2 0x16A8 DUP2 DUP6 PUSH1 0x20 DUP7 ADD PUSH2 0x18D8 JUMP JUMPDEST PUSH2 0x16B1 DUP2 PUSH2 0x1908 JUMP JUMPDEST SWAP1 SWAP4 ADD SWAP4 SWAP3 POP POP POP JUMP JUMPDEST PUSH1 0x0 PUSH2 0x16C8 PUSH1 0x1B DUP4 PUSH2 0x1876 JUMP JUMPDEST PUSH32 0x536166654D6174683A206164646974696F6E206F766572666C6F770000000000 DUP2 MSTORE PUSH1 0x20 ADD SWAP3 SWAP2 POP POP JUMP JUMPDEST PUSH1 0x0 PUSH2 0x1701 PUSH1 0x21 DUP4 PUSH2 0x1876 JUMP JUMPDEST PUSH32 0x536166654D6174683A206D756C7469706C69636174696F6E206F766572666C6F DUP2 MSTORE PUSH1 0x77 PUSH1 0xF8 SHL PUSH1 0x20 DUP3 ADD MSTORE PUSH1 0x40 ADD SWAP3 SWAP2 POP POP JUMP JUMPDEST PUSH2 0x160D DUP2 PUSH2 0x189C JUMP JUMPDEST PUSH2 0x160D DUP2 PUSH2 0x18B5 JUMP JUMPDEST PUSH1 0x0 PUSH2 0x1755 DUP3 DUP5 PUSH2 0x1636 JUMP JUMPDEST POP PUSH1 0x20 ADD SWAP2 SWAP1 POP JUMP JUMPDEST PUSH1 0x0 PUSH2 0x176A DUP3 DUP7 PUSH2 0x1642 JUMP JUMPDEST SWAP2 POP PUSH2 0x1776 DUP3 DUP6 PUSH2 0x1625 JUMP JUMPDEST PUSH1 0x2 DUP3 ADD SWAP2 POP PUSH2 0x1786 DUP3 DUP5 PUSH2 0x1642 JUMP JUMPDEST SWAP6 SWAP5 POP POP POP POP POP JUMP JUMPDEST PUSH1 0x20 DUP2 ADD PUSH2 0x5EF DUP3 DUP5 PUSH2 0x1613 JUMP JUMPDEST PUSH1 0x60 DUP2 ADD PUSH2 0x17AB DUP3 DUP7 PUSH2 0x1604 JUMP JUMPDEST PUSH2 0x17B8 PUSH1 0x20 DUP4 ADD DUP6 PUSH2 0x1613 JUMP JUMPDEST PUSH2 0x14CC PUSH1 0x40 DUP4 ADD DUP5 PUSH2 0x1737 JUMP JUMPDEST PUSH1 0x40 DUP2 ADD PUSH2 0x17D3 DUP3 DUP6 PUSH2 0x1604 JUMP JUMPDEST PUSH2 0x649 PUSH1 0x20 DUP4 ADD DUP5 PUSH2 0x1737 JUMP JUMPDEST PUSH1 0x20 DUP2 ADD PUSH2 0x5EF DUP3 DUP5 PUSH2 0x161C JUMP JUMPDEST PUSH1 0x20 DUP2 ADD PUSH2 0x5EF DUP3 DUP5 PUSH2 0x1671 JUMP JUMPDEST PUSH1 0x20 DUP2 ADD PUSH2 0x5EF DUP3 DUP5 PUSH2 0x167A JUMP JUMPDEST PUSH1 0x20 DUP1 DUP3 MSTORE DUP2 ADD PUSH2 0x649 DUP2 DUP5 PUSH2 0x1683 JUMP JUMPDEST PUSH1 0x20 DUP1 DUP3 MSTORE DUP2 ADD PUSH2 0x5EF DUP2 PUSH2 0x16BB JUMP JUMPDEST PUSH1 0x20 DUP1 DUP3 MSTORE DUP2 ADD PUSH2 0x5EF DUP2 PUSH2 0x16F4 JUMP JUMPDEST PUSH1 0x20 DUP2 ADD PUSH2 0x5EF DUP3 DUP5 PUSH2 0x1737 JUMP JUMPDEST PUSH1 0x60 DUP2 ADD PUSH2 0x1857 DUP3 DUP7 PUSH2 0x1737 JUMP JUMPDEST PUSH2 0x17B8 PUSH1 0x20 DUP4 ADD DUP6 PUSH2 0x1737 JUMP JUMPDEST PUSH1 0x20 DUP2 ADD PUSH2 0x5EF DUP3 DUP5 PUSH2 0x1740 JUMP JUMPDEST MLOAD SWAP1 JUMP JUMPDEST SWAP1 DUP2 MSTORE PUSH1 0x20 ADD SWAP1 JUMP JUMPDEST PUSH1 0x0 PUSH2 0x5EF DUP3 PUSH2 0x18A9 JUMP JUMPDEST ISZERO ISZERO SWAP1 JUMP JUMPDEST PUSH1 0x1 PUSH1 0x1 PUSH1 0xF0 SHL SUB NOT AND SWAP1 JUMP JUMPDEST SWAP1 JUMP JUMPDEST DUP1 PUSH2 0x608 DUP2 PUSH2 0x1912 JUMP JUMPDEST PUSH1 0x1 PUSH1 0x1 PUSH1 0xA0 SHL SUB AND SWAP1 JUMP JUMPDEST PUSH1 0xFF AND SWAP1 JUMP JUMPDEST PUSH1 0x0 PUSH2 0x5EF DUP3 JUMPDEST PUSH1 0x0 PUSH2 0x5EF DUP3 PUSH2 0x187F JUMP JUMPDEST PUSH1 0x0 PUSH2 0x5EF DUP3 PUSH2 0x189F JUMP JUMPDEST PUSH1 0x0 JUMPDEST DUP4 DUP2 LT ISZERO PUSH2 0x18F3 JUMPI DUP2 DUP2 ADD MLOAD DUP4 DUP3 ADD MSTORE PUSH1 0x20 ADD PUSH2 0x18DB JUMP JUMPDEST DUP4 DUP2 GT ISZERO PUSH2 0x1902 JUMPI PUSH1 0x0 DUP5 DUP5 ADD MSTORE JUMPDEST POP POP POP POP JUMP JUMPDEST PUSH1 0x1F ADD PUSH1 0x1F NOT AND SWAP1 JUMP JUMPDEST PUSH1 0x3 DUP2 LT PUSH2 0x191C JUMPI INVALID JUMPDEST POP JUMP JUMPDEST PUSH2 0x1928 DUP2 PUSH2 0x187F JUMP JUMPDEST DUP2 EQ PUSH2 0x191C JUMPI PUSH1 0x0 DUP1 REVERT JUMPDEST PUSH2 0x1928 DUP2 PUSH2 0x188A JUMP JUMPDEST PUSH2 0x1928 DUP2 PUSH2 0x189C JUMP INVALID TIMESTAMP PUSH16 0x6E64696E673A20696E73756666696369 PUSH6 0x6E7420737461 PUSH8 0x65642062616C616E PUSH4 0x65426F6E PUSH5 0x696E673A20 PUSH10 0x6E73756666696369656E PUSH21 0x20746F74616C20626F6E646564A365627A7A723158 KECCAK256 MSTORE8 0x2D 0xD5 PUSH7 0x83F6F52912A80D PUSH4 0x22436BF9 0xE7 0xE1 0xC2 DUP3 DUP11 0xBB CHAINID GAS SWAP12 0x21 PUSH17 0xE841C575876C6578706572696D656E7461 PUSH13 0xF564736F6C6343000511004000 "
		},
		"gasEstimates": {
			"creation": {
				"codeDepositCost": "1321200",
				"executionCost": "1376",
				"totalCost": "1322576"
			},
			"external": {
				"allowance(address,address)": "infinite",
				"allowanceCoupons(address,address)": "infinite",
				"approve(address,uint256)": "infinite",
				"approveFor(address)": "infinite",
				"balanceOf(address)": "infinite",
				"balanceOfBonded(address)": "infinite",
				"balanceOfCoupons(address,uint256)": "infinite",
				"balanceOfStaged(address)": "infinite",
				"bond(uint256)": "infinite",
				"bootstrappingAt(uint256)": "infinite",
				"couponsExpiration(uint256)": "infinite",
				"decimals()": "461",
				"deposit(uint256)": "infinite",
				"dollar()": "infinite",
				"epoch()": "1233",
				"epochTime()": "infinite",
				"expiringCoupons(uint256)": "infinite",
				"expiringCouponsAtIndex(uint256,uint256)": "infinite",
				"fluidUntil(address)": "infinite",
				"implementation()": "infinite",
				"isInitialized(address)": "infinite",
				"isNominated(address)": "infinite",
				"lockedUntil(address)": "infinite",
				"name()": "infinite",
				"oracle()": "infinite",
				"outstandingCoupons(uint256)": "infinite",
				"periodFor(address)": "infinite",
				"pool()": "infinite",
				"recordedVote(address,address)": "infinite",
				"rejectFor(address)": "infinite",
				"startFor(address)": "infinite",
				"statusOf(address)": "infinite",
				"symbol()": "infinite",
				"totalBonded()": "1211",
				"totalBondedAt(uint256)": "infinite",
				"totalCoupons()": "1188",
				"totalDebt()": "1231",
				"totalNet()": "infinite",
				"totalRedeemable()": "1167",
				"totalStaged()": "1254",
				"totalSupply()": "1145",
				"transfer(address,uint256)": "infinite",
				"transferFrom(address,address,uint256)": "infinite",
				"unbond(uint256)": "infinite",
				"unbondUnderlying(uint256)": "infinite",
				"votesFor(address)": "infinite",
				"withdraw(uint256)": "infinite"
			},
			"internal": {
				"step()": "infinite"
			}
		},
		"methodIdentifiers": {
			"allowance(address,address)": "dd62ed3e",
			"allowanceCoupons(address,address)": "9f6e1b26",
			"approve(address,uint256)": "095ea7b3",
			"approveFor(address)": "64668022",
			"balanceOf(address)": "70a08231",
			"balanceOfBonded(address)": "825ad607",
			"balanceOfCoupons(address,uint256)": "bc7513e2",
			"balanceOfStaged(address)": "86cf9f14",
			"bond(uint256)": "9940686e",
			"bootstrappingAt(uint256)": "75d5024b",
			"couponsExpiration(uint256)": "10e95b6c",
			"decimals()": "313ce567",
			"deposit(uint256)": "b6b55f25",
			"dollar()": "51adeb57",
			"epoch()": "900cf0cf",
			"epochTime()": "5053e461",
			"expiringCoupons(uint256)": "6a39e328",
			"expiringCouponsAtIndex(uint256,uint256)": "4c736099",
			"fluidUntil(address)": "51bf21d8",
			"implementation()": "5c60da1b",
			"isInitialized(address)": "d60b347f",
			"isNominated(address)": "3a3e6c81",
			"lockedUntil(address)": "9bc289f1",
			"name()": "06fdde03",
			"oracle()": "7dc0d1d0",
			"outstandingCoupons(uint256)": "c9aff70c",
			"periodFor(address)": "15e14bf6",
			"pool()": "16f0115b",
			"recordedVote(address,address)": "3fbba9a6",
			"rejectFor(address)": "353a420c",
			"startFor(address)": "f1b7cf49",
			"statusOf(address)": "97a5d5b5",
			"symbol()": "95d89b41",
			"totalBonded()": "44d96e95",
			"totalBondedAt(uint256)": "ffbe3b73",
			"totalCoupons()": "9a649edc",
			"totalDebt()": "fc7b9c18",
			"totalNet()": "a6c409f1",
			"totalRedeemable()": "1edbcf6c",
			"totalStaged()": "cf023779",
			"totalSupply()": "18160ddd",
			"transfer(address,uint256)": "a9059cbb",
			"transferFrom(address,address,uint256)": "23b872dd",
			"unbond(uint256)": "27de9e32",
			"unbondUnderlying(uint256)": "df9a2b1c",
			"votesFor(address)": "a50cd8e7",
			"withdraw(uint256)": "2e1a7d4d"
		}
	},
	"abi": [
		{
			"anonymous": false,
			"inputs": [
				{
					"indexed": true,
					"internalType": "address",
					"name": "account",
					"type": "address"
				},
				{
					"indexed": false,
					"internalType": "uint256",
					"name": "start",
					"type": "uint256"
				},
				{
					"indexed": false,
					"internalType": "uint256",
					"name": "value",
					"type": "uint256"
				},
				{
					"indexed": false,
					"internalType": "uint256",
					"name": "valueUnderlying",
					"type": "uint256"
				}
			],
			"name": "Bond",
			"type": "event"
		},
		{
			"anonymous": false,
			"inputs": [
				{
					"indexed": true,
					"internalType": "address",
					"name": "account",
					"type": "address"
				},
				{
					"indexed": false,
					"internalType": "uint256",
					"name": "value",
					"type": "uint256"
				}
			],
			"name": "Deposit",
			"type": "event"
		},
		{
			"anonymous": false,
			"inputs": [
				{
					"indexed": true,
					"internalType": "address",
					"name": "from",
					"type": "address"
				},
				{
					"indexed": true,
					"internalType": "address",
					"name": "to",
					"type": "address"
				},
				{
					"indexed": false,
					"internalType": "uint256",
					"name": "value",
					"type": "uint256"
				}
			],
			"name": "Transfer",
			"type": "event"
		},
		{
			"anonymous": false,
			"inputs": [
				{
					"indexed": true,
					"internalType": "address",
					"name": "account",
					"type": "address"
				},
				{
					"indexed": false,
					"internalType": "uint256",
					"name": "start",
					"type": "uint256"
				},
				{
					"indexed": false,
					"internalType": "uint256",
					"name": "value",
					"type": "uint256"
				},
				{
					"indexed": false,
					"internalType": "uint256",
					"name": "valueUnderlying",
					"type": "uint256"
				}
			],
			"name": "Unbond",
			"type": "event"
		},
		{
			"anonymous": false,
			"inputs": [
				{
					"indexed": true,
					"internalType": "address",
					"name": "account",
					"type": "address"
				},
				{
					"indexed": false,
					"internalType": "uint256",
					"name": "value",
					"type": "uint256"
				}
			],
			"name": "Withdraw",
			"type": "event"
		},
		{
			"constant": true,
			"inputs": [
				{
					"internalType": "address",
					"name": "owner",
					"type": "address"
				},
				{
					"internalType": "address",
					"name": "spender",
					"type": "address"
				}
			],
			"name": "allowance",
			"outputs": [
				{
					"internalType": "uint256",
					"name": "",
					"type": "uint256"
				}
			],
			"payable": false,
			"stateMutability": "view",
			"type": "function"
		},
		{
			"constant": true,
			"inputs": [
				{
					"internalType": "address",
					"name": "owner",
					"type": "address"
				},
				{
					"internalType": "address",
					"name": "spender",
					"type": "address"
				}
			],
			"name": "allowanceCoupons",
			"outputs": [
				{
					"internalType": "uint256",
					"name": "",
					"type": "uint256"
				}
			],
			"payable": false,
			"stateMutability": "view",
			"type": "function"
		},
		{
			"constant": false,
			"inputs": [
				{
					"internalType": "address",
					"name": "spender",
					"type": "address"
				},
				{
					"internalType": "uint256",
					"name": "amount",
					"type": "uint256"
				}
			],
			"name": "approve",
			"outputs": [
				{
					"internalType": "bool",
					"name": "",
					"type": "bool"
				}
			],
			"payable": false,
			"stateMutability": "nonpayable",
			"type": "function"
		},
		{
			"constant": true,
			"inputs": [
				{
					"internalType": "address",
					"name": "candidate",
					"type": "address"
				}
			],
			"name": "approveFor",
			"outputs": [
				{
					"internalType": "uint256",
					"name": "",
					"type": "uint256"
				}
			],
			"payable": false,
			"stateMutability": "view",
			"type": "function"
		},
		{
			"constant": true,
			"inputs": [
				{
					"internalType": "address",
					"name": "account",
					"type": "address"
				}
			],
			"name": "balanceOf",
			"outputs": [
				{
					"internalType": "uint256",
					"name": "",
					"type": "uint256"
				}
			],
			"payable": false,
			"stateMutability": "view",
			"type": "function"
		},
		{
			"constant": true,
			"inputs": [
				{
					"internalType": "address",
					"name": "account",
					"type": "address"
				}
			],
			"name": "balanceOfBonded",
			"outputs": [
				{
					"internalType": "uint256",
					"name": "",
					"type": "uint256"
				}
			],
			"payable": false,
			"stateMutability": "view",
			"type": "function"
		},
		{
			"constant": true,
			"inputs": [
				{
					"internalType": "address",
					"name": "account",
					"type": "address"
				},
				{
					"internalType": "uint256",
					"name": "epoch",
					"type": "uint256"
				}
			],
			"name": "balanceOfCoupons",
			"outputs": [
				{
					"internalType": "uint256",
					"name": "",
					"type": "uint256"
				}
			],
			"payable": false,
			"stateMutability": "view",
			"type": "function"
		},
		{
			"constant": true,
			"inputs": [
				{
					"internalType": "address",
					"name": "account",
					"type": "address"
				}
			],
			"name": "balanceOfStaged",
			"outputs": [
				{
					"internalType": "uint256",
					"name": "",
					"type": "uint256"
				}
			],
			"payable": false,
			"stateMutability": "view",
			"type": "function"
		},
		{
			"constant": false,
			"inputs": [
				{
					"internalType": "uint256",
					"name": "value",
					"type": "uint256"
				}
			],
			"name": "bond",
			"outputs": [],
			"payable": false,
			"stateMutability": "nonpayable",
			"type": "function"
		},
		{
			"constant": true,
			"inputs": [
				{
					"internalType": "uint256",
					"name": "epoch",
					"type": "uint256"
				}
			],
			"name": "bootstrappingAt",
			"outputs": [
				{
					"internalType": "bool",
					"name": "",
					"type": "bool"
				}
			],
			"payable": false,
			"stateMutability": "view",
			"type": "function"
		},
		{
			"constant": true,
			"inputs": [
				{
					"internalType": "uint256",
					"name": "epoch",
					"type": "uint256"
				}
			],
			"name": "couponsExpiration",
			"outputs": [
				{
					"internalType": "uint256",
					"name": "",
					"type": "uint256"
				}
			],
			"payable": false,
			"stateMutability": "view",
			"type": "function"
		},
		{
			"constant": true,
			"inputs": [],
			"name": "decimals",
			"outputs": [
				{
					"internalType": "uint8",
					"name": "",
					"type": "uint8"
				}
			],
			"payable": false,
			"stateMutability": "view",
			"type": "function"
		},
		{
			"constant": false,
			"inputs": [
				{
					"internalType": "uint256",
					"name": "value",
					"type": "uint256"
				}
			],
			"name": "deposit",
			"outputs": [],
			"payable": false,
			"stateMutability": "nonpayable",
			"type": "function"
		},
		{
			"constant": true,
			"inputs": [],
			"name": "dollar",
			"outputs": [
				{
					"internalType": "contract IDollar",
					"name": "",
					"type": "address"
				}
			],
			"payable": false,
			"stateMutability": "view",
			"type": "function"
		},
		{
			"constant": true,
			"inputs": [],
			"name": "epoch",
			"outputs": [
				{
					"internalType": "uint256",
					"name": "",
					"type": "uint256"
				}
			],
			"payable": false,
			"stateMutability": "view",
			"type": "function"
		},
		{
			"constant": true,
			"inputs": [],
			"name": "epochTime",
			"outputs": [
				{
					"internalType": "uint256",
					"name": "",
					"type": "uint256"
				}
			],
			"payable": false,
			"stateMutability": "view",
			"type": "function"
		},
		{
			"constant": true,
			"inputs": [
				{
					"internalType": "uint256",
					"name": "epoch",
					"type": "uint256"
				}
			],
			"name": "expiringCoupons",
			"outputs": [
				{
					"internalType": "uint256",
					"name": "",
					"type": "uint256"
				}
			],
			"payable": false,
			"stateMutability": "view",
			"type": "function"
		},
		{
			"constant": true,
			"inputs": [
				{
					"internalType": "uint256",
					"name": "epoch",
					"type": "uint256"
				},
				{
					"internalType": "uint256",
					"name": "i",
					"type": "uint256"
				}
			],
			"name": "expiringCouponsAtIndex",
			"outputs": [
				{
					"internalType": "uint256",
					"name": "",
					"type": "uint256"
				}
			],
			"payable": false,
			"stateMutability": "view",
			"type": "function"
		},
		{
			"constant": true,
			"inputs": [
				{
					"internalType": "address",
					"name": "account",
					"type": "address"
				}
			],
			"name": "fluidUntil",
			"outputs": [
				{
					"internalType": "uint256",
					"name": "",
					"type": "uint256"
				}
			],
			"payable": false,
			"stateMutability": "view",
			"type": "function"
		},
		{
			"constant": true,
			"inputs": [],
			"name": "implementation",
			"outputs": [
				{
					"internalType": "address",
					"name": "impl",
					"type": "address"
				}
			],
			"payable": false,
			"stateMutability": "view",
			"type": "function"
		},
		{
			"constant": true,
			"inputs": [
				{
					"internalType": "address",
					"name": "candidate",
					"type": "address"
				}
			],
			"name": "isInitialized",
			"outputs": [
				{
					"internalType": "bool",
					"name": "",
					"type": "bool"
				}
			],
			"payable": false,
			"stateMutability": "view",
			"type": "function"
		},
		{
			"constant": true,
			"inputs": [
				{
					"internalType": "address",
					"name": "candidate",
					"type": "address"
				}
			],
			"name": "isNominated",
			"outputs": [
				{
					"internalType": "bool",
					"name": "",
					"type": "bool"
				}
			],
			"payable": false,
			"stateMutability": "view",
			"type": "function"
		},
		{
			"constant": true,
			"inputs": [
				{
					"internalType": "address",
					"name": "account",
					"type": "address"
				}
			],
			"name": "lockedUntil",
			"outputs": [
				{
					"internalType": "uint256",
					"name": "",
					"type": "uint256"
				}
			],
			"payable": false,
			"stateMutability": "view",
			"type": "function"
		},
		{
			"constant": true,
			"inputs": [],
			"name": "name",
			"outputs": [
				{
					"internalType": "string",
					"name": "",
					"type": "string"
				}
			],
			"payable": false,
			"stateMutability": "view",
			"type": "function"
		},
		{
			"constant": true,
			"inputs": [],
			"name": "oracle",
			"outputs": [
				{
					"internalType": "contract IOracle",
					"name": "",
					"type": "address"
				}
			],
			"payable": false,
			"stateMutability": "view",
			"type": "function"
		},
		{
			"constant": true,
			"inputs": [
				{
					"internalType": "uint256",
					"name": "epoch",
					"type": "uint256"
				}
			],
			"name": "outstandingCoupons",
			"outputs": [
				{
					"internalType": "uint256",
					"name": "",
					"type": "uint256"
				}
			],
			"payable": false,
			"stateMutability": "view",
			"type": "function"
		},
		{
			"constant": true,
			"inputs": [
				{
					"internalType": "address",
					"name": "candidate",
					"type": "address"
				}
			],
			"name": "periodFor",
			"outputs": [
				{
					"internalType": "uint256",
					"name": "",
					"type": "uint256"
				}
			],
			"payable": false,
			"stateMutability": "view",
			"type": "function"
		},
		{
			"constant": true,
			"inputs": [],
			"name": "pool",
			"outputs": [
				{
					"internalType": "address",
					"name": "",
					"type": "address"
				}
			],
			"payable": false,
			"stateMutability": "view",
			"type": "function"
		},
		{
			"constant": true,
			"inputs": [
				{
					"internalType": "address",
					"name": "account",
					"type": "address"
				},
				{
					"internalType": "address",
					"name": "candidate",
					"type": "address"
				}
			],
			"name": "recordedVote",
			"outputs": [
				{
					"internalType": "enum Candidate.Vote",
					"name": "",
					"type": "uint8"
				}
			],
			"payable": false,
			"stateMutability": "view",
			"type": "function"
		},
		{
			"constant": true,
			"inputs": [
				{
					"internalType": "address",
					"name": "candidate",
					"type": "address"
				}
			],
			"name": "rejectFor",
			"outputs": [
				{
					"internalType": "uint256",
					"name": "",
					"type": "uint256"
				}
			],
			"payable": false,
			"stateMutability": "view",
			"type": "function"
		},
		{
			"constant": true,
			"inputs": [
				{
					"internalType": "address",
					"name": "candidate",
					"type": "address"
				}
			],
			"name": "startFor",
			"outputs": [
				{
					"internalType": "uint256",
					"name": "",
					"type": "uint256"
				}
			],
			"payable": false,
			"stateMutability": "view",
			"type": "function"
		},
		{
			"constant": true,
			"inputs": [
				{
					"internalType": "address",
					"name": "account",
					"type": "address"
				}
			],
			"name": "statusOf",
			"outputs": [
				{
					"internalType": "enum Account.Status",
					"name": "",
					"type": "uint8"
				}
			],
			"payable": false,
			"stateMutability": "view",
			"type": "function"
		},
		{
			"constant": true,
			"inputs": [],
			"name": "symbol",
			"outputs": [
				{
					"internalType": "string",
					"name": "",
					"type": "string"
				}
			],
			"payable": false,
			"stateMutability": "view",
			"type": "function"
		},
		{
			"constant": true,
			"inputs": [],
			"name": "totalBonded",
			"outputs": [
				{
					"internalType": "uint256",
					"name": "",
					"type": "uint256"
				}
			],
			"payable": false,
			"stateMutability": "view",
			"type": "function"
		},
		{
			"constant": true,
			"inputs": [
				{
					"internalType": "uint256",
					"name": "epoch",
					"type": "uint256"
				}
			],
			"name": "totalBondedAt",
			"outputs": [
				{
					"internalType": "uint256",
					"name": "",
					"type": "uint256"
				}
			],
			"payable": false,
			"stateMutability": "view",
			"type": "function"
		},
		{
			"constant": true,
			"inputs": [],
			"name": "totalCoupons",
			"outputs": [
				{
					"internalType": "uint256",
					"name": "",
					"type": "uint256"
				}
			],
			"payable": false,
			"stateMutability": "view",
			"type": "function"
		},
		{
			"constant": true,
			"inputs": [],
			"name": "totalDebt",
			"outputs": [
				{
					"internalType": "uint256",
					"name": "",
					"type": "uint256"
				}
			],
			"payable": false,
			"stateMutability": "view",
			"type": "function"
		},
		{
			"constant": true,
			"inputs": [],
			"name": "totalNet",
			"outputs": [
				{
					"internalType": "uint256",
					"name": "",
					"type": "uint256"
				}
			],
			"payable": false,
			"stateMutability": "view",
			"type": "function"
		},
		{
			"constant": true,
			"inputs": [],
			"name": "totalRedeemable",
			"outputs": [
				{
					"internalType": "uint256",
					"name": "",
					"type": "uint256"
				}
			],
			"payable": false,
			"stateMutability": "view",
			"type": "function"
		},
		{
			"constant": true,
			"inputs": [],
			"name": "totalStaged",
			"outputs": [
				{
					"internalType": "uint256",
					"name": "",
					"type": "uint256"
				}
			],
			"payable": false,
			"stateMutability": "view",
			"type": "function"
		},
		{
			"constant": true,
			"inputs": [],
			"name": "totalSupply",
			"outputs": [
				{
					"internalType": "uint256",
					"name": "",
					"type": "uint256"
				}
			],
			"payable": false,
			"stateMutability": "view",
			"type": "function"
		},
		{
			"constant": false,
			"inputs": [
				{
					"internalType": "address",
					"name": "recipient",
					"type": "address"
				},
				{
					"internalType": "uint256",
					"name": "amount",
					"type": "uint256"
				}
			],
			"name": "transfer",
			"outputs": [
				{
					"internalType": "bool",
					"name": "",
					"type": "bool"
				}
			],
			"payable": false,
			"stateMutability": "nonpayable",
			"type": "function"
		},
		{
			"constant": false,
			"inputs": [
				{
					"internalType": "address",
					"name": "sender",
					"type": "address"
				},
				{
					"internalType": "address",
					"name": "recipient",
					"type": "address"
				},
				{
					"internalType": "uint256",
					"name": "amount",
					"type": "uint256"
				}
			],
			"name": "transferFrom",
			"outputs": [
				{
					"internalType": "bool",
					"name": "",
					"type": "bool"
				}
			],
			"payable": false,
			"stateMutability": "nonpayable",
			"type": "function"
		},
		{
			"constant": false,
			"inputs": [
				{
					"internalType": "uint256",
					"name": "value",
					"type": "uint256"
				}
			],
			"name": "unbond",
			"outputs": [],
			"payable": false,
			"stateMutability": "nonpayable",
			"type": "function"
		},
		{
			"constant": false,
			"inputs": [
				{
					"internalType": "uint256",
					"name": "value",
					"type": "uint256"
				}
			],
			"name": "unbondUnderlying",
			"outputs": [],
			"payable": false,
			"stateMutability": "nonpayable",
			"type": "function"
		},
		{
			"constant": true,
			"inputs": [
				{
					"internalType": "address",
					"name": "candidate",
					"type": "address"
				}
			],
			"name": "votesFor",
			"outputs": [
				{
					"internalType": "uint256",
					"name": "",
					"type": "uint256"
				}
			],
			"payable": false,
			"stateMutability": "view",
			"type": "function"
		},
		{
			"constant": false,
			"inputs": [
				{
					"internalType": "uint256",
					"name": "value",
					"type": "uint256"
				}
			],
			"name": "withdraw",
			"outputs": [],
			"payable": false,
			"stateMutability": "nonpayable",
			"type": "function"
		}
	]
}