{
	"data": {
		"bytecode": {
			"linkReferences": {},
			"object": "608060405234801561001057600080fd5b50614666806100206000396000f3fe608060405234801561001057600080fd5b50600436106103985760003560e01c80638129fc1c116101e9578063bc0b1df61161010f578063d8f54138116100ad578063ea105ac71161007c578063ea105ac714610750578063f1b7cf4914610758578063fc7b9c181461076b578063ffbe3b731461077357610398565b8063d8f5413814610709578063dd62ed3e1461071c578063df9a2b1c1461072a578063e5f55c7e1461073d57610398565b8063c9aff70c116100e9578063c9aff70c146106c8578063cf023779146106db578063d60b347f146106e3578063d6a9cf08146106f657610398565b8063bc0b1df61461068f578063bc7513e2146106a2578063bceb514d146106b557610398565b80639a649edc11610187578063a50cd8e711610156578063a50cd8e714610661578063a6c409f114610674578063a9059cbb146103d0578063b6b55f251461067c57610398565b80639a649edc146106205780639bc289f1146106285780639f6e1b261461063b578063a1eb31e81461064e57610398565b8063900cf0cf116101c3578063900cf0cf146105ea57806395d89b41146105f257806397a5d5b5146105fa5780639940686e1461060d57610398565b80638129fc1c146105bc578063825ad607146105c457806386cf9f14146105d757610398565b8063369e8c1d116102ce57806351adeb571161026c5780636a39e3281161023b5780636a39e3281461057b57806370a082311461058e57806375d5024b146105a15780637dc0d1d0146105b457610398565b806351adeb571461053857806351bf21d81461054d5780635c60da1b14610560578063646680221461056857610398565b806344d96e95116102a857806344d96e951461050257806347c050691461050a5780634c7360991461051d5780635053e4611461053057610398565b8063369e8c1d146104bc5780633a3e6c81146104cf5780633fbba9a6146104e257610398565b80631edbcf6c1161033b5780632e1a7d4d116103155780632e1a7d4d1461046e5780632f7f889e14610481578063313ce56714610494578063353a420c146104a957610398565b80631edbcf6c1461044057806323b872dd1461044857806327de9e321461045b57610398565b806310e95b6c1161037757806310e95b6c146103f057806315e14bf61461041057806316f0115b1461042357806318160ddd1461043857610398565b80625edd371461039d57806306fdde03146103b2578063095ea7b3146103d0575b600080fd5b6103b06103ab366004613df4565b610786565b005b6103ba6108a9565b6040516103c7919061434c565b60405180910390f35b6103e36103de366004613e85565b6108e1565b6040516103c79190614314565b6104036103fe366004613f03565b6108ea565b6040516103c791906143cd565b61040361041e366004613d4f565b610902565b61042b610920565b6040516103c791906142a7565b61040361092f565b610403610935565b6103e3610456366004613da7565b61093b565b6103b0610469366004613f03565b610945565b6103b061047c366004613f03565b610a8f565b6103b061048f366004613e85565b610bc7565b61049c610c47565b6040516103c79190614439565b6104036104b7366004613d4f565b610c4c565b6103b06104ca366004613d4f565b610c6a565b6103e36104dd366004613d4f565b610db8565b6104f56104f0366004613d6d565b610dd5565b6040516103c79190614330565b610403610e08565b6103b0610518366004613d4f565b610e0e565b61040361052b366004613f3f565b610f01565b610403610f31565b610540610f54565b6040516103c79190614322565b61040361055b366004613d4f565b610f63565b61042b610f81565b610403610576366004613d4f565b610fa6565b610403610589366004613f03565b610fc4565b61040361059c366004613d4f565b610fd9565b6103e36105af366004613f03565b610ff7565b61054061100a565b6103b0611019565b6104036105d2366004613d4f565b61108c565b6104036105e5366004613d4f565b6110cc565b6104036110e7565b6103ba6110ed565b6104f5610608366004613d4f565b61110c565b6103b061061b366004613f03565b611171565b61040361123f565b610403610636366004613d4f565b611245565b610403610649366004613d6d565b611263565b61040361065c366004613f3f565b611292565b61040361066f366004613d4f565b6113b8565b6104036113cf565b6103b061068a366004613f03565b611459565b6103b061069d366004613f5e565b611531565b6104036106b0366004613e85565b611665565b6103b06106c3366004613e55565b6116a9565b6104036106d6366004613f03565b611944565b610403611959565b6103e36106f1366004613d4f565b61195f565b6103b0610704366004613f3f565b611980565b610403610717366004613f03565b611a7c565b6104036103de366004613d6d565b6103b0610738366004613f03565b611b07565b61040361074b366004613f03565b611bc5565b6103b0611cb7565b610403610766366004613d4f565b611d5f565b610403611d7a565b610403610781366004613f03565b611d80565b6001600160a01b0384166107b55760405162461bcd60e51b81526004016107ac906143ad565b60405180910390fd5b6001600160a01b0383166107db5760405162461bcd60e51b81526004016107ac9061436d565b6107ff84838360405180606001604052806023815260200161454560239139611d92565b61080a838383611e3d565b336001600160a01b0385161480159061082e575060001961082b8533611263565b14155b156108575761085784338360405180606001604052806024815260200161458c60249139611ee4565b81836001600160a01b0316856001600160a01b03167f0f1dbb1ccbe57a1590c7baad7b01d581b730c9ebc535dcde4345e6db424063d88460405161089b91906143cd565b60405180910390a450505050565b60408051808201909152601e81527f42696e616e6365204167696c652053657420446f6c6c6172205374616b65000060208201525b90565b60005b92915050565b6000818152600d60205260409020600201545b919050565b6001600160a01b03166000908152600e602052604090206001015490565b600b546001600160a01b031690565b60035490565b60065490565b60005b9392505050565b3361098c60025b6109558361110c565b600281111561096057fe5b1415692832b936b4b9b9b4b7b760b11b72139bdd08199c9bde995b881bdc88199b1d5a59606a1b611f55565b61099533611faa565b60006109c86109a333610fd9565b6109bc6109af3361108c565b869063ffffffff611fd416565b9063ffffffff61200e16565b90506109d43382612050565b6109f6816040518060600160405280602281526020016145b0602291396120ac565b610a3633846040518060400160405280601d81526020017f426f6e64696e673a20696e73756666696369656e742062616c616e63650000008152506120c7565b337f93530ac0ee8c50e696e13c5ac62355d0c0ba4bd943620d5bda1eb08b64ae7512610a716001610a656110e7565b9063ffffffff61217216565b8584604051610a82939291906143e9565b60405180910390a2505050565b33610ad760015b610a9f8361110c565b6002811115610aaa57fe5b1415692832b936b4b9b9b4b7b760b11b73139bdd08199c9bde995b881bdc881b1bd8dad95960621b611f55565b610adf610f54565b6001600160a01b031663a9059cbb33846040518363ffffffff1660e01b8152600401610b0c9291906142dd565b602060405180830381600087803b158015610b2657600080fd5b505af1158015610b3a573d6000803e3d6000fd5b505050506040513d601f19601f82011682018060405250610b5e9190810190613eb5565b50610b82338360405180606001604052806024815260200161456860249139612197565b336001600160a01b03167f884edad9ce6fa2440d8a54cc123490eb96d2768479d49ff9c7366125a942436483604051610bbb91906143cd565b60405180910390a25050565b6001600160a01b038216610bed5760405162461bcd60e51b81526004016107ac9061439d565b610bf83383836121f6565b816001600160a01b0316336001600160a01b03167f8ff27e6b95060c1ca851e7c2c28af8b413eb1a8bcb637b0290da9543a709cce383604051610c3b91906143cd565b60405180910390a35050565b601290565b6001600160a01b03166000908152600e602052604090206003015490565b610c96610c7682610db8565b6523b7bb32b93760d11b6c139bdd081b9bdb5a5b985d1959609a1b611f55565b6000610cbe6001610cb2610ca985610902565b610a6586611d5f565b9063ffffffff61222616565b9050610ce981610ccc6110e7565b116523b7bb32b93760d11b68139bdd08195b99195960ba1b611f55565b610d40610d1d610cf7612268565b610d11610d03866113b8565b610d0c86611d80565b61228a565b9063ffffffff6122b916565b6523b7bb32b93760d11b6f4d75737420686176652071756f726f6d60801b611f55565b610d75610d4c83610c4c565b610d5584610fa6565b116523b7bb32b93760d11b6b139bdd08185c1c1c9bdd995960a21b611f55565b610d7e826122cf565b6040516001600160a01b0383169033907f815ca4497ab9fc80c76f210e6e842a5e198e195aa136034557eee144f790e7bb90600090a35050565b6001600160a01b03166000908152600e6020526040902054151590565b6001600160a01b038082166000908152600e60209081526040808320938616835260049093019052205460ff1692915050565b60045490565b610e1a610c7682610db8565b610e58610e30610e286123bb565b610a656110e7565b610e38610f31565b116523b7bb32b93760d11b6b115c1bd8da081cde5b98d95960a21b611f55565b610eaa610e7a610e666123c0565b610d11610e7285610fa6565b610d0c61092f565b6523b7bb32b93760d11b7f4d7573742068617665207375706572206d616a6f726974790000000000000000611f55565b610ebf610eb682610c4c565b610d5583610fa6565b610ec8816122cf565b6040516001600160a01b0382169033907f815ca4497ab9fc80c76f210e6e842a5e198e195aa136034557eee144f790e7bb90600090a350565b6000828152600d60205260408120600301805483908110610f1e57fe5b9060005260206000200154905092915050565b6000610f3b613cb1565b610f436123e2565b9050610f4e81612411565b91505090565b6009546001600160a01b031690565b6001600160a01b03166000908152600c602052604090206004015490565b7f360894a13ba1a3210667c828492db98dca3e2076cc3735a920a3ca505d382bbc5490565b6001600160a01b03166000908152600e602052604090206002015490565b6000908152600d602052604090206003015490565b6001600160a01b03166000908152600c602052604090206001015490565b6000611001612433565b90911115919050565b600a546001600160a01b031690565b6110526110276106f1610f81565b15692832b936b4b9b9b4b7b760b11b72105b1c9958591e481a5b9a5d1a585b1a5e9959606a1b611f55565b61106261105d610f81565b612438565b61108a73ec90b539173ad7f16164fe80854ee5ada020879f69152d02c7e14af680000061245f565b565b60008061109761092f565b9050806110a85760009150506108fd565b61093e816109bc6110b886610fd9565b6110c0610e08565b9063ffffffff611fd416565b6001600160a01b03166000908152600c602052604090205490565b60025490565b604080518082019091526005815264424153445360d81b602082015290565b60006111166110e7565b6001600160a01b0383166000908152600c60205260409020600501541115611140575060026108fd565b6001600160a01b0382166000908152600c60205260409020600401546111646110e7565b10156108e15760016108e4565b3361117c600261094c565b61118533611faa565b600061118f610e08565b156111af576111aa61119f610e08565b6109bc6109af61092f565b6111c7565b6111c76111ba61250b565b849063ffffffff611fd416565b90506111d33382612512565b6111dc836125ae565b6111ff338460405180606001604052806024815260200161456860249139612197565b337f44002fdef5a0c2d2e4e05572e9780b95aef97e0e93ffd7cc076b09fa78ff2b4661122e6001610a656110e7565b8386604051610a82939291906143e9565b60085490565b6001600160a01b03166000908152600c602052604090206005015490565b6001600160a01b039182166000908152600c602090815260408083209390941682526003909201909152205490565b60008061129d6123e2565b6040015142816112a957fe5b0690506000846112b76110e7565b03905060006112c46125c7565b826112cd6125c7565b036112d66125cd565b02816112de57fe5b049050808311156112f557600093505050506108e4565b6112fd613cd2565b6113506040518060200160405280856113146125c7565b03815250611344604051806020016040528061132e6125c7565b90526113386125d3565b9063ffffffff6125f516565b9063ffffffff61262316565b905061135a613cd2565b60408051602080820183528786038252825190810190925284825261138a9161134490859063ffffffff6125f516565b60408051602081019091528881529091506113ab908263ffffffff61262316565b5198975050505050505050565b60006108e46113c683610c4c565b610a6584610fa6565b60006114546113dc611d7a565b6113e4610f54565b6001600160a01b03166318160ddd6040518163ffffffff1660e01b815260040160206040518083038186803b15801561141c57600080fd5b505afa158015611430573d6000803e3d6000fd5b505050506040513d601f19601f82011682018060405250610cb29190810190613f21565b905090565b611461610f54565b6001600160a01b03166323b872dd3330846040518463ffffffff1660e01b8152600401611490939291906142b5565b602060405180830381600087803b1580156114aa57600080fd5b505af11580156114be573d6000803e3d6000fd5b505050506040513d601f19601f820116820180604052506114e29190810190613eb5565b506114ed3382612050565b336001600160a01b03167fe1fffcc4923d04b559f4d29a8bfc6cda04eb5b0d3c460751c2402c5c5cc9109c8260405161152691906143cd565b60405180910390a250565b600261153f84610cb26110e7565b101561155d5760405162461bcd60e51b81526004016107ac906143bd565b61158133848460405180606001604052806023815260200161454560239139611d92565b600061158d8484611292565b90508083036115c9838210156513585c9ad95d60d21b7f496e73756666696369656e74206f757470757420616d6f756e74000000000000611f55565b6115d33382612651565b811561161c5784336001600160a01b03167f1cd1213d4276c260e84170b4a39025dc8398fbf744edee0709261769b456b94b8460405161161391906143cd565b60405180910390a35b84336001600160a01b03167f46e9903ae8ac9e9f0c9bc321b05965c1c036e7d4783758703f5cdfc4133c51b68360405161165691906143cd565b60405180910390a35050505050565b600061167082611944565b61167c575060006108e4565b506001600160a01b03919091166000908152600c6020908152604080832093835260029093019052205490565b336116b46001610a96565b6116e560006116c233610fd9565b116523b7bb32b93760d11b6e4d7573742068617665207374616b6560881b611f55565b6116ee83610db8565b6117915761172e6116fe336126fb565b6523b7bb32b93760d11b7f4e6f7420656e6f756768207374616b6520746f2070726f706f73650000000000611f55565b61173f8361173a61273f565b612744565b6117476110e7565b336001600160a01b0385167fd15e38a680a427478883cd2d32eb664cb6bb2090b0126a23ebaf3e3784b8c56b61177b61273f565b60405161178891906143cd565b60405180910390a45b6117c16117a0610ca985610902565b6117a86110e7565b106523b7bb32b93760d11b64115b99195960da1b611f55565b60006117cc33610fd9565b905060006117da3386610dd5565b90508060028111156117e857fe5b8460028111156117f457fe5b141561180157505061193f565b600281600281111561180f57fe5b14156118555761185585836040518060400160405280601b81526020017f476f7665726e3a20496e73756666696369656e742072656a6563740000000000815250612770565b600181600281111561186357fe5b14156118a9576118a985836040518060400160405280601c81526020017f476f7665726e3a20496e73756666696369656e7420617070726f7665000000008152506127c1565b60028460028111156118b757fe5b14156118c7576118c78583612812565b60018460028111156118d557fe5b14156118e5576118e58583612861565b6118f03386866128b0565b6118fa33866128fa565b846001600160a01b0316336001600160a01b03167fbe50c78cbc15b0864819aadea36c6499da421b33c38e2ef19bebda583c708c78868560405161165692919061433e565b505050565b6000908152600d602052604090206001015490565b60055490565b6001600160a01b03166000908152600e602052604090206005015460ff1690565b600261198e83610cb26110e7565b10156119ac5760405162461bcd60e51b81526004016107ac906143bd565b6119d033838360405180606001604052806023815260200161454560239139611d92565b60006119dc8383611292565b90508082036119eb3382612651565b8115611a345783336001600160a01b03167f1cd1213d4276c260e84170b4a39025dc8398fbf744edee0709261769b456b94b84604051611a2b91906143cd565b60405180910390a35b83336001600160a01b03167f46e9903ae8ac9e9f0c9bc321b05965c1c036e7d4783758703f5cdfc4133c51b683604051611a6e91906143cd565b60405180910390a350505050565b60006108e4611a89610f54565b6001600160a01b03166318160ddd6040518163ffffffff1660e01b815260040160206040518083038186803b158015611ac157600080fd5b505afa158015611ad5573d6000803e3d6000fd5b505050506040513d601f19601f82011682018060405250611af99190810190613f21565b611b01611d7a565b8461295b565b33611b12600261094c565b611b1b33611faa565b6000611b2861119f610e08565b9050611b343384612050565b611b56836040518060600160405280602281526020016145b0602291396120ac565b611b9633826040518060400160405280601d81526020017f426f6e64696e673a20696e73756666696369656e742062616c616e63650000008152506120c7565b337f93530ac0ee8c50e696e13c5ac62355d0c0ba4bd943620d5bda1eb08b64ae751261122e6001610a656110e7565b6000611bfe600083116513585c9ad95d60d21b7f4d757374207075726368617365206e6f6e2d7a65726f20616d6f756e74000000611f55565b611c2e82611c0a611d7a565b10156513585c9ad95d60d21b6e139bdd08195b9bdd59da081919589d608a1b611f55565b6000611c386110e7565b90506000611c55611c4885611a7c565b859063ffffffff61217216565b9050611c613385612988565b611c6c338383611e3d565b81336001600160a01b03167fbce252db29f761f815dc2e9ea60005af065efba6eb619d2a0b2a113fdeb614148684604051611ca89291906143db565b60405180910390a39392505050565b6000611cc1612a99565b9050611ccd338261245f565b336001600160a01b03167fbb4f656853bc420ad6e4321622c07eefb4ed40e3f91b35553ce14a6dff4c098182604051611d0691906143cd565b60405180910390a2611d16612aa6565b611d1e612af1565b611d26612b84565b611d2e6110e7565b7fc30b728d1c19e5db3678b8ea9e9a063a5655071e1a325c2f7fdbca48baa9060043426040516115269291906143db565b6001600160a01b03166000908152600e602052604090205490565b60075490565b6000908152600d602052604090205490565b6001600160a01b0384166000908152600c60209081526040808320868452600201909152902054611dca90838363ffffffff612bde16565b6001600160a01b0385166000908152600c60209081526040808320878452600201825280832093909355600d90522060010154611e0e90838363ffffffff612bde16565b6000848152600d6020526040902060010155600854611e3490838363ffffffff612bde16565b60085550505050565b6001600160a01b0383166000908152600c60209081526040808320858452600201909152902054611e74908263ffffffff61217216565b6001600160a01b0384166000908152600c60209081526040808320868452600201825280832093909355600d90522060010154611eb7908263ffffffff61217216565b6000838152600d6020526040902060010155600854611edc908263ffffffff61217216565b600855505050565b6001600160a01b038085166000908152600c602090815260408083209387168352600390930190522054611f1f90838363ffffffff612bde16565b6001600160a01b039485166000908152600c60209081526040808320969097168252600390950190945293909220929092555050565b8261193f57611f6382612c0a565b6101d160f51b611f7283612c0a565b604051602001611f8493929190614276565b60408051601f198184030181529082905262461bcd60e51b82526107ac9160040161434c565b611fb5610e2861273f565b6001600160a01b039091166000908152600c6020526040902060040155565b600082611fe3575060006108e4565b82820282848281611ff057fe5b041461093e5760405162461bcd60e51b81526004016107ac9061437d565b600061093e83836040518060400160405280601a81526020017f536166654d6174683a206469766973696f6e206279207a65726f000000000000815250612c8a565b6001600160a01b0382166000908152600c6020526040902054612079908263ffffffff61217216565b6001600160a01b0383166000908152600c60205260409020556005546120a5908263ffffffff61217216565b6005555050565b6004546120c090838363ffffffff612bde16565b6004555050565b6001600160a01b0383166000908152600c60205260409020600101546120f490838363ffffffff612bde16565b6001600160a01b0384166000908152600c602052604090206001015560035461212490838363ffffffff612bde16565b6003556040516000906001600160a01b038516907fddf252ad1be2c89b69c2b068fc378daa952ba7f163c4a11628f55a4df523b3ef906121659086906143cd565b60405180910390a3505050565b60008282018381101561093e5760405162461bcd60e51b81526004016107ac9061435d565b6001600160a01b0383166000908152600c60205260409020546121c190838363ffffffff612bde16565b6001600160a01b0384166000908152600c60205260409020556005546121ee90838363ffffffff612bde16565b600555505050565b6001600160a01b039283166000908152600c60209081526040808320949095168252600390930190925291902055565b600061093e83836040518060400160405280601e81526020017f536166654d6174683a207375627472616374696f6e206f766572666c6f770000815250612bde565b612270613cd2565b5060408051602081019091526702c68af0bb140000815290565b612292613cd2565b60405180602001604052806122b085670de0b6b3a764000086612cc1565b90529392505050565b60006122c58383612cd7565b6002149392505050565b6122d881612d09565b60408051600481526024810182526020810180516001600160e01b031663204a7f0760e21b17905290516000916060916001600160a01b0385169161231c9161426a565b600060405180830381855af49150503d8060008114612357576040519150601f19603f3d011682016040523d82523d6000602084013e61235c565b606091505b50915091508181906123815760405162461bcd60e51b81526004016107ac919061434c565b506040516001600160a01b038416907fbc7cd75a20ee27fd9adebab32041f755214dbc6bffa90cc0225b39da2e5c2d3b90600090a2505050565b600690565b6123c8613cd2565b506040805160208101909152670928ca80cfc20000815290565b6123ea613cb1565b604051806060016040528060008152602001635fbef0008152602001611c20815250905090565b60006108e48260000151610a6584604001516109bc8660200151610cb2612d52565b609690565b6001600160a01b03166000908152600e60205260409020600501805460ff19166001179055565b612467610f54565b6001600160a01b03166340c10f1983836040518363ffffffff1660e01b8152600401612494929190614306565b602060405180830381600087803b1580156124ae57600080fd5b505af11580156124c2573d6000803e3d6000fd5b505050506040513d601f19601f820116820180604052506124e69190810190613eb5565b506124f26105af6110e7565b6124ff576124ff81612d56565b612507612d73565b5050565b620f424090565b6001600160a01b0382166000908152600c602052604090206001015461253e908263ffffffff61217216565b6001600160a01b0383166000908152600c602052604090206001015560035461256d908263ffffffff61217216565b6003556040516001600160a01b038316906000907fddf252ad1be2c89b69c2b068fc378daa952ba7f163c4a11628f55a4df523b3ef90610c3b9085906143cd565b6004546125c1908263ffffffff61217216565b60045550565b61016890565b610e1090565b6125db613cd2565b5060408051602081019091526706f05b59d3b20000815290565b6125fd613cd2565b60405180602001604052806122b08560000151670de0b6b3a76400008660000151612cc1565b61262b613cd2565b60405180602001604052806122b085600001518560000151670de0b6b3a7640000612cc1565b612659610f54565b6001600160a01b031663a9059cbb83836040518363ffffffff1660e01b8152600401612686929190614306565b602060405180830381600087803b1580156126a057600080fd5b505af11580156126b4573d6000803e3d6000fd5b505050506040513d601f19601f820116820180604052506126d89190810190613eb5565b506124ff816040518060600160405280602a81526020016145fa602a9139612e46565b6000612705610e08565b612711575060006108fd565b612719613cd2565b612725610e7284610fd9565b905061093e612732612e61565b829063ffffffff6122b916565b602490565b61274c6110e7565b6001600160a01b039092166000908152600e60205260409020918255600190910155565b6001600160a01b0383166000908152600e602052604090206003015461279d90838363ffffffff612bde16565b6001600160a01b039093166000908152600e60205260409020600301929092555050565b6001600160a01b0383166000908152600e60205260409020600201546127ee90838363ffffffff612bde16565b6001600160a01b039093166000908152600e60205260409020600201929092555050565b6001600160a01b0382166000908152600e602052604090206003015461283e908263ffffffff61217216565b6001600160a01b039092166000908152600e602052604090206003019190915550565b6001600160a01b0382166000908152600e602052604090206002015461288d908263ffffffff61217216565b6001600160a01b039092166000908152600e602052604090206002019190915550565b6001600160a01b038083166000908152600e6020908152604080832093871683526004909301905220805482919060ff191660018360028111156128f057fe5b0217905550505050565b6001600160a01b0382166000908152600c60205260408120600501549061292c61292384610902565b610a6585611d5f565b905081811115612955576001600160a01b0384166000908152600c602052604090206005018190555b50505050565b600061298061297b8361296f878787612e82565b9063ffffffff612fef16565b613016565b949350505050565b612990610f54565b6001600160a01b03166323b872dd8330846040518463ffffffff1660e01b81526004016129bf939291906142f8565b602060405180830381600087803b1580156129d957600080fd5b505af11580156129ed573d6000803e3d6000fd5b505050506040513d601f19601f82011682018060405250612a119190810190613eb5565b50612a1a610f54565b6001600160a01b03166342966c68826040518263ffffffff1660e01b8152600401612a4591906143cd565b600060405180830381600087803b158015612a5f57600080fd5b505af1158015612a73573d6000803e3d6000fd5b505050506124ff816040518060600160405280602881526020016145d260289139613033565b6802b5e3af16b188000090565b612ae1612ab16110e7565b612ab9610f31565b1166426f6e64696e6760c81b720a6e8d2d8d840c6eae4e4cadce840cae0dec6d606b1b611f55565b612ae961304e565b61108a613075565b612af9613cd2565b612b0161308e565b9050612b0e612732613156565b15612b2a57612b1b613178565b612b248161317f565b5061108a565b612b42612b35613156565b829063ffffffff61326f16565b15612b5057612b2481613283565b612b586110e7565b6040517fff7db5a0dc69b02c191ba632db46961b7d0daa1bd30709ddba9b80ad0a15d2c090600090a250565b60005b612b926105896110e7565b811015612bba57612bb2612bad612ba76110e7565b83610f01565b61330e565b600101612b87565b506000612bc8610e286125c7565b9050612bdb612bd56110e7565b826133ba565b50565b60008184841115612c025760405162461bcd60e51b81526004016107ac919061434c565b505050900390565b60608082604051602001612c1e9190614255565b60408051601f19818403018152919052905060205b8015612c7357815160001990910190829082908110612c4e57fe5b01602001516001600160f81b03191615612c6e57600101815290506108fd565b612c33565b505060408051600081526020810190915292915050565b60008183612cab5760405162461bcd60e51b81526004016107ac919061434c565b506000838581612cb757fe5b0495945050505050565b6000612980826109bc868663ffffffff611fd416565b805182516000911415612cec575060016108e4565b8151835111612cfc576000612cff565b60025b60ff169392505050565b612d12816133ec565b612d2e5760405162461bcd60e51b81526004016107ac9061438d565b7f360894a13ba1a3210667c828492db98dca3e2076cc3735a920a3ca505d382bbc55565b4290565b612d5f816133f2565b612d6f612d6a61340b565b61342d565b612bdb5b61108a612d94612d81610935565b610a65612d8c611959565b610a65610e08565b612d9c610f54565b6001600160a01b03166370a08231306040518263ffffffff1660e01b8152600401612dc791906142a7565b60206040518083038186803b158015612ddf57600080fd5b505afa158015612df3573d6000803e3d6000fd5b505050506040513d601f19601f82011682018060405250612e179190810190613f21565b10156a21b7b6b83a3937b63632b960a91b74496e636f6e73697374656e742062616c616e63657360581b611f55565b600654612e5a90838363ffffffff612bde16565b6006555050565b612e69613cd2565b5060408051602081019091526611c37937e08000815290565b612e8a613cd2565b612e92613cd2565b612e9c848661228a565b9050612ea6613cd2565b612eae61340b565b90506000612ec2878663ffffffff61222616565b90506000612ed6878763ffffffff61222616565b9050612ee0613cd2565b612eea828461228a565b9050612efc858563ffffffff6122b916565b15612fd857612f11818563ffffffff6122b916565b15612f2b57612f1f846134e0565b9550505050505061093e565b612f33613cd2565b612f3d828661352c565b9050612f47613cd2565b612f57868463ffffffff61358916565b9050612f61613cd2565b612f6a876134e0565b9050612f74613cd2565b612f84898963ffffffff61358916565b9050612fc8612f99848363ffffffff6135b216565b611338612fac858563ffffffff61262316565b612fbc888863ffffffff61262316565b9063ffffffff6135b216565b995050505050505050505061093e565b612fe2818661352c565b9998505050505050505050565b612ff7613cd2565b6040805160208101909152835181906122b0908563ffffffff611fd416565b80516000906108e490670de0b6b3a764000063ffffffff61200e16565b60075461304790838363ffffffff612bde16565b6007555050565b61305661092f565b600d60006130626110e7565b8152602081019190915260400160002055565b60025461308990600163ffffffff61217216565b600255565b613096613cd2565b61309e613cd2565b60006130a861100a565b6001600160a01b031663d4a3e9d76040518163ffffffff1660e01b81526004016040805180830381600087803b1580156130e157600080fd5b505af11580156130f5573d6000803e3d6000fd5b505050506040513d601f19601f820116820180604052506131199190810190613ed3565b9150915061312d6105af6001610cb26110e7565b156131435761313a6135db565b925050506108de565b806131505761313a613156565b50905090565b61315e613cd2565b506040805160208101909152670de0b6b3a7640000815290565b6000600755565b613187613cd2565b61318f6135fd565b9050600061319b610935565b905060006131a761123f565b9050808210156131bc576131b9613620565b92505b6131c4613cd2565b6131e96131e3856113386131d6613156565b899063ffffffff61358916565b86613642565b9050600061320861297b6131fb6113cf565b849063ffffffff612fef16565b90506000806000613218846136cd565b9250925092506132266110e7565b89516040517f32fcaa1e76ed9517f4749d8ec9a77dd5e7329456d740b9bf9665d900eef5e2839161325c91879087908790614404565b60405180910390a2505050505050505050565b600061327b8383612cd7565b159392505050565b61328b613cd2565b6132b76132b1613299613839565b611338856132a5613156565b9063ffffffff61358916565b83613642565b905060006132c961297b6131fb6113cf565b90506132d481612d56565b6132dc6110e7565b83516040517f5e139d4b8080a4a00dcc151e8217694aeebae893936326aa22096924a990667791610a829185906143db565b600061331982611944565b9050600080806133288561385b565b6000613332610935565b9050600061333e61123f565b90508082111561337357613358828263ffffffff61222616565b94506133638561389e565b61336c856136cd565b9095509350505b867f753df65b37159bf237ae1fca97ba1bd57cf83bc9498f271a514a4d7bafe87bda878787876040516133a99493929190614404565b60405180910390a250505050505050565b6000828152600d6020908152604080832060020184905592825291812060030180546001810182559082529190200155565b3b151590565b600754613405908263ffffffff61217216565b60075550565b613413613cd2565b5060408051602081019091526704db732547630000815290565b60006134ad61297b61343d610f54565b6001600160a01b03166318160ddd6040518163ffffffff1660e01b815260040160206040518083038186803b15801561347557600080fd5b505afa158015613489573d6000803e3d6000fd5b505050506040513d601f19601f820116820180604052506131fb9190810190613f21565b905060006134b9611d7a565b90508181111561193f5760006134d5828463ffffffff61222616565b905061295581613925565b6134e8613cd2565b6108e46134f76001600361228a565b6132a561352461351a600261350e886132a5613156565b9063ffffffff61396416565b61134460036139ba565b611338613156565b613534613cd2565b613544838363ffffffff6139ee16565b1561355957613552836134e0565b90506108e4565b61093e6135686001600361228a565b6132a561352461357a876132a5613156565b61134461351a886132a5613156565b613591613cd2565b60408051602081019091528251845182916122b0919063ffffffff61222616565b6135ba613cd2565b60408051602081019091528251845182916122b0919063ffffffff61217216565b6135e3613cd2565b50604080516020810190915267155f2dd73a1a0000815290565b613605613cd2565b50604080516020810190915268015af1d78b58c40000815290565b613628613cd2565b50604080516020810190915267e73435bb46020000815290565b61364a613cd2565b613652613cd2565b61365a6139f5565b90506000613666610935565b9050600061367261123f565b905061368c61367f613156565b869063ffffffff6122b916565b801561369757508082105b156136a7576136a4613a16565b92505b6136b7868463ffffffff6122b916565b6136c157856136c3565b825b9695505050505050565b60008080808080806136dd610935565b905060006136e961123f565b9050808210156137a657613703818363ffffffff61222616565b945061372b61371a6064613715613a37565b612226565b6109bc87606463ffffffff611fd416565b945088851161373a578461373c565b885b945061375b60646109bc61374e613a37565b889063ffffffff611fd416565b925061376d858463ffffffff61222616565b945061377883613a3c565b61378185613ad0565b613791898463ffffffff61222616565b98506137a3898663ffffffff61222616565b98505b60006137b0611d7a565b905060008a1180156137c25750600081115b156137f4578981116137d457806137d6565b895b94506137e185613925565b6137f18a8663ffffffff61222616565b99505b6137fc610e08565b61380557600099505b8915613814576138148a613b61565b85856138268c8763ffffffff61217216565b9850985098505050505050509193909250565b613841613cd2565b506040805160208101909152674563918244f40000815290565b600061386682611944565b9050806138735750612bdb565b600854613886908263ffffffff61222616565b600855506000908152600d6020526040812060010155565b6138a6610f54565b6001600160a01b03166342966c68826040518263ffffffff1660e01b81526004016138d191906143cd565b600060405180830381600087803b1580156138eb57600080fd5b505af11580156138ff573d6000803e3d6000fd5b50505050612d6f816040518060600160405280602a81526020016145fa602a9139612e46565b612d6f816040518060400160405280601c81526020017f436f6d7074726f6c6c65723a206e6f7420656e6f756768206465627400000000815250613033565b61396c613cd2565b8161397b5761355260016139ba565b613983613cd2565b5060408051602081019091528351815260015b838110156139b2576139a88286612623565b9150600101613996565b509392505050565b6139c2613cd2565b6040805160208101909152806139e684670de0b6b3a764000063ffffffff611fd416565b905292915050565b5190511490565b6139fd613cd2565b50604080516020810190915266470de4df820000815290565b613a1e613cd2565b506040805160208101909152666a94d74f430000815290565b602890565b8015612bdb57613a4a610f54565b6001600160a01b03166340c10f19613a60610920565b836040518363ffffffff1660e01b8152600401613a7e929190614306565b602060405180830381600087803b158015613a9857600080fd5b505af1158015613aac573d6000803e3d6000fd5b505050506040513d601f19601f820116820180604052506125079190810190613eb5565b613ad8610f54565b6001600160a01b03166340c10f1930836040518363ffffffff1660e01b8152600401613b05929190614306565b602060405180830381600087803b158015613b1f57600080fd5b505af1158015613b33573d6000803e3d6000fd5b505050506040513d601f19601f82011682018060405250613b579190810190613eb5565b50612d6f81613c01565b613ba46000613b6e610e08565b116a21b7b6b83a3937b63632b960a91b7f43616e74206d696e7420746f20656d70747920706f6f6c000000000000000000611f55565b6000613bc360646109bc613bb6613a37565b859063ffffffff611fd416565b90506000818311613bd5576000613be5565b613be5838363ffffffff61222616565b9050613bf082613a3c565b613bf981613c1a565b61193f612d73565b600654613c14908263ffffffff61217216565b60065550565b8015612bdb57613c28610f54565b6001600160a01b03166340c10f1930836040518363ffffffff1660e01b8152600401613c55929190614306565b602060405180830381600087803b158015613c6f57600080fd5b505af1158015613c83573d6000803e3d6000fd5b505050506040513d601f19601f82011682018060405250613ca79190810190613eb5565b50612bdb816125ae565b60405180606001604052806000815260200160008152602001600081525090565b6040518060200160405280600081525090565b80356108e481614511565b80516108e481614525565b80356108e48161452e565b600060208284031215613d1857600080fd5b613d226020614447565b90506000613d308484613d44565b82525092915050565b80356108e48161453b565b80516108e48161453b565b600060208284031215613d6157600080fd5b60006129808484613ce5565b60008060408385031215613d8057600080fd5b6000613d8c8585613ce5565b9250506020613d9d85828601613ce5565b9150509250929050565b600080600060608486031215613dbc57600080fd5b6000613dc88686613ce5565b9350506020613dd986828701613ce5565b9250506040613dea86828701613d39565b9150509250925092565b60008060008060808587031215613e0a57600080fd5b6000613e168787613ce5565b9450506020613e2787828801613ce5565b9350506040613e3887828801613d39565b9250506060613e4987828801613d39565b91505092959194509250565b60008060408385031215613e6857600080fd5b6000613e748585613ce5565b9250506020613d9d85828601613cfb565b60008060408385031215613e9857600080fd5b6000613ea48585613ce5565b9250506020613d9d85828601613d39565b600060208284031215613ec757600080fd5b60006129808484613cf0565b60008060408385031215613ee657600080fd5b6000613ef28585613d06565b9250506020613d9d85828601613cf0565b600060208284031215613f1557600080fd5b60006129808484613d39565b600060208284031215613f3357600080fd5b60006129808484613d44565b60008060408385031215613f5257600080fd5b6000613ea48585613d39565b600080600060608486031215613f7357600080fd5b6000613f7f8686613d39565b9350506020613dd986828701613d39565b613f99816144b4565b82525050565b613f998161447b565b613f9981614486565b613f99613fbd8261448b565b6108de565b613f99613fbd826108de565b6000613fd98261446e565b613fe381856108fd565b9350613ff38185602086016144d1565b9290920192915050565b613f99816144bb565b613f99816144c6565b600061401a8261446e565b6140248185614472565b93506140348185602086016144d1565b61403d816144fd565b9093019392505050565b6000614054601b83614472565b7f536166654d6174683a206164646974696f6e206f766572666c6f770000000000815260200192915050565b600061408d602b83614472565b7f4d61726b65743a20436f75706f6e207472616e7366657220746f20746865207a81526a65726f206164647265737360a81b602082015260400192915050565b60006140da602183614472565b7f536166654d6174683a206d756c7469706c69636174696f6e206f766572666c6f8152607760f81b602082015260400192915050565b600061411d603b83614472565b7f43616e6e6f742073657420612070726f787920696d706c656d656e746174696f81527f6e20746f2061206e6f6e2d636f6e747261637420616464726573730000000000602082015260400192915050565b600061417c602a83614472565b7f4d61726b65743a20436f75706f6e20617070726f766520746f20746865207a65815269726f206164647265737360b01b602082015260400192915050565b60006141c8602d83614472565b7f4d61726b65743a20436f75706f6e207472616e736665722066726f6d2074686581526c207a65726f206164647265737360981b602082015260400192915050565b6000614217601b83614472565b7f4d61726b65743a20546f6f206561726c7920746f2072656465656d0000000000815260200192915050565b613f99816108de565b613f99816144ae565b60006142618284613fc2565b50602001919050565b600061093e8284613fce565b60006142828286613fce565b915061428e8285613fb1565b60028201915061429e8284613fce565b95945050505050565b602081016108e48284613f9f565b606081016142c38286613f90565b6142d06020830185613f9f565b6129806040830184614243565b604081016142eb8285613f90565b61093e6020830184614243565b606081016142c38286613f9f565b604081016142eb8285613f9f565b602081016108e48284613fa8565b602081016108e48284613ffd565b602081016108e48284614006565b604081016142eb8285614006565b6020808252810161093e818461400f565b602080825281016108e481614047565b602080825281016108e481614080565b602080825281016108e4816140cd565b602080825281016108e481614110565b602080825281016108e48161416f565b602080825281016108e4816141bb565b602080825281016108e48161420a565b602081016108e48284614243565b604081016142eb8285614243565b606081016143f78286614243565b6142d06020830185614243565b608081016144128287614243565b61441f6020830186614243565b61442c6040830185614243565b61429e6060830184614243565b602081016108e4828461424c565b60405181810167ffffffffffffffff8111828210171561446657600080fd5b604052919050565b5190565b90815260200190565b60006108e4826144a2565b151590565b6001600160f01b03191690565b806108fd81614507565b6001600160a01b031690565b60ff1690565b60006108e4825b60006108e48261447b565b60006108e482614498565b60005b838110156144ec5781810151838201526020016144d4565b838111156129555750506000910152565b601f01601f191690565b60038110612bdb57fe5b61451a8161447b565b8114612bdb57600080fd5b61451a81614486565b60038110612bdb57600080fd5b61451a816108de56fe4d61726b65743a20496e73756666696369656e7420636f75706f6e2062616c616e6365426f6e64696e673a20696e73756666696369656e74207374616765642062616c616e63654d61726b65743a20496e73756666696369656e7420636f75706f6e20617070726f76616c426f6e64696e673a20696e73756666696369656e7420746f74616c20626f6e646564436f6d7074726f6c6c65723a206e6f7420656e6f756768206f75747374616e64696e672064656274436f6d7074726f6c6c65723a206e6f7420656e6f7567682072656465656d61626c652062616c616e6365a365627a7a72315820d4a323e8a664e8802f2a81716493e7cce9e6f073d00a4a00b93526b3eca630196c6578706572696d656e74616cf564736f6c63430005110040",
			"opcodes": "PUSH1 0x80 PUSH1 0x40 MSTORE CALLVALUE DUP1 ISZERO PUSH2 0x10 JUMPI PUSH1 0x0 DUP1 REVERT JUMPDEST POP PUSH2 0x4666 DUP1 PUSH2 0x20 PUSH1 0x0 CODECOPY PUSH1 0x0 RETURN INVALID PUSH1 0x80 PUSH1 0x40 MSTORE CALLVALUE DUP1 ISZERO PUSH2 0x10 JUMPI PUSH1 0x0 DUP1 REVERT JUMPDEST POP PUSH1 0x4 CALLDATASIZE LT PUSH2 0x398 JUMPI PUSH1 0x0 CALLDATALOAD PUSH1 0xE0 SHR DUP1 PUSH4 0x8129FC1C GT PUSH2 0x1E9 JUMPI DUP1 PUSH4 0xBC0B1DF6 GT PUSH2 0x10F JUMPI DUP1 PUSH4 0xD8F54138 GT PUSH2 0xAD JUMPI DUP1 PUSH4 0xEA105AC7 GT PUSH2 0x7C JUMPI DUP1 PUSH4 0xEA105AC7 EQ PUSH2 0x750 JUMPI DUP1 PUSH4 0xF1B7CF49 EQ PUSH2 0x758 JUMPI DUP1 PUSH4 0xFC7B9C18 EQ PUSH2 0x76B JUMPI DUP1 PUSH4 0xFFBE3B73 EQ PUSH2 0x773 JUMPI PUSH2 0x398 JUMP JUMPDEST DUP1 PUSH4 0xD8F54138 EQ PUSH2 0x709 JUMPI DUP1 PUSH4 0xDD62ED3E EQ PUSH2 0x71C JUMPI DUP1 PUSH4 0xDF9A2B1C EQ PUSH2 0x72A JUMPI DUP1 PUSH4 0xE5F55C7E EQ PUSH2 0x73D JUMPI PUSH2 0x398 JUMP JUMPDEST DUP1 PUSH4 0xC9AFF70C GT PUSH2 0xE9 JUMPI DUP1 PUSH4 0xC9AFF70C EQ PUSH2 0x6C8 JUMPI DUP1 PUSH4 0xCF023779 EQ PUSH2 0x6DB JUMPI DUP1 PUSH4 0xD60B347F EQ PUSH2 0x6E3 JUMPI DUP1 PUSH4 0xD6A9CF08 EQ PUSH2 0x6F6 JUMPI PUSH2 0x398 JUMP JUMPDEST DUP1 PUSH4 0xBC0B1DF6 EQ PUSH2 0x68F JUMPI DUP1 PUSH4 0xBC7513E2 EQ PUSH2 0x6A2 JUMPI DUP1 PUSH4 0xBCEB514D EQ PUSH2 0x6B5 JUMPI PUSH2 0x398 JUMP JUMPDEST DUP1 PUSH4 0x9A649EDC GT PUSH2 0x187 JUMPI DUP1 PUSH4 0xA50CD8E7 GT PUSH2 0x156 JUMPI DUP1 PUSH4 0xA50CD8E7 EQ PUSH2 0x661 JUMPI DUP1 PUSH4 0xA6C409F1 EQ PUSH2 0x674 JUMPI DUP1 PUSH4 0xA9059CBB EQ PUSH2 0x3D0 JUMPI DUP1 PUSH4 0xB6B55F25 EQ PUSH2 0x67C JUMPI PUSH2 0x398 JUMP JUMPDEST DUP1 PUSH4 0x9A649EDC EQ PUSH2 0x620 JUMPI DUP1 PUSH4 0x9BC289F1 EQ PUSH2 0x628 JUMPI DUP1 PUSH4 0x9F6E1B26 EQ PUSH2 0x63B JUMPI DUP1 PUSH4 0xA1EB31E8 EQ PUSH2 0x64E JUMPI PUSH2 0x398 JUMP JUMPDEST DUP1 PUSH4 0x900CF0CF GT PUSH2 0x1C3 JUMPI DUP1 PUSH4 0x900CF0CF EQ PUSH2 0x5EA JUMPI DUP1 PUSH4 0x95D89B41 EQ PUSH2 0x5F2 JUMPI DUP1 PUSH4 0x97A5D5B5 EQ PUSH2 0x5FA JUMPI DUP1 PUSH4 0x9940686E EQ PUSH2 0x60D JUMPI PUSH2 0x398 JUMP JUMPDEST DUP1 PUSH4 0x8129FC1C EQ PUSH2 0x5BC JUMPI DUP1 PUSH4 0x825AD607 EQ PUSH2 0x5C4 JUMPI DUP1 PUSH4 0x86CF9F14 EQ PUSH2 0x5D7 JUMPI PUSH2 0x398 JUMP JUMPDEST DUP1 PUSH4 0x369E8C1D GT PUSH2 0x2CE JUMPI DUP1 PUSH4 0x51ADEB57 GT PUSH2 0x26C JUMPI DUP1 PUSH4 0x6A39E328 GT PUSH2 0x23B JUMPI DUP1 PUSH4 0x6A39E328 EQ PUSH2 0x57B JUMPI DUP1 PUSH4 0x70A08231 EQ PUSH2 0x58E JUMPI DUP1 PUSH4 0x75D5024B EQ PUSH2 0x5A1 JUMPI DUP1 PUSH4 0x7DC0D1D0 EQ PUSH2 0x5B4 JUMPI PUSH2 0x398 JUMP JUMPDEST DUP1 PUSH4 0x51ADEB57 EQ PUSH2 0x538 JUMPI DUP1 PUSH4 0x51BF21D8 EQ PUSH2 0x54D JUMPI DUP1 PUSH4 0x5C60DA1B EQ PUSH2 0x560 JUMPI DUP1 PUSH4 0x64668022 EQ PUSH2 0x568 JUMPI PUSH2 0x398 JUMP JUMPDEST DUP1 PUSH4 0x44D96E95 GT PUSH2 0x2A8 JUMPI DUP1 PUSH4 0x44D96E95 EQ PUSH2 0x502 JUMPI DUP1 PUSH4 0x47C05069 EQ PUSH2 0x50A JUMPI DUP1 PUSH4 0x4C736099 EQ PUSH2 0x51D JUMPI DUP1 PUSH4 0x5053E461 EQ PUSH2 0x530 JUMPI PUSH2 0x398 JUMP JUMPDEST DUP1 PUSH4 0x369E8C1D EQ PUSH2 0x4BC JUMPI DUP1 PUSH4 0x3A3E6C81 EQ PUSH2 0x4CF JUMPI DUP1 PUSH4 0x3FBBA9A6 EQ PUSH2 0x4E2 JUMPI PUSH2 0x398 JUMP JUMPDEST DUP1 PUSH4 0x1EDBCF6C GT PUSH2 0x33B JUMPI DUP1 PUSH4 0x2E1A7D4D GT PUSH2 0x315 JUMPI DUP1 PUSH4 0x2E1A7D4D EQ PUSH2 0x46E JUMPI DUP1 PUSH4 0x2F7F889E EQ PUSH2 0x481 JUMPI DUP1 PUSH4 0x313CE567 EQ PUSH2 0x494 JUMPI DUP1 PUSH4 0x353A420C EQ PUSH2 0x4A9 JUMPI PUSH2 0x398 JUMP JUMPDEST DUP1 PUSH4 0x1EDBCF6C EQ PUSH2 0x440 JUMPI DUP1 PUSH4 0x23B872DD EQ PUSH2 0x448 JUMPI DUP1 PUSH4 0x27DE9E32 EQ PUSH2 0x45B JUMPI PUSH2 0x398 JUMP JUMPDEST DUP1 PUSH4 0x10E95B6C GT PUSH2 0x377 JUMPI DUP1 PUSH4 0x10E95B6C EQ PUSH2 0x3F0 JUMPI DUP1 PUSH4 0x15E14BF6 EQ PUSH2 0x410 JUMPI DUP1 PUSH4 0x16F0115B EQ PUSH2 0x423 JUMPI DUP1 PUSH4 0x18160DDD EQ PUSH2 0x438 JUMPI PUSH2 0x398 JUMP JUMPDEST DUP1 PUSH3 0x5EDD37 EQ PUSH2 0x39D JUMPI DUP1 PUSH4 0x6FDDE03 EQ PUSH2 0x3B2 JUMPI DUP1 PUSH4 0x95EA7B3 EQ PUSH2 0x3D0 JUMPI JUMPDEST PUSH1 0x0 DUP1 REVERT JUMPDEST PUSH2 0x3B0 PUSH2 0x3AB CALLDATASIZE PUSH1 0x4 PUSH2 0x3DF4 JUMP JUMPDEST PUSH2 0x786 JUMP JUMPDEST STOP JUMPDEST PUSH2 0x3BA PUSH2 0x8A9 JUMP JUMPDEST PUSH1 0x40 MLOAD PUSH2 0x3C7 SWAP2 SWAP1 PUSH2 0x434C JUMP JUMPDEST PUSH1 0x40 MLOAD DUP1 SWAP2 SUB SWAP1 RETURN JUMPDEST PUSH2 0x3E3 PUSH2 0x3DE CALLDATASIZE PUSH1 0x4 PUSH2 0x3E85 JUMP JUMPDEST PUSH2 0x8E1 JUMP JUMPDEST PUSH1 0x40 MLOAD PUSH2 0x3C7 SWAP2 SWAP1 PUSH2 0x4314 JUMP JUMPDEST PUSH2 0x403 PUSH2 0x3FE CALLDATASIZE PUSH1 0x4 PUSH2 0x3F03 JUMP JUMPDEST PUSH2 0x8EA JUMP JUMPDEST PUSH1 0x40 MLOAD PUSH2 0x3C7 SWAP2 SWAP1 PUSH2 0x43CD JUMP JUMPDEST PUSH2 0x403 PUSH2 0x41E CALLDATASIZE PUSH1 0x4 PUSH2 0x3D4F JUMP JUMPDEST PUSH2 0x902 JUMP JUMPDEST PUSH2 0x42B PUSH2 0x920 JUMP JUMPDEST PUSH1 0x40 MLOAD PUSH2 0x3C7 SWAP2 SWAP1 PUSH2 0x42A7 JUMP JUMPDEST PUSH2 0x403 PUSH2 0x92F JUMP JUMPDEST PUSH2 0x403 PUSH2 0x935 JUMP JUMPDEST PUSH2 0x3E3 PUSH2 0x456 CALLDATASIZE PUSH1 0x4 PUSH2 0x3DA7 JUMP JUMPDEST PUSH2 0x93B JUMP JUMPDEST PUSH2 0x3B0 PUSH2 0x469 CALLDATASIZE PUSH1 0x4 PUSH2 0x3F03 JUMP JUMPDEST PUSH2 0x945 JUMP JUMPDEST PUSH2 0x3B0 PUSH2 0x47C CALLDATASIZE PUSH1 0x4 PUSH2 0x3F03 JUMP JUMPDEST PUSH2 0xA8F JUMP JUMPDEST PUSH2 0x3B0 PUSH2 0x48F CALLDATASIZE PUSH1 0x4 PUSH2 0x3E85 JUMP JUMPDEST PUSH2 0xBC7 JUMP JUMPDEST PUSH2 0x49C PUSH2 0xC47 JUMP JUMPDEST PUSH1 0x40 MLOAD PUSH2 0x3C7 SWAP2 SWAP1 PUSH2 0x4439 JUMP JUMPDEST PUSH2 0x403 PUSH2 0x4B7 CALLDATASIZE PUSH1 0x4 PUSH2 0x3D4F JUMP JUMPDEST PUSH2 0xC4C JUMP JUMPDEST PUSH2 0x3B0 PUSH2 0x4CA CALLDATASIZE PUSH1 0x4 PUSH2 0x3D4F JUMP JUMPDEST PUSH2 0xC6A JUMP JUMPDEST PUSH2 0x3E3 PUSH2 0x4DD CALLDATASIZE PUSH1 0x4 PUSH2 0x3D4F JUMP JUMPDEST PUSH2 0xDB8 JUMP JUMPDEST PUSH2 0x4F5 PUSH2 0x4F0 CALLDATASIZE PUSH1 0x4 PUSH2 0x3D6D JUMP JUMPDEST PUSH2 0xDD5 JUMP JUMPDEST PUSH1 0x40 MLOAD PUSH2 0x3C7 SWAP2 SWAP1 PUSH2 0x4330 JUMP JUMPDEST PUSH2 0x403 PUSH2 0xE08 JUMP JUMPDEST PUSH2 0x3B0 PUSH2 0x518 CALLDATASIZE PUSH1 0x4 PUSH2 0x3D4F JUMP JUMPDEST PUSH2 0xE0E JUMP JUMPDEST PUSH2 0x403 PUSH2 0x52B CALLDATASIZE PUSH1 0x4 PUSH2 0x3F3F JUMP JUMPDEST PUSH2 0xF01 JUMP JUMPDEST PUSH2 0x403 PUSH2 0xF31 JUMP JUMPDEST PUSH2 0x540 PUSH2 0xF54 JUMP JUMPDEST PUSH1 0x40 MLOAD PUSH2 0x3C7 SWAP2 SWAP1 PUSH2 0x4322 JUMP JUMPDEST PUSH2 0x403 PUSH2 0x55B CALLDATASIZE PUSH1 0x4 PUSH2 0x3D4F JUMP JUMPDEST PUSH2 0xF63 JUMP JUMPDEST PUSH2 0x42B PUSH2 0xF81 JUMP JUMPDEST PUSH2 0x403 PUSH2 0x576 CALLDATASIZE PUSH1 0x4 PUSH2 0x3D4F JUMP JUMPDEST PUSH2 0xFA6 JUMP JUMPDEST PUSH2 0x403 PUSH2 0x589 CALLDATASIZE PUSH1 0x4 PUSH2 0x3F03 JUMP JUMPDEST PUSH2 0xFC4 JUMP JUMPDEST PUSH2 0x403 PUSH2 0x59C CALLDATASIZE PUSH1 0x4 PUSH2 0x3D4F JUMP JUMPDEST PUSH2 0xFD9 JUMP JUMPDEST PUSH2 0x3E3 PUSH2 0x5AF CALLDATASIZE PUSH1 0x4 PUSH2 0x3F03 JUMP JUMPDEST PUSH2 0xFF7 JUMP JUMPDEST PUSH2 0x540 PUSH2 0x100A JUMP JUMPDEST PUSH2 0x3B0 PUSH2 0x1019 JUMP JUMPDEST PUSH2 0x403 PUSH2 0x5D2 CALLDATASIZE PUSH1 0x4 PUSH2 0x3D4F JUMP JUMPDEST PUSH2 0x108C JUMP JUMPDEST PUSH2 0x403 PUSH2 0x5E5 CALLDATASIZE PUSH1 0x4 PUSH2 0x3D4F JUMP JUMPDEST PUSH2 0x10CC JUMP JUMPDEST PUSH2 0x403 PUSH2 0x10E7 JUMP JUMPDEST PUSH2 0x3BA PUSH2 0x10ED JUMP JUMPDEST PUSH2 0x4F5 PUSH2 0x608 CALLDATASIZE PUSH1 0x4 PUSH2 0x3D4F JUMP JUMPDEST PUSH2 0x110C JUMP JUMPDEST PUSH2 0x3B0 PUSH2 0x61B CALLDATASIZE PUSH1 0x4 PUSH2 0x3F03 JUMP JUMPDEST PUSH2 0x1171 JUMP JUMPDEST PUSH2 0x403 PUSH2 0x123F JUMP JUMPDEST PUSH2 0x403 PUSH2 0x636 CALLDATASIZE PUSH1 0x4 PUSH2 0x3D4F JUMP JUMPDEST PUSH2 0x1245 JUMP JUMPDEST PUSH2 0x403 PUSH2 0x649 CALLDATASIZE PUSH1 0x4 PUSH2 0x3D6D JUMP JUMPDEST PUSH2 0x1263 JUMP JUMPDEST PUSH2 0x403 PUSH2 0x65C CALLDATASIZE PUSH1 0x4 PUSH2 0x3F3F JUMP JUMPDEST PUSH2 0x1292 JUMP JUMPDEST PUSH2 0x403 PUSH2 0x66F CALLDATASIZE PUSH1 0x4 PUSH2 0x3D4F JUMP JUMPDEST PUSH2 0x13B8 JUMP JUMPDEST PUSH2 0x403 PUSH2 0x13CF JUMP JUMPDEST PUSH2 0x3B0 PUSH2 0x68A CALLDATASIZE PUSH1 0x4 PUSH2 0x3F03 JUMP JUMPDEST PUSH2 0x1459 JUMP JUMPDEST PUSH2 0x3B0 PUSH2 0x69D CALLDATASIZE PUSH1 0x4 PUSH2 0x3F5E JUMP JUMPDEST PUSH2 0x1531 JUMP JUMPDEST PUSH2 0x403 PUSH2 0x6B0 CALLDATASIZE PUSH1 0x4 PUSH2 0x3E85 JUMP JUMPDEST PUSH2 0x1665 JUMP JUMPDEST PUSH2 0x3B0 PUSH2 0x6C3 CALLDATASIZE PUSH1 0x4 PUSH2 0x3E55 JUMP JUMPDEST PUSH2 0x16A9 JUMP JUMPDEST PUSH2 0x403 PUSH2 0x6D6 CALLDATASIZE PUSH1 0x4 PUSH2 0x3F03 JUMP JUMPDEST PUSH2 0x1944 JUMP JUMPDEST PUSH2 0x403 PUSH2 0x1959 JUMP JUMPDEST PUSH2 0x3E3 PUSH2 0x6F1 CALLDATASIZE PUSH1 0x4 PUSH2 0x3D4F JUMP JUMPDEST PUSH2 0x195F JUMP JUMPDEST PUSH2 0x3B0 PUSH2 0x704 CALLDATASIZE PUSH1 0x4 PUSH2 0x3F3F JUMP JUMPDEST PUSH2 0x1980 JUMP JUMPDEST PUSH2 0x403 PUSH2 0x717 CALLDATASIZE PUSH1 0x4 PUSH2 0x3F03 JUMP JUMPDEST PUSH2 0x1A7C JUMP JUMPDEST PUSH2 0x403 PUSH2 0x3DE CALLDATASIZE PUSH1 0x4 PUSH2 0x3D6D JUMP JUMPDEST PUSH2 0x3B0 PUSH2 0x738 CALLDATASIZE PUSH1 0x4 PUSH2 0x3F03 JUMP JUMPDEST PUSH2 0x1B07 JUMP JUMPDEST PUSH2 0x403 PUSH2 0x74B CALLDATASIZE PUSH1 0x4 PUSH2 0x3F03 JUMP JUMPDEST PUSH2 0x1BC5 JUMP JUMPDEST PUSH2 0x3B0 PUSH2 0x1CB7 JUMP JUMPDEST PUSH2 0x403 PUSH2 0x766 CALLDATASIZE PUSH1 0x4 PUSH2 0x3D4F JUMP JUMPDEST PUSH2 0x1D5F JUMP JUMPDEST PUSH2 0x403 PUSH2 0x1D7A JUMP JUMPDEST PUSH2 0x403 PUSH2 0x781 CALLDATASIZE PUSH1 0x4 PUSH2 0x3F03 JUMP JUMPDEST PUSH2 0x1D80 JUMP JUMPDEST PUSH1 0x1 PUSH1 0x1 PUSH1 0xA0 SHL SUB DUP5 AND PUSH2 0x7B5 JUMPI PUSH1 0x40 MLOAD PUSH3 0x461BCD PUSH1 0xE5 SHL DUP2 MSTORE PUSH1 0x4 ADD PUSH2 0x7AC SWAP1 PUSH2 0x43AD JUMP JUMPDEST PUSH1 0x40 MLOAD DUP1 SWAP2 SUB SWAP1 REVERT JUMPDEST PUSH1 0x1 PUSH1 0x1 PUSH1 0xA0 SHL SUB DUP4 AND PUSH2 0x7DB JUMPI PUSH1 0x40 MLOAD PUSH3 0x461BCD PUSH1 0xE5 SHL DUP2 MSTORE PUSH1 0x4 ADD PUSH2 0x7AC SWAP1 PUSH2 0x436D JUMP JUMPDEST PUSH2 0x7FF DUP5 DUP4 DUP4 PUSH1 0x40 MLOAD DUP1 PUSH1 0x60 ADD PUSH1 0x40 MSTORE DUP1 PUSH1 0x23 DUP2 MSTORE PUSH1 0x20 ADD PUSH2 0x4545 PUSH1 0x23 SWAP2 CODECOPY PUSH2 0x1D92 JUMP JUMPDEST PUSH2 0x80A DUP4 DUP4 DUP4 PUSH2 0x1E3D JUMP JUMPDEST CALLER PUSH1 0x1 PUSH1 0x1 PUSH1 0xA0 SHL SUB DUP6 AND EQ DUP1 ISZERO SWAP1 PUSH2 0x82E JUMPI POP PUSH1 0x0 NOT PUSH2 0x82B DUP6 CALLER PUSH2 0x1263 JUMP JUMPDEST EQ ISZERO JUMPDEST ISZERO PUSH2 0x857 JUMPI PUSH2 0x857 DUP5 CALLER DUP4 PUSH1 0x40 MLOAD DUP1 PUSH1 0x60 ADD PUSH1 0x40 MSTORE DUP1 PUSH1 0x24 DUP2 MSTORE PUSH1 0x20 ADD PUSH2 0x458C PUSH1 0x24 SWAP2 CODECOPY PUSH2 0x1EE4 JUMP JUMPDEST DUP2 DUP4 PUSH1 0x1 PUSH1 0x1 PUSH1 0xA0 SHL SUB AND DUP6 PUSH1 0x1 PUSH1 0x1 PUSH1 0xA0 SHL SUB AND PUSH32 0xF1DBB1CCBE57A1590C7BAAD7B01D581B730C9EBC535DCDE4345E6DB424063D8 DUP5 PUSH1 0x40 MLOAD PUSH2 0x89B SWAP2 SWAP1 PUSH2 0x43CD JUMP JUMPDEST PUSH1 0x40 MLOAD DUP1 SWAP2 SUB SWAP1 LOG4 POP POP POP POP JUMP JUMPDEST PUSH1 0x40 DUP1 MLOAD DUP1 DUP3 ADD SWAP1 SWAP2 MSTORE PUSH1 0x1E DUP2 MSTORE PUSH32 0x42696E616E6365204167696C652053657420446F6C6C6172205374616B650000 PUSH1 0x20 DUP3 ADD MSTORE JUMPDEST SWAP1 JUMP JUMPDEST PUSH1 0x0 JUMPDEST SWAP3 SWAP2 POP POP JUMP JUMPDEST PUSH1 0x0 DUP2 DUP2 MSTORE PUSH1 0xD PUSH1 0x20 MSTORE PUSH1 0x40 SWAP1 KECCAK256 PUSH1 0x2 ADD SLOAD JUMPDEST SWAP2 SWAP1 POP JUMP JUMPDEST PUSH1 0x1 PUSH1 0x1 PUSH1 0xA0 SHL SUB AND PUSH1 0x0 SWAP1 DUP2 MSTORE PUSH1 0xE PUSH1 0x20 MSTORE PUSH1 0x40 SWAP1 KECCAK256 PUSH1 0x1 ADD SLOAD SWAP1 JUMP JUMPDEST PUSH1 0xB SLOAD PUSH1 0x1 PUSH1 0x1 PUSH1 0xA0 SHL SUB AND SWAP1 JUMP JUMPDEST PUSH1 0x3 SLOAD SWAP1 JUMP JUMPDEST PUSH1 0x6 SLOAD SWAP1 JUMP JUMPDEST PUSH1 0x0 JUMPDEST SWAP4 SWAP3 POP POP POP JUMP JUMPDEST CALLER PUSH2 0x98C PUSH1 0x2 JUMPDEST PUSH2 0x955 DUP4 PUSH2 0x110C JUMP JUMPDEST PUSH1 0x2 DUP2 GT ISZERO PUSH2 0x960 JUMPI INVALID JUMPDEST EQ ISZERO PUSH10 0x2832B936B4B9B9B4B7B7 PUSH1 0xB1 SHL PUSH19 0x139BDD08199C9BDE995B881BDC88199B1D5A59 PUSH1 0x6A SHL PUSH2 0x1F55 JUMP JUMPDEST PUSH2 0x995 CALLER PUSH2 0x1FAA JUMP JUMPDEST PUSH1 0x0 PUSH2 0x9C8 PUSH2 0x9A3 CALLER PUSH2 0xFD9 JUMP JUMPDEST PUSH2 0x9BC PUSH2 0x9AF CALLER PUSH2 0x108C JUMP JUMPDEST DUP7 SWAP1 PUSH4 0xFFFFFFFF PUSH2 0x1FD4 AND JUMP JUMPDEST SWAP1 PUSH4 0xFFFFFFFF PUSH2 0x200E AND JUMP JUMPDEST SWAP1 POP PUSH2 0x9D4 CALLER DUP3 PUSH2 0x2050 JUMP JUMPDEST PUSH2 0x9F6 DUP2 PUSH1 0x40 MLOAD DUP1 PUSH1 0x60 ADD PUSH1 0x40 MSTORE DUP1 PUSH1 0x22 DUP2 MSTORE PUSH1 0x20 ADD PUSH2 0x45B0 PUSH1 0x22 SWAP2 CODECOPY PUSH2 0x20AC JUMP JUMPDEST PUSH2 0xA36 CALLER DUP5 PUSH1 0x40 MLOAD DUP1 PUSH1 0x40 ADD PUSH1 0x40 MSTORE DUP1 PUSH1 0x1D DUP2 MSTORE PUSH1 0x20 ADD PUSH32 0x426F6E64696E673A20696E73756666696369656E742062616C616E6365000000 DUP2 MSTORE POP PUSH2 0x20C7 JUMP JUMPDEST CALLER PUSH32 0x93530AC0EE8C50E696E13C5AC62355D0C0BA4BD943620D5BDA1EB08B64AE7512 PUSH2 0xA71 PUSH1 0x1 PUSH2 0xA65 PUSH2 0x10E7 JUMP JUMPDEST SWAP1 PUSH4 0xFFFFFFFF PUSH2 0x2172 AND JUMP JUMPDEST DUP6 DUP5 PUSH1 0x40 MLOAD PUSH2 0xA82 SWAP4 SWAP3 SWAP2 SWAP1 PUSH2 0x43E9 JUMP JUMPDEST PUSH1 0x40 MLOAD DUP1 SWAP2 SUB SWAP1 LOG2 POP POP POP JUMP JUMPDEST CALLER PUSH2 0xAD7 PUSH1 0x1 JUMPDEST PUSH2 0xA9F DUP4 PUSH2 0x110C JUMP JUMPDEST PUSH1 0x2 DUP2 GT ISZERO PUSH2 0xAAA JUMPI INVALID JUMPDEST EQ ISZERO PUSH10 0x2832B936B4B9B9B4B7B7 PUSH1 0xB1 SHL PUSH20 0x139BDD08199C9BDE995B881BDC881B1BD8DAD959 PUSH1 0x62 SHL PUSH2 0x1F55 JUMP JUMPDEST PUSH2 0xADF PUSH2 0xF54 JUMP JUMPDEST PUSH1 0x1 PUSH1 0x1 PUSH1 0xA0 SHL SUB AND PUSH4 0xA9059CBB CALLER DUP5 PUSH1 0x40 MLOAD DUP4 PUSH4 0xFFFFFFFF AND PUSH1 0xE0 SHL DUP2 MSTORE PUSH1 0x4 ADD PUSH2 0xB0C SWAP3 SWAP2 SWAP1 PUSH2 0x42DD JUMP JUMPDEST PUSH1 0x20 PUSH1 0x40 MLOAD DUP1 DUP4 SUB DUP2 PUSH1 0x0 DUP8 DUP1 EXTCODESIZE ISZERO DUP1 ISZERO PUSH2 0xB26 JUMPI PUSH1 0x0 DUP1 REVERT JUMPDEST POP GAS CALL ISZERO DUP1 ISZERO PUSH2 0xB3A JUMPI RETURNDATASIZE PUSH1 0x0 DUP1 RETURNDATACOPY RETURNDATASIZE PUSH1 0x0 REVERT JUMPDEST POP POP POP POP PUSH1 0x40 MLOAD RETURNDATASIZE PUSH1 0x1F NOT PUSH1 0x1F DUP3 ADD AND DUP3 ADD DUP1 PUSH1 0x40 MSTORE POP PUSH2 0xB5E SWAP2 SWAP1 DUP2 ADD SWAP1 PUSH2 0x3EB5 JUMP JUMPDEST POP PUSH2 0xB82 CALLER DUP4 PUSH1 0x40 MLOAD DUP1 PUSH1 0x60 ADD PUSH1 0x40 MSTORE DUP1 PUSH1 0x24 DUP2 MSTORE PUSH1 0x20 ADD PUSH2 0x4568 PUSH1 0x24 SWAP2 CODECOPY PUSH2 0x2197 JUMP JUMPDEST CALLER PUSH1 0x1 PUSH1 0x1 PUSH1 0xA0 SHL SUB AND PUSH32 0x884EDAD9CE6FA2440D8A54CC123490EB96D2768479D49FF9C7366125A9424364 DUP4 PUSH1 0x40 MLOAD PUSH2 0xBBB SWAP2 SWAP1 PUSH2 0x43CD JUMP JUMPDEST PUSH1 0x40 MLOAD DUP1 SWAP2 SUB SWAP1 LOG2 POP POP JUMP JUMPDEST PUSH1 0x1 PUSH1 0x1 PUSH1 0xA0 SHL SUB DUP3 AND PUSH2 0xBED JUMPI PUSH1 0x40 MLOAD PUSH3 0x461BCD PUSH1 0xE5 SHL DUP2 MSTORE PUSH1 0x4 ADD PUSH2 0x7AC SWAP1 PUSH2 0x439D JUMP JUMPDEST PUSH2 0xBF8 CALLER DUP4 DUP4 PUSH2 0x21F6 JUMP JUMPDEST DUP2 PUSH1 0x1 PUSH1 0x1 PUSH1 0xA0 SHL SUB AND CALLER PUSH1 0x1 PUSH1 0x1 PUSH1 0xA0 SHL SUB AND PUSH32 0x8FF27E6B95060C1CA851E7C2C28AF8B413EB1A8BCB637B0290DA9543A709CCE3 DUP4 PUSH1 0x40 MLOAD PUSH2 0xC3B SWAP2 SWAP1 PUSH2 0x43CD JUMP JUMPDEST PUSH1 0x40 MLOAD DUP1 SWAP2 SUB SWAP1 LOG3 POP POP JUMP JUMPDEST PUSH1 0x12 SWAP1 JUMP JUMPDEST PUSH1 0x1 PUSH1 0x1 PUSH1 0xA0 SHL SUB AND PUSH1 0x0 SWAP1 DUP2 MSTORE PUSH1 0xE PUSH1 0x20 MSTORE PUSH1 0x40 SWAP1 KECCAK256 PUSH1 0x3 ADD SLOAD SWAP1 JUMP JUMPDEST PUSH2 0xC96 PUSH2 0xC76 DUP3 PUSH2 0xDB8 JUMP JUMPDEST PUSH6 0x23B7BB32B937 PUSH1 0xD1 SHL PUSH13 0x139BDD081B9BDB5A5B985D1959 PUSH1 0x9A SHL PUSH2 0x1F55 JUMP JUMPDEST PUSH1 0x0 PUSH2 0xCBE PUSH1 0x1 PUSH2 0xCB2 PUSH2 0xCA9 DUP6 PUSH2 0x902 JUMP JUMPDEST PUSH2 0xA65 DUP7 PUSH2 0x1D5F JUMP JUMPDEST SWAP1 PUSH4 0xFFFFFFFF PUSH2 0x2226 AND JUMP JUMPDEST SWAP1 POP PUSH2 0xCE9 DUP2 PUSH2 0xCCC PUSH2 0x10E7 JUMP JUMPDEST GT PUSH6 0x23B7BB32B937 PUSH1 0xD1 SHL PUSH9 0x139BDD08195B991959 PUSH1 0xBA SHL PUSH2 0x1F55 JUMP JUMPDEST PUSH2 0xD40 PUSH2 0xD1D PUSH2 0xCF7 PUSH2 0x2268 JUMP JUMPDEST PUSH2 0xD11 PUSH2 0xD03 DUP7 PUSH2 0x13B8 JUMP JUMPDEST PUSH2 0xD0C DUP7 PUSH2 0x1D80 JUMP JUMPDEST PUSH2 0x228A JUMP JUMPDEST SWAP1 PUSH4 0xFFFFFFFF PUSH2 0x22B9 AND JUMP JUMPDEST PUSH6 0x23B7BB32B937 PUSH1 0xD1 SHL PUSH16 0x4D75737420686176652071756F726F6D PUSH1 0x80 SHL PUSH2 0x1F55 JUMP JUMPDEST PUSH2 0xD75 PUSH2 0xD4C DUP4 PUSH2 0xC4C JUMP JUMPDEST PUSH2 0xD55 DUP5 PUSH2 0xFA6 JUMP JUMPDEST GT PUSH6 0x23B7BB32B937 PUSH1 0xD1 SHL PUSH12 0x139BDD08185C1C1C9BDD9959 PUSH1 0xA2 SHL PUSH2 0x1F55 JUMP JUMPDEST PUSH2 0xD7E DUP3 PUSH2 0x22CF JUMP JUMPDEST PUSH1 0x40 MLOAD PUSH1 0x1 PUSH1 0x1 PUSH1 0xA0 SHL SUB DUP4 AND SWAP1 CALLER SWAP1 PUSH32 0x815CA4497AB9FC80C76F210E6E842A5E198E195AA136034557EEE144F790E7BB SWAP1 PUSH1 0x0 SWAP1 LOG3 POP POP JUMP JUMPDEST PUSH1 0x1 PUSH1 0x1 PUSH1 0xA0 SHL SUB AND PUSH1 0x0 SWAP1 DUP2 MSTORE PUSH1 0xE PUSH1 0x20 MSTORE PUSH1 0x40 SWAP1 KECCAK256 SLOAD ISZERO ISZERO SWAP1 JUMP JUMPDEST PUSH1 0x1 PUSH1 0x1 PUSH1 0xA0 SHL SUB DUP1 DUP3 AND PUSH1 0x0 SWAP1 DUP2 MSTORE PUSH1 0xE PUSH1 0x20 SWAP1 DUP2 MSTORE PUSH1 0x40 DUP1 DUP4 KECCAK256 SWAP4 DUP7 AND DUP4 MSTORE PUSH1 0x4 SWAP1 SWAP4 ADD SWAP1 MSTORE KECCAK256 SLOAD PUSH1 0xFF AND SWAP3 SWAP2 POP POP JUMP JUMPDEST PUSH1 0x4 SLOAD SWAP1 JUMP JUMPDEST PUSH2 0xE1A PUSH2 0xC76 DUP3 PUSH2 0xDB8 JUMP JUMPDEST PUSH2 0xE58 PUSH2 0xE30 PUSH2 0xE28 PUSH2 0x23BB JUMP JUMPDEST PUSH2 0xA65 PUSH2 0x10E7 JUMP JUMPDEST PUSH2 0xE38 PUSH2 0xF31 JUMP JUMPDEST GT PUSH6 0x23B7BB32B937 PUSH1 0xD1 SHL PUSH12 0x115C1BD8DA081CDE5B98D959 PUSH1 0xA2 SHL PUSH2 0x1F55 JUMP JUMPDEST PUSH2 0xEAA PUSH2 0xE7A PUSH2 0xE66 PUSH2 0x23C0 JUMP JUMPDEST PUSH2 0xD11 PUSH2 0xE72 DUP6 PUSH2 0xFA6 JUMP JUMPDEST PUSH2 0xD0C PUSH2 0x92F JUMP JUMPDEST PUSH6 0x23B7BB32B937 PUSH1 0xD1 SHL PUSH32 0x4D7573742068617665207375706572206D616A6F726974790000000000000000 PUSH2 0x1F55 JUMP JUMPDEST PUSH2 0xEBF PUSH2 0xEB6 DUP3 PUSH2 0xC4C JUMP JUMPDEST PUSH2 0xD55 DUP4 PUSH2 0xFA6 JUMP JUMPDEST PUSH2 0xEC8 DUP2 PUSH2 0x22CF JUMP JUMPDEST PUSH1 0x40 MLOAD PUSH1 0x1 PUSH1 0x1 PUSH1 0xA0 SHL SUB DUP3 AND SWAP1 CALLER SWAP1 PUSH32 0x815CA4497AB9FC80C76F210E6E842A5E198E195AA136034557EEE144F790E7BB SWAP1 PUSH1 0x0 SWAP1 LOG3 POP JUMP JUMPDEST PUSH1 0x0 DUP3 DUP2 MSTORE PUSH1 0xD PUSH1 0x20 MSTORE PUSH1 0x40 DUP2 KECCAK256 PUSH1 0x3 ADD DUP1 SLOAD DUP4 SWAP1 DUP2 LT PUSH2 0xF1E JUMPI INVALID JUMPDEST SWAP1 PUSH1 0x0 MSTORE PUSH1 0x20 PUSH1 0x0 KECCAK256 ADD SLOAD SWAP1 POP SWAP3 SWAP2 POP POP JUMP JUMPDEST PUSH1 0x0 PUSH2 0xF3B PUSH2 0x3CB1 JUMP JUMPDEST PUSH2 0xF43 PUSH2 0x23E2 JUMP JUMPDEST SWAP1 POP PUSH2 0xF4E DUP2 PUSH2 0x2411 JUMP JUMPDEST SWAP2 POP POP SWAP1 JUMP JUMPDEST PUSH1 0x9 SLOAD PUSH1 0x1 PUSH1 0x1 PUSH1 0xA0 SHL SUB AND SWAP1 JUMP JUMPDEST PUSH1 0x1 PUSH1 0x1 PUSH1 0xA0 SHL SUB AND PUSH1 0x0 SWAP1 DUP2 MSTORE PUSH1 0xC PUSH1 0x20 MSTORE PUSH1 0x40 SWAP1 KECCAK256 PUSH1 0x4 ADD SLOAD SWAP1 JUMP JUMPDEST PUSH32 0x360894A13BA1A3210667C828492DB98DCA3E2076CC3735A920A3CA505D382BBC SLOAD SWAP1 JUMP JUMPDEST PUSH1 0x1 PUSH1 0x1 PUSH1 0xA0 SHL SUB AND PUSH1 0x0 SWAP1 DUP2 MSTORE PUSH1 0xE PUSH1 0x20 MSTORE PUSH1 0x40 SWAP1 KECCAK256 PUSH1 0x2 ADD SLOAD SWAP1 JUMP JUMPDEST PUSH1 0x0 SWAP1 DUP2 MSTORE PUSH1 0xD PUSH1 0x20 MSTORE PUSH1 0x40 SWAP1 KECCAK256 PUSH1 0x3 ADD SLOAD SWAP1 JUMP JUMPDEST PUSH1 0x1 PUSH1 0x1 PUSH1 0xA0 SHL SUB AND PUSH1 0x0 SWAP1 DUP2 MSTORE PUSH1 0xC PUSH1 0x20 MSTORE PUSH1 0x40 SWAP1 KECCAK256 PUSH1 0x1 ADD SLOAD SWAP1 JUMP JUMPDEST PUSH1 0x0 PUSH2 0x1001 PUSH2 0x2433 JUMP JUMPDEST SWAP1 SWAP2 GT ISZERO SWAP2 SWAP1 POP JUMP JUMPDEST PUSH1 0xA SLOAD PUSH1 0x1 PUSH1 0x1 PUSH1 0xA0 SHL SUB AND SWAP1 JUMP JUMPDEST PUSH2 0x1052 PUSH2 0x1027 PUSH2 0x6F1 PUSH2 0xF81 JUMP JUMPDEST ISZERO PUSH10 0x2832B936B4B9B9B4B7B7 PUSH1 0xB1 SHL PUSH19 0x105B1C9958591E481A5B9A5D1A585B1A5E9959 PUSH1 0x6A SHL PUSH2 0x1F55 JUMP JUMPDEST PUSH2 0x1062 PUSH2 0x105D PUSH2 0xF81 JUMP JUMPDEST PUSH2 0x2438 JUMP JUMPDEST PUSH2 0x108A PUSH20 0xEC90B539173AD7F16164FE80854EE5ADA020879F PUSH10 0x152D02C7E14AF6800000 PUSH2 0x245F JUMP JUMPDEST JUMP JUMPDEST PUSH1 0x0 DUP1 PUSH2 0x1097 PUSH2 0x92F JUMP JUMPDEST SWAP1 POP DUP1 PUSH2 0x10A8 JUMPI PUSH1 0x0 SWAP2 POP POP PUSH2 0x8FD JUMP JUMPDEST PUSH2 0x93E DUP2 PUSH2 0x9BC PUSH2 0x10B8 DUP7 PUSH2 0xFD9 JUMP JUMPDEST PUSH2 0x10C0 PUSH2 0xE08 JUMP JUMPDEST SWAP1 PUSH4 0xFFFFFFFF PUSH2 0x1FD4 AND JUMP JUMPDEST PUSH1 0x1 PUSH1 0x1 PUSH1 0xA0 SHL SUB AND PUSH1 0x0 SWAP1 DUP2 MSTORE PUSH1 0xC PUSH1 0x20 MSTORE PUSH1 0x40 SWAP1 KECCAK256 SLOAD SWAP1 JUMP JUMPDEST PUSH1 0x2 SLOAD SWAP1 JUMP JUMPDEST PUSH1 0x40 DUP1 MLOAD DUP1 DUP3 ADD SWAP1 SWAP2 MSTORE PUSH1 0x5 DUP2 MSTORE PUSH5 0x4241534453 PUSH1 0xD8 SHL PUSH1 0x20 DUP3 ADD MSTORE SWAP1 JUMP JUMPDEST PUSH1 0x0 PUSH2 0x1116 PUSH2 0x10E7 JUMP JUMPDEST PUSH1 0x1 PUSH1 0x1 PUSH1 0xA0 SHL SUB DUP4 AND PUSH1 0x0 SWAP1 DUP2 MSTORE PUSH1 0xC PUSH1 0x20 MSTORE PUSH1 0x40 SWAP1 KECCAK256 PUSH1 0x5 ADD SLOAD GT ISZERO PUSH2 0x1140 JUMPI POP PUSH1 0x2 PUSH2 0x8FD JUMP JUMPDEST PUSH1 0x1 PUSH1 0x1 PUSH1 0xA0 SHL SUB DUP3 AND PUSH1 0x0 SWAP1 DUP2 MSTORE PUSH1 0xC PUSH1 0x20 MSTORE PUSH1 0x40 SWAP1 KECCAK256 PUSH1 0x4 ADD SLOAD PUSH2 0x1164 PUSH2 0x10E7 JUMP JUMPDEST LT ISZERO PUSH2 0x8E1 JUMPI PUSH1 0x1 PUSH2 0x8E4 JUMP JUMPDEST CALLER PUSH2 0x117C PUSH1 0x2 PUSH2 0x94C JUMP JUMPDEST PUSH2 0x1185 CALLER PUSH2 0x1FAA JUMP JUMPDEST PUSH1 0x0 PUSH2 0x118F PUSH2 0xE08 JUMP JUMPDEST ISZERO PUSH2 0x11AF JUMPI PUSH2 0x11AA PUSH2 0x119F PUSH2 0xE08 JUMP JUMPDEST PUSH2 0x9BC PUSH2 0x9AF PUSH2 0x92F JUMP JUMPDEST PUSH2 0x11C7 JUMP JUMPDEST PUSH2 0x11C7 PUSH2 0x11BA PUSH2 0x250B JUMP JUMPDEST DUP5 SWAP1 PUSH4 0xFFFFFFFF PUSH2 0x1FD4 AND JUMP JUMPDEST SWAP1 POP PUSH2 0x11D3 CALLER DUP3 PUSH2 0x2512 JUMP JUMPDEST PUSH2 0x11DC DUP4 PUSH2 0x25AE JUMP JUMPDEST PUSH2 0x11FF CALLER DUP5 PUSH1 0x40 MLOAD DUP1 PUSH1 0x60 ADD PUSH1 0x40 MSTORE DUP1 PUSH1 0x24 DUP2 MSTORE PUSH1 0x20 ADD PUSH2 0x4568 PUSH1 0x24 SWAP2 CODECOPY PUSH2 0x2197 JUMP JUMPDEST CALLER PUSH32 0x44002FDEF5A0C2D2E4E05572E9780B95AEF97E0E93FFD7CC076B09FA78FF2B46 PUSH2 0x122E PUSH1 0x1 PUSH2 0xA65 PUSH2 0x10E7 JUMP JUMPDEST DUP4 DUP7 PUSH1 0x40 MLOAD PUSH2 0xA82 SWAP4 SWAP3 SWAP2 SWAP1 PUSH2 0x43E9 JUMP JUMPDEST PUSH1 0x8 SLOAD SWAP1 JUMP JUMPDEST PUSH1 0x1 PUSH1 0x1 PUSH1 0xA0 SHL SUB AND PUSH1 0x0 SWAP1 DUP2 MSTORE PUSH1 0xC PUSH1 0x20 MSTORE PUSH1 0x40 SWAP1 KECCAK256 PUSH1 0x5 ADD SLOAD SWAP1 JUMP JUMPDEST PUSH1 0x1 PUSH1 0x1 PUSH1 0xA0 SHL SUB SWAP2 DUP3 AND PUSH1 0x0 SWAP1 DUP2 MSTORE PUSH1 0xC PUSH1 0x20 SWAP1 DUP2 MSTORE PUSH1 0x40 DUP1 DUP4 KECCAK256 SWAP4 SWAP1 SWAP5 AND DUP3 MSTORE PUSH1 0x3 SWAP1 SWAP3 ADD SWAP1 SWAP2 MSTORE KECCAK256 SLOAD SWAP1 JUMP JUMPDEST PUSH1 0x0 DUP1 PUSH2 0x129D PUSH2 0x23E2 JUMP JUMPDEST PUSH1 0x40 ADD MLOAD TIMESTAMP DUP2 PUSH2 0x12A9 JUMPI INVALID JUMPDEST MOD SWAP1 POP PUSH1 0x0 DUP5 PUSH2 0x12B7 PUSH2 0x10E7 JUMP JUMPDEST SUB SWAP1 POP PUSH1 0x0 PUSH2 0x12C4 PUSH2 0x25C7 JUMP JUMPDEST DUP3 PUSH2 0x12CD PUSH2 0x25C7 JUMP JUMPDEST SUB PUSH2 0x12D6 PUSH2 0x25CD JUMP JUMPDEST MUL DUP2 PUSH2 0x12DE JUMPI INVALID JUMPDEST DIV SWAP1 POP DUP1 DUP4 GT ISZERO PUSH2 0x12F5 JUMPI PUSH1 0x0 SWAP4 POP POP POP POP PUSH2 0x8E4 JUMP JUMPDEST PUSH2 0x12FD PUSH2 0x3CD2 JUMP JUMPDEST PUSH2 0x1350 PUSH1 0x40 MLOAD DUP1 PUSH1 0x20 ADD PUSH1 0x40 MSTORE DUP1 DUP6 PUSH2 0x1314 PUSH2 0x25C7 JUMP JUMPDEST SUB DUP2 MSTORE POP PUSH2 0x1344 PUSH1 0x40 MLOAD DUP1 PUSH1 0x20 ADD PUSH1 0x40 MSTORE DUP1 PUSH2 0x132E PUSH2 0x25C7 JUMP JUMPDEST SWAP1 MSTORE PUSH2 0x1338 PUSH2 0x25D3 JUMP JUMPDEST SWAP1 PUSH4 0xFFFFFFFF PUSH2 0x25F5 AND JUMP JUMPDEST SWAP1 PUSH4 0xFFFFFFFF PUSH2 0x2623 AND JUMP JUMPDEST SWAP1 POP PUSH2 0x135A PUSH2 0x3CD2 JUMP JUMPDEST PUSH1 0x40 DUP1 MLOAD PUSH1 0x20 DUP1 DUP3 ADD DUP4 MSTORE DUP8 DUP7 SUB DUP3 MSTORE DUP3 MLOAD SWAP1 DUP2 ADD SWAP1 SWAP3 MSTORE DUP5 DUP3 MSTORE PUSH2 0x138A SWAP2 PUSH2 0x1344 SWAP1 DUP6 SWAP1 PUSH4 0xFFFFFFFF PUSH2 0x25F5 AND JUMP JUMPDEST PUSH1 0x40 DUP1 MLOAD PUSH1 0x20 DUP2 ADD SWAP1 SWAP2 MSTORE DUP9 DUP2 MSTORE SWAP1 SWAP2 POP PUSH2 0x13AB SWAP1 DUP3 PUSH4 0xFFFFFFFF PUSH2 0x2623 AND JUMP JUMPDEST MLOAD SWAP9 SWAP8 POP POP POP POP POP POP POP POP JUMP JUMPDEST PUSH1 0x0 PUSH2 0x8E4 PUSH2 0x13C6 DUP4 PUSH2 0xC4C JUMP JUMPDEST PUSH2 0xA65 DUP5 PUSH2 0xFA6 JUMP JUMPDEST PUSH1 0x0 PUSH2 0x1454 PUSH2 0x13DC PUSH2 0x1D7A JUMP JUMPDEST PUSH2 0x13E4 PUSH2 0xF54 JUMP JUMPDEST PUSH1 0x1 PUSH1 0x1 PUSH1 0xA0 SHL SUB AND PUSH4 0x18160DDD PUSH1 0x40 MLOAD DUP2 PUSH4 0xFFFFFFFF AND PUSH1 0xE0 SHL DUP2 MSTORE PUSH1 0x4 ADD PUSH1 0x20 PUSH1 0x40 MLOAD DUP1 DUP4 SUB DUP2 DUP7 DUP1 EXTCODESIZE ISZERO DUP1 ISZERO PUSH2 0x141C JUMPI PUSH1 0x0 DUP1 REVERT JUMPDEST POP GAS STATICCALL ISZERO DUP1 ISZERO PUSH2 0x1430 JUMPI RETURNDATASIZE PUSH1 0x0 DUP1 RETURNDATACOPY RETURNDATASIZE PUSH1 0x0 REVERT JUMPDEST POP POP POP POP PUSH1 0x40 MLOAD RETURNDATASIZE PUSH1 0x1F NOT PUSH1 0x1F DUP3 ADD AND DUP3 ADD DUP1 PUSH1 0x40 MSTORE POP PUSH2 0xCB2 SWAP2 SWAP1 DUP2 ADD SWAP1 PUSH2 0x3F21 JUMP JUMPDEST SWAP1 POP SWAP1 JUMP JUMPDEST PUSH2 0x1461 PUSH2 0xF54 JUMP JUMPDEST PUSH1 0x1 PUSH1 0x1 PUSH1 0xA0 SHL SUB AND PUSH4 0x23B872DD CALLER ADDRESS DUP5 PUSH1 0x40 MLOAD DUP5 PUSH4 0xFFFFFFFF AND PUSH1 0xE0 SHL DUP2 MSTORE PUSH1 0x4 ADD PUSH2 0x1490 SWAP4 SWAP3 SWAP2 SWAP1 PUSH2 0x42B5 JUMP JUMPDEST PUSH1 0x20 PUSH1 0x40 MLOAD DUP1 DUP4 SUB DUP2 PUSH1 0x0 DUP8 DUP1 EXTCODESIZE ISZERO DUP1 ISZERO PUSH2 0x14AA JUMPI PUSH1 0x0 DUP1 REVERT JUMPDEST POP GAS CALL ISZERO DUP1 ISZERO PUSH2 0x14BE JUMPI RETURNDATASIZE PUSH1 0x0 DUP1 RETURNDATACOPY RETURNDATASIZE PUSH1 0x0 REVERT JUMPDEST POP POP POP POP PUSH1 0x40 MLOAD RETURNDATASIZE PUSH1 0x1F NOT PUSH1 0x1F DUP3 ADD AND DUP3 ADD DUP1 PUSH1 0x40 MSTORE POP PUSH2 0x14E2 SWAP2 SWAP1 DUP2 ADD SWAP1 PUSH2 0x3EB5 JUMP JUMPDEST POP PUSH2 0x14ED CALLER DUP3 PUSH2 0x2050 JUMP JUMPDEST CALLER PUSH1 0x1 PUSH1 0x1 PUSH1 0xA0 SHL SUB AND PUSH32 0xE1FFFCC4923D04B559F4D29A8BFC6CDA04EB5B0D3C460751C2402C5C5CC9109C DUP3 PUSH1 0x40 MLOAD PUSH2 0x1526 SWAP2 SWAP1 PUSH2 0x43CD JUMP JUMPDEST PUSH1 0x40 MLOAD DUP1 SWAP2 SUB SWAP1 LOG2 POP JUMP JUMPDEST PUSH1 0x2 PUSH2 0x153F DUP5 PUSH2 0xCB2 PUSH2 0x10E7 JUMP JUMPDEST LT ISZERO PUSH2 0x155D JUMPI PUSH1 0x40 MLOAD PUSH3 0x461BCD PUSH1 0xE5 SHL DUP2 MSTORE PUSH1 0x4 ADD PUSH2 0x7AC SWAP1 PUSH2 0x43BD JUMP JUMPDEST PUSH2 0x1581 CALLER DUP5 DUP5 PUSH1 0x40 MLOAD DUP1 PUSH1 0x60 ADD PUSH1 0x40 MSTORE DUP1 PUSH1 0x23 DUP2 MSTORE PUSH1 0x20 ADD PUSH2 0x4545 PUSH1 0x23 SWAP2 CODECOPY PUSH2 0x1D92 JUMP JUMPDEST PUSH1 0x0 PUSH2 0x158D DUP5 DUP5 PUSH2 0x1292 JUMP JUMPDEST SWAP1 POP DUP1 DUP4 SUB PUSH2 0x15C9 DUP4 DUP3 LT ISZERO PUSH6 0x13585C9AD95D PUSH1 0xD2 SHL PUSH32 0x496E73756666696369656E74206F757470757420616D6F756E74000000000000 PUSH2 0x1F55 JUMP JUMPDEST PUSH2 0x15D3 CALLER DUP3 PUSH2 0x2651 JUMP JUMPDEST DUP2 ISZERO PUSH2 0x161C JUMPI DUP5 CALLER PUSH1 0x1 PUSH1 0x1 PUSH1 0xA0 SHL SUB AND PUSH32 0x1CD1213D4276C260E84170B4A39025DC8398FBF744EDEE0709261769B456B94B DUP5 PUSH1 0x40 MLOAD PUSH2 0x1613 SWAP2 SWAP1 PUSH2 0x43CD JUMP JUMPDEST PUSH1 0x40 MLOAD DUP1 SWAP2 SUB SWAP1 LOG3 JUMPDEST DUP5 CALLER PUSH1 0x1 PUSH1 0x1 PUSH1 0xA0 SHL SUB AND PUSH32 0x46E9903AE8AC9E9F0C9BC321B05965C1C036E7D4783758703F5CDFC4133C51B6 DUP4 PUSH1 0x40 MLOAD PUSH2 0x1656 SWAP2 SWAP1 PUSH2 0x43CD JUMP JUMPDEST PUSH1 0x40 MLOAD DUP1 SWAP2 SUB SWAP1 LOG3 POP POP POP POP POP JUMP JUMPDEST PUSH1 0x0 PUSH2 0x1670 DUP3 PUSH2 0x1944 JUMP JUMPDEST PUSH2 0x167C JUMPI POP PUSH1 0x0 PUSH2 0x8E4 JUMP JUMPDEST POP PUSH1 0x1 PUSH1 0x1 PUSH1 0xA0 SHL SUB SWAP2 SWAP1 SWAP2 AND PUSH1 0x0 SWAP1 DUP2 MSTORE PUSH1 0xC PUSH1 0x20 SWAP1 DUP2 MSTORE PUSH1 0x40 DUP1 DUP4 KECCAK256 SWAP4 DUP4 MSTORE PUSH1 0x2 SWAP1 SWAP4 ADD SWAP1 MSTORE KECCAK256 SLOAD SWAP1 JUMP JUMPDEST CALLER PUSH2 0x16B4 PUSH1 0x1 PUSH2 0xA96 JUMP JUMPDEST PUSH2 0x16E5 PUSH1 0x0 PUSH2 0x16C2 CALLER PUSH2 0xFD9 JUMP JUMPDEST GT PUSH6 0x23B7BB32B937 PUSH1 0xD1 SHL PUSH15 0x4D7573742068617665207374616B65 PUSH1 0x88 SHL PUSH2 0x1F55 JUMP JUMPDEST PUSH2 0x16EE DUP4 PUSH2 0xDB8 JUMP JUMPDEST PUSH2 0x1791 JUMPI PUSH2 0x172E PUSH2 0x16FE CALLER PUSH2 0x26FB JUMP JUMPDEST PUSH6 0x23B7BB32B937 PUSH1 0xD1 SHL PUSH32 0x4E6F7420656E6F756768207374616B6520746F2070726F706F73650000000000 PUSH2 0x1F55 JUMP JUMPDEST PUSH2 0x173F DUP4 PUSH2 0x173A PUSH2 0x273F JUMP JUMPDEST PUSH2 0x2744 JUMP JUMPDEST PUSH2 0x1747 PUSH2 0x10E7 JUMP JUMPDEST CALLER PUSH1 0x1 PUSH1 0x1 PUSH1 0xA0 SHL SUB DUP6 AND PUSH32 0xD15E38A680A427478883CD2D32EB664CB6BB2090B0126A23EBAF3E3784B8C56B PUSH2 0x177B PUSH2 0x273F JUMP JUMPDEST PUSH1 0x40 MLOAD PUSH2 0x1788 SWAP2 SWAP1 PUSH2 0x43CD JUMP JUMPDEST PUSH1 0x40 MLOAD DUP1 SWAP2 SUB SWAP1 LOG4 JUMPDEST PUSH2 0x17C1 PUSH2 0x17A0 PUSH2 0xCA9 DUP6 PUSH2 0x902 JUMP JUMPDEST PUSH2 0x17A8 PUSH2 0x10E7 JUMP JUMPDEST LT PUSH6 0x23B7BB32B937 PUSH1 0xD1 SHL PUSH5 0x115B991959 PUSH1 0xDA SHL PUSH2 0x1F55 JUMP JUMPDEST PUSH1 0x0 PUSH2 0x17CC CALLER PUSH2 0xFD9 JUMP JUMPDEST SWAP1 POP PUSH1 0x0 PUSH2 0x17DA CALLER DUP7 PUSH2 0xDD5 JUMP JUMPDEST SWAP1 POP DUP1 PUSH1 0x2 DUP2 GT ISZERO PUSH2 0x17E8 JUMPI INVALID JUMPDEST DUP5 PUSH1 0x2 DUP2 GT ISZERO PUSH2 0x17F4 JUMPI INVALID JUMPDEST EQ ISZERO PUSH2 0x1801 JUMPI POP POP PUSH2 0x193F JUMP JUMPDEST PUSH1 0x2 DUP2 PUSH1 0x2 DUP2 GT ISZERO PUSH2 0x180F JUMPI INVALID JUMPDEST EQ ISZERO PUSH2 0x1855 JUMPI PUSH2 0x1855 DUP6 DUP4 PUSH1 0x40 MLOAD DUP1 PUSH1 0x40 ADD PUSH1 0x40 MSTORE DUP1 PUSH1 0x1B DUP2 MSTORE PUSH1 0x20 ADD PUSH32 0x476F7665726E3A20496E73756666696369656E742072656A6563740000000000 DUP2 MSTORE POP PUSH2 0x2770 JUMP JUMPDEST PUSH1 0x1 DUP2 PUSH1 0x2 DUP2 GT ISZERO PUSH2 0x1863 JUMPI INVALID JUMPDEST EQ ISZERO PUSH2 0x18A9 JUMPI PUSH2 0x18A9 DUP6 DUP4 PUSH1 0x40 MLOAD DUP1 PUSH1 0x40 ADD PUSH1 0x40 MSTORE DUP1 PUSH1 0x1C DUP2 MSTORE PUSH1 0x20 ADD PUSH32 0x476F7665726E3A20496E73756666696369656E7420617070726F766500000000 DUP2 MSTORE POP PUSH2 0x27C1 JUMP JUMPDEST PUSH1 0x2 DUP5 PUSH1 0x2 DUP2 GT ISZERO PUSH2 0x18B7 JUMPI INVALID JUMPDEST EQ ISZERO PUSH2 0x18C7 JUMPI PUSH2 0x18C7 DUP6 DUP4 PUSH2 0x2812 JUMP JUMPDEST PUSH1 0x1 DUP5 PUSH1 0x2 DUP2 GT ISZERO PUSH2 0x18D5 JUMPI INVALID JUMPDEST EQ ISZERO PUSH2 0x18E5 JUMPI PUSH2 0x18E5 DUP6 DUP4 PUSH2 0x2861 JUMP JUMPDEST PUSH2 0x18F0 CALLER DUP7 DUP7 PUSH2 0x28B0 JUMP JUMPDEST PUSH2 0x18FA CALLER DUP7 PUSH2 0x28FA JUMP JUMPDEST DUP5 PUSH1 0x1 PUSH1 0x1 PUSH1 0xA0 SHL SUB AND CALLER PUSH1 0x1 PUSH1 0x1 PUSH1 0xA0 SHL SUB AND PUSH32 0xBE50C78CBC15B0864819AADEA36C6499DA421B33C38E2EF19BEBDA583C708C78 DUP7 DUP6 PUSH1 0x40 MLOAD PUSH2 0x1656 SWAP3 SWAP2 SWAP1 PUSH2 0x433E JUMP JUMPDEST POP POP POP JUMP JUMPDEST PUSH1 0x0 SWAP1 DUP2 MSTORE PUSH1 0xD PUSH1 0x20 MSTORE PUSH1 0x40 SWAP1 KECCAK256 PUSH1 0x1 ADD SLOAD SWAP1 JUMP JUMPDEST PUSH1 0x5 SLOAD SWAP1 JUMP JUMPDEST PUSH1 0x1 PUSH1 0x1 PUSH1 0xA0 SHL SUB AND PUSH1 0x0 SWAP1 DUP2 MSTORE PUSH1 0xE PUSH1 0x20 MSTORE PUSH1 0x40 SWAP1 KECCAK256 PUSH1 0x5 ADD SLOAD PUSH1 0xFF AND SWAP1 JUMP JUMPDEST PUSH1 0x2 PUSH2 0x198E DUP4 PUSH2 0xCB2 PUSH2 0x10E7 JUMP JUMPDEST LT ISZERO PUSH2 0x19AC JUMPI PUSH1 0x40 MLOAD PUSH3 0x461BCD PUSH1 0xE5 SHL DUP2 MSTORE PUSH1 0x4 ADD PUSH2 0x7AC SWAP1 PUSH2 0x43BD JUMP JUMPDEST PUSH2 0x19D0 CALLER DUP4 DUP4 PUSH1 0x40 MLOAD DUP1 PUSH1 0x60 ADD PUSH1 0x40 MSTORE DUP1 PUSH1 0x23 DUP2 MSTORE PUSH1 0x20 ADD PUSH2 0x4545 PUSH1 0x23 SWAP2 CODECOPY PUSH2 0x1D92 JUMP JUMPDEST PUSH1 0x0 PUSH2 0x19DC DUP4 DUP4 PUSH2 0x1292 JUMP JUMPDEST SWAP1 POP DUP1 DUP3 SUB PUSH2 0x19EB CALLER DUP3 PUSH2 0x2651 JUMP JUMPDEST DUP2 ISZERO PUSH2 0x1A34 JUMPI DUP4 CALLER PUSH1 0x1 PUSH1 0x1 PUSH1 0xA0 SHL SUB AND PUSH32 0x1CD1213D4276C260E84170B4A39025DC8398FBF744EDEE0709261769B456B94B DUP5 PUSH1 0x40 MLOAD PUSH2 0x1A2B SWAP2 SWAP1 PUSH2 0x43CD JUMP JUMPDEST PUSH1 0x40 MLOAD DUP1 SWAP2 SUB SWAP1 LOG3 JUMPDEST DUP4 CALLER PUSH1 0x1 PUSH1 0x1 PUSH1 0xA0 SHL SUB AND PUSH32 0x46E9903AE8AC9E9F0C9BC321B05965C1C036E7D4783758703F5CDFC4133C51B6 DUP4 PUSH1 0x40 MLOAD PUSH2 0x1A6E SWAP2 SWAP1 PUSH2 0x43CD JUMP JUMPDEST PUSH1 0x40 MLOAD DUP1 SWAP2 SUB SWAP1 LOG3 POP POP POP POP JUMP JUMPDEST PUSH1 0x0 PUSH2 0x8E4 PUSH2 0x1A89 PUSH2 0xF54 JUMP JUMPDEST PUSH1 0x1 PUSH1 0x1 PUSH1 0xA0 SHL SUB AND PUSH4 0x18160DDD PUSH1 0x40 MLOAD DUP2 PUSH4 0xFFFFFFFF AND PUSH1 0xE0 SHL DUP2 MSTORE PUSH1 0x4 ADD PUSH1 0x20 PUSH1 0x40 MLOAD DUP1 DUP4 SUB DUP2 DUP7 DUP1 EXTCODESIZE ISZERO DUP1 ISZERO PUSH2 0x1AC1 JUMPI PUSH1 0x0 DUP1 REVERT JUMPDEST POP GAS STATICCALL ISZERO DUP1 ISZERO PUSH2 0x1AD5 JUMPI RETURNDATASIZE PUSH1 0x0 DUP1 RETURNDATACOPY RETURNDATASIZE PUSH1 0x0 REVERT JUMPDEST POP POP POP POP PUSH1 0x40 MLOAD RETURNDATASIZE PUSH1 0x1F NOT PUSH1 0x1F DUP3 ADD AND DUP3 ADD DUP1 PUSH1 0x40 MSTORE POP PUSH2 0x1AF9 SWAP2 SWAP1 DUP2 ADD SWAP1 PUSH2 0x3F21 JUMP JUMPDEST PUSH2 0x1B01 PUSH2 0x1D7A JUMP JUMPDEST DUP5 PUSH2 0x295B JUMP JUMPDEST CALLER PUSH2 0x1B12 PUSH1 0x2 PUSH2 0x94C JUMP JUMPDEST PUSH2 0x1B1B CALLER PUSH2 0x1FAA JUMP JUMPDEST PUSH1 0x0 PUSH2 0x1B28 PUSH2 0x119F PUSH2 0xE08 JUMP JUMPDEST SWAP1 POP PUSH2 0x1B34 CALLER DUP5 PUSH2 0x2050 JUMP JUMPDEST PUSH2 0x1B56 DUP4 PUSH1 0x40 MLOAD DUP1 PUSH1 0x60 ADD PUSH1 0x40 MSTORE DUP1 PUSH1 0x22 DUP2 MSTORE PUSH1 0x20 ADD PUSH2 0x45B0 PUSH1 0x22 SWAP2 CODECOPY PUSH2 0x20AC JUMP JUMPDEST PUSH2 0x1B96 CALLER DUP3 PUSH1 0x40 MLOAD DUP1 PUSH1 0x40 ADD PUSH1 0x40 MSTORE DUP1 PUSH1 0x1D DUP2 MSTORE PUSH1 0x20 ADD PUSH32 0x426F6E64696E673A20696E73756666696369656E742062616C616E6365000000 DUP2 MSTORE POP PUSH2 0x20C7 JUMP JUMPDEST CALLER PUSH32 0x93530AC0EE8C50E696E13C5AC62355D0C0BA4BD943620D5BDA1EB08B64AE7512 PUSH2 0x122E PUSH1 0x1 PUSH2 0xA65 PUSH2 0x10E7 JUMP JUMPDEST PUSH1 0x0 PUSH2 0x1BFE PUSH1 0x0 DUP4 GT PUSH6 0x13585C9AD95D PUSH1 0xD2 SHL PUSH32 0x4D757374207075726368617365206E6F6E2D7A65726F20616D6F756E74000000 PUSH2 0x1F55 JUMP JUMPDEST PUSH2 0x1C2E DUP3 PUSH2 0x1C0A PUSH2 0x1D7A JUMP JUMPDEST LT ISZERO PUSH6 0x13585C9AD95D PUSH1 0xD2 SHL PUSH15 0x139BDD08195B9BDD59DA081919589D PUSH1 0x8A SHL PUSH2 0x1F55 JUMP JUMPDEST PUSH1 0x0 PUSH2 0x1C38 PUSH2 0x10E7 JUMP JUMPDEST SWAP1 POP PUSH1 0x0 PUSH2 0x1C55 PUSH2 0x1C48 DUP6 PUSH2 0x1A7C JUMP JUMPDEST DUP6 SWAP1 PUSH4 0xFFFFFFFF PUSH2 0x2172 AND JUMP JUMPDEST SWAP1 POP PUSH2 0x1C61 CALLER DUP6 PUSH2 0x2988 JUMP JUMPDEST PUSH2 0x1C6C CALLER DUP4 DUP4 PUSH2 0x1E3D JUMP JUMPDEST DUP2 CALLER PUSH1 0x1 PUSH1 0x1 PUSH1 0xA0 SHL SUB AND PUSH32 0xBCE252DB29F761F815DC2E9EA60005AF065EFBA6EB619D2A0B2A113FDEB61414 DUP7 DUP5 PUSH1 0x40 MLOAD PUSH2 0x1CA8 SWAP3 SWAP2 SWAP1 PUSH2 0x43DB JUMP JUMPDEST PUSH1 0x40 MLOAD DUP1 SWAP2 SUB SWAP1 LOG3 SWAP4 SWAP3 POP POP POP JUMP JUMPDEST PUSH1 0x0 PUSH2 0x1CC1 PUSH2 0x2A99 JUMP JUMPDEST SWAP1 POP PUSH2 0x1CCD CALLER DUP3 PUSH2 0x245F JUMP JUMPDEST CALLER PUSH1 0x1 PUSH1 0x1 PUSH1 0xA0 SHL SUB AND PUSH32 0xBB4F656853BC420AD6E4321622C07EEFB4ED40E3F91B35553CE14A6DFF4C0981 DUP3 PUSH1 0x40 MLOAD PUSH2 0x1D06 SWAP2 SWAP1 PUSH2 0x43CD JUMP JUMPDEST PUSH1 0x40 MLOAD DUP1 SWAP2 SUB SWAP1 LOG2 PUSH2 0x1D16 PUSH2 0x2AA6 JUMP JUMPDEST PUSH2 0x1D1E PUSH2 0x2AF1 JUMP JUMPDEST PUSH2 0x1D26 PUSH2 0x2B84 JUMP JUMPDEST PUSH2 0x1D2E PUSH2 0x10E7 JUMP JUMPDEST PUSH32 0xC30B728D1C19E5DB3678B8EA9E9A063A5655071E1A325C2F7FDBCA48BAA90600 NUMBER TIMESTAMP PUSH1 0x40 MLOAD PUSH2 0x1526 SWAP3 SWAP2 SWAP1 PUSH2 0x43DB JUMP JUMPDEST PUSH1 0x1 PUSH1 0x1 PUSH1 0xA0 SHL SUB AND PUSH1 0x0 SWAP1 DUP2 MSTORE PUSH1 0xE PUSH1 0x20 MSTORE PUSH1 0x40 SWAP1 KECCAK256 SLOAD SWAP1 JUMP JUMPDEST PUSH1 0x7 SLOAD SWAP1 JUMP JUMPDEST PUSH1 0x0 SWAP1 DUP2 MSTORE PUSH1 0xD PUSH1 0x20 MSTORE PUSH1 0x40 SWAP1 KECCAK256 SLOAD SWAP1 JUMP JUMPDEST PUSH1 0x1 PUSH1 0x1 PUSH1 0xA0 SHL SUB DUP5 AND PUSH1 0x0 SWAP1 DUP2 MSTORE PUSH1 0xC PUSH1 0x20 SWAP1 DUP2 MSTORE PUSH1 0x40 DUP1 DUP4 KECCAK256 DUP7 DUP5 MSTORE PUSH1 0x2 ADD SWAP1 SWAP2 MSTORE SWAP1 KECCAK256 SLOAD PUSH2 0x1DCA SWAP1 DUP4 DUP4 PUSH4 0xFFFFFFFF PUSH2 0x2BDE AND JUMP JUMPDEST PUSH1 0x1 PUSH1 0x1 PUSH1 0xA0 SHL SUB DUP6 AND PUSH1 0x0 SWAP1 DUP2 MSTORE PUSH1 0xC PUSH1 0x20 SWAP1 DUP2 MSTORE PUSH1 0x40 DUP1 DUP4 KECCAK256 DUP8 DUP5 MSTORE PUSH1 0x2 ADD DUP3 MSTORE DUP1 DUP4 KECCAK256 SWAP4 SWAP1 SWAP4 SSTORE PUSH1 0xD SWAP1 MSTORE KECCAK256 PUSH1 0x1 ADD SLOAD PUSH2 0x1E0E SWAP1 DUP4 DUP4 PUSH4 0xFFFFFFFF PUSH2 0x2BDE AND JUMP JUMPDEST PUSH1 0x0 DUP5 DUP2 MSTORE PUSH1 0xD PUSH1 0x20 MSTORE PUSH1 0x40 SWAP1 KECCAK256 PUSH1 0x1 ADD SSTORE PUSH1 0x8 SLOAD PUSH2 0x1E34 SWAP1 DUP4 DUP4 PUSH4 0xFFFFFFFF PUSH2 0x2BDE AND JUMP JUMPDEST PUSH1 0x8 SSTORE POP POP POP POP JUMP JUMPDEST PUSH1 0x1 PUSH1 0x1 PUSH1 0xA0 SHL SUB DUP4 AND PUSH1 0x0 SWAP1 DUP2 MSTORE PUSH1 0xC PUSH1 0x20 SWAP1 DUP2 MSTORE PUSH1 0x40 DUP1 DUP4 KECCAK256 DUP6 DUP5 MSTORE PUSH1 0x2 ADD SWAP1 SWAP2 MSTORE SWAP1 KECCAK256 SLOAD PUSH2 0x1E74 SWAP1 DUP3 PUSH4 0xFFFFFFFF PUSH2 0x2172 AND JUMP JUMPDEST PUSH1 0x1 PUSH1 0x1 PUSH1 0xA0 SHL SUB DUP5 AND PUSH1 0x0 SWAP1 DUP2 MSTORE PUSH1 0xC PUSH1 0x20 SWAP1 DUP2 MSTORE PUSH1 0x40 DUP1 DUP4 KECCAK256 DUP7 DUP5 MSTORE PUSH1 0x2 ADD DUP3 MSTORE DUP1 DUP4 KECCAK256 SWAP4 SWAP1 SWAP4 SSTORE PUSH1 0xD SWAP1 MSTORE KECCAK256 PUSH1 0x1 ADD SLOAD PUSH2 0x1EB7 SWAP1 DUP3 PUSH4 0xFFFFFFFF PUSH2 0x2172 AND JUMP JUMPDEST PUSH1 0x0 DUP4 DUP2 MSTORE PUSH1 0xD PUSH1 0x20 MSTORE PUSH1 0x40 SWAP1 KECCAK256 PUSH1 0x1 ADD SSTORE PUSH1 0x8 SLOAD PUSH2 0x1EDC SWAP1 DUP3 PUSH4 0xFFFFFFFF PUSH2 0x2172 AND JUMP JUMPDEST PUSH1 0x8 SSTORE POP POP POP JUMP JUMPDEST PUSH1 0x1 PUSH1 0x1 PUSH1 0xA0 SHL SUB DUP1 DUP6 AND PUSH1 0x0 SWAP1 DUP2 MSTORE PUSH1 0xC PUSH1 0x20 SWAP1 DUP2 MSTORE PUSH1 0x40 DUP1 DUP4 KECCAK256 SWAP4 DUP8 AND DUP4 MSTORE PUSH1 0x3 SWAP1 SWAP4 ADD SWAP1 MSTORE KECCAK256 SLOAD PUSH2 0x1F1F SWAP1 DUP4 DUP4 PUSH4 0xFFFFFFFF PUSH2 0x2BDE AND JUMP JUMPDEST PUSH1 0x1 PUSH1 0x1 PUSH1 0xA0 SHL SUB SWAP5 DUP6 AND PUSH1 0x0 SWAP1 DUP2 MSTORE PUSH1 0xC PUSH1 0x20 SWAP1 DUP2 MSTORE PUSH1 0x40 DUP1 DUP4 KECCAK256 SWAP7 SWAP1 SWAP8 AND DUP3 MSTORE PUSH1 0x3 SWAP1 SWAP6 ADD SWAP1 SWAP5 MSTORE SWAP4 SWAP1 SWAP3 KECCAK256 SWAP3 SWAP1 SWAP3 SSTORE POP POP JUMP JUMPDEST DUP3 PUSH2 0x193F JUMPI PUSH2 0x1F63 DUP3 PUSH2 0x2C0A JUMP JUMPDEST PUSH2 0x1D1 PUSH1 0xF5 SHL PUSH2 0x1F72 DUP4 PUSH2 0x2C0A JUMP JUMPDEST PUSH1 0x40 MLOAD PUSH1 0x20 ADD PUSH2 0x1F84 SWAP4 SWAP3 SWAP2 SWAP1 PUSH2 0x4276 JUMP JUMPDEST PUSH1 0x40 DUP1 MLOAD PUSH1 0x1F NOT DUP2 DUP5 SUB ADD DUP2 MSTORE SWAP1 DUP3 SWAP1 MSTORE PUSH3 0x461BCD PUSH1 0xE5 SHL DUP3 MSTORE PUSH2 0x7AC SWAP2 PUSH1 0x4 ADD PUSH2 0x434C JUMP JUMPDEST PUSH2 0x1FB5 PUSH2 0xE28 PUSH2 0x273F JUMP JUMPDEST PUSH1 0x1 PUSH1 0x1 PUSH1 0xA0 SHL SUB SWAP1 SWAP2 AND PUSH1 0x0 SWAP1 DUP2 MSTORE PUSH1 0xC PUSH1 0x20 MSTORE PUSH1 0x40 SWAP1 KECCAK256 PUSH1 0x4 ADD SSTORE JUMP JUMPDEST PUSH1 0x0 DUP3 PUSH2 0x1FE3 JUMPI POP PUSH1 0x0 PUSH2 0x8E4 JUMP JUMPDEST DUP3 DUP3 MUL DUP3 DUP5 DUP3 DUP2 PUSH2 0x1FF0 JUMPI INVALID JUMPDEST DIV EQ PUSH2 0x93E JUMPI PUSH1 0x40 MLOAD PUSH3 0x461BCD PUSH1 0xE5 SHL DUP2 MSTORE PUSH1 0x4 ADD PUSH2 0x7AC SWAP1 PUSH2 0x437D JUMP JUMPDEST PUSH1 0x0 PUSH2 0x93E DUP4 DUP4 PUSH1 0x40 MLOAD DUP1 PUSH1 0x40 ADD PUSH1 0x40 MSTORE DUP1 PUSH1 0x1A DUP2 MSTORE PUSH1 0x20 ADD PUSH32 0x536166654D6174683A206469766973696F6E206279207A65726F000000000000 DUP2 MSTORE POP PUSH2 0x2C8A JUMP JUMPDEST PUSH1 0x1 PUSH1 0x1 PUSH1 0xA0 SHL SUB DUP3 AND PUSH1 0x0 SWAP1 DUP2 MSTORE PUSH1 0xC PUSH1 0x20 MSTORE PUSH1 0x40 SWAP1 KECCAK256 SLOAD PUSH2 0x2079 SWAP1 DUP3 PUSH4 0xFFFFFFFF PUSH2 0x2172 AND JUMP JUMPDEST PUSH1 0x1 PUSH1 0x1 PUSH1 0xA0 SHL SUB DUP4 AND PUSH1 0x0 SWAP1 DUP2 MSTORE PUSH1 0xC PUSH1 0x20 MSTORE PUSH1 0x40 SWAP1 KECCAK256 SSTORE PUSH1 0x5 SLOAD PUSH2 0x20A5 SWAP1 DUP3 PUSH4 0xFFFFFFFF PUSH2 0x2172 AND JUMP JUMPDEST PUSH1 0x5 SSTORE POP POP JUMP JUMPDEST PUSH1 0x4 SLOAD PUSH2 0x20C0 SWAP1 DUP4 DUP4 PUSH4 0xFFFFFFFF PUSH2 0x2BDE AND JUMP JUMPDEST PUSH1 0x4 SSTORE POP POP JUMP JUMPDEST PUSH1 0x1 PUSH1 0x1 PUSH1 0xA0 SHL SUB DUP4 AND PUSH1 0x0 SWAP1 DUP2 MSTORE PUSH1 0xC PUSH1 0x20 MSTORE PUSH1 0x40 SWAP1 KECCAK256 PUSH1 0x1 ADD SLOAD PUSH2 0x20F4 SWAP1 DUP4 DUP4 PUSH4 0xFFFFFFFF PUSH2 0x2BDE AND JUMP JUMPDEST PUSH1 0x1 PUSH1 0x1 PUSH1 0xA0 SHL SUB DUP5 AND PUSH1 0x0 SWAP1 DUP2 MSTORE PUSH1 0xC PUSH1 0x20 MSTORE PUSH1 0x40 SWAP1 KECCAK256 PUSH1 0x1 ADD SSTORE PUSH1 0x3 SLOAD PUSH2 0x2124 SWAP1 DUP4 DUP4 PUSH4 0xFFFFFFFF PUSH2 0x2BDE AND JUMP JUMPDEST PUSH1 0x3 SSTORE PUSH1 0x40 MLOAD PUSH1 0x0 SWAP1 PUSH1 0x1 PUSH1 0x1 PUSH1 0xA0 SHL SUB DUP6 AND SWAP1 PUSH32 0xDDF252AD1BE2C89B69C2B068FC378DAA952BA7F163C4A11628F55A4DF523B3EF SWAP1 PUSH2 0x2165 SWAP1 DUP7 SWAP1 PUSH2 0x43CD JUMP JUMPDEST PUSH1 0x40 MLOAD DUP1 SWAP2 SUB SWAP1 LOG3 POP POP POP JUMP JUMPDEST PUSH1 0x0 DUP3 DUP3 ADD DUP4 DUP2 LT ISZERO PUSH2 0x93E JUMPI PUSH1 0x40 MLOAD PUSH3 0x461BCD PUSH1 0xE5 SHL DUP2 MSTORE PUSH1 0x4 ADD PUSH2 0x7AC SWAP1 PUSH2 0x435D JUMP JUMPDEST PUSH1 0x1 PUSH1 0x1 PUSH1 0xA0 SHL SUB DUP4 AND PUSH1 0x0 SWAP1 DUP2 MSTORE PUSH1 0xC PUSH1 0x20 MSTORE PUSH1 0x40 SWAP1 KECCAK256 SLOAD PUSH2 0x21C1 SWAP1 DUP4 DUP4 PUSH4 0xFFFFFFFF PUSH2 0x2BDE AND JUMP JUMPDEST PUSH1 0x1 PUSH1 0x1 PUSH1 0xA0 SHL SUB DUP5 AND PUSH1 0x0 SWAP1 DUP2 MSTORE PUSH1 0xC PUSH1 0x20 MSTORE PUSH1 0x40 SWAP1 KECCAK256 SSTORE PUSH1 0x5 SLOAD PUSH2 0x21EE SWAP1 DUP4 DUP4 PUSH4 0xFFFFFFFF PUSH2 0x2BDE AND JUMP JUMPDEST PUSH1 0x5 SSTORE POP POP POP JUMP JUMPDEST PUSH1 0x1 PUSH1 0x1 PUSH1 0xA0 SHL SUB SWAP3 DUP4 AND PUSH1 0x0 SWAP1 DUP2 MSTORE PUSH1 0xC PUSH1 0x20 SWAP1 DUP2 MSTORE PUSH1 0x40 DUP1 DUP4 KECCAK256 SWAP5 SWAP1 SWAP6 AND DUP3 MSTORE PUSH1 0x3 SWAP1 SWAP4 ADD SWAP1 SWAP3 MSTORE SWAP2 SWAP1 KECCAK256 SSTORE JUMP JUMPDEST PUSH1 0x0 PUSH2 0x93E DUP4 DUP4 PUSH1 0x40 MLOAD DUP1 PUSH1 0x40 ADD PUSH1 0x40 MSTORE DUP1 PUSH1 0x1E DUP2 MSTORE PUSH1 0x20 ADD PUSH32 0x536166654D6174683A207375627472616374696F6E206F766572666C6F770000 DUP2 MSTORE POP PUSH2 0x2BDE JUMP JUMPDEST PUSH2 0x2270 PUSH2 0x3CD2 JUMP JUMPDEST POP PUSH1 0x40 DUP1 MLOAD PUSH1 0x20 DUP2 ADD SWAP1 SWAP2 MSTORE PUSH8 0x2C68AF0BB140000 DUP2 MSTORE SWAP1 JUMP JUMPDEST PUSH2 0x2292 PUSH2 0x3CD2 JUMP JUMPDEST PUSH1 0x40 MLOAD DUP1 PUSH1 0x20 ADD PUSH1 0x40 MSTORE DUP1 PUSH2 0x22B0 DUP6 PUSH8 0xDE0B6B3A7640000 DUP7 PUSH2 0x2CC1 JUMP JUMPDEST SWAP1 MSTORE SWAP4 SWAP3 POP POP POP JUMP JUMPDEST PUSH1 0x0 PUSH2 0x22C5 DUP4 DUP4 PUSH2 0x2CD7 JUMP JUMPDEST PUSH1 0x2 EQ SWAP4 SWAP3 POP POP POP JUMP JUMPDEST PUSH2 0x22D8 DUP2 PUSH2 0x2D09 JUMP JUMPDEST PUSH1 0x40 DUP1 MLOAD PUSH1 0x4 DUP2 MSTORE PUSH1 0x24 DUP2 ADD DUP3 MSTORE PUSH1 0x20 DUP2 ADD DUP1 MLOAD PUSH1 0x1 PUSH1 0x1 PUSH1 0xE0 SHL SUB AND PUSH4 0x204A7F07 PUSH1 0xE2 SHL OR SWAP1 MSTORE SWAP1 MLOAD PUSH1 0x0 SWAP2 PUSH1 0x60 SWAP2 PUSH1 0x1 PUSH1 0x1 PUSH1 0xA0 SHL SUB DUP6 AND SWAP2 PUSH2 0x231C SWAP2 PUSH2 0x426A JUMP JUMPDEST PUSH1 0x0 PUSH1 0x40 MLOAD DUP1 DUP4 SUB DUP2 DUP6 GAS DELEGATECALL SWAP2 POP POP RETURNDATASIZE DUP1 PUSH1 0x0 DUP2 EQ PUSH2 0x2357 JUMPI PUSH1 0x40 MLOAD SWAP2 POP PUSH1 0x1F NOT PUSH1 0x3F RETURNDATASIZE ADD AND DUP3 ADD PUSH1 0x40 MSTORE RETURNDATASIZE DUP3 MSTORE RETURNDATASIZE PUSH1 0x0 PUSH1 0x20 DUP5 ADD RETURNDATACOPY PUSH2 0x235C JUMP JUMPDEST PUSH1 0x60 SWAP2 POP JUMPDEST POP SWAP2 POP SWAP2 POP DUP2 DUP2 SWAP1 PUSH2 0x2381 JUMPI PUSH1 0x40 MLOAD PUSH3 0x461BCD PUSH1 0xE5 SHL DUP2 MSTORE PUSH1 0x4 ADD PUSH2 0x7AC SWAP2 SWAP1 PUSH2 0x434C JUMP JUMPDEST POP PUSH1 0x40 MLOAD PUSH1 0x1 PUSH1 0x1 PUSH1 0xA0 SHL SUB DUP5 AND SWAP1 PUSH32 0xBC7CD75A20EE27FD9ADEBAB32041F755214DBC6BFFA90CC0225B39DA2E5C2D3B SWAP1 PUSH1 0x0 SWAP1 LOG2 POP POP POP JUMP JUMPDEST PUSH1 0x6 SWAP1 JUMP JUMPDEST PUSH2 0x23C8 PUSH2 0x3CD2 JUMP JUMPDEST POP PUSH1 0x40 DUP1 MLOAD PUSH1 0x20 DUP2 ADD SWAP1 SWAP2 MSTORE PUSH8 0x928CA80CFC20000 DUP2 MSTORE SWAP1 JUMP JUMPDEST PUSH2 0x23EA PUSH2 0x3CB1 JUMP JUMPDEST PUSH1 0x40 MLOAD DUP1 PUSH1 0x60 ADD PUSH1 0x40 MSTORE DUP1 PUSH1 0x0 DUP2 MSTORE PUSH1 0x20 ADD PUSH4 0x5FBEF000 DUP2 MSTORE PUSH1 0x20 ADD PUSH2 0x1C20 DUP2 MSTORE POP SWAP1 POP SWAP1 JUMP JUMPDEST PUSH1 0x0 PUSH2 0x8E4 DUP3 PUSH1 0x0 ADD MLOAD PUSH2 0xA65 DUP5 PUSH1 0x40 ADD MLOAD PUSH2 0x9BC DUP7 PUSH1 0x20 ADD MLOAD PUSH2 0xCB2 PUSH2 0x2D52 JUMP JUMPDEST PUSH1 0x96 SWAP1 JUMP JUMPDEST PUSH1 0x1 PUSH1 0x1 PUSH1 0xA0 SHL SUB AND PUSH1 0x0 SWAP1 DUP2 MSTORE PUSH1 0xE PUSH1 0x20 MSTORE PUSH1 0x40 SWAP1 KECCAK256 PUSH1 0x5 ADD DUP1 SLOAD PUSH1 0xFF NOT AND PUSH1 0x1 OR SWAP1 SSTORE JUMP JUMPDEST PUSH2 0x2467 PUSH2 0xF54 JUMP JUMPDEST PUSH1 0x1 PUSH1 0x1 PUSH1 0xA0 SHL SUB AND PUSH4 0x40C10F19 DUP4 DUP4 PUSH1 0x40 MLOAD DUP4 PUSH4 0xFFFFFFFF AND PUSH1 0xE0 SHL DUP2 MSTORE PUSH1 0x4 ADD PUSH2 0x2494 SWAP3 SWAP2 SWAP1 PUSH2 0x4306 JUMP JUMPDEST PUSH1 0x20 PUSH1 0x40 MLOAD DUP1 DUP4 SUB DUP2 PUSH1 0x0 DUP8 DUP1 EXTCODESIZE ISZERO DUP1 ISZERO PUSH2 0x24AE JUMPI PUSH1 0x0 DUP1 REVERT JUMPDEST POP GAS CALL ISZERO DUP1 ISZERO PUSH2 0x24C2 JUMPI RETURNDATASIZE PUSH1 0x0 DUP1 RETURNDATACOPY RETURNDATASIZE PUSH1 0x0 REVERT JUMPDEST POP POP POP POP PUSH1 0x40 MLOAD RETURNDATASIZE PUSH1 0x1F NOT PUSH1 0x1F DUP3 ADD AND DUP3 ADD DUP1 PUSH1 0x40 MSTORE POP PUSH2 0x24E6 SWAP2 SWAP1 DUP2 ADD SWAP1 PUSH2 0x3EB5 JUMP JUMPDEST POP PUSH2 0x24F2 PUSH2 0x5AF PUSH2 0x10E7 JUMP JUMPDEST PUSH2 0x24FF JUMPI PUSH2 0x24FF DUP2 PUSH2 0x2D56 JUMP JUMPDEST PUSH2 0x2507 PUSH2 0x2D73 JUMP JUMPDEST POP POP JUMP JUMPDEST PUSH3 0xF4240 SWAP1 JUMP JUMPDEST PUSH1 0x1 PUSH1 0x1 PUSH1 0xA0 SHL SUB DUP3 AND PUSH1 0x0 SWAP1 DUP2 MSTORE PUSH1 0xC PUSH1 0x20 MSTORE PUSH1 0x40 SWAP1 KECCAK256 PUSH1 0x1 ADD SLOAD PUSH2 0x253E SWAP1 DUP3 PUSH4 0xFFFFFFFF PUSH2 0x2172 AND JUMP JUMPDEST PUSH1 0x1 PUSH1 0x1 PUSH1 0xA0 SHL SUB DUP4 AND PUSH1 0x0 SWAP1 DUP2 MSTORE PUSH1 0xC PUSH1 0x20 MSTORE PUSH1 0x40 SWAP1 KECCAK256 PUSH1 0x1 ADD SSTORE PUSH1 0x3 SLOAD PUSH2 0x256D SWAP1 DUP3 PUSH4 0xFFFFFFFF PUSH2 0x2172 AND JUMP JUMPDEST PUSH1 0x3 SSTORE PUSH1 0x40 MLOAD PUSH1 0x1 PUSH1 0x1 PUSH1 0xA0 SHL SUB DUP4 AND SWAP1 PUSH1 0x0 SWAP1 PUSH32 0xDDF252AD1BE2C89B69C2B068FC378DAA952BA7F163C4A11628F55A4DF523B3EF SWAP1 PUSH2 0xC3B SWAP1 DUP6 SWAP1 PUSH2 0x43CD JUMP JUMPDEST PUSH1 0x4 SLOAD PUSH2 0x25C1 SWAP1 DUP3 PUSH4 0xFFFFFFFF PUSH2 0x2172 AND JUMP JUMPDEST PUSH1 0x4 SSTORE POP JUMP JUMPDEST PUSH2 0x168 SWAP1 JUMP JUMPDEST PUSH2 0xE10 SWAP1 JUMP JUMPDEST PUSH2 0x25DB PUSH2 0x3CD2 JUMP JUMPDEST POP PUSH1 0x40 DUP1 MLOAD PUSH1 0x20 DUP2 ADD SWAP1 SWAP2 MSTORE PUSH8 0x6F05B59D3B20000 DUP2 MSTORE SWAP1 JUMP JUMPDEST PUSH2 0x25FD PUSH2 0x3CD2 JUMP JUMPDEST PUSH1 0x40 MLOAD DUP1 PUSH1 0x20 ADD PUSH1 0x40 MSTORE DUP1 PUSH2 0x22B0 DUP6 PUSH1 0x0 ADD MLOAD PUSH8 0xDE0B6B3A7640000 DUP7 PUSH1 0x0 ADD MLOAD PUSH2 0x2CC1 JUMP JUMPDEST PUSH2 0x262B PUSH2 0x3CD2 JUMP JUMPDEST PUSH1 0x40 MLOAD DUP1 PUSH1 0x20 ADD PUSH1 0x40 MSTORE DUP1 PUSH2 0x22B0 DUP6 PUSH1 0x0 ADD MLOAD DUP6 PUSH1 0x0 ADD MLOAD PUSH8 0xDE0B6B3A7640000 PUSH2 0x2CC1 JUMP JUMPDEST PUSH2 0x2659 PUSH2 0xF54 JUMP JUMPDEST PUSH1 0x1 PUSH1 0x1 PUSH1 0xA0 SHL SUB AND PUSH4 0xA9059CBB DUP4 DUP4 PUSH1 0x40 MLOAD DUP4 PUSH4 0xFFFFFFFF AND PUSH1 0xE0 SHL DUP2 MSTORE PUSH1 0x4 ADD PUSH2 0x2686 SWAP3 SWAP2 SWAP1 PUSH2 0x4306 JUMP JUMPDEST PUSH1 0x20 PUSH1 0x40 MLOAD DUP1 DUP4 SUB DUP2 PUSH1 0x0 DUP8 DUP1 EXTCODESIZE ISZERO DUP1 ISZERO PUSH2 0x26A0 JUMPI PUSH1 0x0 DUP1 REVERT JUMPDEST POP GAS CALL ISZERO DUP1 ISZERO PUSH2 0x26B4 JUMPI RETURNDATASIZE PUSH1 0x0 DUP1 RETURNDATACOPY RETURNDATASIZE PUSH1 0x0 REVERT JUMPDEST POP POP POP POP PUSH1 0x40 MLOAD RETURNDATASIZE PUSH1 0x1F NOT PUSH1 0x1F DUP3 ADD AND DUP3 ADD DUP1 PUSH1 0x40 MSTORE POP PUSH2 0x26D8 SWAP2 SWAP1 DUP2 ADD SWAP1 PUSH2 0x3EB5 JUMP JUMPDEST POP PUSH2 0x24FF DUP2 PUSH1 0x40 MLOAD DUP1 PUSH1 0x60 ADD PUSH1 0x40 MSTORE DUP1 PUSH1 0x2A DUP2 MSTORE PUSH1 0x20 ADD PUSH2 0x45FA PUSH1 0x2A SWAP2 CODECOPY PUSH2 0x2E46 JUMP JUMPDEST PUSH1 0x0 PUSH2 0x2705 PUSH2 0xE08 JUMP JUMPDEST PUSH2 0x2711 JUMPI POP PUSH1 0x0 PUSH2 0x8FD JUMP JUMPDEST PUSH2 0x2719 PUSH2 0x3CD2 JUMP JUMPDEST PUSH2 0x2725 PUSH2 0xE72 DUP5 PUSH2 0xFD9 JUMP JUMPDEST SWAP1 POP PUSH2 0x93E PUSH2 0x2732 PUSH2 0x2E61 JUMP JUMPDEST DUP3 SWAP1 PUSH4 0xFFFFFFFF PUSH2 0x22B9 AND JUMP JUMPDEST PUSH1 0x24 SWAP1 JUMP JUMPDEST PUSH2 0x274C PUSH2 0x10E7 JUMP JUMPDEST PUSH1 0x1 PUSH1 0x1 PUSH1 0xA0 SHL SUB SWAP1 SWAP3 AND PUSH1 0x0 SWAP1 DUP2 MSTORE PUSH1 0xE PUSH1 0x20 MSTORE PUSH1 0x40 SWAP1 KECCAK256 SWAP2 DUP3 SSTORE PUSH1 0x1 SWAP1 SWAP2 ADD SSTORE JUMP JUMPDEST PUSH1 0x1 PUSH1 0x1 PUSH1 0xA0 SHL SUB DUP4 AND PUSH1 0x0 SWAP1 DUP2 MSTORE PUSH1 0xE PUSH1 0x20 MSTORE PUSH1 0x40 SWAP1 KECCAK256 PUSH1 0x3 ADD SLOAD PUSH2 0x279D SWAP1 DUP4 DUP4 PUSH4 0xFFFFFFFF PUSH2 0x2BDE AND JUMP JUMPDEST PUSH1 0x1 PUSH1 0x1 PUSH1 0xA0 SHL SUB SWAP1 SWAP4 AND PUSH1 0x0 SWAP1 DUP2 MSTORE PUSH1 0xE PUSH1 0x20 MSTORE PUSH1 0x40 SWAP1 KECCAK256 PUSH1 0x3 ADD SWAP3 SWAP1 SWAP3 SSTORE POP POP JUMP JUMPDEST PUSH1 0x1 PUSH1 0x1 PUSH1 0xA0 SHL SUB DUP4 AND PUSH1 0x0 SWAP1 DUP2 MSTORE PUSH1 0xE PUSH1 0x20 MSTORE PUSH1 0x40 SWAP1 KECCAK256 PUSH1 0x2 ADD SLOAD PUSH2 0x27EE SWAP1 DUP4 DUP4 PUSH4 0xFFFFFFFF PUSH2 0x2BDE AND JUMP JUMPDEST PUSH1 0x1 PUSH1 0x1 PUSH1 0xA0 SHL SUB SWAP1 SWAP4 AND PUSH1 0x0 SWAP1 DUP2 MSTORE PUSH1 0xE PUSH1 0x20 MSTORE PUSH1 0x40 SWAP1 KECCAK256 PUSH1 0x2 ADD SWAP3 SWAP1 SWAP3 SSTORE POP POP JUMP JUMPDEST PUSH1 0x1 PUSH1 0x1 PUSH1 0xA0 SHL SUB DUP3 AND PUSH1 0x0 SWAP1 DUP2 MSTORE PUSH1 0xE PUSH1 0x20 MSTORE PUSH1 0x40 SWAP1 KECCAK256 PUSH1 0x3 ADD SLOAD PUSH2 0x283E SWAP1 DUP3 PUSH4 0xFFFFFFFF PUSH2 0x2172 AND JUMP JUMPDEST PUSH1 0x1 PUSH1 0x1 PUSH1 0xA0 SHL SUB SWAP1 SWAP3 AND PUSH1 0x0 SWAP1 DUP2 MSTORE PUSH1 0xE PUSH1 0x20 MSTORE PUSH1 0x40 SWAP1 KECCAK256 PUSH1 0x3 ADD SWAP2 SWAP1 SWAP2 SSTORE POP JUMP JUMPDEST PUSH1 0x1 PUSH1 0x1 PUSH1 0xA0 SHL SUB DUP3 AND PUSH1 0x0 SWAP1 DUP2 MSTORE PUSH1 0xE PUSH1 0x20 MSTORE PUSH1 0x40 SWAP1 KECCAK256 PUSH1 0x2 ADD SLOAD PUSH2 0x288D SWAP1 DUP3 PUSH4 0xFFFFFFFF PUSH2 0x2172 AND JUMP JUMPDEST PUSH1 0x1 PUSH1 0x1 PUSH1 0xA0 SHL SUB SWAP1 SWAP3 AND PUSH1 0x0 SWAP1 DUP2 MSTORE PUSH1 0xE PUSH1 0x20 MSTORE PUSH1 0x40 SWAP1 KECCAK256 PUSH1 0x2 ADD SWAP2 SWAP1 SWAP2 SSTORE POP JUMP JUMPDEST PUSH1 0x1 PUSH1 0x1 PUSH1 0xA0 SHL SUB DUP1 DUP4 AND PUSH1 0x0 SWAP1 DUP2 MSTORE PUSH1 0xE PUSH1 0x20 SWAP1 DUP2 MSTORE PUSH1 0x40 DUP1 DUP4 KECCAK256 SWAP4 DUP8 AND DUP4 MSTORE PUSH1 0x4 SWAP1 SWAP4 ADD SWAP1 MSTORE KECCAK256 DUP1 SLOAD DUP3 SWAP2 SWAP1 PUSH1 0xFF NOT AND PUSH1 0x1 DUP4 PUSH1 0x2 DUP2 GT ISZERO PUSH2 0x28F0 JUMPI INVALID JUMPDEST MUL OR SWAP1 SSTORE POP POP POP POP JUMP JUMPDEST PUSH1 0x1 PUSH1 0x1 PUSH1 0xA0 SHL SUB DUP3 AND PUSH1 0x0 SWAP1 DUP2 MSTORE PUSH1 0xC PUSH1 0x20 MSTORE PUSH1 0x40 DUP2 KECCAK256 PUSH1 0x5 ADD SLOAD SWAP1 PUSH2 0x292C PUSH2 0x2923 DUP5 PUSH2 0x902 JUMP JUMPDEST PUSH2 0xA65 DUP6 PUSH2 0x1D5F JUMP JUMPDEST SWAP1 POP DUP2 DUP2 GT ISZERO PUSH2 0x2955 JUMPI PUSH1 0x1 PUSH1 0x1 PUSH1 0xA0 SHL SUB DUP5 AND PUSH1 0x0 SWAP1 DUP2 MSTORE PUSH1 0xC PUSH1 0x20 MSTORE PUSH1 0x40 SWAP1 KECCAK256 PUSH1 0x5 ADD DUP2 SWAP1 SSTORE JUMPDEST POP POP POP POP JUMP JUMPDEST PUSH1 0x0 PUSH2 0x2980 PUSH2 0x297B DUP4 PUSH2 0x296F DUP8 DUP8 DUP8 PUSH2 0x2E82 JUMP JUMPDEST SWAP1 PUSH4 0xFFFFFFFF PUSH2 0x2FEF AND JUMP JUMPDEST PUSH2 0x3016 JUMP JUMPDEST SWAP5 SWAP4 POP POP POP POP JUMP JUMPDEST PUSH2 0x2990 PUSH2 0xF54 JUMP JUMPDEST PUSH1 0x1 PUSH1 0x1 PUSH1 0xA0 SHL SUB AND PUSH4 0x23B872DD DUP4 ADDRESS DUP5 PUSH1 0x40 MLOAD DUP5 PUSH4 0xFFFFFFFF AND PUSH1 0xE0 SHL DUP2 MSTORE PUSH1 0x4 ADD PUSH2 0x29BF SWAP4 SWAP3 SWAP2 SWAP1 PUSH2 0x42F8 JUMP JUMPDEST PUSH1 0x20 PUSH1 0x40 MLOAD DUP1 DUP4 SUB DUP2 PUSH1 0x0 DUP8 DUP1 EXTCODESIZE ISZERO DUP1 ISZERO PUSH2 0x29D9 JUMPI PUSH1 0x0 DUP1 REVERT JUMPDEST POP GAS CALL ISZERO DUP1 ISZERO PUSH2 0x29ED JUMPI RETURNDATASIZE PUSH1 0x0 DUP1 RETURNDATACOPY RETURNDATASIZE PUSH1 0x0 REVERT JUMPDEST POP POP POP POP PUSH1 0x40 MLOAD RETURNDATASIZE PUSH1 0x1F NOT PUSH1 0x1F DUP3 ADD AND DUP3 ADD DUP1 PUSH1 0x40 MSTORE POP PUSH2 0x2A11 SWAP2 SWAP1 DUP2 ADD SWAP1 PUSH2 0x3EB5 JUMP JUMPDEST POP PUSH2 0x2A1A PUSH2 0xF54 JUMP JUMPDEST PUSH1 0x1 PUSH1 0x1 PUSH1 0xA0 SHL SUB AND PUSH4 0x42966C68 DUP3 PUSH1 0x40 MLOAD DUP3 PUSH4 0xFFFFFFFF AND PUSH1 0xE0 SHL DUP2 MSTORE PUSH1 0x4 ADD PUSH2 0x2A45 SWAP2 SWAP1 PUSH2 0x43CD JUMP JUMPDEST PUSH1 0x0 PUSH1 0x40 MLOAD DUP1 DUP4 SUB DUP2 PUSH1 0x0 DUP8 DUP1 EXTCODESIZE ISZERO DUP1 ISZERO PUSH2 0x2A5F JUMPI PUSH1 0x0 DUP1 REVERT JUMPDEST POP GAS CALL ISZERO DUP1 ISZERO PUSH2 0x2A73 JUMPI RETURNDATASIZE PUSH1 0x0 DUP1 RETURNDATACOPY RETURNDATASIZE PUSH1 0x0 REVERT JUMPDEST POP POP POP POP PUSH2 0x24FF DUP2 PUSH1 0x40 MLOAD DUP1 PUSH1 0x60 ADD PUSH1 0x40 MSTORE DUP1 PUSH1 0x28 DUP2 MSTORE PUSH1 0x20 ADD PUSH2 0x45D2 PUSH1 0x28 SWAP2 CODECOPY PUSH2 0x3033 JUMP JUMPDEST PUSH9 0x2B5E3AF16B1880000 SWAP1 JUMP JUMPDEST PUSH2 0x2AE1 PUSH2 0x2AB1 PUSH2 0x10E7 JUMP JUMPDEST PUSH2 0x2AB9 PUSH2 0xF31 JUMP JUMPDEST GT PUSH7 0x426F6E64696E67 PUSH1 0xC8 SHL PUSH19 0xA6E8D2D8D840C6EAE4E4CADCE840CAE0DEC6D PUSH1 0x6B SHL PUSH2 0x1F55 JUMP JUMPDEST PUSH2 0x2AE9 PUSH2 0x304E JUMP JUMPDEST PUSH2 0x108A PUSH2 0x3075 JUMP JUMPDEST PUSH2 0x2AF9 PUSH2 0x3CD2 JUMP JUMPDEST PUSH2 0x2B01 PUSH2 0x308E JUMP JUMPDEST SWAP1 POP PUSH2 0x2B0E PUSH2 0x2732 PUSH2 0x3156 JUMP JUMPDEST ISZERO PUSH2 0x2B2A JUMPI PUSH2 0x2B1B PUSH2 0x3178 JUMP JUMPDEST PUSH2 0x2B24 DUP2 PUSH2 0x317F JUMP JUMPDEST POP PUSH2 0x108A JUMP JUMPDEST PUSH2 0x2B42 PUSH2 0x2B35 PUSH2 0x3156 JUMP JUMPDEST DUP3 SWAP1 PUSH4 0xFFFFFFFF PUSH2 0x326F AND JUMP JUMPDEST ISZERO PUSH2 0x2B50 JUMPI PUSH2 0x2B24 DUP2 PUSH2 0x3283 JUMP JUMPDEST PUSH2 0x2B58 PUSH2 0x10E7 JUMP JUMPDEST PUSH1 0x40 MLOAD PUSH32 0xFF7DB5A0DC69B02C191BA632DB46961B7D0DAA1BD30709DDBA9B80AD0A15D2C0 SWAP1 PUSH1 0x0 SWAP1 LOG2 POP JUMP JUMPDEST PUSH1 0x0 JUMPDEST PUSH2 0x2B92 PUSH2 0x589 PUSH2 0x10E7 JUMP JUMPDEST DUP2 LT ISZERO PUSH2 0x2BBA JUMPI PUSH2 0x2BB2 PUSH2 0x2BAD PUSH2 0x2BA7 PUSH2 0x10E7 JUMP JUMPDEST DUP4 PUSH2 0xF01 JUMP JUMPDEST PUSH2 0x330E JUMP JUMPDEST PUSH1 0x1 ADD PUSH2 0x2B87 JUMP JUMPDEST POP PUSH1 0x0 PUSH2 0x2BC8 PUSH2 0xE28 PUSH2 0x25C7 JUMP JUMPDEST SWAP1 POP PUSH2 0x2BDB PUSH2 0x2BD5 PUSH2 0x10E7 JUMP JUMPDEST DUP3 PUSH2 0x33BA JUMP JUMPDEST POP JUMP JUMPDEST PUSH1 0x0 DUP2 DUP5 DUP5 GT ISZERO PUSH2 0x2C02 JUMPI PUSH1 0x40 MLOAD PUSH3 0x461BCD PUSH1 0xE5 SHL DUP2 MSTORE PUSH1 0x4 ADD PUSH2 0x7AC SWAP2 SWAP1 PUSH2 0x434C JUMP JUMPDEST POP POP POP SWAP1 SUB SWAP1 JUMP JUMPDEST PUSH1 0x60 DUP1 DUP3 PUSH1 0x40 MLOAD PUSH1 0x20 ADD PUSH2 0x2C1E SWAP2 SWAP1 PUSH2 0x4255 JUMP JUMPDEST PUSH1 0x40 DUP1 MLOAD PUSH1 0x1F NOT DUP2 DUP5 SUB ADD DUP2 MSTORE SWAP2 SWAP1 MSTORE SWAP1 POP PUSH1 0x20 JUMPDEST DUP1 ISZERO PUSH2 0x2C73 JUMPI DUP2 MLOAD PUSH1 0x0 NOT SWAP1 SWAP2 ADD SWAP1 DUP3 SWAP1 DUP3 SWAP1 DUP2 LT PUSH2 0x2C4E JUMPI INVALID JUMPDEST ADD PUSH1 0x20 ADD MLOAD PUSH1 0x1 PUSH1 0x1 PUSH1 0xF8 SHL SUB NOT AND ISZERO PUSH2 0x2C6E JUMPI PUSH1 0x1 ADD DUP2 MSTORE SWAP1 POP PUSH2 0x8FD JUMP JUMPDEST PUSH2 0x2C33 JUMP JUMPDEST POP POP PUSH1 0x40 DUP1 MLOAD PUSH1 0x0 DUP2 MSTORE PUSH1 0x20 DUP2 ADD SWAP1 SWAP2 MSTORE SWAP3 SWAP2 POP POP JUMP JUMPDEST PUSH1 0x0 DUP2 DUP4 PUSH2 0x2CAB JUMPI PUSH1 0x40 MLOAD PUSH3 0x461BCD PUSH1 0xE5 SHL DUP2 MSTORE PUSH1 0x4 ADD PUSH2 0x7AC SWAP2 SWAP1 PUSH2 0x434C JUMP JUMPDEST POP PUSH1 0x0 DUP4 DUP6 DUP2 PUSH2 0x2CB7 JUMPI INVALID JUMPDEST DIV SWAP6 SWAP5 POP POP POP POP POP JUMP JUMPDEST PUSH1 0x0 PUSH2 0x2980 DUP3 PUSH2 0x9BC DUP7 DUP7 PUSH4 0xFFFFFFFF PUSH2 0x1FD4 AND JUMP JUMPDEST DUP1 MLOAD DUP3 MLOAD PUSH1 0x0 SWAP2 EQ ISZERO PUSH2 0x2CEC JUMPI POP PUSH1 0x1 PUSH2 0x8E4 JUMP JUMPDEST DUP2 MLOAD DUP4 MLOAD GT PUSH2 0x2CFC JUMPI PUSH1 0x0 PUSH2 0x2CFF JUMP JUMPDEST PUSH1 0x2 JUMPDEST PUSH1 0xFF AND SWAP4 SWAP3 POP POP POP JUMP JUMPDEST PUSH2 0x2D12 DUP2 PUSH2 0x33EC JUMP JUMPDEST PUSH2 0x2D2E JUMPI PUSH1 0x40 MLOAD PUSH3 0x461BCD PUSH1 0xE5 SHL DUP2 MSTORE PUSH1 0x4 ADD PUSH2 0x7AC SWAP1 PUSH2 0x438D JUMP JUMPDEST PUSH32 0x360894A13BA1A3210667C828492DB98DCA3E2076CC3735A920A3CA505D382BBC SSTORE JUMP JUMPDEST TIMESTAMP SWAP1 JUMP JUMPDEST PUSH2 0x2D5F DUP2 PUSH2 0x33F2 JUMP JUMPDEST PUSH2 0x2D6F PUSH2 0x2D6A PUSH2 0x340B JUMP JUMPDEST PUSH2 0x342D JUMP JUMPDEST PUSH2 0x2BDB JUMPDEST PUSH2 0x108A PUSH2 0x2D94 PUSH2 0x2D81 PUSH2 0x935 JUMP JUMPDEST PUSH2 0xA65 PUSH2 0x2D8C PUSH2 0x1959 JUMP JUMPDEST PUSH2 0xA65 PUSH2 0xE08 JUMP JUMPDEST PUSH2 0x2D9C PUSH2 0xF54 JUMP JUMPDEST PUSH1 0x1 PUSH1 0x1 PUSH1 0xA0 SHL SUB AND PUSH4 0x70A08231 ADDRESS PUSH1 0x40 MLOAD DUP3 PUSH4 0xFFFFFFFF AND PUSH1 0xE0 SHL DUP2 MSTORE PUSH1 0x4 ADD PUSH2 0x2DC7 SWAP2 SWAP1 PUSH2 0x42A7 JUMP JUMPDEST PUSH1 0x20 PUSH1 0x40 MLOAD DUP1 DUP4 SUB DUP2 DUP7 DUP1 EXTCODESIZE ISZERO DUP1 ISZERO PUSH2 0x2DDF JUMPI PUSH1 0x0 DUP1 REVERT JUMPDEST POP GAS STATICCALL ISZERO DUP1 ISZERO PUSH2 0x2DF3 JUMPI RETURNDATASIZE PUSH1 0x0 DUP1 RETURNDATACOPY RETURNDATASIZE PUSH1 0x0 REVERT JUMPDEST POP POP POP POP PUSH1 0x40 MLOAD RETURNDATASIZE PUSH1 0x1F NOT PUSH1 0x1F DUP3 ADD AND DUP3 ADD DUP1 PUSH1 0x40 MSTORE POP PUSH2 0x2E17 SWAP2 SWAP1 DUP2 ADD SWAP1 PUSH2 0x3F21 JUMP JUMPDEST LT ISZERO PUSH11 0x21B7B6B83A3937B63632B9 PUSH1 0xA9 SHL PUSH21 0x496E636F6E73697374656E742062616C616E636573 PUSH1 0x58 SHL PUSH2 0x1F55 JUMP JUMPDEST PUSH1 0x6 SLOAD PUSH2 0x2E5A SWAP1 DUP4 DUP4 PUSH4 0xFFFFFFFF PUSH2 0x2BDE AND JUMP JUMPDEST PUSH1 0x6 SSTORE POP POP JUMP JUMPDEST PUSH2 0x2E69 PUSH2 0x3CD2 JUMP JUMPDEST POP PUSH1 0x40 DUP1 MLOAD PUSH1 0x20 DUP2 ADD SWAP1 SWAP2 MSTORE PUSH7 0x11C37937E08000 DUP2 MSTORE SWAP1 JUMP JUMPDEST PUSH2 0x2E8A PUSH2 0x3CD2 JUMP JUMPDEST PUSH2 0x2E92 PUSH2 0x3CD2 JUMP JUMPDEST PUSH2 0x2E9C DUP5 DUP7 PUSH2 0x228A JUMP JUMPDEST SWAP1 POP PUSH2 0x2EA6 PUSH2 0x3CD2 JUMP JUMPDEST PUSH2 0x2EAE PUSH2 0x340B JUMP JUMPDEST SWAP1 POP PUSH1 0x0 PUSH2 0x2EC2 DUP8 DUP7 PUSH4 0xFFFFFFFF PUSH2 0x2226 AND JUMP JUMPDEST SWAP1 POP PUSH1 0x0 PUSH2 0x2ED6 DUP8 DUP8 PUSH4 0xFFFFFFFF PUSH2 0x2226 AND JUMP JUMPDEST SWAP1 POP PUSH2 0x2EE0 PUSH2 0x3CD2 JUMP JUMPDEST PUSH2 0x2EEA DUP3 DUP5 PUSH2 0x228A JUMP JUMPDEST SWAP1 POP PUSH2 0x2EFC DUP6 DUP6 PUSH4 0xFFFFFFFF PUSH2 0x22B9 AND JUMP JUMPDEST ISZERO PUSH2 0x2FD8 JUMPI PUSH2 0x2F11 DUP2 DUP6 PUSH4 0xFFFFFFFF PUSH2 0x22B9 AND JUMP JUMPDEST ISZERO PUSH2 0x2F2B JUMPI PUSH2 0x2F1F DUP5 PUSH2 0x34E0 JUMP JUMPDEST SWAP6 POP POP POP POP POP POP PUSH2 0x93E JUMP JUMPDEST PUSH2 0x2F33 PUSH2 0x3CD2 JUMP JUMPDEST PUSH2 0x2F3D DUP3 DUP7 PUSH2 0x352C JUMP JUMPDEST SWAP1 POP PUSH2 0x2F47 PUSH2 0x3CD2 JUMP JUMPDEST PUSH2 0x2F57 DUP7 DUP5 PUSH4 0xFFFFFFFF PUSH2 0x3589 AND JUMP JUMPDEST SWAP1 POP PUSH2 0x2F61 PUSH2 0x3CD2 JUMP JUMPDEST PUSH2 0x2F6A DUP8 PUSH2 0x34E0 JUMP JUMPDEST SWAP1 POP PUSH2 0x2F74 PUSH2 0x3CD2 JUMP JUMPDEST PUSH2 0x2F84 DUP10 DUP10 PUSH4 0xFFFFFFFF PUSH2 0x3589 AND JUMP JUMPDEST SWAP1 POP PUSH2 0x2FC8 PUSH2 0x2F99 DUP5 DUP4 PUSH4 0xFFFFFFFF PUSH2 0x35B2 AND JUMP JUMPDEST PUSH2 0x1338 PUSH2 0x2FAC DUP6 DUP6 PUSH4 0xFFFFFFFF PUSH2 0x2623 AND JUMP JUMPDEST PUSH2 0x2FBC DUP9 DUP9 PUSH4 0xFFFFFFFF PUSH2 0x2623 AND JUMP JUMPDEST SWAP1 PUSH4 0xFFFFFFFF PUSH2 0x35B2 AND JUMP JUMPDEST SWAP10 POP POP POP POP POP POP POP POP POP POP PUSH2 0x93E JUMP JUMPDEST PUSH2 0x2FE2 DUP2 DUP7 PUSH2 0x352C JUMP JUMPDEST SWAP10 SWAP9 POP POP POP POP POP POP POP POP POP JUMP JUMPDEST PUSH2 0x2FF7 PUSH2 0x3CD2 JUMP JUMPDEST PUSH1 0x40 DUP1 MLOAD PUSH1 0x20 DUP2 ADD SWAP1 SWAP2 MSTORE DUP4 MLOAD DUP2 SWAP1 PUSH2 0x22B0 SWAP1 DUP6 PUSH4 0xFFFFFFFF PUSH2 0x1FD4 AND JUMP JUMPDEST DUP1 MLOAD PUSH1 0x0 SWAP1 PUSH2 0x8E4 SWAP1 PUSH8 0xDE0B6B3A7640000 PUSH4 0xFFFFFFFF PUSH2 0x200E AND JUMP JUMPDEST PUSH1 0x7 SLOAD PUSH2 0x3047 SWAP1 DUP4 DUP4 PUSH4 0xFFFFFFFF PUSH2 0x2BDE AND JUMP JUMPDEST PUSH1 0x7 SSTORE POP POP JUMP JUMPDEST PUSH2 0x3056 PUSH2 0x92F JUMP JUMPDEST PUSH1 0xD PUSH1 0x0 PUSH2 0x3062 PUSH2 0x10E7 JUMP JUMPDEST DUP2 MSTORE PUSH1 0x20 DUP2 ADD SWAP2 SWAP1 SWAP2 MSTORE PUSH1 0x40 ADD PUSH1 0x0 KECCAK256 SSTORE JUMP JUMPDEST PUSH1 0x2 SLOAD PUSH2 0x3089 SWAP1 PUSH1 0x1 PUSH4 0xFFFFFFFF PUSH2 0x2172 AND JUMP JUMPDEST PUSH1 0x2 SSTORE JUMP JUMPDEST PUSH2 0x3096 PUSH2 0x3CD2 JUMP JUMPDEST PUSH2 0x309E PUSH2 0x3CD2 JUMP JUMPDEST PUSH1 0x0 PUSH2 0x30A8 PUSH2 0x100A JUMP JUMPDEST PUSH1 0x1 PUSH1 0x1 PUSH1 0xA0 SHL SUB AND PUSH4 0xD4A3E9D7 PUSH1 0x40 MLOAD DUP2 PUSH4 0xFFFFFFFF AND PUSH1 0xE0 SHL DUP2 MSTORE PUSH1 0x4 ADD PUSH1 0x40 DUP1 MLOAD DUP1 DUP4 SUB DUP2 PUSH1 0x0 DUP8 DUP1 EXTCODESIZE ISZERO DUP1 ISZERO PUSH2 0x30E1 JUMPI PUSH1 0x0 DUP1 REVERT JUMPDEST POP GAS CALL ISZERO DUP1 ISZERO PUSH2 0x30F5 JUMPI RETURNDATASIZE PUSH1 0x0 DUP1 RETURNDATACOPY RETURNDATASIZE PUSH1 0x0 REVERT JUMPDEST POP POP POP POP PUSH1 0x40 MLOAD RETURNDATASIZE PUSH1 0x1F NOT PUSH1 0x1F DUP3 ADD AND DUP3 ADD DUP1 PUSH1 0x40 MSTORE POP PUSH2 0x3119 SWAP2 SWAP1 DUP2 ADD SWAP1 PUSH2 0x3ED3 JUMP JUMPDEST SWAP2 POP SWAP2 POP PUSH2 0x312D PUSH2 0x5AF PUSH1 0x1 PUSH2 0xCB2 PUSH2 0x10E7 JUMP JUMPDEST ISZERO PUSH2 0x3143 JUMPI PUSH2 0x313A PUSH2 0x35DB JUMP JUMPDEST SWAP3 POP POP POP PUSH2 0x8DE JUMP JUMPDEST DUP1 PUSH2 0x3150 JUMPI PUSH2 0x313A PUSH2 0x3156 JUMP JUMPDEST POP SWAP1 POP SWAP1 JUMP JUMPDEST PUSH2 0x315E PUSH2 0x3CD2 JUMP JUMPDEST POP PUSH1 0x40 DUP1 MLOAD PUSH1 0x20 DUP2 ADD SWAP1 SWAP2 MSTORE PUSH8 0xDE0B6B3A7640000 DUP2 MSTORE SWAP1 JUMP JUMPDEST PUSH1 0x0 PUSH1 0x7 SSTORE JUMP JUMPDEST PUSH2 0x3187 PUSH2 0x3CD2 JUMP JUMPDEST PUSH2 0x318F PUSH2 0x35FD JUMP JUMPDEST SWAP1 POP PUSH1 0x0 PUSH2 0x319B PUSH2 0x935 JUMP JUMPDEST SWAP1 POP PUSH1 0x0 PUSH2 0x31A7 PUSH2 0x123F JUMP JUMPDEST SWAP1 POP DUP1 DUP3 LT ISZERO PUSH2 0x31BC JUMPI PUSH2 0x31B9 PUSH2 0x3620 JUMP JUMPDEST SWAP3 POP JUMPDEST PUSH2 0x31C4 PUSH2 0x3CD2 JUMP JUMPDEST PUSH2 0x31E9 PUSH2 0x31E3 DUP6 PUSH2 0x1338 PUSH2 0x31D6 PUSH2 0x3156 JUMP JUMPDEST DUP10 SWAP1 PUSH4 0xFFFFFFFF PUSH2 0x3589 AND JUMP JUMPDEST DUP7 PUSH2 0x3642 JUMP JUMPDEST SWAP1 POP PUSH1 0x0 PUSH2 0x3208 PUSH2 0x297B PUSH2 0x31FB PUSH2 0x13CF JUMP JUMPDEST DUP5 SWAP1 PUSH4 0xFFFFFFFF PUSH2 0x2FEF AND JUMP JUMPDEST SWAP1 POP PUSH1 0x0 DUP1 PUSH1 0x0 PUSH2 0x3218 DUP5 PUSH2 0x36CD JUMP JUMPDEST SWAP3 POP SWAP3 POP SWAP3 POP PUSH2 0x3226 PUSH2 0x10E7 JUMP JUMPDEST DUP10 MLOAD PUSH1 0x40 MLOAD PUSH32 0x32FCAA1E76ED9517F4749D8EC9A77DD5E7329456D740B9BF9665D900EEF5E283 SWAP2 PUSH2 0x325C SWAP2 DUP8 SWAP1 DUP8 SWAP1 DUP8 SWAP1 PUSH2 0x4404 JUMP JUMPDEST PUSH1 0x40 MLOAD DUP1 SWAP2 SUB SWAP1 LOG2 POP POP POP POP POP POP POP POP POP JUMP JUMPDEST PUSH1 0x0 PUSH2 0x327B DUP4 DUP4 PUSH2 0x2CD7 JUMP JUMPDEST ISZERO SWAP4 SWAP3 POP POP POP JUMP JUMPDEST PUSH2 0x328B PUSH2 0x3CD2 JUMP JUMPDEST PUSH2 0x32B7 PUSH2 0x32B1 PUSH2 0x3299 PUSH2 0x3839 JUMP JUMPDEST PUSH2 0x1338 DUP6 PUSH2 0x32A5 PUSH2 0x3156 JUMP JUMPDEST SWAP1 PUSH4 0xFFFFFFFF PUSH2 0x3589 AND JUMP JUMPDEST DUP4 PUSH2 0x3642 JUMP JUMPDEST SWAP1 POP PUSH1 0x0 PUSH2 0x32C9 PUSH2 0x297B PUSH2 0x31FB PUSH2 0x13CF JUMP JUMPDEST SWAP1 POP PUSH2 0x32D4 DUP2 PUSH2 0x2D56 JUMP JUMPDEST PUSH2 0x32DC PUSH2 0x10E7 JUMP JUMPDEST DUP4 MLOAD PUSH1 0x40 MLOAD PUSH32 0x5E139D4B8080A4A00DCC151E8217694AEEBAE893936326AA22096924A9906677 SWAP2 PUSH2 0xA82 SWAP2 DUP6 SWAP1 PUSH2 0x43DB JUMP JUMPDEST PUSH1 0x0 PUSH2 0x3319 DUP3 PUSH2 0x1944 JUMP JUMPDEST SWAP1 POP PUSH1 0x0 DUP1 DUP1 PUSH2 0x3328 DUP6 PUSH2 0x385B JUMP JUMPDEST PUSH1 0x0 PUSH2 0x3332 PUSH2 0x935 JUMP JUMPDEST SWAP1 POP PUSH1 0x0 PUSH2 0x333E PUSH2 0x123F JUMP JUMPDEST SWAP1 POP DUP1 DUP3 GT ISZERO PUSH2 0x3373 JUMPI PUSH2 0x3358 DUP3 DUP3 PUSH4 0xFFFFFFFF PUSH2 0x2226 AND JUMP JUMPDEST SWAP5 POP PUSH2 0x3363 DUP6 PUSH2 0x389E JUMP JUMPDEST PUSH2 0x336C DUP6 PUSH2 0x36CD JUMP JUMPDEST SWAP1 SWAP6 POP SWAP4 POP POP JUMPDEST DUP7 PUSH32 0x753DF65B37159BF237AE1FCA97BA1BD57CF83BC9498F271A514A4D7BAFE87BDA DUP8 DUP8 DUP8 DUP8 PUSH1 0x40 MLOAD PUSH2 0x33A9 SWAP5 SWAP4 SWAP3 SWAP2 SWAP1 PUSH2 0x4404 JUMP JUMPDEST PUSH1 0x40 MLOAD DUP1 SWAP2 SUB SWAP1 LOG2 POP POP POP POP POP POP POP JUMP JUMPDEST PUSH1 0x0 DUP3 DUP2 MSTORE PUSH1 0xD PUSH1 0x20 SWAP1 DUP2 MSTORE PUSH1 0x40 DUP1 DUP4 KECCAK256 PUSH1 0x2 ADD DUP5 SWAP1 SSTORE SWAP3 DUP3 MSTORE SWAP2 DUP2 KECCAK256 PUSH1 0x3 ADD DUP1 SLOAD PUSH1 0x1 DUP2 ADD DUP3 SSTORE SWAP1 DUP3 MSTORE SWAP2 SWAP1 KECCAK256 ADD SSTORE JUMP JUMPDEST EXTCODESIZE ISZERO ISZERO SWAP1 JUMP JUMPDEST PUSH1 0x7 SLOAD PUSH2 0x3405 SWAP1 DUP3 PUSH4 0xFFFFFFFF PUSH2 0x2172 AND JUMP JUMPDEST PUSH1 0x7 SSTORE POP JUMP JUMPDEST PUSH2 0x3413 PUSH2 0x3CD2 JUMP JUMPDEST POP PUSH1 0x40 DUP1 MLOAD PUSH1 0x20 DUP2 ADD SWAP1 SWAP2 MSTORE PUSH8 0x4DB732547630000 DUP2 MSTORE SWAP1 JUMP JUMPDEST PUSH1 0x0 PUSH2 0x34AD PUSH2 0x297B PUSH2 0x343D PUSH2 0xF54 JUMP JUMPDEST PUSH1 0x1 PUSH1 0x1 PUSH1 0xA0 SHL SUB AND PUSH4 0x18160DDD PUSH1 0x40 MLOAD DUP2 PUSH4 0xFFFFFFFF AND PUSH1 0xE0 SHL DUP2 MSTORE PUSH1 0x4 ADD PUSH1 0x20 PUSH1 0x40 MLOAD DUP1 DUP4 SUB DUP2 DUP7 DUP1 EXTCODESIZE ISZERO DUP1 ISZERO PUSH2 0x3475 JUMPI PUSH1 0x0 DUP1 REVERT JUMPDEST POP GAS STATICCALL ISZERO DUP1 ISZERO PUSH2 0x3489 JUMPI RETURNDATASIZE PUSH1 0x0 DUP1 RETURNDATACOPY RETURNDATASIZE PUSH1 0x0 REVERT JUMPDEST POP POP POP POP PUSH1 0x40 MLOAD RETURNDATASIZE PUSH1 0x1F NOT PUSH1 0x1F DUP3 ADD AND DUP3 ADD DUP1 PUSH1 0x40 MSTORE POP PUSH2 0x31FB SWAP2 SWAP1 DUP2 ADD SWAP1 PUSH2 0x3F21 JUMP JUMPDEST SWAP1 POP PUSH1 0x0 PUSH2 0x34B9 PUSH2 0x1D7A JUMP JUMPDEST SWAP1 POP DUP2 DUP2 GT ISZERO PUSH2 0x193F JUMPI PUSH1 0x0 PUSH2 0x34D5 DUP3 DUP5 PUSH4 0xFFFFFFFF PUSH2 0x2226 AND JUMP JUMPDEST SWAP1 POP PUSH2 0x2955 DUP2 PUSH2 0x3925 JUMP JUMPDEST PUSH2 0x34E8 PUSH2 0x3CD2 JUMP JUMPDEST PUSH2 0x8E4 PUSH2 0x34F7 PUSH1 0x1 PUSH1 0x3 PUSH2 0x228A JUMP JUMPDEST PUSH2 0x32A5 PUSH2 0x3524 PUSH2 0x351A PUSH1 0x2 PUSH2 0x350E DUP9 PUSH2 0x32A5 PUSH2 0x3156 JUMP JUMPDEST SWAP1 PUSH4 0xFFFFFFFF PUSH2 0x3964 AND JUMP JUMPDEST PUSH2 0x1344 PUSH1 0x3 PUSH2 0x39BA JUMP JUMPDEST PUSH2 0x1338 PUSH2 0x3156 JUMP JUMPDEST PUSH2 0x3534 PUSH2 0x3CD2 JUMP JUMPDEST PUSH2 0x3544 DUP4 DUP4 PUSH4 0xFFFFFFFF PUSH2 0x39EE AND JUMP JUMPDEST ISZERO PUSH2 0x3559 JUMPI PUSH2 0x3552 DUP4 PUSH2 0x34E0 JUMP JUMPDEST SWAP1 POP PUSH2 0x8E4 JUMP JUMPDEST PUSH2 0x93E PUSH2 0x3568 PUSH1 0x1 PUSH1 0x3 PUSH2 0x228A JUMP JUMPDEST PUSH2 0x32A5 PUSH2 0x3524 PUSH2 0x357A DUP8 PUSH2 0x32A5 PUSH2 0x3156 JUMP JUMPDEST PUSH2 0x1344 PUSH2 0x351A DUP9 PUSH2 0x32A5 PUSH2 0x3156 JUMP JUMPDEST PUSH2 0x3591 PUSH2 0x3CD2 JUMP JUMPDEST PUSH1 0x40 DUP1 MLOAD PUSH1 0x20 DUP2 ADD SWAP1 SWAP2 MSTORE DUP3 MLOAD DUP5 MLOAD DUP3 SWAP2 PUSH2 0x22B0 SWAP2 SWAP1 PUSH4 0xFFFFFFFF PUSH2 0x2226 AND JUMP JUMPDEST PUSH2 0x35BA PUSH2 0x3CD2 JUMP JUMPDEST PUSH1 0x40 DUP1 MLOAD PUSH1 0x20 DUP2 ADD SWAP1 SWAP2 MSTORE DUP3 MLOAD DUP5 MLOAD DUP3 SWAP2 PUSH2 0x22B0 SWAP2 SWAP1 PUSH4 0xFFFFFFFF PUSH2 0x2172 AND JUMP JUMPDEST PUSH2 0x35E3 PUSH2 0x3CD2 JUMP JUMPDEST POP PUSH1 0x40 DUP1 MLOAD PUSH1 0x20 DUP2 ADD SWAP1 SWAP2 MSTORE PUSH8 0x155F2DD73A1A0000 DUP2 MSTORE SWAP1 JUMP JUMPDEST PUSH2 0x3605 PUSH2 0x3CD2 JUMP JUMPDEST POP PUSH1 0x40 DUP1 MLOAD PUSH1 0x20 DUP2 ADD SWAP1 SWAP2 MSTORE PUSH9 0x15AF1D78B58C40000 DUP2 MSTORE SWAP1 JUMP JUMPDEST PUSH2 0x3628 PUSH2 0x3CD2 JUMP JUMPDEST POP PUSH1 0x40 DUP1 MLOAD PUSH1 0x20 DUP2 ADD SWAP1 SWAP2 MSTORE PUSH8 0xE73435BB46020000 DUP2 MSTORE SWAP1 JUMP JUMPDEST PUSH2 0x364A PUSH2 0x3CD2 JUMP JUMPDEST PUSH2 0x3652 PUSH2 0x3CD2 JUMP JUMPDEST PUSH2 0x365A PUSH2 0x39F5 JUMP JUMPDEST SWAP1 POP PUSH1 0x0 PUSH2 0x3666 PUSH2 0x935 JUMP JUMPDEST SWAP1 POP PUSH1 0x0 PUSH2 0x3672 PUSH2 0x123F JUMP JUMPDEST SWAP1 POP PUSH2 0x368C PUSH2 0x367F PUSH2 0x3156 JUMP JUMPDEST DUP7 SWAP1 PUSH4 0xFFFFFFFF PUSH2 0x22B9 AND JUMP JUMPDEST DUP1 ISZERO PUSH2 0x3697 JUMPI POP DUP1 DUP3 LT JUMPDEST ISZERO PUSH2 0x36A7 JUMPI PUSH2 0x36A4 PUSH2 0x3A16 JUMP JUMPDEST SWAP3 POP JUMPDEST PUSH2 0x36B7 DUP7 DUP5 PUSH4 0xFFFFFFFF PUSH2 0x22B9 AND JUMP JUMPDEST PUSH2 0x36C1 JUMPI DUP6 PUSH2 0x36C3 JUMP JUMPDEST DUP3 JUMPDEST SWAP7 SWAP6 POP POP POP POP POP POP JUMP JUMPDEST PUSH1 0x0 DUP1 DUP1 DUP1 DUP1 DUP1 DUP1 PUSH2 0x36DD PUSH2 0x935 JUMP JUMPDEST SWAP1 POP PUSH1 0x0 PUSH2 0x36E9 PUSH2 0x123F JUMP JUMPDEST SWAP1 POP DUP1 DUP3 LT ISZERO PUSH2 0x37A6 JUMPI PUSH2 0x3703 DUP2 DUP4 PUSH4 0xFFFFFFFF PUSH2 0x2226 AND JUMP JUMPDEST SWAP5 POP PUSH2 0x372B PUSH2 0x371A PUSH1 0x64 PUSH2 0x3715 PUSH2 0x3A37 JUMP JUMPDEST PUSH2 0x2226 JUMP JUMPDEST PUSH2 0x9BC DUP8 PUSH1 0x64 PUSH4 0xFFFFFFFF PUSH2 0x1FD4 AND JUMP JUMPDEST SWAP5 POP DUP9 DUP6 GT PUSH2 0x373A JUMPI DUP5 PUSH2 0x373C JUMP JUMPDEST DUP9 JUMPDEST SWAP5 POP PUSH2 0x375B PUSH1 0x64 PUSH2 0x9BC PUSH2 0x374E PUSH2 0x3A37 JUMP JUMPDEST DUP9 SWAP1 PUSH4 0xFFFFFFFF PUSH2 0x1FD4 AND JUMP JUMPDEST SWAP3 POP PUSH2 0x376D DUP6 DUP5 PUSH4 0xFFFFFFFF PUSH2 0x2226 AND JUMP JUMPDEST SWAP5 POP PUSH2 0x3778 DUP4 PUSH2 0x3A3C JUMP JUMPDEST PUSH2 0x3781 DUP6 PUSH2 0x3AD0 JUMP JUMPDEST PUSH2 0x3791 DUP10 DUP5 PUSH4 0xFFFFFFFF PUSH2 0x2226 AND JUMP JUMPDEST SWAP9 POP PUSH2 0x37A3 DUP10 DUP7 PUSH4 0xFFFFFFFF PUSH2 0x2226 AND JUMP JUMPDEST SWAP9 POP JUMPDEST PUSH1 0x0 PUSH2 0x37B0 PUSH2 0x1D7A JUMP JUMPDEST SWAP1 POP PUSH1 0x0 DUP11 GT DUP1 ISZERO PUSH2 0x37C2 JUMPI POP PUSH1 0x0 DUP2 GT JUMPDEST ISZERO PUSH2 0x37F4 JUMPI DUP10 DUP2 GT PUSH2 0x37D4 JUMPI DUP1 PUSH2 0x37D6 JUMP JUMPDEST DUP10 JUMPDEST SWAP5 POP PUSH2 0x37E1 DUP6 PUSH2 0x3925 JUMP JUMPDEST PUSH2 0x37F1 DUP11 DUP7 PUSH4 0xFFFFFFFF PUSH2 0x2226 AND JUMP JUMPDEST SWAP10 POP JUMPDEST PUSH2 0x37FC PUSH2 0xE08 JUMP JUMPDEST PUSH2 0x3805 JUMPI PUSH1 0x0 SWAP10 POP JUMPDEST DUP10 ISZERO PUSH2 0x3814 JUMPI PUSH2 0x3814 DUP11 PUSH2 0x3B61 JUMP JUMPDEST DUP6 DUP6 PUSH2 0x3826 DUP13 DUP8 PUSH4 0xFFFFFFFF PUSH2 0x2172 AND JUMP JUMPDEST SWAP9 POP SWAP9 POP SWAP9 POP POP POP POP POP POP POP SWAP2 SWAP4 SWAP1 SWAP3 POP JUMP JUMPDEST PUSH2 0x3841 PUSH2 0x3CD2 JUMP JUMPDEST POP PUSH1 0x40 DUP1 MLOAD PUSH1 0x20 DUP2 ADD SWAP1 SWAP2 MSTORE PUSH8 0x4563918244F40000 DUP2 MSTORE SWAP1 JUMP JUMPDEST PUSH1 0x0 PUSH2 0x3866 DUP3 PUSH2 0x1944 JUMP JUMPDEST SWAP1 POP DUP1 PUSH2 0x3873 JUMPI POP PUSH2 0x2BDB JUMP JUMPDEST PUSH1 0x8 SLOAD PUSH2 0x3886 SWAP1 DUP3 PUSH4 0xFFFFFFFF PUSH2 0x2226 AND JUMP JUMPDEST PUSH1 0x8 SSTORE POP PUSH1 0x0 SWAP1 DUP2 MSTORE PUSH1 0xD PUSH1 0x20 MSTORE PUSH1 0x40 DUP2 KECCAK256 PUSH1 0x1 ADD SSTORE JUMP JUMPDEST PUSH2 0x38A6 PUSH2 0xF54 JUMP JUMPDEST PUSH1 0x1 PUSH1 0x1 PUSH1 0xA0 SHL SUB AND PUSH4 0x42966C68 DUP3 PUSH1 0x40 MLOAD DUP3 PUSH4 0xFFFFFFFF AND PUSH1 0xE0 SHL DUP2 MSTORE PUSH1 0x4 ADD PUSH2 0x38D1 SWAP2 SWAP1 PUSH2 0x43CD JUMP JUMPDEST PUSH1 0x0 PUSH1 0x40 MLOAD DUP1 DUP4 SUB DUP2 PUSH1 0x0 DUP8 DUP1 EXTCODESIZE ISZERO DUP1 ISZERO PUSH2 0x38EB JUMPI PUSH1 0x0 DUP1 REVERT JUMPDEST POP GAS CALL ISZERO DUP1 ISZERO PUSH2 0x38FF JUMPI RETURNDATASIZE PUSH1 0x0 DUP1 RETURNDATACOPY RETURNDATASIZE PUSH1 0x0 REVERT JUMPDEST POP POP POP POP PUSH2 0x2D6F DUP2 PUSH1 0x40 MLOAD DUP1 PUSH1 0x60 ADD PUSH1 0x40 MSTORE DUP1 PUSH1 0x2A DUP2 MSTORE PUSH1 0x20 ADD PUSH2 0x45FA PUSH1 0x2A SWAP2 CODECOPY PUSH2 0x2E46 JUMP JUMPDEST PUSH2 0x2D6F DUP2 PUSH1 0x40 MLOAD DUP1 PUSH1 0x40 ADD PUSH1 0x40 MSTORE DUP1 PUSH1 0x1C DUP2 MSTORE PUSH1 0x20 ADD PUSH32 0x436F6D7074726F6C6C65723A206E6F7420656E6F756768206465627400000000 DUP2 MSTORE POP PUSH2 0x3033 JUMP JUMPDEST PUSH2 0x396C PUSH2 0x3CD2 JUMP JUMPDEST DUP2 PUSH2 0x397B JUMPI PUSH2 0x3552 PUSH1 0x1 PUSH2 0x39BA JUMP JUMPDEST PUSH2 0x3983 PUSH2 0x3CD2 JUMP JUMPDEST POP PUSH1 0x40 DUP1 MLOAD PUSH1 0x20 DUP2 ADD SWAP1 SWAP2 MSTORE DUP4 MLOAD DUP2 MSTORE PUSH1 0x1 JUMPDEST DUP4 DUP2 LT ISZERO PUSH2 0x39B2 JUMPI PUSH2 0x39A8 DUP3 DUP7 PUSH2 0x2623 JUMP JUMPDEST SWAP2 POP PUSH1 0x1 ADD PUSH2 0x3996 JUMP JUMPDEST POP SWAP4 SWAP3 POP POP POP JUMP JUMPDEST PUSH2 0x39C2 PUSH2 0x3CD2 JUMP JUMPDEST PUSH1 0x40 DUP1 MLOAD PUSH1 0x20 DUP2 ADD SWAP1 SWAP2 MSTORE DUP1 PUSH2 0x39E6 DUP5 PUSH8 0xDE0B6B3A7640000 PUSH4 0xFFFFFFFF PUSH2 0x1FD4 AND JUMP JUMPDEST SWAP1 MSTORE SWAP3 SWAP2 POP POP JUMP JUMPDEST MLOAD SWAP1 MLOAD EQ SWAP1 JUMP JUMPDEST PUSH2 0x39FD PUSH2 0x3CD2 JUMP JUMPDEST POP PUSH1 0x40 DUP1 MLOAD PUSH1 0x20 DUP2 ADD SWAP1 SWAP2 MSTORE PUSH7 0x470DE4DF820000 DUP2 MSTORE SWAP1 JUMP JUMPDEST PUSH2 0x3A1E PUSH2 0x3CD2 JUMP JUMPDEST POP PUSH1 0x40 DUP1 MLOAD PUSH1 0x20 DUP2 ADD SWAP1 SWAP2 MSTORE PUSH7 0x6A94D74F430000 DUP2 MSTORE SWAP1 JUMP JUMPDEST PUSH1 0x28 SWAP1 JUMP JUMPDEST DUP1 ISZERO PUSH2 0x2BDB JUMPI PUSH2 0x3A4A PUSH2 0xF54 JUMP JUMPDEST PUSH1 0x1 PUSH1 0x1 PUSH1 0xA0 SHL SUB AND PUSH4 0x40C10F19 PUSH2 0x3A60 PUSH2 0x920 JUMP JUMPDEST DUP4 PUSH1 0x40 MLOAD DUP4 PUSH4 0xFFFFFFFF AND PUSH1 0xE0 SHL DUP2 MSTORE PUSH1 0x4 ADD PUSH2 0x3A7E SWAP3 SWAP2 SWAP1 PUSH2 0x4306 JUMP JUMPDEST PUSH1 0x20 PUSH1 0x40 MLOAD DUP1 DUP4 SUB DUP2 PUSH1 0x0 DUP8 DUP1 EXTCODESIZE ISZERO DUP1 ISZERO PUSH2 0x3A98 JUMPI PUSH1 0x0 DUP1 REVERT JUMPDEST POP GAS CALL ISZERO DUP1 ISZERO PUSH2 0x3AAC JUMPI RETURNDATASIZE PUSH1 0x0 DUP1 RETURNDATACOPY RETURNDATASIZE PUSH1 0x0 REVERT JUMPDEST POP POP POP POP PUSH1 0x40 MLOAD RETURNDATASIZE PUSH1 0x1F NOT PUSH1 0x1F DUP3 ADD AND DUP3 ADD DUP1 PUSH1 0x40 MSTORE POP PUSH2 0x2507 SWAP2 SWAP1 DUP2 ADD SWAP1 PUSH2 0x3EB5 JUMP JUMPDEST PUSH2 0x3AD8 PUSH2 0xF54 JUMP JUMPDEST PUSH1 0x1 PUSH1 0x1 PUSH1 0xA0 SHL SUB AND PUSH4 0x40C10F19 ADDRESS DUP4 PUSH1 0x40 MLOAD DUP4 PUSH4 0xFFFFFFFF AND PUSH1 0xE0 SHL DUP2 MSTORE PUSH1 0x4 ADD PUSH2 0x3B05 SWAP3 SWAP2 SWAP1 PUSH2 0x4306 JUMP JUMPDEST PUSH1 0x20 PUSH1 0x40 MLOAD DUP1 DUP4 SUB DUP2 PUSH1 0x0 DUP8 DUP1 EXTCODESIZE ISZERO DUP1 ISZERO PUSH2 0x3B1F JUMPI PUSH1 0x0 DUP1 REVERT JUMPDEST POP GAS CALL ISZERO DUP1 ISZERO PUSH2 0x3B33 JUMPI RETURNDATASIZE PUSH1 0x0 DUP1 RETURNDATACOPY RETURNDATASIZE PUSH1 0x0 REVERT JUMPDEST POP POP POP POP PUSH1 0x40 MLOAD RETURNDATASIZE PUSH1 0x1F NOT PUSH1 0x1F DUP3 ADD AND DUP3 ADD DUP1 PUSH1 0x40 MSTORE POP PUSH2 0x3B57 SWAP2 SWAP1 DUP2 ADD SWAP1 PUSH2 0x3EB5 JUMP JUMPDEST POP PUSH2 0x2D6F DUP2 PUSH2 0x3C01 JUMP JUMPDEST PUSH2 0x3BA4 PUSH1 0x0 PUSH2 0x3B6E PUSH2 0xE08 JUMP JUMPDEST GT PUSH11 0x21B7B6B83A3937B63632B9 PUSH1 0xA9 SHL PUSH32 0x43616E74206D696E7420746F20656D70747920706F6F6C000000000000000000 PUSH2 0x1F55 JUMP JUMPDEST PUSH1 0x0 PUSH2 0x3BC3 PUSH1 0x64 PUSH2 0x9BC PUSH2 0x3BB6 PUSH2 0x3A37 JUMP JUMPDEST DUP6 SWAP1 PUSH4 0xFFFFFFFF PUSH2 0x1FD4 AND JUMP JUMPDEST SWAP1 POP PUSH1 0x0 DUP2 DUP4 GT PUSH2 0x3BD5 JUMPI PUSH1 0x0 PUSH2 0x3BE5 JUMP JUMPDEST PUSH2 0x3BE5 DUP4 DUP4 PUSH4 0xFFFFFFFF PUSH2 0x2226 AND JUMP JUMPDEST SWAP1 POP PUSH2 0x3BF0 DUP3 PUSH2 0x3A3C JUMP JUMPDEST PUSH2 0x3BF9 DUP2 PUSH2 0x3C1A JUMP JUMPDEST PUSH2 0x193F PUSH2 0x2D73 JUMP JUMPDEST PUSH1 0x6 SLOAD PUSH2 0x3C14 SWAP1 DUP3 PUSH4 0xFFFFFFFF PUSH2 0x2172 AND JUMP JUMPDEST PUSH1 0x6 SSTORE POP JUMP JUMPDEST DUP1 ISZERO PUSH2 0x2BDB JUMPI PUSH2 0x3C28 PUSH2 0xF54 JUMP JUMPDEST PUSH1 0x1 PUSH1 0x1 PUSH1 0xA0 SHL SUB AND PUSH4 0x40C10F19 ADDRESS DUP4 PUSH1 0x40 MLOAD DUP4 PUSH4 0xFFFFFFFF AND PUSH1 0xE0 SHL DUP2 MSTORE PUSH1 0x4 ADD PUSH2 0x3C55 SWAP3 SWAP2 SWAP1 PUSH2 0x4306 JUMP JUMPDEST PUSH1 0x20 PUSH1 0x40 MLOAD DUP1 DUP4 SUB DUP2 PUSH1 0x0 DUP8 DUP1 EXTCODESIZE ISZERO DUP1 ISZERO PUSH2 0x3C6F JUMPI PUSH1 0x0 DUP1 REVERT JUMPDEST POP GAS CALL ISZERO DUP1 ISZERO PUSH2 0x3C83 JUMPI RETURNDATASIZE PUSH1 0x0 DUP1 RETURNDATACOPY RETURNDATASIZE PUSH1 0x0 REVERT JUMPDEST POP POP POP POP PUSH1 0x40 MLOAD RETURNDATASIZE PUSH1 0x1F NOT PUSH1 0x1F DUP3 ADD AND DUP3 ADD DUP1 PUSH1 0x40 MSTORE POP PUSH2 0x3CA7 SWAP2 SWAP1 DUP2 ADD SWAP1 PUSH2 0x3EB5 JUMP JUMPDEST POP PUSH2 0x2BDB DUP2 PUSH2 0x25AE JUMP JUMPDEST PUSH1 0x40 MLOAD DUP1 PUSH1 0x60 ADD PUSH1 0x40 MSTORE DUP1 PUSH1 0x0 DUP2 MSTORE PUSH1 0x20 ADD PUSH1 0x0 DUP2 MSTORE PUSH1 0x20 ADD PUSH1 0x0 DUP2 MSTORE POP SWAP1 JUMP JUMPDEST PUSH1 0x40 MLOAD DUP1 PUSH1 0x20 ADD PUSH1 0x40 MSTORE DUP1 PUSH1 0x0 DUP2 MSTORE POP SWAP1 JUMP JUMPDEST DUP1 CALLDATALOAD PUSH2 0x8E4 DUP2 PUSH2 0x4511 JUMP JUMPDEST DUP1 MLOAD PUSH2 0x8E4 DUP2 PUSH2 0x4525 JUMP JUMPDEST DUP1 CALLDATALOAD PUSH2 0x8E4 DUP2 PUSH2 0x452E JUMP JUMPDEST PUSH1 0x0 PUSH1 0x20 DUP3 DUP5 SUB SLT ISZERO PUSH2 0x3D18 JUMPI PUSH1 0x0 DUP1 REVERT JUMPDEST PUSH2 0x3D22 PUSH1 0x20 PUSH2 0x4447 JUMP JUMPDEST SWAP1 POP PUSH1 0x0 PUSH2 0x3D30 DUP5 DUP5 PUSH2 0x3D44 JUMP JUMPDEST DUP3 MSTORE POP SWAP3 SWAP2 POP POP JUMP JUMPDEST DUP1 CALLDATALOAD PUSH2 0x8E4 DUP2 PUSH2 0x453B JUMP JUMPDEST DUP1 MLOAD PUSH2 0x8E4 DUP2 PUSH2 0x453B JUMP JUMPDEST PUSH1 0x0 PUSH1 0x20 DUP3 DUP5 SUB SLT ISZERO PUSH2 0x3D61 JUMPI PUSH1 0x0 DUP1 REVERT JUMPDEST PUSH1 0x0 PUSH2 0x2980 DUP5 DUP5 PUSH2 0x3CE5 JUMP JUMPDEST PUSH1 0x0 DUP1 PUSH1 0x40 DUP4 DUP6 SUB SLT ISZERO PUSH2 0x3D80 JUMPI PUSH1 0x0 DUP1 REVERT JUMPDEST PUSH1 0x0 PUSH2 0x3D8C DUP6 DUP6 PUSH2 0x3CE5 JUMP JUMPDEST SWAP3 POP POP PUSH1 0x20 PUSH2 0x3D9D DUP6 DUP3 DUP7 ADD PUSH2 0x3CE5 JUMP JUMPDEST SWAP2 POP POP SWAP3 POP SWAP3 SWAP1 POP JUMP JUMPDEST PUSH1 0x0 DUP1 PUSH1 0x0 PUSH1 0x60 DUP5 DUP7 SUB SLT ISZERO PUSH2 0x3DBC JUMPI PUSH1 0x0 DUP1 REVERT JUMPDEST PUSH1 0x0 PUSH2 0x3DC8 DUP7 DUP7 PUSH2 0x3CE5 JUMP JUMPDEST SWAP4 POP POP PUSH1 0x20 PUSH2 0x3DD9 DUP7 DUP3 DUP8 ADD PUSH2 0x3CE5 JUMP JUMPDEST SWAP3 POP POP PUSH1 0x40 PUSH2 0x3DEA DUP7 DUP3 DUP8 ADD PUSH2 0x3D39 JUMP JUMPDEST SWAP2 POP POP SWAP3 POP SWAP3 POP SWAP3 JUMP JUMPDEST PUSH1 0x0 DUP1 PUSH1 0x0 DUP1 PUSH1 0x80 DUP6 DUP8 SUB SLT ISZERO PUSH2 0x3E0A JUMPI PUSH1 0x0 DUP1 REVERT JUMPDEST PUSH1 0x0 PUSH2 0x3E16 DUP8 DUP8 PUSH2 0x3CE5 JUMP JUMPDEST SWAP5 POP POP PUSH1 0x20 PUSH2 0x3E27 DUP8 DUP3 DUP9 ADD PUSH2 0x3CE5 JUMP JUMPDEST SWAP4 POP POP PUSH1 0x40 PUSH2 0x3E38 DUP8 DUP3 DUP9 ADD PUSH2 0x3D39 JUMP JUMPDEST SWAP3 POP POP PUSH1 0x60 PUSH2 0x3E49 DUP8 DUP3 DUP9 ADD PUSH2 0x3D39 JUMP JUMPDEST SWAP2 POP POP SWAP3 SWAP6 SWAP2 SWAP5 POP SWAP3 POP JUMP JUMPDEST PUSH1 0x0 DUP1 PUSH1 0x40 DUP4 DUP6 SUB SLT ISZERO PUSH2 0x3E68 JUMPI PUSH1 0x0 DUP1 REVERT JUMPDEST PUSH1 0x0 PUSH2 0x3E74 DUP6 DUP6 PUSH2 0x3CE5 JUMP JUMPDEST SWAP3 POP POP PUSH1 0x20 PUSH2 0x3D9D DUP6 DUP3 DUP7 ADD PUSH2 0x3CFB JUMP JUMPDEST PUSH1 0x0 DUP1 PUSH1 0x40 DUP4 DUP6 SUB SLT ISZERO PUSH2 0x3E98 JUMPI PUSH1 0x0 DUP1 REVERT JUMPDEST PUSH1 0x0 PUSH2 0x3EA4 DUP6 DUP6 PUSH2 0x3CE5 JUMP JUMPDEST SWAP3 POP POP PUSH1 0x20 PUSH2 0x3D9D DUP6 DUP3 DUP7 ADD PUSH2 0x3D39 JUMP JUMPDEST PUSH1 0x0 PUSH1 0x20 DUP3 DUP5 SUB SLT ISZERO PUSH2 0x3EC7 JUMPI PUSH1 0x0 DUP1 REVERT JUMPDEST PUSH1 0x0 PUSH2 0x2980 DUP5 DUP5 PUSH2 0x3CF0 JUMP JUMPDEST PUSH1 0x0 DUP1 PUSH1 0x40 DUP4 DUP6 SUB SLT ISZERO PUSH2 0x3EE6 JUMPI PUSH1 0x0 DUP1 REVERT JUMPDEST PUSH1 0x0 PUSH2 0x3EF2 DUP6 DUP6 PUSH2 0x3D06 JUMP JUMPDEST SWAP3 POP POP PUSH1 0x20 PUSH2 0x3D9D DUP6 DUP3 DUP7 ADD PUSH2 0x3CF0 JUMP JUMPDEST PUSH1 0x0 PUSH1 0x20 DUP3 DUP5 SUB SLT ISZERO PUSH2 0x3F15 JUMPI PUSH1 0x0 DUP1 REVERT JUMPDEST PUSH1 0x0 PUSH2 0x2980 DUP5 DUP5 PUSH2 0x3D39 JUMP JUMPDEST PUSH1 0x0 PUSH1 0x20 DUP3 DUP5 SUB SLT ISZERO PUSH2 0x3F33 JUMPI PUSH1 0x0 DUP1 REVERT JUMPDEST PUSH1 0x0 PUSH2 0x2980 DUP5 DUP5 PUSH2 0x3D44 JUMP JUMPDEST PUSH1 0x0 DUP1 PUSH1 0x40 DUP4 DUP6 SUB SLT ISZERO PUSH2 0x3F52 JUMPI PUSH1 0x0 DUP1 REVERT JUMPDEST PUSH1 0x0 PUSH2 0x3EA4 DUP6 DUP6 PUSH2 0x3D39 JUMP JUMPDEST PUSH1 0x0 DUP1 PUSH1 0x0 PUSH1 0x60 DUP5 DUP7 SUB SLT ISZERO PUSH2 0x3F73 JUMPI PUSH1 0x0 DUP1 REVERT JUMPDEST PUSH1 0x0 PUSH2 0x3F7F DUP7 DUP7 PUSH2 0x3D39 JUMP JUMPDEST SWAP4 POP POP PUSH1 0x20 PUSH2 0x3DD9 DUP7 DUP3 DUP8 ADD PUSH2 0x3D39 JUMP JUMPDEST PUSH2 0x3F99 DUP2 PUSH2 0x44B4 JUMP JUMPDEST DUP3 MSTORE POP POP JUMP JUMPDEST PUSH2 0x3F99 DUP2 PUSH2 0x447B JUMP JUMPDEST PUSH2 0x3F99 DUP2 PUSH2 0x4486 JUMP JUMPDEST PUSH2 0x3F99 PUSH2 0x3FBD DUP3 PUSH2 0x448B JUMP JUMPDEST PUSH2 0x8DE JUMP JUMPDEST PUSH2 0x3F99 PUSH2 0x3FBD DUP3 PUSH2 0x8DE JUMP JUMPDEST PUSH1 0x0 PUSH2 0x3FD9 DUP3 PUSH2 0x446E JUMP JUMPDEST PUSH2 0x3FE3 DUP2 DUP6 PUSH2 0x8FD JUMP JUMPDEST SWAP4 POP PUSH2 0x3FF3 DUP2 DUP6 PUSH1 0x20 DUP7 ADD PUSH2 0x44D1 JUMP JUMPDEST SWAP3 SWAP1 SWAP3 ADD SWAP3 SWAP2 POP POP JUMP JUMPDEST PUSH2 0x3F99 DUP2 PUSH2 0x44BB JUMP JUMPDEST PUSH2 0x3F99 DUP2 PUSH2 0x44C6 JUMP JUMPDEST PUSH1 0x0 PUSH2 0x401A DUP3 PUSH2 0x446E JUMP JUMPDEST PUSH2 0x4024 DUP2 DUP6 PUSH2 0x4472 JUMP JUMPDEST SWAP4 POP PUSH2 0x4034 DUP2 DUP6 PUSH1 0x20 DUP7 ADD PUSH2 0x44D1 JUMP JUMPDEST PUSH2 0x403D DUP2 PUSH2 0x44FD JUMP JUMPDEST SWAP1 SWAP4 ADD SWAP4 SWAP3 POP POP POP JUMP JUMPDEST PUSH1 0x0 PUSH2 0x4054 PUSH1 0x1B DUP4 PUSH2 0x4472 JUMP JUMPDEST PUSH32 0x536166654D6174683A206164646974696F6E206F766572666C6F770000000000 DUP2 MSTORE PUSH1 0x20 ADD SWAP3 SWAP2 POP POP JUMP JUMPDEST PUSH1 0x0 PUSH2 0x408D PUSH1 0x2B DUP4 PUSH2 0x4472 JUMP JUMPDEST PUSH32 0x4D61726B65743A20436F75706F6E207472616E7366657220746F20746865207A DUP2 MSTORE PUSH11 0x65726F2061646472657373 PUSH1 0xA8 SHL PUSH1 0x20 DUP3 ADD MSTORE PUSH1 0x40 ADD SWAP3 SWAP2 POP POP JUMP JUMPDEST PUSH1 0x0 PUSH2 0x40DA PUSH1 0x21 DUP4 PUSH2 0x4472 JUMP JUMPDEST PUSH32 0x536166654D6174683A206D756C7469706C69636174696F6E206F766572666C6F DUP2 MSTORE PUSH1 0x77 PUSH1 0xF8 SHL PUSH1 0x20 DUP3 ADD MSTORE PUSH1 0x40 ADD SWAP3 SWAP2 POP POP JUMP JUMPDEST PUSH1 0x0 PUSH2 0x411D PUSH1 0x3B DUP4 PUSH2 0x4472 JUMP JUMPDEST PUSH32 0x43616E6E6F742073657420612070726F787920696D706C656D656E746174696F DUP2 MSTORE PUSH32 0x6E20746F2061206E6F6E2D636F6E747261637420616464726573730000000000 PUSH1 0x20 DUP3 ADD MSTORE PUSH1 0x40 ADD SWAP3 SWAP2 POP POP JUMP JUMPDEST PUSH1 0x0 PUSH2 0x417C PUSH1 0x2A DUP4 PUSH2 0x4472 JUMP JUMPDEST PUSH32 0x4D61726B65743A20436F75706F6E20617070726F766520746F20746865207A65 DUP2 MSTORE PUSH10 0x726F2061646472657373 PUSH1 0xB0 SHL PUSH1 0x20 DUP3 ADD MSTORE PUSH1 0x40 ADD SWAP3 SWAP2 POP POP JUMP JUMPDEST PUSH1 0x0 PUSH2 0x41C8 PUSH1 0x2D DUP4 PUSH2 0x4472 JUMP JUMPDEST PUSH32 0x4D61726B65743A20436F75706F6E207472616E736665722066726F6D20746865 DUP2 MSTORE PUSH13 0x207A65726F2061646472657373 PUSH1 0x98 SHL PUSH1 0x20 DUP3 ADD MSTORE PUSH1 0x40 ADD SWAP3 SWAP2 POP POP JUMP JUMPDEST PUSH1 0x0 PUSH2 0x4217 PUSH1 0x1B DUP4 PUSH2 0x4472 JUMP JUMPDEST PUSH32 0x4D61726B65743A20546F6F206561726C7920746F2072656465656D0000000000 DUP2 MSTORE PUSH1 0x20 ADD SWAP3 SWAP2 POP POP JUMP JUMPDEST PUSH2 0x3F99 DUP2 PUSH2 0x8DE JUMP JUMPDEST PUSH2 0x3F99 DUP2 PUSH2 0x44AE JUMP JUMPDEST PUSH1 0x0 PUSH2 0x4261 DUP3 DUP5 PUSH2 0x3FC2 JUMP JUMPDEST POP PUSH1 0x20 ADD SWAP2 SWAP1 POP JUMP JUMPDEST PUSH1 0x0 PUSH2 0x93E DUP3 DUP5 PUSH2 0x3FCE JUMP JUMPDEST PUSH1 0x0 PUSH2 0x4282 DUP3 DUP7 PUSH2 0x3FCE JUMP JUMPDEST SWAP2 POP PUSH2 0x428E DUP3 DUP6 PUSH2 0x3FB1 JUMP JUMPDEST PUSH1 0x2 DUP3 ADD SWAP2 POP PUSH2 0x429E DUP3 DUP5 PUSH2 0x3FCE JUMP JUMPDEST SWAP6 SWAP5 POP POP POP POP POP JUMP JUMPDEST PUSH1 0x20 DUP2 ADD PUSH2 0x8E4 DUP3 DUP5 PUSH2 0x3F9F JUMP JUMPDEST PUSH1 0x60 DUP2 ADD PUSH2 0x42C3 DUP3 DUP7 PUSH2 0x3F90 JUMP JUMPDEST PUSH2 0x42D0 PUSH1 0x20 DUP4 ADD DUP6 PUSH2 0x3F9F JUMP JUMPDEST PUSH2 0x2980 PUSH1 0x40 DUP4 ADD DUP5 PUSH2 0x4243 JUMP JUMPDEST PUSH1 0x40 DUP2 ADD PUSH2 0x42EB DUP3 DUP6 PUSH2 0x3F90 JUMP JUMPDEST PUSH2 0x93E PUSH1 0x20 DUP4 ADD DUP5 PUSH2 0x4243 JUMP JUMPDEST PUSH1 0x60 DUP2 ADD PUSH2 0x42C3 DUP3 DUP7 PUSH2 0x3F9F JUMP JUMPDEST PUSH1 0x40 DUP2 ADD PUSH2 0x42EB DUP3 DUP6 PUSH2 0x3F9F JUMP JUMPDEST PUSH1 0x20 DUP2 ADD PUSH2 0x8E4 DUP3 DUP5 PUSH2 0x3FA8 JUMP JUMPDEST PUSH1 0x20 DUP2 ADD PUSH2 0x8E4 DUP3 DUP5 PUSH2 0x3FFD JUMP JUMPDEST PUSH1 0x20 DUP2 ADD PUSH2 0x8E4 DUP3 DUP5 PUSH2 0x4006 JUMP JUMPDEST PUSH1 0x40 DUP2 ADD PUSH2 0x42EB DUP3 DUP6 PUSH2 0x4006 JUMP JUMPDEST PUSH1 0x20 DUP1 DUP3 MSTORE DUP2 ADD PUSH2 0x93E DUP2 DUP5 PUSH2 0x400F JUMP JUMPDEST PUSH1 0x20 DUP1 DUP3 MSTORE DUP2 ADD PUSH2 0x8E4 DUP2 PUSH2 0x4047 JUMP JUMPDEST PUSH1 0x20 DUP1 DUP3 MSTORE DUP2 ADD PUSH2 0x8E4 DUP2 PUSH2 0x4080 JUMP JUMPDEST PUSH1 0x20 DUP1 DUP3 MSTORE DUP2 ADD PUSH2 0x8E4 DUP2 PUSH2 0x40CD JUMP JUMPDEST PUSH1 0x20 DUP1 DUP3 MSTORE DUP2 ADD PUSH2 0x8E4 DUP2 PUSH2 0x4110 JUMP JUMPDEST PUSH1 0x20 DUP1 DUP3 MSTORE DUP2 ADD PUSH2 0x8E4 DUP2 PUSH2 0x416F JUMP JUMPDEST PUSH1 0x20 DUP1 DUP3 MSTORE DUP2 ADD PUSH2 0x8E4 DUP2 PUSH2 0x41BB JUMP JUMPDEST PUSH1 0x20 DUP1 DUP3 MSTORE DUP2 ADD PUSH2 0x8E4 DUP2 PUSH2 0x420A JUMP JUMPDEST PUSH1 0x20 DUP2 ADD PUSH2 0x8E4 DUP3 DUP5 PUSH2 0x4243 JUMP JUMPDEST PUSH1 0x40 DUP2 ADD PUSH2 0x42EB DUP3 DUP6 PUSH2 0x4243 JUMP JUMPDEST PUSH1 0x60 DUP2 ADD PUSH2 0x43F7 DUP3 DUP7 PUSH2 0x4243 JUMP JUMPDEST PUSH2 0x42D0 PUSH1 0x20 DUP4 ADD DUP6 PUSH2 0x4243 JUMP JUMPDEST PUSH1 0x80 DUP2 ADD PUSH2 0x4412 DUP3 DUP8 PUSH2 0x4243 JUMP JUMPDEST PUSH2 0x441F PUSH1 0x20 DUP4 ADD DUP7 PUSH2 0x4243 JUMP JUMPDEST PUSH2 0x442C PUSH1 0x40 DUP4 ADD DUP6 PUSH2 0x4243 JUMP JUMPDEST PUSH2 0x429E PUSH1 0x60 DUP4 ADD DUP5 PUSH2 0x4243 JUMP JUMPDEST PUSH1 0x20 DUP2 ADD PUSH2 0x8E4 DUP3 DUP5 PUSH2 0x424C JUMP JUMPDEST PUSH1 0x40 MLOAD DUP2 DUP2 ADD PUSH8 0xFFFFFFFFFFFFFFFF DUP2 GT DUP3 DUP3 LT OR ISZERO PUSH2 0x4466 JUMPI PUSH1 0x0 DUP1 REVERT JUMPDEST PUSH1 0x40 MSTORE SWAP2 SWAP1 POP JUMP JUMPDEST MLOAD SWAP1 JUMP JUMPDEST SWAP1 DUP2 MSTORE PUSH1 0x20 ADD SWAP1 JUMP JUMPDEST PUSH1 0x0 PUSH2 0x8E4 DUP3 PUSH2 0x44A2 JUMP JUMPDEST ISZERO ISZERO SWAP1 JUMP JUMPDEST PUSH1 0x1 PUSH1 0x1 PUSH1 0xF0 SHL SUB NOT AND SWAP1 JUMP JUMPDEST DUP1 PUSH2 0x8FD DUP2 PUSH2 0x4507 JUMP JUMPDEST PUSH1 0x1 PUSH1 0x1 PUSH1 0xA0 SHL SUB AND SWAP1 JUMP JUMPDEST PUSH1 0xFF AND SWAP1 JUMP JUMPDEST PUSH1 0x0 PUSH2 0x8E4 DUP3 JUMPDEST PUSH1 0x0 PUSH2 0x8E4 DUP3 PUSH2 0x447B JUMP JUMPDEST PUSH1 0x0 PUSH2 0x8E4 DUP3 PUSH2 0x4498 JUMP JUMPDEST PUSH1 0x0 JUMPDEST DUP4 DUP2 LT ISZERO PUSH2 0x44EC JUMPI DUP2 DUP2 ADD MLOAD DUP4 DUP3 ADD MSTORE PUSH1 0x20 ADD PUSH2 0x44D4 JUMP JUMPDEST DUP4 DUP2 GT ISZERO PUSH2 0x2955 JUMPI POP POP PUSH1 0x0 SWAP2 ADD MSTORE JUMP JUMPDEST PUSH1 0x1F ADD PUSH1 0x1F NOT AND SWAP1 JUMP JUMPDEST PUSH1 0x3 DUP2 LT PUSH2 0x2BDB JUMPI INVALID JUMPDEST PUSH2 0x451A DUP2 PUSH2 0x447B JUMP JUMPDEST DUP2 EQ PUSH2 0x2BDB JUMPI PUSH1 0x0 DUP1 REVERT JUMPDEST PUSH2 0x451A DUP2 PUSH2 0x4486 JUMP JUMPDEST PUSH1 0x3 DUP2 LT PUSH2 0x2BDB JUMPI PUSH1 0x0 DUP1 REVERT JUMPDEST PUSH2 0x451A DUP2 PUSH2 0x8DE JUMP INVALID 0x4D PUSH2 0x726B PUSH6 0x743A20496E73 PUSH22 0x6666696369656E7420636F75706F6E2062616C616E63 PUSH6 0x426F6E64696E PUSH8 0x3A20696E73756666 PUSH10 0x6369656E742073746167 PUSH6 0x642062616C61 PUSH15 0x63654D61726B65743A20496E737566 PUSH7 0x696369656E7420 PUSH4 0x6F75706F PUSH15 0x20617070726F76616C426F6E64696E PUSH8 0x3A20696E73756666 PUSH10 0x6369656E7420746F7461 PUSH13 0x20626F6E646564436F6D707472 PUSH16 0x6C6C65723A206E6F7420656E6F756768 KECCAK256 PUSH16 0x75747374616E64696E67206465627443 PUSH16 0x6D7074726F6C6C65723A206E6F742065 PUSH15 0x6F7567682072656465656D61626C65 KECCAK256 PUSH3 0x616C61 PUSH15 0x6365A365627A7A72315820D4A323E8 0xA6 PUSH5 0xE8802F2A81 PUSH18 0x6493E7CCE9E6F073D00A4A00B93526B3ECA6 ADDRESS NOT PUSH13 0x6578706572696D656E74616CF5 PUSH5 0x736F6C6343 STOP SDIV GT STOP BLOCKHASH "
		},
		"gasEstimates": {
			"creation": {
				"codeDepositCost": "3604400",
				"executionCost": "4056",
				"totalCost": "3608456"
			},
			"external": {
				"advance()": "infinite",
				"allowance(address,address)": "infinite",
				"allowanceCoupons(address,address)": "infinite",
				"approve(address,uint256)": "infinite",
				"approveCoupons(address,uint256)": "infinite",
				"approveFor(address)": "infinite",
				"balanceOf(address)": "infinite",
				"balanceOfBonded(address)": "infinite",
				"balanceOfCoupons(address,uint256)": "infinite",
				"balanceOfStaged(address)": "infinite",
				"bond(uint256)": "infinite",
				"bootstrappingAt(uint256)": "infinite",
				"commit(address)": "infinite",
				"couponPremium(uint256)": "infinite",
				"couponRedemptionPenalty(uint256,uint256)": "infinite",
				"couponsExpiration(uint256)": "infinite",
				"decimals()": "417",
				"deposit(uint256)": "infinite",
				"dollar()": "infinite",
				"emergencyCommit(address)": "infinite",
				"epoch()": "1167",
				"epochTime()": "infinite",
				"expiringCoupons(uint256)": "infinite",
				"expiringCouponsAtIndex(uint256,uint256)": "infinite",
				"fluidUntil(address)": "infinite",
				"implementation()": "infinite",
				"initialize()": "infinite",
				"isInitialized(address)": "infinite",
				"isNominated(address)": "infinite",
				"lockedUntil(address)": "infinite",
				"name()": "infinite",
				"oracle()": "infinite",
				"outstandingCoupons(uint256)": "infinite",
				"periodFor(address)": "infinite",
				"pool()": "infinite",
				"purchaseCoupons(uint256)": "infinite",
				"recordedVote(address,address)": "infinite",
				"redeemCoupons(uint256,uint256)": "infinite",
				"redeemCoupons(uint256,uint256,uint256)": "infinite",
				"rejectFor(address)": "infinite",
				"startFor(address)": "infinite",
				"statusOf(address)": "infinite",
				"symbol()": "infinite",
				"totalBonded()": "1167",
				"totalBondedAt(uint256)": "infinite",
				"totalCoupons()": "1167",
				"totalDebt()": "1209",
				"totalNet()": "infinite",
				"totalRedeemable()": "1168",
				"totalStaged()": "1188",
				"totalSupply()": "1234",
				"transfer(address,uint256)": "infinite",
				"transferCoupons(address,address,uint256,uint256)": "infinite",
				"transferFrom(address,address,uint256)": "infinite",
				"unbond(uint256)": "infinite",
				"unbondUnderlying(uint256)": "infinite",
				"vote(address,uint8)": "infinite",
				"votesFor(address)": "infinite",
				"withdraw(uint256)": "infinite"
			}
		},
		"methodIdentifiers": {
			"advance()": "ea105ac7",
			"allowance(address,address)": "dd62ed3e",
			"allowanceCoupons(address,address)": "9f6e1b26",
			"approve(address,uint256)": "095ea7b3",
			"approveCoupons(address,uint256)": "2f7f889e",
			"approveFor(address)": "64668022",
			"balanceOf(address)": "70a08231",
			"balanceOfBonded(address)": "825ad607",
			"balanceOfCoupons(address,uint256)": "bc7513e2",
			"balanceOfStaged(address)": "86cf9f14",
			"bond(uint256)": "9940686e",
			"bootstrappingAt(uint256)": "75d5024b",
			"commit(address)": "369e8c1d",
			"couponPremium(uint256)": "d8f54138",
			"couponRedemptionPenalty(uint256,uint256)": "a1eb31e8",
			"couponsExpiration(uint256)": "10e95b6c",
			"decimals()": "313ce567",
			"deposit(uint256)": "b6b55f25",
			"dollar()": "51adeb57",
			"emergencyCommit(address)": "47c05069",
			"epoch()": "900cf0cf",
			"epochTime()": "5053e461",
			"expiringCoupons(uint256)": "6a39e328",
			"expiringCouponsAtIndex(uint256,uint256)": "4c736099",
			"fluidUntil(address)": "51bf21d8",
			"implementation()": "5c60da1b",
			"initialize()": "8129fc1c",
			"isInitialized(address)": "d60b347f",
			"isNominated(address)": "3a3e6c81",
			"lockedUntil(address)": "9bc289f1",
			"name()": "06fdde03",
			"oracle()": "7dc0d1d0",
			"outstandingCoupons(uint256)": "c9aff70c",
			"periodFor(address)": "15e14bf6",
			"pool()": "16f0115b",
			"purchaseCoupons(uint256)": "e5f55c7e",
			"recordedVote(address,address)": "3fbba9a6",
			"redeemCoupons(uint256,uint256)": "d6a9cf08",
			"redeemCoupons(uint256,uint256,uint256)": "bc0b1df6",
			"rejectFor(address)": "353a420c",
			"startFor(address)": "f1b7cf49",
			"statusOf(address)": "97a5d5b5",
			"symbol()": "95d89b41",
			"totalBonded()": "44d96e95",
			"totalBondedAt(uint256)": "ffbe3b73",
			"totalCoupons()": "9a649edc",
			"totalDebt()": "fc7b9c18",
			"totalNet()": "a6c409f1",
			"totalRedeemable()": "1edbcf6c",
			"totalStaged()": "cf023779",
			"totalSupply()": "18160ddd",
			"transfer(address,uint256)": "a9059cbb",
			"transferCoupons(address,address,uint256,uint256)": "005edd37",
			"transferFrom(address,address,uint256)": "23b872dd",
			"unbond(uint256)": "27de9e32",
			"unbondUnderlying(uint256)": "df9a2b1c",
			"vote(address,uint8)": "bceb514d",
			"votesFor(address)": "a50cd8e7",
			"withdraw(uint256)": "2e1a7d4d"
		}
	},
	"abi": [
		{
			"anonymous": false,
			"inputs": [
				{
					"indexed": true,
					"internalType": "uint256",
					"name": "epoch",
					"type": "uint256"
				},
				{
					"indexed": false,
					"internalType": "uint256",
					"name": "block",
					"type": "uint256"
				},
				{
					"indexed": false,
					"internalType": "uint256",
					"name": "timestamp",
					"type": "uint256"
				}
			],
			"name": "Advance",
			"type": "event"
		},
		{
			"anonymous": false,
			"inputs": [
				{
					"indexed": true,
					"internalType": "address",
					"name": "account",
					"type": "address"
				},
				{
					"indexed": false,
					"internalType": "uint256",
					"name": "start",
					"type": "uint256"
				},
				{
					"indexed": false,
					"internalType": "uint256",
					"name": "value",
					"type": "uint256"
				},
				{
					"indexed": false,
					"internalType": "uint256",
					"name": "valueUnderlying",
					"type": "uint256"
				}
			],
			"name": "Bond",
			"type": "event"
		},
		{
			"anonymous": false,
			"inputs": [
				{
					"indexed": true,
					"internalType": "address",
					"name": "account",
					"type": "address"
				},
				{
					"indexed": true,
					"internalType": "address",
					"name": "candidate",
					"type": "address"
				}
			],
			"name": "Commit",
			"type": "event"
		},
		{
			"anonymous": false,
			"inputs": [
				{
					"indexed": true,
					"internalType": "address",
					"name": "owner",
					"type": "address"
				},
				{
					"indexed": true,
					"internalType": "address",
					"name": "spender",
					"type": "address"
				},
				{
					"indexed": false,
					"internalType": "uint256",
					"name": "value",
					"type": "uint256"
				}
			],
			"name": "CouponApproval",
			"type": "event"
		},
		{
			"anonymous": false,
			"inputs": [
				{
					"indexed": true,
					"internalType": "address",
					"name": "account",
					"type": "address"
				},
				{
					"indexed": true,
					"internalType": "uint256",
					"name": "epoch",
					"type": "uint256"
				},
				{
					"indexed": false,
					"internalType": "uint256",
					"name": "couponAmount",
					"type": "uint256"
				}
			],
			"name": "CouponBurn",
			"type": "event"
		},
		{
			"anonymous": false,
			"inputs": [
				{
					"indexed": true,
					"internalType": "uint256",
					"name": "epoch",
					"type": "uint256"
				},
				{
					"indexed": false,
					"internalType": "uint256",
					"name": "couponsExpired",
					"type": "uint256"
				},
				{
					"indexed": false,
					"internalType": "uint256",
					"name": "lessRedeemable",
					"type": "uint256"
				},
				{
					"indexed": false,
					"internalType": "uint256",
					"name": "lessDebt",
					"type": "uint256"
				},
				{
					"indexed": false,
					"internalType": "uint256",
					"name": "newBonded",
					"type": "uint256"
				}
			],
			"name": "CouponExpiration",
			"type": "event"
		},
		{
			"anonymous": false,
			"inputs": [
				{
					"indexed": true,
					"internalType": "address",
					"name": "account",
					"type": "address"
				},
				{
					"indexed": true,
					"internalType": "uint256",
					"name": "epoch",
					"type": "uint256"
				},
				{
					"indexed": false,
					"internalType": "uint256",
					"name": "dollarAmount",
					"type": "uint256"
				},
				{
					"indexed": false,
					"internalType": "uint256",
					"name": "couponAmount",
					"type": "uint256"
				}
			],
			"name": "CouponPurchase",
			"type": "event"
		},
		{
			"anonymous": false,
			"inputs": [
				{
					"indexed": true,
					"internalType": "address",
					"name": "account",
					"type": "address"
				},
				{
					"indexed": true,
					"internalType": "uint256",
					"name": "epoch",
					"type": "uint256"
				},
				{
					"indexed": false,
					"internalType": "uint256",
					"name": "couponAmount",
					"type": "uint256"
				}
			],
			"name": "CouponRedemption",
			"type": "event"
		},
		{
			"anonymous": false,
			"inputs": [
				{
					"indexed": true,
					"internalType": "address",
					"name": "from",
					"type": "address"
				},
				{
					"indexed": true,
					"internalType": "address",
					"name": "to",
					"type": "address"
				},
				{
					"indexed": true,
					"internalType": "uint256",
					"name": "epoch",
					"type": "uint256"
				},
				{
					"indexed": false,
					"internalType": "uint256",
					"name": "value",
					"type": "uint256"
				}
			],
			"name": "CouponTransfer",
			"type": "event"
		},
		{
			"anonymous": false,
			"inputs": [
				{
					"indexed": true,
					"internalType": "address",
					"name": "account",
					"type": "address"
				},
				{
					"indexed": false,
					"internalType": "uint256",
					"name": "value",
					"type": "uint256"
				}
			],
			"name": "Deposit",
			"type": "event"
		},
		{
			"anonymous": false,
			"inputs": [
				{
					"indexed": true,
					"internalType": "address",
					"name": "account",
					"type": "address"
				},
				{
					"indexed": false,
					"internalType": "uint256",
					"name": "amount",
					"type": "uint256"
				}
			],
			"name": "Incentivization",
			"type": "event"
		},
		{
			"anonymous": false,
			"inputs": [
				{
					"indexed": true,
					"internalType": "address",
					"name": "candidate",
					"type": "address"
				},
				{
					"indexed": true,
					"internalType": "address",
					"name": "account",
					"type": "address"
				},
				{
					"indexed": true,
					"internalType": "uint256",
					"name": "start",
					"type": "uint256"
				},
				{
					"indexed": false,
					"internalType": "uint256",
					"name": "period",
					"type": "uint256"
				}
			],
			"name": "Proposal",
			"type": "event"
		},
		{
			"anonymous": false,
			"inputs": [
				{
					"indexed": true,
					"internalType": "uint256",
					"name": "epoch",
					"type": "uint256"
				},
				{
					"indexed": false,
					"internalType": "uint256",
					"name": "price",
					"type": "uint256"
				},
				{
					"indexed": false,
					"internalType": "uint256",
					"name": "newDebt",
					"type": "uint256"
				}
			],
			"name": "SupplyDecrease",
			"type": "event"
		},
		{
			"anonymous": false,
			"inputs": [
				{
					"indexed": true,
					"internalType": "uint256",
					"name": "epoch",
					"type": "uint256"
				},
				{
					"indexed": false,
					"internalType": "uint256",
					"name": "price",
					"type": "uint256"
				},
				{
					"indexed": false,
					"internalType": "uint256",
					"name": "newRedeemable",
					"type": "uint256"
				},
				{
					"indexed": false,
					"internalType": "uint256",
					"name": "lessDebt",
					"type": "uint256"
				},
				{
					"indexed": false,
					"internalType": "uint256",
					"name": "newBonded",
					"type": "uint256"
				}
			],
			"name": "SupplyIncrease",
			"type": "event"
		},
		{
			"anonymous": false,
			"inputs": [
				{
					"indexed": true,
					"internalType": "uint256",
					"name": "epoch",
					"type": "uint256"
				}
			],
			"name": "SupplyNeutral",
			"type": "event"
		},
		{
			"anonymous": false,
			"inputs": [
				{
					"indexed": true,
					"internalType": "address",
					"name": "from",
					"type": "address"
				},
				{
					"indexed": true,
					"internalType": "address",
					"name": "to",
					"type": "address"
				},
				{
					"indexed": false,
					"internalType": "uint256",
					"name": "value",
					"type": "uint256"
				}
			],
			"name": "Transfer",
			"type": "event"
		},
		{
			"anonymous": false,
			"inputs": [
				{
					"indexed": true,
					"internalType": "address",
					"name": "account",
					"type": "address"
				},
				{
					"indexed": false,
					"internalType": "uint256",
					"name": "start",
					"type": "uint256"
				},
				{
					"indexed": false,
					"internalType": "uint256",
					"name": "value",
					"type": "uint256"
				},
				{
					"indexed": false,
					"internalType": "uint256",
					"name": "valueUnderlying",
					"type": "uint256"
				}
			],
			"name": "Unbond",
			"type": "event"
		},
		{
			"anonymous": false,
			"inputs": [
				{
					"indexed": true,
					"internalType": "address",
					"name": "implementation",
					"type": "address"
				}
			],
			"name": "Upgraded",
			"type": "event"
		},
		{
			"anonymous": false,
			"inputs": [
				{
					"indexed": true,
					"internalType": "address",
					"name": "account",
					"type": "address"
				},
				{
					"indexed": true,
					"internalType": "address",
					"name": "candidate",
					"type": "address"
				},
				{
					"indexed": false,
					"internalType": "enum Candidate.Vote",
					"name": "vote",
					"type": "uint8"
				},
				{
					"indexed": false,
					"internalType": "uint256",
					"name": "bonded",
					"type": "uint256"
				}
			],
			"name": "Vote",
			"type": "event"
		},
		{
			"anonymous": false,
			"inputs": [
				{
					"indexed": true,
					"internalType": "address",
					"name": "account",
					"type": "address"
				},
				{
					"indexed": false,
					"internalType": "uint256",
					"name": "value",
					"type": "uint256"
				}
			],
			"name": "Withdraw",
			"type": "event"
		},
		{
			"constant": false,
			"inputs": [],
			"name": "advance",
			"outputs": [],
			"payable": false,
			"stateMutability": "nonpayable",
			"type": "function"
		},
		{
			"constant": true,
			"inputs": [
				{
					"internalType": "address",
					"name": "owner",
					"type": "address"
				},
				{
					"internalType": "address",
					"name": "spender",
					"type": "address"
				}
			],
			"name": "allowance",
			"outputs": [
				{
					"internalType": "uint256",
					"name": "",
					"type": "uint256"
				}
			],
			"payable": false,
			"stateMutability": "view",
			"type": "function"
		},
		{
			"constant": true,
			"inputs": [
				{
					"internalType": "address",
					"name": "owner",
					"type": "address"
				},
				{
					"internalType": "address",
					"name": "spender",
					"type": "address"
				}
			],
			"name": "allowanceCoupons",
			"outputs": [
				{
					"internalType": "uint256",
					"name": "",
					"type": "uint256"
				}
			],
			"payable": false,
			"stateMutability": "view",
			"type": "function"
		},
		{
			"constant": false,
			"inputs": [
				{
					"internalType": "address",
					"name": "spender",
					"type": "address"
				},
				{
					"internalType": "uint256",
					"name": "amount",
					"type": "uint256"
				}
			],
			"name": "approve",
			"outputs": [
				{
					"internalType": "bool",
					"name": "",
					"type": "bool"
				}
			],
			"payable": false,
			"stateMutability": "nonpayable",
			"type": "function"
		},
		{
			"constant": false,
			"inputs": [
				{
					"internalType": "address",
					"name": "spender",
					"type": "address"
				},
				{
					"internalType": "uint256",
					"name": "amount",
					"type": "uint256"
				}
			],
			"name": "approveCoupons",
			"outputs": [],
			"payable": false,
			"stateMutability": "nonpayable",
			"type": "function"
		},
		{
			"constant": true,
			"inputs": [
				{
					"internalType": "address",
					"name": "candidate",
					"type": "address"
				}
			],
			"name": "approveFor",
			"outputs": [
				{
					"internalType": "uint256",
					"name": "",
					"type": "uint256"
				}
			],
			"payable": false,
			"stateMutability": "view",
			"type": "function"
		},
		{
			"constant": true,
			"inputs": [
				{
					"internalType": "address",
					"name": "account",
					"type": "address"
				}
			],
			"name": "balanceOf",
			"outputs": [
				{
					"internalType": "uint256",
					"name": "",
					"type": "uint256"
				}
			],
			"payable": false,
			"stateMutability": "view",
			"type": "function"
		},
		{
			"constant": true,
			"inputs": [
				{
					"internalType": "address",
					"name": "account",
					"type": "address"
				}
			],
			"name": "balanceOfBonded",
			"outputs": [
				{
					"internalType": "uint256",
					"name": "",
					"type": "uint256"
				}
			],
			"payable": false,
			"stateMutability": "view",
			"type": "function"
		},
		{
			"constant": true,
			"inputs": [
				{
					"internalType": "address",
					"name": "account",
					"type": "address"
				},
				{
					"internalType": "uint256",
					"name": "epoch",
					"type": "uint256"
				}
			],
			"name": "balanceOfCoupons",
			"outputs": [
				{
					"internalType": "uint256",
					"name": "",
					"type": "uint256"
				}
			],
			"payable": false,
			"stateMutability": "view",
			"type": "function"
		},
		{
			"constant": true,
			"inputs": [
				{
					"internalType": "address",
					"name": "account",
					"type": "address"
				}
			],
			"name": "balanceOfStaged",
			"outputs": [
				{
					"internalType": "uint256",
					"name": "",
					"type": "uint256"
				}
			],
			"payable": false,
			"stateMutability": "view",
			"type": "function"
		},
		{
			"constant": false,
			"inputs": [
				{
					"internalType": "uint256",
					"name": "value",
					"type": "uint256"
				}
			],
			"name": "bond",
			"outputs": [],
			"payable": false,
			"stateMutability": "nonpayable",
			"type": "function"
		},
		{
			"constant": true,
			"inputs": [
				{
					"internalType": "uint256",
					"name": "epoch",
					"type": "uint256"
				}
			],
			"name": "bootstrappingAt",
			"outputs": [
				{
					"internalType": "bool",
					"name": "",
					"type": "bool"
				}
			],
			"payable": false,
			"stateMutability": "view",
			"type": "function"
		},
		{
			"constant": false,
			"inputs": [
				{
					"internalType": "address",
					"name": "candidate",
					"type": "address"
				}
			],
			"name": "commit",
			"outputs": [],
			"payable": false,
			"stateMutability": "nonpayable",
			"type": "function"
		},
		{
			"constant": true,
			"inputs": [
				{
					"internalType": "uint256",
					"name": "amount",
					"type": "uint256"
				}
			],
			"name": "couponPremium",
			"outputs": [
				{
					"internalType": "uint256",
					"name": "",
					"type": "uint256"
				}
			],
			"payable": false,
			"stateMutability": "view",
			"type": "function"
		},
		{
			"constant": true,
			"inputs": [
				{
					"internalType": "uint256",
					"name": "couponEpoch",
					"type": "uint256"
				},
				{
					"internalType": "uint256",
					"name": "couponAmount",
					"type": "uint256"
				}
			],
			"name": "couponRedemptionPenalty",
			"outputs": [
				{
					"internalType": "uint256",
					"name": "",
					"type": "uint256"
				}
			],
			"payable": false,
			"stateMutability": "view",
			"type": "function"
		},
		{
			"constant": true,
			"inputs": [
				{
					"internalType": "uint256",
					"name": "epoch",
					"type": "uint256"
				}
			],
			"name": "couponsExpiration",
			"outputs": [
				{
					"internalType": "uint256",
					"name": "",
					"type": "uint256"
				}
			],
			"payable": false,
			"stateMutability": "view",
			"type": "function"
		},
		{
			"constant": true,
			"inputs": [],
			"name": "decimals",
			"outputs": [
				{
					"internalType": "uint8",
					"name": "",
					"type": "uint8"
				}
			],
			"payable": false,
			"stateMutability": "view",
			"type": "function"
		},
		{
			"constant": false,
			"inputs": [
				{
					"internalType": "uint256",
					"name": "value",
					"type": "uint256"
				}
			],
			"name": "deposit",
			"outputs": [],
			"payable": false,
			"stateMutability": "nonpayable",
			"type": "function"
		},
		{
			"constant": true,
			"inputs": [],
			"name": "dollar",
			"outputs": [
				{
					"internalType": "contract IDollar",
					"name": "",
					"type": "address"
				}
			],
			"payable": false,
			"stateMutability": "view",
			"type": "function"
		},
		{
			"constant": false,
			"inputs": [
				{
					"internalType": "address",
					"name": "candidate",
					"type": "address"
				}
			],
			"name": "emergencyCommit",
			"outputs": [],
			"payable": false,
			"stateMutability": "nonpayable",
			"type": "function"
		},
		{
			"constant": true,
			"inputs": [],
			"name": "epoch",
			"outputs": [
				{
					"internalType": "uint256",
					"name": "",
					"type": "uint256"
				}
			],
			"payable": false,
			"stateMutability": "view",
			"type": "function"
		},
		{
			"constant": true,
			"inputs": [],
			"name": "epochTime",
			"outputs": [
				{
					"internalType": "uint256",
					"name": "",
					"type": "uint256"
				}
			],
			"payable": false,
			"stateMutability": "view",
			"type": "function"
		},
		{
			"constant": true,
			"inputs": [
				{
					"internalType": "uint256",
					"name": "epoch",
					"type": "uint256"
				}
			],
			"name": "expiringCoupons",
			"outputs": [
				{
					"internalType": "uint256",
					"name": "",
					"type": "uint256"
				}
			],
			"payable": false,
			"stateMutability": "view",
			"type": "function"
		},
		{
			"constant": true,
			"inputs": [
				{
					"internalType": "uint256",
					"name": "epoch",
					"type": "uint256"
				},
				{
					"internalType": "uint256",
					"name": "i",
					"type": "uint256"
				}
			],
			"name": "expiringCouponsAtIndex",
			"outputs": [
				{
					"internalType": "uint256",
					"name": "",
					"type": "uint256"
				}
			],
			"payable": false,
			"stateMutability": "view",
			"type": "function"
		},
		{
			"constant": true,
			"inputs": [
				{
					"internalType": "address",
					"name": "account",
					"type": "address"
				}
			],
			"name": "fluidUntil",
			"outputs": [
				{
					"internalType": "uint256",
					"name": "",
					"type": "uint256"
				}
			],
			"payable": false,
			"stateMutability": "view",
			"type": "function"
		},
		{
			"constant": true,
			"inputs": [],
			"name": "implementation",
			"outputs": [
				{
					"internalType": "address",
					"name": "impl",
					"type": "address"
				}
			],
			"payable": false,
			"stateMutability": "view",
			"type": "function"
		},
		{
			"constant": false,
			"inputs": [],
			"name": "initialize",
			"outputs": [],
			"payable": false,
			"stateMutability": "nonpayable",
			"type": "function"
		},
		{
			"constant": true,
			"inputs": [
				{
					"internalType": "address",
					"name": "candidate",
					"type": "address"
				}
			],
			"name": "isInitialized",
			"outputs": [
				{
					"internalType": "bool",
					"name": "",
					"type": "bool"
				}
			],
			"payable": false,
			"stateMutability": "view",
			"type": "function"
		},
		{
			"constant": true,
			"inputs": [
				{
					"internalType": "address",
					"name": "candidate",
					"type": "address"
				}
			],
			"name": "isNominated",
			"outputs": [
				{
					"internalType": "bool",
					"name": "",
					"type": "bool"
				}
			],
			"payable": false,
			"stateMutability": "view",
			"type": "function"
		},
		{
			"constant": true,
			"inputs": [
				{
					"internalType": "address",
					"name": "account",
					"type": "address"
				}
			],
			"name": "lockedUntil",
			"outputs": [
				{
					"internalType": "uint256",
					"name": "",
					"type": "uint256"
				}
			],
			"payable": false,
			"stateMutability": "view",
			"type": "function"
		},
		{
			"constant": true,
			"inputs": [],
			"name": "name",
			"outputs": [
				{
					"internalType": "string",
					"name": "",
					"type": "string"
				}
			],
			"payable": false,
			"stateMutability": "view",
			"type": "function"
		},
		{
			"constant": true,
			"inputs": [],
			"name": "oracle",
			"outputs": [
				{
					"internalType": "contract IOracle",
					"name": "",
					"type": "address"
				}
			],
			"payable": false,
			"stateMutability": "view",
			"type": "function"
		},
		{
			"constant": true,
			"inputs": [
				{
					"internalType": "uint256",
					"name": "epoch",
					"type": "uint256"
				}
			],
			"name": "outstandingCoupons",
			"outputs": [
				{
					"internalType": "uint256",
					"name": "",
					"type": "uint256"
				}
			],
			"payable": false,
			"stateMutability": "view",
			"type": "function"
		},
		{
			"constant": true,
			"inputs": [
				{
					"internalType": "address",
					"name": "candidate",
					"type": "address"
				}
			],
			"name": "periodFor",
			"outputs": [
				{
					"internalType": "uint256",
					"name": "",
					"type": "uint256"
				}
			],
			"payable": false,
			"stateMutability": "view",
			"type": "function"
		},
		{
			"constant": true,
			"inputs": [],
			"name": "pool",
			"outputs": [
				{
					"internalType": "address",
					"name": "",
					"type": "address"
				}
			],
			"payable": false,
			"stateMutability": "view",
			"type": "function"
		},
		{
			"constant": false,
			"inputs": [
				{
					"internalType": "uint256",
					"name": "dollarAmount",
					"type": "uint256"
				}
			],
			"name": "purchaseCoupons",
			"outputs": [
				{
					"internalType": "uint256",
					"name": "",
					"type": "uint256"
				}
			],
			"payable": false,
			"stateMutability": "nonpayable",
			"type": "function"
		},
		{
			"constant": true,
			"inputs": [
				{
					"internalType": "address",
					"name": "account",
					"type": "address"
				},
				{
					"internalType": "address",
					"name": "candidate",
					"type": "address"
				}
			],
			"name": "recordedVote",
			"outputs": [
				{
					"internalType": "enum Candidate.Vote",
					"name": "",
					"type": "uint8"
				}
			],
			"payable": false,
			"stateMutability": "view",
			"type": "function"
		},
		{
			"constant": false,
			"inputs": [
				{
					"internalType": "uint256",
					"name": "couponEpoch",
					"type": "uint256"
				},
				{
					"internalType": "uint256",
					"name": "couponAmount",
					"type": "uint256"
				},
				{
					"internalType": "uint256",
					"name": "minOutput",
					"type": "uint256"
				}
			],
			"name": "redeemCoupons",
			"outputs": [],
			"payable": false,
			"stateMutability": "nonpayable",
			"type": "function"
		},
		{
			"constant": false,
			"inputs": [
				{
					"internalType": "uint256",
					"name": "couponEpoch",
					"type": "uint256"
				},
				{
					"internalType": "uint256",
					"name": "couponAmount",
					"type": "uint256"
				}
			],
			"name": "redeemCoupons",
			"outputs": [],
			"payable": false,
			"stateMutability": "nonpayable",
			"type": "function"
		},
		{
			"constant": true,
			"inputs": [
				{
					"internalType": "address",
					"name": "candidate",
					"type": "address"
				}
			],
			"name": "rejectFor",
			"outputs": [
				{
					"internalType": "uint256",
					"name": "",
					"type": "uint256"
				}
			],
			"payable": false,
			"stateMutability": "view",
			"type": "function"
		},
		{
			"constant": true,
			"inputs": [
				{
					"internalType": "address",
					"name": "candidate",
					"type": "address"
				}
			],
			"name": "startFor",
			"outputs": [
				{
					"internalType": "uint256",
					"name": "",
					"type": "uint256"
				}
			],
			"payable": false,
			"stateMutability": "view",
			"type": "function"
		},
		{
			"constant": true,
			"inputs": [
				{
					"internalType": "address",
					"name": "account",
					"type": "address"
				}
			],
			"name": "statusOf",
			"outputs": [
				{
					"internalType": "enum Account.Status",
					"name": "",
					"type": "uint8"
				}
			],
			"payable": false,
			"stateMutability": "view",
			"type": "function"
		},
		{
			"constant": true,
			"inputs": [],
			"name": "symbol",
			"outputs": [
				{
					"internalType": "string",
					"name": "",
					"type": "string"
				}
			],
			"payable": false,
			"stateMutability": "view",
			"type": "function"
		},
		{
			"constant": true,
			"inputs": [],
			"name": "totalBonded",
			"outputs": [
				{
					"internalType": "uint256",
					"name": "",
					"type": "uint256"
				}
			],
			"payable": false,
			"stateMutability": "view",
			"type": "function"
		},
		{
			"constant": true,
			"inputs": [
				{
					"internalType": "uint256",
					"name": "epoch",
					"type": "uint256"
				}
			],
			"name": "totalBondedAt",
			"outputs": [
				{
					"internalType": "uint256",
					"name": "",
					"type": "uint256"
				}
			],
			"payable": false,
			"stateMutability": "view",
			"type": "function"
		},
		{
			"constant": true,
			"inputs": [],
			"name": "totalCoupons",
			"outputs": [
				{
					"internalType": "uint256",
					"name": "",
					"type": "uint256"
				}
			],
			"payable": false,
			"stateMutability": "view",
			"type": "function"
		},
		{
			"constant": true,
			"inputs": [],
			"name": "totalDebt",
			"outputs": [
				{
					"internalType": "uint256",
					"name": "",
					"type": "uint256"
				}
			],
			"payable": false,
			"stateMutability": "view",
			"type": "function"
		},
		{
			"constant": true,
			"inputs": [],
			"name": "totalNet",
			"outputs": [
				{
					"internalType": "uint256",
					"name": "",
					"type": "uint256"
				}
			],
			"payable": false,
			"stateMutability": "view",
			"type": "function"
		},
		{
			"constant": true,
			"inputs": [],
			"name": "totalRedeemable",
			"outputs": [
				{
					"internalType": "uint256",
					"name": "",
					"type": "uint256"
				}
			],
			"payable": false,
			"stateMutability": "view",
			"type": "function"
		},
		{
			"constant": true,
			"inputs": [],
			"name": "totalStaged",
			"outputs": [
				{
					"internalType": "uint256",
					"name": "",
					"type": "uint256"
				}
			],
			"payable": false,
			"stateMutability": "view",
			"type": "function"
		},
		{
			"constant": true,
			"inputs": [],
			"name": "totalSupply",
			"outputs": [
				{
					"internalType": "uint256",
					"name": "",
					"type": "uint256"
				}
			],
			"payable": false,
			"stateMutability": "view",
			"type": "function"
		},
		{
			"constant": false,
			"inputs": [
				{
					"internalType": "address",
					"name": "recipient",
					"type": "address"
				},
				{
					"internalType": "uint256",
					"name": "amount",
					"type": "uint256"
				}
			],
			"name": "transfer",
			"outputs": [
				{
					"internalType": "bool",
					"name": "",
					"type": "bool"
				}
			],
			"payable": false,
			"stateMutability": "nonpayable",
			"type": "function"
		},
		{
			"constant": false,
			"inputs": [
				{
					"internalType": "address",
					"name": "sender",
					"type": "address"
				},
				{
					"internalType": "address",
					"name": "recipient",
					"type": "address"
				},
				{
					"internalType": "uint256",
					"name": "epoch",
					"type": "uint256"
				},
				{
					"internalType": "uint256",
					"name": "amount",
					"type": "uint256"
				}
			],
			"name": "transferCoupons",
			"outputs": [],
			"payable": false,
			"stateMutability": "nonpayable",
			"type": "function"
		},
		{
			"constant": false,
			"inputs": [
				{
					"internalType": "address",
					"name": "sender",
					"type": "address"
				},
				{
					"internalType": "address",
					"name": "recipient",
					"type": "address"
				},
				{
					"internalType": "uint256",
					"name": "amount",
					"type": "uint256"
				}
			],
			"name": "transferFrom",
			"outputs": [
				{
					"internalType": "bool",
					"name": "",
					"type": "bool"
				}
			],
			"payable": false,
			"stateMutability": "nonpayable",
			"type": "function"
		},
		{
			"constant": false,
			"inputs": [
				{
					"internalType": "uint256",
					"name": "value",
					"type": "uint256"
				}
			],
			"name": "unbond",
			"outputs": [],
			"payable": false,
			"stateMutability": "nonpayable",
			"type": "function"
		},
		{
			"constant": false,
			"inputs": [
				{
					"internalType": "uint256",
					"name": "value",
					"type": "uint256"
				}
			],
			"name": "unbondUnderlying",
			"outputs": [],
			"payable": false,
			"stateMutability": "nonpayable",
			"type": "function"
		},
		{
			"constant": false,
			"inputs": [
				{
					"internalType": "address",
					"name": "candidate",
					"type": "address"
				},
				{
					"internalType": "enum Candidate.Vote",
					"name": "vote",
					"type": "uint8"
				}
			],
			"name": "vote",
			"outputs": [],
			"payable": false,
			"stateMutability": "nonpayable",
			"type": "function"
		},
		{
			"constant": true,
			"inputs": [
				{
					"internalType": "address",
					"name": "candidate",
					"type": "address"
				}
			],
			"name": "votesFor",
			"outputs": [
				{
					"internalType": "uint256",
					"name": "",
					"type": "uint256"
				}
			],
			"payable": false,
			"stateMutability": "view",
			"type": "function"
		},
		{
			"constant": false,
			"inputs": [
				{
					"internalType": "uint256",
					"name": "value",
					"type": "uint256"
				}
			],
			"name": "withdraw",
			"outputs": [],
			"payable": false,
			"stateMutability": "nonpayable",
			"type": "function"
		}
	]
}