{
	"data": {
		"bytecode": {
			"linkReferences": {},
			"object": "608060405234801561001057600080fd5b50612504806100206000396000f3fe608060405234801561001057600080fd5b50600436106102ba5760003560e01c80637dc0d1d011610182578063a9059cbb116100e9578063d6a9cf08116100a2578063e5f55c7e1161007c578063e5f55c7e146105bf578063f1b7cf49146105d2578063fc7b9c18146105e5578063ffbe3b73146105ed576102ba565b8063d6a9cf081461058b578063d8f541381461059e578063dd62ed3e146105b1576102ba565b8063a9059cbb146102f2578063bc0b1df614610537578063bc7513e21461054a578063c9aff70c1461055d578063cf02377914610570578063d60b347f14610578576102ba565b80639a649edc1161013b5780639a649edc146104db5780639bc289f1146104e35780639f6e1b26146104f6578063a1eb31e814610509578063a50cd8e71461051c578063a6c409f11461052f576102ba565b80637dc0d1d01461048a578063825ad6071461049257806386cf9f14146104a5578063900cf0cf146104b857806395d89b41146104c057806397a5d5b5146104c8576102ba565b80633a3e6c811161022657806351bf21d8116101df57806351bf21d8146104235780635c60da1b14610436578063646680221461043e5780636a39e3281461045157806370a082311461046457806375d5024b14610477576102ba565b80633a3e6c81146103b85780633fbba9a6146103cb57806344d96e95146103eb5780634c736099146103f35780635053e4611461040657806351adeb571461040e576102ba565b806318160ddd1161027857806318160ddd1461035a5780631edbcf6c1461036257806323b872dd1461036a5780632f7f889e1461037d578063313ce56714610390578063353a420c146103a5576102ba565b80625edd37146102bf57806306fdde03146102d4578063095ea7b3146102f257806310e95b6c1461031257806315e14bf61461033257806316f0115b14610345575b600080fd5b6102d26102cd366004611e67565b610600565b005b6102dc610723565b6040516102e991906122c1565b60405180910390f35b610305610300366004611ec8565b61075a565b6040516102e99190612297565b610325610320366004611f16565b610763565b6040516102e99190612332565b610325610340366004611dc2565b61077b565b61034d610799565b6040516102e99190612246565b6103256107a8565b6103256107ae565b610305610378366004611e1a565b6107b4565b6102d261038b366004611ec8565b6107be565b61039861083e565b6040516102e9919061234e565b6103256103b3366004611dc2565b610843565b6103056103c6366004611dc2565b610861565b6103de6103d9366004611de0565b61087e565b6040516102e991906122b3565b6103256108b1565b610325610401366004611f52565b6108b7565b6103256108e7565b61041661090a565b6040516102e991906122a5565b610325610431366004611dc2565b610919565b61034d610937565b61032561044c366004611dc2565b61095c565b61032561045f366004611f16565b61097a565b610325610472366004611dc2565b61098f565b610305610485366004611f16565b6109ad565b6104166109c0565b6103256104a0366004611dc2565b6109cf565b6103256104b3366004611dc2565b610a1b565b610325610a36565b6102dc610a3c565b6103de6104d6366004611dc2565b610a5b565b610325610ac0565b6103256104f1366004611dc2565b610ac6565b610325610504366004611de0565b610ae4565b610325610517366004611f52565b610b13565b61032561052a366004611dc2565b610c39565b610325610c5c565b6102d2610545366004611f71565b610cf2565b610325610558366004611ec8565b610e26565b61032561056b366004611f16565b610e6a565b610325610e7f565b610305610586366004611dc2565b610e85565b6102d2610599366004611f52565b610ea6565b6103256105ac366004611f16565b610fa2565b610325610300366004611de0565b6103256105cd366004611f16565b61102d565b6103256105e0366004611dc2565b61111f565b61032561113a565b6103256105fb366004611f16565b611140565b6001600160a01b03841661062f5760405162461bcd60e51b815260040161062690612312565b60405180910390fd5b6001600160a01b0383166106555760405162461bcd60e51b8152600401610626906122e2565b61067984838360405180606001604052806023815260200161242960239139611152565b6106848383836111fd565b336001600160a01b038516148015906106a857506000196106a58533610ae4565b14155b156106d1576106d184338360405180606001604052806024815260200161244c602491396112a4565b81836001600160a01b0316856001600160a01b03167f0f1dbb1ccbe57a1590c7baad7b01d581b730c9ebc535dcde4345e6db424063d8846040516107159190612332565b60405180910390a450505050565b60408051808201909152601e81527f42696e616e6365204167696c652053657420446f6c6c6172205374616b650000602082015290565b60005b92915050565b6000818152600d60205260409020600201545b919050565b6001600160a01b03166000908152600e602052604090206001015490565b600b546001600160a01b031690565b60035490565b60065490565b60005b9392505050565b6001600160a01b0382166107e45760405162461bcd60e51b815260040161062690612302565b6107ef338383611315565b816001600160a01b0316336001600160a01b03167f8ff27e6b95060c1ca851e7c2c28af8b413eb1a8bcb637b0290da9543a709cce3836040516108329190612332565b60405180910390a35050565b601290565b6001600160a01b03166000908152600e602052604090206003015490565b6001600160a01b03166000908152600e6020526040902054151590565b6001600160a01b038082166000908152600e60209081526040808320938616835260049093019052205460ff1692915050565b60045490565b6000828152600d602052604081206003018054839081106108d457fe5b9060005260206000200154905092915050565b60006108f1611d62565b6108f9611345565b905061090481611374565b91505090565b6009546001600160a01b031690565b6001600160a01b03166000908152600c602052604090206004015490565b7f360894a13ba1a3210667c828492db98dca3e2076cc3735a920a3ca505d382bbc5490565b6001600160a01b03166000908152600e602052604090206002015490565b6000908152600d602052604090206003015490565b6001600160a01b03166000908152600c602052604090206001015490565b60006109b7611396565b90911115919050565b600a546001600160a01b031690565b6000806109da6107a8565b9050806109eb576000915050610776565b6107b781610a0f6109fb8661098f565b610a036108b1565b9063ffffffff61139b16565b9063ffffffff6113d516565b6001600160a01b03166000908152600c602052604090205490565b60025490565b604080518082019091526005815264424153445360d81b602082015290565b6000610a65610a36565b6001600160a01b0383166000908152600c60205260409020600501541115610a8f57506002610776565b6001600160a01b0382166000908152600c6020526040902060040154610ab3610a36565b101561075a57600161075d565b60085490565b6001600160a01b03166000908152600c602052604090206005015490565b6001600160a01b039182166000908152600c602090815260408083209390941682526003909201909152205490565b600080610b1e611345565b604001514281610b2a57fe5b069050600084610b38610a36565b0390506000610b45611417565b82610b4e611417565b03610b5761141d565b0281610b5f57fe5b04905080831115610b76576000935050505061075d565b610b7e611d83565b610bd1604051806020016040528085610b95611417565b03815250610bc56040518060200160405280610baf611417565b9052610bb9611423565b9063ffffffff61144516565b9063ffffffff61147c16565b9050610bdb611d83565b604080516020808201835287860382528251908101909252848252610c0b91610bc590859063ffffffff61144516565b6040805160208101909152888152909150610c2c908263ffffffff61147c16565b5198975050505050505050565b600061075d610c4783610843565b610c508461095c565b9063ffffffff6114aa16565b6000610ced610c6961113a565b610c7161090a565b6001600160a01b03166318160ddd6040518163ffffffff1660e01b815260040160206040518083038186803b158015610ca957600080fd5b505afa158015610cbd573d6000803e3d6000fd5b505050506040513d601f19601f82011682018060405250610ce19190810190611f34565b9063ffffffff6114cf16565b905090565b6002610d0084610ce1610a36565b1015610d1e5760405162461bcd60e51b815260040161062690612322565b610d4233848460405180606001604052806023815260200161242960239139611152565b6000610d4e8484610b13565b9050808303610d8a838210156513585c9ad95d60d21b7f496e73756666696369656e74206f757470757420616d6f756e74000000000000611511565b610d94338261156b565b8115610ddd5784336001600160a01b03167f1cd1213d4276c260e84170b4a39025dc8398fbf744edee0709261769b456b94b84604051610dd49190612332565b60405180910390a35b84336001600160a01b03167f46e9903ae8ac9e9f0c9bc321b05965c1c036e7d4783758703f5cdfc4133c51b683604051610e179190612332565b60405180910390a35050505050565b6000610e3182610e6a565b610e3d5750600061075d565b506001600160a01b03919091166000908152600c6020908152604080832093835260029093019052205490565b6000908152600d602052604090206001015490565b60055490565b6001600160a01b03166000908152600e602052604090206005015460ff1690565b6002610eb483610ce1610a36565b1015610ed25760405162461bcd60e51b815260040161062690612322565b610ef633838360405180606001604052806023815260200161242960239139611152565b6000610f028383610b13565b9050808203610f11338261156b565b8115610f5a5783336001600160a01b03167f1cd1213d4276c260e84170b4a39025dc8398fbf744edee0709261769b456b94b84604051610f519190612332565b60405180910390a35b83336001600160a01b03167f46e9903ae8ac9e9f0c9bc321b05965c1c036e7d4783758703f5cdfc4133c51b683604051610f949190612332565b60405180910390a350505050565b600061075d610faf61090a565b6001600160a01b03166318160ddd6040518163ffffffff1660e01b815260040160206040518083038186803b158015610fe757600080fd5b505afa158015610ffb573d6000803e3d6000fd5b505050506040513d601f19601f8201168201806040525061101f9190810190611f34565b61102761113a565b84611621565b6000611066600083116513585c9ad95d60d21b7f4d757374207075726368617365206e6f6e2d7a65726f20616d6f756e74000000611511565b6110968261107261113a565b10156513585c9ad95d60d21b6e139bdd08195b9bdd59da081919589d608a1b611511565b60006110a0610a36565b905060006110bd6110b085610fa2565b859063ffffffff6114aa16565b90506110c9338561164e565b6110d43383836111fd565b81336001600160a01b03167fbce252db29f761f815dc2e9ea60005af065efba6eb619d2a0b2a113fdeb614148684604051611110929190612340565b60405180910390a39392505050565b6001600160a01b03166000908152600e602052604090205490565b60075490565b6000908152600d602052604090205490565b6001600160a01b0384166000908152600c6020908152604080832086845260020190915290205461118a90838363ffffffff61175f16565b6001600160a01b0385166000908152600c60209081526040808320878452600201825280832093909355600d905220600101546111ce90838363ffffffff61175f16565b6000848152600d60205260409020600101556008546111f490838363ffffffff61175f16565b60085550505050565b6001600160a01b0383166000908152600c60209081526040808320858452600201909152902054611234908263ffffffff6114aa16565b6001600160a01b0384166000908152600c60209081526040808320868452600201825280832093909355600d90522060010154611277908263ffffffff6114aa16565b6000838152600d602052604090206001015560085461129c908263ffffffff6114aa16565b600855505050565b6001600160a01b038085166000908152600c6020908152604080832093871683526003909301905220546112df90838363ffffffff61175f16565b6001600160a01b039485166000908152600c60209081526040808320969097168252600390950190945293909220929092555050565b6001600160a01b039283166000908152600c60209081526040808320949095168252600390930190925291902055565b61134d611d62565b604051806060016040528060008152602001635fbef0008152602001611c20815250905090565b600061075d8260000151610c508460400151610a0f8660200151610ce161178b565b609690565b6000826113aa5750600061075d565b828202828482816113b757fe5b04146107b75760405162461bcd60e51b8152600401610626906122f2565b60006107b783836040518060400160405280601a81526020017f536166654d6174683a206469766973696f6e206279207a65726f00000000000081525061178f565b61016890565b610e1090565b61142b611d83565b5060408051602081019091526706f05b59d3b20000815290565b61144d611d83565b60405180602001604052806114738560000151670de0b6b3a764000086600001516117c6565b90529392505050565b611484611d83565b604051806020016040528061147385600001518560000151670de0b6b3a76400006117c6565b6000828201838110156107b75760405162461bcd60e51b8152600401610626906122d2565b60006107b783836040518060400160405280601e81526020017f536166654d6174683a207375627472616374696f6e206f766572666c6f77000081525061175f565b826115665761151f826117dc565b6101d160f51b61152e836117dc565b60405160200161154093929190612215565b60408051601f198184030181529082905262461bcd60e51b8252610626916004016122c1565b505050565b61157361090a565b6001600160a01b031663a9059cbb83836040518363ffffffff1660e01b81526004016115a092919061227c565b602060405180830381600087803b1580156115ba57600080fd5b505af11580156115ce573d6000803e3d6000fd5b505050506040513d601f19601f820116820180604052506115f29190810190611ef8565b50611615816040518060600160405280602a8152602001612498602a913961185c565b61161d611877565b5050565b60006116466116418361163587878761194c565b9063ffffffff611ab916565b611ae0565b949350505050565b61165661090a565b6001600160a01b03166323b872dd8330846040518463ffffffff1660e01b815260040161168593929190612254565b602060405180830381600087803b15801561169f57600080fd5b505af11580156116b3573d6000803e3d6000fd5b505050506040513d601f19601f820116820180604052506116d79190810190611ef8565b506116e061090a565b6001600160a01b03166342966c68826040518263ffffffff1660e01b815260040161170b9190612332565b600060405180830381600087803b15801561172557600080fd5b505af1158015611739573d6000803e3d6000fd5b505050506116158160405180606001604052806028815260200161247060289139611afd565b600081848411156117835760405162461bcd60e51b815260040161062691906122c1565b505050900390565b4290565b600081836117b05760405162461bcd60e51b815260040161062691906122c1565b5060008385816117bc57fe5b0495945050505050565b600061164682610a0f868663ffffffff61139b16565b606080826040516020016117f09190612200565b60408051601f19818403018152919052905060205b80156118455781516000199091019082908290811061182057fe5b01602001516001600160f81b031916156118405760010181529050610776565b611805565b505060408051600081526020810190915292915050565b60065461187090838363ffffffff61175f16565b6006555050565b61194a6118986118856107ae565b610c50611890610e7f565b610c506108b1565b6118a061090a565b6001600160a01b03166370a08231306040518263ffffffff1660e01b81526004016118cb9190612246565b60206040518083038186803b1580156118e357600080fd5b505afa1580156118f7573d6000803e3d6000fd5b505050506040513d601f19601f8201168201806040525061191b9190810190611f34565b10156a21b7b6b83a3937b63632b960a91b74496e636f6e73697374656e742062616c616e63657360581b611511565b565b611954611d83565b61195c611d83565b6119668486611b18565b9050611970611d83565b611978611b3e565b9050600061198c878663ffffffff6114cf16565b905060006119a0878763ffffffff6114cf16565b90506119aa611d83565b6119b48284611b18565b90506119c6858563ffffffff611b6016565b15611aa2576119db818563ffffffff611b6016565b156119f5576119e984611b76565b955050505050506107b7565b6119fd611d83565b611a078286611bce565b9050611a11611d83565b611a21868463ffffffff611c2b16565b9050611a2b611d83565b611a3487611b76565b9050611a3e611d83565b611a4e898963ffffffff611c2b16565b9050611a92611a63848363ffffffff611c5416565b610bb9611a76858563ffffffff61147c16565b611a86888863ffffffff61147c16565b9063ffffffff611c5416565b99505050505050505050506107b7565b611aac8186611bce565b9998505050505050505050565b611ac1611d83565b604080516020810190915283518190611473908563ffffffff61139b16565b805160009061075d90670de0b6b3a764000063ffffffff6113d516565b600754611b1190838363ffffffff61175f16565b6007555050565b611b20611d83565b604051806020016040528061147385670de0b6b3a7640000866117c6565b611b46611d83565b5060408051602081019091526704db732547630000815290565b6000611b6c8383611c7d565b6002149392505050565b611b7e611d83565b61075d611b8d60016003611b18565b611ba4611bc6611bbc6002611bb088611ba4611caf565b9063ffffffff611c2b16565b9063ffffffff611cd116565b610bc56003611d27565b610bb9611caf565b611bd6611d83565b611be6838363ffffffff611d5b16565b15611bfb57611bf483611b76565b905061075d565b6107b7611c0a60016003611b18565b611ba4611bc6611c1c87611ba4611caf565b610bc5611bbc88611ba4611caf565b611c33611d83565b6040805160208101909152825184518291611473919063ffffffff6114cf16565b611c5c611d83565b6040805160208101909152825184518291611473919063ffffffff6114aa16565b805182516000911415611c925750600161075d565b8151835111611ca2576000611ca5565b60025b60ff169392505050565b611cb7611d83565b506040805160208101909152670de0b6b3a7640000815290565b611cd9611d83565b81611ce857611bf46001611d27565b611cf0611d83565b5060408051602081019091528351815260015b83811015611d1f57611d15828661147c565b9150600101611d03565b509392505050565b611d2f611d83565b604080516020810190915280611d5384670de0b6b3a764000063ffffffff61139b16565b905292915050565b5190511490565b60405180606001604052806000815260200160008152602001600081525090565b6040518060200160405280600081525090565b803561075d81612402565b805161075d81612416565b803561075d8161241f565b805161075d8161241f565b600060208284031215611dd457600080fd5b60006116468484611d96565b60008060408385031215611df357600080fd5b6000611dff8585611d96565b9250506020611e1085828601611d96565b9150509250929050565b600080600060608486031215611e2f57600080fd5b6000611e3b8686611d96565b9350506020611e4c86828701611d96565b9250506040611e5d86828701611dac565b9150509250925092565b60008060008060808587031215611e7d57600080fd5b6000611e898787611d96565b9450506020611e9a87828801611d96565b9350506040611eab87828801611dac565b9250506060611ebc87828801611dac565b91505092959194509250565b60008060408385031215611edb57600080fd5b6000611ee78585611d96565b9250506020611e1085828601611dac565b600060208284031215611f0a57600080fd5b60006116468484611da1565b600060208284031215611f2857600080fd5b60006116468484611dac565b600060208284031215611f4657600080fd5b60006116468484611db7565b60008060408385031215611f6557600080fd5b6000611ee78585611dac565b600080600060608486031215611f8657600080fd5b6000611f928686611dac565b9350506020611e4c86828701611dac565b611fac81612369565b82525050565b611fac81612374565b611fac611fc782612379565b612386565b611fac611fc782612386565b6000611fe38261235c565b611fed8185610776565b9350611ffd8185602086016123bb565b9290920192915050565b611fac816123a5565b611fac816123b0565b60006120248261235c565b61202e8185612360565b935061203e8185602086016123bb565b612047816123eb565b9093019392505050565b600061205e601b83612360565b7f536166654d6174683a206164646974696f6e206f766572666c6f770000000000815260200192915050565b6000612097602b83612360565b7f4d61726b65743a20436f75706f6e207472616e7366657220746f20746865207a81526a65726f206164647265737360a81b602082015260400192915050565b60006120e4602183612360565b7f536166654d6174683a206d756c7469706c69636174696f6e206f766572666c6f8152607760f81b602082015260400192915050565b6000612127602a83612360565b7f4d61726b65743a20436f75706f6e20617070726f766520746f20746865207a65815269726f206164647265737360b01b602082015260400192915050565b6000612173602d83612360565b7f4d61726b65743a20436f75706f6e207472616e736665722066726f6d2074686581526c207a65726f206164647265737360981b602082015260400192915050565b60006121c2601b83612360565b7f4d61726b65743a20546f6f206561726c7920746f2072656465656d0000000000815260200192915050565b611fac81612386565b611fac8161239f565b600061220c8284611fcc565b50602001919050565b60006122218286611fd8565b915061222d8285611fbb565b60028201915061223d8284611fd8565b95945050505050565b6020810161075d8284611fa3565b606081016122628286611fa3565b61226f6020830185611fa3565b61164660408301846121ee565b6040810161228a8285611fa3565b6107b760208301846121ee565b6020810161075d8284611fb2565b6020810161075d8284612007565b6020810161075d8284612010565b602080825281016107b78184612019565b6020808252810161075d81612051565b6020808252810161075d8161208a565b6020808252810161075d816120d7565b6020808252810161075d8161211a565b6020808252810161075d81612166565b6020808252810161075d816121b5565b6020810161075d82846121ee565b6040810161228a82856121ee565b6020810161075d82846121f7565b5190565b90815260200190565b600061075d82612393565b151590565b6001600160f01b03191690565b90565b80610776816123f5565b6001600160a01b031690565b60ff1690565b600061075d82612369565b600061075d82612389565b60005b838110156123d65781810151838201526020016123be565b838111156123e5576000848401525b50505050565b601f01601f191690565b600381106123ff57fe5b50565b61240b81612369565b81146123ff57600080fd5b61240b81612374565b61240b8161238656fe4d61726b65743a20496e73756666696369656e7420636f75706f6e2062616c616e63654d61726b65743a20496e73756666696369656e7420636f75706f6e20617070726f76616c436f6d7074726f6c6c65723a206e6f7420656e6f756768206f75747374616e64696e672064656274436f6d7074726f6c6c65723a206e6f7420656e6f7567682072656465656d61626c652062616c616e6365a365627a7a72315820c1c09460241ed1b8b232dd19187c2cdad47414286809c1ff900e8a41c88449536c6578706572696d656e74616cf564736f6c63430005110040",
			"opcodes": "PUSH1 0x80 PUSH1 0x40 MSTORE CALLVALUE DUP1 ISZERO PUSH2 0x10 JUMPI PUSH1 0x0 DUP1 REVERT JUMPDEST POP PUSH2 0x2504 DUP1 PUSH2 0x20 PUSH1 0x0 CODECOPY PUSH1 0x0 RETURN INVALID PUSH1 0x80 PUSH1 0x40 MSTORE CALLVALUE DUP1 ISZERO PUSH2 0x10 JUMPI PUSH1 0x0 DUP1 REVERT JUMPDEST POP PUSH1 0x4 CALLDATASIZE LT PUSH2 0x2BA JUMPI PUSH1 0x0 CALLDATALOAD PUSH1 0xE0 SHR DUP1 PUSH4 0x7DC0D1D0 GT PUSH2 0x182 JUMPI DUP1 PUSH4 0xA9059CBB GT PUSH2 0xE9 JUMPI DUP1 PUSH4 0xD6A9CF08 GT PUSH2 0xA2 JUMPI DUP1 PUSH4 0xE5F55C7E GT PUSH2 0x7C JUMPI DUP1 PUSH4 0xE5F55C7E EQ PUSH2 0x5BF JUMPI DUP1 PUSH4 0xF1B7CF49 EQ PUSH2 0x5D2 JUMPI DUP1 PUSH4 0xFC7B9C18 EQ PUSH2 0x5E5 JUMPI DUP1 PUSH4 0xFFBE3B73 EQ PUSH2 0x5ED JUMPI PUSH2 0x2BA JUMP JUMPDEST DUP1 PUSH4 0xD6A9CF08 EQ PUSH2 0x58B JUMPI DUP1 PUSH4 0xD8F54138 EQ PUSH2 0x59E JUMPI DUP1 PUSH4 0xDD62ED3E EQ PUSH2 0x5B1 JUMPI PUSH2 0x2BA JUMP JUMPDEST DUP1 PUSH4 0xA9059CBB EQ PUSH2 0x2F2 JUMPI DUP1 PUSH4 0xBC0B1DF6 EQ PUSH2 0x537 JUMPI DUP1 PUSH4 0xBC7513E2 EQ PUSH2 0x54A JUMPI DUP1 PUSH4 0xC9AFF70C EQ PUSH2 0x55D JUMPI DUP1 PUSH4 0xCF023779 EQ PUSH2 0x570 JUMPI DUP1 PUSH4 0xD60B347F EQ PUSH2 0x578 JUMPI PUSH2 0x2BA JUMP JUMPDEST DUP1 PUSH4 0x9A649EDC GT PUSH2 0x13B JUMPI DUP1 PUSH4 0x9A649EDC EQ PUSH2 0x4DB JUMPI DUP1 PUSH4 0x9BC289F1 EQ PUSH2 0x4E3 JUMPI DUP1 PUSH4 0x9F6E1B26 EQ PUSH2 0x4F6 JUMPI DUP1 PUSH4 0xA1EB31E8 EQ PUSH2 0x509 JUMPI DUP1 PUSH4 0xA50CD8E7 EQ PUSH2 0x51C JUMPI DUP1 PUSH4 0xA6C409F1 EQ PUSH2 0x52F JUMPI PUSH2 0x2BA JUMP JUMPDEST DUP1 PUSH4 0x7DC0D1D0 EQ PUSH2 0x48A JUMPI DUP1 PUSH4 0x825AD607 EQ PUSH2 0x492 JUMPI DUP1 PUSH4 0x86CF9F14 EQ PUSH2 0x4A5 JUMPI DUP1 PUSH4 0x900CF0CF EQ PUSH2 0x4B8 JUMPI DUP1 PUSH4 0x95D89B41 EQ PUSH2 0x4C0 JUMPI DUP1 PUSH4 0x97A5D5B5 EQ PUSH2 0x4C8 JUMPI PUSH2 0x2BA JUMP JUMPDEST DUP1 PUSH4 0x3A3E6C81 GT PUSH2 0x226 JUMPI DUP1 PUSH4 0x51BF21D8 GT PUSH2 0x1DF JUMPI DUP1 PUSH4 0x51BF21D8 EQ PUSH2 0x423 JUMPI DUP1 PUSH4 0x5C60DA1B EQ PUSH2 0x436 JUMPI DUP1 PUSH4 0x64668022 EQ PUSH2 0x43E JUMPI DUP1 PUSH4 0x6A39E328 EQ PUSH2 0x451 JUMPI DUP1 PUSH4 0x70A08231 EQ PUSH2 0x464 JUMPI DUP1 PUSH4 0x75D5024B EQ PUSH2 0x477 JUMPI PUSH2 0x2BA JUMP JUMPDEST DUP1 PUSH4 0x3A3E6C81 EQ PUSH2 0x3B8 JUMPI DUP1 PUSH4 0x3FBBA9A6 EQ PUSH2 0x3CB JUMPI DUP1 PUSH4 0x44D96E95 EQ PUSH2 0x3EB JUMPI DUP1 PUSH4 0x4C736099 EQ PUSH2 0x3F3 JUMPI DUP1 PUSH4 0x5053E461 EQ PUSH2 0x406 JUMPI DUP1 PUSH4 0x51ADEB57 EQ PUSH2 0x40E JUMPI PUSH2 0x2BA JUMP JUMPDEST DUP1 PUSH4 0x18160DDD GT PUSH2 0x278 JUMPI DUP1 PUSH4 0x18160DDD EQ PUSH2 0x35A JUMPI DUP1 PUSH4 0x1EDBCF6C EQ PUSH2 0x362 JUMPI DUP1 PUSH4 0x23B872DD EQ PUSH2 0x36A JUMPI DUP1 PUSH4 0x2F7F889E EQ PUSH2 0x37D JUMPI DUP1 PUSH4 0x313CE567 EQ PUSH2 0x390 JUMPI DUP1 PUSH4 0x353A420C EQ PUSH2 0x3A5 JUMPI PUSH2 0x2BA JUMP JUMPDEST DUP1 PUSH3 0x5EDD37 EQ PUSH2 0x2BF JUMPI DUP1 PUSH4 0x6FDDE03 EQ PUSH2 0x2D4 JUMPI DUP1 PUSH4 0x95EA7B3 EQ PUSH2 0x2F2 JUMPI DUP1 PUSH4 0x10E95B6C EQ PUSH2 0x312 JUMPI DUP1 PUSH4 0x15E14BF6 EQ PUSH2 0x332 JUMPI DUP1 PUSH4 0x16F0115B EQ PUSH2 0x345 JUMPI JUMPDEST PUSH1 0x0 DUP1 REVERT JUMPDEST PUSH2 0x2D2 PUSH2 0x2CD CALLDATASIZE PUSH1 0x4 PUSH2 0x1E67 JUMP JUMPDEST PUSH2 0x600 JUMP JUMPDEST STOP JUMPDEST PUSH2 0x2DC PUSH2 0x723 JUMP JUMPDEST PUSH1 0x40 MLOAD PUSH2 0x2E9 SWAP2 SWAP1 PUSH2 0x22C1 JUMP JUMPDEST PUSH1 0x40 MLOAD DUP1 SWAP2 SUB SWAP1 RETURN JUMPDEST PUSH2 0x305 PUSH2 0x300 CALLDATASIZE PUSH1 0x4 PUSH2 0x1EC8 JUMP JUMPDEST PUSH2 0x75A JUMP JUMPDEST PUSH1 0x40 MLOAD PUSH2 0x2E9 SWAP2 SWAP1 PUSH2 0x2297 JUMP JUMPDEST PUSH2 0x325 PUSH2 0x320 CALLDATASIZE PUSH1 0x4 PUSH2 0x1F16 JUMP JUMPDEST PUSH2 0x763 JUMP JUMPDEST PUSH1 0x40 MLOAD PUSH2 0x2E9 SWAP2 SWAP1 PUSH2 0x2332 JUMP JUMPDEST PUSH2 0x325 PUSH2 0x340 CALLDATASIZE PUSH1 0x4 PUSH2 0x1DC2 JUMP JUMPDEST PUSH2 0x77B JUMP JUMPDEST PUSH2 0x34D PUSH2 0x799 JUMP JUMPDEST PUSH1 0x40 MLOAD PUSH2 0x2E9 SWAP2 SWAP1 PUSH2 0x2246 JUMP JUMPDEST PUSH2 0x325 PUSH2 0x7A8 JUMP JUMPDEST PUSH2 0x325 PUSH2 0x7AE JUMP JUMPDEST PUSH2 0x305 PUSH2 0x378 CALLDATASIZE PUSH1 0x4 PUSH2 0x1E1A JUMP JUMPDEST PUSH2 0x7B4 JUMP JUMPDEST PUSH2 0x2D2 PUSH2 0x38B CALLDATASIZE PUSH1 0x4 PUSH2 0x1EC8 JUMP JUMPDEST PUSH2 0x7BE JUMP JUMPDEST PUSH2 0x398 PUSH2 0x83E JUMP JUMPDEST PUSH1 0x40 MLOAD PUSH2 0x2E9 SWAP2 SWAP1 PUSH2 0x234E JUMP JUMPDEST PUSH2 0x325 PUSH2 0x3B3 CALLDATASIZE PUSH1 0x4 PUSH2 0x1DC2 JUMP JUMPDEST PUSH2 0x843 JUMP JUMPDEST PUSH2 0x305 PUSH2 0x3C6 CALLDATASIZE PUSH1 0x4 PUSH2 0x1DC2 JUMP JUMPDEST PUSH2 0x861 JUMP JUMPDEST PUSH2 0x3DE PUSH2 0x3D9 CALLDATASIZE PUSH1 0x4 PUSH2 0x1DE0 JUMP JUMPDEST PUSH2 0x87E JUMP JUMPDEST PUSH1 0x40 MLOAD PUSH2 0x2E9 SWAP2 SWAP1 PUSH2 0x22B3 JUMP JUMPDEST PUSH2 0x325 PUSH2 0x8B1 JUMP JUMPDEST PUSH2 0x325 PUSH2 0x401 CALLDATASIZE PUSH1 0x4 PUSH2 0x1F52 JUMP JUMPDEST PUSH2 0x8B7 JUMP JUMPDEST PUSH2 0x325 PUSH2 0x8E7 JUMP JUMPDEST PUSH2 0x416 PUSH2 0x90A JUMP JUMPDEST PUSH1 0x40 MLOAD PUSH2 0x2E9 SWAP2 SWAP1 PUSH2 0x22A5 JUMP JUMPDEST PUSH2 0x325 PUSH2 0x431 CALLDATASIZE PUSH1 0x4 PUSH2 0x1DC2 JUMP JUMPDEST PUSH2 0x919 JUMP JUMPDEST PUSH2 0x34D PUSH2 0x937 JUMP JUMPDEST PUSH2 0x325 PUSH2 0x44C CALLDATASIZE PUSH1 0x4 PUSH2 0x1DC2 JUMP JUMPDEST PUSH2 0x95C JUMP JUMPDEST PUSH2 0x325 PUSH2 0x45F CALLDATASIZE PUSH1 0x4 PUSH2 0x1F16 JUMP JUMPDEST PUSH2 0x97A JUMP JUMPDEST PUSH2 0x325 PUSH2 0x472 CALLDATASIZE PUSH1 0x4 PUSH2 0x1DC2 JUMP JUMPDEST PUSH2 0x98F JUMP JUMPDEST PUSH2 0x305 PUSH2 0x485 CALLDATASIZE PUSH1 0x4 PUSH2 0x1F16 JUMP JUMPDEST PUSH2 0x9AD JUMP JUMPDEST PUSH2 0x416 PUSH2 0x9C0 JUMP JUMPDEST PUSH2 0x325 PUSH2 0x4A0 CALLDATASIZE PUSH1 0x4 PUSH2 0x1DC2 JUMP JUMPDEST PUSH2 0x9CF JUMP JUMPDEST PUSH2 0x325 PUSH2 0x4B3 CALLDATASIZE PUSH1 0x4 PUSH2 0x1DC2 JUMP JUMPDEST PUSH2 0xA1B JUMP JUMPDEST PUSH2 0x325 PUSH2 0xA36 JUMP JUMPDEST PUSH2 0x2DC PUSH2 0xA3C JUMP JUMPDEST PUSH2 0x3DE PUSH2 0x4D6 CALLDATASIZE PUSH1 0x4 PUSH2 0x1DC2 JUMP JUMPDEST PUSH2 0xA5B JUMP JUMPDEST PUSH2 0x325 PUSH2 0xAC0 JUMP JUMPDEST PUSH2 0x325 PUSH2 0x4F1 CALLDATASIZE PUSH1 0x4 PUSH2 0x1DC2 JUMP JUMPDEST PUSH2 0xAC6 JUMP JUMPDEST PUSH2 0x325 PUSH2 0x504 CALLDATASIZE PUSH1 0x4 PUSH2 0x1DE0 JUMP JUMPDEST PUSH2 0xAE4 JUMP JUMPDEST PUSH2 0x325 PUSH2 0x517 CALLDATASIZE PUSH1 0x4 PUSH2 0x1F52 JUMP JUMPDEST PUSH2 0xB13 JUMP JUMPDEST PUSH2 0x325 PUSH2 0x52A CALLDATASIZE PUSH1 0x4 PUSH2 0x1DC2 JUMP JUMPDEST PUSH2 0xC39 JUMP JUMPDEST PUSH2 0x325 PUSH2 0xC5C JUMP JUMPDEST PUSH2 0x2D2 PUSH2 0x545 CALLDATASIZE PUSH1 0x4 PUSH2 0x1F71 JUMP JUMPDEST PUSH2 0xCF2 JUMP JUMPDEST PUSH2 0x325 PUSH2 0x558 CALLDATASIZE PUSH1 0x4 PUSH2 0x1EC8 JUMP JUMPDEST PUSH2 0xE26 JUMP JUMPDEST PUSH2 0x325 PUSH2 0x56B CALLDATASIZE PUSH1 0x4 PUSH2 0x1F16 JUMP JUMPDEST PUSH2 0xE6A JUMP JUMPDEST PUSH2 0x325 PUSH2 0xE7F JUMP JUMPDEST PUSH2 0x305 PUSH2 0x586 CALLDATASIZE PUSH1 0x4 PUSH2 0x1DC2 JUMP JUMPDEST PUSH2 0xE85 JUMP JUMPDEST PUSH2 0x2D2 PUSH2 0x599 CALLDATASIZE PUSH1 0x4 PUSH2 0x1F52 JUMP JUMPDEST PUSH2 0xEA6 JUMP JUMPDEST PUSH2 0x325 PUSH2 0x5AC CALLDATASIZE PUSH1 0x4 PUSH2 0x1F16 JUMP JUMPDEST PUSH2 0xFA2 JUMP JUMPDEST PUSH2 0x325 PUSH2 0x300 CALLDATASIZE PUSH1 0x4 PUSH2 0x1DE0 JUMP JUMPDEST PUSH2 0x325 PUSH2 0x5CD CALLDATASIZE PUSH1 0x4 PUSH2 0x1F16 JUMP JUMPDEST PUSH2 0x102D JUMP JUMPDEST PUSH2 0x325 PUSH2 0x5E0 CALLDATASIZE PUSH1 0x4 PUSH2 0x1DC2 JUMP JUMPDEST PUSH2 0x111F JUMP JUMPDEST PUSH2 0x325 PUSH2 0x113A JUMP JUMPDEST PUSH2 0x325 PUSH2 0x5FB CALLDATASIZE PUSH1 0x4 PUSH2 0x1F16 JUMP JUMPDEST PUSH2 0x1140 JUMP JUMPDEST PUSH1 0x1 PUSH1 0x1 PUSH1 0xA0 SHL SUB DUP5 AND PUSH2 0x62F JUMPI PUSH1 0x40 MLOAD PUSH3 0x461BCD PUSH1 0xE5 SHL DUP2 MSTORE PUSH1 0x4 ADD PUSH2 0x626 SWAP1 PUSH2 0x2312 JUMP JUMPDEST PUSH1 0x40 MLOAD DUP1 SWAP2 SUB SWAP1 REVERT JUMPDEST PUSH1 0x1 PUSH1 0x1 PUSH1 0xA0 SHL SUB DUP4 AND PUSH2 0x655 JUMPI PUSH1 0x40 MLOAD PUSH3 0x461BCD PUSH1 0xE5 SHL DUP2 MSTORE PUSH1 0x4 ADD PUSH2 0x626 SWAP1 PUSH2 0x22E2 JUMP JUMPDEST PUSH2 0x679 DUP5 DUP4 DUP4 PUSH1 0x40 MLOAD DUP1 PUSH1 0x60 ADD PUSH1 0x40 MSTORE DUP1 PUSH1 0x23 DUP2 MSTORE PUSH1 0x20 ADD PUSH2 0x2429 PUSH1 0x23 SWAP2 CODECOPY PUSH2 0x1152 JUMP JUMPDEST PUSH2 0x684 DUP4 DUP4 DUP4 PUSH2 0x11FD JUMP JUMPDEST CALLER PUSH1 0x1 PUSH1 0x1 PUSH1 0xA0 SHL SUB DUP6 AND EQ DUP1 ISZERO SWAP1 PUSH2 0x6A8 JUMPI POP PUSH1 0x0 NOT PUSH2 0x6A5 DUP6 CALLER PUSH2 0xAE4 JUMP JUMPDEST EQ ISZERO JUMPDEST ISZERO PUSH2 0x6D1 JUMPI PUSH2 0x6D1 DUP5 CALLER DUP4 PUSH1 0x40 MLOAD DUP1 PUSH1 0x60 ADD PUSH1 0x40 MSTORE DUP1 PUSH1 0x24 DUP2 MSTORE PUSH1 0x20 ADD PUSH2 0x244C PUSH1 0x24 SWAP2 CODECOPY PUSH2 0x12A4 JUMP JUMPDEST DUP2 DUP4 PUSH1 0x1 PUSH1 0x1 PUSH1 0xA0 SHL SUB AND DUP6 PUSH1 0x1 PUSH1 0x1 PUSH1 0xA0 SHL SUB AND PUSH32 0xF1DBB1CCBE57A1590C7BAAD7B01D581B730C9EBC535DCDE4345E6DB424063D8 DUP5 PUSH1 0x40 MLOAD PUSH2 0x715 SWAP2 SWAP1 PUSH2 0x2332 JUMP JUMPDEST PUSH1 0x40 MLOAD DUP1 SWAP2 SUB SWAP1 LOG4 POP POP POP POP JUMP JUMPDEST PUSH1 0x40 DUP1 MLOAD DUP1 DUP3 ADD SWAP1 SWAP2 MSTORE PUSH1 0x1E DUP2 MSTORE PUSH32 0x42696E616E6365204167696C652053657420446F6C6C6172205374616B650000 PUSH1 0x20 DUP3 ADD MSTORE SWAP1 JUMP JUMPDEST PUSH1 0x0 JUMPDEST SWAP3 SWAP2 POP POP JUMP JUMPDEST PUSH1 0x0 DUP2 DUP2 MSTORE PUSH1 0xD PUSH1 0x20 MSTORE PUSH1 0x40 SWAP1 KECCAK256 PUSH1 0x2 ADD SLOAD JUMPDEST SWAP2 SWAP1 POP JUMP JUMPDEST PUSH1 0x1 PUSH1 0x1 PUSH1 0xA0 SHL SUB AND PUSH1 0x0 SWAP1 DUP2 MSTORE PUSH1 0xE PUSH1 0x20 MSTORE PUSH1 0x40 SWAP1 KECCAK256 PUSH1 0x1 ADD SLOAD SWAP1 JUMP JUMPDEST PUSH1 0xB SLOAD PUSH1 0x1 PUSH1 0x1 PUSH1 0xA0 SHL SUB AND SWAP1 JUMP JUMPDEST PUSH1 0x3 SLOAD SWAP1 JUMP JUMPDEST PUSH1 0x6 SLOAD SWAP1 JUMP JUMPDEST PUSH1 0x0 JUMPDEST SWAP4 SWAP3 POP POP POP JUMP JUMPDEST PUSH1 0x1 PUSH1 0x1 PUSH1 0xA0 SHL SUB DUP3 AND PUSH2 0x7E4 JUMPI PUSH1 0x40 MLOAD PUSH3 0x461BCD PUSH1 0xE5 SHL DUP2 MSTORE PUSH1 0x4 ADD PUSH2 0x626 SWAP1 PUSH2 0x2302 JUMP JUMPDEST PUSH2 0x7EF CALLER DUP4 DUP4 PUSH2 0x1315 JUMP JUMPDEST DUP2 PUSH1 0x1 PUSH1 0x1 PUSH1 0xA0 SHL SUB AND CALLER PUSH1 0x1 PUSH1 0x1 PUSH1 0xA0 SHL SUB AND PUSH32 0x8FF27E6B95060C1CA851E7C2C28AF8B413EB1A8BCB637B0290DA9543A709CCE3 DUP4 PUSH1 0x40 MLOAD PUSH2 0x832 SWAP2 SWAP1 PUSH2 0x2332 JUMP JUMPDEST PUSH1 0x40 MLOAD DUP1 SWAP2 SUB SWAP1 LOG3 POP POP JUMP JUMPDEST PUSH1 0x12 SWAP1 JUMP JUMPDEST PUSH1 0x1 PUSH1 0x1 PUSH1 0xA0 SHL SUB AND PUSH1 0x0 SWAP1 DUP2 MSTORE PUSH1 0xE PUSH1 0x20 MSTORE PUSH1 0x40 SWAP1 KECCAK256 PUSH1 0x3 ADD SLOAD SWAP1 JUMP JUMPDEST PUSH1 0x1 PUSH1 0x1 PUSH1 0xA0 SHL SUB AND PUSH1 0x0 SWAP1 DUP2 MSTORE PUSH1 0xE PUSH1 0x20 MSTORE PUSH1 0x40 SWAP1 KECCAK256 SLOAD ISZERO ISZERO SWAP1 JUMP JUMPDEST PUSH1 0x1 PUSH1 0x1 PUSH1 0xA0 SHL SUB DUP1 DUP3 AND PUSH1 0x0 SWAP1 DUP2 MSTORE PUSH1 0xE PUSH1 0x20 SWAP1 DUP2 MSTORE PUSH1 0x40 DUP1 DUP4 KECCAK256 SWAP4 DUP7 AND DUP4 MSTORE PUSH1 0x4 SWAP1 SWAP4 ADD SWAP1 MSTORE KECCAK256 SLOAD PUSH1 0xFF AND SWAP3 SWAP2 POP POP JUMP JUMPDEST PUSH1 0x4 SLOAD SWAP1 JUMP JUMPDEST PUSH1 0x0 DUP3 DUP2 MSTORE PUSH1 0xD PUSH1 0x20 MSTORE PUSH1 0x40 DUP2 KECCAK256 PUSH1 0x3 ADD DUP1 SLOAD DUP4 SWAP1 DUP2 LT PUSH2 0x8D4 JUMPI INVALID JUMPDEST SWAP1 PUSH1 0x0 MSTORE PUSH1 0x20 PUSH1 0x0 KECCAK256 ADD SLOAD SWAP1 POP SWAP3 SWAP2 POP POP JUMP JUMPDEST PUSH1 0x0 PUSH2 0x8F1 PUSH2 0x1D62 JUMP JUMPDEST PUSH2 0x8F9 PUSH2 0x1345 JUMP JUMPDEST SWAP1 POP PUSH2 0x904 DUP2 PUSH2 0x1374 JUMP JUMPDEST SWAP2 POP POP SWAP1 JUMP JUMPDEST PUSH1 0x9 SLOAD PUSH1 0x1 PUSH1 0x1 PUSH1 0xA0 SHL SUB AND SWAP1 JUMP JUMPDEST PUSH1 0x1 PUSH1 0x1 PUSH1 0xA0 SHL SUB AND PUSH1 0x0 SWAP1 DUP2 MSTORE PUSH1 0xC PUSH1 0x20 MSTORE PUSH1 0x40 SWAP1 KECCAK256 PUSH1 0x4 ADD SLOAD SWAP1 JUMP JUMPDEST PUSH32 0x360894A13BA1A3210667C828492DB98DCA3E2076CC3735A920A3CA505D382BBC SLOAD SWAP1 JUMP JUMPDEST PUSH1 0x1 PUSH1 0x1 PUSH1 0xA0 SHL SUB AND PUSH1 0x0 SWAP1 DUP2 MSTORE PUSH1 0xE PUSH1 0x20 MSTORE PUSH1 0x40 SWAP1 KECCAK256 PUSH1 0x2 ADD SLOAD SWAP1 JUMP JUMPDEST PUSH1 0x0 SWAP1 DUP2 MSTORE PUSH1 0xD PUSH1 0x20 MSTORE PUSH1 0x40 SWAP1 KECCAK256 PUSH1 0x3 ADD SLOAD SWAP1 JUMP JUMPDEST PUSH1 0x1 PUSH1 0x1 PUSH1 0xA0 SHL SUB AND PUSH1 0x0 SWAP1 DUP2 MSTORE PUSH1 0xC PUSH1 0x20 MSTORE PUSH1 0x40 SWAP1 KECCAK256 PUSH1 0x1 ADD SLOAD SWAP1 JUMP JUMPDEST PUSH1 0x0 PUSH2 0x9B7 PUSH2 0x1396 JUMP JUMPDEST SWAP1 SWAP2 GT ISZERO SWAP2 SWAP1 POP JUMP JUMPDEST PUSH1 0xA SLOAD PUSH1 0x1 PUSH1 0x1 PUSH1 0xA0 SHL SUB AND SWAP1 JUMP JUMPDEST PUSH1 0x0 DUP1 PUSH2 0x9DA PUSH2 0x7A8 JUMP JUMPDEST SWAP1 POP DUP1 PUSH2 0x9EB JUMPI PUSH1 0x0 SWAP2 POP POP PUSH2 0x776 JUMP JUMPDEST PUSH2 0x7B7 DUP2 PUSH2 0xA0F PUSH2 0x9FB DUP7 PUSH2 0x98F JUMP JUMPDEST PUSH2 0xA03 PUSH2 0x8B1 JUMP JUMPDEST SWAP1 PUSH4 0xFFFFFFFF PUSH2 0x139B AND JUMP JUMPDEST SWAP1 PUSH4 0xFFFFFFFF PUSH2 0x13D5 AND JUMP JUMPDEST PUSH1 0x1 PUSH1 0x1 PUSH1 0xA0 SHL SUB AND PUSH1 0x0 SWAP1 DUP2 MSTORE PUSH1 0xC PUSH1 0x20 MSTORE PUSH1 0x40 SWAP1 KECCAK256 SLOAD SWAP1 JUMP JUMPDEST PUSH1 0x2 SLOAD SWAP1 JUMP JUMPDEST PUSH1 0x40 DUP1 MLOAD DUP1 DUP3 ADD SWAP1 SWAP2 MSTORE PUSH1 0x5 DUP2 MSTORE PUSH5 0x4241534453 PUSH1 0xD8 SHL PUSH1 0x20 DUP3 ADD MSTORE SWAP1 JUMP JUMPDEST PUSH1 0x0 PUSH2 0xA65 PUSH2 0xA36 JUMP JUMPDEST PUSH1 0x1 PUSH1 0x1 PUSH1 0xA0 SHL SUB DUP4 AND PUSH1 0x0 SWAP1 DUP2 MSTORE PUSH1 0xC PUSH1 0x20 MSTORE PUSH1 0x40 SWAP1 KECCAK256 PUSH1 0x5 ADD SLOAD GT ISZERO PUSH2 0xA8F JUMPI POP PUSH1 0x2 PUSH2 0x776 JUMP JUMPDEST PUSH1 0x1 PUSH1 0x1 PUSH1 0xA0 SHL SUB DUP3 AND PUSH1 0x0 SWAP1 DUP2 MSTORE PUSH1 0xC PUSH1 0x20 MSTORE PUSH1 0x40 SWAP1 KECCAK256 PUSH1 0x4 ADD SLOAD PUSH2 0xAB3 PUSH2 0xA36 JUMP JUMPDEST LT ISZERO PUSH2 0x75A JUMPI PUSH1 0x1 PUSH2 0x75D JUMP JUMPDEST PUSH1 0x8 SLOAD SWAP1 JUMP JUMPDEST PUSH1 0x1 PUSH1 0x1 PUSH1 0xA0 SHL SUB AND PUSH1 0x0 SWAP1 DUP2 MSTORE PUSH1 0xC PUSH1 0x20 MSTORE PUSH1 0x40 SWAP1 KECCAK256 PUSH1 0x5 ADD SLOAD SWAP1 JUMP JUMPDEST PUSH1 0x1 PUSH1 0x1 PUSH1 0xA0 SHL SUB SWAP2 DUP3 AND PUSH1 0x0 SWAP1 DUP2 MSTORE PUSH1 0xC PUSH1 0x20 SWAP1 DUP2 MSTORE PUSH1 0x40 DUP1 DUP4 KECCAK256 SWAP4 SWAP1 SWAP5 AND DUP3 MSTORE PUSH1 0x3 SWAP1 SWAP3 ADD SWAP1 SWAP2 MSTORE KECCAK256 SLOAD SWAP1 JUMP JUMPDEST PUSH1 0x0 DUP1 PUSH2 0xB1E PUSH2 0x1345 JUMP JUMPDEST PUSH1 0x40 ADD MLOAD TIMESTAMP DUP2 PUSH2 0xB2A JUMPI INVALID JUMPDEST MOD SWAP1 POP PUSH1 0x0 DUP5 PUSH2 0xB38 PUSH2 0xA36 JUMP JUMPDEST SUB SWAP1 POP PUSH1 0x0 PUSH2 0xB45 PUSH2 0x1417 JUMP JUMPDEST DUP3 PUSH2 0xB4E PUSH2 0x1417 JUMP JUMPDEST SUB PUSH2 0xB57 PUSH2 0x141D JUMP JUMPDEST MUL DUP2 PUSH2 0xB5F JUMPI INVALID JUMPDEST DIV SWAP1 POP DUP1 DUP4 GT ISZERO PUSH2 0xB76 JUMPI PUSH1 0x0 SWAP4 POP POP POP POP PUSH2 0x75D JUMP JUMPDEST PUSH2 0xB7E PUSH2 0x1D83 JUMP JUMPDEST PUSH2 0xBD1 PUSH1 0x40 MLOAD DUP1 PUSH1 0x20 ADD PUSH1 0x40 MSTORE DUP1 DUP6 PUSH2 0xB95 PUSH2 0x1417 JUMP JUMPDEST SUB DUP2 MSTORE POP PUSH2 0xBC5 PUSH1 0x40 MLOAD DUP1 PUSH1 0x20 ADD PUSH1 0x40 MSTORE DUP1 PUSH2 0xBAF PUSH2 0x1417 JUMP JUMPDEST SWAP1 MSTORE PUSH2 0xBB9 PUSH2 0x1423 JUMP JUMPDEST SWAP1 PUSH4 0xFFFFFFFF PUSH2 0x1445 AND JUMP JUMPDEST SWAP1 PUSH4 0xFFFFFFFF PUSH2 0x147C AND JUMP JUMPDEST SWAP1 POP PUSH2 0xBDB PUSH2 0x1D83 JUMP JUMPDEST PUSH1 0x40 DUP1 MLOAD PUSH1 0x20 DUP1 DUP3 ADD DUP4 MSTORE DUP8 DUP7 SUB DUP3 MSTORE DUP3 MLOAD SWAP1 DUP2 ADD SWAP1 SWAP3 MSTORE DUP5 DUP3 MSTORE PUSH2 0xC0B SWAP2 PUSH2 0xBC5 SWAP1 DUP6 SWAP1 PUSH4 0xFFFFFFFF PUSH2 0x1445 AND JUMP JUMPDEST PUSH1 0x40 DUP1 MLOAD PUSH1 0x20 DUP2 ADD SWAP1 SWAP2 MSTORE DUP9 DUP2 MSTORE SWAP1 SWAP2 POP PUSH2 0xC2C SWAP1 DUP3 PUSH4 0xFFFFFFFF PUSH2 0x147C AND JUMP JUMPDEST MLOAD SWAP9 SWAP8 POP POP POP POP POP POP POP POP JUMP JUMPDEST PUSH1 0x0 PUSH2 0x75D PUSH2 0xC47 DUP4 PUSH2 0x843 JUMP JUMPDEST PUSH2 0xC50 DUP5 PUSH2 0x95C JUMP JUMPDEST SWAP1 PUSH4 0xFFFFFFFF PUSH2 0x14AA AND JUMP JUMPDEST PUSH1 0x0 PUSH2 0xCED PUSH2 0xC69 PUSH2 0x113A JUMP JUMPDEST PUSH2 0xC71 PUSH2 0x90A JUMP JUMPDEST PUSH1 0x1 PUSH1 0x1 PUSH1 0xA0 SHL SUB AND PUSH4 0x18160DDD PUSH1 0x40 MLOAD DUP2 PUSH4 0xFFFFFFFF AND PUSH1 0xE0 SHL DUP2 MSTORE PUSH1 0x4 ADD PUSH1 0x20 PUSH1 0x40 MLOAD DUP1 DUP4 SUB DUP2 DUP7 DUP1 EXTCODESIZE ISZERO DUP1 ISZERO PUSH2 0xCA9 JUMPI PUSH1 0x0 DUP1 REVERT JUMPDEST POP GAS STATICCALL ISZERO DUP1 ISZERO PUSH2 0xCBD JUMPI RETURNDATASIZE PUSH1 0x0 DUP1 RETURNDATACOPY RETURNDATASIZE PUSH1 0x0 REVERT JUMPDEST POP POP POP POP PUSH1 0x40 MLOAD RETURNDATASIZE PUSH1 0x1F NOT PUSH1 0x1F DUP3 ADD AND DUP3 ADD DUP1 PUSH1 0x40 MSTORE POP PUSH2 0xCE1 SWAP2 SWAP1 DUP2 ADD SWAP1 PUSH2 0x1F34 JUMP JUMPDEST SWAP1 PUSH4 0xFFFFFFFF PUSH2 0x14CF AND JUMP JUMPDEST SWAP1 POP SWAP1 JUMP JUMPDEST PUSH1 0x2 PUSH2 0xD00 DUP5 PUSH2 0xCE1 PUSH2 0xA36 JUMP JUMPDEST LT ISZERO PUSH2 0xD1E JUMPI PUSH1 0x40 MLOAD PUSH3 0x461BCD PUSH1 0xE5 SHL DUP2 MSTORE PUSH1 0x4 ADD PUSH2 0x626 SWAP1 PUSH2 0x2322 JUMP JUMPDEST PUSH2 0xD42 CALLER DUP5 DUP5 PUSH1 0x40 MLOAD DUP1 PUSH1 0x60 ADD PUSH1 0x40 MSTORE DUP1 PUSH1 0x23 DUP2 MSTORE PUSH1 0x20 ADD PUSH2 0x2429 PUSH1 0x23 SWAP2 CODECOPY PUSH2 0x1152 JUMP JUMPDEST PUSH1 0x0 PUSH2 0xD4E DUP5 DUP5 PUSH2 0xB13 JUMP JUMPDEST SWAP1 POP DUP1 DUP4 SUB PUSH2 0xD8A DUP4 DUP3 LT ISZERO PUSH6 0x13585C9AD95D PUSH1 0xD2 SHL PUSH32 0x496E73756666696369656E74206F757470757420616D6F756E74000000000000 PUSH2 0x1511 JUMP JUMPDEST PUSH2 0xD94 CALLER DUP3 PUSH2 0x156B JUMP JUMPDEST DUP2 ISZERO PUSH2 0xDDD JUMPI DUP5 CALLER PUSH1 0x1 PUSH1 0x1 PUSH1 0xA0 SHL SUB AND PUSH32 0x1CD1213D4276C260E84170B4A39025DC8398FBF744EDEE0709261769B456B94B DUP5 PUSH1 0x40 MLOAD PUSH2 0xDD4 SWAP2 SWAP1 PUSH2 0x2332 JUMP JUMPDEST PUSH1 0x40 MLOAD DUP1 SWAP2 SUB SWAP1 LOG3 JUMPDEST DUP5 CALLER PUSH1 0x1 PUSH1 0x1 PUSH1 0xA0 SHL SUB AND PUSH32 0x46E9903AE8AC9E9F0C9BC321B05965C1C036E7D4783758703F5CDFC4133C51B6 DUP4 PUSH1 0x40 MLOAD PUSH2 0xE17 SWAP2 SWAP1 PUSH2 0x2332 JUMP JUMPDEST PUSH1 0x40 MLOAD DUP1 SWAP2 SUB SWAP1 LOG3 POP POP POP POP POP JUMP JUMPDEST PUSH1 0x0 PUSH2 0xE31 DUP3 PUSH2 0xE6A JUMP JUMPDEST PUSH2 0xE3D JUMPI POP PUSH1 0x0 PUSH2 0x75D JUMP JUMPDEST POP PUSH1 0x1 PUSH1 0x1 PUSH1 0xA0 SHL SUB SWAP2 SWAP1 SWAP2 AND PUSH1 0x0 SWAP1 DUP2 MSTORE PUSH1 0xC PUSH1 0x20 SWAP1 DUP2 MSTORE PUSH1 0x40 DUP1 DUP4 KECCAK256 SWAP4 DUP4 MSTORE PUSH1 0x2 SWAP1 SWAP4 ADD SWAP1 MSTORE KECCAK256 SLOAD SWAP1 JUMP JUMPDEST PUSH1 0x0 SWAP1 DUP2 MSTORE PUSH1 0xD PUSH1 0x20 MSTORE PUSH1 0x40 SWAP1 KECCAK256 PUSH1 0x1 ADD SLOAD SWAP1 JUMP JUMPDEST PUSH1 0x5 SLOAD SWAP1 JUMP JUMPDEST PUSH1 0x1 PUSH1 0x1 PUSH1 0xA0 SHL SUB AND PUSH1 0x0 SWAP1 DUP2 MSTORE PUSH1 0xE PUSH1 0x20 MSTORE PUSH1 0x40 SWAP1 KECCAK256 PUSH1 0x5 ADD SLOAD PUSH1 0xFF AND SWAP1 JUMP JUMPDEST PUSH1 0x2 PUSH2 0xEB4 DUP4 PUSH2 0xCE1 PUSH2 0xA36 JUMP JUMPDEST LT ISZERO PUSH2 0xED2 JUMPI PUSH1 0x40 MLOAD PUSH3 0x461BCD PUSH1 0xE5 SHL DUP2 MSTORE PUSH1 0x4 ADD PUSH2 0x626 SWAP1 PUSH2 0x2322 JUMP JUMPDEST PUSH2 0xEF6 CALLER DUP4 DUP4 PUSH1 0x40 MLOAD DUP1 PUSH1 0x60 ADD PUSH1 0x40 MSTORE DUP1 PUSH1 0x23 DUP2 MSTORE PUSH1 0x20 ADD PUSH2 0x2429 PUSH1 0x23 SWAP2 CODECOPY PUSH2 0x1152 JUMP JUMPDEST PUSH1 0x0 PUSH2 0xF02 DUP4 DUP4 PUSH2 0xB13 JUMP JUMPDEST SWAP1 POP DUP1 DUP3 SUB PUSH2 0xF11 CALLER DUP3 PUSH2 0x156B JUMP JUMPDEST DUP2 ISZERO PUSH2 0xF5A JUMPI DUP4 CALLER PUSH1 0x1 PUSH1 0x1 PUSH1 0xA0 SHL SUB AND PUSH32 0x1CD1213D4276C260E84170B4A39025DC8398FBF744EDEE0709261769B456B94B DUP5 PUSH1 0x40 MLOAD PUSH2 0xF51 SWAP2 SWAP1 PUSH2 0x2332 JUMP JUMPDEST PUSH1 0x40 MLOAD DUP1 SWAP2 SUB SWAP1 LOG3 JUMPDEST DUP4 CALLER PUSH1 0x1 PUSH1 0x1 PUSH1 0xA0 SHL SUB AND PUSH32 0x46E9903AE8AC9E9F0C9BC321B05965C1C036E7D4783758703F5CDFC4133C51B6 DUP4 PUSH1 0x40 MLOAD PUSH2 0xF94 SWAP2 SWAP1 PUSH2 0x2332 JUMP JUMPDEST PUSH1 0x40 MLOAD DUP1 SWAP2 SUB SWAP1 LOG3 POP POP POP POP JUMP JUMPDEST PUSH1 0x0 PUSH2 0x75D PUSH2 0xFAF PUSH2 0x90A JUMP JUMPDEST PUSH1 0x1 PUSH1 0x1 PUSH1 0xA0 SHL SUB AND PUSH4 0x18160DDD PUSH1 0x40 MLOAD DUP2 PUSH4 0xFFFFFFFF AND PUSH1 0xE0 SHL DUP2 MSTORE PUSH1 0x4 ADD PUSH1 0x20 PUSH1 0x40 MLOAD DUP1 DUP4 SUB DUP2 DUP7 DUP1 EXTCODESIZE ISZERO DUP1 ISZERO PUSH2 0xFE7 JUMPI PUSH1 0x0 DUP1 REVERT JUMPDEST POP GAS STATICCALL ISZERO DUP1 ISZERO PUSH2 0xFFB JUMPI RETURNDATASIZE PUSH1 0x0 DUP1 RETURNDATACOPY RETURNDATASIZE PUSH1 0x0 REVERT JUMPDEST POP POP POP POP PUSH1 0x40 MLOAD RETURNDATASIZE PUSH1 0x1F NOT PUSH1 0x1F DUP3 ADD AND DUP3 ADD DUP1 PUSH1 0x40 MSTORE POP PUSH2 0x101F SWAP2 SWAP1 DUP2 ADD SWAP1 PUSH2 0x1F34 JUMP JUMPDEST PUSH2 0x1027 PUSH2 0x113A JUMP JUMPDEST DUP5 PUSH2 0x1621 JUMP JUMPDEST PUSH1 0x0 PUSH2 0x1066 PUSH1 0x0 DUP4 GT PUSH6 0x13585C9AD95D PUSH1 0xD2 SHL PUSH32 0x4D757374207075726368617365206E6F6E2D7A65726F20616D6F756E74000000 PUSH2 0x1511 JUMP JUMPDEST PUSH2 0x1096 DUP3 PUSH2 0x1072 PUSH2 0x113A JUMP JUMPDEST LT ISZERO PUSH6 0x13585C9AD95D PUSH1 0xD2 SHL PUSH15 0x139BDD08195B9BDD59DA081919589D PUSH1 0x8A SHL PUSH2 0x1511 JUMP JUMPDEST PUSH1 0x0 PUSH2 0x10A0 PUSH2 0xA36 JUMP JUMPDEST SWAP1 POP PUSH1 0x0 PUSH2 0x10BD PUSH2 0x10B0 DUP6 PUSH2 0xFA2 JUMP JUMPDEST DUP6 SWAP1 PUSH4 0xFFFFFFFF PUSH2 0x14AA AND JUMP JUMPDEST SWAP1 POP PUSH2 0x10C9 CALLER DUP6 PUSH2 0x164E JUMP JUMPDEST PUSH2 0x10D4 CALLER DUP4 DUP4 PUSH2 0x11FD JUMP JUMPDEST DUP2 CALLER PUSH1 0x1 PUSH1 0x1 PUSH1 0xA0 SHL SUB AND PUSH32 0xBCE252DB29F761F815DC2E9EA60005AF065EFBA6EB619D2A0B2A113FDEB61414 DUP7 DUP5 PUSH1 0x40 MLOAD PUSH2 0x1110 SWAP3 SWAP2 SWAP1 PUSH2 0x2340 JUMP JUMPDEST PUSH1 0x40 MLOAD DUP1 SWAP2 SUB SWAP1 LOG3 SWAP4 SWAP3 POP POP POP JUMP JUMPDEST PUSH1 0x1 PUSH1 0x1 PUSH1 0xA0 SHL SUB AND PUSH1 0x0 SWAP1 DUP2 MSTORE PUSH1 0xE PUSH1 0x20 MSTORE PUSH1 0x40 SWAP1 KECCAK256 SLOAD SWAP1 JUMP JUMPDEST PUSH1 0x7 SLOAD SWAP1 JUMP JUMPDEST PUSH1 0x0 SWAP1 DUP2 MSTORE PUSH1 0xD PUSH1 0x20 MSTORE PUSH1 0x40 SWAP1 KECCAK256 SLOAD SWAP1 JUMP JUMPDEST PUSH1 0x1 PUSH1 0x1 PUSH1 0xA0 SHL SUB DUP5 AND PUSH1 0x0 SWAP1 DUP2 MSTORE PUSH1 0xC PUSH1 0x20 SWAP1 DUP2 MSTORE PUSH1 0x40 DUP1 DUP4 KECCAK256 DUP7 DUP5 MSTORE PUSH1 0x2 ADD SWAP1 SWAP2 MSTORE SWAP1 KECCAK256 SLOAD PUSH2 0x118A SWAP1 DUP4 DUP4 PUSH4 0xFFFFFFFF PUSH2 0x175F AND JUMP JUMPDEST PUSH1 0x1 PUSH1 0x1 PUSH1 0xA0 SHL SUB DUP6 AND PUSH1 0x0 SWAP1 DUP2 MSTORE PUSH1 0xC PUSH1 0x20 SWAP1 DUP2 MSTORE PUSH1 0x40 DUP1 DUP4 KECCAK256 DUP8 DUP5 MSTORE PUSH1 0x2 ADD DUP3 MSTORE DUP1 DUP4 KECCAK256 SWAP4 SWAP1 SWAP4 SSTORE PUSH1 0xD SWAP1 MSTORE KECCAK256 PUSH1 0x1 ADD SLOAD PUSH2 0x11CE SWAP1 DUP4 DUP4 PUSH4 0xFFFFFFFF PUSH2 0x175F AND JUMP JUMPDEST PUSH1 0x0 DUP5 DUP2 MSTORE PUSH1 0xD PUSH1 0x20 MSTORE PUSH1 0x40 SWAP1 KECCAK256 PUSH1 0x1 ADD SSTORE PUSH1 0x8 SLOAD PUSH2 0x11F4 SWAP1 DUP4 DUP4 PUSH4 0xFFFFFFFF PUSH2 0x175F AND JUMP JUMPDEST PUSH1 0x8 SSTORE POP POP POP POP JUMP JUMPDEST PUSH1 0x1 PUSH1 0x1 PUSH1 0xA0 SHL SUB DUP4 AND PUSH1 0x0 SWAP1 DUP2 MSTORE PUSH1 0xC PUSH1 0x20 SWAP1 DUP2 MSTORE PUSH1 0x40 DUP1 DUP4 KECCAK256 DUP6 DUP5 MSTORE PUSH1 0x2 ADD SWAP1 SWAP2 MSTORE SWAP1 KECCAK256 SLOAD PUSH2 0x1234 SWAP1 DUP3 PUSH4 0xFFFFFFFF PUSH2 0x14AA AND JUMP JUMPDEST PUSH1 0x1 PUSH1 0x1 PUSH1 0xA0 SHL SUB DUP5 AND PUSH1 0x0 SWAP1 DUP2 MSTORE PUSH1 0xC PUSH1 0x20 SWAP1 DUP2 MSTORE PUSH1 0x40 DUP1 DUP4 KECCAK256 DUP7 DUP5 MSTORE PUSH1 0x2 ADD DUP3 MSTORE DUP1 DUP4 KECCAK256 SWAP4 SWAP1 SWAP4 SSTORE PUSH1 0xD SWAP1 MSTORE KECCAK256 PUSH1 0x1 ADD SLOAD PUSH2 0x1277 SWAP1 DUP3 PUSH4 0xFFFFFFFF PUSH2 0x14AA AND JUMP JUMPDEST PUSH1 0x0 DUP4 DUP2 MSTORE PUSH1 0xD PUSH1 0x20 MSTORE PUSH1 0x40 SWAP1 KECCAK256 PUSH1 0x1 ADD SSTORE PUSH1 0x8 SLOAD PUSH2 0x129C SWAP1 DUP3 PUSH4 0xFFFFFFFF PUSH2 0x14AA AND JUMP JUMPDEST PUSH1 0x8 SSTORE POP POP POP JUMP JUMPDEST PUSH1 0x1 PUSH1 0x1 PUSH1 0xA0 SHL SUB DUP1 DUP6 AND PUSH1 0x0 SWAP1 DUP2 MSTORE PUSH1 0xC PUSH1 0x20 SWAP1 DUP2 MSTORE PUSH1 0x40 DUP1 DUP4 KECCAK256 SWAP4 DUP8 AND DUP4 MSTORE PUSH1 0x3 SWAP1 SWAP4 ADD SWAP1 MSTORE KECCAK256 SLOAD PUSH2 0x12DF SWAP1 DUP4 DUP4 PUSH4 0xFFFFFFFF PUSH2 0x175F AND JUMP JUMPDEST PUSH1 0x1 PUSH1 0x1 PUSH1 0xA0 SHL SUB SWAP5 DUP6 AND PUSH1 0x0 SWAP1 DUP2 MSTORE PUSH1 0xC PUSH1 0x20 SWAP1 DUP2 MSTORE PUSH1 0x40 DUP1 DUP4 KECCAK256 SWAP7 SWAP1 SWAP8 AND DUP3 MSTORE PUSH1 0x3 SWAP1 SWAP6 ADD SWAP1 SWAP5 MSTORE SWAP4 SWAP1 SWAP3 KECCAK256 SWAP3 SWAP1 SWAP3 SSTORE POP POP JUMP JUMPDEST PUSH1 0x1 PUSH1 0x1 PUSH1 0xA0 SHL SUB SWAP3 DUP4 AND PUSH1 0x0 SWAP1 DUP2 MSTORE PUSH1 0xC PUSH1 0x20 SWAP1 DUP2 MSTORE PUSH1 0x40 DUP1 DUP4 KECCAK256 SWAP5 SWAP1 SWAP6 AND DUP3 MSTORE PUSH1 0x3 SWAP1 SWAP4 ADD SWAP1 SWAP3 MSTORE SWAP2 SWAP1 KECCAK256 SSTORE JUMP JUMPDEST PUSH2 0x134D PUSH2 0x1D62 JUMP JUMPDEST PUSH1 0x40 MLOAD DUP1 PUSH1 0x60 ADD PUSH1 0x40 MSTORE DUP1 PUSH1 0x0 DUP2 MSTORE PUSH1 0x20 ADD PUSH4 0x5FBEF000 DUP2 MSTORE PUSH1 0x20 ADD PUSH2 0x1C20 DUP2 MSTORE POP SWAP1 POP SWAP1 JUMP JUMPDEST PUSH1 0x0 PUSH2 0x75D DUP3 PUSH1 0x0 ADD MLOAD PUSH2 0xC50 DUP5 PUSH1 0x40 ADD MLOAD PUSH2 0xA0F DUP7 PUSH1 0x20 ADD MLOAD PUSH2 0xCE1 PUSH2 0x178B JUMP JUMPDEST PUSH1 0x96 SWAP1 JUMP JUMPDEST PUSH1 0x0 DUP3 PUSH2 0x13AA JUMPI POP PUSH1 0x0 PUSH2 0x75D JUMP JUMPDEST DUP3 DUP3 MUL DUP3 DUP5 DUP3 DUP2 PUSH2 0x13B7 JUMPI INVALID JUMPDEST DIV EQ PUSH2 0x7B7 JUMPI PUSH1 0x40 MLOAD PUSH3 0x461BCD PUSH1 0xE5 SHL DUP2 MSTORE PUSH1 0x4 ADD PUSH2 0x626 SWAP1 PUSH2 0x22F2 JUMP JUMPDEST PUSH1 0x0 PUSH2 0x7B7 DUP4 DUP4 PUSH1 0x40 MLOAD DUP1 PUSH1 0x40 ADD PUSH1 0x40 MSTORE DUP1 PUSH1 0x1A DUP2 MSTORE PUSH1 0x20 ADD PUSH32 0x536166654D6174683A206469766973696F6E206279207A65726F000000000000 DUP2 MSTORE POP PUSH2 0x178F JUMP JUMPDEST PUSH2 0x168 SWAP1 JUMP JUMPDEST PUSH2 0xE10 SWAP1 JUMP JUMPDEST PUSH2 0x142B PUSH2 0x1D83 JUMP JUMPDEST POP PUSH1 0x40 DUP1 MLOAD PUSH1 0x20 DUP2 ADD SWAP1 SWAP2 MSTORE PUSH8 0x6F05B59D3B20000 DUP2 MSTORE SWAP1 JUMP JUMPDEST PUSH2 0x144D PUSH2 0x1D83 JUMP JUMPDEST PUSH1 0x40 MLOAD DUP1 PUSH1 0x20 ADD PUSH1 0x40 MSTORE DUP1 PUSH2 0x1473 DUP6 PUSH1 0x0 ADD MLOAD PUSH8 0xDE0B6B3A7640000 DUP7 PUSH1 0x0 ADD MLOAD PUSH2 0x17C6 JUMP JUMPDEST SWAP1 MSTORE SWAP4 SWAP3 POP POP POP JUMP JUMPDEST PUSH2 0x1484 PUSH2 0x1D83 JUMP JUMPDEST PUSH1 0x40 MLOAD DUP1 PUSH1 0x20 ADD PUSH1 0x40 MSTORE DUP1 PUSH2 0x1473 DUP6 PUSH1 0x0 ADD MLOAD DUP6 PUSH1 0x0 ADD MLOAD PUSH8 0xDE0B6B3A7640000 PUSH2 0x17C6 JUMP JUMPDEST PUSH1 0x0 DUP3 DUP3 ADD DUP4 DUP2 LT ISZERO PUSH2 0x7B7 JUMPI PUSH1 0x40 MLOAD PUSH3 0x461BCD PUSH1 0xE5 SHL DUP2 MSTORE PUSH1 0x4 ADD PUSH2 0x626 SWAP1 PUSH2 0x22D2 JUMP JUMPDEST PUSH1 0x0 PUSH2 0x7B7 DUP4 DUP4 PUSH1 0x40 MLOAD DUP1 PUSH1 0x40 ADD PUSH1 0x40 MSTORE DUP1 PUSH1 0x1E DUP2 MSTORE PUSH1 0x20 ADD PUSH32 0x536166654D6174683A207375627472616374696F6E206F766572666C6F770000 DUP2 MSTORE POP PUSH2 0x175F JUMP JUMPDEST DUP3 PUSH2 0x1566 JUMPI PUSH2 0x151F DUP3 PUSH2 0x17DC JUMP JUMPDEST PUSH2 0x1D1 PUSH1 0xF5 SHL PUSH2 0x152E DUP4 PUSH2 0x17DC JUMP JUMPDEST PUSH1 0x40 MLOAD PUSH1 0x20 ADD PUSH2 0x1540 SWAP4 SWAP3 SWAP2 SWAP1 PUSH2 0x2215 JUMP JUMPDEST PUSH1 0x40 DUP1 MLOAD PUSH1 0x1F NOT DUP2 DUP5 SUB ADD DUP2 MSTORE SWAP1 DUP3 SWAP1 MSTORE PUSH3 0x461BCD PUSH1 0xE5 SHL DUP3 MSTORE PUSH2 0x626 SWAP2 PUSH1 0x4 ADD PUSH2 0x22C1 JUMP JUMPDEST POP POP POP JUMP JUMPDEST PUSH2 0x1573 PUSH2 0x90A JUMP JUMPDEST PUSH1 0x1 PUSH1 0x1 PUSH1 0xA0 SHL SUB AND PUSH4 0xA9059CBB DUP4 DUP4 PUSH1 0x40 MLOAD DUP4 PUSH4 0xFFFFFFFF AND PUSH1 0xE0 SHL DUP2 MSTORE PUSH1 0x4 ADD PUSH2 0x15A0 SWAP3 SWAP2 SWAP1 PUSH2 0x227C JUMP JUMPDEST PUSH1 0x20 PUSH1 0x40 MLOAD DUP1 DUP4 SUB DUP2 PUSH1 0x0 DUP8 DUP1 EXTCODESIZE ISZERO DUP1 ISZERO PUSH2 0x15BA JUMPI PUSH1 0x0 DUP1 REVERT JUMPDEST POP GAS CALL ISZERO DUP1 ISZERO PUSH2 0x15CE JUMPI RETURNDATASIZE PUSH1 0x0 DUP1 RETURNDATACOPY RETURNDATASIZE PUSH1 0x0 REVERT JUMPDEST POP POP POP POP PUSH1 0x40 MLOAD RETURNDATASIZE PUSH1 0x1F NOT PUSH1 0x1F DUP3 ADD AND DUP3 ADD DUP1 PUSH1 0x40 MSTORE POP PUSH2 0x15F2 SWAP2 SWAP1 DUP2 ADD SWAP1 PUSH2 0x1EF8 JUMP JUMPDEST POP PUSH2 0x1615 DUP2 PUSH1 0x40 MLOAD DUP1 PUSH1 0x60 ADD PUSH1 0x40 MSTORE DUP1 PUSH1 0x2A DUP2 MSTORE PUSH1 0x20 ADD PUSH2 0x2498 PUSH1 0x2A SWAP2 CODECOPY PUSH2 0x185C JUMP JUMPDEST PUSH2 0x161D PUSH2 0x1877 JUMP JUMPDEST POP POP JUMP JUMPDEST PUSH1 0x0 PUSH2 0x1646 PUSH2 0x1641 DUP4 PUSH2 0x1635 DUP8 DUP8 DUP8 PUSH2 0x194C JUMP JUMPDEST SWAP1 PUSH4 0xFFFFFFFF PUSH2 0x1AB9 AND JUMP JUMPDEST PUSH2 0x1AE0 JUMP JUMPDEST SWAP5 SWAP4 POP POP POP POP JUMP JUMPDEST PUSH2 0x1656 PUSH2 0x90A JUMP JUMPDEST PUSH1 0x1 PUSH1 0x1 PUSH1 0xA0 SHL SUB AND PUSH4 0x23B872DD DUP4 ADDRESS DUP5 PUSH1 0x40 MLOAD DUP5 PUSH4 0xFFFFFFFF AND PUSH1 0xE0 SHL DUP2 MSTORE PUSH1 0x4 ADD PUSH2 0x1685 SWAP4 SWAP3 SWAP2 SWAP1 PUSH2 0x2254 JUMP JUMPDEST PUSH1 0x20 PUSH1 0x40 MLOAD DUP1 DUP4 SUB DUP2 PUSH1 0x0 DUP8 DUP1 EXTCODESIZE ISZERO DUP1 ISZERO PUSH2 0x169F JUMPI PUSH1 0x0 DUP1 REVERT JUMPDEST POP GAS CALL ISZERO DUP1 ISZERO PUSH2 0x16B3 JUMPI RETURNDATASIZE PUSH1 0x0 DUP1 RETURNDATACOPY RETURNDATASIZE PUSH1 0x0 REVERT JUMPDEST POP POP POP POP PUSH1 0x40 MLOAD RETURNDATASIZE PUSH1 0x1F NOT PUSH1 0x1F DUP3 ADD AND DUP3 ADD DUP1 PUSH1 0x40 MSTORE POP PUSH2 0x16D7 SWAP2 SWAP1 DUP2 ADD SWAP1 PUSH2 0x1EF8 JUMP JUMPDEST POP PUSH2 0x16E0 PUSH2 0x90A JUMP JUMPDEST PUSH1 0x1 PUSH1 0x1 PUSH1 0xA0 SHL SUB AND PUSH4 0x42966C68 DUP3 PUSH1 0x40 MLOAD DUP3 PUSH4 0xFFFFFFFF AND PUSH1 0xE0 SHL DUP2 MSTORE PUSH1 0x4 ADD PUSH2 0x170B SWAP2 SWAP1 PUSH2 0x2332 JUMP JUMPDEST PUSH1 0x0 PUSH1 0x40 MLOAD DUP1 DUP4 SUB DUP2 PUSH1 0x0 DUP8 DUP1 EXTCODESIZE ISZERO DUP1 ISZERO PUSH2 0x1725 JUMPI PUSH1 0x0 DUP1 REVERT JUMPDEST POP GAS CALL ISZERO DUP1 ISZERO PUSH2 0x1739 JUMPI RETURNDATASIZE PUSH1 0x0 DUP1 RETURNDATACOPY RETURNDATASIZE PUSH1 0x0 REVERT JUMPDEST POP POP POP POP PUSH2 0x1615 DUP2 PUSH1 0x40 MLOAD DUP1 PUSH1 0x60 ADD PUSH1 0x40 MSTORE DUP1 PUSH1 0x28 DUP2 MSTORE PUSH1 0x20 ADD PUSH2 0x2470 PUSH1 0x28 SWAP2 CODECOPY PUSH2 0x1AFD JUMP JUMPDEST PUSH1 0x0 DUP2 DUP5 DUP5 GT ISZERO PUSH2 0x1783 JUMPI PUSH1 0x40 MLOAD PUSH3 0x461BCD PUSH1 0xE5 SHL DUP2 MSTORE PUSH1 0x4 ADD PUSH2 0x626 SWAP2 SWAP1 PUSH2 0x22C1 JUMP JUMPDEST POP POP POP SWAP1 SUB SWAP1 JUMP JUMPDEST TIMESTAMP SWAP1 JUMP JUMPDEST PUSH1 0x0 DUP2 DUP4 PUSH2 0x17B0 JUMPI PUSH1 0x40 MLOAD PUSH3 0x461BCD PUSH1 0xE5 SHL DUP2 MSTORE PUSH1 0x4 ADD PUSH2 0x626 SWAP2 SWAP1 PUSH2 0x22C1 JUMP JUMPDEST POP PUSH1 0x0 DUP4 DUP6 DUP2 PUSH2 0x17BC JUMPI INVALID JUMPDEST DIV SWAP6 SWAP5 POP POP POP POP POP JUMP JUMPDEST PUSH1 0x0 PUSH2 0x1646 DUP3 PUSH2 0xA0F DUP7 DUP7 PUSH4 0xFFFFFFFF PUSH2 0x139B AND JUMP JUMPDEST PUSH1 0x60 DUP1 DUP3 PUSH1 0x40 MLOAD PUSH1 0x20 ADD PUSH2 0x17F0 SWAP2 SWAP1 PUSH2 0x2200 JUMP JUMPDEST PUSH1 0x40 DUP1 MLOAD PUSH1 0x1F NOT DUP2 DUP5 SUB ADD DUP2 MSTORE SWAP2 SWAP1 MSTORE SWAP1 POP PUSH1 0x20 JUMPDEST DUP1 ISZERO PUSH2 0x1845 JUMPI DUP2 MLOAD PUSH1 0x0 NOT SWAP1 SWAP2 ADD SWAP1 DUP3 SWAP1 DUP3 SWAP1 DUP2 LT PUSH2 0x1820 JUMPI INVALID JUMPDEST ADD PUSH1 0x20 ADD MLOAD PUSH1 0x1 PUSH1 0x1 PUSH1 0xF8 SHL SUB NOT AND ISZERO PUSH2 0x1840 JUMPI PUSH1 0x1 ADD DUP2 MSTORE SWAP1 POP PUSH2 0x776 JUMP JUMPDEST PUSH2 0x1805 JUMP JUMPDEST POP POP PUSH1 0x40 DUP1 MLOAD PUSH1 0x0 DUP2 MSTORE PUSH1 0x20 DUP2 ADD SWAP1 SWAP2 MSTORE SWAP3 SWAP2 POP POP JUMP JUMPDEST PUSH1 0x6 SLOAD PUSH2 0x1870 SWAP1 DUP4 DUP4 PUSH4 0xFFFFFFFF PUSH2 0x175F AND JUMP JUMPDEST PUSH1 0x6 SSTORE POP POP JUMP JUMPDEST PUSH2 0x194A PUSH2 0x1898 PUSH2 0x1885 PUSH2 0x7AE JUMP JUMPDEST PUSH2 0xC50 PUSH2 0x1890 PUSH2 0xE7F JUMP JUMPDEST PUSH2 0xC50 PUSH2 0x8B1 JUMP JUMPDEST PUSH2 0x18A0 PUSH2 0x90A JUMP JUMPDEST PUSH1 0x1 PUSH1 0x1 PUSH1 0xA0 SHL SUB AND PUSH4 0x70A08231 ADDRESS PUSH1 0x40 MLOAD DUP3 PUSH4 0xFFFFFFFF AND PUSH1 0xE0 SHL DUP2 MSTORE PUSH1 0x4 ADD PUSH2 0x18CB SWAP2 SWAP1 PUSH2 0x2246 JUMP JUMPDEST PUSH1 0x20 PUSH1 0x40 MLOAD DUP1 DUP4 SUB DUP2 DUP7 DUP1 EXTCODESIZE ISZERO DUP1 ISZERO PUSH2 0x18E3 JUMPI PUSH1 0x0 DUP1 REVERT JUMPDEST POP GAS STATICCALL ISZERO DUP1 ISZERO PUSH2 0x18F7 JUMPI RETURNDATASIZE PUSH1 0x0 DUP1 RETURNDATACOPY RETURNDATASIZE PUSH1 0x0 REVERT JUMPDEST POP POP POP POP PUSH1 0x40 MLOAD RETURNDATASIZE PUSH1 0x1F NOT PUSH1 0x1F DUP3 ADD AND DUP3 ADD DUP1 PUSH1 0x40 MSTORE POP PUSH2 0x191B SWAP2 SWAP1 DUP2 ADD SWAP1 PUSH2 0x1F34 JUMP JUMPDEST LT ISZERO PUSH11 0x21B7B6B83A3937B63632B9 PUSH1 0xA9 SHL PUSH21 0x496E636F6E73697374656E742062616C616E636573 PUSH1 0x58 SHL PUSH2 0x1511 JUMP JUMPDEST JUMP JUMPDEST PUSH2 0x1954 PUSH2 0x1D83 JUMP JUMPDEST PUSH2 0x195C PUSH2 0x1D83 JUMP JUMPDEST PUSH2 0x1966 DUP5 DUP7 PUSH2 0x1B18 JUMP JUMPDEST SWAP1 POP PUSH2 0x1970 PUSH2 0x1D83 JUMP JUMPDEST PUSH2 0x1978 PUSH2 0x1B3E JUMP JUMPDEST SWAP1 POP PUSH1 0x0 PUSH2 0x198C DUP8 DUP7 PUSH4 0xFFFFFFFF PUSH2 0x14CF AND JUMP JUMPDEST SWAP1 POP PUSH1 0x0 PUSH2 0x19A0 DUP8 DUP8 PUSH4 0xFFFFFFFF PUSH2 0x14CF AND JUMP JUMPDEST SWAP1 POP PUSH2 0x19AA PUSH2 0x1D83 JUMP JUMPDEST PUSH2 0x19B4 DUP3 DUP5 PUSH2 0x1B18 JUMP JUMPDEST SWAP1 POP PUSH2 0x19C6 DUP6 DUP6 PUSH4 0xFFFFFFFF PUSH2 0x1B60 AND JUMP JUMPDEST ISZERO PUSH2 0x1AA2 JUMPI PUSH2 0x19DB DUP2 DUP6 PUSH4 0xFFFFFFFF PUSH2 0x1B60 AND JUMP JUMPDEST ISZERO PUSH2 0x19F5 JUMPI PUSH2 0x19E9 DUP5 PUSH2 0x1B76 JUMP JUMPDEST SWAP6 POP POP POP POP POP POP PUSH2 0x7B7 JUMP JUMPDEST PUSH2 0x19FD PUSH2 0x1D83 JUMP JUMPDEST PUSH2 0x1A07 DUP3 DUP7 PUSH2 0x1BCE JUMP JUMPDEST SWAP1 POP PUSH2 0x1A11 PUSH2 0x1D83 JUMP JUMPDEST PUSH2 0x1A21 DUP7 DUP5 PUSH4 0xFFFFFFFF PUSH2 0x1C2B AND JUMP JUMPDEST SWAP1 POP PUSH2 0x1A2B PUSH2 0x1D83 JUMP JUMPDEST PUSH2 0x1A34 DUP8 PUSH2 0x1B76 JUMP JUMPDEST SWAP1 POP PUSH2 0x1A3E PUSH2 0x1D83 JUMP JUMPDEST PUSH2 0x1A4E DUP10 DUP10 PUSH4 0xFFFFFFFF PUSH2 0x1C2B AND JUMP JUMPDEST SWAP1 POP PUSH2 0x1A92 PUSH2 0x1A63 DUP5 DUP4 PUSH4 0xFFFFFFFF PUSH2 0x1C54 AND JUMP JUMPDEST PUSH2 0xBB9 PUSH2 0x1A76 DUP6 DUP6 PUSH4 0xFFFFFFFF PUSH2 0x147C AND JUMP JUMPDEST PUSH2 0x1A86 DUP9 DUP9 PUSH4 0xFFFFFFFF PUSH2 0x147C AND JUMP JUMPDEST SWAP1 PUSH4 0xFFFFFFFF PUSH2 0x1C54 AND JUMP JUMPDEST SWAP10 POP POP POP POP POP POP POP POP POP POP PUSH2 0x7B7 JUMP JUMPDEST PUSH2 0x1AAC DUP2 DUP7 PUSH2 0x1BCE JUMP JUMPDEST SWAP10 SWAP9 POP POP POP POP POP POP POP POP POP JUMP JUMPDEST PUSH2 0x1AC1 PUSH2 0x1D83 JUMP JUMPDEST PUSH1 0x40 DUP1 MLOAD PUSH1 0x20 DUP2 ADD SWAP1 SWAP2 MSTORE DUP4 MLOAD DUP2 SWAP1 PUSH2 0x1473 SWAP1 DUP6 PUSH4 0xFFFFFFFF PUSH2 0x139B AND JUMP JUMPDEST DUP1 MLOAD PUSH1 0x0 SWAP1 PUSH2 0x75D SWAP1 PUSH8 0xDE0B6B3A7640000 PUSH4 0xFFFFFFFF PUSH2 0x13D5 AND JUMP JUMPDEST PUSH1 0x7 SLOAD PUSH2 0x1B11 SWAP1 DUP4 DUP4 PUSH4 0xFFFFFFFF PUSH2 0x175F AND JUMP JUMPDEST PUSH1 0x7 SSTORE POP POP JUMP JUMPDEST PUSH2 0x1B20 PUSH2 0x1D83 JUMP JUMPDEST PUSH1 0x40 MLOAD DUP1 PUSH1 0x20 ADD PUSH1 0x40 MSTORE DUP1 PUSH2 0x1473 DUP6 PUSH8 0xDE0B6B3A7640000 DUP7 PUSH2 0x17C6 JUMP JUMPDEST PUSH2 0x1B46 PUSH2 0x1D83 JUMP JUMPDEST POP PUSH1 0x40 DUP1 MLOAD PUSH1 0x20 DUP2 ADD SWAP1 SWAP2 MSTORE PUSH8 0x4DB732547630000 DUP2 MSTORE SWAP1 JUMP JUMPDEST PUSH1 0x0 PUSH2 0x1B6C DUP4 DUP4 PUSH2 0x1C7D JUMP JUMPDEST PUSH1 0x2 EQ SWAP4 SWAP3 POP POP POP JUMP JUMPDEST PUSH2 0x1B7E PUSH2 0x1D83 JUMP JUMPDEST PUSH2 0x75D PUSH2 0x1B8D PUSH1 0x1 PUSH1 0x3 PUSH2 0x1B18 JUMP JUMPDEST PUSH2 0x1BA4 PUSH2 0x1BC6 PUSH2 0x1BBC PUSH1 0x2 PUSH2 0x1BB0 DUP9 PUSH2 0x1BA4 PUSH2 0x1CAF JUMP JUMPDEST SWAP1 PUSH4 0xFFFFFFFF PUSH2 0x1C2B AND JUMP JUMPDEST SWAP1 PUSH4 0xFFFFFFFF PUSH2 0x1CD1 AND JUMP JUMPDEST PUSH2 0xBC5 PUSH1 0x3 PUSH2 0x1D27 JUMP JUMPDEST PUSH2 0xBB9 PUSH2 0x1CAF JUMP JUMPDEST PUSH2 0x1BD6 PUSH2 0x1D83 JUMP JUMPDEST PUSH2 0x1BE6 DUP4 DUP4 PUSH4 0xFFFFFFFF PUSH2 0x1D5B AND JUMP JUMPDEST ISZERO PUSH2 0x1BFB JUMPI PUSH2 0x1BF4 DUP4 PUSH2 0x1B76 JUMP JUMPDEST SWAP1 POP PUSH2 0x75D JUMP JUMPDEST PUSH2 0x7B7 PUSH2 0x1C0A PUSH1 0x1 PUSH1 0x3 PUSH2 0x1B18 JUMP JUMPDEST PUSH2 0x1BA4 PUSH2 0x1BC6 PUSH2 0x1C1C DUP8 PUSH2 0x1BA4 PUSH2 0x1CAF JUMP JUMPDEST PUSH2 0xBC5 PUSH2 0x1BBC DUP9 PUSH2 0x1BA4 PUSH2 0x1CAF JUMP JUMPDEST PUSH2 0x1C33 PUSH2 0x1D83 JUMP JUMPDEST PUSH1 0x40 DUP1 MLOAD PUSH1 0x20 DUP2 ADD SWAP1 SWAP2 MSTORE DUP3 MLOAD DUP5 MLOAD DUP3 SWAP2 PUSH2 0x1473 SWAP2 SWAP1 PUSH4 0xFFFFFFFF PUSH2 0x14CF AND JUMP JUMPDEST PUSH2 0x1C5C PUSH2 0x1D83 JUMP JUMPDEST PUSH1 0x40 DUP1 MLOAD PUSH1 0x20 DUP2 ADD SWAP1 SWAP2 MSTORE DUP3 MLOAD DUP5 MLOAD DUP3 SWAP2 PUSH2 0x1473 SWAP2 SWAP1 PUSH4 0xFFFFFFFF PUSH2 0x14AA AND JUMP JUMPDEST DUP1 MLOAD DUP3 MLOAD PUSH1 0x0 SWAP2 EQ ISZERO PUSH2 0x1C92 JUMPI POP PUSH1 0x1 PUSH2 0x75D JUMP JUMPDEST DUP2 MLOAD DUP4 MLOAD GT PUSH2 0x1CA2 JUMPI PUSH1 0x0 PUSH2 0x1CA5 JUMP JUMPDEST PUSH1 0x2 JUMPDEST PUSH1 0xFF AND SWAP4 SWAP3 POP POP POP JUMP JUMPDEST PUSH2 0x1CB7 PUSH2 0x1D83 JUMP JUMPDEST POP PUSH1 0x40 DUP1 MLOAD PUSH1 0x20 DUP2 ADD SWAP1 SWAP2 MSTORE PUSH8 0xDE0B6B3A7640000 DUP2 MSTORE SWAP1 JUMP JUMPDEST PUSH2 0x1CD9 PUSH2 0x1D83 JUMP JUMPDEST DUP2 PUSH2 0x1CE8 JUMPI PUSH2 0x1BF4 PUSH1 0x1 PUSH2 0x1D27 JUMP JUMPDEST PUSH2 0x1CF0 PUSH2 0x1D83 JUMP JUMPDEST POP PUSH1 0x40 DUP1 MLOAD PUSH1 0x20 DUP2 ADD SWAP1 SWAP2 MSTORE DUP4 MLOAD DUP2 MSTORE PUSH1 0x1 JUMPDEST DUP4 DUP2 LT ISZERO PUSH2 0x1D1F JUMPI PUSH2 0x1D15 DUP3 DUP7 PUSH2 0x147C JUMP JUMPDEST SWAP2 POP PUSH1 0x1 ADD PUSH2 0x1D03 JUMP JUMPDEST POP SWAP4 SWAP3 POP POP POP JUMP JUMPDEST PUSH2 0x1D2F PUSH2 0x1D83 JUMP JUMPDEST PUSH1 0x40 DUP1 MLOAD PUSH1 0x20 DUP2 ADD SWAP1 SWAP2 MSTORE DUP1 PUSH2 0x1D53 DUP5 PUSH8 0xDE0B6B3A7640000 PUSH4 0xFFFFFFFF PUSH2 0x139B AND JUMP JUMPDEST SWAP1 MSTORE SWAP3 SWAP2 POP POP JUMP JUMPDEST MLOAD SWAP1 MLOAD EQ SWAP1 JUMP JUMPDEST PUSH1 0x40 MLOAD DUP1 PUSH1 0x60 ADD PUSH1 0x40 MSTORE DUP1 PUSH1 0x0 DUP2 MSTORE PUSH1 0x20 ADD PUSH1 0x0 DUP2 MSTORE PUSH1 0x20 ADD PUSH1 0x0 DUP2 MSTORE POP SWAP1 JUMP JUMPDEST PUSH1 0x40 MLOAD DUP1 PUSH1 0x20 ADD PUSH1 0x40 MSTORE DUP1 PUSH1 0x0 DUP2 MSTORE POP SWAP1 JUMP JUMPDEST DUP1 CALLDATALOAD PUSH2 0x75D DUP2 PUSH2 0x2402 JUMP JUMPDEST DUP1 MLOAD PUSH2 0x75D DUP2 PUSH2 0x2416 JUMP JUMPDEST DUP1 CALLDATALOAD PUSH2 0x75D DUP2 PUSH2 0x241F JUMP JUMPDEST DUP1 MLOAD PUSH2 0x75D DUP2 PUSH2 0x241F JUMP JUMPDEST PUSH1 0x0 PUSH1 0x20 DUP3 DUP5 SUB SLT ISZERO PUSH2 0x1DD4 JUMPI PUSH1 0x0 DUP1 REVERT JUMPDEST PUSH1 0x0 PUSH2 0x1646 DUP5 DUP5 PUSH2 0x1D96 JUMP JUMPDEST PUSH1 0x0 DUP1 PUSH1 0x40 DUP4 DUP6 SUB SLT ISZERO PUSH2 0x1DF3 JUMPI PUSH1 0x0 DUP1 REVERT JUMPDEST PUSH1 0x0 PUSH2 0x1DFF DUP6 DUP6 PUSH2 0x1D96 JUMP JUMPDEST SWAP3 POP POP PUSH1 0x20 PUSH2 0x1E10 DUP6 DUP3 DUP7 ADD PUSH2 0x1D96 JUMP JUMPDEST SWAP2 POP POP SWAP3 POP SWAP3 SWAP1 POP JUMP JUMPDEST PUSH1 0x0 DUP1 PUSH1 0x0 PUSH1 0x60 DUP5 DUP7 SUB SLT ISZERO PUSH2 0x1E2F JUMPI PUSH1 0x0 DUP1 REVERT JUMPDEST PUSH1 0x0 PUSH2 0x1E3B DUP7 DUP7 PUSH2 0x1D96 JUMP JUMPDEST SWAP4 POP POP PUSH1 0x20 PUSH2 0x1E4C DUP7 DUP3 DUP8 ADD PUSH2 0x1D96 JUMP JUMPDEST SWAP3 POP POP PUSH1 0x40 PUSH2 0x1E5D DUP7 DUP3 DUP8 ADD PUSH2 0x1DAC JUMP JUMPDEST SWAP2 POP POP SWAP3 POP SWAP3 POP SWAP3 JUMP JUMPDEST PUSH1 0x0 DUP1 PUSH1 0x0 DUP1 PUSH1 0x80 DUP6 DUP8 SUB SLT ISZERO PUSH2 0x1E7D JUMPI PUSH1 0x0 DUP1 REVERT JUMPDEST PUSH1 0x0 PUSH2 0x1E89 DUP8 DUP8 PUSH2 0x1D96 JUMP JUMPDEST SWAP5 POP POP PUSH1 0x20 PUSH2 0x1E9A DUP8 DUP3 DUP9 ADD PUSH2 0x1D96 JUMP JUMPDEST SWAP4 POP POP PUSH1 0x40 PUSH2 0x1EAB DUP8 DUP3 DUP9 ADD PUSH2 0x1DAC JUMP JUMPDEST SWAP3 POP POP PUSH1 0x60 PUSH2 0x1EBC DUP8 DUP3 DUP9 ADD PUSH2 0x1DAC JUMP JUMPDEST SWAP2 POP POP SWAP3 SWAP6 SWAP2 SWAP5 POP SWAP3 POP JUMP JUMPDEST PUSH1 0x0 DUP1 PUSH1 0x40 DUP4 DUP6 SUB SLT ISZERO PUSH2 0x1EDB JUMPI PUSH1 0x0 DUP1 REVERT JUMPDEST PUSH1 0x0 PUSH2 0x1EE7 DUP6 DUP6 PUSH2 0x1D96 JUMP JUMPDEST SWAP3 POP POP PUSH1 0x20 PUSH2 0x1E10 DUP6 DUP3 DUP7 ADD PUSH2 0x1DAC JUMP JUMPDEST PUSH1 0x0 PUSH1 0x20 DUP3 DUP5 SUB SLT ISZERO PUSH2 0x1F0A JUMPI PUSH1 0x0 DUP1 REVERT JUMPDEST PUSH1 0x0 PUSH2 0x1646 DUP5 DUP5 PUSH2 0x1DA1 JUMP JUMPDEST PUSH1 0x0 PUSH1 0x20 DUP3 DUP5 SUB SLT ISZERO PUSH2 0x1F28 JUMPI PUSH1 0x0 DUP1 REVERT JUMPDEST PUSH1 0x0 PUSH2 0x1646 DUP5 DUP5 PUSH2 0x1DAC JUMP JUMPDEST PUSH1 0x0 PUSH1 0x20 DUP3 DUP5 SUB SLT ISZERO PUSH2 0x1F46 JUMPI PUSH1 0x0 DUP1 REVERT JUMPDEST PUSH1 0x0 PUSH2 0x1646 DUP5 DUP5 PUSH2 0x1DB7 JUMP JUMPDEST PUSH1 0x0 DUP1 PUSH1 0x40 DUP4 DUP6 SUB SLT ISZERO PUSH2 0x1F65 JUMPI PUSH1 0x0 DUP1 REVERT JUMPDEST PUSH1 0x0 PUSH2 0x1EE7 DUP6 DUP6 PUSH2 0x1DAC JUMP JUMPDEST PUSH1 0x0 DUP1 PUSH1 0x0 PUSH1 0x60 DUP5 DUP7 SUB SLT ISZERO PUSH2 0x1F86 JUMPI PUSH1 0x0 DUP1 REVERT JUMPDEST PUSH1 0x0 PUSH2 0x1F92 DUP7 DUP7 PUSH2 0x1DAC JUMP JUMPDEST SWAP4 POP POP PUSH1 0x20 PUSH2 0x1E4C DUP7 DUP3 DUP8 ADD PUSH2 0x1DAC JUMP JUMPDEST PUSH2 0x1FAC DUP2 PUSH2 0x2369 JUMP JUMPDEST DUP3 MSTORE POP POP JUMP JUMPDEST PUSH2 0x1FAC DUP2 PUSH2 0x2374 JUMP JUMPDEST PUSH2 0x1FAC PUSH2 0x1FC7 DUP3 PUSH2 0x2379 JUMP JUMPDEST PUSH2 0x2386 JUMP JUMPDEST PUSH2 0x1FAC PUSH2 0x1FC7 DUP3 PUSH2 0x2386 JUMP JUMPDEST PUSH1 0x0 PUSH2 0x1FE3 DUP3 PUSH2 0x235C JUMP JUMPDEST PUSH2 0x1FED DUP2 DUP6 PUSH2 0x776 JUMP JUMPDEST SWAP4 POP PUSH2 0x1FFD DUP2 DUP6 PUSH1 0x20 DUP7 ADD PUSH2 0x23BB JUMP JUMPDEST SWAP3 SWAP1 SWAP3 ADD SWAP3 SWAP2 POP POP JUMP JUMPDEST PUSH2 0x1FAC DUP2 PUSH2 0x23A5 JUMP JUMPDEST PUSH2 0x1FAC DUP2 PUSH2 0x23B0 JUMP JUMPDEST PUSH1 0x0 PUSH2 0x2024 DUP3 PUSH2 0x235C JUMP JUMPDEST PUSH2 0x202E DUP2 DUP6 PUSH2 0x2360 JUMP JUMPDEST SWAP4 POP PUSH2 0x203E DUP2 DUP6 PUSH1 0x20 DUP7 ADD PUSH2 0x23BB JUMP JUMPDEST PUSH2 0x2047 DUP2 PUSH2 0x23EB JUMP JUMPDEST SWAP1 SWAP4 ADD SWAP4 SWAP3 POP POP POP JUMP JUMPDEST PUSH1 0x0 PUSH2 0x205E PUSH1 0x1B DUP4 PUSH2 0x2360 JUMP JUMPDEST PUSH32 0x536166654D6174683A206164646974696F6E206F766572666C6F770000000000 DUP2 MSTORE PUSH1 0x20 ADD SWAP3 SWAP2 POP POP JUMP JUMPDEST PUSH1 0x0 PUSH2 0x2097 PUSH1 0x2B DUP4 PUSH2 0x2360 JUMP JUMPDEST PUSH32 0x4D61726B65743A20436F75706F6E207472616E7366657220746F20746865207A DUP2 MSTORE PUSH11 0x65726F2061646472657373 PUSH1 0xA8 SHL PUSH1 0x20 DUP3 ADD MSTORE PUSH1 0x40 ADD SWAP3 SWAP2 POP POP JUMP JUMPDEST PUSH1 0x0 PUSH2 0x20E4 PUSH1 0x21 DUP4 PUSH2 0x2360 JUMP JUMPDEST PUSH32 0x536166654D6174683A206D756C7469706C69636174696F6E206F766572666C6F DUP2 MSTORE PUSH1 0x77 PUSH1 0xF8 SHL PUSH1 0x20 DUP3 ADD MSTORE PUSH1 0x40 ADD SWAP3 SWAP2 POP POP JUMP JUMPDEST PUSH1 0x0 PUSH2 0x2127 PUSH1 0x2A DUP4 PUSH2 0x2360 JUMP JUMPDEST PUSH32 0x4D61726B65743A20436F75706F6E20617070726F766520746F20746865207A65 DUP2 MSTORE PUSH10 0x726F2061646472657373 PUSH1 0xB0 SHL PUSH1 0x20 DUP3 ADD MSTORE PUSH1 0x40 ADD SWAP3 SWAP2 POP POP JUMP JUMPDEST PUSH1 0x0 PUSH2 0x2173 PUSH1 0x2D DUP4 PUSH2 0x2360 JUMP JUMPDEST PUSH32 0x4D61726B65743A20436F75706F6E207472616E736665722066726F6D20746865 DUP2 MSTORE PUSH13 0x207A65726F2061646472657373 PUSH1 0x98 SHL PUSH1 0x20 DUP3 ADD MSTORE PUSH1 0x40 ADD SWAP3 SWAP2 POP POP JUMP JUMPDEST PUSH1 0x0 PUSH2 0x21C2 PUSH1 0x1B DUP4 PUSH2 0x2360 JUMP JUMPDEST PUSH32 0x4D61726B65743A20546F6F206561726C7920746F2072656465656D0000000000 DUP2 MSTORE PUSH1 0x20 ADD SWAP3 SWAP2 POP POP JUMP JUMPDEST PUSH2 0x1FAC DUP2 PUSH2 0x2386 JUMP JUMPDEST PUSH2 0x1FAC DUP2 PUSH2 0x239F JUMP JUMPDEST PUSH1 0x0 PUSH2 0x220C DUP3 DUP5 PUSH2 0x1FCC JUMP JUMPDEST POP PUSH1 0x20 ADD SWAP2 SWAP1 POP JUMP JUMPDEST PUSH1 0x0 PUSH2 0x2221 DUP3 DUP7 PUSH2 0x1FD8 JUMP JUMPDEST SWAP2 POP PUSH2 0x222D DUP3 DUP6 PUSH2 0x1FBB JUMP JUMPDEST PUSH1 0x2 DUP3 ADD SWAP2 POP PUSH2 0x223D DUP3 DUP5 PUSH2 0x1FD8 JUMP JUMPDEST SWAP6 SWAP5 POP POP POP POP POP JUMP JUMPDEST PUSH1 0x20 DUP2 ADD PUSH2 0x75D DUP3 DUP5 PUSH2 0x1FA3 JUMP JUMPDEST PUSH1 0x60 DUP2 ADD PUSH2 0x2262 DUP3 DUP7 PUSH2 0x1FA3 JUMP JUMPDEST PUSH2 0x226F PUSH1 0x20 DUP4 ADD DUP6 PUSH2 0x1FA3 JUMP JUMPDEST PUSH2 0x1646 PUSH1 0x40 DUP4 ADD DUP5 PUSH2 0x21EE JUMP JUMPDEST PUSH1 0x40 DUP2 ADD PUSH2 0x228A DUP3 DUP6 PUSH2 0x1FA3 JUMP JUMPDEST PUSH2 0x7B7 PUSH1 0x20 DUP4 ADD DUP5 PUSH2 0x21EE JUMP JUMPDEST PUSH1 0x20 DUP2 ADD PUSH2 0x75D DUP3 DUP5 PUSH2 0x1FB2 JUMP JUMPDEST PUSH1 0x20 DUP2 ADD PUSH2 0x75D DUP3 DUP5 PUSH2 0x2007 JUMP JUMPDEST PUSH1 0x20 DUP2 ADD PUSH2 0x75D DUP3 DUP5 PUSH2 0x2010 JUMP JUMPDEST PUSH1 0x20 DUP1 DUP3 MSTORE DUP2 ADD PUSH2 0x7B7 DUP2 DUP5 PUSH2 0x2019 JUMP JUMPDEST PUSH1 0x20 DUP1 DUP3 MSTORE DUP2 ADD PUSH2 0x75D DUP2 PUSH2 0x2051 JUMP JUMPDEST PUSH1 0x20 DUP1 DUP3 MSTORE DUP2 ADD PUSH2 0x75D DUP2 PUSH2 0x208A JUMP JUMPDEST PUSH1 0x20 DUP1 DUP3 MSTORE DUP2 ADD PUSH2 0x75D DUP2 PUSH2 0x20D7 JUMP JUMPDEST PUSH1 0x20 DUP1 DUP3 MSTORE DUP2 ADD PUSH2 0x75D DUP2 PUSH2 0x211A JUMP JUMPDEST PUSH1 0x20 DUP1 DUP3 MSTORE DUP2 ADD PUSH2 0x75D DUP2 PUSH2 0x2166 JUMP JUMPDEST PUSH1 0x20 DUP1 DUP3 MSTORE DUP2 ADD PUSH2 0x75D DUP2 PUSH2 0x21B5 JUMP JUMPDEST PUSH1 0x20 DUP2 ADD PUSH2 0x75D DUP3 DUP5 PUSH2 0x21EE JUMP JUMPDEST PUSH1 0x40 DUP2 ADD PUSH2 0x228A DUP3 DUP6 PUSH2 0x21EE JUMP JUMPDEST PUSH1 0x20 DUP2 ADD PUSH2 0x75D DUP3 DUP5 PUSH2 0x21F7 JUMP JUMPDEST MLOAD SWAP1 JUMP JUMPDEST SWAP1 DUP2 MSTORE PUSH1 0x20 ADD SWAP1 JUMP JUMPDEST PUSH1 0x0 PUSH2 0x75D DUP3 PUSH2 0x2393 JUMP JUMPDEST ISZERO ISZERO SWAP1 JUMP JUMPDEST PUSH1 0x1 PUSH1 0x1 PUSH1 0xF0 SHL SUB NOT AND SWAP1 JUMP JUMPDEST SWAP1 JUMP JUMPDEST DUP1 PUSH2 0x776 DUP2 PUSH2 0x23F5 JUMP JUMPDEST PUSH1 0x1 PUSH1 0x1 PUSH1 0xA0 SHL SUB AND SWAP1 JUMP JUMPDEST PUSH1 0xFF AND SWAP1 JUMP JUMPDEST PUSH1 0x0 PUSH2 0x75D DUP3 PUSH2 0x2369 JUMP JUMPDEST PUSH1 0x0 PUSH2 0x75D DUP3 PUSH2 0x2389 JUMP JUMPDEST PUSH1 0x0 JUMPDEST DUP4 DUP2 LT ISZERO PUSH2 0x23D6 JUMPI DUP2 DUP2 ADD MLOAD DUP4 DUP3 ADD MSTORE PUSH1 0x20 ADD PUSH2 0x23BE JUMP JUMPDEST DUP4 DUP2 GT ISZERO PUSH2 0x23E5 JUMPI PUSH1 0x0 DUP5 DUP5 ADD MSTORE JUMPDEST POP POP POP POP JUMP JUMPDEST PUSH1 0x1F ADD PUSH1 0x1F NOT AND SWAP1 JUMP JUMPDEST PUSH1 0x3 DUP2 LT PUSH2 0x23FF JUMPI INVALID JUMPDEST POP JUMP JUMPDEST PUSH2 0x240B DUP2 PUSH2 0x2369 JUMP JUMPDEST DUP2 EQ PUSH2 0x23FF JUMPI PUSH1 0x0 DUP1 REVERT JUMPDEST PUSH2 0x240B DUP2 PUSH2 0x2374 JUMP JUMPDEST PUSH2 0x240B DUP2 PUSH2 0x2386 JUMP INVALID 0x4D PUSH2 0x726B PUSH6 0x743A20496E73 PUSH22 0x6666696369656E7420636F75706F6E2062616C616E63 PUSH6 0x4D61726B6574 GASPRICE KECCAK256 0x49 PUSH15 0x73756666696369656E7420636F7570 PUSH16 0x6E20617070726F76616C436F6D707472 PUSH16 0x6C6C65723A206E6F7420656E6F756768 KECCAK256 PUSH16 0x75747374616E64696E67206465627443 PUSH16 0x6D7074726F6C6C65723A206E6F742065 PUSH15 0x6F7567682072656465656D61626C65 KECCAK256 PUSH3 0x616C61 PUSH15 0x6365A365627A7A72315820C1C09460 0x24 0x1E 0xD1 0xB8 0xB2 ORIGIN 0xDD NOT XOR PUSH29 0x2CDAD47414286809C1FF900E8A41C88449536C6578706572696D656E74 PUSH2 0x6CF5 PUSH5 0x736F6C6343 STOP SDIV GT STOP BLOCKHASH "
		},
		"gasEstimates": {
			"creation": {
				"codeDepositCost": "1895200",
				"executionCost": "2005",
				"totalCost": "1897205"
			},
			"external": {
				"allowance(address,address)": "infinite",
				"allowanceCoupons(address,address)": "infinite",
				"approve(address,uint256)": "infinite",
				"approveCoupons(address,uint256)": "infinite",
				"approveFor(address)": "infinite",
				"balanceOf(address)": "infinite",
				"balanceOfBonded(address)": "infinite",
				"balanceOfCoupons(address,uint256)": "infinite",
				"balanceOfStaged(address)": "infinite",
				"bootstrappingAt(uint256)": "infinite",
				"couponPremium(uint256)": "infinite",
				"couponRedemptionPenalty(uint256,uint256)": "infinite",
				"couponsExpiration(uint256)": "infinite",
				"decimals()": "439",
				"dollar()": "infinite",
				"epoch()": "1211",
				"epochTime()": "infinite",
				"expiringCoupons(uint256)": "infinite",
				"expiringCouponsAtIndex(uint256,uint256)": "infinite",
				"fluidUntil(address)": "infinite",
				"implementation()": "infinite",
				"isInitialized(address)": "infinite",
				"isNominated(address)": "infinite",
				"lockedUntil(address)": "infinite",
				"name()": "infinite",
				"oracle()": "infinite",
				"outstandingCoupons(uint256)": "infinite",
				"periodFor(address)": "infinite",
				"pool()": "infinite",
				"purchaseCoupons(uint256)": "infinite",
				"recordedVote(address,address)": "infinite",
				"redeemCoupons(uint256,uint256)": "infinite",
				"redeemCoupons(uint256,uint256,uint256)": "infinite",
				"rejectFor(address)": "infinite",
				"startFor(address)": "infinite",
				"statusOf(address)": "infinite",
				"symbol()": "infinite",
				"totalBonded()": "1189",
				"totalBondedAt(uint256)": "infinite",
				"totalCoupons()": "1144",
				"totalDebt()": "1209",
				"totalNet()": "infinite",
				"totalRedeemable()": "1167",
				"totalStaged()": "1232",
				"totalSupply()": "1145",
				"transfer(address,uint256)": "infinite",
				"transferCoupons(address,address,uint256,uint256)": "infinite",
				"transferFrom(address,address,uint256)": "infinite",
				"votesFor(address)": "infinite"
			},
			"internal": {
				"expireCouponsForEpoch(uint256)": "infinite",
				"step()": "infinite"
			}
		},
		"methodIdentifiers": {
			"allowance(address,address)": "dd62ed3e",
			"allowanceCoupons(address,address)": "9f6e1b26",
			"approve(address,uint256)": "095ea7b3",
			"approveCoupons(address,uint256)": "2f7f889e",
			"approveFor(address)": "64668022",
			"balanceOf(address)": "70a08231",
			"balanceOfBonded(address)": "825ad607",
			"balanceOfCoupons(address,uint256)": "bc7513e2",
			"balanceOfStaged(address)": "86cf9f14",
			"bootstrappingAt(uint256)": "75d5024b",
			"couponPremium(uint256)": "d8f54138",
			"couponRedemptionPenalty(uint256,uint256)": "a1eb31e8",
			"couponsExpiration(uint256)": "10e95b6c",
			"decimals()": "313ce567",
			"dollar()": "51adeb57",
			"epoch()": "900cf0cf",
			"epochTime()": "5053e461",
			"expiringCoupons(uint256)": "6a39e328",
			"expiringCouponsAtIndex(uint256,uint256)": "4c736099",
			"fluidUntil(address)": "51bf21d8",
			"implementation()": "5c60da1b",
			"isInitialized(address)": "d60b347f",
			"isNominated(address)": "3a3e6c81",
			"lockedUntil(address)": "9bc289f1",
			"name()": "06fdde03",
			"oracle()": "7dc0d1d0",
			"outstandingCoupons(uint256)": "c9aff70c",
			"periodFor(address)": "15e14bf6",
			"pool()": "16f0115b",
			"purchaseCoupons(uint256)": "e5f55c7e",
			"recordedVote(address,address)": "3fbba9a6",
			"redeemCoupons(uint256,uint256)": "d6a9cf08",
			"redeemCoupons(uint256,uint256,uint256)": "bc0b1df6",
			"rejectFor(address)": "353a420c",
			"startFor(address)": "f1b7cf49",
			"statusOf(address)": "97a5d5b5",
			"symbol()": "95d89b41",
			"totalBonded()": "44d96e95",
			"totalBondedAt(uint256)": "ffbe3b73",
			"totalCoupons()": "9a649edc",
			"totalDebt()": "fc7b9c18",
			"totalNet()": "a6c409f1",
			"totalRedeemable()": "1edbcf6c",
			"totalStaged()": "cf023779",
			"totalSupply()": "18160ddd",
			"transfer(address,uint256)": "a9059cbb",
			"transferCoupons(address,address,uint256,uint256)": "005edd37",
			"transferFrom(address,address,uint256)": "23b872dd",
			"votesFor(address)": "a50cd8e7"
		}
	},
	"abi": [
		{
			"anonymous": false,
			"inputs": [
				{
					"indexed": true,
					"internalType": "address",
					"name": "owner",
					"type": "address"
				},
				{
					"indexed": true,
					"internalType": "address",
					"name": "spender",
					"type": "address"
				},
				{
					"indexed": false,
					"internalType": "uint256",
					"name": "value",
					"type": "uint256"
				}
			],
			"name": "CouponApproval",
			"type": "event"
		},
		{
			"anonymous": false,
			"inputs": [
				{
					"indexed": true,
					"internalType": "address",
					"name": "account",
					"type": "address"
				},
				{
					"indexed": true,
					"internalType": "uint256",
					"name": "epoch",
					"type": "uint256"
				},
				{
					"indexed": false,
					"internalType": "uint256",
					"name": "couponAmount",
					"type": "uint256"
				}
			],
			"name": "CouponBurn",
			"type": "event"
		},
		{
			"anonymous": false,
			"inputs": [
				{
					"indexed": true,
					"internalType": "uint256",
					"name": "epoch",
					"type": "uint256"
				},
				{
					"indexed": false,
					"internalType": "uint256",
					"name": "couponsExpired",
					"type": "uint256"
				},
				{
					"indexed": false,
					"internalType": "uint256",
					"name": "lessRedeemable",
					"type": "uint256"
				},
				{
					"indexed": false,
					"internalType": "uint256",
					"name": "lessDebt",
					"type": "uint256"
				},
				{
					"indexed": false,
					"internalType": "uint256",
					"name": "newBonded",
					"type": "uint256"
				}
			],
			"name": "CouponExpiration",
			"type": "event"
		},
		{
			"anonymous": false,
			"inputs": [
				{
					"indexed": true,
					"internalType": "address",
					"name": "account",
					"type": "address"
				},
				{
					"indexed": true,
					"internalType": "uint256",
					"name": "epoch",
					"type": "uint256"
				},
				{
					"indexed": false,
					"internalType": "uint256",
					"name": "dollarAmount",
					"type": "uint256"
				},
				{
					"indexed": false,
					"internalType": "uint256",
					"name": "couponAmount",
					"type": "uint256"
				}
			],
			"name": "CouponPurchase",
			"type": "event"
		},
		{
			"anonymous": false,
			"inputs": [
				{
					"indexed": true,
					"internalType": "address",
					"name": "account",
					"type": "address"
				},
				{
					"indexed": true,
					"internalType": "uint256",
					"name": "epoch",
					"type": "uint256"
				},
				{
					"indexed": false,
					"internalType": "uint256",
					"name": "couponAmount",
					"type": "uint256"
				}
			],
			"name": "CouponRedemption",
			"type": "event"
		},
		{
			"anonymous": false,
			"inputs": [
				{
					"indexed": true,
					"internalType": "address",
					"name": "from",
					"type": "address"
				},
				{
					"indexed": true,
					"internalType": "address",
					"name": "to",
					"type": "address"
				},
				{
					"indexed": true,
					"internalType": "uint256",
					"name": "epoch",
					"type": "uint256"
				},
				{
					"indexed": false,
					"internalType": "uint256",
					"name": "value",
					"type": "uint256"
				}
			],
			"name": "CouponTransfer",
			"type": "event"
		},
		{
			"anonymous": false,
			"inputs": [
				{
					"indexed": true,
					"internalType": "address",
					"name": "from",
					"type": "address"
				},
				{
					"indexed": true,
					"internalType": "address",
					"name": "to",
					"type": "address"
				},
				{
					"indexed": false,
					"internalType": "uint256",
					"name": "value",
					"type": "uint256"
				}
			],
			"name": "Transfer",
			"type": "event"
		},
		{
			"constant": true,
			"inputs": [
				{
					"internalType": "address",
					"name": "owner",
					"type": "address"
				},
				{
					"internalType": "address",
					"name": "spender",
					"type": "address"
				}
			],
			"name": "allowance",
			"outputs": [
				{
					"internalType": "uint256",
					"name": "",
					"type": "uint256"
				}
			],
			"payable": false,
			"stateMutability": "view",
			"type": "function"
		},
		{
			"constant": true,
			"inputs": [
				{
					"internalType": "address",
					"name": "owner",
					"type": "address"
				},
				{
					"internalType": "address",
					"name": "spender",
					"type": "address"
				}
			],
			"name": "allowanceCoupons",
			"outputs": [
				{
					"internalType": "uint256",
					"name": "",
					"type": "uint256"
				}
			],
			"payable": false,
			"stateMutability": "view",
			"type": "function"
		},
		{
			"constant": false,
			"inputs": [
				{
					"internalType": "address",
					"name": "spender",
					"type": "address"
				},
				{
					"internalType": "uint256",
					"name": "amount",
					"type": "uint256"
				}
			],
			"name": "approve",
			"outputs": [
				{
					"internalType": "bool",
					"name": "",
					"type": "bool"
				}
			],
			"payable": false,
			"stateMutability": "nonpayable",
			"type": "function"
		},
		{
			"constant": false,
			"inputs": [
				{
					"internalType": "address",
					"name": "spender",
					"type": "address"
				},
				{
					"internalType": "uint256",
					"name": "amount",
					"type": "uint256"
				}
			],
			"name": "approveCoupons",
			"outputs": [],
			"payable": false,
			"stateMutability": "nonpayable",
			"type": "function"
		},
		{
			"constant": true,
			"inputs": [
				{
					"internalType": "address",
					"name": "candidate",
					"type": "address"
				}
			],
			"name": "approveFor",
			"outputs": [
				{
					"internalType": "uint256",
					"name": "",
					"type": "uint256"
				}
			],
			"payable": false,
			"stateMutability": "view",
			"type": "function"
		},
		{
			"constant": true,
			"inputs": [
				{
					"internalType": "address",
					"name": "account",
					"type": "address"
				}
			],
			"name": "balanceOf",
			"outputs": [
				{
					"internalType": "uint256",
					"name": "",
					"type": "uint256"
				}
			],
			"payable": false,
			"stateMutability": "view",
			"type": "function"
		},
		{
			"constant": true,
			"inputs": [
				{
					"internalType": "address",
					"name": "account",
					"type": "address"
				}
			],
			"name": "balanceOfBonded",
			"outputs": [
				{
					"internalType": "uint256",
					"name": "",
					"type": "uint256"
				}
			],
			"payable": false,
			"stateMutability": "view",
			"type": "function"
		},
		{
			"constant": true,
			"inputs": [
				{
					"internalType": "address",
					"name": "account",
					"type": "address"
				},
				{
					"internalType": "uint256",
					"name": "epoch",
					"type": "uint256"
				}
			],
			"name": "balanceOfCoupons",
			"outputs": [
				{
					"internalType": "uint256",
					"name": "",
					"type": "uint256"
				}
			],
			"payable": false,
			"stateMutability": "view",
			"type": "function"
		},
		{
			"constant": true,
			"inputs": [
				{
					"internalType": "address",
					"name": "account",
					"type": "address"
				}
			],
			"name": "balanceOfStaged",
			"outputs": [
				{
					"internalType": "uint256",
					"name": "",
					"type": "uint256"
				}
			],
			"payable": false,
			"stateMutability": "view",
			"type": "function"
		},
		{
			"constant": true,
			"inputs": [
				{
					"internalType": "uint256",
					"name": "epoch",
					"type": "uint256"
				}
			],
			"name": "bootstrappingAt",
			"outputs": [
				{
					"internalType": "bool",
					"name": "",
					"type": "bool"
				}
			],
			"payable": false,
			"stateMutability": "view",
			"type": "function"
		},
		{
			"constant": true,
			"inputs": [
				{
					"internalType": "uint256",
					"name": "amount",
					"type": "uint256"
				}
			],
			"name": "couponPremium",
			"outputs": [
				{
					"internalType": "uint256",
					"name": "",
					"type": "uint256"
				}
			],
			"payable": false,
			"stateMutability": "view",
			"type": "function"
		},
		{
			"constant": true,
			"inputs": [
				{
					"internalType": "uint256",
					"name": "couponEpoch",
					"type": "uint256"
				},
				{
					"internalType": "uint256",
					"name": "couponAmount",
					"type": "uint256"
				}
			],
			"name": "couponRedemptionPenalty",
			"outputs": [
				{
					"internalType": "uint256",
					"name": "",
					"type": "uint256"
				}
			],
			"payable": false,
			"stateMutability": "view",
			"type": "function"
		},
		{
			"constant": true,
			"inputs": [
				{
					"internalType": "uint256",
					"name": "epoch",
					"type": "uint256"
				}
			],
			"name": "couponsExpiration",
			"outputs": [
				{
					"internalType": "uint256",
					"name": "",
					"type": "uint256"
				}
			],
			"payable": false,
			"stateMutability": "view",
			"type": "function"
		},
		{
			"constant": true,
			"inputs": [],
			"name": "decimals",
			"outputs": [
				{
					"internalType": "uint8",
					"name": "",
					"type": "uint8"
				}
			],
			"payable": false,
			"stateMutability": "view",
			"type": "function"
		},
		{
			"constant": true,
			"inputs": [],
			"name": "dollar",
			"outputs": [
				{
					"internalType": "contract IDollar",
					"name": "",
					"type": "address"
				}
			],
			"payable": false,
			"stateMutability": "view",
			"type": "function"
		},
		{
			"constant": true,
			"inputs": [],
			"name": "epoch",
			"outputs": [
				{
					"internalType": "uint256",
					"name": "",
					"type": "uint256"
				}
			],
			"payable": false,
			"stateMutability": "view",
			"type": "function"
		},
		{
			"constant": true,
			"inputs": [],
			"name": "epochTime",
			"outputs": [
				{
					"internalType": "uint256",
					"name": "",
					"type": "uint256"
				}
			],
			"payable": false,
			"stateMutability": "view",
			"type": "function"
		},
		{
			"constant": true,
			"inputs": [
				{
					"internalType": "uint256",
					"name": "epoch",
					"type": "uint256"
				}
			],
			"name": "expiringCoupons",
			"outputs": [
				{
					"internalType": "uint256",
					"name": "",
					"type": "uint256"
				}
			],
			"payable": false,
			"stateMutability": "view",
			"type": "function"
		},
		{
			"constant": true,
			"inputs": [
				{
					"internalType": "uint256",
					"name": "epoch",
					"type": "uint256"
				},
				{
					"internalType": "uint256",
					"name": "i",
					"type": "uint256"
				}
			],
			"name": "expiringCouponsAtIndex",
			"outputs": [
				{
					"internalType": "uint256",
					"name": "",
					"type": "uint256"
				}
			],
			"payable": false,
			"stateMutability": "view",
			"type": "function"
		},
		{
			"constant": true,
			"inputs": [
				{
					"internalType": "address",
					"name": "account",
					"type": "address"
				}
			],
			"name": "fluidUntil",
			"outputs": [
				{
					"internalType": "uint256",
					"name": "",
					"type": "uint256"
				}
			],
			"payable": false,
			"stateMutability": "view",
			"type": "function"
		},
		{
			"constant": true,
			"inputs": [],
			"name": "implementation",
			"outputs": [
				{
					"internalType": "address",
					"name": "impl",
					"type": "address"
				}
			],
			"payable": false,
			"stateMutability": "view",
			"type": "function"
		},
		{
			"constant": true,
			"inputs": [
				{
					"internalType": "address",
					"name": "candidate",
					"type": "address"
				}
			],
			"name": "isInitialized",
			"outputs": [
				{
					"internalType": "bool",
					"name": "",
					"type": "bool"
				}
			],
			"payable": false,
			"stateMutability": "view",
			"type": "function"
		},
		{
			"constant": true,
			"inputs": [
				{
					"internalType": "address",
					"name": "candidate",
					"type": "address"
				}
			],
			"name": "isNominated",
			"outputs": [
				{
					"internalType": "bool",
					"name": "",
					"type": "bool"
				}
			],
			"payable": false,
			"stateMutability": "view",
			"type": "function"
		},
		{
			"constant": true,
			"inputs": [
				{
					"internalType": "address",
					"name": "account",
					"type": "address"
				}
			],
			"name": "lockedUntil",
			"outputs": [
				{
					"internalType": "uint256",
					"name": "",
					"type": "uint256"
				}
			],
			"payable": false,
			"stateMutability": "view",
			"type": "function"
		},
		{
			"constant": true,
			"inputs": [],
			"name": "name",
			"outputs": [
				{
					"internalType": "string",
					"name": "",
					"type": "string"
				}
			],
			"payable": false,
			"stateMutability": "view",
			"type": "function"
		},
		{
			"constant": true,
			"inputs": [],
			"name": "oracle",
			"outputs": [
				{
					"internalType": "contract IOracle",
					"name": "",
					"type": "address"
				}
			],
			"payable": false,
			"stateMutability": "view",
			"type": "function"
		},
		{
			"constant": true,
			"inputs": [
				{
					"internalType": "uint256",
					"name": "epoch",
					"type": "uint256"
				}
			],
			"name": "outstandingCoupons",
			"outputs": [
				{
					"internalType": "uint256",
					"name": "",
					"type": "uint256"
				}
			],
			"payable": false,
			"stateMutability": "view",
			"type": "function"
		},
		{
			"constant": true,
			"inputs": [
				{
					"internalType": "address",
					"name": "candidate",
					"type": "address"
				}
			],
			"name": "periodFor",
			"outputs": [
				{
					"internalType": "uint256",
					"name": "",
					"type": "uint256"
				}
			],
			"payable": false,
			"stateMutability": "view",
			"type": "function"
		},
		{
			"constant": true,
			"inputs": [],
			"name": "pool",
			"outputs": [
				{
					"internalType": "address",
					"name": "",
					"type": "address"
				}
			],
			"payable": false,
			"stateMutability": "view",
			"type": "function"
		},
		{
			"constant": false,
			"inputs": [
				{
					"internalType": "uint256",
					"name": "dollarAmount",
					"type": "uint256"
				}
			],
			"name": "purchaseCoupons",
			"outputs": [
				{
					"internalType": "uint256",
					"name": "",
					"type": "uint256"
				}
			],
			"payable": false,
			"stateMutability": "nonpayable",
			"type": "function"
		},
		{
			"constant": true,
			"inputs": [
				{
					"internalType": "address",
					"name": "account",
					"type": "address"
				},
				{
					"internalType": "address",
					"name": "candidate",
					"type": "address"
				}
			],
			"name": "recordedVote",
			"outputs": [
				{
					"internalType": "enum Candidate.Vote",
					"name": "",
					"type": "uint8"
				}
			],
			"payable": false,
			"stateMutability": "view",
			"type": "function"
		},
		{
			"constant": false,
			"inputs": [
				{
					"internalType": "uint256",
					"name": "couponEpoch",
					"type": "uint256"
				},
				{
					"internalType": "uint256",
					"name": "couponAmount",
					"type": "uint256"
				},
				{
					"internalType": "uint256",
					"name": "minOutput",
					"type": "uint256"
				}
			],
			"name": "redeemCoupons",
			"outputs": [],
			"payable": false,
			"stateMutability": "nonpayable",
			"type": "function"
		},
		{
			"constant": false,
			"inputs": [
				{
					"internalType": "uint256",
					"name": "couponEpoch",
					"type": "uint256"
				},
				{
					"internalType": "uint256",
					"name": "couponAmount",
					"type": "uint256"
				}
			],
			"name": "redeemCoupons",
			"outputs": [],
			"payable": false,
			"stateMutability": "nonpayable",
			"type": "function"
		},
		{
			"constant": true,
			"inputs": [
				{
					"internalType": "address",
					"name": "candidate",
					"type": "address"
				}
			],
			"name": "rejectFor",
			"outputs": [
				{
					"internalType": "uint256",
					"name": "",
					"type": "uint256"
				}
			],
			"payable": false,
			"stateMutability": "view",
			"type": "function"
		},
		{
			"constant": true,
			"inputs": [
				{
					"internalType": "address",
					"name": "candidate",
					"type": "address"
				}
			],
			"name": "startFor",
			"outputs": [
				{
					"internalType": "uint256",
					"name": "",
					"type": "uint256"
				}
			],
			"payable": false,
			"stateMutability": "view",
			"type": "function"
		},
		{
			"constant": true,
			"inputs": [
				{
					"internalType": "address",
					"name": "account",
					"type": "address"
				}
			],
			"name": "statusOf",
			"outputs": [
				{
					"internalType": "enum Account.Status",
					"name": "",
					"type": "uint8"
				}
			],
			"payable": false,
			"stateMutability": "view",
			"type": "function"
		},
		{
			"constant": true,
			"inputs": [],
			"name": "symbol",
			"outputs": [
				{
					"internalType": "string",
					"name": "",
					"type": "string"
				}
			],
			"payable": false,
			"stateMutability": "view",
			"type": "function"
		},
		{
			"constant": true,
			"inputs": [],
			"name": "totalBonded",
			"outputs": [
				{
					"internalType": "uint256",
					"name": "",
					"type": "uint256"
				}
			],
			"payable": false,
			"stateMutability": "view",
			"type": "function"
		},
		{
			"constant": true,
			"inputs": [
				{
					"internalType": "uint256",
					"name": "epoch",
					"type": "uint256"
				}
			],
			"name": "totalBondedAt",
			"outputs": [
				{
					"internalType": "uint256",
					"name": "",
					"type": "uint256"
				}
			],
			"payable": false,
			"stateMutability": "view",
			"type": "function"
		},
		{
			"constant": true,
			"inputs": [],
			"name": "totalCoupons",
			"outputs": [
				{
					"internalType": "uint256",
					"name": "",
					"type": "uint256"
				}
			],
			"payable": false,
			"stateMutability": "view",
			"type": "function"
		},
		{
			"constant": true,
			"inputs": [],
			"name": "totalDebt",
			"outputs": [
				{
					"internalType": "uint256",
					"name": "",
					"type": "uint256"
				}
			],
			"payable": false,
			"stateMutability": "view",
			"type": "function"
		},
		{
			"constant": true,
			"inputs": [],
			"name": "totalNet",
			"outputs": [
				{
					"internalType": "uint256",
					"name": "",
					"type": "uint256"
				}
			],
			"payable": false,
			"stateMutability": "view",
			"type": "function"
		},
		{
			"constant": true,
			"inputs": [],
			"name": "totalRedeemable",
			"outputs": [
				{
					"internalType": "uint256",
					"name": "",
					"type": "uint256"
				}
			],
			"payable": false,
			"stateMutability": "view",
			"type": "function"
		},
		{
			"constant": true,
			"inputs": [],
			"name": "totalStaged",
			"outputs": [
				{
					"internalType": "uint256",
					"name": "",
					"type": "uint256"
				}
			],
			"payable": false,
			"stateMutability": "view",
			"type": "function"
		},
		{
			"constant": true,
			"inputs": [],
			"name": "totalSupply",
			"outputs": [
				{
					"internalType": "uint256",
					"name": "",
					"type": "uint256"
				}
			],
			"payable": false,
			"stateMutability": "view",
			"type": "function"
		},
		{
			"constant": false,
			"inputs": [
				{
					"internalType": "address",
					"name": "recipient",
					"type": "address"
				},
				{
					"internalType": "uint256",
					"name": "amount",
					"type": "uint256"
				}
			],
			"name": "transfer",
			"outputs": [
				{
					"internalType": "bool",
					"name": "",
					"type": "bool"
				}
			],
			"payable": false,
			"stateMutability": "nonpayable",
			"type": "function"
		},
		{
			"constant": false,
			"inputs": [
				{
					"internalType": "address",
					"name": "sender",
					"type": "address"
				},
				{
					"internalType": "address",
					"name": "recipient",
					"type": "address"
				},
				{
					"internalType": "uint256",
					"name": "epoch",
					"type": "uint256"
				},
				{
					"internalType": "uint256",
					"name": "amount",
					"type": "uint256"
				}
			],
			"name": "transferCoupons",
			"outputs": [],
			"payable": false,
			"stateMutability": "nonpayable",
			"type": "function"
		},
		{
			"constant": false,
			"inputs": [
				{
					"internalType": "address",
					"name": "sender",
					"type": "address"
				},
				{
					"internalType": "address",
					"name": "recipient",
					"type": "address"
				},
				{
					"internalType": "uint256",
					"name": "amount",
					"type": "uint256"
				}
			],
			"name": "transferFrom",
			"outputs": [
				{
					"internalType": "bool",
					"name": "",
					"type": "bool"
				}
			],
			"payable": false,
			"stateMutability": "nonpayable",
			"type": "function"
		},
		{
			"constant": true,
			"inputs": [
				{
					"internalType": "address",
					"name": "candidate",
					"type": "address"
				}
			],
			"name": "votesFor",
			"outputs": [
				{
					"internalType": "uint256",
					"name": "",
					"type": "uint256"
				}
			],
			"payable": false,
			"stateMutability": "view",
			"type": "function"
		}
	]
}